{
  "_format": "hh-sol-artifact-1",
  "contractName": "CERT",
  "sourceName": "contracts/token.sol",
  "abi": [
    {
      "inputs": [
        {
          "internalType": "string",
          "name": "name",
          "type": "string"
        },
        {
          "internalType": "string",
          "name": "symbol",
          "type": "string"
        }
      ],
      "stateMutability": "nonpayable",
      "type": "constructor"
    },
    {
      "anonymous": false,
      "inputs": [
        {
          "indexed": true,
          "internalType": "address",
          "name": "owner",
          "type": "address"
        },
        {
          "indexed": true,
          "internalType": "address",
          "name": "approved",
          "type": "address"
        },
        {
          "indexed": true,
          "internalType": "uint256",
          "name": "tokenId",
          "type": "uint256"
        }
      ],
      "name": "Approval",
      "type": "event"
    },
    {
      "anonymous": false,
      "inputs": [
        {
          "indexed": true,
          "internalType": "address",
          "name": "owner",
          "type": "address"
        },
        {
          "indexed": true,
          "internalType": "address",
          "name": "operator",
          "type": "address"
        },
        {
          "indexed": false,
          "internalType": "bool",
          "name": "approved",
          "type": "bool"
        }
      ],
      "name": "ApprovalForAll",
      "type": "event"
    },
    {
      "anonymous": false,
      "inputs": [
        {
          "indexed": true,
          "internalType": "address",
          "name": "from",
          "type": "address"
        },
        {
          "indexed": true,
          "internalType": "address",
          "name": "to",
          "type": "address"
        },
        {
          "indexed": true,
          "internalType": "uint256",
          "name": "tokenId",
          "type": "uint256"
        }
      ],
      "name": "Transfer",
      "type": "event"
    },
    {
      "inputs": [
        {
          "internalType": "address",
          "name": "to",
          "type": "address"
        },
        {
          "internalType": "uint256",
          "name": "tokenId",
          "type": "uint256"
        }
      ],
      "name": "approve",
      "outputs": [],
      "stateMutability": "nonpayable",
      "type": "function"
    },
    {
      "inputs": [
        {
          "internalType": "address",
          "name": "owner",
          "type": "address"
        }
      ],
      "name": "balanceOf",
      "outputs": [
        {
          "internalType": "uint256",
          "name": "",
          "type": "uint256"
        }
      ],
      "stateMutability": "view",
      "type": "function"
    },
    {
      "inputs": [
        {
          "internalType": "uint256",
          "name": "tokenId",
          "type": "uint256"
        }
      ],
      "name": "getApproved",
      "outputs": [
        {
          "internalType": "address",
          "name": "",
          "type": "address"
        }
      ],
      "stateMutability": "view",
      "type": "function"
    },
    {
      "inputs": [
        {
          "internalType": "address",
          "name": "owner",
          "type": "address"
        },
        {
          "internalType": "address",
          "name": "operator",
          "type": "address"
        }
      ],
      "name": "isApprovedForAll",
      "outputs": [
        {
          "internalType": "bool",
          "name": "",
          "type": "bool"
        }
      ],
      "stateMutability": "view",
      "type": "function"
    },
    {
      "inputs": [
        {
          "internalType": "string",
          "name": "_tokenURI",
          "type": "string"
        }
      ],
      "name": "mint",
      "outputs": [],
      "stateMutability": "nonpayable",
      "type": "function"
    },
    {
      "inputs": [],
      "name": "name",
      "outputs": [
        {
          "internalType": "string",
          "name": "",
          "type": "string"
        }
      ],
      "stateMutability": "view",
      "type": "function"
    },
    {
      "inputs": [
        {
          "internalType": "uint256",
          "name": "tokenId",
          "type": "uint256"
        }
      ],
      "name": "ownerOf",
      "outputs": [
        {
          "internalType": "address",
          "name": "",
          "type": "address"
        }
      ],
      "stateMutability": "view",
      "type": "function"
    },
    {
      "inputs": [
        {
          "internalType": "address",
          "name": "from",
          "type": "address"
        },
        {
          "internalType": "address",
          "name": "to",
          "type": "address"
        },
        {
          "internalType": "uint256",
          "name": "tokenId",
          "type": "uint256"
        }
      ],
      "name": "safeTransferFrom",
      "outputs": [],
      "stateMutability": "nonpayable",
      "type": "function"
    },
    {
      "inputs": [
        {
          "internalType": "address",
          "name": "from",
          "type": "address"
        },
        {
          "internalType": "address",
          "name": "to",
          "type": "address"
        },
        {
          "internalType": "uint256",
          "name": "tokenId",
          "type": "uint256"
        },
        {
          "internalType": "bytes",
          "name": "data",
          "type": "bytes"
        }
      ],
      "name": "safeTransferFrom",
      "outputs": [],
      "stateMutability": "nonpayable",
      "type": "function"
    },
    {
      "inputs": [
        {
          "internalType": "address",
          "name": "operator",
          "type": "address"
        },
        {
          "internalType": "bool",
          "name": "approved",
          "type": "bool"
        }
      ],
      "name": "setApprovalForAll",
      "outputs": [],
      "stateMutability": "nonpayable",
      "type": "function"
    },
    {
      "inputs": [
        {
          "internalType": "bytes4",
          "name": "interfaceId",
          "type": "bytes4"
        }
      ],
      "name": "supportsInterface",
      "outputs": [
        {
          "internalType": "bool",
          "name": "",
          "type": "bool"
        }
      ],
      "stateMutability": "view",
      "type": "function"
    },
    {
      "inputs": [],
      "name": "symbol",
      "outputs": [
        {
          "internalType": "string",
          "name": "",
          "type": "string"
        }
      ],
      "stateMutability": "view",
      "type": "function"
    },
    {
      "inputs": [],
      "name": "tokenCounter",
      "outputs": [
        {
          "internalType": "uint256",
          "name": "",
          "type": "uint256"
        }
      ],
      "stateMutability": "view",
      "type": "function"
    },
    {
      "inputs": [
        {
          "internalType": "uint256",
          "name": "_tokenId",
          "type": "uint256"
        }
      ],
      "name": "tokenURI",
      "outputs": [
        {
          "internalType": "string",
          "name": "",
          "type": "string"
        }
      ],
      "stateMutability": "view",
      "type": "function"
    },
    {
      "inputs": [
        {
          "internalType": "address",
          "name": "from",
          "type": "address"
        },
        {
          "internalType": "address",
          "name": "to",
          "type": "address"
        },
        {
          "internalType": "uint256",
          "name": "tokenId",
          "type": "uint256"
        }
      ],
      "name": "transferFrom",
      "outputs": [],
      "stateMutability": "nonpayable",
      "type": "function"
    }
  ],
  "bytecode": "0x60806040523480156200001157600080fd5b506040516200294e3803806200294e83398181016040528101906200003791906200019f565b81818160009080519060200190620000519291906200007d565b5080600190805190602001906200006a9291906200007d565b5050506000600681905550505062000382565b8280546200008b90620002a7565b90600052602060002090601f016020900481019282620000af5760008555620000fb565b82601f10620000ca57805160ff1916838001178555620000fb565b82800160010185558215620000fb579182015b82811115620000fa578251825591602001919060010190620000dd565b5b5090506200010a91906200010e565b5090565b5b80821115620001295760008160009055506001016200010f565b5090565b6000620001446200013e846200023b565b62000212565b9050828152602081018484840111156200015d57600080fd5b6200016a84828562000271565b509392505050565b600082601f8301126200018457600080fd5b8151620001968482602086016200012d565b91505092915050565b60008060408385031215620001b357600080fd5b600083015167ffffffffffffffff811115620001ce57600080fd5b620001dc8582860162000172565b925050602083015167ffffffffffffffff811115620001fa57600080fd5b620002088582860162000172565b9150509250929050565b60006200021e62000231565b90506200022c8282620002dd565b919050565b6000604051905090565b600067ffffffffffffffff82111562000259576200025862000342565b5b620002648262000371565b9050602081019050919050565b60005b838110156200029157808201518184015260208101905062000274565b83811115620002a1576000848401525b50505050565b60006002820490506001821680620002c057607f821691505b60208210811415620002d757620002d662000313565b5b50919050565b620002e88262000371565b810181811067ffffffffffffffff821117156200030a576200030962000342565b5b80604052505050565b7f4e487b7100000000000000000000000000000000000000000000000000000000600052602260045260246000fd5b7f4e487b7100000000000000000000000000000000000000000000000000000000600052604160045260246000fd5b6000601f19601f8301169050919050565b6125bc80620003926000396000f3fe608060405234801561001057600080fd5b50600436106100f55760003560e01c806370a0823111610097578063c87b56dd11610066578063c87b56dd14610282578063d082e381146102b2578063d85d3d27146102d0578063e985e9c5146102ec576100f5565b806370a08231146101fc57806395d89b411461022c578063a22cb4651461024a578063b88d4fde14610266576100f5565b8063095ea7b3116100d3578063095ea7b31461017857806323b872dd1461019457806342842e0e146101b05780636352211e146101cc576100f5565b806301ffc9a7146100fa57806306fdde031461012a578063081812fc14610148575b600080fd5b610114600480360381019061010f9190611a11565b61031c565b6040516101219190611d77565b60405180910390f35b6101326103fe565b60405161013f9190611d92565b60405180910390f35b610162600480360381019061015d9190611aa4565b610490565b60405161016f9190611d10565b60405180910390f35b610192600480360381019061018d91906119d5565b6104d6565b005b6101ae60048036038101906101a991906118cf565b6105ee565b005b6101ca60048036038101906101c591906118cf565b61064e565b005b6101e660048036038101906101e19190611aa4565b61066e565b6040516101f39190611d10565b60405180910390f35b6102166004803603810190610211919061186a565b6106f5565b6040516102239190611f34565b60405180910390f35b6102346107ad565b6040516102419190611d92565b60405180910390f35b610264600480360381019061025f9190611999565b61083f565b005b610280600480360381019061027b919061191e565b610855565b005b61029c60048036038101906102979190611aa4565b6108b7565b6040516102a99190611d92565b60405180910390f35b6102ba6109a4565b6040516102c79190611f34565b60405180910390f35b6102ea60048036038101906102e59190611a63565b6109aa565b005b61030660048036038101906103019190611893565b6109dd565b6040516103139190611d77565b60405180910390f35b60007f80ac58cd000000000000000000000000000000000000000000000000000000007bffffffffffffffffffffffffffffffffffffffffffffffffffffffff1916827bffffffffffffffffffffffffffffffffffffffffffffffffffffffff191614806103e757507f5b5e139f000000000000000000000000000000000000000000000000000000007bffffffffffffffffffffffffffffffffffffffffffffffffffffffff1916827bffffffffffffffffffffffffffffffffffffffffffffffffffffffff1916145b806103f757506103f682610a71565b5b9050919050565b60606000805461040d906120c4565b80601f0160208091040260200160405190810160405280929190818152602001828054610439906120c4565b80156104865780601f1061045b57610100808354040283529160200191610486565b820191906000526020600020905b81548152906001019060200180831161046957829003601f168201915b5050505050905090565b600061049b82610adb565b6004600083815260200190815260200160002060009054906101000a900473ffffffffffffffffffffffffffffffffffffffff169050919050565b60006104e18261066e565b90508073ffffffffffffffffffffffffffffffffffffffff168373ffffffffffffffffffffffffffffffffffffffff161415610552576040517f08c379a000000000000000000000000000000000000000000000000000000000815260040161054990611ef4565b60405180910390fd5b8073ffffffffffffffffffffffffffffffffffffffff16610571610b26565b73ffffffffffffffffffffffffffffffffffffffff1614806105a0575061059f8161059a610b26565b6109dd565b5b6105df576040517f08c379a00000000000000000000000000000000000000000000000000000000081526004016105d690611f14565b60405180910390fd5b6105e98383610b2e565b505050565b6105ff6105f9610b26565b82610be7565b61063e576040517f08c379a000000000000000000000000000000000000000000000000000000000815260040161063590611db4565b60405180910390fd5b610649838383610c7c565b505050565b61066983838360405180602001604052806000815250610855565b505050565b60008061067a83610f76565b9050600073ffffffffffffffffffffffffffffffffffffffff168173ffffffffffffffffffffffffffffffffffffffff1614156106ec576040517f08c379a00000000000000000000000000000000000000000000000000000000081526004016106e390611ed4565b60405180910390fd5b80915050919050565b60008073ffffffffffffffffffffffffffffffffffffffff168273ffffffffffffffffffffffffffffffffffffffff161415610766576040517f08c379a000000000000000000000000000000000000000000000000000000000815260040161075d90611e74565b60405180910390fd5b600360008373ffffffffffffffffffffffffffffffffffffffff1673ffffffffffffffffffffffffffffffffffffffff168152602001908152602001600020549050919050565b6060600180546107bc906120c4565b80601f01602080910402602001604051908101604052809291908181526020018280546107e8906120c4565b80156108355780601f1061080a57610100808354040283529160200191610835565b820191906000526020600020905b81548152906001019060200180831161081857829003601f168201915b5050505050905090565b61085161084a610b26565b8383610fb3565b5050565b610866610860610b26565b83610be7565b6108a5576040517f08c379a000000000000000000000000000000000000000000000000000000000815260040161089c90611db4565b60405180910390fd5b6108b184848484611120565b50505050565b60606108c28261117c565b610901576040517f08c379a00000000000000000000000000000000000000000000000000000000081526004016108f890611eb4565b60405180910390fd5b60076000838152602001908152602001600020805461091f906120c4565b80601f016020809104026020016040519081016040528092919081815260200182805461094b906120c4565b80156109985780601f1061096d57610100808354040283529160200191610998565b820191906000526020600020905b81548152906001019060200180831161097b57829003601f168201915b50505050509050919050565b60065481565b6109b6336006546111bd565b6109c2600654826111db565b600660008154809291906109d590612127565b919050555050565b6000600560008473ffffffffffffffffffffffffffffffffffffffff1673ffffffffffffffffffffffffffffffffffffffff16815260200190815260200160002060008373ffffffffffffffffffffffffffffffffffffffff1673ffffffffffffffffffffffffffffffffffffffff16815260200190815260200160002060009054906101000a900460ff16905092915050565b60007f01ffc9a7000000000000000000000000000000000000000000000000000000007bffffffffffffffffffffffffffffffffffffffffffffffffffffffff1916827bffffffffffffffffffffffffffffffffffffffffffffffffffffffff1916149050919050565b610ae48161117c565b610b23576040517f08c379a0000000000000000000000000000000000000000000000000000000008152600401610b1a90611ed4565b60405180910390fd5b50565b600033905090565b816004600083815260200190815260200160002060006101000a81548173ffffffffffffffffffffffffffffffffffffffff021916908373ffffffffffffffffffffffffffffffffffffffff160217905550808273ffffffffffffffffffffffffffffffffffffffff16610ba18361066e565b73ffffffffffffffffffffffffffffffffffffffff167f8c5be1e5ebec7d5bd14f71427d1e84f3dd0314c0f7b2291e5b200ac8c7c3b92560405160405180910390a45050565b600080610bf38361066e565b90508073ffffffffffffffffffffffffffffffffffffffff168473ffffffffffffffffffffffffffffffffffffffff161480610c355750610c3481856109dd565b5b80610c7357508373ffffffffffffffffffffffffffffffffffffffff16610c5b84610490565b73ffffffffffffffffffffffffffffffffffffffff16145b91505092915050565b8273ffffffffffffffffffffffffffffffffffffffff16610c9c8261066e565b73ffffffffffffffffffffffffffffffffffffffff1614610cf2576040517f08c379a0000000000000000000000000000000000000000000000000000000008152600401610ce990611df4565b60405180910390fd5b600073ffffffffffffffffffffffffffffffffffffffff168273ffffffffffffffffffffffffffffffffffffffff161415610d62576040517f08c379a0000000000000000000000000000000000000000000000000000000008152600401610d5990611e34565b60405180910390fd5b610d6f838383600161124f565b8273ffffffffffffffffffffffffffffffffffffffff16610d8f8261066e565b73ffffffffffffffffffffffffffffffffffffffff1614610de5576040517f08c379a0000000000000000000000000000000000000000000000000000000008152600401610ddc90611df4565b60405180910390fd5b6004600082815260200190815260200160002060006101000a81549073ffffffffffffffffffffffffffffffffffffffff02191690556001600360008573ffffffffffffffffffffffffffffffffffffffff1673ffffffffffffffffffffffffffffffffffffffff168152602001908152602001600020600082825403925050819055506001600360008473ffffffffffffffffffffffffffffffffffffffff1673ffffffffffffffffffffffffffffffffffffffff16815260200190815260200160002060008282540192505081905550816002600083815260200190815260200160002060006101000a81548173ffffffffffffffffffffffffffffffffffffffff021916908373ffffffffffffffffffffffffffffffffffffffff160217905550808273ffffffffffffffffffffffffffffffffffffffff168473ffffffffffffffffffffffffffffffffffffffff167fddf252ad1be2c89b69c2b068fc378daa952ba7f163c4a11628f55a4df523b3ef60405160405180910390a4610f718383836001611255565b505050565b60006002600083815260200190815260200160002060009054906101000a900473ffffffffffffffffffffffffffffffffffffffff169050919050565b8173ffffffffffffffffffffffffffffffffffffffff168373ffffffffffffffffffffffffffffffffffffffff161415611022576040517f08c379a000000000000000000000000000000000000000000000000000000000815260040161101990611e54565b60405180910390fd5b80600560008573ffffffffffffffffffffffffffffffffffffffff1673ffffffffffffffffffffffffffffffffffffffff16815260200190815260200160002060008473ffffffffffffffffffffffffffffffffffffffff1673ffffffffffffffffffffffffffffffffffffffff16815260200190815260200160002060006101000a81548160ff0219169083151502179055508173ffffffffffffffffffffffffffffffffffffffff168373ffffffffffffffffffffffffffffffffffffffff167f17307eab39ab6107e8899845ad3d59bd9653f200f220920489ca2b5937696c31836040516111139190611d77565b60405180910390a3505050565b61112b848484610c7c565b6111378484848461125b565b611176576040517f08c379a000000000000000000000000000000000000000000000000000000000815260040161116d90611dd4565b60405180910390fd5b50505050565b60008073ffffffffffffffffffffffffffffffffffffffff1661119e83610f76565b73ffffffffffffffffffffffffffffffffffffffff1614159050919050565b6111d78282604051806020016040528060008152506113f2565b5050565b6111e48261117c565b611223576040517f08c379a000000000000000000000000000000000000000000000000000000000815260040161121a90611eb4565b60405180910390fd5b8060076000848152602001908152602001600020908051906020019061124a92919061168e565b505050565b50505050565b50505050565b600061127c8473ffffffffffffffffffffffffffffffffffffffff1661144d565b156113e5578373ffffffffffffffffffffffffffffffffffffffff1663150b7a026112a5610b26565b8786866040518563ffffffff1660e01b81526004016112c79493929190611d2b565b602060405180830381600087803b1580156112e157600080fd5b505af192505050801561131257506040513d601f19601f8201168201806040525081019061130f9190611a3a565b60015b611395573d8060008114611342576040519150601f19603f3d011682016040523d82523d6000602084013e611347565b606091505b5060008151141561138d576040517f08c379a000000000000000000000000000000000000000000000000000000000815260040161138490611dd4565b60405180910390fd5b805181602001fd5b63150b7a0260e01b7bffffffffffffffffffffffffffffffffffffffffffffffffffffffff1916817bffffffffffffffffffffffffffffffffffffffffffffffffffffffff1916149150506113ea565b600190505b949350505050565b6113fc8383611470565b611409600084848461125b565b611448576040517f08c379a000000000000000000000000000000000000000000000000000000000815260040161143f90611dd4565b60405180910390fd5b505050565b6000808273ffffffffffffffffffffffffffffffffffffffff163b119050919050565b600073ffffffffffffffffffffffffffffffffffffffff168273ffffffffffffffffffffffffffffffffffffffff1614156114e0576040517f08c379a00000000000000000000000000000000000000000000000000000000081526004016114d790611e94565b60405180910390fd5b6114e98161117c565b15611529576040517f08c379a000000000000000000000000000000000000000000000000000000000815260040161152090611e14565b60405180910390fd5b61153760008383600161124f565b6115408161117c565b15611580576040517f08c379a000000000000000000000000000000000000000000000000000000000815260040161157790611e14565b60405180910390fd5b6001600360008473ffffffffffffffffffffffffffffffffffffffff1673ffffffffffffffffffffffffffffffffffffffff16815260200190815260200160002060008282540192505081905550816002600083815260200190815260200160002060006101000a81548173ffffffffffffffffffffffffffffffffffffffff021916908373ffffffffffffffffffffffffffffffffffffffff160217905550808273ffffffffffffffffffffffffffffffffffffffff16600073ffffffffffffffffffffffffffffffffffffffff167fddf252ad1be2c89b69c2b068fc378daa952ba7f163c4a11628f55a4df523b3ef60405160405180910390a461168a600083836001611255565b5050565b82805461169a906120c4565b90600052602060002090601f0160209004810192826116bc5760008555611703565b82601f106116d557805160ff1916838001178555611703565b82800160010185558215611703579182015b828111156117025782518255916020019190600101906116e7565b5b5090506117109190611714565b5090565b5b8082111561172d576000816000905550600101611715565b5090565b600061174461173f84611f74565b611f4f565b90508281526020810184848401111561175c57600080fd5b611767848285612082565b509392505050565b600061178261177d84611fa5565b611f4f565b90508281526020810184848401111561179a57600080fd5b6117a5848285612082565b509392505050565b6000813590506117bc8161252a565b92915050565b6000813590506117d181612541565b92915050565b6000813590506117e681612558565b92915050565b6000815190506117fb81612558565b92915050565b600082601f83011261181257600080fd5b8135611822848260208601611731565b91505092915050565b600082601f83011261183c57600080fd5b813561184c84826020860161176f565b91505092915050565b6000813590506118648161256f565b92915050565b60006020828403121561187c57600080fd5b600061188a848285016117ad565b91505092915050565b600080604083850312156118a657600080fd5b60006118b4858286016117ad565b92505060206118c5858286016117ad565b9150509250929050565b6000806000606084860312156118e457600080fd5b60006118f2868287016117ad565b9350506020611903868287016117ad565b925050604061191486828701611855565b9150509250925092565b6000806000806080858703121561193457600080fd5b6000611942878288016117ad565b9450506020611953878288016117ad565b935050604061196487828801611855565b925050606085013567ffffffffffffffff81111561198157600080fd5b61198d87828801611801565b91505092959194509250565b600080604083850312156119ac57600080fd5b60006119ba858286016117ad565b92505060206119cb858286016117c2565b9150509250929050565b600080604083850312156119e857600080fd5b60006119f6858286016117ad565b9250506020611a0785828601611855565b9150509250929050565b600060208284031215611a2357600080fd5b6000611a31848285016117d7565b91505092915050565b600060208284031215611a4c57600080fd5b6000611a5a848285016117ec565b91505092915050565b600060208284031215611a7557600080fd5b600082013567ffffffffffffffff811115611a8f57600080fd5b611a9b8482850161182b565b91505092915050565b600060208284031215611ab657600080fd5b6000611ac484828501611855565b91505092915050565b611ad68161200e565b82525050565b611ae581612020565b82525050565b6000611af682611fd6565b611b008185611fec565b9350611b10818560208601612091565b611b19816121fd565b840191505092915050565b6000611b2f82611fe1565b611b398185611ffd565b9350611b49818560208601612091565b611b52816121fd565b840191505092915050565b6000611b6a602d83611ffd565b9150611b758261220e565b604082019050919050565b6000611b8d603283611ffd565b9150611b988261225d565b604082019050919050565b6000611bb0602583611ffd565b9150611bbb826122ac565b604082019050919050565b6000611bd3601c83611ffd565b9150611bde826122fb565b602082019050919050565b6000611bf6602483611ffd565b9150611c0182612324565b604082019050919050565b6000611c19601983611ffd565b9150611c2482612373565b602082019050919050565b6000611c3c602983611ffd565b9150611c478261239c565b604082019050919050565b6000611c5f602083611ffd565b9150611c6a826123eb565b602082019050919050565b6000611c82602c83611ffd565b9150611c8d82612414565b604082019050919050565b6000611ca5601883611ffd565b9150611cb082612463565b602082019050919050565b6000611cc8602183611ffd565b9150611cd38261248c565b604082019050919050565b6000611ceb603d83611ffd565b9150611cf6826124db565b604082019050919050565b611d0a81612078565b82525050565b6000602082019050611d256000830184611acd565b92915050565b6000608082019050611d406000830187611acd565b611d4d6020830186611acd565b611d5a6040830185611d01565b8181036060830152611d6c8184611aeb565b905095945050505050565b6000602082019050611d8c6000830184611adc565b92915050565b60006020820190508181036000830152611dac8184611b24565b905092915050565b60006020820190508181036000830152611dcd81611b5d565b9050919050565b60006020820190508181036000830152611ded81611b80565b9050919050565b60006020820190508181036000830152611e0d81611ba3565b9050919050565b60006020820190508181036000830152611e2d81611bc6565b9050919050565b60006020820190508181036000830152611e4d81611be9565b9050919050565b60006020820190508181036000830152611e6d81611c0c565b9050919050565b60006020820190508181036000830152611e8d81611c2f565b9050919050565b60006020820190508181036000830152611ead81611c52565b9050919050565b60006020820190508181036000830152611ecd81611c75565b9050919050565b60006020820190508181036000830152611eed81611c98565b9050919050565b60006020820190508181036000830152611f0d81611cbb565b9050919050565b60006020820190508181036000830152611f2d81611cde565b9050919050565b6000602082019050611f496000830184611d01565b92915050565b6000611f59611f6a565b9050611f6582826120f6565b919050565b6000604051905090565b600067ffffffffffffffff821115611f8f57611f8e6121ce565b5b611f98826121fd565b9050602081019050919050565b600067ffffffffffffffff821115611fc057611fbf6121ce565b5b611fc9826121fd565b9050602081019050919050565b600081519050919050565b600081519050919050565b600082825260208201905092915050565b600082825260208201905092915050565b600061201982612058565b9050919050565b60008115159050919050565b60007fffffffff0000000000000000000000000000000000000000000000000000000082169050919050565b600073ffffffffffffffffffffffffffffffffffffffff82169050919050565b6000819050919050565b82818337600083830152505050565b60005b838110156120af578082015181840152602081019050612094565b838111156120be576000848401525b50505050565b600060028204905060018216806120dc57607f821691505b602082108114156120f0576120ef61219f565b5b50919050565b6120ff826121fd565b810181811067ffffffffffffffff8211171561211e5761211d6121ce565b5b80604052505050565b600061213282612078565b91507fffffffffffffffffffffffffffffffffffffffffffffffffffffffffffffffff82141561216557612164612170565b5b600182019050919050565b7f4e487b7100000000000000000000000000000000000000000000000000000000600052601160045260246000fd5b7f4e487b7100000000000000000000000000000000000000000000000000000000600052602260045260246000fd5b7f4e487b7100000000000000000000000000000000000000000000000000000000600052604160045260246000fd5b6000601f19601f8301169050919050565b7f4552433732313a2063616c6c6572206973206e6f7420746f6b656e206f776e6560008201527f72206f7220617070726f76656400000000000000000000000000000000000000602082015250565b7f4552433732313a207472616e7366657220746f206e6f6e20455243373231526560008201527f63656976657220696d706c656d656e7465720000000000000000000000000000602082015250565b7f4552433732313a207472616e736665722066726f6d20696e636f72726563742060008201527f6f776e6572000000000000000000000000000000000000000000000000000000602082015250565b7f4552433732313a20746f6b656e20616c7265616479206d696e74656400000000600082015250565b7f4552433732313a207472616e7366657220746f20746865207a65726f2061646460008201527f7265737300000000000000000000000000000000000000000000000000000000602082015250565b7f4552433732313a20617070726f766520746f2063616c6c657200000000000000600082015250565b7f4552433732313a2061646472657373207a65726f206973206e6f74206120766160008201527f6c6964206f776e65720000000000000000000000000000000000000000000000602082015250565b7f4552433732313a206d696e7420746f20746865207a65726f2061646472657373600082015250565b7f4552433732314d657461646174613a2055524920736574206f66206e6f6e657860008201527f697374656e7420746f6b656e0000000000000000000000000000000000000000602082015250565b7f4552433732313a20696e76616c696420746f6b656e2049440000000000000000600082015250565b7f4552433732313a20617070726f76616c20746f2063757272656e74206f776e6560008201527f7200000000000000000000000000000000000000000000000000000000000000602082015250565b7f4552433732313a20617070726f76652063616c6c6572206973206e6f7420746f60008201527f6b656e206f776e6572206f7220617070726f76656420666f7220616c6c000000602082015250565b6125338161200e565b811461253e57600080fd5b50565b61254a81612020565b811461255557600080fd5b50565b6125618161202c565b811461256c57600080fd5b50565b61257881612078565b811461258357600080fd5b5056fea264697066735822122046081ab90096aa68c1aa5ba75303d06ea16ed49eee7ab00798495e06c157efb664736f6c63430008040033",
  "linkReferences": {},
  "deployedLinkReferences": {}
}