{
  "_format": "hh-sol-artifact-1",
  "contractName": "CERT",
  "sourceName": "contracts/token.sol",
  "abi": [
    {
      "inputs": [
        {
          "internalType": "string",
          "name": "name",
          "type": "string"
        },
        {
          "internalType": "string",
          "name": "symbol",
          "type": "string"
        }
      ],
      "stateMutability": "nonpayable",
      "type": "constructor"
    },
    {
      "anonymous": false,
      "inputs": [
        {
          "indexed": true,
          "internalType": "address",
          "name": "owner",
          "type": "address"
        },
        {
          "indexed": true,
          "internalType": "address",
          "name": "approved",
          "type": "address"
        },
        {
          "indexed": true,
          "internalType": "uint256",
          "name": "tokenId",
          "type": "uint256"
        }
      ],
      "name": "Approval",
      "type": "event"
    },
    {
      "anonymous": false,
      "inputs": [
        {
          "indexed": true,
          "internalType": "address",
          "name": "owner",
          "type": "address"
        },
        {
          "indexed": true,
          "internalType": "address",
          "name": "operator",
          "type": "address"
        },
        {
          "indexed": false,
          "internalType": "bool",
          "name": "approved",
          "type": "bool"
        }
      ],
      "name": "ApprovalForAll",
      "type": "event"
    },
    {
      "anonymous": false,
      "inputs": [
        {
          "indexed": true,
          "internalType": "address",
          "name": "from",
          "type": "address"
        },
        {
          "indexed": true,
          "internalType": "address",
          "name": "to",
          "type": "address"
        },
        {
          "indexed": true,
          "internalType": "uint256",
          "name": "tokenId",
          "type": "uint256"
        }
      ],
      "name": "Transfer",
      "type": "event"
    },
    {
      "inputs": [
        {
          "internalType": "address",
          "name": "to",
          "type": "address"
        },
        {
          "internalType": "uint256",
          "name": "tokenId",
          "type": "uint256"
        }
      ],
      "name": "approve",
      "outputs": [],
      "stateMutability": "nonpayable",
      "type": "function"
    },
    {
      "inputs": [
        {
          "internalType": "address",
          "name": "owner",
          "type": "address"
        }
      ],
      "name": "balanceOf",
      "outputs": [
        {
          "internalType": "uint256",
          "name": "",
          "type": "uint256"
        }
      ],
      "stateMutability": "view",
      "type": "function"
    },
    {
      "inputs": [
        {
          "internalType": "uint256",
          "name": "tokenId",
          "type": "uint256"
        }
      ],
      "name": "getApproved",
      "outputs": [
        {
          "internalType": "address",
          "name": "",
          "type": "address"
        }
      ],
      "stateMutability": "view",
      "type": "function"
    },
    {
      "inputs": [
        {
          "internalType": "address",
          "name": "owner",
          "type": "address"
        },
        {
          "internalType": "address",
          "name": "operator",
          "type": "address"
        }
      ],
      "name": "isApprovedForAll",
      "outputs": [
        {
          "internalType": "bool",
          "name": "",
          "type": "bool"
        }
      ],
      "stateMutability": "view",
      "type": "function"
    },
    {
      "inputs": [
        {
          "internalType": "string",
          "name": "_tokenURI",
          "type": "string"
        }
      ],
      "name": "mint",
      "outputs": [],
      "stateMutability": "nonpayable",
      "type": "function"
    },
    {
      "inputs": [],
      "name": "name",
      "outputs": [
        {
          "internalType": "string",
          "name": "",
          "type": "string"
        }
      ],
      "stateMutability": "view",
      "type": "function"
    },
    {
      "inputs": [
        {
          "internalType": "uint256",
          "name": "tokenId",
          "type": "uint256"
        }
      ],
      "name": "ownerOf",
      "outputs": [
        {
          "internalType": "address",
          "name": "",
          "type": "address"
        }
      ],
      "stateMutability": "view",
      "type": "function"
    },
    {
      "inputs": [
        {
          "internalType": "address",
          "name": "from",
          "type": "address"
        },
        {
          "internalType": "address",
          "name": "to",
          "type": "address"
        },
        {
          "internalType": "uint256",
          "name": "tokenId",
          "type": "uint256"
        }
      ],
      "name": "safeTransferFrom",
      "outputs": [],
      "stateMutability": "nonpayable",
      "type": "function"
    },
    {
      "inputs": [
        {
          "internalType": "address",
          "name": "from",
          "type": "address"
        },
        {
          "internalType": "address",
          "name": "to",
          "type": "address"
        },
        {
          "internalType": "uint256",
          "name": "tokenId",
          "type": "uint256"
        },
        {
          "internalType": "bytes",
          "name": "data",
          "type": "bytes"
        }
      ],
      "name": "safeTransferFrom",
      "outputs": [],
      "stateMutability": "nonpayable",
      "type": "function"
    },
    {
      "inputs": [
        {
          "internalType": "address",
          "name": "operator",
          "type": "address"
        },
        {
          "internalType": "bool",
          "name": "approved",
          "type": "bool"
        }
      ],
      "name": "setApprovalForAll",
      "outputs": [],
      "stateMutability": "nonpayable",
      "type": "function"
    },
    {
      "inputs": [
        {
          "internalType": "bytes4",
          "name": "interfaceId",
          "type": "bytes4"
        }
      ],
      "name": "supportsInterface",
      "outputs": [
        {
          "internalType": "bool",
          "name": "",
          "type": "bool"
        }
      ],
      "stateMutability": "view",
      "type": "function"
    },
    {
      "inputs": [],
      "name": "symbol",
      "outputs": [
        {
          "internalType": "string",
          "name": "",
          "type": "string"
        }
      ],
      "stateMutability": "view",
      "type": "function"
    },
    {
      "inputs": [],
      "name": "tokenCounter",
      "outputs": [
        {
          "internalType": "uint256",
          "name": "",
          "type": "uint256"
        }
      ],
      "stateMutability": "view",
      "type": "function"
    },
    {
      "inputs": [
        {
          "internalType": "uint256",
          "name": "_tokenId",
          "type": "uint256"
        }
      ],
      "name": "tokenURI",
      "outputs": [
        {
          "internalType": "string",
          "name": "",
          "type": "string"
        }
      ],
      "stateMutability": "view",
      "type": "function"
    },
    {
      "inputs": [
        {
          "internalType": "address",
          "name": "from",
          "type": "address"
        },
        {
          "internalType": "address",
          "name": "to",
          "type": "address"
        },
        {
          "internalType": "uint256",
          "name": "tokenId",
          "type": "uint256"
        }
      ],
      "name": "transferFrom",
      "outputs": [],
      "stateMutability": "nonpayable",
      "type": "function"
    }
  ],
  "bytecode": "0x60806040523462000032575b6200002062000019620001ef565b9062000256565b6040516117b16200049382396117b190f35b6200003b600080fd5b6200000b565b50634e487b7160e01b600052604160045260246000fd5b90601f01601f191681019081106001600160401b038211176200007a57604052565b6200008462000041565b604052565b90620000a06200009860405190565b928362000058565b565b602090620000c3906001600160401b038111620000c757601f01601f191690565b0190565b620000d162000041565b601f01601f191690565b60005b838110620000ef5750506000910152565b8181015183820152602001620000de565b929190620000a0916200011d6200011783620000a2565b62000089565b9482865260208601918382011115620000db5762000139600080fd5b620000db565b906200015e9181601f8201121562000161575b60208151910162000100565b90565b6200016a600080fd5b62000152565b91906200015e90604084820312620001e0575b8351620001a49082906001600160401b038111620001d1575b86016200013f565b602085015190946001600160401b038211620001c2575b016200013f565b620001cb600080fd5b620001bb565b620001da600080fd5b6200019c565b620001e9600080fd5b62000183565b6200021262001c4480380380620002068162000089565b92833981019062000170565b9091565b6200015e6200015e6200015e9290565b90600019905b9181191691161790565b906200024a6200015e620002529262000216565b825462000226565b9055565b90620002629162000478565b620000a062000272600062000216565b600662000236565b50634e487b7160e01b600052602260045260246000fd5b9060016002830492168015620002b8575b6020831014620002ae57565b620000a06200027a565b91607f1691620002a2565b9160001960089290920291821b911b6200022c565b9190620002ed6200015e620002529362000216565b908354620002c3565b620000a091600091620002d8565b81811062000310575050565b80620003206000600193620002f6565b0162000304565b9190601f81116200033757505050565b6200034b620000a093600052602060002090565b906020601f8401819004830193106200036f575b6020601f90910104019062000304565b90915081906200035f565b9062000384815190565b906001600160401b0382116200045c575b620003ad82620003a6855462000291565b8562000327565b602090601f8311600114620003ec5762000252929160009183620003e0575b5050600019600883021c1916906002021790565b015190503880620003cc565b601f198316916200040285600052602060002090565b9260005b818110620004435750916002939185600196941062000429575b50505002019055565b01516000196008601f8516021c1916905538808062000420565b9193602060018192878701518155019501920162000406565b6200046662000041565b62000395565b90620000a0916200037a565b906200048a620000a09260006200046c565b60016200046c56fe60806040526004361015610018575b610016600080fd5b005b60003560e01c806301ffc9a71461014457806306fdde031461013b578063081812fc14610132578063095ea7b31461012957806323b872dd1461012057806342842e0e146101175780636352211e1461010e57806370a082311461010557806395d89b41146100fc578063a22cb465146100f3578063b88d4fde146100ea578063c87b56dd146100e1578063d082e381146100d8578063d85d3d27146100cf5763e985e9c50361000e576100ca6107b5565b61000e565b506100ca61075d565b506100ca6106fe565b506100ca6106b2565b506100ca610687565b506100ca610507565b506100ca610497565b506100ca61045d565b506100ca610416565b506100ca6103ee565b506100ca6103c6565b506100ca61035b565b506100ca6102ca565b506100ca610258565b506100ca610198565b600080fd5b6001600160e01b031981165b0361014d57565b9050359061017282610152565b565b906101889160208183031261018b57610165565b90565b610193600080fd5b610165565b50346101cc575b6101c86101b56101b0366004610174565b6107e0565b6040515b91829182901515815260200190565b0390f35b6101d4600080fd5b61019f565b60009103126101e457565b610172600080fd5b60005b8381106101ff5750506000910152565b81810151838201526020016101ef565b601f01601f191690565b61023a61020f6020936102439361022e815190565b80835293849260200190565b958691016101ec565b0190565b602080825261018892910190610219565b5034610281575b61026a3660046101d9565b6101c8610275610aa5565b60405191829182610247565b610289600080fd5b61025f565b8061015e565b905035906101728261028e565b906101889160208183031215610294576102b9600080fd5b610294565b6001600160a01b031690565b5034610301575b6101c86102e76102e23660046102a1565b610c0c565b604051918291826001600160a01b03909116815260200190565b610309600080fd5b6102d1565b6001600160a01b03811661015e565b905035906101728261030e565b91906101889060408482031261034e575b610345818561031d565b93602001610294565b610356600080fd5b61033b565b503461037b575b61037661037036600461032a565b90610b81565b604051005b610383600080fd5b610362565b90916060828403126103b9575b6101886103a2848461031d565b936103b0816020860161031d565b93604001610294565b6103c1600080fd5b610395565b50346103e1575b6103766103db366004610388565b91610cc5565b6103e9600080fd5b6103cd565b5034610409575b610376610403366004610388565b91610d06565b610411600080fd5b6103f5565b5034610433575b6101c86102e761042e3660046102a1565b61097b565b61043b600080fd5b61041d565b90610188916020818303121561031d57610458600080fd5b61031d565b503461048a575b6101c861047a610475366004610440565b6108f2565b6040519182918290815260200190565b610492600080fd5b610464565b50346104b4575b6104a93660046101d9565b6101c8610275610aaf565b6104bc600080fd5b61049e565b80151561015e565b90503590610172826104c1565b9190610188906040848203126104fa575b6104f1818561031d565b936020016104c9565b610502600080fd5b6104e7565b5034610522575b61037661051c3660046104d6565b90610c31565b61052a600080fd5b61050e565b50634e487b7160e01b600052604160045260246000fd5b90601f01601f1916810190811067ffffffffffffffff82111761056857604052565b61057061052f565b604052565b9061017261058260405190565b9283610546565b61024360209167ffffffffffffffff81116105a857601f01601f191690565b61020f61052f565b90826000939282370152565b929190610172916105d46105cf83610589565b610575565b94828652602086019183820111156105b0576105ee600080fd5b6105b0565b906101889181601f8201121561060f575b6020813591016105bc565b610617600080fd5b610604565b60808183031261067a575b610631828261031d565b92610188610642846020850161031d565b936106508160408601610294565b9360608101359067ffffffffffffffff821161066d575b016105f3565b610675600080fd5b610667565b610682600080fd5b610627565b50346106a5575b61037661069c36600461061c565b92919091610d16565b6106ad600080fd5b61068e565b50346106cf575b6101c86102756106ca3660046102a1565b61175a565b6106d7600080fd5b6106b9565b610188916008021c81565b9061018891546106dc565b610188600060066106e7565b503461071b575b6107103660046101d9565b6101c861047a6106f2565b610723600080fd5b610705565b9061018891602081830312610750575b80359067ffffffffffffffff821161066d57016105f3565b610758600080fd5b610738565b5034610777575b610376610772366004610728565b6113d1565b61077f600080fd5b610764565b9190610188906040848203126107a8575b61079f818561031d565b9360200161031d565b6107b0600080fd5b610795565b50346107d3575b6101c86101b56107cd366004610784565b90610c3c565b6107db600080fd5b6107bc565b6380ac58cd60e01b6001600160e01b0319821614908115610810575b8115610806575090565b6101889150611392565b6001600160e01b03198116635b5e139f60e01b1491506107fc565b6102be6101886101889290565b6101889061082b565b1561084857565b60405162461bcd60e51b815260206004820152602960248201527f4552433732313a2061646472657373207a65726f206973206e6f7420612076616044820152683634b21037bbb732b960b91b6064820152608490fd5b0390fd5b610188906102be906001600160a01b031682565b610188906108a3565b610188906108b7565b906108d3906108c0565b600052602052604060002090565b6101889081565b61018890546108e1565b61092a61018891610901600090565b506109236109126102be6000610838565b6001600160a01b0383161415610841565b60036108c9565b6108e8565b1561093657565b60405162461bcd60e51b815260206004820152601860248201527f4552433732313a20696e76616c696420746f6b656e20494400000000000000006044820152606490fd5b6109889060005b50610db6565b6101886109986102be6000610838565b6001600160a01b038316141561092f565b50634e487b7160e01b600052602260045260246000fd5b90600160028304921680156109e3575b60208310146109db57565b6101726109a9565b91607f16916109d0565b80546000939291610a0a610a00836109c0565b8085529360200190565b9160018116908115610a5c5750600114610a2357505050565b610a369192939450600052602060002090565b916000925b818410610a485750500190565b805484840152602090930192600101610a3b565b92949550505060ff1916825215156020020190565b90610188916109ed565b90610172610a9592610a8c60405190565b93848092610a71565b0383610546565b61018890610a7b565b6101886000610a9c565b6101886001610a9c565b15610ac057565b60405162461bcd60e51b815260206004820152602160248201527f4552433732313a20617070726f76616c20746f2063757272656e74206f776e656044820152603960f91b6064820152608490fd5b15610b1657565b60405162461bcd60e51b815260206004820152603d60248201527f4552433732313a20617070726f76652063616c6c6572206973206e6f7420746f60448201527f6b656e206f776e6572206f7220617070726f76656420666f7220616c6c0000006064820152608490fd5b9061017291610bcc610b928361097b565b610bb06001600160a01b0382166001600160a01b0385161415610ab9565b336001600160a01b0382168114918215610bd1575b5050610b0f565b6110a2565b610bdb9250610c3c565b3880610bc5565b6101886101886101889290565b906108d390610be2565b610188906102be565b6101889054610bf9565b610c2c61018891610c1b600090565b50610c25816111d3565b6004610bef565b610c02565b610172919033611158565b61018891610c57610c5c92610c4f600090565b5060056108c9565b6108c9565b5460ff1690565b15610c6a57565b60405162461bcd60e51b815260206004820152602d60248201527f4552433732313a2063616c6c6572206973206e6f7420746f6b656e206f776e6560448201526c1c881bdc88185c1c1c9bdd9959609a1b6064820152608490fd5b610172929190610cdd610cd88433610dcd565b610c63565b610f85565b90610cef6105cf83610589565b918252565b6101886000610ce2565b610188610cf4565b909161017292610d14610cfe565b925b61017293929190610d2a610cd88433610dcd565b610d97565b15610d3657565b6040515b62461bcd60e51b815260206004820152603260248201527f4552433732313a207472616e7366657220746f206e6f6e20455243373231526560448201527131b2b4bb32b91034b6b83632b6b2b73a32b960711b6064820152608490fd5b916101729391610db193610dac838383610f85565b61127e565b610d2f565b610c2c61018891610dc5600090565b506002610bef565b610dd68261097b565b916001600160a01b0383166001600160a01b03831614928315610e30575b508215610e0057505090565b610e2c919250610e12610e1f91610c0c565b926001600160a01b031690565b916001600160a01b031690565b1490565b610e3d9193508290610c3c565b9138610df4565b15610e4b57565b60405162461bcd60e51b815260206004820152602560248201527f4552433732313a207472616e736665722066726f6d20696e636f72726563742060448201526437bbb732b960d91b6064820152608490fd5b15610ea557565b60405162461bcd60e51b8152602060048201526024808201527f4552433732313a207472616e7366657220746f20746865207a65726f206164646044820152637265737360e01b6064820152608490fd5b916001600160a01b0360089290920291821b911b5b9181191691161790565b9190610f26610188610f2e936108c0565b908354610ef6565b9055565b61017291600091610f15565b9060001990610f0b565b90610f58610188610f2e92610be2565b8254610f3e565b906001600160a01b0390610f0b565b90610f7e610188610f2e926108c0565b8254610f5f565b9190610fab610f938361097b565b610fa56001600160a01b038616610e1f565b14610e44565b610ffe6000610fd0610fbf6102be83610838565b6001600160a01b0385161415610e9e565b610fee610fdc8561097b565b610fa56001600160a01b038816610e1f565b610ff9846004610bef565b610f32565b61104261100b6001610be2565b611032611038846003610c576110218a836108c9565b6110328761102e836108e8565b0390565b90610f48565b91610243836108e8565b61105681611051846002610bef565b610f6e565b61109261108c6110867fddf252ad1be2c89b69c2b068fc378daa952ba7f163c4a11628f55a4df523b3ef956108c0565b926108c0565b92610be2565b9261109c60405190565b600090a4565b906110b282611051836004610bef565b6110bb8161097b565b9161109261108c6110867f8c5be1e5ebec7d5bd14f71427d1e84f3dd0314c0f7b2291e5b200ac8c7c3b925956108c0565b156110f357565b60405162461bcd60e51b815260206004820152601960248201527f4552433732313a20617070726f766520746f2063616c6c6572000000000000006044820152606490fd5b9060ff90610f0b565b90611151610188610f2e92151590565b8254611138565b6111766001600160a01b0383166001600160a01b03831614156110ec565b61118e8361118984610c578560056108c9565b611141565b6111ce6111c46111be7f17307eab39ab6107e8899845ad3d59bd9653f200f220920489ca2b5937696c31936108c0565b936108c0565b936101b960405190565b0390a3565b6111df610172916111e4565b61092f565b6111ef906000610982565b6111ff610e1f6102be6000610838565b141590565b9050519061017282610152565b90610188916020818303121561120457611229600080fd5b611204565b6001600160a01b03918216815291166020820152604081019190915260806060820181905261018892910190610219565b3d156112795761126e3d610ce2565b903d6000602084013e565b606090565b9190939261128a600090565b9461129481611380565b1561137657906112db60006112b36112ae602096956108c0565b6108c0565b926112e663150b7a02916112c43390565b966112ce60405190565b998a988997889660e01b90565b86526004860161122e565b03925af160009181611346575b50611329575061130161125f565b80516113146113106000610be2565b9190565b0361132157604051610d3a565b805190602001fd5b909150610e2c630a85bd0160e11b5b916001600160e01b03191690565b61136891925060203d811161136f575b6113608183610546565b810190611211565b90386112f3565b503d611356565b5060019450505050565b3b61138e6113106000610be2565b1190565b610e2c6301ffc9a760e01b611338565b50634e487b7160e01b600052601160045260246000fd5b60019060001981146113c9570190565b6102436113a2565b6113f8906113e9336113e360066108e8565b90611414565b6113f360066108e8565b611735565b61017261140d61140860066108e8565b6113b9565b6006610f48565b61017291611420610cfe565b610db1916101729361143282826114d8565b610dac6000610838565b1561144357565b60405162461bcd60e51b81528061089f600482016020808252818101527f4552433732313a206d696e7420746f20746865207a65726f2061646472657373604082015260600190565b1561149357565b60405162461bcd60e51b815260206004820152601c60248201527f4552433732313a20746f6b656e20616c7265616479206d696e746564000000006044820152606490fd5b906114e36000610838565b916115026001600160a01b0384166001600160a01b038316141561143c565b61151a611515611511846111e4565b1590565b61148c565b611529611515611511846111e4565b6110426115366001610be2565b6110326110388460036108c9565b1561154b57565b60405162461bcd60e51b815260206004820152602c60248201527f4552433732314d657461646174613a2055524920736574206f66206e6f6e657860448201526b34b9ba32b73a103a37b5b2b760a11b6064820152608490fd5b9160001960089290920291821b911b610f0b565b91906115ca610188610f2e93610be2565b9083546115a5565b610172916000916115b9565b8181106115e9575050565b806115f760006001936115d2565b016115de565b9190601f811161160c57505050565b61161e61017293600052602060002090565b906020601f840181900483019310611640575b6020601f9091010401906115de565b9091508190611631565b90611653815190565b9067ffffffffffffffff821161171e575b6116788261167285546109c0565b856115fd565b602090601f83116001146116b357610f2e9291600091836116a8575b5050600019600883021c1916906002021790565b015190503880611694565b601f198316916116c885600052602060002090565b9260005b818110611706575091600293918560019694106116ed575b50505002019055565b01516000196008601f8516021c191690553880806116e4565b919360206001819287870151815501950192016116cc565b61172661052f565b611664565b906101729161164a565b906117556101729261174e611749826111e4565b611544565b6007610bef565b61172b565b61177661018891611769606090565b5061174e611749826111e4565b610a9c56fea264697066735822122071ca75e9954a38704d4450f8f584e65116985dacd8098faa259a7c50d93f416364736f6c63430008110033",
  "linkReferences": {},
  "deployedLinkReferences": {}
}