{"contracts/StudentRegistry.sol":{"StudentRegistry":{"abi":[{"anonymous":false,"inputs":[{"indexed":false,"internalType":"uint256","name":"id","type":"uint256"},{"indexed":false,"internalType":"string","name":"code","type":"string"}],"name":"CertificateIssued","type":"event"},{"anonymous":false,"inputs":[{"indexed":false,"internalType":"uint256","name":"id","type":"uint256"},{"indexed":false,"internalType":"string","name":"firstName","type":"string"},{"indexed":false,"internalType":"string","name":"lastName","type":"string"},{"indexed":false,"internalType":"string","name":"degree","type":"string"},{"indexed":false,"internalType":"string","name":"major","type":"string"},{"indexed":false,"internalType":"string","name":"year","type":"string"},{"indexed":false,"internalType":"string","name":"code","type":"string"}],"name":"StudentCreated","type":"event"},{"anonymous":false,"inputs":[{"indexed":false,"internalType":"string","name":"code","type":"string"}],"name":"StudentDeleted","type":"event"},{"anonymous":false,"inputs":[{"indexed":false,"internalType":"uint256","name":"id","type":"uint256"},{"indexed":false,"internalType":"string","name":"firstName","type":"string"},{"indexed":false,"internalType":"string","name":"lastName","type":"string"},{"indexed":false,"internalType":"string","name":"degree","type":"string"},{"indexed":false,"internalType":"string","name":"major","type":"string"},{"indexed":false,"internalType":"string","name":"year","type":"string"},{"indexed":false,"internalType":"string","name":"code","type":"string"}],"name":"StudentUpdated","type":"event"},{"inputs":[{"internalType":"uint256","name":"","type":"uint256"}],"name":"Students","outputs":[{"internalType":"string","name":"firstName","type":"string"},{"internalType":"string","name":"lastName","type":"string"},{"components":[{"internalType":"string","name":"degree","type":"string"},{"internalType":"string","name":"major","type":"string"},{"internalType":"string","name":"year","type":"string"}],"internalType":"struct StudentRegistry.Education","name":"education","type":"tuple"},{"internalType":"bool","name":"isissued","type":"bool"},{"internalType":"string","name":"tokenurl","type":"string"},{"internalType":"int256","name":"tokenid","type":"int256"}],"stateMutability":"view","type":"function"},{"inputs":[{"internalType":"string","name":"_firstName","type":"string"},{"internalType":"string","name":"_lastName","type":"string"},{"internalType":"string","name":"_degree","type":"string"},{"internalType":"string","name":"_major","type":"string"},{"internalType":"string","name":"_year","type":"string"}],"name":"createStudent","outputs":[{"internalType":"uint256","name":"","type":"uint256"}],"stateMutability":"nonpayable","type":"function"},{"inputs":[{"internalType":"uint256","name":"_studentId","type":"uint256"}],"name":"deleteStudent","outputs":[],"stateMutability":"nonpayable","type":"function"},{"inputs":[],"name":"getAallStudents","outputs":[{"components":[{"internalType":"string","name":"firstName","type":"string"},{"internalType":"string","name":"lastName","type":"string"},{"components":[{"internalType":"string","name":"degree","type":"string"},{"internalType":"string","name":"major","type":"string"},{"internalType":"string","name":"year","type":"string"}],"internalType":"struct StudentRegistry.Education","name":"education","type":"tuple"},{"internalType":"bool","name":"isissued","type":"bool"},{"internalType":"string","name":"tokenurl","type":"string"},{"internalType":"int256","name":"tokenid","type":"int256"}],"internalType":"struct StudentRegistry.Student[]","name":"","type":"tuple[]"}],"stateMutability":"view","type":"function"},{"inputs":[{"internalType":"uint256","name":"studentId","type":"uint256"},{"internalType":"bool","name":"isissued","type":"bool"},{"internalType":"string","name":"_tokenurl","type":"string"},{"internalType":"int256","name":"_tokenid","type":"int256"}],"name":"isissuedcertificate","outputs":[],"stateMutability":"nonpayable","type":"function"},{"inputs":[{"internalType":"address","name":"","type":"address"}],"name":"students","outputs":[{"internalType":"string","name":"firstName","type":"string"},{"internalType":"string","name":"lastName","type":"string"},{"components":[{"internalType":"string","name":"degree","type":"string"},{"internalType":"string","name":"major","type":"string"},{"internalType":"string","name":"year","type":"string"}],"internalType":"struct StudentRegistry.Education","name":"education","type":"tuple"},{"internalType":"bool","name":"isissued","type":"bool"},{"internalType":"string","name":"tokenurl","type":"string"},{"internalType":"int256","name":"tokenid","type":"int256"}],"stateMutability":"view","type":"function"},{"inputs":[{"internalType":"uint256","name":"_studentId","type":"uint256"},{"internalType":"string","name":"_firstName","type":"string"},{"internalType":"string","name":"_lastName","type":"string"},{"internalType":"string","name":"_degree","type":"string"},{"internalType":"string","name":"_major","type":"string"},{"internalType":"string","name":"_year","type":"string"}],"name":"updateStudent","outputs":[],"stateMutability":"nonpayable","type":"function"}],"evm":{"bytecode":{"linkReferences":{},"object":"60806040523461001b575b604051611794610029823961179490f35b610023600080fd5b61000a56fe60806040526004361015610018575b610016600080fd5b005b60003560e01c8062bb032a146100a35780630352e27c1461009a57806357c8d71d14610091578063728e2274146100885780638ef4b9d31461007f578063a6c807a9146100765763b645307d0361000e576100716109ef565b61000e565b506100716109c5565b506100716108ef565b50610071610811565b506100716106e6565b50610071610414565b50610071610243565b600080fd5b805b036100ac57565b905035906100c7826100b1565b565b8015156100b3565b905035906100c7826100c9565b601f01601f191690565b50634e487b7160e01b600052604160045260246000fd5b90601f01601f191681019081106001600160401b0382111761012057604052565b6101286100e8565b604052565b906100c761013a60405190565b92836100ff565b61015f6020916001600160401b03811161016357601f01601f191690565b0190565b6100de6100e8565b90826000939282370152565b9291906100c79161018f61018a83610141565b61012d565b948286526020860191838201111561016b576101a9600080fd5b61016b565b906101ca9181601f820112156101cd575b602081359101610177565b90565b6101d5600080fd5b6101bf565b608081830312610236575b6101ef82826100ba565b926101ca61020084602085016100d1565b936102208160408601356001600160401b038111610229575b86016101ae565b936060016100ba565b610231600080fd5b610219565b61023e600080fd5b6101e5565b503461026a575b6102616102583660046101da565b929190916111fb565b604051005b0390f35b610272600080fd5b61024a565b600091031261028257565b6100c7600080fd5b60005b83811061029d5750506000910152565b818101518382015260200161028d565b6102ce6100de60209361015f936102c2815190565b80835293849260200190565b9586910161028a565b805160608084526101ca9391604091610308916102f6918501906102ad565b602085015184820360208601526102ad565b9201519060408184039101526102ad565b906101ca9060a08061038561036761035561034360c0870160008a015188820360008a01526102ad565b602089015187820360208901526102ad565b604088015186820360408801526102d7565b606087810151151590860152608087015185820360808701526102ad565b940151910152565b906101ca91610319565b906103ad6103a3835190565b8083529160200190565b90816103bf6020830284019460200190565b926000915b8383106103d357505050505090565b909192939460206103f66103ef8385600195038752895161038d565b9760200190565b93019301919392906103c4565b60208082526101ca92910190610397565b503461043d575b610426366004610277565b6102666104316111f1565b60405191829182610403565b610445600080fd5b61041b565b906101ca91602081830312156100ba57610462600080fd5b6100ba565b50634e487b7160e01b600052603260045260246000fd5b61049e60089161048c815490565b8410156104a757600052602060002090565b91020190600090565b6104af610467565b600052602060002090565b50634e487b7160e01b600052602260045260246000fd5b90600160028304921680156104f4575b60208310146104ec57565b6100c76104ba565b91607f16916104e1565b8054600093929161051b610511836104d1565b8085529360200190565b916001811690811561056d575060011461053457505050565b6105479192939450600052602060002090565b916000925b8184106105595750500190565b80548484015260209093019260010161054c565b92949550505060ff1916825215156020020190565b906101ca916104fe565b906100c76105a69261059d60405190565b93848092610582565b03836100ff565b6101ca606061012d565b906100c76105f560026105c86105ad565b946105d96105d58261058c565b8752565b6105ef6105e86001830161058c565b6020880152565b0161058c565b6040840152565b6101ca9081565b6101ca90546105fc565b9060019160009261061c815490565b82101561067b5761062e92935061047e565b50906106398261058c565b916106466001820161058c565b91610653600283016105b7565b91610662600582015460ff1690565b916101ca60076106746006850161058c565b9301610603565b8380fd5b96959390946106d46106ca60a0956106bc6106e1966106ae8d6100c79c60c082019160008184039101526102ad565b8d810360208f0152906102ad565b908b820360408d01526102d7565b92151560608a0152565b87820360808901526102ad565b940152565b503461071c575b6102666107036106fe36600461044a565b61060d565b9261071396949692919260405190565b9687968761067f565b610724600080fd5b6106ed565b909160c082840312610804575b61074083836100ba565b926107608160208501356001600160401b0381116107ea575b85016101ae565b926107808260408301356001600160401b0381116107f7575b83016101ae565b926101ca6107a28460608501356001600160401b0381116107ea5785016101ae565b936107c18160808601356001600160401b0381116102295786016101ae565b9360a0810135906001600160401b0382116107dd575b016101ae565b6107e5600080fd5b6107d7565b6107f2600080fd5b610759565b6107ff600080fd5b610779565b61080c600080fd5b610736565b5034610832575b610261610826366004610729565b94939093929192611377565b61083a600080fd5b610818565b919060a0838203126108e2575b6108678184356001600160401b0381116107ea5785016101ae565b926108868260208301356001600160401b0381116107f75783016101ae565b926101ca6108a88460408501356001600160401b0381116107ea5785016101ae565b936108c78160608601356001600160401b0381116102295786016101ae565b936080810135906001600160401b0382116107dd57016101ae565b6108ea600080fd5b61084c565b5034610920575b61026661091061090736600461083f565b93929092610f8f565b6040519182918290815260200190565b610928600080fd5b6108f6565b6001600160a01b031690565b6001600160a01b0381166100b3565b905035906100c782610939565b906101ca91602081830312156109485761096d600080fd5b610948565b6101ca9061092d906001600160a01b031682565b6101ca90610972565b6101ca90610986565b906109a29061098f565b600052602052604060002090565b6109bb906000610998565b906106398261058c565b50346109e2575b6102666107036109dd366004610955565b6109b0565b6109ea600080fd5b6109cc565b5034610a09575b610261610a0436600461044a565b6116f3565b610a11600080fd5b6109f6565b6101ca6101ca6101ca9290565b15610a2a57565b60405162461bcd60e51b815260206004820152601a60248201527f4669727374206e616d652063616e6e6f7420626520656d7074790000000000006044820152606490fd5b15610a7657565b60405162461bcd60e51b815260206004820152601960248201527f4c617374206e616d652063616e6e6f7420626520656d707479000000000000006044820152606490fd5b15610ac257565b60405162461bcd60e51b81526020600482015260166024820152754465677265652063616e6e6f7420626520656d70747960501b6044820152606490fd5b15610b0757565b60405162461bcd60e51b81526020600482015260156024820152744d616a6f722063616e6e6f7420626520656d70747960581b6044820152606490fd5b15610b4b57565b60405162461bcd60e51b8152602060048201526014602482015273796165722063616e6e6f7420626520656d70747960601b6044820152606490fd5b6101ca60c061012d565b90610b9e61018a83610141565b918252565b610bad6001610b91565b600160fd1b602082015290565b6101ca610ba3565b50634e487b7160e01b600052600060045260246000fd5b9160001960089290920291821b911b5b9181191691161790565b9190610c046101ca610c0c93610a16565b908354610bd9565b9055565b6100c791600091610bf3565b818110610c27575050565b80610c356000600193610c10565b01610c1c565b9190601f8111610c4a57505050565b610c5c6100c793600052602060002090565b906020601f840181900483019310610c7f575b6020601f909101045b0190610c1c565b9091508190610c6f565b600019600883021c1916906002021790565b90610ca4815190565b906001600160401b038211610d61575b610cc882610cc285546104d1565b85610c3b565b602090601f8311600114610cf657610c0c929160009183610ceb575b5050610c89565b015190503880610ce4565b601f19831691610d0b85600052602060002090565b9260005b818110610d4957509160029391856001969410610d30575b50505002019055565b01516000196008601f8516021c19169055388080610d27565b91936020600181928787015181550195019201610d0f565b610d696100e8565b610cb4565b906100c791610c9b565b90610d96604060026100c794610d9c60008201610d96600088015190565b90610d6e565b610dae60018201610d96602088015190565b0192015190565b906100c791610d78565b9060ff90610be9565b90610dd86101ca610c0c92151590565b8254610dbf565b5190565b9060001990610be9565b90610dfd6101ca610c0c92610a16565b8254610de3565b90610e7860a060076100c794610e2260008201610d96600088015190565b610e3460018201610d96602088015190565b610e4c60028201610e46604088015190565b90610db5565b610e6660058201610e606060880151151590565b90610dc8565b610dae60068201610d96608088015190565b90610ded565b6100c7929115610e0457610e90610bc2565b610e04565b90610eb86100c792805490600160401b821015610ebe575b60018201815561047e565b90610e7e565b610ec66100e8565b610ead565b50634e487b7160e01b600052601160045260246000fd5b91908203918211610eef57565b6100c7610ecb565b9490610f6494610f3a6101ca9895610f2c89610f5697610f1f610f4897600060e08501940152565b8b820360208d01526102ad565b9089820360408b01526102ad565b9087820360608901526102ad565b9085820360808701526102ad565b9083820360a08501526102ad565b9060c0818303910152600f81526e414354494f4e5f434f4e4649524d4560881b602082015260400190565b909192610f9a600090565b50815194600095610faa87610a16565b10610fb490610a23565b8351610fbf87610a16565b10610fc990610a6f565b8451610fd487610a16565b10610fde90610abb565b8151610fe987610a16565b10610ff390610b00565b8051610ffe87610a16565b1061100890610b44565b6110106105ad565b868101869052956020870183905260408701829052801990611030610b87565b80820186905260208101879052604081019890985215156060880152611054610bba565b608088015261106290610a16565b60a08701526001956110749087610e95565b855461107f87610a16565b61108891610ee2565b917fb3ba2cff02b32eeb145a4310f642027c74c7037f3f86732ad86b47ee1fdd8d2a956110b460405190565b9586956110c19587610ef7565b0390a18054906110d090610a16565b6101ca91610ee2565b602080916001600160401b0381116110f057020190565b6110f86100e8565b020190565b90610b9e61018a836110d9565b906100c7611183600761111b610b87565b946111286105d58261058c565b6111376105e86001830161058c565b61114d611146600283016105b7565b6040880152565b61116761115e600583015460ff1690565b15156060880152565b61117d6111766006830161058c565b6080880152565b01610603565b60a0840152565b6101ca9061110a565b9061119c825490565b6111a5816110fd565b926111b96020850191600052602060002090565b6000915b8383106111ca5750505050565b600860206001926111da8561118a565b8152019201920191906111bd565b6101ca90611193565b6101ca60016111e8565b929060079061122f6112359461122661121c61121889600161047e565b5090565b9360058501610dc8565b60068301610d6e565b01610ded565b6112977f82e047af96f6b7e5a52ea238aee0ca4188211301535ddf1fe126e140df6421b49161126360405190565b91829182908152604060208201819052600f908201526e414354494f4e5f434f4e4649524d4560881b606082015260800190565b0390a1565b156112a357565b60405162461bcd60e51b815260206004820152601960248201527f46697273746e616d652063616e6e6f7420626520656d707479000000000000006044820152606490fd5b156112ef57565b60405162461bcd60e51b815260206004820152601860248201527f4c6173746e616d652063616e6e6f7420626520656d70747900000000000000006044820152606490fd5b1561133b57565b60405162461bcd60e51b8152602060048201526014602482015273796561722063616e6e6f7420626520656d70747960601b6044820152606490fd5b92936112979295919461147461138d610ddf8890565b6113a96000916113a361139f84610a16565b9190565b1161129c565b6113c66113b48a5190565b6113c061139f84610a16565b116112e8565b6113e36113d1845190565b6113dd61139f84610a16565b11610abb565b6114006113ee855190565b6113fa61139f84610a16565b11610b00565b61141d61140b865190565b61141761139f84610a16565b11611334565b60026114276105ad565b916114328582850152565b61143d866020850152565b611448876040850152565b61146e8b60016114678d61145f6112188f8561047e565b958601610d6e565b8301610d6e565b01610db5565b7f7805d5a30b55d3f171bac6edbc08f1ec7ff173b3a037a9835b57f9ea38d01c6d9661149f60405190565b96879687610ef7565b906114bb90600019906020036008021c90565b8154169055565b906000916114e06114d882600052602060002090565b928354610c89565b905555565b919290602082101561153d57601f841160011461150757610c0c929350610c89565b50906115386100c793600161152f61152485600052602060002090565b92601f602091010490565b82019101610c1c565b6114c2565b506115768293611554600194600052602060002090565b610c786020601f860104820192601f86168061157e575b50601f602091010490565b600202179055565b61158a908886036114a8565b3861156b565b929091602090600160401b83116115e5575b10156115d95760208110156115ba57610c0c91610c89565b60019160ff19166115d084600052602060002090565b55600202019055565b60019150600202019055565b6115ed6100e8565b6115a2565b9081546115fe816104d1565b90818311611627575b818310611615575b50505050565b61161e936114e5565b3880808061160f565b61163383838387611590565b611607565b60006100c7916115f2565b6100c7911561163857611654610bc2565b611638565b600060026100c79261166d83808301611643565b61167a8360018301611643565b01611643565b6100c7911561165957611691610bc2565b611659565b600060076100c7926116aa83808301611643565b6116b78360018301611643565b6116c48360028301611680565b8260058201556116d78360068301611643565b01610c10565b6100c79115611696576116ee610bc2565b611696565b61170161170791600161047e565b906116dd565b7fa6fb241657c3c18fc80b9ead1a3ff49713b698afdf880800d2fc42f10098cd5361173160405190565b6020808252600f908201526e414354494f4e5f434f4e4649524d4560881b6040820152806060810161129756fea26469706673582212208731d22391389c690f812bc7f3bda8cabe31b12aa8de7545168614d4adfa845864736f6c63430008110033","opcodes":"PUSH1 0x80 PUSH1 0x40 MSTORE CALLVALUE PUSH2 0x1B JUMPI JUMPDEST PUSH1 0x40 MLOAD PUSH2 0x1794 PUSH2 0x29 DUP3 CODECOPY PUSH2 0x1794 SWAP1 RETURN JUMPDEST PUSH2 0x23 PUSH1 0x0 DUP1 REVERT JUMPDEST PUSH2 0xA JUMP INVALID PUSH1 0x80 PUSH1 0x40 MSTORE PUSH1 0x4 CALLDATASIZE LT ISZERO PUSH2 0x18 JUMPI JUMPDEST PUSH2 0x16 PUSH1 0x0 DUP1 REVERT JUMPDEST STOP JUMPDEST PUSH1 0x0 CALLDATALOAD PUSH1 0xE0 SHR DUP1 PUSH3 0xBB032A EQ PUSH2 0xA3 JUMPI DUP1 PUSH4 0x352E27C EQ PUSH2 0x9A JUMPI DUP1 PUSH4 0x57C8D71D EQ PUSH2 0x91 JUMPI DUP1 PUSH4 0x728E2274 EQ PUSH2 0x88 JUMPI DUP1 PUSH4 0x8EF4B9D3 EQ PUSH2 0x7F JUMPI DUP1 PUSH4 0xA6C807A9 EQ PUSH2 0x76 JUMPI PUSH4 0xB645307D SUB PUSH2 0xE JUMPI PUSH2 0x71 PUSH2 0x9EF JUMP JUMPDEST PUSH2 0xE JUMP JUMPDEST POP PUSH2 0x71 PUSH2 0x9C5 JUMP JUMPDEST POP PUSH2 0x71 PUSH2 0x8EF JUMP JUMPDEST POP PUSH2 0x71 PUSH2 0x811 JUMP JUMPDEST POP PUSH2 0x71 PUSH2 0x6E6 JUMP JUMPDEST POP PUSH2 0x71 PUSH2 0x414 JUMP JUMPDEST POP PUSH2 0x71 PUSH2 0x243 JUMP JUMPDEST PUSH1 0x0 DUP1 REVERT JUMPDEST DUP1 JUMPDEST SUB PUSH2 0xAC JUMPI JUMP JUMPDEST SWAP1 POP CALLDATALOAD SWAP1 PUSH2 0xC7 DUP3 PUSH2 0xB1 JUMP JUMPDEST JUMP JUMPDEST DUP1 ISZERO ISZERO PUSH2 0xB3 JUMP JUMPDEST SWAP1 POP CALLDATALOAD SWAP1 PUSH2 0xC7 DUP3 PUSH2 0xC9 JUMP JUMPDEST PUSH1 0x1F ADD PUSH1 0x1F NOT AND SWAP1 JUMP JUMPDEST POP PUSH4 0x4E487B71 PUSH1 0xE0 SHL PUSH1 0x0 MSTORE PUSH1 0x41 PUSH1 0x4 MSTORE PUSH1 0x24 PUSH1 0x0 REVERT JUMPDEST SWAP1 PUSH1 0x1F ADD PUSH1 0x1F NOT AND DUP2 ADD SWAP1 DUP2 LT PUSH1 0x1 PUSH1 0x1 PUSH1 0x40 SHL SUB DUP3 GT OR PUSH2 0x120 JUMPI PUSH1 0x40 MSTORE JUMP JUMPDEST PUSH2 0x128 PUSH2 0xE8 JUMP JUMPDEST PUSH1 0x40 MSTORE JUMP JUMPDEST SWAP1 PUSH2 0xC7 PUSH2 0x13A PUSH1 0x40 MLOAD SWAP1 JUMP JUMPDEST SWAP3 DUP4 PUSH2 0xFF JUMP JUMPDEST PUSH2 0x15F PUSH1 0x20 SWAP2 PUSH1 0x1 PUSH1 0x1 PUSH1 0x40 SHL SUB DUP2 GT PUSH2 0x163 JUMPI PUSH1 0x1F ADD PUSH1 0x1F NOT AND SWAP1 JUMP JUMPDEST ADD SWAP1 JUMP JUMPDEST PUSH2 0xDE PUSH2 0xE8 JUMP JUMPDEST SWAP1 DUP3 PUSH1 0x0 SWAP4 SWAP3 DUP3 CALLDATACOPY ADD MSTORE JUMP JUMPDEST SWAP3 SWAP2 SWAP1 PUSH2 0xC7 SWAP2 PUSH2 0x18F PUSH2 0x18A DUP4 PUSH2 0x141 JUMP JUMPDEST PUSH2 0x12D JUMP JUMPDEST SWAP5 DUP3 DUP7 MSTORE PUSH1 0x20 DUP7 ADD SWAP2 DUP4 DUP3 ADD GT ISZERO PUSH2 0x16B JUMPI PUSH2 0x1A9 PUSH1 0x0 DUP1 REVERT JUMPDEST PUSH2 0x16B JUMP JUMPDEST SWAP1 PUSH2 0x1CA SWAP2 DUP2 PUSH1 0x1F DUP3 ADD SLT ISZERO PUSH2 0x1CD JUMPI JUMPDEST PUSH1 0x20 DUP2 CALLDATALOAD SWAP2 ADD PUSH2 0x177 JUMP JUMPDEST SWAP1 JUMP JUMPDEST PUSH2 0x1D5 PUSH1 0x0 DUP1 REVERT JUMPDEST PUSH2 0x1BF JUMP JUMPDEST PUSH1 0x80 DUP2 DUP4 SUB SLT PUSH2 0x236 JUMPI JUMPDEST PUSH2 0x1EF DUP3 DUP3 PUSH2 0xBA JUMP JUMPDEST SWAP3 PUSH2 0x1CA PUSH2 0x200 DUP5 PUSH1 0x20 DUP6 ADD PUSH2 0xD1 JUMP JUMPDEST SWAP4 PUSH2 0x220 DUP2 PUSH1 0x40 DUP7 ADD CALLDATALOAD PUSH1 0x1 PUSH1 0x1 PUSH1 0x40 SHL SUB DUP2 GT PUSH2 0x229 JUMPI JUMPDEST DUP7 ADD PUSH2 0x1AE JUMP JUMPDEST SWAP4 PUSH1 0x60 ADD PUSH2 0xBA JUMP JUMPDEST PUSH2 0x231 PUSH1 0x0 DUP1 REVERT JUMPDEST PUSH2 0x219 JUMP JUMPDEST PUSH2 0x23E PUSH1 0x0 DUP1 REVERT JUMPDEST PUSH2 0x1E5 JUMP JUMPDEST POP CALLVALUE PUSH2 0x26A JUMPI JUMPDEST PUSH2 0x261 PUSH2 0x258 CALLDATASIZE PUSH1 0x4 PUSH2 0x1DA JUMP JUMPDEST SWAP3 SWAP2 SWAP1 SWAP2 PUSH2 0x11FB JUMP JUMPDEST PUSH1 0x40 MLOAD STOP JUMPDEST SUB SWAP1 RETURN JUMPDEST PUSH2 0x272 PUSH1 0x0 DUP1 REVERT JUMPDEST PUSH2 0x24A JUMP JUMPDEST PUSH1 0x0 SWAP2 SUB SLT PUSH2 0x282 JUMPI JUMP JUMPDEST PUSH2 0xC7 PUSH1 0x0 DUP1 REVERT JUMPDEST PUSH1 0x0 JUMPDEST DUP4 DUP2 LT PUSH2 0x29D JUMPI POP POP PUSH1 0x0 SWAP2 ADD MSTORE JUMP JUMPDEST DUP2 DUP2 ADD MLOAD DUP4 DUP3 ADD MSTORE PUSH1 0x20 ADD PUSH2 0x28D JUMP JUMPDEST PUSH2 0x2CE PUSH2 0xDE PUSH1 0x20 SWAP4 PUSH2 0x15F SWAP4 PUSH2 0x2C2 DUP2 MLOAD SWAP1 JUMP JUMPDEST DUP1 DUP4 MSTORE SWAP4 DUP5 SWAP3 PUSH1 0x20 ADD SWAP1 JUMP JUMPDEST SWAP6 DUP7 SWAP2 ADD PUSH2 0x28A JUMP JUMPDEST DUP1 MLOAD PUSH1 0x60 DUP1 DUP5 MSTORE PUSH2 0x1CA SWAP4 SWAP2 PUSH1 0x40 SWAP2 PUSH2 0x308 SWAP2 PUSH2 0x2F6 SWAP2 DUP6 ADD SWAP1 PUSH2 0x2AD JUMP JUMPDEST PUSH1 0x20 DUP6 ADD MLOAD DUP5 DUP3 SUB PUSH1 0x20 DUP7 ADD MSTORE PUSH2 0x2AD JUMP JUMPDEST SWAP3 ADD MLOAD SWAP1 PUSH1 0x40 DUP2 DUP5 SUB SWAP2 ADD MSTORE PUSH2 0x2AD JUMP JUMPDEST SWAP1 PUSH2 0x1CA SWAP1 PUSH1 0xA0 DUP1 PUSH2 0x385 PUSH2 0x367 PUSH2 0x355 PUSH2 0x343 PUSH1 0xC0 DUP8 ADD PUSH1 0x0 DUP11 ADD MLOAD DUP9 DUP3 SUB PUSH1 0x0 DUP11 ADD MSTORE PUSH2 0x2AD JUMP JUMPDEST PUSH1 0x20 DUP10 ADD MLOAD DUP8 DUP3 SUB PUSH1 0x20 DUP10 ADD MSTORE PUSH2 0x2AD JUMP JUMPDEST PUSH1 0x40 DUP9 ADD MLOAD DUP7 DUP3 SUB PUSH1 0x40 DUP9 ADD MSTORE PUSH2 0x2D7 JUMP JUMPDEST PUSH1 0x60 DUP8 DUP2 ADD MLOAD ISZERO ISZERO SWAP1 DUP7 ADD MSTORE PUSH1 0x80 DUP8 ADD MLOAD DUP6 DUP3 SUB PUSH1 0x80 DUP8 ADD MSTORE PUSH2 0x2AD JUMP JUMPDEST SWAP5 ADD MLOAD SWAP2 ADD MSTORE JUMP JUMPDEST SWAP1 PUSH2 0x1CA SWAP2 PUSH2 0x319 JUMP JUMPDEST SWAP1 PUSH2 0x3AD PUSH2 0x3A3 DUP4 MLOAD SWAP1 JUMP JUMPDEST DUP1 DUP4 MSTORE SWAP2 PUSH1 0x20 ADD SWAP1 JUMP JUMPDEST SWAP1 DUP2 PUSH2 0x3BF PUSH1 0x20 DUP4 MUL DUP5 ADD SWAP5 PUSH1 0x20 ADD SWAP1 JUMP JUMPDEST SWAP3 PUSH1 0x0 SWAP2 JUMPDEST DUP4 DUP4 LT PUSH2 0x3D3 JUMPI POP POP POP POP POP SWAP1 JUMP JUMPDEST SWAP1 SWAP2 SWAP3 SWAP4 SWAP5 PUSH1 0x20 PUSH2 0x3F6 PUSH2 0x3EF DUP4 DUP6 PUSH1 0x1 SWAP6 SUB DUP8 MSTORE DUP10 MLOAD PUSH2 0x38D JUMP JUMPDEST SWAP8 PUSH1 0x20 ADD SWAP1 JUMP JUMPDEST SWAP4 ADD SWAP4 ADD SWAP2 SWAP4 SWAP3 SWAP1 PUSH2 0x3C4 JUMP JUMPDEST PUSH1 0x20 DUP1 DUP3 MSTORE PUSH2 0x1CA SWAP3 SWAP2 ADD SWAP1 PUSH2 0x397 JUMP JUMPDEST POP CALLVALUE PUSH2 0x43D JUMPI JUMPDEST PUSH2 0x426 CALLDATASIZE PUSH1 0x4 PUSH2 0x277 JUMP JUMPDEST PUSH2 0x266 PUSH2 0x431 PUSH2 0x11F1 JUMP JUMPDEST PUSH1 0x40 MLOAD SWAP2 DUP3 SWAP2 DUP3 PUSH2 0x403 JUMP JUMPDEST PUSH2 0x445 PUSH1 0x0 DUP1 REVERT JUMPDEST PUSH2 0x41B JUMP JUMPDEST SWAP1 PUSH2 0x1CA SWAP2 PUSH1 0x20 DUP2 DUP4 SUB SLT ISZERO PUSH2 0xBA JUMPI PUSH2 0x462 PUSH1 0x0 DUP1 REVERT JUMPDEST PUSH2 0xBA JUMP JUMPDEST POP PUSH4 0x4E487B71 PUSH1 0xE0 SHL PUSH1 0x0 MSTORE PUSH1 0x32 PUSH1 0x4 MSTORE PUSH1 0x24 PUSH1 0x0 REVERT JUMPDEST PUSH2 0x49E PUSH1 0x8 SWAP2 PUSH2 0x48C DUP2 SLOAD SWAP1 JUMP JUMPDEST DUP5 LT ISZERO PUSH2 0x4A7 JUMPI PUSH1 0x0 MSTORE PUSH1 0x20 PUSH1 0x0 KECCAK256 SWAP1 JUMP JUMPDEST SWAP2 MUL ADD SWAP1 PUSH1 0x0 SWAP1 JUMP JUMPDEST PUSH2 0x4AF PUSH2 0x467 JUMP JUMPDEST PUSH1 0x0 MSTORE PUSH1 0x20 PUSH1 0x0 KECCAK256 SWAP1 JUMP JUMPDEST POP PUSH4 0x4E487B71 PUSH1 0xE0 SHL PUSH1 0x0 MSTORE PUSH1 0x22 PUSH1 0x4 MSTORE PUSH1 0x24 PUSH1 0x0 REVERT JUMPDEST SWAP1 PUSH1 0x1 PUSH1 0x2 DUP4 DIV SWAP3 AND DUP1 ISZERO PUSH2 0x4F4 JUMPI JUMPDEST PUSH1 0x20 DUP4 LT EQ PUSH2 0x4EC JUMPI JUMP JUMPDEST PUSH2 0xC7 PUSH2 0x4BA JUMP JUMPDEST SWAP2 PUSH1 0x7F AND SWAP2 PUSH2 0x4E1 JUMP JUMPDEST DUP1 SLOAD PUSH1 0x0 SWAP4 SWAP3 SWAP2 PUSH2 0x51B PUSH2 0x511 DUP4 PUSH2 0x4D1 JUMP JUMPDEST DUP1 DUP6 MSTORE SWAP4 PUSH1 0x20 ADD SWAP1 JUMP JUMPDEST SWAP2 PUSH1 0x1 DUP2 AND SWAP1 DUP2 ISZERO PUSH2 0x56D JUMPI POP PUSH1 0x1 EQ PUSH2 0x534 JUMPI POP POP POP JUMP JUMPDEST PUSH2 0x547 SWAP2 SWAP3 SWAP4 SWAP5 POP PUSH1 0x0 MSTORE PUSH1 0x20 PUSH1 0x0 KECCAK256 SWAP1 JUMP JUMPDEST SWAP2 PUSH1 0x0 SWAP3 JUMPDEST DUP2 DUP5 LT PUSH2 0x559 JUMPI POP POP ADD SWAP1 JUMP JUMPDEST DUP1 SLOAD DUP5 DUP5 ADD MSTORE PUSH1 0x20 SWAP1 SWAP4 ADD SWAP3 PUSH1 0x1 ADD PUSH2 0x54C JUMP JUMPDEST SWAP3 SWAP5 SWAP6 POP POP POP PUSH1 0xFF NOT AND DUP3 MSTORE ISZERO ISZERO PUSH1 0x20 MUL ADD SWAP1 JUMP JUMPDEST SWAP1 PUSH2 0x1CA SWAP2 PUSH2 0x4FE JUMP JUMPDEST SWAP1 PUSH2 0xC7 PUSH2 0x5A6 SWAP3 PUSH2 0x59D PUSH1 0x40 MLOAD SWAP1 JUMP JUMPDEST SWAP4 DUP5 DUP1 SWAP3 PUSH2 0x582 JUMP JUMPDEST SUB DUP4 PUSH2 0xFF JUMP JUMPDEST PUSH2 0x1CA PUSH1 0x60 PUSH2 0x12D JUMP JUMPDEST SWAP1 PUSH2 0xC7 PUSH2 0x5F5 PUSH1 0x2 PUSH2 0x5C8 PUSH2 0x5AD JUMP JUMPDEST SWAP5 PUSH2 0x5D9 PUSH2 0x5D5 DUP3 PUSH2 0x58C JUMP JUMPDEST DUP8 MSTORE JUMP JUMPDEST PUSH2 0x5EF PUSH2 0x5E8 PUSH1 0x1 DUP4 ADD PUSH2 0x58C JUMP JUMPDEST PUSH1 0x20 DUP9 ADD MSTORE JUMP JUMPDEST ADD PUSH2 0x58C JUMP JUMPDEST PUSH1 0x40 DUP5 ADD MSTORE JUMP JUMPDEST PUSH2 0x1CA SWAP1 DUP2 JUMP JUMPDEST PUSH2 0x1CA SWAP1 SLOAD PUSH2 0x5FC JUMP JUMPDEST SWAP1 PUSH1 0x1 SWAP2 PUSH1 0x0 SWAP3 PUSH2 0x61C DUP2 SLOAD SWAP1 JUMP JUMPDEST DUP3 LT ISZERO PUSH2 0x67B JUMPI PUSH2 0x62E SWAP3 SWAP4 POP PUSH2 0x47E JUMP JUMPDEST POP SWAP1 PUSH2 0x639 DUP3 PUSH2 0x58C JUMP JUMPDEST SWAP2 PUSH2 0x646 PUSH1 0x1 DUP3 ADD PUSH2 0x58C JUMP JUMPDEST SWAP2 PUSH2 0x653 PUSH1 0x2 DUP4 ADD PUSH2 0x5B7 JUMP JUMPDEST SWAP2 PUSH2 0x662 PUSH1 0x5 DUP3 ADD SLOAD PUSH1 0xFF AND SWAP1 JUMP JUMPDEST SWAP2 PUSH2 0x1CA PUSH1 0x7 PUSH2 0x674 PUSH1 0x6 DUP6 ADD PUSH2 0x58C JUMP JUMPDEST SWAP4 ADD PUSH2 0x603 JUMP JUMPDEST DUP4 DUP1 REVERT JUMPDEST SWAP7 SWAP6 SWAP4 SWAP1 SWAP5 PUSH2 0x6D4 PUSH2 0x6CA PUSH1 0xA0 SWAP6 PUSH2 0x6BC PUSH2 0x6E1 SWAP7 PUSH2 0x6AE DUP14 PUSH2 0xC7 SWAP13 PUSH1 0xC0 DUP3 ADD SWAP2 PUSH1 0x0 DUP2 DUP5 SUB SWAP2 ADD MSTORE PUSH2 0x2AD JUMP JUMPDEST DUP14 DUP2 SUB PUSH1 0x20 DUP16 ADD MSTORE SWAP1 PUSH2 0x2AD JUMP JUMPDEST SWAP1 DUP12 DUP3 SUB PUSH1 0x40 DUP14 ADD MSTORE PUSH2 0x2D7 JUMP JUMPDEST SWAP3 ISZERO ISZERO PUSH1 0x60 DUP11 ADD MSTORE JUMP JUMPDEST DUP8 DUP3 SUB PUSH1 0x80 DUP10 ADD MSTORE PUSH2 0x2AD JUMP JUMPDEST SWAP5 ADD MSTORE JUMP JUMPDEST POP CALLVALUE PUSH2 0x71C JUMPI JUMPDEST PUSH2 0x266 PUSH2 0x703 PUSH2 0x6FE CALLDATASIZE PUSH1 0x4 PUSH2 0x44A JUMP JUMPDEST PUSH2 0x60D JUMP JUMPDEST SWAP3 PUSH2 0x713 SWAP7 SWAP5 SWAP7 SWAP3 SWAP2 SWAP3 PUSH1 0x40 MLOAD SWAP1 JUMP JUMPDEST SWAP7 DUP8 SWAP7 DUP8 PUSH2 0x67F JUMP JUMPDEST PUSH2 0x724 PUSH1 0x0 DUP1 REVERT JUMPDEST PUSH2 0x6ED JUMP JUMPDEST SWAP1 SWAP2 PUSH1 0xC0 DUP3 DUP5 SUB SLT PUSH2 0x804 JUMPI JUMPDEST PUSH2 0x740 DUP4 DUP4 PUSH2 0xBA JUMP JUMPDEST SWAP3 PUSH2 0x760 DUP2 PUSH1 0x20 DUP6 ADD CALLDATALOAD PUSH1 0x1 PUSH1 0x1 PUSH1 0x40 SHL SUB DUP2 GT PUSH2 0x7EA JUMPI JUMPDEST DUP6 ADD PUSH2 0x1AE JUMP JUMPDEST SWAP3 PUSH2 0x780 DUP3 PUSH1 0x40 DUP4 ADD CALLDATALOAD PUSH1 0x1 PUSH1 0x1 PUSH1 0x40 SHL SUB DUP2 GT PUSH2 0x7F7 JUMPI JUMPDEST DUP4 ADD PUSH2 0x1AE JUMP JUMPDEST SWAP3 PUSH2 0x1CA PUSH2 0x7A2 DUP5 PUSH1 0x60 DUP6 ADD CALLDATALOAD PUSH1 0x1 PUSH1 0x1 PUSH1 0x40 SHL SUB DUP2 GT PUSH2 0x7EA JUMPI DUP6 ADD PUSH2 0x1AE JUMP JUMPDEST SWAP4 PUSH2 0x7C1 DUP2 PUSH1 0x80 DUP7 ADD CALLDATALOAD PUSH1 0x1 PUSH1 0x1 PUSH1 0x40 SHL SUB DUP2 GT PUSH2 0x229 JUMPI DUP7 ADD PUSH2 0x1AE JUMP JUMPDEST SWAP4 PUSH1 0xA0 DUP2 ADD CALLDATALOAD SWAP1 PUSH1 0x1 PUSH1 0x1 PUSH1 0x40 SHL SUB DUP3 GT PUSH2 0x7DD JUMPI JUMPDEST ADD PUSH2 0x1AE JUMP JUMPDEST PUSH2 0x7E5 PUSH1 0x0 DUP1 REVERT JUMPDEST PUSH2 0x7D7 JUMP JUMPDEST PUSH2 0x7F2 PUSH1 0x0 DUP1 REVERT JUMPDEST PUSH2 0x759 JUMP JUMPDEST PUSH2 0x7FF PUSH1 0x0 DUP1 REVERT JUMPDEST PUSH2 0x779 JUMP JUMPDEST PUSH2 0x80C PUSH1 0x0 DUP1 REVERT JUMPDEST PUSH2 0x736 JUMP JUMPDEST POP CALLVALUE PUSH2 0x832 JUMPI JUMPDEST PUSH2 0x261 PUSH2 0x826 CALLDATASIZE PUSH1 0x4 PUSH2 0x729 JUMP JUMPDEST SWAP5 SWAP4 SWAP1 SWAP4 SWAP3 SWAP2 SWAP3 PUSH2 0x1377 JUMP JUMPDEST PUSH2 0x83A PUSH1 0x0 DUP1 REVERT JUMPDEST PUSH2 0x818 JUMP JUMPDEST SWAP2 SWAP1 PUSH1 0xA0 DUP4 DUP3 SUB SLT PUSH2 0x8E2 JUMPI JUMPDEST PUSH2 0x867 DUP2 DUP5 CALLDATALOAD PUSH1 0x1 PUSH1 0x1 PUSH1 0x40 SHL SUB DUP2 GT PUSH2 0x7EA JUMPI DUP6 ADD PUSH2 0x1AE JUMP JUMPDEST SWAP3 PUSH2 0x886 DUP3 PUSH1 0x20 DUP4 ADD CALLDATALOAD PUSH1 0x1 PUSH1 0x1 PUSH1 0x40 SHL SUB DUP2 GT PUSH2 0x7F7 JUMPI DUP4 ADD PUSH2 0x1AE JUMP JUMPDEST SWAP3 PUSH2 0x1CA PUSH2 0x8A8 DUP5 PUSH1 0x40 DUP6 ADD CALLDATALOAD PUSH1 0x1 PUSH1 0x1 PUSH1 0x40 SHL SUB DUP2 GT PUSH2 0x7EA JUMPI DUP6 ADD PUSH2 0x1AE JUMP JUMPDEST SWAP4 PUSH2 0x8C7 DUP2 PUSH1 0x60 DUP7 ADD CALLDATALOAD PUSH1 0x1 PUSH1 0x1 PUSH1 0x40 SHL SUB DUP2 GT PUSH2 0x229 JUMPI DUP7 ADD PUSH2 0x1AE JUMP JUMPDEST SWAP4 PUSH1 0x80 DUP2 ADD CALLDATALOAD SWAP1 PUSH1 0x1 PUSH1 0x1 PUSH1 0x40 SHL SUB DUP3 GT PUSH2 0x7DD JUMPI ADD PUSH2 0x1AE JUMP JUMPDEST PUSH2 0x8EA PUSH1 0x0 DUP1 REVERT JUMPDEST PUSH2 0x84C JUMP JUMPDEST POP CALLVALUE PUSH2 0x920 JUMPI JUMPDEST PUSH2 0x266 PUSH2 0x910 PUSH2 0x907 CALLDATASIZE PUSH1 0x4 PUSH2 0x83F JUMP JUMPDEST SWAP4 SWAP3 SWAP1 SWAP3 PUSH2 0xF8F JUMP JUMPDEST PUSH1 0x40 MLOAD SWAP2 DUP3 SWAP2 DUP3 SWAP1 DUP2 MSTORE PUSH1 0x20 ADD SWAP1 JUMP JUMPDEST PUSH2 0x928 PUSH1 0x0 DUP1 REVERT JUMPDEST PUSH2 0x8F6 JUMP JUMPDEST PUSH1 0x1 PUSH1 0x1 PUSH1 0xA0 SHL SUB AND SWAP1 JUMP JUMPDEST PUSH1 0x1 PUSH1 0x1 PUSH1 0xA0 SHL SUB DUP2 AND PUSH2 0xB3 JUMP JUMPDEST SWAP1 POP CALLDATALOAD SWAP1 PUSH2 0xC7 DUP3 PUSH2 0x939 JUMP JUMPDEST SWAP1 PUSH2 0x1CA SWAP2 PUSH1 0x20 DUP2 DUP4 SUB SLT ISZERO PUSH2 0x948 JUMPI PUSH2 0x96D PUSH1 0x0 DUP1 REVERT JUMPDEST PUSH2 0x948 JUMP JUMPDEST PUSH2 0x1CA SWAP1 PUSH2 0x92D SWAP1 PUSH1 0x1 PUSH1 0x1 PUSH1 0xA0 SHL SUB AND DUP3 JUMP JUMPDEST PUSH2 0x1CA SWAP1 PUSH2 0x972 JUMP JUMPDEST PUSH2 0x1CA SWAP1 PUSH2 0x986 JUMP JUMPDEST SWAP1 PUSH2 0x9A2 SWAP1 PUSH2 0x98F JUMP JUMPDEST PUSH1 0x0 MSTORE PUSH1 0x20 MSTORE PUSH1 0x40 PUSH1 0x0 KECCAK256 SWAP1 JUMP JUMPDEST PUSH2 0x9BB SWAP1 PUSH1 0x0 PUSH2 0x998 JUMP JUMPDEST SWAP1 PUSH2 0x639 DUP3 PUSH2 0x58C JUMP JUMPDEST POP CALLVALUE PUSH2 0x9E2 JUMPI JUMPDEST PUSH2 0x266 PUSH2 0x703 PUSH2 0x9DD CALLDATASIZE PUSH1 0x4 PUSH2 0x955 JUMP JUMPDEST PUSH2 0x9B0 JUMP JUMPDEST PUSH2 0x9EA PUSH1 0x0 DUP1 REVERT JUMPDEST PUSH2 0x9CC JUMP JUMPDEST POP CALLVALUE PUSH2 0xA09 JUMPI JUMPDEST PUSH2 0x261 PUSH2 0xA04 CALLDATASIZE PUSH1 0x4 PUSH2 0x44A JUMP JUMPDEST PUSH2 0x16F3 JUMP JUMPDEST PUSH2 0xA11 PUSH1 0x0 DUP1 REVERT JUMPDEST PUSH2 0x9F6 JUMP JUMPDEST PUSH2 0x1CA PUSH2 0x1CA PUSH2 0x1CA SWAP3 SWAP1 JUMP JUMPDEST ISZERO PUSH2 0xA2A JUMPI JUMP JUMPDEST PUSH1 0x40 MLOAD PUSH3 0x461BCD PUSH1 0xE5 SHL DUP2 MSTORE PUSH1 0x20 PUSH1 0x4 DUP3 ADD MSTORE PUSH1 0x1A PUSH1 0x24 DUP3 ADD MSTORE PUSH32 0x4669727374206E616D652063616E6E6F7420626520656D707479000000000000 PUSH1 0x44 DUP3 ADD MSTORE PUSH1 0x64 SWAP1 REVERT JUMPDEST ISZERO PUSH2 0xA76 JUMPI JUMP JUMPDEST PUSH1 0x40 MLOAD PUSH3 0x461BCD PUSH1 0xE5 SHL DUP2 MSTORE PUSH1 0x20 PUSH1 0x4 DUP3 ADD MSTORE PUSH1 0x19 PUSH1 0x24 DUP3 ADD MSTORE PUSH32 0x4C617374206E616D652063616E6E6F7420626520656D70747900000000000000 PUSH1 0x44 DUP3 ADD MSTORE PUSH1 0x64 SWAP1 REVERT JUMPDEST ISZERO PUSH2 0xAC2 JUMPI JUMP JUMPDEST PUSH1 0x40 MLOAD PUSH3 0x461BCD PUSH1 0xE5 SHL DUP2 MSTORE PUSH1 0x20 PUSH1 0x4 DUP3 ADD MSTORE PUSH1 0x16 PUSH1 0x24 DUP3 ADD MSTORE PUSH22 0x4465677265652063616E6E6F7420626520656D707479 PUSH1 0x50 SHL PUSH1 0x44 DUP3 ADD MSTORE PUSH1 0x64 SWAP1 REVERT JUMPDEST ISZERO PUSH2 0xB07 JUMPI JUMP JUMPDEST PUSH1 0x40 MLOAD PUSH3 0x461BCD PUSH1 0xE5 SHL DUP2 MSTORE PUSH1 0x20 PUSH1 0x4 DUP3 ADD MSTORE PUSH1 0x15 PUSH1 0x24 DUP3 ADD MSTORE PUSH21 0x4D616A6F722063616E6E6F7420626520656D707479 PUSH1 0x58 SHL PUSH1 0x44 DUP3 ADD MSTORE PUSH1 0x64 SWAP1 REVERT JUMPDEST ISZERO PUSH2 0xB4B JUMPI JUMP JUMPDEST PUSH1 0x40 MLOAD PUSH3 0x461BCD PUSH1 0xE5 SHL DUP2 MSTORE PUSH1 0x20 PUSH1 0x4 DUP3 ADD MSTORE PUSH1 0x14 PUSH1 0x24 DUP3 ADD MSTORE PUSH20 0x796165722063616E6E6F7420626520656D707479 PUSH1 0x60 SHL PUSH1 0x44 DUP3 ADD MSTORE PUSH1 0x64 SWAP1 REVERT JUMPDEST PUSH2 0x1CA PUSH1 0xC0 PUSH2 0x12D JUMP JUMPDEST SWAP1 PUSH2 0xB9E PUSH2 0x18A DUP4 PUSH2 0x141 JUMP JUMPDEST SWAP2 DUP3 MSTORE JUMP JUMPDEST PUSH2 0xBAD PUSH1 0x1 PUSH2 0xB91 JUMP JUMPDEST PUSH1 0x1 PUSH1 0xFD SHL PUSH1 0x20 DUP3 ADD MSTORE SWAP1 JUMP JUMPDEST PUSH2 0x1CA PUSH2 0xBA3 JUMP JUMPDEST POP PUSH4 0x4E487B71 PUSH1 0xE0 SHL PUSH1 0x0 MSTORE PUSH1 0x0 PUSH1 0x4 MSTORE PUSH1 0x24 PUSH1 0x0 REVERT JUMPDEST SWAP2 PUSH1 0x0 NOT PUSH1 0x8 SWAP3 SWAP1 SWAP3 MUL SWAP2 DUP3 SHL SWAP2 SHL JUMPDEST SWAP2 DUP2 NOT AND SWAP2 AND OR SWAP1 JUMP JUMPDEST SWAP2 SWAP1 PUSH2 0xC04 PUSH2 0x1CA PUSH2 0xC0C SWAP4 PUSH2 0xA16 JUMP JUMPDEST SWAP1 DUP4 SLOAD PUSH2 0xBD9 JUMP JUMPDEST SWAP1 SSTORE JUMP JUMPDEST PUSH2 0xC7 SWAP2 PUSH1 0x0 SWAP2 PUSH2 0xBF3 JUMP JUMPDEST DUP2 DUP2 LT PUSH2 0xC27 JUMPI POP POP JUMP JUMPDEST DUP1 PUSH2 0xC35 PUSH1 0x0 PUSH1 0x1 SWAP4 PUSH2 0xC10 JUMP JUMPDEST ADD PUSH2 0xC1C JUMP JUMPDEST SWAP2 SWAP1 PUSH1 0x1F DUP2 GT PUSH2 0xC4A JUMPI POP POP POP JUMP JUMPDEST PUSH2 0xC5C PUSH2 0xC7 SWAP4 PUSH1 0x0 MSTORE PUSH1 0x20 PUSH1 0x0 KECCAK256 SWAP1 JUMP JUMPDEST SWAP1 PUSH1 0x20 PUSH1 0x1F DUP5 ADD DUP2 SWAP1 DIV DUP4 ADD SWAP4 LT PUSH2 0xC7F JUMPI JUMPDEST PUSH1 0x20 PUSH1 0x1F SWAP1 SWAP2 ADD DIV JUMPDEST ADD SWAP1 PUSH2 0xC1C JUMP JUMPDEST SWAP1 SWAP2 POP DUP2 SWAP1 PUSH2 0xC6F JUMP JUMPDEST PUSH1 0x0 NOT PUSH1 0x8 DUP4 MUL SHR NOT AND SWAP1 PUSH1 0x2 MUL OR SWAP1 JUMP JUMPDEST SWAP1 PUSH2 0xCA4 DUP2 MLOAD SWAP1 JUMP JUMPDEST SWAP1 PUSH1 0x1 PUSH1 0x1 PUSH1 0x40 SHL SUB DUP3 GT PUSH2 0xD61 JUMPI JUMPDEST PUSH2 0xCC8 DUP3 PUSH2 0xCC2 DUP6 SLOAD PUSH2 0x4D1 JUMP JUMPDEST DUP6 PUSH2 0xC3B JUMP JUMPDEST PUSH1 0x20 SWAP1 PUSH1 0x1F DUP4 GT PUSH1 0x1 EQ PUSH2 0xCF6 JUMPI PUSH2 0xC0C SWAP3 SWAP2 PUSH1 0x0 SWAP2 DUP4 PUSH2 0xCEB JUMPI JUMPDEST POP POP PUSH2 0xC89 JUMP JUMPDEST ADD MLOAD SWAP1 POP CODESIZE DUP1 PUSH2 0xCE4 JUMP JUMPDEST PUSH1 0x1F NOT DUP4 AND SWAP2 PUSH2 0xD0B DUP6 PUSH1 0x0 MSTORE PUSH1 0x20 PUSH1 0x0 KECCAK256 SWAP1 JUMP JUMPDEST SWAP3 PUSH1 0x0 JUMPDEST DUP2 DUP2 LT PUSH2 0xD49 JUMPI POP SWAP2 PUSH1 0x2 SWAP4 SWAP2 DUP6 PUSH1 0x1 SWAP7 SWAP5 LT PUSH2 0xD30 JUMPI JUMPDEST POP POP POP MUL ADD SWAP1 SSTORE JUMP JUMPDEST ADD MLOAD PUSH1 0x0 NOT PUSH1 0x8 PUSH1 0x1F DUP6 AND MUL SHR NOT AND SWAP1 SSTORE CODESIZE DUP1 DUP1 PUSH2 0xD27 JUMP JUMPDEST SWAP2 SWAP4 PUSH1 0x20 PUSH1 0x1 DUP2 SWAP3 DUP8 DUP8 ADD MLOAD DUP2 SSTORE ADD SWAP6 ADD SWAP3 ADD PUSH2 0xD0F JUMP JUMPDEST PUSH2 0xD69 PUSH2 0xE8 JUMP JUMPDEST PUSH2 0xCB4 JUMP JUMPDEST SWAP1 PUSH2 0xC7 SWAP2 PUSH2 0xC9B JUMP JUMPDEST SWAP1 PUSH2 0xD96 PUSH1 0x40 PUSH1 0x2 PUSH2 0xC7 SWAP5 PUSH2 0xD9C PUSH1 0x0 DUP3 ADD PUSH2 0xD96 PUSH1 0x0 DUP9 ADD MLOAD SWAP1 JUMP JUMPDEST SWAP1 PUSH2 0xD6E JUMP JUMPDEST PUSH2 0xDAE PUSH1 0x1 DUP3 ADD PUSH2 0xD96 PUSH1 0x20 DUP9 ADD MLOAD SWAP1 JUMP JUMPDEST ADD SWAP3 ADD MLOAD SWAP1 JUMP JUMPDEST SWAP1 PUSH2 0xC7 SWAP2 PUSH2 0xD78 JUMP JUMPDEST SWAP1 PUSH1 0xFF SWAP1 PUSH2 0xBE9 JUMP JUMPDEST SWAP1 PUSH2 0xDD8 PUSH2 0x1CA PUSH2 0xC0C SWAP3 ISZERO ISZERO SWAP1 JUMP JUMPDEST DUP3 SLOAD PUSH2 0xDBF JUMP JUMPDEST MLOAD SWAP1 JUMP JUMPDEST SWAP1 PUSH1 0x0 NOT SWAP1 PUSH2 0xBE9 JUMP JUMPDEST SWAP1 PUSH2 0xDFD PUSH2 0x1CA PUSH2 0xC0C SWAP3 PUSH2 0xA16 JUMP JUMPDEST DUP3 SLOAD PUSH2 0xDE3 JUMP JUMPDEST SWAP1 PUSH2 0xE78 PUSH1 0xA0 PUSH1 0x7 PUSH2 0xC7 SWAP5 PUSH2 0xE22 PUSH1 0x0 DUP3 ADD PUSH2 0xD96 PUSH1 0x0 DUP9 ADD MLOAD SWAP1 JUMP JUMPDEST PUSH2 0xE34 PUSH1 0x1 DUP3 ADD PUSH2 0xD96 PUSH1 0x20 DUP9 ADD MLOAD SWAP1 JUMP JUMPDEST PUSH2 0xE4C PUSH1 0x2 DUP3 ADD PUSH2 0xE46 PUSH1 0x40 DUP9 ADD MLOAD SWAP1 JUMP JUMPDEST SWAP1 PUSH2 0xDB5 JUMP JUMPDEST PUSH2 0xE66 PUSH1 0x5 DUP3 ADD PUSH2 0xE60 PUSH1 0x60 DUP9 ADD MLOAD ISZERO ISZERO SWAP1 JUMP JUMPDEST SWAP1 PUSH2 0xDC8 JUMP JUMPDEST PUSH2 0xDAE PUSH1 0x6 DUP3 ADD PUSH2 0xD96 PUSH1 0x80 DUP9 ADD MLOAD SWAP1 JUMP JUMPDEST SWAP1 PUSH2 0xDED JUMP JUMPDEST PUSH2 0xC7 SWAP3 SWAP2 ISZERO PUSH2 0xE04 JUMPI PUSH2 0xE90 PUSH2 0xBC2 JUMP JUMPDEST PUSH2 0xE04 JUMP JUMPDEST SWAP1 PUSH2 0xEB8 PUSH2 0xC7 SWAP3 DUP1 SLOAD SWAP1 PUSH1 0x1 PUSH1 0x40 SHL DUP3 LT ISZERO PUSH2 0xEBE JUMPI JUMPDEST PUSH1 0x1 DUP3 ADD DUP2 SSTORE PUSH2 0x47E JUMP JUMPDEST SWAP1 PUSH2 0xE7E JUMP JUMPDEST PUSH2 0xEC6 PUSH2 0xE8 JUMP JUMPDEST PUSH2 0xEAD JUMP JUMPDEST POP PUSH4 0x4E487B71 PUSH1 0xE0 SHL PUSH1 0x0 MSTORE PUSH1 0x11 PUSH1 0x4 MSTORE PUSH1 0x24 PUSH1 0x0 REVERT JUMPDEST SWAP2 SWAP1 DUP3 SUB SWAP2 DUP3 GT PUSH2 0xEEF JUMPI JUMP JUMPDEST PUSH2 0xC7 PUSH2 0xECB JUMP JUMPDEST SWAP5 SWAP1 PUSH2 0xF64 SWAP5 PUSH2 0xF3A PUSH2 0x1CA SWAP9 SWAP6 PUSH2 0xF2C DUP10 PUSH2 0xF56 SWAP8 PUSH2 0xF1F PUSH2 0xF48 SWAP8 PUSH1 0x0 PUSH1 0xE0 DUP6 ADD SWAP5 ADD MSTORE JUMP JUMPDEST DUP12 DUP3 SUB PUSH1 0x20 DUP14 ADD MSTORE PUSH2 0x2AD JUMP JUMPDEST SWAP1 DUP10 DUP3 SUB PUSH1 0x40 DUP12 ADD MSTORE PUSH2 0x2AD JUMP JUMPDEST SWAP1 DUP8 DUP3 SUB PUSH1 0x60 DUP10 ADD MSTORE PUSH2 0x2AD JUMP JUMPDEST SWAP1 DUP6 DUP3 SUB PUSH1 0x80 DUP8 ADD MSTORE PUSH2 0x2AD JUMP JUMPDEST SWAP1 DUP4 DUP3 SUB PUSH1 0xA0 DUP6 ADD MSTORE PUSH2 0x2AD JUMP JUMPDEST SWAP1 PUSH1 0xC0 DUP2 DUP4 SUB SWAP2 ADD MSTORE PUSH1 0xF DUP2 MSTORE PUSH15 0x414354494F4E5F434F4E4649524D45 PUSH1 0x88 SHL PUSH1 0x20 DUP3 ADD MSTORE PUSH1 0x40 ADD SWAP1 JUMP JUMPDEST SWAP1 SWAP2 SWAP3 PUSH2 0xF9A PUSH1 0x0 SWAP1 JUMP JUMPDEST POP DUP2 MLOAD SWAP5 PUSH1 0x0 SWAP6 PUSH2 0xFAA DUP8 PUSH2 0xA16 JUMP JUMPDEST LT PUSH2 0xFB4 SWAP1 PUSH2 0xA23 JUMP JUMPDEST DUP4 MLOAD PUSH2 0xFBF DUP8 PUSH2 0xA16 JUMP JUMPDEST LT PUSH2 0xFC9 SWAP1 PUSH2 0xA6F JUMP JUMPDEST DUP5 MLOAD PUSH2 0xFD4 DUP8 PUSH2 0xA16 JUMP JUMPDEST LT PUSH2 0xFDE SWAP1 PUSH2 0xABB JUMP JUMPDEST DUP2 MLOAD PUSH2 0xFE9 DUP8 PUSH2 0xA16 JUMP JUMPDEST LT PUSH2 0xFF3 SWAP1 PUSH2 0xB00 JUMP JUMPDEST DUP1 MLOAD PUSH2 0xFFE DUP8 PUSH2 0xA16 JUMP JUMPDEST LT PUSH2 0x1008 SWAP1 PUSH2 0xB44 JUMP JUMPDEST PUSH2 0x1010 PUSH2 0x5AD JUMP JUMPDEST DUP7 DUP2 ADD DUP7 SWAP1 MSTORE SWAP6 PUSH1 0x20 DUP8 ADD DUP4 SWAP1 MSTORE PUSH1 0x40 DUP8 ADD DUP3 SWAP1 MSTORE DUP1 NOT SWAP1 PUSH2 0x1030 PUSH2 0xB87 JUMP JUMPDEST DUP1 DUP3 ADD DUP7 SWAP1 MSTORE PUSH1 0x20 DUP2 ADD DUP8 SWAP1 MSTORE PUSH1 0x40 DUP2 ADD SWAP9 SWAP1 SWAP9 MSTORE ISZERO ISZERO PUSH1 0x60 DUP9 ADD MSTORE PUSH2 0x1054 PUSH2 0xBBA JUMP JUMPDEST PUSH1 0x80 DUP9 ADD MSTORE PUSH2 0x1062 SWAP1 PUSH2 0xA16 JUMP JUMPDEST PUSH1 0xA0 DUP8 ADD MSTORE PUSH1 0x1 SWAP6 PUSH2 0x1074 SWAP1 DUP8 PUSH2 0xE95 JUMP JUMPDEST DUP6 SLOAD PUSH2 0x107F DUP8 PUSH2 0xA16 JUMP JUMPDEST PUSH2 0x1088 SWAP2 PUSH2 0xEE2 JUMP JUMPDEST SWAP2 PUSH32 0xB3BA2CFF02B32EEB145A4310F642027C74C7037F3F86732AD86B47EE1FDD8D2A SWAP6 PUSH2 0x10B4 PUSH1 0x40 MLOAD SWAP1 JUMP JUMPDEST SWAP6 DUP7 SWAP6 PUSH2 0x10C1 SWAP6 DUP8 PUSH2 0xEF7 JUMP JUMPDEST SUB SWAP1 LOG1 DUP1 SLOAD SWAP1 PUSH2 0x10D0 SWAP1 PUSH2 0xA16 JUMP JUMPDEST PUSH2 0x1CA SWAP2 PUSH2 0xEE2 JUMP JUMPDEST PUSH1 0x20 DUP1 SWAP2 PUSH1 0x1 PUSH1 0x1 PUSH1 0x40 SHL SUB DUP2 GT PUSH2 0x10F0 JUMPI MUL ADD SWAP1 JUMP JUMPDEST PUSH2 0x10F8 PUSH2 0xE8 JUMP JUMPDEST MUL ADD SWAP1 JUMP JUMPDEST SWAP1 PUSH2 0xB9E PUSH2 0x18A DUP4 PUSH2 0x10D9 JUMP JUMPDEST SWAP1 PUSH2 0xC7 PUSH2 0x1183 PUSH1 0x7 PUSH2 0x111B PUSH2 0xB87 JUMP JUMPDEST SWAP5 PUSH2 0x1128 PUSH2 0x5D5 DUP3 PUSH2 0x58C JUMP JUMPDEST PUSH2 0x1137 PUSH2 0x5E8 PUSH1 0x1 DUP4 ADD PUSH2 0x58C JUMP JUMPDEST PUSH2 0x114D PUSH2 0x1146 PUSH1 0x2 DUP4 ADD PUSH2 0x5B7 JUMP JUMPDEST PUSH1 0x40 DUP9 ADD MSTORE JUMP JUMPDEST PUSH2 0x1167 PUSH2 0x115E PUSH1 0x5 DUP4 ADD SLOAD PUSH1 0xFF AND SWAP1 JUMP JUMPDEST ISZERO ISZERO PUSH1 0x60 DUP9 ADD MSTORE JUMP JUMPDEST PUSH2 0x117D PUSH2 0x1176 PUSH1 0x6 DUP4 ADD PUSH2 0x58C JUMP JUMPDEST PUSH1 0x80 DUP9 ADD MSTORE JUMP JUMPDEST ADD PUSH2 0x603 JUMP JUMPDEST PUSH1 0xA0 DUP5 ADD MSTORE JUMP JUMPDEST PUSH2 0x1CA SWAP1 PUSH2 0x110A JUMP JUMPDEST SWAP1 PUSH2 0x119C DUP3 SLOAD SWAP1 JUMP JUMPDEST PUSH2 0x11A5 DUP2 PUSH2 0x10FD JUMP JUMPDEST SWAP3 PUSH2 0x11B9 PUSH1 0x20 DUP6 ADD SWAP2 PUSH1 0x0 MSTORE PUSH1 0x20 PUSH1 0x0 KECCAK256 SWAP1 JUMP JUMPDEST PUSH1 0x0 SWAP2 JUMPDEST DUP4 DUP4 LT PUSH2 0x11CA JUMPI POP POP POP POP JUMP JUMPDEST PUSH1 0x8 PUSH1 0x20 PUSH1 0x1 SWAP3 PUSH2 0x11DA DUP6 PUSH2 0x118A JUMP JUMPDEST DUP2 MSTORE ADD SWAP3 ADD SWAP3 ADD SWAP2 SWAP1 PUSH2 0x11BD JUMP JUMPDEST PUSH2 0x1CA SWAP1 PUSH2 0x1193 JUMP JUMPDEST PUSH2 0x1CA PUSH1 0x1 PUSH2 0x11E8 JUMP JUMPDEST SWAP3 SWAP1 PUSH1 0x7 SWAP1 PUSH2 0x122F PUSH2 0x1235 SWAP5 PUSH2 0x1226 PUSH2 0x121C PUSH2 0x1218 DUP10 PUSH1 0x1 PUSH2 0x47E JUMP JUMPDEST POP SWAP1 JUMP JUMPDEST SWAP4 PUSH1 0x5 DUP6 ADD PUSH2 0xDC8 JUMP JUMPDEST PUSH1 0x6 DUP4 ADD PUSH2 0xD6E JUMP JUMPDEST ADD PUSH2 0xDED JUMP JUMPDEST PUSH2 0x1297 PUSH32 0x82E047AF96F6B7E5A52EA238AEE0CA4188211301535DDF1FE126E140DF6421B4 SWAP2 PUSH2 0x1263 PUSH1 0x40 MLOAD SWAP1 JUMP JUMPDEST SWAP2 DUP3 SWAP2 DUP3 SWAP1 DUP2 MSTORE PUSH1 0x40 PUSH1 0x20 DUP3 ADD DUP2 SWAP1 MSTORE PUSH1 0xF SWAP1 DUP3 ADD MSTORE PUSH15 0x414354494F4E5F434F4E4649524D45 PUSH1 0x88 SHL PUSH1 0x60 DUP3 ADD MSTORE PUSH1 0x80 ADD SWAP1 JUMP JUMPDEST SUB SWAP1 LOG1 JUMP JUMPDEST ISZERO PUSH2 0x12A3 JUMPI JUMP JUMPDEST PUSH1 0x40 MLOAD PUSH3 0x461BCD PUSH1 0xE5 SHL DUP2 MSTORE PUSH1 0x20 PUSH1 0x4 DUP3 ADD MSTORE PUSH1 0x19 PUSH1 0x24 DUP3 ADD MSTORE PUSH32 0x46697273746E616D652063616E6E6F7420626520656D70747900000000000000 PUSH1 0x44 DUP3 ADD MSTORE PUSH1 0x64 SWAP1 REVERT JUMPDEST ISZERO PUSH2 0x12EF JUMPI JUMP JUMPDEST PUSH1 0x40 MLOAD PUSH3 0x461BCD PUSH1 0xE5 SHL DUP2 MSTORE PUSH1 0x20 PUSH1 0x4 DUP3 ADD MSTORE PUSH1 0x18 PUSH1 0x24 DUP3 ADD MSTORE PUSH32 0x4C6173746E616D652063616E6E6F7420626520656D7074790000000000000000 PUSH1 0x44 DUP3 ADD MSTORE PUSH1 0x64 SWAP1 REVERT JUMPDEST ISZERO PUSH2 0x133B JUMPI JUMP JUMPDEST PUSH1 0x40 MLOAD PUSH3 0x461BCD PUSH1 0xE5 SHL DUP2 MSTORE PUSH1 0x20 PUSH1 0x4 DUP3 ADD MSTORE PUSH1 0x14 PUSH1 0x24 DUP3 ADD MSTORE PUSH20 0x796561722063616E6E6F7420626520656D707479 PUSH1 0x60 SHL PUSH1 0x44 DUP3 ADD MSTORE PUSH1 0x64 SWAP1 REVERT JUMPDEST SWAP3 SWAP4 PUSH2 0x1297 SWAP3 SWAP6 SWAP2 SWAP5 PUSH2 0x1474 PUSH2 0x138D PUSH2 0xDDF DUP9 SWAP1 JUMP JUMPDEST PUSH2 0x13A9 PUSH1 0x0 SWAP2 PUSH2 0x13A3 PUSH2 0x139F DUP5 PUSH2 0xA16 JUMP JUMPDEST SWAP2 SWAP1 JUMP JUMPDEST GT PUSH2 0x129C JUMP JUMPDEST PUSH2 0x13C6 PUSH2 0x13B4 DUP11 MLOAD SWAP1 JUMP JUMPDEST PUSH2 0x13C0 PUSH2 0x139F DUP5 PUSH2 0xA16 JUMP JUMPDEST GT PUSH2 0x12E8 JUMP JUMPDEST PUSH2 0x13E3 PUSH2 0x13D1 DUP5 MLOAD SWAP1 JUMP JUMPDEST PUSH2 0x13DD PUSH2 0x139F DUP5 PUSH2 0xA16 JUMP JUMPDEST GT PUSH2 0xABB JUMP JUMPDEST PUSH2 0x1400 PUSH2 0x13EE DUP6 MLOAD SWAP1 JUMP JUMPDEST PUSH2 0x13FA PUSH2 0x139F DUP5 PUSH2 0xA16 JUMP JUMPDEST GT PUSH2 0xB00 JUMP JUMPDEST PUSH2 0x141D PUSH2 0x140B DUP7 MLOAD SWAP1 JUMP JUMPDEST PUSH2 0x1417 PUSH2 0x139F DUP5 PUSH2 0xA16 JUMP JUMPDEST GT PUSH2 0x1334 JUMP JUMPDEST PUSH1 0x2 PUSH2 0x1427 PUSH2 0x5AD JUMP JUMPDEST SWAP2 PUSH2 0x1432 DUP6 DUP3 DUP6 ADD MSTORE JUMP JUMPDEST PUSH2 0x143D DUP7 PUSH1 0x20 DUP6 ADD MSTORE JUMP JUMPDEST PUSH2 0x1448 DUP8 PUSH1 0x40 DUP6 ADD MSTORE JUMP JUMPDEST PUSH2 0x146E DUP12 PUSH1 0x1 PUSH2 0x1467 DUP14 PUSH2 0x145F PUSH2 0x1218 DUP16 DUP6 PUSH2 0x47E JUMP JUMPDEST SWAP6 DUP7 ADD PUSH2 0xD6E JUMP JUMPDEST DUP4 ADD PUSH2 0xD6E JUMP JUMPDEST ADD PUSH2 0xDB5 JUMP JUMPDEST PUSH32 0x7805D5A30B55D3F171BAC6EDBC08F1EC7FF173B3A037A9835B57F9EA38D01C6D SWAP7 PUSH2 0x149F PUSH1 0x40 MLOAD SWAP1 JUMP JUMPDEST SWAP7 DUP8 SWAP7 DUP8 PUSH2 0xEF7 JUMP JUMPDEST SWAP1 PUSH2 0x14BB SWAP1 PUSH1 0x0 NOT SWAP1 PUSH1 0x20 SUB PUSH1 0x8 MUL SHR SWAP1 JUMP JUMPDEST DUP2 SLOAD AND SWAP1 SSTORE JUMP JUMPDEST SWAP1 PUSH1 0x0 SWAP2 PUSH2 0x14E0 PUSH2 0x14D8 DUP3 PUSH1 0x0 MSTORE PUSH1 0x20 PUSH1 0x0 KECCAK256 SWAP1 JUMP JUMPDEST SWAP3 DUP4 SLOAD PUSH2 0xC89 JUMP JUMPDEST SWAP1 SSTORE SSTORE JUMP JUMPDEST SWAP2 SWAP3 SWAP1 PUSH1 0x20 DUP3 LT ISZERO PUSH2 0x153D JUMPI PUSH1 0x1F DUP5 GT PUSH1 0x1 EQ PUSH2 0x1507 JUMPI PUSH2 0xC0C SWAP3 SWAP4 POP PUSH2 0xC89 JUMP JUMPDEST POP SWAP1 PUSH2 0x1538 PUSH2 0xC7 SWAP4 PUSH1 0x1 PUSH2 0x152F PUSH2 0x1524 DUP6 PUSH1 0x0 MSTORE PUSH1 0x20 PUSH1 0x0 KECCAK256 SWAP1 JUMP JUMPDEST SWAP3 PUSH1 0x1F PUSH1 0x20 SWAP2 ADD DIV SWAP1 JUMP JUMPDEST DUP3 ADD SWAP2 ADD PUSH2 0xC1C JUMP JUMPDEST PUSH2 0x14C2 JUMP JUMPDEST POP PUSH2 0x1576 DUP3 SWAP4 PUSH2 0x1554 PUSH1 0x1 SWAP5 PUSH1 0x0 MSTORE PUSH1 0x20 PUSH1 0x0 KECCAK256 SWAP1 JUMP JUMPDEST PUSH2 0xC78 PUSH1 0x20 PUSH1 0x1F DUP7 ADD DIV DUP3 ADD SWAP3 PUSH1 0x1F DUP7 AND DUP1 PUSH2 0x157E JUMPI JUMPDEST POP PUSH1 0x1F PUSH1 0x20 SWAP2 ADD DIV SWAP1 JUMP JUMPDEST PUSH1 0x2 MUL OR SWAP1 SSTORE JUMP JUMPDEST PUSH2 0x158A SWAP1 DUP9 DUP7 SUB PUSH2 0x14A8 JUMP JUMPDEST CODESIZE PUSH2 0x156B JUMP JUMPDEST SWAP3 SWAP1 SWAP2 PUSH1 0x20 SWAP1 PUSH1 0x1 PUSH1 0x40 SHL DUP4 GT PUSH2 0x15E5 JUMPI JUMPDEST LT ISZERO PUSH2 0x15D9 JUMPI PUSH1 0x20 DUP2 LT ISZERO PUSH2 0x15BA JUMPI PUSH2 0xC0C SWAP2 PUSH2 0xC89 JUMP JUMPDEST PUSH1 0x1 SWAP2 PUSH1 0xFF NOT AND PUSH2 0x15D0 DUP5 PUSH1 0x0 MSTORE PUSH1 0x20 PUSH1 0x0 KECCAK256 SWAP1 JUMP JUMPDEST SSTORE PUSH1 0x2 MUL ADD SWAP1 SSTORE JUMP JUMPDEST PUSH1 0x1 SWAP2 POP PUSH1 0x2 MUL ADD SWAP1 SSTORE JUMP JUMPDEST PUSH2 0x15ED PUSH2 0xE8 JUMP JUMPDEST PUSH2 0x15A2 JUMP JUMPDEST SWAP1 DUP2 SLOAD PUSH2 0x15FE DUP2 PUSH2 0x4D1 JUMP JUMPDEST SWAP1 DUP2 DUP4 GT PUSH2 0x1627 JUMPI JUMPDEST DUP2 DUP4 LT PUSH2 0x1615 JUMPI JUMPDEST POP POP POP POP JUMP JUMPDEST PUSH2 0x161E SWAP4 PUSH2 0x14E5 JUMP JUMPDEST CODESIZE DUP1 DUP1 DUP1 PUSH2 0x160F JUMP JUMPDEST PUSH2 0x1633 DUP4 DUP4 DUP4 DUP8 PUSH2 0x1590 JUMP JUMPDEST PUSH2 0x1607 JUMP JUMPDEST PUSH1 0x0 PUSH2 0xC7 SWAP2 PUSH2 0x15F2 JUMP JUMPDEST PUSH2 0xC7 SWAP2 ISZERO PUSH2 0x1638 JUMPI PUSH2 0x1654 PUSH2 0xBC2 JUMP JUMPDEST PUSH2 0x1638 JUMP JUMPDEST PUSH1 0x0 PUSH1 0x2 PUSH2 0xC7 SWAP3 PUSH2 0x166D DUP4 DUP1 DUP4 ADD PUSH2 0x1643 JUMP JUMPDEST PUSH2 0x167A DUP4 PUSH1 0x1 DUP4 ADD PUSH2 0x1643 JUMP JUMPDEST ADD PUSH2 0x1643 JUMP JUMPDEST PUSH2 0xC7 SWAP2 ISZERO PUSH2 0x1659 JUMPI PUSH2 0x1691 PUSH2 0xBC2 JUMP JUMPDEST PUSH2 0x1659 JUMP JUMPDEST PUSH1 0x0 PUSH1 0x7 PUSH2 0xC7 SWAP3 PUSH2 0x16AA DUP4 DUP1 DUP4 ADD PUSH2 0x1643 JUMP JUMPDEST PUSH2 0x16B7 DUP4 PUSH1 0x1 DUP4 ADD PUSH2 0x1643 JUMP JUMPDEST PUSH2 0x16C4 DUP4 PUSH1 0x2 DUP4 ADD PUSH2 0x1680 JUMP JUMPDEST DUP3 PUSH1 0x5 DUP3 ADD SSTORE PUSH2 0x16D7 DUP4 PUSH1 0x6 DUP4 ADD PUSH2 0x1643 JUMP JUMPDEST ADD PUSH2 0xC10 JUMP JUMPDEST PUSH2 0xC7 SWAP2 ISZERO PUSH2 0x1696 JUMPI PUSH2 0x16EE PUSH2 0xBC2 JUMP JUMPDEST PUSH2 0x1696 JUMP JUMPDEST PUSH2 0x1701 PUSH2 0x1707 SWAP2 PUSH1 0x1 PUSH2 0x47E JUMP JUMPDEST SWAP1 PUSH2 0x16DD JUMP JUMPDEST PUSH32 0xA6FB241657C3C18FC80B9EAD1A3FF49713B698AFDF880800D2FC42F10098CD53 PUSH2 0x1731 PUSH1 0x40 MLOAD SWAP1 JUMP JUMPDEST PUSH1 0x20 DUP1 DUP3 MSTORE PUSH1 0xF SWAP1 DUP3 ADD MSTORE PUSH15 0x414354494F4E5F434F4E4649524D45 PUSH1 0x88 SHL PUSH1 0x40 DUP3 ADD MSTORE DUP1 PUSH1 0x60 DUP2 ADD PUSH2 0x1297 JUMP INVALID LOG2 PUSH5 0x6970667358 0x22 SLT KECCAK256 DUP8 BALANCE 0xD2 0x23 SWAP2 CODESIZE SWAP13 PUSH10 0xF812BC7F3BDA8CABE31 0xB1 0x2A 0xA8 0xDE PUSH22 0x45168614D4ADFA845864736F6C634300081100330000 "},"methodIdentifiers":{"Students(uint256)":"57c8d71d","createStudent(string,string,string,string,string)":"8ef4b9d3","deleteStudent(uint256)":"b645307d","getAallStudents()":"0352e27c","isissuedcertificate(uint256,bool,string,int256)":"00bb032a","students(address)":"a6c807a9","updateStudent(uint256,string,string,string,string,string)":"728e2274"}}}}}