{"@openzeppelin/contracts/token/ERC721/ERC721.sol":{"ERC721":{"abi":[{"inputs":[{"internalType":"string","name":"name_","type":"string"},{"internalType":"string","name":"symbol_","type":"string"}],"stateMutability":"nonpayable","type":"constructor"},{"anonymous":false,"inputs":[{"indexed":true,"internalType":"address","name":"owner","type":"address"},{"indexed":true,"internalType":"address","name":"approved","type":"address"},{"indexed":true,"internalType":"uint256","name":"tokenId","type":"uint256"}],"name":"Approval","type":"event"},{"anonymous":false,"inputs":[{"indexed":true,"internalType":"address","name":"owner","type":"address"},{"indexed":true,"internalType":"address","name":"operator","type":"address"},{"indexed":false,"internalType":"bool","name":"approved","type":"bool"}],"name":"ApprovalForAll","type":"event"},{"anonymous":false,"inputs":[{"indexed":true,"internalType":"address","name":"from","type":"address"},{"indexed":true,"internalType":"address","name":"to","type":"address"},{"indexed":true,"internalType":"uint256","name":"tokenId","type":"uint256"}],"name":"Transfer","type":"event"},{"inputs":[{"internalType":"address","name":"to","type":"address"},{"internalType":"uint256","name":"tokenId","type":"uint256"}],"name":"approve","outputs":[],"stateMutability":"nonpayable","type":"function"},{"inputs":[{"internalType":"address","name":"owner","type":"address"}],"name":"balanceOf","outputs":[{"internalType":"uint256","name":"","type":"uint256"}],"stateMutability":"view","type":"function"},{"inputs":[{"internalType":"uint256","name":"tokenId","type":"uint256"}],"name":"getApproved","outputs":[{"internalType":"address","name":"","type":"address"}],"stateMutability":"view","type":"function"},{"inputs":[{"internalType":"address","name":"owner","type":"address"},{"internalType":"address","name":"operator","type":"address"}],"name":"isApprovedForAll","outputs":[{"internalType":"bool","name":"","type":"bool"}],"stateMutability":"view","type":"function"},{"inputs":[],"name":"name","outputs":[{"internalType":"string","name":"","type":"string"}],"stateMutability":"view","type":"function"},{"inputs":[{"internalType":"uint256","name":"tokenId","type":"uint256"}],"name":"ownerOf","outputs":[{"internalType":"address","name":"","type":"address"}],"stateMutability":"view","type":"function"},{"inputs":[{"internalType":"address","name":"from","type":"address"},{"internalType":"address","name":"to","type":"address"},{"internalType":"uint256","name":"tokenId","type":"uint256"}],"name":"safeTransferFrom","outputs":[],"stateMutability":"nonpayable","type":"function"},{"inputs":[{"internalType":"address","name":"from","type":"address"},{"internalType":"address","name":"to","type":"address"},{"internalType":"uint256","name":"tokenId","type":"uint256"},{"internalType":"bytes","name":"data","type":"bytes"}],"name":"safeTransferFrom","outputs":[],"stateMutability":"nonpayable","type":"function"},{"inputs":[{"internalType":"address","name":"operator","type":"address"},{"internalType":"bool","name":"approved","type":"bool"}],"name":"setApprovalForAll","outputs":[],"stateMutability":"nonpayable","type":"function"},{"inputs":[{"internalType":"bytes4","name":"interfaceId","type":"bytes4"}],"name":"supportsInterface","outputs":[{"internalType":"bool","name":"","type":"bool"}],"stateMutability":"view","type":"function"},{"inputs":[],"name":"symbol","outputs":[{"internalType":"string","name":"","type":"string"}],"stateMutability":"view","type":"function"},{"inputs":[{"internalType":"uint256","name":"tokenId","type":"uint256"}],"name":"tokenURI","outputs":[{"internalType":"string","name":"","type":"string"}],"stateMutability":"view","type":"function"},{"inputs":[{"internalType":"address","name":"from","type":"address"},{"internalType":"address","name":"to","type":"address"},{"internalType":"uint256","name":"tokenId","type":"uint256"}],"name":"transferFrom","outputs":[],"stateMutability":"nonpayable","type":"function"}],"evm":{"bytecode":{"linkReferences":{},"object":"60806040523462000032575b6200002062000019620001ef565b9062000426565b60405161162d62000441823961162d90f35b6200003b600080fd5b6200000b565b50634e487b7160e01b600052604160045260246000fd5b90601f01601f191681019081106001600160401b038211176200007a57604052565b6200008462000041565b604052565b90620000a06200009860405190565b928362000058565b565b602090620000c3906001600160401b038111620000c757601f01601f191690565b0190565b620000d162000041565b601f01601f191690565b60005b838110620000ef5750506000910152565b8181015183820152602001620000de565b929190620000a0916200011d6200011783620000a2565b62000089565b9482865260208601918382011115620000db5762000139600080fd5b620000db565b906200015e9181601f8201121562000161575b60208151910162000100565b90565b6200016a600080fd5b62000152565b91906200015e90604084820312620001e0575b8351620001a49082906001600160401b038111620001d1575b86016200013f565b602085015190946001600160401b038211620001c2575b016200013f565b620001cb600080fd5b620001bb565b620001da600080fd5b6200019c565b620001e9600080fd5b62000183565b6200021262001a6e80380380620002068162000089565b92833981019062000170565b9091565b50634e487b7160e01b600052602260045260246000fd5b906001600283049216801562000254575b60208310146200024a57565b620000a062000216565b91607f16916200023e565b6200015e6200015e6200015e9290565b9190620002846200015e620002a0936200025f565b9083549160001960089290920291821b911b9181191691161790565b9055565b620000a0916000916200026f565b818110620002be575050565b80620002ce6000600193620002a4565b01620002b2565b9190601f8111620002e557505050565b620002f9620000a093600052602060002090565b906020601f8401819004830193106200031d575b6020601f909101040190620002b2565b90915081906200030d565b9062000332815190565b906001600160401b0382116200040a575b6200035b826200035485546200022d565b85620002d5565b602090601f83116001146200039a57620002a09291600091836200038e575b5050600019600883021c1916906002021790565b0151905038806200037a565b601f19831691620003b085600052602060002090565b9260005b818110620003f157509160029391856001969410620003d7575b50505002019055565b01516000196008601f8516021c19169055388080620003ce565b91936020600181928787015181550195019201620003b4565b6200041462000041565b62000343565b90620000a09162000328565b9062000438620000a09260006200041a565b60016200041a56fe60806040526004361015610018575b610016600080fd5b005b60003560e01c806301ffc9a71461011c57806306fdde0314610113578063081812fc1461010a578063095ea7b31461010157806323b872dd146100f857806342842e0e146100ef5780636352211e146100e657806370a08231146100dd57806395d89b41146100d4578063a22cb465146100cb578063b88d4fde146100c2578063c87b56dd146100b95763e985e9c50361000e576100b46106e5565b61000e565b506100b461068a565b506100b461065f565b506100b46104df565b506100b461046f565b506100b4610435565b506100b46103ee565b506100b46103c6565b506100b461039e565b506100b4610333565b506100b46102a2565b506100b4610230565b506100b4610170565b600080fd5b6001600160e01b031981165b0361012557565b9050359061014a8261012a565b565b90610160916020818303126101635761013d565b90565b61016b600080fd5b61013d565b50346101a4575b6101a061018d61018836600461014c565b610710565b6040515b91829182901515815260200190565b0390f35b6101ac600080fd5b610177565b60009103126101bc57565b61014a600080fd5b60005b8381106101d75750506000910152565b81810151838201526020016101c7565b601f01601f191690565b6102126101e760209361021b93610206815190565b80835293849260200190565b958691016101c4565b0190565b6020808252610160929101906101f1565b5034610259575b6102423660046101b1565b6101a061024d6109d1565b6040519182918261021f565b610261600080fd5b610237565b80610136565b9050359061014a82610266565b90610160916020818303121561026c57610291600080fd5b61026c565b6001600160a01b031690565b50346102d9575b6101a06102bf6102ba366004610279565b610c04565b604051918291826001600160a01b03909116815260200190565b6102e1600080fd5b6102a9565b6001600160a01b038116610136565b9050359061014a826102e6565b919061016090604084820312610326575b61031d81856102f5565b9360200161026c565b61032e600080fd5b610313565b5034610353575b61034e610348366004610302565b90610b86565b604051005b61035b600080fd5b61033a565b9091606082840312610391575b61016061037a84846102f5565b9361038881602086016102f5565b9360400161026c565b610399600080fd5b61036d565b50346103b9575b61034e6103b3366004610360565b91610cbd565b6103c1600080fd5b6103a5565b50346103e1575b61034e6103db366004610360565b91610cda565b6103e9600080fd5b6103cd565b503461040b575b6101a06102bf610406366004610279565b6108a7565b610413600080fd5b6103f5565b9061016091602081830312156102f557610430600080fd5b6102f5565b5034610462575b6101a061045261044d366004610418565b61081e565b6040519182918290815260200190565b61046a600080fd5b61043c565b503461048c575b6104813660046101b1565b6101a061024d6109db565b610494600080fd5b610476565b801515610136565b9050359061014a82610499565b9190610160906040848203126104d2575b6104c981856102f5565b936020016104a1565b6104da600080fd5b6104bf565b50346104fa575b61034e6104f43660046104ae565b90610c29565b610502600080fd5b6104e6565b50634e487b7160e01b600052604160045260246000fd5b90601f01601f1916810190811067ffffffffffffffff82111761054057604052565b610548610507565b604052565b9061014a61055a60405190565b928361051e565b61021b60209167ffffffffffffffff811161058057601f01601f191690565b6101e7610507565b90826000939282370152565b92919061014a916105ac6105a783610561565b61054d565b9482865260208601918382011115610588576105c6600080fd5b610588565b906101609181601f820112156105e7575b602081359101610594565b6105ef600080fd5b6105dc565b608081830312610652575b61060982826102f5565b9261016061061a84602085016102f5565b93610628816040860161026c565b9360608101359067ffffffffffffffff8211610645575b016105cb565b61064d600080fd5b61063f565b61065a600080fd5b6105ff565b503461067d575b61034e6106743660046105f4565b92919091610cea565b610685600080fd5b610666565b50346106a7575b6101a061024d6106a2366004610279565b610a4b565b6106af600080fd5b610691565b9190610160906040848203126106d8575b6106cf81856102f5565b936020016102f5565b6106e0600080fd5b6106c5565b5034610703575b6101a061018d6106fd3660046106b4565b90610c34565b61070b600080fd5b6106ec565b6380ac58cd60e01b6001600160e01b0319821614908115610740575b8115610736575090565b6101609150611443565b6001600160e01b03198116635b5e139f60e01b14915061072c565b6102966101606101609290565b6101609061075b565b1561077857565b60405162461bcd60e51b815260206004820152602960248201527f4552433732313a2061646472657373207a65726f206973206e6f7420612076616044820152683634b21037bbb732b960b91b6064820152608490fd5b61016090610296906001600160a01b031682565b610160906107cf565b610160906107e3565b906107ff906107ec565b600052602052604060002090565b6101609081565b610160905461080d565b6108566101609161082d600090565b5061084f61083e6102966000610768565b6001600160a01b0383161415610771565b60036107f5565b610814565b1561086257565b60405162461bcd60e51b815260206004820152601860248201527f4552433732313a20696e76616c696420746f6b656e20494400000000000000006044820152606490fd5b6108b49060005b50610d8a565b6101606108c46102966000610768565b6001600160a01b038316141561085b565b50634e487b7160e01b600052602260045260246000fd5b906001600283049216801561090f575b602083101461090757565b61014a6108d5565b91607f16916108fc565b8054600093929161093661092c836108ec565b8085529360200190565b9160018116908115610988575060011461094f57505050565b6109629192939450600052602060002090565b916000925b8184106109745750500190565b805484840152602090930192600101610967565b92949550505060ff1916825215156020020190565b9061016091610919565b9061014a6109c1926109b860405190565b9384809261099d565b038361051e565b610160906109a7565b61016060006109c8565b61016060016109c8565b6101606101606101609290565b906109ff6105a783610561565b918252565b61016060006109f2565b610160610a04565b61021b610a2e92602092610a28815190565b94859290565b938491016101c4565b610a45906101609392610a16565b90610a16565b610a54816111a7565b610a5c610ab6565b8051610a6f610a6b60006109e5565b9190565b1115610aac57610160610aa091610a88610160946113b7565b90610a9260405190565b938492602084019283610a37565b9081038252038261051e565b5050610160610a0e565b610160610a0e565b15610ac557565b60405162461bcd60e51b815260206004820152602160248201527f4552433732313a20617070726f76616c20746f2063757272656e74206f776e656044820152603960f91b6064820152608490fd5b15610b1b57565b60405162461bcd60e51b815260206004820152603d60248201527f4552433732313a20617070726f76652063616c6c6572206973206e6f7420746f60448201527f6b656e206f776e6572206f7220617070726f76656420666f7220616c6c0000006064820152608490fd5b9061014a91610bd1610b97836108a7565b610bb56001600160a01b0382166001600160a01b0385161415610abe565b336001600160a01b0382168114918215610bd6575b5050610b14565b611076565b610be09250610c34565b3880610bca565b906107ff906109e5565b61016090610296565b6101609054610bf1565b610c2461016091610c13600090565b50610c1d816111a7565b6004610be7565b610bfa565b61014a91903361112c565b61016091610c4f610c5492610c47600090565b5060056107f5565b6107f5565b5460ff1690565b15610c6257565b60405162461bcd60e51b815260206004820152602d60248201527f4552433732313a2063616c6c6572206973206e6f7420746f6b656e206f776e6560448201526c1c881bdc88185c1c1c9bdd9959609a1b6064820152608490fd5b61014a929190610cd5610cd08433610da1565b610c5b565b610f59565b909161014a92610ce8610a0e565b925b61014a93929190610cfe610cd08433610da1565b610d6b565b15610d0a57565b6040515b62461bcd60e51b815260206004820152603260248201527f4552433732313a207472616e7366657220746f206e6f6e20455243373231526560448201527131b2b4bb32b91034b6b83632b6b2b73a32b960711b6064820152608490fd5b9161014a9391610d8593610d80838383610f59565b611252565b610d03565b610c2461016091610d99600090565b506002610be7565b610daa826108a7565b916001600160a01b0383166001600160a01b03831614928315610e04575b508215610dd457505090565b610e00919250610de6610df391610c04565b926001600160a01b031690565b916001600160a01b031690565b1490565b610e119193508290610c34565b9138610dc8565b15610e1f57565b60405162461bcd60e51b815260206004820152602560248201527f4552433732313a207472616e736665722066726f6d20696e636f72726563742060448201526437bbb732b960d91b6064820152608490fd5b15610e7957565b60405162461bcd60e51b8152602060048201526024808201527f4552433732313a207472616e7366657220746f20746865207a65726f206164646044820152637265737360e01b6064820152608490fd5b916001600160a01b0360089290920291821b911b5b9181191691161790565b9190610efa610160610f02936107ec565b908354610eca565b9055565b61014a91600091610ee9565b9060001990610edf565b90610f2c610160610f02926109e5565b8254610f12565b906001600160a01b0390610edf565b90610f52610160610f02926107ec565b8254610f33565b9190610f7f610f67836108a7565b610f796001600160a01b038616610df3565b14610e18565b610fd26000610fa4610f9361029683610768565b6001600160a01b0385161415610e72565b610fc2610fb0856108a7565b610f796001600160a01b038816610df3565b610fcd846004610be7565b610f06565b611016610fdf60016109e5565b61100661100c846003610c4f610ff58a836107f5565b6110068761100283610814565b0390565b90610f1c565b9161021b83610814565b61102a81611025846002610be7565b610f42565b61106661106061105a7fddf252ad1be2c89b69c2b068fc378daa952ba7f163c4a11628f55a4df523b3ef956107ec565b926107ec565b926109e5565b9261107060405190565b600090a4565b9061108682611025836004610be7565b61108f816108a7565b9161106661106061105a7f8c5be1e5ebec7d5bd14f71427d1e84f3dd0314c0f7b2291e5b200ac8c7c3b925956107ec565b156110c757565b60405162461bcd60e51b815260206004820152601960248201527f4552433732313a20617070726f766520746f2063616c6c6572000000000000006044820152606490fd5b9060ff90610edf565b90611125610160610f0292151590565b825461110c565b61114a6001600160a01b0383166001600160a01b03831614156110c0565b6111628361115d84610c4f8560056107f5565b611115565b6111a26111986111927f17307eab39ab6107e8899845ad3d59bd9653f200f220920489ca2b5937696c31936107ec565b936107ec565b9361019160405190565b0390a3565b6111b361014a916111b8565b61085b565b6111c39060006108ae565b6111d3610df36102966000610768565b141590565b9050519061014a8261012a565b9061016091602081830312156111d8576111fd600080fd5b6111d8565b6001600160a01b039182168152911660208201526040810191909152608060608201819052610160929101906101f1565b3d1561124d576112423d6109f2565b903d6000602084013e565b606090565b9190939261125e600090565b9461126881611350565b1561134657906112af6000611287611282602096956107ec565b6107ec565b926112ba63150b7a02916112983390565b966112a260405190565b998a988997889660e01b90565b865260048601611202565b03925af160009181611316575b506112f957506112d5611233565b80516112e4610a6b60006109e5565b036112f157604051610d0e565b805190602001fd5b909150610e00630a85bd0160e11b5b916001600160e01b03191690565b61133891925060203d811161133f575b611330818361051e565b8101906111e5565b90386112c7565b503d611326565b5060019450505050565b3b61135e610a6b60006109e5565b1190565b369037565b9061014a61137d611377846109f2565b93610561565b601f190160208401611362565b50634e487b7160e01b600052601260045260246000fd5b81156113ab570490565b6113b361138a565b0490565b6113c081611453565b906113d060019261021b846109e5565b91806113db84611367565b936020018401905b6113ee575b50505090565b6114229060001901926f181899199a1a9b1b9c1cb0b131b232b360811b600a82061a845361141c600a6109e5565b906113a1565b9081611431610a6b60006109e5565b1461143e579091816113e3565b6113e8565b610e006301ffc9a760e01b611308565b61145d60006109e5565b907a184f03e93ff9f4daa797ed6e38ed64bf6a1f010000000000000000611483816109e5565b8210156115d5575b506d04ee2d6d415b85acef81000000006114a4816109e5565b8210156115b3575b50662386f26fc100006114be816109e5565b821015611591575b506305f5e1006114d5816109e5565b82101561156f575b506127106114ea816109e5565b82101561154d575b5060646114fe816109e5565b82101561152b575b50611514610a6b600a6109e5565b101561151d5790565b6101609061021b60016109e5565b6115469161141c61153b926109e5565b9161021b60026109e5565b9038611506565b6115689161141c61155d926109e5565b9161021b60046109e5565b90386114f2565b61158a9161141c61157f926109e5565b9161021b60086109e5565b90386114dd565b6115ac9161141c6115a1926109e5565b9161021b60106109e5565b90386114c6565b6115ce9161141c6115c3926109e5565b9161021b60206109e5565b90386114ac565b6115f09161141c6115e5926109e5565b9161021b60406109e5565b903861148b56fea2646970667358221220fffef1f396a48361908e99d2586aefaf8c1ce6b9c8fcd2dc015791dee1b39ec364736f6c63430008110033","opcodes":"PUSH1 0x80 PUSH1 0x40 MSTORE CALLVALUE PUSH3 0x32 JUMPI JUMPDEST PUSH3 0x20 PUSH3 0x19 PUSH3 0x1EF JUMP JUMPDEST SWAP1 PUSH3 0x426 JUMP JUMPDEST PUSH1 0x40 MLOAD PUSH2 0x162D PUSH3 0x441 DUP3 CODECOPY PUSH2 0x162D SWAP1 RETURN JUMPDEST PUSH3 0x3B PUSH1 0x0 DUP1 REVERT JUMPDEST PUSH3 0xB JUMP JUMPDEST POP PUSH4 0x4E487B71 PUSH1 0xE0 SHL PUSH1 0x0 MSTORE PUSH1 0x41 PUSH1 0x4 MSTORE PUSH1 0x24 PUSH1 0x0 REVERT JUMPDEST SWAP1 PUSH1 0x1F ADD PUSH1 0x1F NOT AND DUP2 ADD SWAP1 DUP2 LT PUSH1 0x1 PUSH1 0x1 PUSH1 0x40 SHL SUB DUP3 GT OR PUSH3 0x7A JUMPI PUSH1 0x40 MSTORE JUMP JUMPDEST PUSH3 0x84 PUSH3 0x41 JUMP JUMPDEST PUSH1 0x40 MSTORE JUMP JUMPDEST SWAP1 PUSH3 0xA0 PUSH3 0x98 PUSH1 0x40 MLOAD SWAP1 JUMP JUMPDEST SWAP3 DUP4 PUSH3 0x58 JUMP JUMPDEST JUMP JUMPDEST PUSH1 0x20 SWAP1 PUSH3 0xC3 SWAP1 PUSH1 0x1 PUSH1 0x1 PUSH1 0x40 SHL SUB DUP2 GT PUSH3 0xC7 JUMPI PUSH1 0x1F ADD PUSH1 0x1F NOT AND SWAP1 JUMP JUMPDEST ADD SWAP1 JUMP JUMPDEST PUSH3 0xD1 PUSH3 0x41 JUMP JUMPDEST PUSH1 0x1F ADD PUSH1 0x1F NOT AND SWAP1 JUMP JUMPDEST PUSH1 0x0 JUMPDEST DUP4 DUP2 LT PUSH3 0xEF JUMPI POP POP PUSH1 0x0 SWAP2 ADD MSTORE JUMP JUMPDEST DUP2 DUP2 ADD MLOAD DUP4 DUP3 ADD MSTORE PUSH1 0x20 ADD PUSH3 0xDE JUMP JUMPDEST SWAP3 SWAP2 SWAP1 PUSH3 0xA0 SWAP2 PUSH3 0x11D PUSH3 0x117 DUP4 PUSH3 0xA2 JUMP JUMPDEST PUSH3 0x89 JUMP JUMPDEST SWAP5 DUP3 DUP7 MSTORE PUSH1 0x20 DUP7 ADD SWAP2 DUP4 DUP3 ADD GT ISZERO PUSH3 0xDB JUMPI PUSH3 0x139 PUSH1 0x0 DUP1 REVERT JUMPDEST PUSH3 0xDB JUMP JUMPDEST SWAP1 PUSH3 0x15E SWAP2 DUP2 PUSH1 0x1F DUP3 ADD SLT ISZERO PUSH3 0x161 JUMPI JUMPDEST PUSH1 0x20 DUP2 MLOAD SWAP2 ADD PUSH3 0x100 JUMP JUMPDEST SWAP1 JUMP JUMPDEST PUSH3 0x16A PUSH1 0x0 DUP1 REVERT JUMPDEST PUSH3 0x152 JUMP JUMPDEST SWAP2 SWAP1 PUSH3 0x15E SWAP1 PUSH1 0x40 DUP5 DUP3 SUB SLT PUSH3 0x1E0 JUMPI JUMPDEST DUP4 MLOAD PUSH3 0x1A4 SWAP1 DUP3 SWAP1 PUSH1 0x1 PUSH1 0x1 PUSH1 0x40 SHL SUB DUP2 GT PUSH3 0x1D1 JUMPI JUMPDEST DUP7 ADD PUSH3 0x13F JUMP JUMPDEST PUSH1 0x20 DUP6 ADD MLOAD SWAP1 SWAP5 PUSH1 0x1 PUSH1 0x1 PUSH1 0x40 SHL SUB DUP3 GT PUSH3 0x1C2 JUMPI JUMPDEST ADD PUSH3 0x13F JUMP JUMPDEST PUSH3 0x1CB PUSH1 0x0 DUP1 REVERT JUMPDEST PUSH3 0x1BB JUMP JUMPDEST PUSH3 0x1DA PUSH1 0x0 DUP1 REVERT JUMPDEST PUSH3 0x19C JUMP JUMPDEST PUSH3 0x1E9 PUSH1 0x0 DUP1 REVERT JUMPDEST PUSH3 0x183 JUMP JUMPDEST PUSH3 0x212 PUSH3 0x1A6E DUP1 CODESIZE SUB DUP1 PUSH3 0x206 DUP2 PUSH3 0x89 JUMP JUMPDEST SWAP3 DUP4 CODECOPY DUP2 ADD SWAP1 PUSH3 0x170 JUMP JUMPDEST SWAP1 SWAP2 JUMP JUMPDEST POP PUSH4 0x4E487B71 PUSH1 0xE0 SHL PUSH1 0x0 MSTORE PUSH1 0x22 PUSH1 0x4 MSTORE PUSH1 0x24 PUSH1 0x0 REVERT JUMPDEST SWAP1 PUSH1 0x1 PUSH1 0x2 DUP4 DIV SWAP3 AND DUP1 ISZERO PUSH3 0x254 JUMPI JUMPDEST PUSH1 0x20 DUP4 LT EQ PUSH3 0x24A JUMPI JUMP JUMPDEST PUSH3 0xA0 PUSH3 0x216 JUMP JUMPDEST SWAP2 PUSH1 0x7F AND SWAP2 PUSH3 0x23E JUMP JUMPDEST PUSH3 0x15E PUSH3 0x15E PUSH3 0x15E SWAP3 SWAP1 JUMP JUMPDEST SWAP2 SWAP1 PUSH3 0x284 PUSH3 0x15E PUSH3 0x2A0 SWAP4 PUSH3 0x25F JUMP JUMPDEST SWAP1 DUP4 SLOAD SWAP2 PUSH1 0x0 NOT PUSH1 0x8 SWAP3 SWAP1 SWAP3 MUL SWAP2 DUP3 SHL SWAP2 SHL SWAP2 DUP2 NOT AND SWAP2 AND OR SWAP1 JUMP JUMPDEST SWAP1 SSTORE JUMP JUMPDEST PUSH3 0xA0 SWAP2 PUSH1 0x0 SWAP2 PUSH3 0x26F JUMP JUMPDEST DUP2 DUP2 LT PUSH3 0x2BE JUMPI POP POP JUMP JUMPDEST DUP1 PUSH3 0x2CE PUSH1 0x0 PUSH1 0x1 SWAP4 PUSH3 0x2A4 JUMP JUMPDEST ADD PUSH3 0x2B2 JUMP JUMPDEST SWAP2 SWAP1 PUSH1 0x1F DUP2 GT PUSH3 0x2E5 JUMPI POP POP POP JUMP JUMPDEST PUSH3 0x2F9 PUSH3 0xA0 SWAP4 PUSH1 0x0 MSTORE PUSH1 0x20 PUSH1 0x0 KECCAK256 SWAP1 JUMP JUMPDEST SWAP1 PUSH1 0x20 PUSH1 0x1F DUP5 ADD DUP2 SWAP1 DIV DUP4 ADD SWAP4 LT PUSH3 0x31D JUMPI JUMPDEST PUSH1 0x20 PUSH1 0x1F SWAP1 SWAP2 ADD DIV ADD SWAP1 PUSH3 0x2B2 JUMP JUMPDEST SWAP1 SWAP2 POP DUP2 SWAP1 PUSH3 0x30D JUMP JUMPDEST SWAP1 PUSH3 0x332 DUP2 MLOAD SWAP1 JUMP JUMPDEST SWAP1 PUSH1 0x1 PUSH1 0x1 PUSH1 0x40 SHL SUB DUP3 GT PUSH3 0x40A JUMPI JUMPDEST PUSH3 0x35B DUP3 PUSH3 0x354 DUP6 SLOAD PUSH3 0x22D JUMP JUMPDEST DUP6 PUSH3 0x2D5 JUMP JUMPDEST PUSH1 0x20 SWAP1 PUSH1 0x1F DUP4 GT PUSH1 0x1 EQ PUSH3 0x39A JUMPI PUSH3 0x2A0 SWAP3 SWAP2 PUSH1 0x0 SWAP2 DUP4 PUSH3 0x38E JUMPI JUMPDEST POP POP PUSH1 0x0 NOT PUSH1 0x8 DUP4 MUL SHR NOT AND SWAP1 PUSH1 0x2 MUL OR SWAP1 JUMP JUMPDEST ADD MLOAD SWAP1 POP CODESIZE DUP1 PUSH3 0x37A JUMP JUMPDEST PUSH1 0x1F NOT DUP4 AND SWAP2 PUSH3 0x3B0 DUP6 PUSH1 0x0 MSTORE PUSH1 0x20 PUSH1 0x0 KECCAK256 SWAP1 JUMP JUMPDEST SWAP3 PUSH1 0x0 JUMPDEST DUP2 DUP2 LT PUSH3 0x3F1 JUMPI POP SWAP2 PUSH1 0x2 SWAP4 SWAP2 DUP6 PUSH1 0x1 SWAP7 SWAP5 LT PUSH3 0x3D7 JUMPI JUMPDEST POP POP POP MUL ADD SWAP1 SSTORE JUMP JUMPDEST ADD MLOAD PUSH1 0x0 NOT PUSH1 0x8 PUSH1 0x1F DUP6 AND MUL SHR NOT AND SWAP1 SSTORE CODESIZE DUP1 DUP1 PUSH3 0x3CE JUMP JUMPDEST SWAP2 SWAP4 PUSH1 0x20 PUSH1 0x1 DUP2 SWAP3 DUP8 DUP8 ADD MLOAD DUP2 SSTORE ADD SWAP6 ADD SWAP3 ADD PUSH3 0x3B4 JUMP JUMPDEST PUSH3 0x414 PUSH3 0x41 JUMP JUMPDEST PUSH3 0x343 JUMP JUMPDEST SWAP1 PUSH3 0xA0 SWAP2 PUSH3 0x328 JUMP JUMPDEST SWAP1 PUSH3 0x438 PUSH3 0xA0 SWAP3 PUSH1 0x0 PUSH3 0x41A JUMP JUMPDEST PUSH1 0x1 PUSH3 0x41A JUMP INVALID PUSH1 0x80 PUSH1 0x40 MSTORE PUSH1 0x4 CALLDATASIZE LT ISZERO PUSH2 0x18 JUMPI JUMPDEST PUSH2 0x16 PUSH1 0x0 DUP1 REVERT JUMPDEST STOP JUMPDEST PUSH1 0x0 CALLDATALOAD PUSH1 0xE0 SHR DUP1 PUSH4 0x1FFC9A7 EQ PUSH2 0x11C JUMPI DUP1 PUSH4 0x6FDDE03 EQ PUSH2 0x113 JUMPI DUP1 PUSH4 0x81812FC EQ PUSH2 0x10A JUMPI DUP1 PUSH4 0x95EA7B3 EQ PUSH2 0x101 JUMPI DUP1 PUSH4 0x23B872DD EQ PUSH2 0xF8 JUMPI DUP1 PUSH4 0x42842E0E EQ PUSH2 0xEF JUMPI DUP1 PUSH4 0x6352211E EQ PUSH2 0xE6 JUMPI DUP1 PUSH4 0x70A08231 EQ PUSH2 0xDD JUMPI DUP1 PUSH4 0x95D89B41 EQ PUSH2 0xD4 JUMPI DUP1 PUSH4 0xA22CB465 EQ PUSH2 0xCB JUMPI DUP1 PUSH4 0xB88D4FDE EQ PUSH2 0xC2 JUMPI DUP1 PUSH4 0xC87B56DD EQ PUSH2 0xB9 JUMPI PUSH4 0xE985E9C5 SUB PUSH2 0xE JUMPI PUSH2 0xB4 PUSH2 0x6E5 JUMP JUMPDEST PUSH2 0xE JUMP JUMPDEST POP PUSH2 0xB4 PUSH2 0x68A JUMP JUMPDEST POP PUSH2 0xB4 PUSH2 0x65F JUMP JUMPDEST POP PUSH2 0xB4 PUSH2 0x4DF JUMP JUMPDEST POP PUSH2 0xB4 PUSH2 0x46F JUMP JUMPDEST POP PUSH2 0xB4 PUSH2 0x435 JUMP JUMPDEST POP PUSH2 0xB4 PUSH2 0x3EE JUMP JUMPDEST POP PUSH2 0xB4 PUSH2 0x3C6 JUMP JUMPDEST POP PUSH2 0xB4 PUSH2 0x39E JUMP JUMPDEST POP PUSH2 0xB4 PUSH2 0x333 JUMP JUMPDEST POP PUSH2 0xB4 PUSH2 0x2A2 JUMP JUMPDEST POP PUSH2 0xB4 PUSH2 0x230 JUMP JUMPDEST POP PUSH2 0xB4 PUSH2 0x170 JUMP JUMPDEST PUSH1 0x0 DUP1 REVERT JUMPDEST PUSH1 0x1 PUSH1 0x1 PUSH1 0xE0 SHL SUB NOT DUP2 AND JUMPDEST SUB PUSH2 0x125 JUMPI JUMP JUMPDEST SWAP1 POP CALLDATALOAD SWAP1 PUSH2 0x14A DUP3 PUSH2 0x12A JUMP JUMPDEST JUMP JUMPDEST SWAP1 PUSH2 0x160 SWAP2 PUSH1 0x20 DUP2 DUP4 SUB SLT PUSH2 0x163 JUMPI PUSH2 0x13D JUMP JUMPDEST SWAP1 JUMP JUMPDEST PUSH2 0x16B PUSH1 0x0 DUP1 REVERT JUMPDEST PUSH2 0x13D JUMP JUMPDEST POP CALLVALUE PUSH2 0x1A4 JUMPI JUMPDEST PUSH2 0x1A0 PUSH2 0x18D PUSH2 0x188 CALLDATASIZE PUSH1 0x4 PUSH2 0x14C JUMP JUMPDEST PUSH2 0x710 JUMP JUMPDEST PUSH1 0x40 MLOAD JUMPDEST SWAP2 DUP3 SWAP2 DUP3 SWAP1 ISZERO ISZERO DUP2 MSTORE PUSH1 0x20 ADD SWAP1 JUMP JUMPDEST SUB SWAP1 RETURN JUMPDEST PUSH2 0x1AC PUSH1 0x0 DUP1 REVERT JUMPDEST PUSH2 0x177 JUMP JUMPDEST PUSH1 0x0 SWAP2 SUB SLT PUSH2 0x1BC JUMPI JUMP JUMPDEST PUSH2 0x14A PUSH1 0x0 DUP1 REVERT JUMPDEST PUSH1 0x0 JUMPDEST DUP4 DUP2 LT PUSH2 0x1D7 JUMPI POP POP PUSH1 0x0 SWAP2 ADD MSTORE JUMP JUMPDEST DUP2 DUP2 ADD MLOAD DUP4 DUP3 ADD MSTORE PUSH1 0x20 ADD PUSH2 0x1C7 JUMP JUMPDEST PUSH1 0x1F ADD PUSH1 0x1F NOT AND SWAP1 JUMP JUMPDEST PUSH2 0x212 PUSH2 0x1E7 PUSH1 0x20 SWAP4 PUSH2 0x21B SWAP4 PUSH2 0x206 DUP2 MLOAD SWAP1 JUMP JUMPDEST DUP1 DUP4 MSTORE SWAP4 DUP5 SWAP3 PUSH1 0x20 ADD SWAP1 JUMP JUMPDEST SWAP6 DUP7 SWAP2 ADD PUSH2 0x1C4 JUMP JUMPDEST ADD SWAP1 JUMP JUMPDEST PUSH1 0x20 DUP1 DUP3 MSTORE PUSH2 0x160 SWAP3 SWAP2 ADD SWAP1 PUSH2 0x1F1 JUMP JUMPDEST POP CALLVALUE PUSH2 0x259 JUMPI JUMPDEST PUSH2 0x242 CALLDATASIZE PUSH1 0x4 PUSH2 0x1B1 JUMP JUMPDEST PUSH2 0x1A0 PUSH2 0x24D PUSH2 0x9D1 JUMP JUMPDEST PUSH1 0x40 MLOAD SWAP2 DUP3 SWAP2 DUP3 PUSH2 0x21F JUMP JUMPDEST PUSH2 0x261 PUSH1 0x0 DUP1 REVERT JUMPDEST PUSH2 0x237 JUMP JUMPDEST DUP1 PUSH2 0x136 JUMP JUMPDEST SWAP1 POP CALLDATALOAD SWAP1 PUSH2 0x14A DUP3 PUSH2 0x266 JUMP JUMPDEST SWAP1 PUSH2 0x160 SWAP2 PUSH1 0x20 DUP2 DUP4 SUB SLT ISZERO PUSH2 0x26C JUMPI PUSH2 0x291 PUSH1 0x0 DUP1 REVERT JUMPDEST PUSH2 0x26C JUMP JUMPDEST PUSH1 0x1 PUSH1 0x1 PUSH1 0xA0 SHL SUB AND SWAP1 JUMP JUMPDEST POP CALLVALUE PUSH2 0x2D9 JUMPI JUMPDEST PUSH2 0x1A0 PUSH2 0x2BF PUSH2 0x2BA CALLDATASIZE PUSH1 0x4 PUSH2 0x279 JUMP JUMPDEST PUSH2 0xC04 JUMP JUMPDEST PUSH1 0x40 MLOAD SWAP2 DUP3 SWAP2 DUP3 PUSH1 0x1 PUSH1 0x1 PUSH1 0xA0 SHL SUB SWAP1 SWAP2 AND DUP2 MSTORE PUSH1 0x20 ADD SWAP1 JUMP JUMPDEST PUSH2 0x2E1 PUSH1 0x0 DUP1 REVERT JUMPDEST PUSH2 0x2A9 JUMP JUMPDEST PUSH1 0x1 PUSH1 0x1 PUSH1 0xA0 SHL SUB DUP2 AND PUSH2 0x136 JUMP JUMPDEST SWAP1 POP CALLDATALOAD SWAP1 PUSH2 0x14A DUP3 PUSH2 0x2E6 JUMP JUMPDEST SWAP2 SWAP1 PUSH2 0x160 SWAP1 PUSH1 0x40 DUP5 DUP3 SUB SLT PUSH2 0x326 JUMPI JUMPDEST PUSH2 0x31D DUP2 DUP6 PUSH2 0x2F5 JUMP JUMPDEST SWAP4 PUSH1 0x20 ADD PUSH2 0x26C JUMP JUMPDEST PUSH2 0x32E PUSH1 0x0 DUP1 REVERT JUMPDEST PUSH2 0x313 JUMP JUMPDEST POP CALLVALUE PUSH2 0x353 JUMPI JUMPDEST PUSH2 0x34E PUSH2 0x348 CALLDATASIZE PUSH1 0x4 PUSH2 0x302 JUMP JUMPDEST SWAP1 PUSH2 0xB86 JUMP JUMPDEST PUSH1 0x40 MLOAD STOP JUMPDEST PUSH2 0x35B PUSH1 0x0 DUP1 REVERT JUMPDEST PUSH2 0x33A JUMP JUMPDEST SWAP1 SWAP2 PUSH1 0x60 DUP3 DUP5 SUB SLT PUSH2 0x391 JUMPI JUMPDEST PUSH2 0x160 PUSH2 0x37A DUP5 DUP5 PUSH2 0x2F5 JUMP JUMPDEST SWAP4 PUSH2 0x388 DUP2 PUSH1 0x20 DUP7 ADD PUSH2 0x2F5 JUMP JUMPDEST SWAP4 PUSH1 0x40 ADD PUSH2 0x26C JUMP JUMPDEST PUSH2 0x399 PUSH1 0x0 DUP1 REVERT JUMPDEST PUSH2 0x36D JUMP JUMPDEST POP CALLVALUE PUSH2 0x3B9 JUMPI JUMPDEST PUSH2 0x34E PUSH2 0x3B3 CALLDATASIZE PUSH1 0x4 PUSH2 0x360 JUMP JUMPDEST SWAP2 PUSH2 0xCBD JUMP JUMPDEST PUSH2 0x3C1 PUSH1 0x0 DUP1 REVERT JUMPDEST PUSH2 0x3A5 JUMP JUMPDEST POP CALLVALUE PUSH2 0x3E1 JUMPI JUMPDEST PUSH2 0x34E PUSH2 0x3DB CALLDATASIZE PUSH1 0x4 PUSH2 0x360 JUMP JUMPDEST SWAP2 PUSH2 0xCDA JUMP JUMPDEST PUSH2 0x3E9 PUSH1 0x0 DUP1 REVERT JUMPDEST PUSH2 0x3CD JUMP JUMPDEST POP CALLVALUE PUSH2 0x40B JUMPI JUMPDEST PUSH2 0x1A0 PUSH2 0x2BF PUSH2 0x406 CALLDATASIZE PUSH1 0x4 PUSH2 0x279 JUMP JUMPDEST PUSH2 0x8A7 JUMP JUMPDEST PUSH2 0x413 PUSH1 0x0 DUP1 REVERT JUMPDEST PUSH2 0x3F5 JUMP JUMPDEST SWAP1 PUSH2 0x160 SWAP2 PUSH1 0x20 DUP2 DUP4 SUB SLT ISZERO PUSH2 0x2F5 JUMPI PUSH2 0x430 PUSH1 0x0 DUP1 REVERT JUMPDEST PUSH2 0x2F5 JUMP JUMPDEST POP CALLVALUE PUSH2 0x462 JUMPI JUMPDEST PUSH2 0x1A0 PUSH2 0x452 PUSH2 0x44D CALLDATASIZE PUSH1 0x4 PUSH2 0x418 JUMP JUMPDEST PUSH2 0x81E JUMP JUMPDEST PUSH1 0x40 MLOAD SWAP2 DUP3 SWAP2 DUP3 SWAP1 DUP2 MSTORE PUSH1 0x20 ADD SWAP1 JUMP JUMPDEST PUSH2 0x46A PUSH1 0x0 DUP1 REVERT JUMPDEST PUSH2 0x43C JUMP JUMPDEST POP CALLVALUE PUSH2 0x48C JUMPI JUMPDEST PUSH2 0x481 CALLDATASIZE PUSH1 0x4 PUSH2 0x1B1 JUMP JUMPDEST PUSH2 0x1A0 PUSH2 0x24D PUSH2 0x9DB JUMP JUMPDEST PUSH2 0x494 PUSH1 0x0 DUP1 REVERT JUMPDEST PUSH2 0x476 JUMP JUMPDEST DUP1 ISZERO ISZERO PUSH2 0x136 JUMP JUMPDEST SWAP1 POP CALLDATALOAD SWAP1 PUSH2 0x14A DUP3 PUSH2 0x499 JUMP JUMPDEST SWAP2 SWAP1 PUSH2 0x160 SWAP1 PUSH1 0x40 DUP5 DUP3 SUB SLT PUSH2 0x4D2 JUMPI JUMPDEST PUSH2 0x4C9 DUP2 DUP6 PUSH2 0x2F5 JUMP JUMPDEST SWAP4 PUSH1 0x20 ADD PUSH2 0x4A1 JUMP JUMPDEST PUSH2 0x4DA PUSH1 0x0 DUP1 REVERT JUMPDEST PUSH2 0x4BF JUMP JUMPDEST POP CALLVALUE PUSH2 0x4FA JUMPI JUMPDEST PUSH2 0x34E PUSH2 0x4F4 CALLDATASIZE PUSH1 0x4 PUSH2 0x4AE JUMP JUMPDEST SWAP1 PUSH2 0xC29 JUMP JUMPDEST PUSH2 0x502 PUSH1 0x0 DUP1 REVERT JUMPDEST PUSH2 0x4E6 JUMP JUMPDEST POP PUSH4 0x4E487B71 PUSH1 0xE0 SHL PUSH1 0x0 MSTORE PUSH1 0x41 PUSH1 0x4 MSTORE PUSH1 0x24 PUSH1 0x0 REVERT JUMPDEST SWAP1 PUSH1 0x1F ADD PUSH1 0x1F NOT AND DUP2 ADD SWAP1 DUP2 LT PUSH8 0xFFFFFFFFFFFFFFFF DUP3 GT OR PUSH2 0x540 JUMPI PUSH1 0x40 MSTORE JUMP JUMPDEST PUSH2 0x548 PUSH2 0x507 JUMP JUMPDEST PUSH1 0x40 MSTORE JUMP JUMPDEST SWAP1 PUSH2 0x14A PUSH2 0x55A PUSH1 0x40 MLOAD SWAP1 JUMP JUMPDEST SWAP3 DUP4 PUSH2 0x51E JUMP JUMPDEST PUSH2 0x21B PUSH1 0x20 SWAP2 PUSH8 0xFFFFFFFFFFFFFFFF DUP2 GT PUSH2 0x580 JUMPI PUSH1 0x1F ADD PUSH1 0x1F NOT AND SWAP1 JUMP JUMPDEST PUSH2 0x1E7 PUSH2 0x507 JUMP JUMPDEST SWAP1 DUP3 PUSH1 0x0 SWAP4 SWAP3 DUP3 CALLDATACOPY ADD MSTORE JUMP JUMPDEST SWAP3 SWAP2 SWAP1 PUSH2 0x14A SWAP2 PUSH2 0x5AC PUSH2 0x5A7 DUP4 PUSH2 0x561 JUMP JUMPDEST PUSH2 0x54D JUMP JUMPDEST SWAP5 DUP3 DUP7 MSTORE PUSH1 0x20 DUP7 ADD SWAP2 DUP4 DUP3 ADD GT ISZERO PUSH2 0x588 JUMPI PUSH2 0x5C6 PUSH1 0x0 DUP1 REVERT JUMPDEST PUSH2 0x588 JUMP JUMPDEST SWAP1 PUSH2 0x160 SWAP2 DUP2 PUSH1 0x1F DUP3 ADD SLT ISZERO PUSH2 0x5E7 JUMPI JUMPDEST PUSH1 0x20 DUP2 CALLDATALOAD SWAP2 ADD PUSH2 0x594 JUMP JUMPDEST PUSH2 0x5EF PUSH1 0x0 DUP1 REVERT JUMPDEST PUSH2 0x5DC JUMP JUMPDEST PUSH1 0x80 DUP2 DUP4 SUB SLT PUSH2 0x652 JUMPI JUMPDEST PUSH2 0x609 DUP3 DUP3 PUSH2 0x2F5 JUMP JUMPDEST SWAP3 PUSH2 0x160 PUSH2 0x61A DUP5 PUSH1 0x20 DUP6 ADD PUSH2 0x2F5 JUMP JUMPDEST SWAP4 PUSH2 0x628 DUP2 PUSH1 0x40 DUP7 ADD PUSH2 0x26C JUMP JUMPDEST SWAP4 PUSH1 0x60 DUP2 ADD CALLDATALOAD SWAP1 PUSH8 0xFFFFFFFFFFFFFFFF DUP3 GT PUSH2 0x645 JUMPI JUMPDEST ADD PUSH2 0x5CB JUMP JUMPDEST PUSH2 0x64D PUSH1 0x0 DUP1 REVERT JUMPDEST PUSH2 0x63F JUMP JUMPDEST PUSH2 0x65A PUSH1 0x0 DUP1 REVERT JUMPDEST PUSH2 0x5FF JUMP JUMPDEST POP CALLVALUE PUSH2 0x67D JUMPI JUMPDEST PUSH2 0x34E PUSH2 0x674 CALLDATASIZE PUSH1 0x4 PUSH2 0x5F4 JUMP JUMPDEST SWAP3 SWAP2 SWAP1 SWAP2 PUSH2 0xCEA JUMP JUMPDEST PUSH2 0x685 PUSH1 0x0 DUP1 REVERT JUMPDEST PUSH2 0x666 JUMP JUMPDEST POP CALLVALUE PUSH2 0x6A7 JUMPI JUMPDEST PUSH2 0x1A0 PUSH2 0x24D PUSH2 0x6A2 CALLDATASIZE PUSH1 0x4 PUSH2 0x279 JUMP JUMPDEST PUSH2 0xA4B JUMP JUMPDEST PUSH2 0x6AF PUSH1 0x0 DUP1 REVERT JUMPDEST PUSH2 0x691 JUMP JUMPDEST SWAP2 SWAP1 PUSH2 0x160 SWAP1 PUSH1 0x40 DUP5 DUP3 SUB SLT PUSH2 0x6D8 JUMPI JUMPDEST PUSH2 0x6CF DUP2 DUP6 PUSH2 0x2F5 JUMP JUMPDEST SWAP4 PUSH1 0x20 ADD PUSH2 0x2F5 JUMP JUMPDEST PUSH2 0x6E0 PUSH1 0x0 DUP1 REVERT JUMPDEST PUSH2 0x6C5 JUMP JUMPDEST POP CALLVALUE PUSH2 0x703 JUMPI JUMPDEST PUSH2 0x1A0 PUSH2 0x18D PUSH2 0x6FD CALLDATASIZE PUSH1 0x4 PUSH2 0x6B4 JUMP JUMPDEST SWAP1 PUSH2 0xC34 JUMP JUMPDEST PUSH2 0x70B PUSH1 0x0 DUP1 REVERT JUMPDEST PUSH2 0x6EC JUMP JUMPDEST PUSH4 0x80AC58CD PUSH1 0xE0 SHL PUSH1 0x1 PUSH1 0x1 PUSH1 0xE0 SHL SUB NOT DUP3 AND EQ SWAP1 DUP2 ISZERO PUSH2 0x740 JUMPI JUMPDEST DUP2 ISZERO PUSH2 0x736 JUMPI POP SWAP1 JUMP JUMPDEST PUSH2 0x160 SWAP2 POP PUSH2 0x1443 JUMP JUMPDEST PUSH1 0x1 PUSH1 0x1 PUSH1 0xE0 SHL SUB NOT DUP2 AND PUSH4 0x5B5E139F PUSH1 0xE0 SHL EQ SWAP2 POP PUSH2 0x72C JUMP JUMPDEST PUSH2 0x296 PUSH2 0x160 PUSH2 0x160 SWAP3 SWAP1 JUMP JUMPDEST PUSH2 0x160 SWAP1 PUSH2 0x75B JUMP JUMPDEST ISZERO PUSH2 0x778 JUMPI JUMP JUMPDEST PUSH1 0x40 MLOAD PUSH3 0x461BCD PUSH1 0xE5 SHL DUP2 MSTORE PUSH1 0x20 PUSH1 0x4 DUP3 ADD MSTORE PUSH1 0x29 PUSH1 0x24 DUP3 ADD MSTORE PUSH32 0x4552433732313A2061646472657373207A65726F206973206E6F742061207661 PUSH1 0x44 DUP3 ADD MSTORE PUSH9 0x3634B21037BBB732B9 PUSH1 0xB9 SHL PUSH1 0x64 DUP3 ADD MSTORE PUSH1 0x84 SWAP1 REVERT JUMPDEST PUSH2 0x160 SWAP1 PUSH2 0x296 SWAP1 PUSH1 0x1 PUSH1 0x1 PUSH1 0xA0 SHL SUB AND DUP3 JUMP JUMPDEST PUSH2 0x160 SWAP1 PUSH2 0x7CF JUMP JUMPDEST PUSH2 0x160 SWAP1 PUSH2 0x7E3 JUMP JUMPDEST SWAP1 PUSH2 0x7FF SWAP1 PUSH2 0x7EC JUMP JUMPDEST PUSH1 0x0 MSTORE PUSH1 0x20 MSTORE PUSH1 0x40 PUSH1 0x0 KECCAK256 SWAP1 JUMP JUMPDEST PUSH2 0x160 SWAP1 DUP2 JUMP JUMPDEST PUSH2 0x160 SWAP1 SLOAD PUSH2 0x80D JUMP JUMPDEST PUSH2 0x856 PUSH2 0x160 SWAP2 PUSH2 0x82D PUSH1 0x0 SWAP1 JUMP JUMPDEST POP PUSH2 0x84F PUSH2 0x83E PUSH2 0x296 PUSH1 0x0 PUSH2 0x768 JUMP JUMPDEST PUSH1 0x1 PUSH1 0x1 PUSH1 0xA0 SHL SUB DUP4 AND EQ ISZERO PUSH2 0x771 JUMP JUMPDEST PUSH1 0x3 PUSH2 0x7F5 JUMP JUMPDEST PUSH2 0x814 JUMP JUMPDEST ISZERO PUSH2 0x862 JUMPI JUMP JUMPDEST PUSH1 0x40 MLOAD PUSH3 0x461BCD PUSH1 0xE5 SHL DUP2 MSTORE PUSH1 0x20 PUSH1 0x4 DUP3 ADD MSTORE PUSH1 0x18 PUSH1 0x24 DUP3 ADD MSTORE PUSH32 0x4552433732313A20696E76616C696420746F6B656E2049440000000000000000 PUSH1 0x44 DUP3 ADD MSTORE PUSH1 0x64 SWAP1 REVERT JUMPDEST PUSH2 0x8B4 SWAP1 PUSH1 0x0 JUMPDEST POP PUSH2 0xD8A JUMP JUMPDEST PUSH2 0x160 PUSH2 0x8C4 PUSH2 0x296 PUSH1 0x0 PUSH2 0x768 JUMP JUMPDEST PUSH1 0x1 PUSH1 0x1 PUSH1 0xA0 SHL SUB DUP4 AND EQ ISZERO PUSH2 0x85B JUMP JUMPDEST POP PUSH4 0x4E487B71 PUSH1 0xE0 SHL PUSH1 0x0 MSTORE PUSH1 0x22 PUSH1 0x4 MSTORE PUSH1 0x24 PUSH1 0x0 REVERT JUMPDEST SWAP1 PUSH1 0x1 PUSH1 0x2 DUP4 DIV SWAP3 AND DUP1 ISZERO PUSH2 0x90F JUMPI JUMPDEST PUSH1 0x20 DUP4 LT EQ PUSH2 0x907 JUMPI JUMP JUMPDEST PUSH2 0x14A PUSH2 0x8D5 JUMP JUMPDEST SWAP2 PUSH1 0x7F AND SWAP2 PUSH2 0x8FC JUMP JUMPDEST DUP1 SLOAD PUSH1 0x0 SWAP4 SWAP3 SWAP2 PUSH2 0x936 PUSH2 0x92C DUP4 PUSH2 0x8EC JUMP JUMPDEST DUP1 DUP6 MSTORE SWAP4 PUSH1 0x20 ADD SWAP1 JUMP JUMPDEST SWAP2 PUSH1 0x1 DUP2 AND SWAP1 DUP2 ISZERO PUSH2 0x988 JUMPI POP PUSH1 0x1 EQ PUSH2 0x94F JUMPI POP POP POP JUMP JUMPDEST PUSH2 0x962 SWAP2 SWAP3 SWAP4 SWAP5 POP PUSH1 0x0 MSTORE PUSH1 0x20 PUSH1 0x0 KECCAK256 SWAP1 JUMP JUMPDEST SWAP2 PUSH1 0x0 SWAP3 JUMPDEST DUP2 DUP5 LT PUSH2 0x974 JUMPI POP POP ADD SWAP1 JUMP JUMPDEST DUP1 SLOAD DUP5 DUP5 ADD MSTORE PUSH1 0x20 SWAP1 SWAP4 ADD SWAP3 PUSH1 0x1 ADD PUSH2 0x967 JUMP JUMPDEST SWAP3 SWAP5 SWAP6 POP POP POP PUSH1 0xFF NOT AND DUP3 MSTORE ISZERO ISZERO PUSH1 0x20 MUL ADD SWAP1 JUMP JUMPDEST SWAP1 PUSH2 0x160 SWAP2 PUSH2 0x919 JUMP JUMPDEST SWAP1 PUSH2 0x14A PUSH2 0x9C1 SWAP3 PUSH2 0x9B8 PUSH1 0x40 MLOAD SWAP1 JUMP JUMPDEST SWAP4 DUP5 DUP1 SWAP3 PUSH2 0x99D JUMP JUMPDEST SUB DUP4 PUSH2 0x51E JUMP JUMPDEST PUSH2 0x160 SWAP1 PUSH2 0x9A7 JUMP JUMPDEST PUSH2 0x160 PUSH1 0x0 PUSH2 0x9C8 JUMP JUMPDEST PUSH2 0x160 PUSH1 0x1 PUSH2 0x9C8 JUMP JUMPDEST PUSH2 0x160 PUSH2 0x160 PUSH2 0x160 SWAP3 SWAP1 JUMP JUMPDEST SWAP1 PUSH2 0x9FF PUSH2 0x5A7 DUP4 PUSH2 0x561 JUMP JUMPDEST SWAP2 DUP3 MSTORE JUMP JUMPDEST PUSH2 0x160 PUSH1 0x0 PUSH2 0x9F2 JUMP JUMPDEST PUSH2 0x160 PUSH2 0xA04 JUMP JUMPDEST PUSH2 0x21B PUSH2 0xA2E SWAP3 PUSH1 0x20 SWAP3 PUSH2 0xA28 DUP2 MLOAD SWAP1 JUMP JUMPDEST SWAP5 DUP6 SWAP3 SWAP1 JUMP JUMPDEST SWAP4 DUP5 SWAP2 ADD PUSH2 0x1C4 JUMP JUMPDEST PUSH2 0xA45 SWAP1 PUSH2 0x160 SWAP4 SWAP3 PUSH2 0xA16 JUMP JUMPDEST SWAP1 PUSH2 0xA16 JUMP JUMPDEST PUSH2 0xA54 DUP2 PUSH2 0x11A7 JUMP JUMPDEST PUSH2 0xA5C PUSH2 0xAB6 JUMP JUMPDEST DUP1 MLOAD PUSH2 0xA6F PUSH2 0xA6B PUSH1 0x0 PUSH2 0x9E5 JUMP JUMPDEST SWAP2 SWAP1 JUMP JUMPDEST GT ISZERO PUSH2 0xAAC JUMPI PUSH2 0x160 PUSH2 0xAA0 SWAP2 PUSH2 0xA88 PUSH2 0x160 SWAP5 PUSH2 0x13B7 JUMP JUMPDEST SWAP1 PUSH2 0xA92 PUSH1 0x40 MLOAD SWAP1 JUMP JUMPDEST SWAP4 DUP5 SWAP3 PUSH1 0x20 DUP5 ADD SWAP3 DUP4 PUSH2 0xA37 JUMP JUMPDEST SWAP1 DUP2 SUB DUP3 MSTORE SUB DUP3 PUSH2 0x51E JUMP JUMPDEST POP POP PUSH2 0x160 PUSH2 0xA0E JUMP JUMPDEST PUSH2 0x160 PUSH2 0xA0E JUMP JUMPDEST ISZERO PUSH2 0xAC5 JUMPI JUMP JUMPDEST PUSH1 0x40 MLOAD PUSH3 0x461BCD PUSH1 0xE5 SHL DUP2 MSTORE PUSH1 0x20 PUSH1 0x4 DUP3 ADD MSTORE PUSH1 0x21 PUSH1 0x24 DUP3 ADD MSTORE PUSH32 0x4552433732313A20617070726F76616C20746F2063757272656E74206F776E65 PUSH1 0x44 DUP3 ADD MSTORE PUSH1 0x39 PUSH1 0xF9 SHL PUSH1 0x64 DUP3 ADD MSTORE PUSH1 0x84 SWAP1 REVERT JUMPDEST ISZERO PUSH2 0xB1B JUMPI JUMP JUMPDEST PUSH1 0x40 MLOAD PUSH3 0x461BCD PUSH1 0xE5 SHL DUP2 MSTORE PUSH1 0x20 PUSH1 0x4 DUP3 ADD MSTORE PUSH1 0x3D PUSH1 0x24 DUP3 ADD MSTORE PUSH32 0x4552433732313A20617070726F76652063616C6C6572206973206E6F7420746F PUSH1 0x44 DUP3 ADD MSTORE PUSH32 0x6B656E206F776E6572206F7220617070726F76656420666F7220616C6C000000 PUSH1 0x64 DUP3 ADD MSTORE PUSH1 0x84 SWAP1 REVERT JUMPDEST SWAP1 PUSH2 0x14A SWAP2 PUSH2 0xBD1 PUSH2 0xB97 DUP4 PUSH2 0x8A7 JUMP JUMPDEST PUSH2 0xBB5 PUSH1 0x1 PUSH1 0x1 PUSH1 0xA0 SHL SUB DUP3 AND PUSH1 0x1 PUSH1 0x1 PUSH1 0xA0 SHL SUB DUP6 AND EQ ISZERO PUSH2 0xABE JUMP JUMPDEST CALLER PUSH1 0x1 PUSH1 0x1 PUSH1 0xA0 SHL SUB DUP3 AND DUP2 EQ SWAP2 DUP3 ISZERO PUSH2 0xBD6 JUMPI JUMPDEST POP POP PUSH2 0xB14 JUMP JUMPDEST PUSH2 0x1076 JUMP JUMPDEST PUSH2 0xBE0 SWAP3 POP PUSH2 0xC34 JUMP JUMPDEST CODESIZE DUP1 PUSH2 0xBCA JUMP JUMPDEST SWAP1 PUSH2 0x7FF SWAP1 PUSH2 0x9E5 JUMP JUMPDEST PUSH2 0x160 SWAP1 PUSH2 0x296 JUMP JUMPDEST PUSH2 0x160 SWAP1 SLOAD PUSH2 0xBF1 JUMP JUMPDEST PUSH2 0xC24 PUSH2 0x160 SWAP2 PUSH2 0xC13 PUSH1 0x0 SWAP1 JUMP JUMPDEST POP PUSH2 0xC1D DUP2 PUSH2 0x11A7 JUMP JUMPDEST PUSH1 0x4 PUSH2 0xBE7 JUMP JUMPDEST PUSH2 0xBFA JUMP JUMPDEST PUSH2 0x14A SWAP2 SWAP1 CALLER PUSH2 0x112C JUMP JUMPDEST PUSH2 0x160 SWAP2 PUSH2 0xC4F PUSH2 0xC54 SWAP3 PUSH2 0xC47 PUSH1 0x0 SWAP1 JUMP JUMPDEST POP PUSH1 0x5 PUSH2 0x7F5 JUMP JUMPDEST PUSH2 0x7F5 JUMP JUMPDEST SLOAD PUSH1 0xFF AND SWAP1 JUMP JUMPDEST ISZERO PUSH2 0xC62 JUMPI JUMP JUMPDEST PUSH1 0x40 MLOAD PUSH3 0x461BCD PUSH1 0xE5 SHL DUP2 MSTORE PUSH1 0x20 PUSH1 0x4 DUP3 ADD MSTORE PUSH1 0x2D PUSH1 0x24 DUP3 ADD MSTORE PUSH32 0x4552433732313A2063616C6C6572206973206E6F7420746F6B656E206F776E65 PUSH1 0x44 DUP3 ADD MSTORE PUSH13 0x1C881BDC88185C1C1C9BDD9959 PUSH1 0x9A SHL PUSH1 0x64 DUP3 ADD MSTORE PUSH1 0x84 SWAP1 REVERT JUMPDEST PUSH2 0x14A SWAP3 SWAP2 SWAP1 PUSH2 0xCD5 PUSH2 0xCD0 DUP5 CALLER PUSH2 0xDA1 JUMP JUMPDEST PUSH2 0xC5B JUMP JUMPDEST PUSH2 0xF59 JUMP JUMPDEST SWAP1 SWAP2 PUSH2 0x14A SWAP3 PUSH2 0xCE8 PUSH2 0xA0E JUMP JUMPDEST SWAP3 JUMPDEST PUSH2 0x14A SWAP4 SWAP3 SWAP2 SWAP1 PUSH2 0xCFE PUSH2 0xCD0 DUP5 CALLER PUSH2 0xDA1 JUMP JUMPDEST PUSH2 0xD6B JUMP JUMPDEST ISZERO PUSH2 0xD0A JUMPI JUMP JUMPDEST PUSH1 0x40 MLOAD JUMPDEST PUSH3 0x461BCD PUSH1 0xE5 SHL DUP2 MSTORE PUSH1 0x20 PUSH1 0x4 DUP3 ADD MSTORE PUSH1 0x32 PUSH1 0x24 DUP3 ADD MSTORE PUSH32 0x4552433732313A207472616E7366657220746F206E6F6E204552433732315265 PUSH1 0x44 DUP3 ADD MSTORE PUSH18 0x31B2B4BB32B91034B6B83632B6B2B73A32B9 PUSH1 0x71 SHL PUSH1 0x64 DUP3 ADD MSTORE PUSH1 0x84 SWAP1 REVERT JUMPDEST SWAP2 PUSH2 0x14A SWAP4 SWAP2 PUSH2 0xD85 SWAP4 PUSH2 0xD80 DUP4 DUP4 DUP4 PUSH2 0xF59 JUMP JUMPDEST PUSH2 0x1252 JUMP JUMPDEST PUSH2 0xD03 JUMP JUMPDEST PUSH2 0xC24 PUSH2 0x160 SWAP2 PUSH2 0xD99 PUSH1 0x0 SWAP1 JUMP JUMPDEST POP PUSH1 0x2 PUSH2 0xBE7 JUMP JUMPDEST PUSH2 0xDAA DUP3 PUSH2 0x8A7 JUMP JUMPDEST SWAP2 PUSH1 0x1 PUSH1 0x1 PUSH1 0xA0 SHL SUB DUP4 AND PUSH1 0x1 PUSH1 0x1 PUSH1 0xA0 SHL SUB DUP4 AND EQ SWAP3 DUP4 ISZERO PUSH2 0xE04 JUMPI JUMPDEST POP DUP3 ISZERO PUSH2 0xDD4 JUMPI POP POP SWAP1 JUMP JUMPDEST PUSH2 0xE00 SWAP2 SWAP3 POP PUSH2 0xDE6 PUSH2 0xDF3 SWAP2 PUSH2 0xC04 JUMP JUMPDEST SWAP3 PUSH1 0x1 PUSH1 0x1 PUSH1 0xA0 SHL SUB AND SWAP1 JUMP JUMPDEST SWAP2 PUSH1 0x1 PUSH1 0x1 PUSH1 0xA0 SHL SUB AND SWAP1 JUMP JUMPDEST EQ SWAP1 JUMP JUMPDEST PUSH2 0xE11 SWAP2 SWAP4 POP DUP3 SWAP1 PUSH2 0xC34 JUMP JUMPDEST SWAP2 CODESIZE PUSH2 0xDC8 JUMP JUMPDEST ISZERO PUSH2 0xE1F JUMPI JUMP JUMPDEST PUSH1 0x40 MLOAD PUSH3 0x461BCD PUSH1 0xE5 SHL DUP2 MSTORE PUSH1 0x20 PUSH1 0x4 DUP3 ADD MSTORE PUSH1 0x25 PUSH1 0x24 DUP3 ADD MSTORE PUSH32 0x4552433732313A207472616E736665722066726F6D20696E636F727265637420 PUSH1 0x44 DUP3 ADD MSTORE PUSH5 0x37BBB732B9 PUSH1 0xD9 SHL PUSH1 0x64 DUP3 ADD MSTORE PUSH1 0x84 SWAP1 REVERT JUMPDEST ISZERO PUSH2 0xE79 JUMPI JUMP JUMPDEST PUSH1 0x40 MLOAD PUSH3 0x461BCD PUSH1 0xE5 SHL DUP2 MSTORE PUSH1 0x20 PUSH1 0x4 DUP3 ADD MSTORE PUSH1 0x24 DUP1 DUP3 ADD MSTORE PUSH32 0x4552433732313A207472616E7366657220746F20746865207A65726F20616464 PUSH1 0x44 DUP3 ADD MSTORE PUSH4 0x72657373 PUSH1 0xE0 SHL PUSH1 0x64 DUP3 ADD MSTORE PUSH1 0x84 SWAP1 REVERT JUMPDEST SWAP2 PUSH1 0x1 PUSH1 0x1 PUSH1 0xA0 SHL SUB PUSH1 0x8 SWAP3 SWAP1 SWAP3 MUL SWAP2 DUP3 SHL SWAP2 SHL JUMPDEST SWAP2 DUP2 NOT AND SWAP2 AND OR SWAP1 JUMP JUMPDEST SWAP2 SWAP1 PUSH2 0xEFA PUSH2 0x160 PUSH2 0xF02 SWAP4 PUSH2 0x7EC JUMP JUMPDEST SWAP1 DUP4 SLOAD PUSH2 0xECA JUMP JUMPDEST SWAP1 SSTORE JUMP JUMPDEST PUSH2 0x14A SWAP2 PUSH1 0x0 SWAP2 PUSH2 0xEE9 JUMP JUMPDEST SWAP1 PUSH1 0x0 NOT SWAP1 PUSH2 0xEDF JUMP JUMPDEST SWAP1 PUSH2 0xF2C PUSH2 0x160 PUSH2 0xF02 SWAP3 PUSH2 0x9E5 JUMP JUMPDEST DUP3 SLOAD PUSH2 0xF12 JUMP JUMPDEST SWAP1 PUSH1 0x1 PUSH1 0x1 PUSH1 0xA0 SHL SUB SWAP1 PUSH2 0xEDF JUMP JUMPDEST SWAP1 PUSH2 0xF52 PUSH2 0x160 PUSH2 0xF02 SWAP3 PUSH2 0x7EC JUMP JUMPDEST DUP3 SLOAD PUSH2 0xF33 JUMP JUMPDEST SWAP2 SWAP1 PUSH2 0xF7F PUSH2 0xF67 DUP4 PUSH2 0x8A7 JUMP JUMPDEST PUSH2 0xF79 PUSH1 0x1 PUSH1 0x1 PUSH1 0xA0 SHL SUB DUP7 AND PUSH2 0xDF3 JUMP JUMPDEST EQ PUSH2 0xE18 JUMP JUMPDEST PUSH2 0xFD2 PUSH1 0x0 PUSH2 0xFA4 PUSH2 0xF93 PUSH2 0x296 DUP4 PUSH2 0x768 JUMP JUMPDEST PUSH1 0x1 PUSH1 0x1 PUSH1 0xA0 SHL SUB DUP6 AND EQ ISZERO PUSH2 0xE72 JUMP JUMPDEST PUSH2 0xFC2 PUSH2 0xFB0 DUP6 PUSH2 0x8A7 JUMP JUMPDEST PUSH2 0xF79 PUSH1 0x1 PUSH1 0x1 PUSH1 0xA0 SHL SUB DUP9 AND PUSH2 0xDF3 JUMP JUMPDEST PUSH2 0xFCD DUP5 PUSH1 0x4 PUSH2 0xBE7 JUMP JUMPDEST PUSH2 0xF06 JUMP JUMPDEST PUSH2 0x1016 PUSH2 0xFDF PUSH1 0x1 PUSH2 0x9E5 JUMP JUMPDEST PUSH2 0x1006 PUSH2 0x100C DUP5 PUSH1 0x3 PUSH2 0xC4F PUSH2 0xFF5 DUP11 DUP4 PUSH2 0x7F5 JUMP JUMPDEST PUSH2 0x1006 DUP8 PUSH2 0x1002 DUP4 PUSH2 0x814 JUMP JUMPDEST SUB SWAP1 JUMP JUMPDEST SWAP1 PUSH2 0xF1C JUMP JUMPDEST SWAP2 PUSH2 0x21B DUP4 PUSH2 0x814 JUMP JUMPDEST PUSH2 0x102A DUP2 PUSH2 0x1025 DUP5 PUSH1 0x2 PUSH2 0xBE7 JUMP JUMPDEST PUSH2 0xF42 JUMP JUMPDEST PUSH2 0x1066 PUSH2 0x1060 PUSH2 0x105A PUSH32 0xDDF252AD1BE2C89B69C2B068FC378DAA952BA7F163C4A11628F55A4DF523B3EF SWAP6 PUSH2 0x7EC JUMP JUMPDEST SWAP3 PUSH2 0x7EC JUMP JUMPDEST SWAP3 PUSH2 0x9E5 JUMP JUMPDEST SWAP3 PUSH2 0x1070 PUSH1 0x40 MLOAD SWAP1 JUMP JUMPDEST PUSH1 0x0 SWAP1 LOG4 JUMP JUMPDEST SWAP1 PUSH2 0x1086 DUP3 PUSH2 0x1025 DUP4 PUSH1 0x4 PUSH2 0xBE7 JUMP JUMPDEST PUSH2 0x108F DUP2 PUSH2 0x8A7 JUMP JUMPDEST SWAP2 PUSH2 0x1066 PUSH2 0x1060 PUSH2 0x105A PUSH32 0x8C5BE1E5EBEC7D5BD14F71427D1E84F3DD0314C0F7B2291E5B200AC8C7C3B925 SWAP6 PUSH2 0x7EC JUMP JUMPDEST ISZERO PUSH2 0x10C7 JUMPI JUMP JUMPDEST PUSH1 0x40 MLOAD PUSH3 0x461BCD PUSH1 0xE5 SHL DUP2 MSTORE PUSH1 0x20 PUSH1 0x4 DUP3 ADD MSTORE PUSH1 0x19 PUSH1 0x24 DUP3 ADD MSTORE PUSH32 0x4552433732313A20617070726F766520746F2063616C6C657200000000000000 PUSH1 0x44 DUP3 ADD MSTORE PUSH1 0x64 SWAP1 REVERT JUMPDEST SWAP1 PUSH1 0xFF SWAP1 PUSH2 0xEDF JUMP JUMPDEST SWAP1 PUSH2 0x1125 PUSH2 0x160 PUSH2 0xF02 SWAP3 ISZERO ISZERO SWAP1 JUMP JUMPDEST DUP3 SLOAD PUSH2 0x110C JUMP JUMPDEST PUSH2 0x114A PUSH1 0x1 PUSH1 0x1 PUSH1 0xA0 SHL SUB DUP4 AND PUSH1 0x1 PUSH1 0x1 PUSH1 0xA0 SHL SUB DUP4 AND EQ ISZERO PUSH2 0x10C0 JUMP JUMPDEST PUSH2 0x1162 DUP4 PUSH2 0x115D DUP5 PUSH2 0xC4F DUP6 PUSH1 0x5 PUSH2 0x7F5 JUMP JUMPDEST PUSH2 0x1115 JUMP JUMPDEST PUSH2 0x11A2 PUSH2 0x1198 PUSH2 0x1192 PUSH32 0x17307EAB39AB6107E8899845AD3D59BD9653F200F220920489CA2B5937696C31 SWAP4 PUSH2 0x7EC JUMP JUMPDEST SWAP4 PUSH2 0x7EC JUMP JUMPDEST SWAP4 PUSH2 0x191 PUSH1 0x40 MLOAD SWAP1 JUMP JUMPDEST SUB SWAP1 LOG3 JUMP JUMPDEST PUSH2 0x11B3 PUSH2 0x14A SWAP2 PUSH2 0x11B8 JUMP JUMPDEST PUSH2 0x85B JUMP JUMPDEST PUSH2 0x11C3 SWAP1 PUSH1 0x0 PUSH2 0x8AE JUMP JUMPDEST PUSH2 0x11D3 PUSH2 0xDF3 PUSH2 0x296 PUSH1 0x0 PUSH2 0x768 JUMP JUMPDEST EQ ISZERO SWAP1 JUMP JUMPDEST SWAP1 POP MLOAD SWAP1 PUSH2 0x14A DUP3 PUSH2 0x12A JUMP JUMPDEST SWAP1 PUSH2 0x160 SWAP2 PUSH1 0x20 DUP2 DUP4 SUB SLT ISZERO PUSH2 0x11D8 JUMPI PUSH2 0x11FD PUSH1 0x0 DUP1 REVERT JUMPDEST PUSH2 0x11D8 JUMP JUMPDEST PUSH1 0x1 PUSH1 0x1 PUSH1 0xA0 SHL SUB SWAP2 DUP3 AND DUP2 MSTORE SWAP2 AND PUSH1 0x20 DUP3 ADD MSTORE PUSH1 0x40 DUP2 ADD SWAP2 SWAP1 SWAP2 MSTORE PUSH1 0x80 PUSH1 0x60 DUP3 ADD DUP2 SWAP1 MSTORE PUSH2 0x160 SWAP3 SWAP2 ADD SWAP1 PUSH2 0x1F1 JUMP JUMPDEST RETURNDATASIZE ISZERO PUSH2 0x124D JUMPI PUSH2 0x1242 RETURNDATASIZE PUSH2 0x9F2 JUMP JUMPDEST SWAP1 RETURNDATASIZE PUSH1 0x0 PUSH1 0x20 DUP5 ADD RETURNDATACOPY JUMP JUMPDEST PUSH1 0x60 SWAP1 JUMP JUMPDEST SWAP2 SWAP1 SWAP4 SWAP3 PUSH2 0x125E PUSH1 0x0 SWAP1 JUMP JUMPDEST SWAP5 PUSH2 0x1268 DUP2 PUSH2 0x1350 JUMP JUMPDEST ISZERO PUSH2 0x1346 JUMPI SWAP1 PUSH2 0x12AF PUSH1 0x0 PUSH2 0x1287 PUSH2 0x1282 PUSH1 0x20 SWAP7 SWAP6 PUSH2 0x7EC JUMP JUMPDEST PUSH2 0x7EC JUMP JUMPDEST SWAP3 PUSH2 0x12BA PUSH4 0x150B7A02 SWAP2 PUSH2 0x1298 CALLER SWAP1 JUMP JUMPDEST SWAP7 PUSH2 0x12A2 PUSH1 0x40 MLOAD SWAP1 JUMP JUMPDEST SWAP10 DUP11 SWAP9 DUP10 SWAP8 DUP9 SWAP7 PUSH1 0xE0 SHL SWAP1 JUMP JUMPDEST DUP7 MSTORE PUSH1 0x4 DUP7 ADD PUSH2 0x1202 JUMP JUMPDEST SUB SWAP3 GAS CALL PUSH1 0x0 SWAP2 DUP2 PUSH2 0x1316 JUMPI JUMPDEST POP PUSH2 0x12F9 JUMPI POP PUSH2 0x12D5 PUSH2 0x1233 JUMP JUMPDEST DUP1 MLOAD PUSH2 0x12E4 PUSH2 0xA6B PUSH1 0x0 PUSH2 0x9E5 JUMP JUMPDEST SUB PUSH2 0x12F1 JUMPI PUSH1 0x40 MLOAD PUSH2 0xD0E JUMP JUMPDEST DUP1 MLOAD SWAP1 PUSH1 0x20 ADD REVERT JUMPDEST SWAP1 SWAP2 POP PUSH2 0xE00 PUSH4 0xA85BD01 PUSH1 0xE1 SHL JUMPDEST SWAP2 PUSH1 0x1 PUSH1 0x1 PUSH1 0xE0 SHL SUB NOT AND SWAP1 JUMP JUMPDEST PUSH2 0x1338 SWAP2 SWAP3 POP PUSH1 0x20 RETURNDATASIZE DUP2 GT PUSH2 0x133F JUMPI JUMPDEST PUSH2 0x1330 DUP2 DUP4 PUSH2 0x51E JUMP JUMPDEST DUP2 ADD SWAP1 PUSH2 0x11E5 JUMP JUMPDEST SWAP1 CODESIZE PUSH2 0x12C7 JUMP JUMPDEST POP RETURNDATASIZE PUSH2 0x1326 JUMP JUMPDEST POP PUSH1 0x1 SWAP5 POP POP POP POP JUMP JUMPDEST EXTCODESIZE PUSH2 0x135E PUSH2 0xA6B PUSH1 0x0 PUSH2 0x9E5 JUMP JUMPDEST GT SWAP1 JUMP JUMPDEST CALLDATASIZE SWAP1 CALLDATACOPY JUMP JUMPDEST SWAP1 PUSH2 0x14A PUSH2 0x137D PUSH2 0x1377 DUP5 PUSH2 0x9F2 JUMP JUMPDEST SWAP4 PUSH2 0x561 JUMP JUMPDEST PUSH1 0x1F NOT ADD PUSH1 0x20 DUP5 ADD PUSH2 0x1362 JUMP JUMPDEST POP PUSH4 0x4E487B71 PUSH1 0xE0 SHL PUSH1 0x0 MSTORE PUSH1 0x12 PUSH1 0x4 MSTORE PUSH1 0x24 PUSH1 0x0 REVERT JUMPDEST DUP2 ISZERO PUSH2 0x13AB JUMPI DIV SWAP1 JUMP JUMPDEST PUSH2 0x13B3 PUSH2 0x138A JUMP JUMPDEST DIV SWAP1 JUMP JUMPDEST PUSH2 0x13C0 DUP2 PUSH2 0x1453 JUMP JUMPDEST SWAP1 PUSH2 0x13D0 PUSH1 0x1 SWAP3 PUSH2 0x21B DUP5 PUSH2 0x9E5 JUMP JUMPDEST SWAP2 DUP1 PUSH2 0x13DB DUP5 PUSH2 0x1367 JUMP JUMPDEST SWAP4 PUSH1 0x20 ADD DUP5 ADD SWAP1 JUMPDEST PUSH2 0x13EE JUMPI JUMPDEST POP POP POP SWAP1 JUMP JUMPDEST PUSH2 0x1422 SWAP1 PUSH1 0x0 NOT ADD SWAP3 PUSH16 0x181899199A1A9B1B9C1CB0B131B232B3 PUSH1 0x81 SHL PUSH1 0xA DUP3 MOD BYTE DUP5 MSTORE8 PUSH2 0x141C PUSH1 0xA PUSH2 0x9E5 JUMP JUMPDEST SWAP1 PUSH2 0x13A1 JUMP JUMPDEST SWAP1 DUP2 PUSH2 0x1431 PUSH2 0xA6B PUSH1 0x0 PUSH2 0x9E5 JUMP JUMPDEST EQ PUSH2 0x143E JUMPI SWAP1 SWAP2 DUP2 PUSH2 0x13E3 JUMP JUMPDEST PUSH2 0x13E8 JUMP JUMPDEST PUSH2 0xE00 PUSH4 0x1FFC9A7 PUSH1 0xE0 SHL PUSH2 0x1308 JUMP JUMPDEST PUSH2 0x145D PUSH1 0x0 PUSH2 0x9E5 JUMP JUMPDEST SWAP1 PUSH27 0x184F03E93FF9F4DAA797ED6E38ED64BF6A1F010000000000000000 PUSH2 0x1483 DUP2 PUSH2 0x9E5 JUMP JUMPDEST DUP3 LT ISZERO PUSH2 0x15D5 JUMPI JUMPDEST POP PUSH14 0x4EE2D6D415B85ACEF8100000000 PUSH2 0x14A4 DUP2 PUSH2 0x9E5 JUMP JUMPDEST DUP3 LT ISZERO PUSH2 0x15B3 JUMPI JUMPDEST POP PUSH7 0x2386F26FC10000 PUSH2 0x14BE DUP2 PUSH2 0x9E5 JUMP JUMPDEST DUP3 LT ISZERO PUSH2 0x1591 JUMPI JUMPDEST POP PUSH4 0x5F5E100 PUSH2 0x14D5 DUP2 PUSH2 0x9E5 JUMP JUMPDEST DUP3 LT ISZERO PUSH2 0x156F JUMPI JUMPDEST POP PUSH2 0x2710 PUSH2 0x14EA DUP2 PUSH2 0x9E5 JUMP JUMPDEST DUP3 LT ISZERO PUSH2 0x154D JUMPI JUMPDEST POP PUSH1 0x64 PUSH2 0x14FE DUP2 PUSH2 0x9E5 JUMP JUMPDEST DUP3 LT ISZERO PUSH2 0x152B JUMPI JUMPDEST POP PUSH2 0x1514 PUSH2 0xA6B PUSH1 0xA PUSH2 0x9E5 JUMP JUMPDEST LT ISZERO PUSH2 0x151D JUMPI SWAP1 JUMP JUMPDEST PUSH2 0x160 SWAP1 PUSH2 0x21B PUSH1 0x1 PUSH2 0x9E5 JUMP JUMPDEST PUSH2 0x1546 SWAP2 PUSH2 0x141C PUSH2 0x153B SWAP3 PUSH2 0x9E5 JUMP JUMPDEST SWAP2 PUSH2 0x21B PUSH1 0x2 PUSH2 0x9E5 JUMP JUMPDEST SWAP1 CODESIZE PUSH2 0x1506 JUMP JUMPDEST PUSH2 0x1568 SWAP2 PUSH2 0x141C PUSH2 0x155D SWAP3 PUSH2 0x9E5 JUMP JUMPDEST SWAP2 PUSH2 0x21B PUSH1 0x4 PUSH2 0x9E5 JUMP JUMPDEST SWAP1 CODESIZE PUSH2 0x14F2 JUMP JUMPDEST PUSH2 0x158A SWAP2 PUSH2 0x141C PUSH2 0x157F SWAP3 PUSH2 0x9E5 JUMP JUMPDEST SWAP2 PUSH2 0x21B PUSH1 0x8 PUSH2 0x9E5 JUMP JUMPDEST SWAP1 CODESIZE PUSH2 0x14DD JUMP JUMPDEST PUSH2 0x15AC SWAP2 PUSH2 0x141C PUSH2 0x15A1 SWAP3 PUSH2 0x9E5 JUMP JUMPDEST SWAP2 PUSH2 0x21B PUSH1 0x10 PUSH2 0x9E5 JUMP JUMPDEST SWAP1 CODESIZE PUSH2 0x14C6 JUMP JUMPDEST PUSH2 0x15CE SWAP2 PUSH2 0x141C PUSH2 0x15C3 SWAP3 PUSH2 0x9E5 JUMP JUMPDEST SWAP2 PUSH2 0x21B PUSH1 0x20 PUSH2 0x9E5 JUMP JUMPDEST SWAP1 CODESIZE PUSH2 0x14AC JUMP JUMPDEST PUSH2 0x15F0 SWAP2 PUSH2 0x141C PUSH2 0x15E5 SWAP3 PUSH2 0x9E5 JUMP JUMPDEST SWAP2 PUSH2 0x21B PUSH1 0x40 PUSH2 0x9E5 JUMP JUMPDEST SWAP1 CODESIZE PUSH2 0x148B JUMP INVALID LOG2 PUSH5 0x6970667358 0x22 SLT KECCAK256 SELFDESTRUCT INVALID CALL RETURN SWAP7 LOG4 DUP4 PUSH2 0x908E SWAP10 0xD2 PC PUSH11 0xEFAF8C1CE6B9C8FCD2DC01 JUMPI SWAP2 0xDE 0xE1 0xB3 SWAP15 0xC3 PUSH5 0x736F6C6343 STOP ADDMOD GT STOP CALLER "},"methodIdentifiers":{"approve(address,uint256)":"095ea7b3","balanceOf(address)":"70a08231","getApproved(uint256)":"081812fc","isApprovedForAll(address,address)":"e985e9c5","name()":"06fdde03","ownerOf(uint256)":"6352211e","safeTransferFrom(address,address,uint256)":"42842e0e","safeTransferFrom(address,address,uint256,bytes)":"b88d4fde","setApprovalForAll(address,bool)":"a22cb465","supportsInterface(bytes4)":"01ffc9a7","symbol()":"95d89b41","tokenURI(uint256)":"c87b56dd","transferFrom(address,address,uint256)":"23b872dd"}}}}}