{"contracts/TaskContract.sol":{"TaskContract":{"abi":[{"inputs":[],"stateMutability":"nonpayable","type":"constructor"},{"anonymous":false,"inputs":[{"indexed":false,"internalType":"address","name":"recipient","type":"address"},{"indexed":false,"internalType":"uint256","name":"taskId","type":"uint256"}],"name":"AddTask","type":"event"},{"anonymous":false,"inputs":[{"indexed":false,"internalType":"uint256","name":"taskId","type":"uint256"},{"indexed":false,"internalType":"bool","name":"isDeleted","type":"bool"}],"name":"DeleteTask","type":"event"},{"inputs":[{"internalType":"string","name":"taskText","type":"string"},{"internalType":"bool","name":"isDeleted","type":"bool"}],"name":"addTask","outputs":[],"stateMutability":"nonpayable","type":"function"},{"inputs":[{"internalType":"uint256","name":"taskId","type":"uint256"},{"internalType":"bool","name":"isDeleted","type":"bool"}],"name":"deleteTask","outputs":[],"stateMutability":"nonpayable","type":"function"},{"inputs":[],"name":"getMyTasks","outputs":[{"components":[{"internalType":"uint256","name":"id","type":"uint256"},{"internalType":"address","name":"username","type":"address"},{"internalType":"string","name":"taskText","type":"string"},{"internalType":"bool","name":"isDeleted","type":"bool"}],"internalType":"struct TaskContract.Task[]","name":"","type":"tuple[]"}],"stateMutability":"view","type":"function"}],"evm":{"bytecode":{"linkReferences":{},"object":"60806040523462000027575b6200001562000114565b604051610c56620006278239610c5690f35b62000030600080fd5b6200000b565b50634e487b7160e01b600052604160045260246000fd5b90601f01601f191681019081106001600160401b038211176200006f57604052565b6200007962000036565b604052565b90620000956200008d60405190565b92836200004d565b565b602090620000b8906001600160401b038111620000bc57601f01601f191690565b0190565b620000c662000036565b601f01601f191690565b90620000e6620000e08362000097565b6200007e565b918252565b620000f76004620000d0565b631d195cdd60e21b602082015290565b62000111620000eb565b90565b6200009560006200012462000107565b62000578565b6200011160806200007e565b6001600160a01b031690565b50634e487b7160e01b600052603260045260246000fd5b6200017c60049162000169815490565b8410156200018557600052602060002090565b91020190600090565b6200018f62000142565b600052602060002090565b50634e487b7160e01b600052600060045260246000fd5b90600019905b9181191691161790565b6200011162000111620001119290565b90620001e562000111620001ed92620001c1565b8254620001b1565b9055565b906001600160a01b0390620001b7565b620001119062000136906001600160a01b031682565b620001119062000201565b620001119062000217565b906200024162000111620001ed9262000222565b8254620001f1565b50634e487b7160e01b600052602260045260246000fd5b906001600283049216801562000287575b60208310146200027d57565b6200009562000249565b91607f169162000271565b9160001960089290920291821b911b620001b7565b9190620002bc62000111620001ed93620001c1565b90835462000292565b6200009591600091620002a7565b818110620002df575050565b80620002ef6000600193620002c5565b01620002d3565b9190601f81116200030657505050565b6200031a6200009593600052602060002090565b906020601f8401819004830193106200033e575b6020601f909101040190620002d3565b90915081906200032e565b9062000353815190565b906001600160401b0382116200042b575b6200037c8262000375855462000260565b85620002f6565b602090601f8311600114620003bb57620001ed929160009183620003af575b5050600019600883021c1916906002021790565b0151905038806200039b565b601f19831691620003d185600052602060002090565b9260005b8181106200041257509160029391856001969410620003f8575b50505002019055565b01516000196008601f8516021c19169055388080620003ef565b91936020600181928787015181550195019201620003d5565b6200043562000036565b62000364565b90620000959162000349565b9060ff90620001b7565b906200046462000111620001ed92151590565b825462000447565b620000959190620004da9060609060039062000492816200048b875190565b90620001d1565b620004b660018201620004af60208801516001600160a01b031690565b906200022d565b620004d160028201620004ca604088015190565b906200043b565b01920151151590565b9062000451565b620000959291156200046c57620004f76200019a565b6200046c565b906200052962000095928054906801000000000000000082101562000530575b60018201815562000159565b90620004e1565b6200053a62000036565b6200051d565b906200054c90620001c1565b600052602052604060002090565b6001600160a01b039091168152604081019291620000959160200152565b90620005cf600062000588815490565b92620005c98291620005c03397620005aa88620005a46200012a565b97880152565b6001600160a01b03891660208701526040860152565b15156060840152565b620004fd565b620005e782620005e183600162000540565b6200022d565b7f1f54e1ba1832d428fbd7e7792beaf62b1fc5a382c207ffd614209c1413e94fda91620006216200061760405190565b928392836200055a565b0390a156fe60806040526004361015610018575b610016600080fd5b005b60003560e01c806320df4581146100545780636e13f8181461004b5763aaba29070361000e576100466103a2565b61000e565b50610046610331565b506100466101cb565b600080fd5b601f01601f191690565b50634e487b7160e01b600052604160045260246000fd5b90601f01601f1916810190811067ffffffffffffffff8211176100a557604052565b6100ad61006c565b604052565b906100c66100bf60405190565b9283610083565b565b6100e760209167ffffffffffffffff81116100eb57601f01601f191690565b0190565b61006261006c565b90826000939282370152565b9291906100c691610117610112836100c8565b6100b2565b94828652602086019183820111156100f357610131600080fd5b6100f3565b906101529181601f82011215610155575b6020813591016100ff565b90565b61015d600080fd5b610147565b8015155b0361005d57565b905035906100c682610162565b9190610152906040848203126101be575b6101a881853567ffffffffffffffff81116101b1575b8601610136565b9360200161016d565b6101b9600080fd5b6101a1565b6101c6600080fd5b61018b565b50346101ef575b6101e66101e036600461017a565b906107a6565b604051005b0390f35b6101f7600080fd5b6101d2565b600091031261020757565b6100c6600080fd5b6001600160a01b031690565b60005b83811061022e5750506000910152565b818101518382015260200161021e565b61025f6100626020936100e793610253815190565b80835293849260200190565b9586910161021b565b805182526020808201516001600160a01b03169083015290610152906060806102a0608084016040870151858203604087015261023e565b9401511515910152565b9061015291610268565b906102ca6102c0835190565b8083529160200190565b90816102dc6020830284019460200190565b926000915b8383106102f057505050505090565b9091929394602061031361030c838560019503875289516102aa565b9760200190565b93019301919392906102e1565b6020808252610152929101906102b4565b503461035a575b6103433660046101fc565b6101eb61034e610a80565b60405191829182610320565b610362600080fd5b610338565b80610166565b905035906100c682610367565b919061015290604084820312610395575b6101a8818561036d565b61039d600080fd5b61038b565b50346103bd575b6101e66103b736600461037a565b90610ba4565b6103c5600080fd5b6103a9565b61015260806100b2565b50634e487b7160e01b600052603260045260246000fd5b61040b6004916103f9815490565b84101561041457600052602060002090565b91020190600090565b61041c6103d4565b600052602060002090565b50634e487b7160e01b600052600060045260246000fd5b90600019905b9181191691161790565b6101526101526101529290565b9061046b6101526104729261044e565b825461043e565b9055565b906001600160a01b0390610444565b6101529061020f906001600160a01b031682565b61015290610485565b61015290610499565b906104bb610152610472926104a2565b8254610476565b50634e487b7160e01b600052602260045260246000fd5b90600160028304921680156104fc575b60208310146104f457565b6100c66104c2565b91607f16916104e9565b9160001960089290920291821b911b610444565b919061052b6101526104729361044e565b908354610506565b6100c69160009161051a565b81811061054a575050565b806105586000600193610533565b0161053f565b9190601f811161056d57505050565b61057f6100c693600052602060002090565b906020601f8401819004830193106105a1575b6020601f90910104019061053f565b9091508190610592565b906105b4815190565b9067ffffffffffffffff821161067f575b6105d9826105d385546104d9565b8561055e565b602090601f831160011461061457610472929160009183610609575b5050600019600883021c1916906002021790565b0151905038806105f5565b601f1983169161062985600052602060002090565b9260005b8181106106675750916002939185600196941061064e575b50505002019055565b01516000196008601f8516021c19169055388080610645565b9193602060018192878701518155019501920161062d565b61068761006c565b6105c5565b906100c6916105ab565b9060ff90610444565b906106af61015261047292151590565b8254610696565b6100c69190610719906060906003906106d7816106d1875190565b9061045b565b6106f8600182016106f260208801516001600160a01b031690565b906104ab565b6107106002820161070a604088015190565b9061068c565b01920151151590565b9061069f565b6100c69291156106b657610731610427565b6106b6565b9061075e6100c69280549068010000000000000000821015610764575b6001820181556103eb565b9061071f565b61076c61006c565b610753565b9061077b9061044e565b600052602052604060002090565b6001600160a01b0390911681526040810192916100c69160200152565b906107f560006107b4815490565b926107f082916107e733976107d1886107cb6103ca565b97880152565b6001600160a01b03891660208701526040860152565b15156060840152565b610736565b61080982610804836001610771565b6104ab565b7f1f54e1ba1832d428fbd7e7792beaf62b1fc5a382c207ffd614209c1413e94fda9161084061083760405190565b92839283610789565b0390a1565b6020809167ffffffffffffffff811161085d57020190565b61086561006c565b020190565b9061087761011283610845565b918252565b6108846103ca565b60008082526020820181905260606040830181905282015290565b61015261087c565b60005b8281106108b657505050565b6020906108c161089f565b81840152016108aa565b906100c66108e16108db8461086a565b93610845565b601f1901602084016108a7565b50634e487b7160e01b600052601160045260246000fd5b6001906000198114610915570190565b6100e76108ee565b6101529061020f565b610152905461091d565b906020809161093d845190565b81101561094b575b02010190565b6109536103d4565b610945565b6101529081565b6101529054610958565b8054600093929161098661097c836104d9565b8085529360200190565b91600181169081156109d8575060011461099f57505050565b6109b29192939450600052602060002090565b916000925b8184106109c45750500190565b8054848401526020909301926001016109b7565b92949550505060ff1916825215156020020190565b9061015291610969565b906100c6610a1192610a0860405190565b938480926109ed565b0383610083565b906100c66107e76003610a296103ca565b94610a3a610a368261095f565b8752565b610a59610a4960018301610926565b6001600160a01b03166020880152565b610a6f610a68600283016109f7565b6040880152565b015460ff1690565b61015290610a18565b600090610a93610a8e835490565b6108cb565b610a9c8361044e565b92835b610aaa610152835490565b811015610b5257610ac4610abf826001610771565b610926565b610ad6335b916001600160a01b031690565b1480610b2e575b610af0575b610aeb90610905565b610a9f565b93610b26610aeb91610b0b610b0588866103eb565b50610a77565b610b158287610930565b52610b208186610930565b50610905565b949050610ae2565b50610b476003610b3e83856103eb565b50015460ff1690565b151582151514610add565b5091610b66610b60856108cb565b9361044e565b845b811015610b9d57610b9681610b80610b689386610930565b51610b8b8288610930565b52610b208187610930565b9050610b66565b5092505090565b90610bb3610abf836001610771565b610bbc33610ac9565b14610bc5575050565b610bdd816003610bd68560006103eb565b500161069f565b7ff88a35c3d2016c409a46570b994a17b408dbc83c14a03f521512d50b85386d0691610840610c0b60405190565b9283928390815290151560208201526040019056fea26469706673582212209f315385bc69a89e242779b28b7eac77e45b7d4bececca9624964b92dcfb377a64736f6c63430008110033","opcodes":"PUSH1 0x80 PUSH1 0x40 MSTORE CALLVALUE PUSH3 0x27 JUMPI JUMPDEST PUSH3 0x15 PUSH3 0x114 JUMP JUMPDEST PUSH1 0x40 MLOAD PUSH2 0xC56 PUSH3 0x627 DUP3 CODECOPY PUSH2 0xC56 SWAP1 RETURN JUMPDEST PUSH3 0x30 PUSH1 0x0 DUP1 REVERT JUMPDEST PUSH3 0xB JUMP JUMPDEST POP PUSH4 0x4E487B71 PUSH1 0xE0 SHL PUSH1 0x0 MSTORE PUSH1 0x41 PUSH1 0x4 MSTORE PUSH1 0x24 PUSH1 0x0 REVERT JUMPDEST SWAP1 PUSH1 0x1F ADD PUSH1 0x1F NOT AND DUP2 ADD SWAP1 DUP2 LT PUSH1 0x1 PUSH1 0x1 PUSH1 0x40 SHL SUB DUP3 GT OR PUSH3 0x6F JUMPI PUSH1 0x40 MSTORE JUMP JUMPDEST PUSH3 0x79 PUSH3 0x36 JUMP JUMPDEST PUSH1 0x40 MSTORE JUMP JUMPDEST SWAP1 PUSH3 0x95 PUSH3 0x8D PUSH1 0x40 MLOAD SWAP1 JUMP JUMPDEST SWAP3 DUP4 PUSH3 0x4D JUMP JUMPDEST JUMP JUMPDEST PUSH1 0x20 SWAP1 PUSH3 0xB8 SWAP1 PUSH1 0x1 PUSH1 0x1 PUSH1 0x40 SHL SUB DUP2 GT PUSH3 0xBC JUMPI PUSH1 0x1F ADD PUSH1 0x1F NOT AND SWAP1 JUMP JUMPDEST ADD SWAP1 JUMP JUMPDEST PUSH3 0xC6 PUSH3 0x36 JUMP JUMPDEST PUSH1 0x1F ADD PUSH1 0x1F NOT AND SWAP1 JUMP JUMPDEST SWAP1 PUSH3 0xE6 PUSH3 0xE0 DUP4 PUSH3 0x97 JUMP JUMPDEST PUSH3 0x7E JUMP JUMPDEST SWAP2 DUP3 MSTORE JUMP JUMPDEST PUSH3 0xF7 PUSH1 0x4 PUSH3 0xD0 JUMP JUMPDEST PUSH4 0x1D195CDD PUSH1 0xE2 SHL PUSH1 0x20 DUP3 ADD MSTORE SWAP1 JUMP JUMPDEST PUSH3 0x111 PUSH3 0xEB JUMP JUMPDEST SWAP1 JUMP JUMPDEST PUSH3 0x95 PUSH1 0x0 PUSH3 0x124 PUSH3 0x107 JUMP JUMPDEST PUSH3 0x578 JUMP JUMPDEST PUSH3 0x111 PUSH1 0x80 PUSH3 0x7E JUMP JUMPDEST PUSH1 0x1 PUSH1 0x1 PUSH1 0xA0 SHL SUB AND SWAP1 JUMP JUMPDEST POP PUSH4 0x4E487B71 PUSH1 0xE0 SHL PUSH1 0x0 MSTORE PUSH1 0x32 PUSH1 0x4 MSTORE PUSH1 0x24 PUSH1 0x0 REVERT JUMPDEST PUSH3 0x17C PUSH1 0x4 SWAP2 PUSH3 0x169 DUP2 SLOAD SWAP1 JUMP JUMPDEST DUP5 LT ISZERO PUSH3 0x185 JUMPI PUSH1 0x0 MSTORE PUSH1 0x20 PUSH1 0x0 KECCAK256 SWAP1 JUMP JUMPDEST SWAP2 MUL ADD SWAP1 PUSH1 0x0 SWAP1 JUMP JUMPDEST PUSH3 0x18F PUSH3 0x142 JUMP JUMPDEST PUSH1 0x0 MSTORE PUSH1 0x20 PUSH1 0x0 KECCAK256 SWAP1 JUMP JUMPDEST POP PUSH4 0x4E487B71 PUSH1 0xE0 SHL PUSH1 0x0 MSTORE PUSH1 0x0 PUSH1 0x4 MSTORE PUSH1 0x24 PUSH1 0x0 REVERT JUMPDEST SWAP1 PUSH1 0x0 NOT SWAP1 JUMPDEST SWAP2 DUP2 NOT AND SWAP2 AND OR SWAP1 JUMP JUMPDEST PUSH3 0x111 PUSH3 0x111 PUSH3 0x111 SWAP3 SWAP1 JUMP JUMPDEST SWAP1 PUSH3 0x1E5 PUSH3 0x111 PUSH3 0x1ED SWAP3 PUSH3 0x1C1 JUMP JUMPDEST DUP3 SLOAD PUSH3 0x1B1 JUMP JUMPDEST SWAP1 SSTORE JUMP JUMPDEST SWAP1 PUSH1 0x1 PUSH1 0x1 PUSH1 0xA0 SHL SUB SWAP1 PUSH3 0x1B7 JUMP JUMPDEST PUSH3 0x111 SWAP1 PUSH3 0x136 SWAP1 PUSH1 0x1 PUSH1 0x1 PUSH1 0xA0 SHL SUB AND DUP3 JUMP JUMPDEST PUSH3 0x111 SWAP1 PUSH3 0x201 JUMP JUMPDEST PUSH3 0x111 SWAP1 PUSH3 0x217 JUMP JUMPDEST SWAP1 PUSH3 0x241 PUSH3 0x111 PUSH3 0x1ED SWAP3 PUSH3 0x222 JUMP JUMPDEST DUP3 SLOAD PUSH3 0x1F1 JUMP JUMPDEST POP PUSH4 0x4E487B71 PUSH1 0xE0 SHL PUSH1 0x0 MSTORE PUSH1 0x22 PUSH1 0x4 MSTORE PUSH1 0x24 PUSH1 0x0 REVERT JUMPDEST SWAP1 PUSH1 0x1 PUSH1 0x2 DUP4 DIV SWAP3 AND DUP1 ISZERO PUSH3 0x287 JUMPI JUMPDEST PUSH1 0x20 DUP4 LT EQ PUSH3 0x27D JUMPI JUMP JUMPDEST PUSH3 0x95 PUSH3 0x249 JUMP JUMPDEST SWAP2 PUSH1 0x7F AND SWAP2 PUSH3 0x271 JUMP JUMPDEST SWAP2 PUSH1 0x0 NOT PUSH1 0x8 SWAP3 SWAP1 SWAP3 MUL SWAP2 DUP3 SHL SWAP2 SHL PUSH3 0x1B7 JUMP JUMPDEST SWAP2 SWAP1 PUSH3 0x2BC PUSH3 0x111 PUSH3 0x1ED SWAP4 PUSH3 0x1C1 JUMP JUMPDEST SWAP1 DUP4 SLOAD PUSH3 0x292 JUMP JUMPDEST PUSH3 0x95 SWAP2 PUSH1 0x0 SWAP2 PUSH3 0x2A7 JUMP JUMPDEST DUP2 DUP2 LT PUSH3 0x2DF JUMPI POP POP JUMP JUMPDEST DUP1 PUSH3 0x2EF PUSH1 0x0 PUSH1 0x1 SWAP4 PUSH3 0x2C5 JUMP JUMPDEST ADD PUSH3 0x2D3 JUMP JUMPDEST SWAP2 SWAP1 PUSH1 0x1F DUP2 GT PUSH3 0x306 JUMPI POP POP POP JUMP JUMPDEST PUSH3 0x31A PUSH3 0x95 SWAP4 PUSH1 0x0 MSTORE PUSH1 0x20 PUSH1 0x0 KECCAK256 SWAP1 JUMP JUMPDEST SWAP1 PUSH1 0x20 PUSH1 0x1F DUP5 ADD DUP2 SWAP1 DIV DUP4 ADD SWAP4 LT PUSH3 0x33E JUMPI JUMPDEST PUSH1 0x20 PUSH1 0x1F SWAP1 SWAP2 ADD DIV ADD SWAP1 PUSH3 0x2D3 JUMP JUMPDEST SWAP1 SWAP2 POP DUP2 SWAP1 PUSH3 0x32E JUMP JUMPDEST SWAP1 PUSH3 0x353 DUP2 MLOAD SWAP1 JUMP JUMPDEST SWAP1 PUSH1 0x1 PUSH1 0x1 PUSH1 0x40 SHL SUB DUP3 GT PUSH3 0x42B JUMPI JUMPDEST PUSH3 0x37C DUP3 PUSH3 0x375 DUP6 SLOAD PUSH3 0x260 JUMP JUMPDEST DUP6 PUSH3 0x2F6 JUMP JUMPDEST PUSH1 0x20 SWAP1 PUSH1 0x1F DUP4 GT PUSH1 0x1 EQ PUSH3 0x3BB JUMPI PUSH3 0x1ED SWAP3 SWAP2 PUSH1 0x0 SWAP2 DUP4 PUSH3 0x3AF JUMPI JUMPDEST POP POP PUSH1 0x0 NOT PUSH1 0x8 DUP4 MUL SHR NOT AND SWAP1 PUSH1 0x2 MUL OR SWAP1 JUMP JUMPDEST ADD MLOAD SWAP1 POP CODESIZE DUP1 PUSH3 0x39B JUMP JUMPDEST PUSH1 0x1F NOT DUP4 AND SWAP2 PUSH3 0x3D1 DUP6 PUSH1 0x0 MSTORE PUSH1 0x20 PUSH1 0x0 KECCAK256 SWAP1 JUMP JUMPDEST SWAP3 PUSH1 0x0 JUMPDEST DUP2 DUP2 LT PUSH3 0x412 JUMPI POP SWAP2 PUSH1 0x2 SWAP4 SWAP2 DUP6 PUSH1 0x1 SWAP7 SWAP5 LT PUSH3 0x3F8 JUMPI JUMPDEST POP POP POP MUL ADD SWAP1 SSTORE JUMP JUMPDEST ADD MLOAD PUSH1 0x0 NOT PUSH1 0x8 PUSH1 0x1F DUP6 AND MUL SHR NOT AND SWAP1 SSTORE CODESIZE DUP1 DUP1 PUSH3 0x3EF JUMP JUMPDEST SWAP2 SWAP4 PUSH1 0x20 PUSH1 0x1 DUP2 SWAP3 DUP8 DUP8 ADD MLOAD DUP2 SSTORE ADD SWAP6 ADD SWAP3 ADD PUSH3 0x3D5 JUMP JUMPDEST PUSH3 0x435 PUSH3 0x36 JUMP JUMPDEST PUSH3 0x364 JUMP JUMPDEST SWAP1 PUSH3 0x95 SWAP2 PUSH3 0x349 JUMP JUMPDEST SWAP1 PUSH1 0xFF SWAP1 PUSH3 0x1B7 JUMP JUMPDEST SWAP1 PUSH3 0x464 PUSH3 0x111 PUSH3 0x1ED SWAP3 ISZERO ISZERO SWAP1 JUMP JUMPDEST DUP3 SLOAD PUSH3 0x447 JUMP JUMPDEST PUSH3 0x95 SWAP2 SWAP1 PUSH3 0x4DA SWAP1 PUSH1 0x60 SWAP1 PUSH1 0x3 SWAP1 PUSH3 0x492 DUP2 PUSH3 0x48B DUP8 MLOAD SWAP1 JUMP JUMPDEST SWAP1 PUSH3 0x1D1 JUMP JUMPDEST PUSH3 0x4B6 PUSH1 0x1 DUP3 ADD PUSH3 0x4AF PUSH1 0x20 DUP9 ADD MLOAD PUSH1 0x1 PUSH1 0x1 PUSH1 0xA0 SHL SUB AND SWAP1 JUMP JUMPDEST SWAP1 PUSH3 0x22D JUMP JUMPDEST PUSH3 0x4D1 PUSH1 0x2 DUP3 ADD PUSH3 0x4CA PUSH1 0x40 DUP9 ADD MLOAD SWAP1 JUMP JUMPDEST SWAP1 PUSH3 0x43B JUMP JUMPDEST ADD SWAP3 ADD MLOAD ISZERO ISZERO SWAP1 JUMP JUMPDEST SWAP1 PUSH3 0x451 JUMP JUMPDEST PUSH3 0x95 SWAP3 SWAP2 ISZERO PUSH3 0x46C JUMPI PUSH3 0x4F7 PUSH3 0x19A JUMP JUMPDEST PUSH3 0x46C JUMP JUMPDEST SWAP1 PUSH3 0x529 PUSH3 0x95 SWAP3 DUP1 SLOAD SWAP1 PUSH9 0x10000000000000000 DUP3 LT ISZERO PUSH3 0x530 JUMPI JUMPDEST PUSH1 0x1 DUP3 ADD DUP2 SSTORE PUSH3 0x159 JUMP JUMPDEST SWAP1 PUSH3 0x4E1 JUMP JUMPDEST PUSH3 0x53A PUSH3 0x36 JUMP JUMPDEST PUSH3 0x51D JUMP JUMPDEST SWAP1 PUSH3 0x54C SWAP1 PUSH3 0x1C1 JUMP JUMPDEST PUSH1 0x0 MSTORE PUSH1 0x20 MSTORE PUSH1 0x40 PUSH1 0x0 KECCAK256 SWAP1 JUMP JUMPDEST PUSH1 0x1 PUSH1 0x1 PUSH1 0xA0 SHL SUB SWAP1 SWAP2 AND DUP2 MSTORE PUSH1 0x40 DUP2 ADD SWAP3 SWAP2 PUSH3 0x95 SWAP2 PUSH1 0x20 ADD MSTORE JUMP JUMPDEST SWAP1 PUSH3 0x5CF PUSH1 0x0 PUSH3 0x588 DUP2 SLOAD SWAP1 JUMP JUMPDEST SWAP3 PUSH3 0x5C9 DUP3 SWAP2 PUSH3 0x5C0 CALLER SWAP8 PUSH3 0x5AA DUP9 PUSH3 0x5A4 PUSH3 0x12A JUMP JUMPDEST SWAP8 DUP9 ADD MSTORE JUMP JUMPDEST PUSH1 0x1 PUSH1 0x1 PUSH1 0xA0 SHL SUB DUP10 AND PUSH1 0x20 DUP8 ADD MSTORE PUSH1 0x40 DUP7 ADD MSTORE JUMP JUMPDEST ISZERO ISZERO PUSH1 0x60 DUP5 ADD MSTORE JUMP JUMPDEST PUSH3 0x4FD JUMP JUMPDEST PUSH3 0x5E7 DUP3 PUSH3 0x5E1 DUP4 PUSH1 0x1 PUSH3 0x540 JUMP JUMPDEST PUSH3 0x22D JUMP JUMPDEST PUSH32 0x1F54E1BA1832D428FBD7E7792BEAF62B1FC5A382C207FFD614209C1413E94FDA SWAP2 PUSH3 0x621 PUSH3 0x617 PUSH1 0x40 MLOAD SWAP1 JUMP JUMPDEST SWAP3 DUP4 SWAP3 DUP4 PUSH3 0x55A JUMP JUMPDEST SUB SWAP1 LOG1 JUMP INVALID PUSH1 0x80 PUSH1 0x40 MSTORE PUSH1 0x4 CALLDATASIZE LT ISZERO PUSH2 0x18 JUMPI JUMPDEST PUSH2 0x16 PUSH1 0x0 DUP1 REVERT JUMPDEST STOP JUMPDEST PUSH1 0x0 CALLDATALOAD PUSH1 0xE0 SHR DUP1 PUSH4 0x20DF4581 EQ PUSH2 0x54 JUMPI DUP1 PUSH4 0x6E13F818 EQ PUSH2 0x4B JUMPI PUSH4 0xAABA2907 SUB PUSH2 0xE JUMPI PUSH2 0x46 PUSH2 0x3A2 JUMP JUMPDEST PUSH2 0xE JUMP JUMPDEST POP PUSH2 0x46 PUSH2 0x331 JUMP JUMPDEST POP PUSH2 0x46 PUSH2 0x1CB JUMP JUMPDEST PUSH1 0x0 DUP1 REVERT JUMPDEST PUSH1 0x1F ADD PUSH1 0x1F NOT AND SWAP1 JUMP JUMPDEST POP PUSH4 0x4E487B71 PUSH1 0xE0 SHL PUSH1 0x0 MSTORE PUSH1 0x41 PUSH1 0x4 MSTORE PUSH1 0x24 PUSH1 0x0 REVERT JUMPDEST SWAP1 PUSH1 0x1F ADD PUSH1 0x1F NOT AND DUP2 ADD SWAP1 DUP2 LT PUSH8 0xFFFFFFFFFFFFFFFF DUP3 GT OR PUSH2 0xA5 JUMPI PUSH1 0x40 MSTORE JUMP JUMPDEST PUSH2 0xAD PUSH2 0x6C JUMP JUMPDEST PUSH1 0x40 MSTORE JUMP JUMPDEST SWAP1 PUSH2 0xC6 PUSH2 0xBF PUSH1 0x40 MLOAD SWAP1 JUMP JUMPDEST SWAP3 DUP4 PUSH2 0x83 JUMP JUMPDEST JUMP JUMPDEST PUSH2 0xE7 PUSH1 0x20 SWAP2 PUSH8 0xFFFFFFFFFFFFFFFF DUP2 GT PUSH2 0xEB JUMPI PUSH1 0x1F ADD PUSH1 0x1F NOT AND SWAP1 JUMP JUMPDEST ADD SWAP1 JUMP JUMPDEST PUSH2 0x62 PUSH2 0x6C JUMP JUMPDEST SWAP1 DUP3 PUSH1 0x0 SWAP4 SWAP3 DUP3 CALLDATACOPY ADD MSTORE JUMP JUMPDEST SWAP3 SWAP2 SWAP1 PUSH2 0xC6 SWAP2 PUSH2 0x117 PUSH2 0x112 DUP4 PUSH2 0xC8 JUMP JUMPDEST PUSH2 0xB2 JUMP JUMPDEST SWAP5 DUP3 DUP7 MSTORE PUSH1 0x20 DUP7 ADD SWAP2 DUP4 DUP3 ADD GT ISZERO PUSH2 0xF3 JUMPI PUSH2 0x131 PUSH1 0x0 DUP1 REVERT JUMPDEST PUSH2 0xF3 JUMP JUMPDEST SWAP1 PUSH2 0x152 SWAP2 DUP2 PUSH1 0x1F DUP3 ADD SLT ISZERO PUSH2 0x155 JUMPI JUMPDEST PUSH1 0x20 DUP2 CALLDATALOAD SWAP2 ADD PUSH2 0xFF JUMP JUMPDEST SWAP1 JUMP JUMPDEST PUSH2 0x15D PUSH1 0x0 DUP1 REVERT JUMPDEST PUSH2 0x147 JUMP JUMPDEST DUP1 ISZERO ISZERO JUMPDEST SUB PUSH2 0x5D JUMPI JUMP JUMPDEST SWAP1 POP CALLDATALOAD SWAP1 PUSH2 0xC6 DUP3 PUSH2 0x162 JUMP JUMPDEST SWAP2 SWAP1 PUSH2 0x152 SWAP1 PUSH1 0x40 DUP5 DUP3 SUB SLT PUSH2 0x1BE JUMPI JUMPDEST PUSH2 0x1A8 DUP2 DUP6 CALLDATALOAD PUSH8 0xFFFFFFFFFFFFFFFF DUP2 GT PUSH2 0x1B1 JUMPI JUMPDEST DUP7 ADD PUSH2 0x136 JUMP JUMPDEST SWAP4 PUSH1 0x20 ADD PUSH2 0x16D JUMP JUMPDEST PUSH2 0x1B9 PUSH1 0x0 DUP1 REVERT JUMPDEST PUSH2 0x1A1 JUMP JUMPDEST PUSH2 0x1C6 PUSH1 0x0 DUP1 REVERT JUMPDEST PUSH2 0x18B JUMP JUMPDEST POP CALLVALUE PUSH2 0x1EF JUMPI JUMPDEST PUSH2 0x1E6 PUSH2 0x1E0 CALLDATASIZE PUSH1 0x4 PUSH2 0x17A JUMP JUMPDEST SWAP1 PUSH2 0x7A6 JUMP JUMPDEST PUSH1 0x40 MLOAD STOP JUMPDEST SUB SWAP1 RETURN JUMPDEST PUSH2 0x1F7 PUSH1 0x0 DUP1 REVERT JUMPDEST PUSH2 0x1D2 JUMP JUMPDEST PUSH1 0x0 SWAP2 SUB SLT PUSH2 0x207 JUMPI JUMP JUMPDEST PUSH2 0xC6 PUSH1 0x0 DUP1 REVERT JUMPDEST PUSH1 0x1 PUSH1 0x1 PUSH1 0xA0 SHL SUB AND SWAP1 JUMP JUMPDEST PUSH1 0x0 JUMPDEST DUP4 DUP2 LT PUSH2 0x22E JUMPI POP POP PUSH1 0x0 SWAP2 ADD MSTORE JUMP JUMPDEST DUP2 DUP2 ADD MLOAD DUP4 DUP3 ADD MSTORE PUSH1 0x20 ADD PUSH2 0x21E JUMP JUMPDEST PUSH2 0x25F PUSH2 0x62 PUSH1 0x20 SWAP4 PUSH2 0xE7 SWAP4 PUSH2 0x253 DUP2 MLOAD SWAP1 JUMP JUMPDEST DUP1 DUP4 MSTORE SWAP4 DUP5 SWAP3 PUSH1 0x20 ADD SWAP1 JUMP JUMPDEST SWAP6 DUP7 SWAP2 ADD PUSH2 0x21B JUMP JUMPDEST DUP1 MLOAD DUP3 MSTORE PUSH1 0x20 DUP1 DUP3 ADD MLOAD PUSH1 0x1 PUSH1 0x1 PUSH1 0xA0 SHL SUB AND SWAP1 DUP4 ADD MSTORE SWAP1 PUSH2 0x152 SWAP1 PUSH1 0x60 DUP1 PUSH2 0x2A0 PUSH1 0x80 DUP5 ADD PUSH1 0x40 DUP8 ADD MLOAD DUP6 DUP3 SUB PUSH1 0x40 DUP8 ADD MSTORE PUSH2 0x23E JUMP JUMPDEST SWAP5 ADD MLOAD ISZERO ISZERO SWAP2 ADD MSTORE JUMP JUMPDEST SWAP1 PUSH2 0x152 SWAP2 PUSH2 0x268 JUMP JUMPDEST SWAP1 PUSH2 0x2CA PUSH2 0x2C0 DUP4 MLOAD SWAP1 JUMP JUMPDEST DUP1 DUP4 MSTORE SWAP2 PUSH1 0x20 ADD SWAP1 JUMP JUMPDEST SWAP1 DUP2 PUSH2 0x2DC PUSH1 0x20 DUP4 MUL DUP5 ADD SWAP5 PUSH1 0x20 ADD SWAP1 JUMP JUMPDEST SWAP3 PUSH1 0x0 SWAP2 JUMPDEST DUP4 DUP4 LT PUSH2 0x2F0 JUMPI POP POP POP POP POP SWAP1 JUMP JUMPDEST SWAP1 SWAP2 SWAP3 SWAP4 SWAP5 PUSH1 0x20 PUSH2 0x313 PUSH2 0x30C DUP4 DUP6 PUSH1 0x1 SWAP6 SUB DUP8 MSTORE DUP10 MLOAD PUSH2 0x2AA JUMP JUMPDEST SWAP8 PUSH1 0x20 ADD SWAP1 JUMP JUMPDEST SWAP4 ADD SWAP4 ADD SWAP2 SWAP4 SWAP3 SWAP1 PUSH2 0x2E1 JUMP JUMPDEST PUSH1 0x20 DUP1 DUP3 MSTORE PUSH2 0x152 SWAP3 SWAP2 ADD SWAP1 PUSH2 0x2B4 JUMP JUMPDEST POP CALLVALUE PUSH2 0x35A JUMPI JUMPDEST PUSH2 0x343 CALLDATASIZE PUSH1 0x4 PUSH2 0x1FC JUMP JUMPDEST PUSH2 0x1EB PUSH2 0x34E PUSH2 0xA80 JUMP JUMPDEST PUSH1 0x40 MLOAD SWAP2 DUP3 SWAP2 DUP3 PUSH2 0x320 JUMP JUMPDEST PUSH2 0x362 PUSH1 0x0 DUP1 REVERT JUMPDEST PUSH2 0x338 JUMP JUMPDEST DUP1 PUSH2 0x166 JUMP JUMPDEST SWAP1 POP CALLDATALOAD SWAP1 PUSH2 0xC6 DUP3 PUSH2 0x367 JUMP JUMPDEST SWAP2 SWAP1 PUSH2 0x152 SWAP1 PUSH1 0x40 DUP5 DUP3 SUB SLT PUSH2 0x395 JUMPI JUMPDEST PUSH2 0x1A8 DUP2 DUP6 PUSH2 0x36D JUMP JUMPDEST PUSH2 0x39D PUSH1 0x0 DUP1 REVERT JUMPDEST PUSH2 0x38B JUMP JUMPDEST POP CALLVALUE PUSH2 0x3BD JUMPI JUMPDEST PUSH2 0x1E6 PUSH2 0x3B7 CALLDATASIZE PUSH1 0x4 PUSH2 0x37A JUMP JUMPDEST SWAP1 PUSH2 0xBA4 JUMP JUMPDEST PUSH2 0x3C5 PUSH1 0x0 DUP1 REVERT JUMPDEST PUSH2 0x3A9 JUMP JUMPDEST PUSH2 0x152 PUSH1 0x80 PUSH2 0xB2 JUMP JUMPDEST POP PUSH4 0x4E487B71 PUSH1 0xE0 SHL PUSH1 0x0 MSTORE PUSH1 0x32 PUSH1 0x4 MSTORE PUSH1 0x24 PUSH1 0x0 REVERT JUMPDEST PUSH2 0x40B PUSH1 0x4 SWAP2 PUSH2 0x3F9 DUP2 SLOAD SWAP1 JUMP JUMPDEST DUP5 LT ISZERO PUSH2 0x414 JUMPI PUSH1 0x0 MSTORE PUSH1 0x20 PUSH1 0x0 KECCAK256 SWAP1 JUMP JUMPDEST SWAP2 MUL ADD SWAP1 PUSH1 0x0 SWAP1 JUMP JUMPDEST PUSH2 0x41C PUSH2 0x3D4 JUMP JUMPDEST PUSH1 0x0 MSTORE PUSH1 0x20 PUSH1 0x0 KECCAK256 SWAP1 JUMP JUMPDEST POP PUSH4 0x4E487B71 PUSH1 0xE0 SHL PUSH1 0x0 MSTORE PUSH1 0x0 PUSH1 0x4 MSTORE PUSH1 0x24 PUSH1 0x0 REVERT JUMPDEST SWAP1 PUSH1 0x0 NOT SWAP1 JUMPDEST SWAP2 DUP2 NOT AND SWAP2 AND OR SWAP1 JUMP JUMPDEST PUSH2 0x152 PUSH2 0x152 PUSH2 0x152 SWAP3 SWAP1 JUMP JUMPDEST SWAP1 PUSH2 0x46B PUSH2 0x152 PUSH2 0x472 SWAP3 PUSH2 0x44E JUMP JUMPDEST DUP3 SLOAD PUSH2 0x43E JUMP JUMPDEST SWAP1 SSTORE JUMP JUMPDEST SWAP1 PUSH1 0x1 PUSH1 0x1 PUSH1 0xA0 SHL SUB SWAP1 PUSH2 0x444 JUMP JUMPDEST PUSH2 0x152 SWAP1 PUSH2 0x20F SWAP1 PUSH1 0x1 PUSH1 0x1 PUSH1 0xA0 SHL SUB AND DUP3 JUMP JUMPDEST PUSH2 0x152 SWAP1 PUSH2 0x485 JUMP JUMPDEST PUSH2 0x152 SWAP1 PUSH2 0x499 JUMP JUMPDEST SWAP1 PUSH2 0x4BB PUSH2 0x152 PUSH2 0x472 SWAP3 PUSH2 0x4A2 JUMP JUMPDEST DUP3 SLOAD PUSH2 0x476 JUMP JUMPDEST POP PUSH4 0x4E487B71 PUSH1 0xE0 SHL PUSH1 0x0 MSTORE PUSH1 0x22 PUSH1 0x4 MSTORE PUSH1 0x24 PUSH1 0x0 REVERT JUMPDEST SWAP1 PUSH1 0x1 PUSH1 0x2 DUP4 DIV SWAP3 AND DUP1 ISZERO PUSH2 0x4FC JUMPI JUMPDEST PUSH1 0x20 DUP4 LT EQ PUSH2 0x4F4 JUMPI JUMP JUMPDEST PUSH2 0xC6 PUSH2 0x4C2 JUMP JUMPDEST SWAP2 PUSH1 0x7F AND SWAP2 PUSH2 0x4E9 JUMP JUMPDEST SWAP2 PUSH1 0x0 NOT PUSH1 0x8 SWAP3 SWAP1 SWAP3 MUL SWAP2 DUP3 SHL SWAP2 SHL PUSH2 0x444 JUMP JUMPDEST SWAP2 SWAP1 PUSH2 0x52B PUSH2 0x152 PUSH2 0x472 SWAP4 PUSH2 0x44E JUMP JUMPDEST SWAP1 DUP4 SLOAD PUSH2 0x506 JUMP JUMPDEST PUSH2 0xC6 SWAP2 PUSH1 0x0 SWAP2 PUSH2 0x51A JUMP JUMPDEST DUP2 DUP2 LT PUSH2 0x54A JUMPI POP POP JUMP JUMPDEST DUP1 PUSH2 0x558 PUSH1 0x0 PUSH1 0x1 SWAP4 PUSH2 0x533 JUMP JUMPDEST ADD PUSH2 0x53F JUMP JUMPDEST SWAP2 SWAP1 PUSH1 0x1F DUP2 GT PUSH2 0x56D JUMPI POP POP POP JUMP JUMPDEST PUSH2 0x57F PUSH2 0xC6 SWAP4 PUSH1 0x0 MSTORE PUSH1 0x20 PUSH1 0x0 KECCAK256 SWAP1 JUMP JUMPDEST SWAP1 PUSH1 0x20 PUSH1 0x1F DUP5 ADD DUP2 SWAP1 DIV DUP4 ADD SWAP4 LT PUSH2 0x5A1 JUMPI JUMPDEST PUSH1 0x20 PUSH1 0x1F SWAP1 SWAP2 ADD DIV ADD SWAP1 PUSH2 0x53F JUMP JUMPDEST SWAP1 SWAP2 POP DUP2 SWAP1 PUSH2 0x592 JUMP JUMPDEST SWAP1 PUSH2 0x5B4 DUP2 MLOAD SWAP1 JUMP JUMPDEST SWAP1 PUSH8 0xFFFFFFFFFFFFFFFF DUP3 GT PUSH2 0x67F JUMPI JUMPDEST PUSH2 0x5D9 DUP3 PUSH2 0x5D3 DUP6 SLOAD PUSH2 0x4D9 JUMP JUMPDEST DUP6 PUSH2 0x55E JUMP JUMPDEST PUSH1 0x20 SWAP1 PUSH1 0x1F DUP4 GT PUSH1 0x1 EQ PUSH2 0x614 JUMPI PUSH2 0x472 SWAP3 SWAP2 PUSH1 0x0 SWAP2 DUP4 PUSH2 0x609 JUMPI JUMPDEST POP POP PUSH1 0x0 NOT PUSH1 0x8 DUP4 MUL SHR NOT AND SWAP1 PUSH1 0x2 MUL OR SWAP1 JUMP JUMPDEST ADD MLOAD SWAP1 POP CODESIZE DUP1 PUSH2 0x5F5 JUMP JUMPDEST PUSH1 0x1F NOT DUP4 AND SWAP2 PUSH2 0x629 DUP6 PUSH1 0x0 MSTORE PUSH1 0x20 PUSH1 0x0 KECCAK256 SWAP1 JUMP JUMPDEST SWAP3 PUSH1 0x0 JUMPDEST DUP2 DUP2 LT PUSH2 0x667 JUMPI POP SWAP2 PUSH1 0x2 SWAP4 SWAP2 DUP6 PUSH1 0x1 SWAP7 SWAP5 LT PUSH2 0x64E JUMPI JUMPDEST POP POP POP MUL ADD SWAP1 SSTORE JUMP JUMPDEST ADD MLOAD PUSH1 0x0 NOT PUSH1 0x8 PUSH1 0x1F DUP6 AND MUL SHR NOT AND SWAP1 SSTORE CODESIZE DUP1 DUP1 PUSH2 0x645 JUMP JUMPDEST SWAP2 SWAP4 PUSH1 0x20 PUSH1 0x1 DUP2 SWAP3 DUP8 DUP8 ADD MLOAD DUP2 SSTORE ADD SWAP6 ADD SWAP3 ADD PUSH2 0x62D JUMP JUMPDEST PUSH2 0x687 PUSH2 0x6C JUMP JUMPDEST PUSH2 0x5C5 JUMP JUMPDEST SWAP1 PUSH2 0xC6 SWAP2 PUSH2 0x5AB JUMP JUMPDEST SWAP1 PUSH1 0xFF SWAP1 PUSH2 0x444 JUMP JUMPDEST SWAP1 PUSH2 0x6AF PUSH2 0x152 PUSH2 0x472 SWAP3 ISZERO ISZERO SWAP1 JUMP JUMPDEST DUP3 SLOAD PUSH2 0x696 JUMP JUMPDEST PUSH2 0xC6 SWAP2 SWAP1 PUSH2 0x719 SWAP1 PUSH1 0x60 SWAP1 PUSH1 0x3 SWAP1 PUSH2 0x6D7 DUP2 PUSH2 0x6D1 DUP8 MLOAD SWAP1 JUMP JUMPDEST SWAP1 PUSH2 0x45B JUMP JUMPDEST PUSH2 0x6F8 PUSH1 0x1 DUP3 ADD PUSH2 0x6F2 PUSH1 0x20 DUP9 ADD MLOAD PUSH1 0x1 PUSH1 0x1 PUSH1 0xA0 SHL SUB AND SWAP1 JUMP JUMPDEST SWAP1 PUSH2 0x4AB JUMP JUMPDEST PUSH2 0x710 PUSH1 0x2 DUP3 ADD PUSH2 0x70A PUSH1 0x40 DUP9 ADD MLOAD SWAP1 JUMP JUMPDEST SWAP1 PUSH2 0x68C JUMP JUMPDEST ADD SWAP3 ADD MLOAD ISZERO ISZERO SWAP1 JUMP JUMPDEST SWAP1 PUSH2 0x69F JUMP JUMPDEST PUSH2 0xC6 SWAP3 SWAP2 ISZERO PUSH2 0x6B6 JUMPI PUSH2 0x731 PUSH2 0x427 JUMP JUMPDEST PUSH2 0x6B6 JUMP JUMPDEST SWAP1 PUSH2 0x75E PUSH2 0xC6 SWAP3 DUP1 SLOAD SWAP1 PUSH9 0x10000000000000000 DUP3 LT ISZERO PUSH2 0x764 JUMPI JUMPDEST PUSH1 0x1 DUP3 ADD DUP2 SSTORE PUSH2 0x3EB JUMP JUMPDEST SWAP1 PUSH2 0x71F JUMP JUMPDEST PUSH2 0x76C PUSH2 0x6C JUMP JUMPDEST PUSH2 0x753 JUMP JUMPDEST SWAP1 PUSH2 0x77B SWAP1 PUSH2 0x44E JUMP JUMPDEST PUSH1 0x0 MSTORE PUSH1 0x20 MSTORE PUSH1 0x40 PUSH1 0x0 KECCAK256 SWAP1 JUMP JUMPDEST PUSH1 0x1 PUSH1 0x1 PUSH1 0xA0 SHL SUB SWAP1 SWAP2 AND DUP2 MSTORE PUSH1 0x40 DUP2 ADD SWAP3 SWAP2 PUSH2 0xC6 SWAP2 PUSH1 0x20 ADD MSTORE JUMP JUMPDEST SWAP1 PUSH2 0x7F5 PUSH1 0x0 PUSH2 0x7B4 DUP2 SLOAD SWAP1 JUMP JUMPDEST SWAP3 PUSH2 0x7F0 DUP3 SWAP2 PUSH2 0x7E7 CALLER SWAP8 PUSH2 0x7D1 DUP9 PUSH2 0x7CB PUSH2 0x3CA JUMP JUMPDEST SWAP8 DUP9 ADD MSTORE JUMP JUMPDEST PUSH1 0x1 PUSH1 0x1 PUSH1 0xA0 SHL SUB DUP10 AND PUSH1 0x20 DUP8 ADD MSTORE PUSH1 0x40 DUP7 ADD MSTORE JUMP JUMPDEST ISZERO ISZERO PUSH1 0x60 DUP5 ADD MSTORE JUMP JUMPDEST PUSH2 0x736 JUMP JUMPDEST PUSH2 0x809 DUP3 PUSH2 0x804 DUP4 PUSH1 0x1 PUSH2 0x771 JUMP JUMPDEST PUSH2 0x4AB JUMP JUMPDEST PUSH32 0x1F54E1BA1832D428FBD7E7792BEAF62B1FC5A382C207FFD614209C1413E94FDA SWAP2 PUSH2 0x840 PUSH2 0x837 PUSH1 0x40 MLOAD SWAP1 JUMP JUMPDEST SWAP3 DUP4 SWAP3 DUP4 PUSH2 0x789 JUMP JUMPDEST SUB SWAP1 LOG1 JUMP JUMPDEST PUSH1 0x20 DUP1 SWAP2 PUSH8 0xFFFFFFFFFFFFFFFF DUP2 GT PUSH2 0x85D JUMPI MUL ADD SWAP1 JUMP JUMPDEST PUSH2 0x865 PUSH2 0x6C JUMP JUMPDEST MUL ADD SWAP1 JUMP JUMPDEST SWAP1 PUSH2 0x877 PUSH2 0x112 DUP4 PUSH2 0x845 JUMP JUMPDEST SWAP2 DUP3 MSTORE JUMP JUMPDEST PUSH2 0x884 PUSH2 0x3CA JUMP JUMPDEST PUSH1 0x0 DUP1 DUP3 MSTORE PUSH1 0x20 DUP3 ADD DUP2 SWAP1 MSTORE PUSH1 0x60 PUSH1 0x40 DUP4 ADD DUP2 SWAP1 MSTORE DUP3 ADD MSTORE SWAP1 JUMP JUMPDEST PUSH2 0x152 PUSH2 0x87C JUMP JUMPDEST PUSH1 0x0 JUMPDEST DUP3 DUP2 LT PUSH2 0x8B6 JUMPI POP POP POP JUMP JUMPDEST PUSH1 0x20 SWAP1 PUSH2 0x8C1 PUSH2 0x89F JUMP JUMPDEST DUP2 DUP5 ADD MSTORE ADD PUSH2 0x8AA JUMP JUMPDEST SWAP1 PUSH2 0xC6 PUSH2 0x8E1 PUSH2 0x8DB DUP5 PUSH2 0x86A JUMP JUMPDEST SWAP4 PUSH2 0x845 JUMP JUMPDEST PUSH1 0x1F NOT ADD PUSH1 0x20 DUP5 ADD PUSH2 0x8A7 JUMP JUMPDEST POP PUSH4 0x4E487B71 PUSH1 0xE0 SHL PUSH1 0x0 MSTORE PUSH1 0x11 PUSH1 0x4 MSTORE PUSH1 0x24 PUSH1 0x0 REVERT JUMPDEST PUSH1 0x1 SWAP1 PUSH1 0x0 NOT DUP2 EQ PUSH2 0x915 JUMPI ADD SWAP1 JUMP JUMPDEST PUSH2 0xE7 PUSH2 0x8EE JUMP JUMPDEST PUSH2 0x152 SWAP1 PUSH2 0x20F JUMP JUMPDEST PUSH2 0x152 SWAP1 SLOAD PUSH2 0x91D JUMP JUMPDEST SWAP1 PUSH1 0x20 DUP1 SWAP2 PUSH2 0x93D DUP5 MLOAD SWAP1 JUMP JUMPDEST DUP2 LT ISZERO PUSH2 0x94B JUMPI JUMPDEST MUL ADD ADD SWAP1 JUMP JUMPDEST PUSH2 0x953 PUSH2 0x3D4 JUMP JUMPDEST PUSH2 0x945 JUMP JUMPDEST PUSH2 0x152 SWAP1 DUP2 JUMP JUMPDEST PUSH2 0x152 SWAP1 SLOAD PUSH2 0x958 JUMP JUMPDEST DUP1 SLOAD PUSH1 0x0 SWAP4 SWAP3 SWAP2 PUSH2 0x986 PUSH2 0x97C DUP4 PUSH2 0x4D9 JUMP JUMPDEST DUP1 DUP6 MSTORE SWAP4 PUSH1 0x20 ADD SWAP1 JUMP JUMPDEST SWAP2 PUSH1 0x1 DUP2 AND SWAP1 DUP2 ISZERO PUSH2 0x9D8 JUMPI POP PUSH1 0x1 EQ PUSH2 0x99F JUMPI POP POP POP JUMP JUMPDEST PUSH2 0x9B2 SWAP2 SWAP3 SWAP4 SWAP5 POP PUSH1 0x0 MSTORE PUSH1 0x20 PUSH1 0x0 KECCAK256 SWAP1 JUMP JUMPDEST SWAP2 PUSH1 0x0 SWAP3 JUMPDEST DUP2 DUP5 LT PUSH2 0x9C4 JUMPI POP POP ADD SWAP1 JUMP JUMPDEST DUP1 SLOAD DUP5 DUP5 ADD MSTORE PUSH1 0x20 SWAP1 SWAP4 ADD SWAP3 PUSH1 0x1 ADD PUSH2 0x9B7 JUMP JUMPDEST SWAP3 SWAP5 SWAP6 POP POP POP PUSH1 0xFF NOT AND DUP3 MSTORE ISZERO ISZERO PUSH1 0x20 MUL ADD SWAP1 JUMP JUMPDEST SWAP1 PUSH2 0x152 SWAP2 PUSH2 0x969 JUMP JUMPDEST SWAP1 PUSH2 0xC6 PUSH2 0xA11 SWAP3 PUSH2 0xA08 PUSH1 0x40 MLOAD SWAP1 JUMP JUMPDEST SWAP4 DUP5 DUP1 SWAP3 PUSH2 0x9ED JUMP JUMPDEST SUB DUP4 PUSH2 0x83 JUMP JUMPDEST SWAP1 PUSH2 0xC6 PUSH2 0x7E7 PUSH1 0x3 PUSH2 0xA29 PUSH2 0x3CA JUMP JUMPDEST SWAP5 PUSH2 0xA3A PUSH2 0xA36 DUP3 PUSH2 0x95F JUMP JUMPDEST DUP8 MSTORE JUMP JUMPDEST PUSH2 0xA59 PUSH2 0xA49 PUSH1 0x1 DUP4 ADD PUSH2 0x926 JUMP JUMPDEST PUSH1 0x1 PUSH1 0x1 PUSH1 0xA0 SHL SUB AND PUSH1 0x20 DUP9 ADD MSTORE JUMP JUMPDEST PUSH2 0xA6F PUSH2 0xA68 PUSH1 0x2 DUP4 ADD PUSH2 0x9F7 JUMP JUMPDEST PUSH1 0x40 DUP9 ADD MSTORE JUMP JUMPDEST ADD SLOAD PUSH1 0xFF AND SWAP1 JUMP JUMPDEST PUSH2 0x152 SWAP1 PUSH2 0xA18 JUMP JUMPDEST PUSH1 0x0 SWAP1 PUSH2 0xA93 PUSH2 0xA8E DUP4 SLOAD SWAP1 JUMP JUMPDEST PUSH2 0x8CB JUMP JUMPDEST PUSH2 0xA9C DUP4 PUSH2 0x44E JUMP JUMPDEST SWAP3 DUP4 JUMPDEST PUSH2 0xAAA PUSH2 0x152 DUP4 SLOAD SWAP1 JUMP JUMPDEST DUP2 LT ISZERO PUSH2 0xB52 JUMPI PUSH2 0xAC4 PUSH2 0xABF DUP3 PUSH1 0x1 PUSH2 0x771 JUMP JUMPDEST PUSH2 0x926 JUMP JUMPDEST PUSH2 0xAD6 CALLER JUMPDEST SWAP2 PUSH1 0x1 PUSH1 0x1 PUSH1 0xA0 SHL SUB AND SWAP1 JUMP JUMPDEST EQ DUP1 PUSH2 0xB2E JUMPI JUMPDEST PUSH2 0xAF0 JUMPI JUMPDEST PUSH2 0xAEB SWAP1 PUSH2 0x905 JUMP JUMPDEST PUSH2 0xA9F JUMP JUMPDEST SWAP4 PUSH2 0xB26 PUSH2 0xAEB SWAP2 PUSH2 0xB0B PUSH2 0xB05 DUP9 DUP7 PUSH2 0x3EB JUMP JUMPDEST POP PUSH2 0xA77 JUMP JUMPDEST PUSH2 0xB15 DUP3 DUP8 PUSH2 0x930 JUMP JUMPDEST MSTORE PUSH2 0xB20 DUP2 DUP7 PUSH2 0x930 JUMP JUMPDEST POP PUSH2 0x905 JUMP JUMPDEST SWAP5 SWAP1 POP PUSH2 0xAE2 JUMP JUMPDEST POP PUSH2 0xB47 PUSH1 0x3 PUSH2 0xB3E DUP4 DUP6 PUSH2 0x3EB JUMP JUMPDEST POP ADD SLOAD PUSH1 0xFF AND SWAP1 JUMP JUMPDEST ISZERO ISZERO DUP3 ISZERO ISZERO EQ PUSH2 0xADD JUMP JUMPDEST POP SWAP2 PUSH2 0xB66 PUSH2 0xB60 DUP6 PUSH2 0x8CB JUMP JUMPDEST SWAP4 PUSH2 0x44E JUMP JUMPDEST DUP5 JUMPDEST DUP2 LT ISZERO PUSH2 0xB9D JUMPI PUSH2 0xB96 DUP2 PUSH2 0xB80 PUSH2 0xB68 SWAP4 DUP7 PUSH2 0x930 JUMP JUMPDEST MLOAD PUSH2 0xB8B DUP3 DUP9 PUSH2 0x930 JUMP JUMPDEST MSTORE PUSH2 0xB20 DUP2 DUP8 PUSH2 0x930 JUMP JUMPDEST SWAP1 POP PUSH2 0xB66 JUMP JUMPDEST POP SWAP3 POP POP SWAP1 JUMP JUMPDEST SWAP1 PUSH2 0xBB3 PUSH2 0xABF DUP4 PUSH1 0x1 PUSH2 0x771 JUMP JUMPDEST PUSH2 0xBBC CALLER PUSH2 0xAC9 JUMP JUMPDEST EQ PUSH2 0xBC5 JUMPI POP POP JUMP JUMPDEST PUSH2 0xBDD DUP2 PUSH1 0x3 PUSH2 0xBD6 DUP6 PUSH1 0x0 PUSH2 0x3EB JUMP JUMPDEST POP ADD PUSH2 0x69F JUMP JUMPDEST PUSH32 0xF88A35C3D2016C409A46570B994A17B408DBC83C14A03F521512D50B85386D06 SWAP2 PUSH2 0x840 PUSH2 0xC0B PUSH1 0x40 MLOAD SWAP1 JUMP JUMPDEST SWAP3 DUP4 SWAP3 DUP4 SWAP1 DUP2 MSTORE SWAP1 ISZERO ISZERO PUSH1 0x20 DUP3 ADD MSTORE PUSH1 0x40 ADD SWAP1 JUMP INVALID LOG2 PUSH5 0x6970667358 0x22 SLT KECCAK256 SWAP16 BALANCE MSTORE8 DUP6 0xBC PUSH10 0xA89E242779B28B7EAC77 0xE4 JUMPDEST PUSH30 0x4BECECCA9624964B92DCFB377A64736F6C63430008110033000000000000 "},"methodIdentifiers":{"addTask(string,bool)":"20df4581","deleteTask(uint256,bool)":"aaba2907","getMyTasks()":"6e13f818"}}}}}