{"contracts/NFT.sol":{"CERTNFT":{"abi":[{"inputs":[{"internalType":"address[]","name":"_owners","type":"address[]"},{"internalType":"string","name":"_name","type":"string"},{"internalType":"string","name":"_symbol","type":"string"}],"stateMutability":"nonpayable","type":"constructor"},{"anonymous":false,"inputs":[{"indexed":true,"internalType":"address","name":"owner","type":"address"},{"indexed":true,"internalType":"address","name":"approved","type":"address"},{"indexed":true,"internalType":"uint256","name":"tokenId","type":"uint256"}],"name":"Approval","type":"event"},{"anonymous":false,"inputs":[{"indexed":true,"internalType":"address","name":"owner","type":"address"},{"indexed":true,"internalType":"address","name":"operator","type":"address"},{"indexed":false,"internalType":"bool","name":"approved","type":"bool"}],"name":"ApprovalForAll","type":"event"},{"anonymous":false,"inputs":[{"indexed":false,"internalType":"string","name":"code","type":"string"}],"name":"Owner","type":"event"},{"anonymous":false,"inputs":[{"indexed":true,"internalType":"address","name":"from","type":"address"},{"indexed":true,"internalType":"address","name":"to","type":"address"},{"indexed":true,"internalType":"uint256","name":"tokenId","type":"uint256"}],"name":"Transfer","type":"event"},{"anonymous":false,"inputs":[{"indexed":false,"internalType":"string","name":"code","type":"string"}],"name":"burnnft","type":"event"},{"anonymous":false,"inputs":[{"indexed":false,"internalType":"address","name":"owner","type":"address"},{"indexed":false,"internalType":"uint256","name":"tokenid","type":"uint256"},{"indexed":false,"internalType":"string","name":"url","type":"string"},{"indexed":false,"internalType":"string","name":"code","type":"string"}],"name":"mintnft","type":"event"},{"inputs":[{"internalType":"address","name":"_operator","type":"address"}],"name":"addOperator","outputs":[],"stateMutability":"nonpayable","type":"function"},{"inputs":[{"internalType":"address","name":"to","type":"address"},{"internalType":"uint256","name":"tokenId","type":"uint256"}],"name":"approve","outputs":[],"stateMutability":"nonpayable","type":"function"},{"inputs":[{"internalType":"address","name":"owner","type":"address"}],"name":"balanceOf","outputs":[{"internalType":"uint256","name":"","type":"uint256"}],"stateMutability":"view","type":"function"},{"inputs":[{"internalType":"uint256","name":"tokenId","type":"uint256"}],"name":"burn","outputs":[],"stateMutability":"nonpayable","type":"function"},{"inputs":[],"name":"getAllTokenIdsAndUrls","outputs":[{"internalType":"uint256[]","name":"","type":"uint256[]"},{"internalType":"string[]","name":"","type":"string[]"}],"stateMutability":"view","type":"function"},{"inputs":[{"internalType":"uint256","name":"tokenId","type":"uint256"}],"name":"getApproved","outputs":[{"internalType":"address","name":"","type":"address"}],"stateMutability":"view","type":"function"},{"inputs":[{"internalType":"address","name":"owner","type":"address"},{"internalType":"address","name":"operator","type":"address"}],"name":"isApprovedForAll","outputs":[{"internalType":"bool","name":"","type":"bool"}],"stateMutability":"view","type":"function"},{"inputs":[{"internalType":"string","name":"tokenURI","type":"string"}],"name":"mint","outputs":[{"internalType":"uint256","name":"","type":"uint256"}],"stateMutability":"nonpayable","type":"function"},{"inputs":[],"name":"name","outputs":[{"internalType":"string","name":"","type":"string"}],"stateMutability":"view","type":"function"},{"inputs":[{"internalType":"uint256","name":"tokenId","type":"uint256"}],"name":"ownerOf","outputs":[{"internalType":"address","name":"","type":"address"}],"stateMutability":"view","type":"function"},{"inputs":[{"internalType":"uint256","name":"","type":"uint256"}],"name":"owners","outputs":[{"internalType":"address","name":"","type":"address"}],"stateMutability":"view","type":"function"},{"inputs":[{"internalType":"address","name":"from","type":"address"},{"internalType":"address","name":"to","type":"address"},{"internalType":"uint256","name":"tokenId","type":"uint256"}],"name":"safeTransferFrom","outputs":[],"stateMutability":"nonpayable","type":"function"},{"inputs":[{"internalType":"address","name":"from","type":"address"},{"internalType":"address","name":"to","type":"address"},{"internalType":"uint256","name":"tokenId","type":"uint256"},{"internalType":"bytes","name":"data","type":"bytes"}],"name":"safeTransferFrom","outputs":[],"stateMutability":"nonpayable","type":"function"},{"inputs":[{"internalType":"address","name":"operator","type":"address"},{"internalType":"bool","name":"approved","type":"bool"}],"name":"setApprovalForAll","outputs":[],"stateMutability":"nonpayable","type":"function"},{"inputs":[{"internalType":"bytes4","name":"interfaceId","type":"bytes4"}],"name":"supportsInterface","outputs":[{"internalType":"bool","name":"","type":"bool"}],"stateMutability":"view","type":"function"},{"inputs":[],"name":"symbol","outputs":[{"internalType":"string","name":"","type":"string"}],"stateMutability":"view","type":"function"},{"inputs":[{"internalType":"uint256","name":"tokenId","type":"uint256"}],"name":"tokenURI","outputs":[{"internalType":"string","name":"","type":"string"}],"stateMutability":"view","type":"function"},{"inputs":[{"internalType":"address","name":"from","type":"address"},{"internalType":"address","name":"to","type":"address"},{"internalType":"uint256","name":"tokenId","type":"uint256"}],"name":"transferFrom","outputs":[],"stateMutability":"nonpayable","type":"function"}],"evm":{"bytecode":{"linkReferences":{},"object":"60806040523462000032575b620000206200001962000301565b9162000492565b6040516125f86200068f82396125f890f35b6200003b600080fd5b6200000b565b600080fd5b50634e487b7160e01b600052604160045260246000fd5b90601f01601f191681019081106001600160401b038211176200007f57604052565b6200008962000046565b604052565b90620000a56200009d60405190565b92836200005d565b565b60209081906001600160401b038111620000c057020190565b620000ca62000046565b020190565b90565b6001600160a01b038116036200004157565b90505190620000a582620000d2565b909291926200010c6200010682620000a7565b6200008e565b93818552602080860192028301928184116200014f575b915b838310620001335750505050565b60208091620001438486620000e4565b81520192019162000125565b62000158600080fd5b62000123565b90620000cf9181601f820112156200017d575b602081519101620000f3565b62000186600080fd5b62000171565b602090620001ad906001600160401b038111620001b157601f01601f191690565b0190565b620001bb62000046565b601f01601f191690565b60005b838110620001d95750506000910152565b8181015183820152602001620001c8565b929190620000a5916200020162000106836200018c565b9482865260208601918382011115620001c5576200021d600080fd5b620001c5565b90620000cf9181601f8201121562000242575b602081519101620001ea565b6200024b600080fd5b62000236565b9091606082840312620002f2575b8151620000cf90620002859085906001600160401b038111620002e3575b85016200015e565b93620002a781602086015160018060401b038111620002d4575b860162000223565b604085015190946001600160401b038211620002c5575b0162000223565b620002ce600080fd5b620002be565b620002dd600080fd5b6200029f565b620002ec600080fd5b6200027d565b620002fb600080fd5b6200025f565b6200032462002c878038038062000318816200008e565b92833981019062000251565b909192565b620000cf620000cf620000cf9290565b91906200034e620000cf6200036a9362000329565b9083549160001960089290920291821b911b9181191691161790565b9055565b620000a59160009162000339565b81811062000388575050565b806200039860006001936200036e565b016200037c565b9091828110620003ae57505050565b620000a59290620003c6905b92600052602060002090565b90810191016200037c565b90620000a591680100000000000000008211620003f5575b8054908281556200039f565b620003ff62000046565b620003e9565b600162000439620003ba62000418855190565b94838060401b03861162000476575b620004338686620003d1565b60200190565b92049160005b8381106200044d5750505050565b600190602062000468620000cf86516001600160a01b031690565b94019381840155016200043f565b6200048062000046565b62000427565b90620000a59162000405565b90620000a592620004a391620004ab565b600862000486565b90620000a59162000674565b50634e487b7160e01b600052602260045260246000fd5b9060016002830492168015620004f5575b6020831014620004eb57565b620000a5620004b7565b91607f1691620004df565b8181106200050c575050565b806200051c60006001936200036e565b0162000500565b9190601f81116200053357505050565b62000547620000a593600052602060002090565b906020601f8401819004830193106200056b575b6020601f90910104019062000500565b90915081906200055b565b9062000580815190565b906001600160401b03821162000658575b620005a982620005a28554620004ce565b8562000523565b602090601f8311600114620005e8576200036a929160009183620005dc575b5050600019600883021c1916906002021790565b015190503880620005c8565b601f19831691620005fe85600052602060002090565b9260005b8181106200063f5750916002939185600196941062000625575b50505002019055565b01516000196008601f8516021c191690553880806200061c565b9193602060018192878701518155019501920162000602565b6200066262000046565b62000591565b90620000a59162000576565b9062000686620000a592600062000668565b60016200066856fe60806040526004361015610018575b610016600080fd5b005b60003560e01c806301ffc9a714610180578063025e7c271461017757806306fdde031461016e578063081812fc14610165578063095ea7b31461015c57806323b872dd14610153578063387849fd1461014a57806342842e0e1461014157806342966c68146101385780636352211e1461012f57806370a082311461012657806395d89b411461011d5780639870d7fe14610114578063a22cb4651461010b578063b88d4fde14610102578063c87b56dd146100f9578063d85d3d27146100f05763e985e9c50361000e576100eb6109e8565b61000e565b506100eb61098d565b506100eb61092e565b506100eb610903565b506100eb610783565b506100eb610716565b506100eb6106ec565b506100eb6106b2565b506100eb61066b565b506100eb610644565b506100eb61061c565b506100eb6105df565b506100eb6104c6565b506100eb61045b565b506100eb6103ea565b506100eb6103b4565b506100eb6102ff565b506100eb6101d8565b600080fd5b6001600160e01b031981165b0361018957565b905035906101ae8261018e565b565b906101c4916020818303126101c7576101a1565b90565b6101cf600080fd5b6101a1565b9052565b503461020c575b6102086101f56101f03660046101b0565b610a13565b6040515b91829182901515815260200190565b0390f35b610214600080fd5b6101df565b8061019a565b905035906101ae82610219565b906101c4916020818303121561021f57610244600080fd5b61021f565b50634e487b7160e01b600052603260045260246000fd5b61028060019161026e815490565b84101561028957600052602060002090565b91020190600090565b610291610249565b600052602060002090565b6101c4916008021c5b6001600160a01b031690565b906101c4915461029c565b600860006102c8825490565b8310156102e357506101c4916102dd91610260565b906102b1565b80fd5b6101d4906102a5565b6020810192916101ae91906102e6565b5034610328575b61020861031c61031736600461022c565b6102bc565b604051918291826102ef565b610330600080fd5b610306565b600091031261034057565b6101ae600080fd5b60005b83811061035b5750506000910152565b818101518382015260200161034b565b601f01601f191690565b61039661036b60209361039f9361038a815190565b80835293849260200190565b95869101610348565b0190565b60208082526101c492910190610375565b50346103dd575b6103c6366004610335565b6102086103d1610cdb565b604051918291826103a3565b6103e5600080fd5b6103bb565b5034610407575b61020861031c61040236600461022c565b610e47565b61040f600080fd5b6103f1565b61019a816102a5565b905035906101ae82610414565b91906101c49060408482031261044e575b610445818561041d565b9360200161021f565b610456600080fd5b61043b565b503461047b575b61047661047036600461042a565b90610db7565b604051005b610483600080fd5b610462565b90916060828403126104b9575b6101c46104a2848461041d565b936104b0816020860161041d565b9360400161021f565b6104c1600080fd5b610495565b50346104e1575b6104766104db366004610488565b91610f00565b6104e9600080fd5b6104cd565b9061050e6105076104fd845190565b8084529260200190565b9260200190565b9060005b81811061051f5750505090565b90919261053c6105356001928651815260200190565b9460200190565b929101610512565b906101c491610375565b9061056461055a835190565b8083529160200190565b90816105766020830284019460200190565b926000915b83831061058a57505050505090565b909192939460206105ad6105a683856001950387528951610544565b9760200190565b930193019193929061057b565b60408082526101c49391926105d1918401906104ee565b91602081840391015261054e565b503461060f575b6105f1366004610335565b6105f9612515565b9061020861060660405190565b928392836105ba565b610617600080fd5b6105e6565b5034610637575b610476610631366004610488565b91610f41565b61063f600080fd5b610623565b503461065e575b61047661065936600461022c565b612076565b610666600080fd5b61064b565b5034610688575b61020861031c61068336600461022c565b610bb2565b610690600080fd5b610672565b906101c4916020818303121561041d576106ad600080fd5b61041d565b50346106df575b6102086106cf6106ca366004610695565b610b25565b6040519182918290815260200190565b6106e7600080fd5b6106b9565b5034610709575b6106fe366004610335565b6102086103d1610ce5565b610711600080fd5b6106f3565b5034610730575b61047661072b366004610695565b61244d565b610738600080fd5b61071d565b80151561019a565b905035906101ae8261073d565b91906101c490604084820312610776575b61076d818561041d565b93602001610745565b61077e600080fd5b610763565b503461079e575b610476610798366004610752565b90610e6c565b6107a6600080fd5b61078a565b50634e487b7160e01b600052604160045260246000fd5b90601f01601f1916810190811067ffffffffffffffff8211176107e457604052565b6107ec6107ab565b604052565b906101ae6107fe60405190565b92836107c2565b61039f60209167ffffffffffffffff811161082457601f01601f191690565b61036b6107ab565b90826000939282370152565b9291906101ae9161085061084b83610805565b6107f1565b948286526020860191838201111561082c5761086a600080fd5b61082c565b906101c49181601f8201121561088b575b602081359101610838565b610893600080fd5b610880565b6080818303126108f6575b6108ad828261041d565b926101c46108be846020850161041d565b936108cc816040860161021f565b9360608101359067ffffffffffffffff82116108e9575b0161086f565b6108f1600080fd5b6108e3565b6108fe600080fd5b6108a3565b5034610921575b610476610918366004610898565b92919091610f51565b610929600080fd5b61090a565b503461094b575b6102086103d161094636600461022c565b6115de565b610953600080fd5b610935565b906101c491602081830312610980575b80359067ffffffffffffffff82116108e9570161086f565b610988600080fd5b610968565b50346109aa575b6102086106cf6109a5366004610958565b611bb3565b6109b2600080fd5b610994565b91906101c4906040848203126109db575b6109d2818561041d565b9360200161041d565b6109e3600080fd5b6109c8565b5034610a06575b6102086101f5610a003660046109b7565b90610e77565b610a0e600080fd5b6109ef565b6380ac58cd60e01b6001600160e01b0319821614908115610a43575b8115610a39575090565b6101c491506117b5565b6001600160e01b03198116635b5e139f60e01b149150610a2f565b6102a56101c46101c49290565b6101c490610a5e565b15610a7b57565b60405162461bcd60e51b815260206004820152602960248201527f4552433732313a2061646472657373207a65726f206973206e6f7420612076616044820152683634b21037bbb732b960b91b6064820152608490fd5b0390fd5b6101c4906102a5906001600160a01b031682565b6101c490610ad6565b6101c490610aea565b90610b0690610af3565b600052602052604060002090565b6101c49081565b6101c49054610b14565b610b616101c491610b34600090565b50610b5a610b4a610b456000610a6b565b6102a5565b610b53836102a5565b1415610a74565b6003610afc565b610b1b565b15610b6d57565b60405162461bcd60e51b815260206004820152601860248201527f4552433732313a20696e76616c696420746f6b656e20494400000000000000006044820152606490fd5b610bbf9060005b50610ff1565b6101c4610bcf610b456000610a6b565b610bd8836102a5565b1415610b66565b50634e487b7160e01b600052602260045260246000fd5b9060016002830492168015610c19575b6020831014610c1157565b6101ae610bdf565b91607f1691610c06565b80546000939291610c40610c3683610bf6565b8085529360200190565b9160018116908115610c925750600114610c5957505050565b610c6c9192939450600052602060002090565b916000925b818410610c7e5750500190565b805484840152602090930192600101610c71565b92949550505060ff1916825215156020020190565b906101c491610c23565b906101ae610ccb92610cc260405190565b93848092610ca7565b03836107c2565b6101c490610cb1565b6101c46000610cd2565b6101c46001610cd2565b15610cf657565b60405162461bcd60e51b815260206004820152602160248201527f4552433732313a20617070726f76616c20746f2063757272656e74206f776e656044820152603960f91b6064820152608490fd5b15610d4c57565b60405162461bcd60e51b815260206004820152603d60248201527f4552433732313a20617070726f76652063616c6c6572206973206e6f7420746f60448201527f6b656e206f776e6572206f7220617070726f76656420666f7220616c6c0000006064820152608490fd5b906101ae91610e07610dc883610bb2565b610de4610dd4826102a5565b610ddd856102a5565b1415610cef565b33610dee826102a5565b610df7826102a5565b14918215610e0c575b5050610d45565b6112c0565b610e169250610e77565b3880610e00565b6101c46101c46101c49290565b90610b0690610e1d565b6101c4906102a5565b6101c49054610e34565b610e676101c491610e56600090565b50610e60816113ef565b6004610e2a565b610e3d565b6101ae919033611376565b6101c491610e92610e9792610e8a600090565b506005610afc565b610afc565b5460ff1690565b15610ea557565b60405162461bcd60e51b815260206004820152602d60248201527f4552433732313a2063616c6c6572206973206e6f7420746f6b656e206f776e6560448201526c1c881bdc88185c1c1c9bdd9959609a1b6064820152608490fd5b6101ae929190610f18610f138433611008565b610e9e565b6111b0565b90610f2a61084b83610805565b918252565b6101c46000610f1d565b6101c4610f2f565b90916101ae92610f4f610f39565b925b6101ae93929190610f65610f138433611008565b610fd2565b15610f7157565b6040515b62461bcd60e51b815260206004820152603260248201527f4552433732313a207472616e7366657220746f206e6f6e20455243373231526560448201527131b2b4bb32b91034b6b83632b6b2b73a32b960711b6064820152608490fd5b916101ae9391610fec93610fe78383836111b0565b6114a7565b610f6a565b610e676101c491611000600090565b506002610e2a565b61101182610bb2565b9161101b836102a5565b611024836102a5565b1492831561105b575b50821561103957505090565b61105791925061104b61105191610e47565b926102a5565b916102a5565b1490565b6110689193508290610e77565b913861102d565b1561107657565b60405162461bcd60e51b815260206004820152602560248201527f4552433732313a207472616e736665722066726f6d20696e636f72726563742060448201526437bbb732b960d91b6064820152608490fd5b156110d057565b60405162461bcd60e51b8152602060048201526024808201527f4552433732313a207472616e7366657220746f20746865207a65726f206164646044820152637265737360e01b6064820152608490fd5b916001600160a01b0360089290920291821b911b5b9181191691161790565b91906111516101c461115993610af3565b908354611121565b9055565b6101ae91600091611140565b9060001990611136565b906111836101c461115992610e1d565b8254611169565b906001600160a01b0390611136565b906111a96101c461115992610af3565b825461118a565b91906111d06111be83610bb2565b6111ca611051866102a5565b1461106f565b61121c60006111f46111e4610b4583610a6b565b6111ed856102a5565b14156110c9565b61120c61120085610bb2565b6111ca611051886102a5565b611217846004610e2a565b61115d565b6112606112296001610e1d565b611250611256846003610e9261123f8a83610afc565b6112508761124c83610b1b565b0390565b90611173565b9161039f83610b1b565b6112748161126f846002610e2a565b611199565b6112b06112aa6112a47fddf252ad1be2c89b69c2b068fc378daa952ba7f163c4a11628f55a4df523b3ef95610af3565b92610af3565b92610e1d565b926112ba60405190565b600090a4565b906112d08261126f836004610e2a565b6112d981610bb2565b916112b06112aa6112a47f8c5be1e5ebec7d5bd14f71427d1e84f3dd0314c0f7b2291e5b200ac8c7c3b92595610af3565b1561131157565b60405162461bcd60e51b815260206004820152601960248201527f4552433732313a20617070726f766520746f2063616c6c6572000000000000006044820152606490fd5b9060ff90611136565b9061136f6101c461115992151590565b8254611356565b611392611382836102a5565b61138b836102a5565b141561130a565b6113aa836113a584610e92856005610afc565b61135f565b6113ea6113e06113da7f17307eab39ab6107e8899845ad3d59bd9653f200f220920489ca2b5937696c3193610af3565b93610af3565b936101f960405190565b0390a3565b6113fb6101ae91611400565b610b66565b61140b906000610bb9565b61141b611051610b456000610a6b565b141590565b905051906101ae8261018e565b906101c4916020818303121561142057611445600080fd5b611420565b909261147b906114746101c4969461146a608086019760008701906102e6565b60208501906102e6565b6040830152565b6060818403910152610375565b3d156114a2576114973d610f1d565b903d6000602084013e565b606090565b919093926114b3600090565b946114bd816116c2565b1561159f579061150460006114dc6114d760209695610af3565b610af3565b9261150f63150b7a02916114ed3390565b966114f760405190565b998a988997889660e01b90565b86526004860161144a565b03925af16000918161156f575b50611552575061152a611488565b805161153d6115396000610e1d565b9190565b0361154a57604051610f75565b805190602001fd5b909150611057630a85bd0160e11b5b916001600160e01b03191690565b61159191925060203d8111611598575b61158981836107c2565b81019061142d565b903861151c565b503d61157f565b5060019450505050565b61039f6115c1926020926115bb815190565b94859290565b93849101610348565b6115d8906101c493926115a9565b906115a9565b6115e7816113ef565b6115fa6115f5826006610e2a565b610cd2565b6116026116ba565b805160009061161361153983610e1d565b14611666576116266115396112aa855190565b116116365750506101c49061166d565b6101c4925061165a916101c49161164c60405190565b9384926020840192836115ca565b908103825203826107c2565b5050905090565b611676816113ef565b61167e6116ba565b805161168d6115396000610e1d565b11156116b0576101c461165a916116a66101c494611729565b9061164c60405190565b50506101c4610f39565b6101c4610f39565b3b6116d06115396000610e1d565b1190565b369037565b906101ae6116ef6116e984610f1d565b93610805565b601f1901602084016116d4565b50634e487b7160e01b600052601260045260246000fd5b811561171d570490565b6117256116fc565b0490565b611732816117c5565b9061174260019261039f84610e1d565b918061174d846116d9565b936020018401905b611760575b50505090565b6117949060001901926f181899199a1a9b1b9c1cb0b131b232b360811b600a82061a845361178e600a610e1d565b90611713565b90816117a36115396000610e1d565b146117b057909181611755565b61175a565b6110576301ffc9a760e01b611561565b6117cf6000610e1d565b907a184f03e93ff9f4daa797ed6e38ed64bf6a1f0100000000000000006117f581610e1d565b821015611947575b506d04ee2d6d415b85acef810000000061181681610e1d565b821015611925575b50662386f26fc1000061183081610e1d565b821015611903575b506305f5e10061184781610e1d565b8210156118e1575b5061271061185c81610e1d565b8210156118bf575b50606461187081610e1d565b82101561189d575b50611886611539600a610e1d565b101561188f5790565b6101c49061039f6001610e1d565b6118b89161178e6118ad92610e1d565b9161039f6002610e1d565b9038611878565b6118da9161178e6118cf92610e1d565b9161039f6004610e1d565b9038611864565b6118fc9161178e6118f192610e1d565b9161039f6008610e1d565b903861184f565b61191e9161178e61191392610e1d565b9161039f6010610e1d565b9038611838565b6119409161178e61193592610e1d565b9161039f6020610e1d565b903861181e565b6119629161178e61195792610e1d565b9161039f6040610e1d565b90386117fd565b50634e487b7160e01b600052601160045260246000fd5b6001906000198114611990570190565b61039f611969565b60208082526026908201527f4f6e6c7920746865206f776e65722063616e2063616c6c20746869732066756e60408201526531ba34b7b71760d11b606082015260800190565b156119e557565b60405162461bcd60e51b815280610ad260048201611998565b90600091611a0b83610e1d565b6008611a186101c4825490565b821015611a9557611a33611051610b456102dd853395610260565b14611a4657611a4190611980565b611a0b565b50611a5b9250611a5660016119de565b611b2a565b907f8514e9874d1ee55d652d405875552b31f7275a881f0f832eab8d077876c093e2611a8660405190565b80611a9081611998565b0390a1565b5050611a56611a5b936119de565b7468747470733a2f2f697066732e696f2f697066732f60581b81526101c491906015016115d8565b91906101c493611af1611afe93611aea608087019460008801906102e6565b6020860152565b8382036040850152610375565b906060818303910152601081526f1050d51253d397d0d3d391925493515160821b602082015260400190565b50611b5f611b59600792611b3d84611f0e565b6101c4611b4960405190565b809261165a602083019182611aa3565b91611ef9565b908133611b6c8282611c5a565b611b768383611ed4565b611bad7fe22cc2323a3a1e016e6de3d567fef2c2667443939a122469a166e3d293b16d0b93611ba460405190565b93849384611acb565b0390a190565b6101c49060006119fe565b15611bc557565b60405162461bcd60e51b815280610ad2600482016020808252818101527f4552433732313a206d696e7420746f20746865207a65726f2061646472657373604082015260600190565b15611c1557565b60405162461bcd60e51b815260206004820152601c60248201527f4552433732313a20746f6b656e20616c7265616479206d696e746564000000006044820152606490fd5b90611c656000610a6b565b91611c82611c72846102a5565b611c7b836102a5565b1415611bbe565b611c9a611c95611c9184611400565b1590565b611c0e565b611ca9611c95611c9184611400565b611260611cb66001610e1d565b611250611256846003610afc565b15611ccb57565b60405162461bcd60e51b815260206004820152602e60248201527f45524337323155524953746f726167653a2055524920736574206f66206e6f6e60448201526d32bc34b9ba32b73a103a37b5b2b760911b6064820152608490fd5b50634e487b7160e01b600052600060045260246000fd5b9160001960089290920291821b911b611136565b9190611d636101c461115993610e1d565b908354611d3e565b6101ae91600091611d52565b818110611d82575050565b80611d906000600193611d6b565b01611d77565b9190601f8111611da557505050565b611db76101ae93600052602060002090565b906020601f840181900483019310611dda575b6020601f909101045b0190611d77565b9091508190611dca565b600019600883021c1916906002021790565b90611dff815190565b9067ffffffffffffffff8211611ebd575b611e2482611e1e8554610bf6565b85611d96565b602090601f8311600114611e5257611159929160009183611e47575b5050611de4565b015190503880611e40565b601f19831691611e6785600052602060002090565b9260005b818110611ea557509160029391856001969410611e8c575b50505002019055565b01516000196008601f8516021c19169055388080611e83565b91936020600181928787015181550195019201611e6b565b611ec56107ab565b611e10565b906101ae91611df6565b90611ef46101ae92611eed611ee882611400565b611cc4565b6006610e2a565b611eca565b60006101c491611f07600090565b5001610b1b565b6101ae906112506000611f216001610e1d565b92019161039f83610b1b565b600090611f3982610e1d565b6008611f466101c4825490565b821015611fb357611f61611051610b456102dd853395610260565b14611f7457611f6f90611980565b611f39565b50611f899150611f8460016119de565b612004565b7f8514e9874d1ee55d652d405875552b31f7275a881f0f832eab8d077876c093e2611a8660405190565b5050611f84611f89926119de565b15611fc857565b60405162461bcd60e51b8152602060048201526014602482015273151bdad95b88191bd95cc81b9bdd08195e1a5cdd60621b6044820152606490fd5b61201e9061201961201482611400565b611fc1565b61223a565b7f3388be4906a014d2bb3c19fa97b2cedcaf76a476cbb307cd60459bbbdc38b0d261204860405190565b60208082526010908201526f1050d51253d397d0d3d391925493515160821b60408201528060608101611a90565b6101ae90611f2d565b6101c49054610bf6565b9061209c90600019906020036008021c90565b8154169055565b906000916120c16120b982600052602060002090565b928354611de4565b905555565b919290602082101561211e57601f84116001146120e857611159929350611de4565b50906121196101ae93600161211061210585600052602060002090565b92601f602091010490565b82019101611d77565b6120a3565b506121578293612135600194600052602060002090565b611dd36020601f860104820192601f86168061215f575b50601f602091010490565b600202179055565b61216b90888603612089565b3861214c565b929091602090600160401b83116121c6575b10156121ba57602081101561219b5761115991611de4565b60019160ff19166121b184600052602060002090565b55600202019055565b60019150600202019055565b6121ce6107ab565b612183565b9081546121df81610bf6565b90818311612208575b8183106121f6575b50505050565b6121ff936120c6565b388080806121f0565b61221483838387612171565b6121e8565b60006101ae916121d3565b6101ae911561221957612235611d27565b612219565b61224381612286565b600661225a6122556101c48484610e2a565b61207f565b9060009161226a61153984610e1d565b0361227457505050565b6101ae9261228191610e2a565b612224565b61228f81610bb2565b5061229981610bb2565b906122aa6000611217836004610e2a565b6122cf6122b76001610e1d565b6112506122c5856003610afc565b9161124c83610b1b565b6122df6000611217836002610e2a565b6112746000610a6b565b6000906122f582610e1d565b60086123026101c4825490565b8210156123455761231d611051610b456102dd853395610260565b146123305761232b90611980565b6122f5565b50611f89915061234060016119de565b6123d5565b5050612340611f89926119de565b1561235a57565b60405162461bcd60e51b815260206004820152601d60248201527f4f70657261746f7220697320616c726561647920616e206f776e65722e0000006044820152606490fd5b906123c26101ae92805490600160401b8210156123c8575b600182018155610260565b90611140565b6123d06107ab565b6123b7565b6000906123e182610e1d565b60086123ee6101c4825490565b82101561243d57610b456102dd8361240593610260565b61240e836102a5565b146124215761241c90611980565b6123e1565b506101ae91506124366000612353565b612353565b600861239f565b50506124366124316101ae931590565b6101ae906122e9565b6020809167ffffffffffffffff811161246e57020190565b6124766107ab565b020190565b90610f2a61084b83612456565b906101ae6116ef6124988461247b565b93612456565b60005b8281106124ad57505050565b6060828201526020016124a1565b906101ae6124cb6124988461247b565b601f19016020840161249e565b919082018092116124e557565b6101ae611969565b90602080916124fa845190565b811015612508575b02010190565b612510610249565b612502565b600761252861252382611ef9565b612488565b61253961253483611ef9565b6124bb565b926125446000610e1d565b6125506101c485611ef9565b8110156125bb576101c46125b3612550926125846125776125716001610e1d565b836124d8565b61258183896124ed565b52565b61259861094661259483896124ed565b5190565b6125a2828a6124ed565b526125ad81896124ed565b50611980565b915050612544565b509150919056fea2646970667358221220a88c415f9b3655cff3286a43f563faa523ed5757b9a6cf2097760ca727a131a564736f6c63430008110033","opcodes":"PUSH1 0x80 PUSH1 0x40 MSTORE CALLVALUE PUSH3 0x32 JUMPI JUMPDEST PUSH3 0x20 PUSH3 0x19 PUSH3 0x301 JUMP JUMPDEST SWAP2 PUSH3 0x492 JUMP JUMPDEST PUSH1 0x40 MLOAD PUSH2 0x25F8 PUSH3 0x68F DUP3 CODECOPY PUSH2 0x25F8 SWAP1 RETURN JUMPDEST PUSH3 0x3B PUSH1 0x0 DUP1 REVERT JUMPDEST PUSH3 0xB JUMP JUMPDEST PUSH1 0x0 DUP1 REVERT JUMPDEST POP PUSH4 0x4E487B71 PUSH1 0xE0 SHL PUSH1 0x0 MSTORE PUSH1 0x41 PUSH1 0x4 MSTORE PUSH1 0x24 PUSH1 0x0 REVERT JUMPDEST SWAP1 PUSH1 0x1F ADD PUSH1 0x1F NOT AND DUP2 ADD SWAP1 DUP2 LT PUSH1 0x1 PUSH1 0x1 PUSH1 0x40 SHL SUB DUP3 GT OR PUSH3 0x7F JUMPI PUSH1 0x40 MSTORE JUMP JUMPDEST PUSH3 0x89 PUSH3 0x46 JUMP JUMPDEST PUSH1 0x40 MSTORE JUMP JUMPDEST SWAP1 PUSH3 0xA5 PUSH3 0x9D PUSH1 0x40 MLOAD SWAP1 JUMP JUMPDEST SWAP3 DUP4 PUSH3 0x5D JUMP JUMPDEST JUMP JUMPDEST PUSH1 0x20 SWAP1 DUP2 SWAP1 PUSH1 0x1 PUSH1 0x1 PUSH1 0x40 SHL SUB DUP2 GT PUSH3 0xC0 JUMPI MUL ADD SWAP1 JUMP JUMPDEST PUSH3 0xCA PUSH3 0x46 JUMP JUMPDEST MUL ADD SWAP1 JUMP JUMPDEST SWAP1 JUMP JUMPDEST PUSH1 0x1 PUSH1 0x1 PUSH1 0xA0 SHL SUB DUP2 AND SUB PUSH3 0x41 JUMPI JUMP JUMPDEST SWAP1 POP MLOAD SWAP1 PUSH3 0xA5 DUP3 PUSH3 0xD2 JUMP JUMPDEST SWAP1 SWAP3 SWAP2 SWAP3 PUSH3 0x10C PUSH3 0x106 DUP3 PUSH3 0xA7 JUMP JUMPDEST PUSH3 0x8E JUMP JUMPDEST SWAP4 DUP2 DUP6 MSTORE PUSH1 0x20 DUP1 DUP7 ADD SWAP3 MUL DUP4 ADD SWAP3 DUP2 DUP5 GT PUSH3 0x14F JUMPI JUMPDEST SWAP2 JUMPDEST DUP4 DUP4 LT PUSH3 0x133 JUMPI POP POP POP POP JUMP JUMPDEST PUSH1 0x20 DUP1 SWAP2 PUSH3 0x143 DUP5 DUP7 PUSH3 0xE4 JUMP JUMPDEST DUP2 MSTORE ADD SWAP3 ADD SWAP2 PUSH3 0x125 JUMP JUMPDEST PUSH3 0x158 PUSH1 0x0 DUP1 REVERT JUMPDEST PUSH3 0x123 JUMP JUMPDEST SWAP1 PUSH3 0xCF SWAP2 DUP2 PUSH1 0x1F DUP3 ADD SLT ISZERO PUSH3 0x17D JUMPI JUMPDEST PUSH1 0x20 DUP2 MLOAD SWAP2 ADD PUSH3 0xF3 JUMP JUMPDEST PUSH3 0x186 PUSH1 0x0 DUP1 REVERT JUMPDEST PUSH3 0x171 JUMP JUMPDEST PUSH1 0x20 SWAP1 PUSH3 0x1AD SWAP1 PUSH1 0x1 PUSH1 0x1 PUSH1 0x40 SHL SUB DUP2 GT PUSH3 0x1B1 JUMPI PUSH1 0x1F ADD PUSH1 0x1F NOT AND SWAP1 JUMP JUMPDEST ADD SWAP1 JUMP JUMPDEST PUSH3 0x1BB PUSH3 0x46 JUMP JUMPDEST PUSH1 0x1F ADD PUSH1 0x1F NOT AND SWAP1 JUMP JUMPDEST PUSH1 0x0 JUMPDEST DUP4 DUP2 LT PUSH3 0x1D9 JUMPI POP POP PUSH1 0x0 SWAP2 ADD MSTORE JUMP JUMPDEST DUP2 DUP2 ADD MLOAD DUP4 DUP3 ADD MSTORE PUSH1 0x20 ADD PUSH3 0x1C8 JUMP JUMPDEST SWAP3 SWAP2 SWAP1 PUSH3 0xA5 SWAP2 PUSH3 0x201 PUSH3 0x106 DUP4 PUSH3 0x18C JUMP JUMPDEST SWAP5 DUP3 DUP7 MSTORE PUSH1 0x20 DUP7 ADD SWAP2 DUP4 DUP3 ADD GT ISZERO PUSH3 0x1C5 JUMPI PUSH3 0x21D PUSH1 0x0 DUP1 REVERT JUMPDEST PUSH3 0x1C5 JUMP JUMPDEST SWAP1 PUSH3 0xCF SWAP2 DUP2 PUSH1 0x1F DUP3 ADD SLT ISZERO PUSH3 0x242 JUMPI JUMPDEST PUSH1 0x20 DUP2 MLOAD SWAP2 ADD PUSH3 0x1EA JUMP JUMPDEST PUSH3 0x24B PUSH1 0x0 DUP1 REVERT JUMPDEST PUSH3 0x236 JUMP JUMPDEST SWAP1 SWAP2 PUSH1 0x60 DUP3 DUP5 SUB SLT PUSH3 0x2F2 JUMPI JUMPDEST DUP2 MLOAD PUSH3 0xCF SWAP1 PUSH3 0x285 SWAP1 DUP6 SWAP1 PUSH1 0x1 PUSH1 0x1 PUSH1 0x40 SHL SUB DUP2 GT PUSH3 0x2E3 JUMPI JUMPDEST DUP6 ADD PUSH3 0x15E JUMP JUMPDEST SWAP4 PUSH3 0x2A7 DUP2 PUSH1 0x20 DUP7 ADD MLOAD PUSH1 0x1 DUP1 PUSH1 0x40 SHL SUB DUP2 GT PUSH3 0x2D4 JUMPI JUMPDEST DUP7 ADD PUSH3 0x223 JUMP JUMPDEST PUSH1 0x40 DUP6 ADD MLOAD SWAP1 SWAP5 PUSH1 0x1 PUSH1 0x1 PUSH1 0x40 SHL SUB DUP3 GT PUSH3 0x2C5 JUMPI JUMPDEST ADD PUSH3 0x223 JUMP JUMPDEST PUSH3 0x2CE PUSH1 0x0 DUP1 REVERT JUMPDEST PUSH3 0x2BE JUMP JUMPDEST PUSH3 0x2DD PUSH1 0x0 DUP1 REVERT JUMPDEST PUSH3 0x29F JUMP JUMPDEST PUSH3 0x2EC PUSH1 0x0 DUP1 REVERT JUMPDEST PUSH3 0x27D JUMP JUMPDEST PUSH3 0x2FB PUSH1 0x0 DUP1 REVERT JUMPDEST PUSH3 0x25F JUMP JUMPDEST PUSH3 0x324 PUSH3 0x2C87 DUP1 CODESIZE SUB DUP1 PUSH3 0x318 DUP2 PUSH3 0x8E JUMP JUMPDEST SWAP3 DUP4 CODECOPY DUP2 ADD SWAP1 PUSH3 0x251 JUMP JUMPDEST SWAP1 SWAP2 SWAP3 JUMP JUMPDEST PUSH3 0xCF PUSH3 0xCF PUSH3 0xCF SWAP3 SWAP1 JUMP JUMPDEST SWAP2 SWAP1 PUSH3 0x34E PUSH3 0xCF PUSH3 0x36A SWAP4 PUSH3 0x329 JUMP JUMPDEST SWAP1 DUP4 SLOAD SWAP2 PUSH1 0x0 NOT PUSH1 0x8 SWAP3 SWAP1 SWAP3 MUL SWAP2 DUP3 SHL SWAP2 SHL SWAP2 DUP2 NOT AND SWAP2 AND OR SWAP1 JUMP JUMPDEST SWAP1 SSTORE JUMP JUMPDEST PUSH3 0xA5 SWAP2 PUSH1 0x0 SWAP2 PUSH3 0x339 JUMP JUMPDEST DUP2 DUP2 LT PUSH3 0x388 JUMPI POP POP JUMP JUMPDEST DUP1 PUSH3 0x398 PUSH1 0x0 PUSH1 0x1 SWAP4 PUSH3 0x36E JUMP JUMPDEST ADD PUSH3 0x37C JUMP JUMPDEST SWAP1 SWAP2 DUP3 DUP2 LT PUSH3 0x3AE JUMPI POP POP POP JUMP JUMPDEST PUSH3 0xA5 SWAP3 SWAP1 PUSH3 0x3C6 SWAP1 JUMPDEST SWAP3 PUSH1 0x0 MSTORE PUSH1 0x20 PUSH1 0x0 KECCAK256 SWAP1 JUMP JUMPDEST SWAP1 DUP2 ADD SWAP2 ADD PUSH3 0x37C JUMP JUMPDEST SWAP1 PUSH3 0xA5 SWAP2 PUSH9 0x10000000000000000 DUP3 GT PUSH3 0x3F5 JUMPI JUMPDEST DUP1 SLOAD SWAP1 DUP3 DUP2 SSTORE PUSH3 0x39F JUMP JUMPDEST PUSH3 0x3FF PUSH3 0x46 JUMP JUMPDEST PUSH3 0x3E9 JUMP JUMPDEST PUSH1 0x1 PUSH3 0x439 PUSH3 0x3BA PUSH3 0x418 DUP6 MLOAD SWAP1 JUMP JUMPDEST SWAP5 DUP4 DUP1 PUSH1 0x40 SHL SUB DUP7 GT PUSH3 0x476 JUMPI JUMPDEST PUSH3 0x433 DUP7 DUP7 PUSH3 0x3D1 JUMP JUMPDEST PUSH1 0x20 ADD SWAP1 JUMP JUMPDEST SWAP3 DIV SWAP2 PUSH1 0x0 JUMPDEST DUP4 DUP2 LT PUSH3 0x44D JUMPI POP POP POP POP JUMP JUMPDEST PUSH1 0x1 SWAP1 PUSH1 0x20 PUSH3 0x468 PUSH3 0xCF DUP7 MLOAD PUSH1 0x1 PUSH1 0x1 PUSH1 0xA0 SHL SUB AND SWAP1 JUMP JUMPDEST SWAP5 ADD SWAP4 DUP2 DUP5 ADD SSTORE ADD PUSH3 0x43F JUMP JUMPDEST PUSH3 0x480 PUSH3 0x46 JUMP JUMPDEST PUSH3 0x427 JUMP JUMPDEST SWAP1 PUSH3 0xA5 SWAP2 PUSH3 0x405 JUMP JUMPDEST SWAP1 PUSH3 0xA5 SWAP3 PUSH3 0x4A3 SWAP2 PUSH3 0x4AB JUMP JUMPDEST PUSH1 0x8 PUSH3 0x486 JUMP JUMPDEST SWAP1 PUSH3 0xA5 SWAP2 PUSH3 0x674 JUMP JUMPDEST POP PUSH4 0x4E487B71 PUSH1 0xE0 SHL PUSH1 0x0 MSTORE PUSH1 0x22 PUSH1 0x4 MSTORE PUSH1 0x24 PUSH1 0x0 REVERT JUMPDEST SWAP1 PUSH1 0x1 PUSH1 0x2 DUP4 DIV SWAP3 AND DUP1 ISZERO PUSH3 0x4F5 JUMPI JUMPDEST PUSH1 0x20 DUP4 LT EQ PUSH3 0x4EB JUMPI JUMP JUMPDEST PUSH3 0xA5 PUSH3 0x4B7 JUMP JUMPDEST SWAP2 PUSH1 0x7F AND SWAP2 PUSH3 0x4DF JUMP JUMPDEST DUP2 DUP2 LT PUSH3 0x50C JUMPI POP POP JUMP JUMPDEST DUP1 PUSH3 0x51C PUSH1 0x0 PUSH1 0x1 SWAP4 PUSH3 0x36E JUMP JUMPDEST ADD PUSH3 0x500 JUMP JUMPDEST SWAP2 SWAP1 PUSH1 0x1F DUP2 GT PUSH3 0x533 JUMPI POP POP POP JUMP JUMPDEST PUSH3 0x547 PUSH3 0xA5 SWAP4 PUSH1 0x0 MSTORE PUSH1 0x20 PUSH1 0x0 KECCAK256 SWAP1 JUMP JUMPDEST SWAP1 PUSH1 0x20 PUSH1 0x1F DUP5 ADD DUP2 SWAP1 DIV DUP4 ADD SWAP4 LT PUSH3 0x56B JUMPI JUMPDEST PUSH1 0x20 PUSH1 0x1F SWAP1 SWAP2 ADD DIV ADD SWAP1 PUSH3 0x500 JUMP JUMPDEST SWAP1 SWAP2 POP DUP2 SWAP1 PUSH3 0x55B JUMP JUMPDEST SWAP1 PUSH3 0x580 DUP2 MLOAD SWAP1 JUMP JUMPDEST SWAP1 PUSH1 0x1 PUSH1 0x1 PUSH1 0x40 SHL SUB DUP3 GT PUSH3 0x658 JUMPI JUMPDEST PUSH3 0x5A9 DUP3 PUSH3 0x5A2 DUP6 SLOAD PUSH3 0x4CE JUMP JUMPDEST DUP6 PUSH3 0x523 JUMP JUMPDEST PUSH1 0x20 SWAP1 PUSH1 0x1F DUP4 GT PUSH1 0x1 EQ PUSH3 0x5E8 JUMPI PUSH3 0x36A SWAP3 SWAP2 PUSH1 0x0 SWAP2 DUP4 PUSH3 0x5DC JUMPI JUMPDEST POP POP PUSH1 0x0 NOT PUSH1 0x8 DUP4 MUL SHR NOT AND SWAP1 PUSH1 0x2 MUL OR SWAP1 JUMP JUMPDEST ADD MLOAD SWAP1 POP CODESIZE DUP1 PUSH3 0x5C8 JUMP JUMPDEST PUSH1 0x1F NOT DUP4 AND SWAP2 PUSH3 0x5FE DUP6 PUSH1 0x0 MSTORE PUSH1 0x20 PUSH1 0x0 KECCAK256 SWAP1 JUMP JUMPDEST SWAP3 PUSH1 0x0 JUMPDEST DUP2 DUP2 LT PUSH3 0x63F JUMPI POP SWAP2 PUSH1 0x2 SWAP4 SWAP2 DUP6 PUSH1 0x1 SWAP7 SWAP5 LT PUSH3 0x625 JUMPI JUMPDEST POP POP POP MUL ADD SWAP1 SSTORE JUMP JUMPDEST ADD MLOAD PUSH1 0x0 NOT PUSH1 0x8 PUSH1 0x1F DUP6 AND MUL SHR NOT AND SWAP1 SSTORE CODESIZE DUP1 DUP1 PUSH3 0x61C JUMP JUMPDEST SWAP2 SWAP4 PUSH1 0x20 PUSH1 0x1 DUP2 SWAP3 DUP8 DUP8 ADD MLOAD DUP2 SSTORE ADD SWAP6 ADD SWAP3 ADD PUSH3 0x602 JUMP JUMPDEST PUSH3 0x662 PUSH3 0x46 JUMP JUMPDEST PUSH3 0x591 JUMP JUMPDEST SWAP1 PUSH3 0xA5 SWAP2 PUSH3 0x576 JUMP JUMPDEST SWAP1 PUSH3 0x686 PUSH3 0xA5 SWAP3 PUSH1 0x0 PUSH3 0x668 JUMP JUMPDEST PUSH1 0x1 PUSH3 0x668 JUMP INVALID PUSH1 0x80 PUSH1 0x40 MSTORE PUSH1 0x4 CALLDATASIZE LT ISZERO PUSH2 0x18 JUMPI JUMPDEST PUSH2 0x16 PUSH1 0x0 DUP1 REVERT JUMPDEST STOP JUMPDEST PUSH1 0x0 CALLDATALOAD PUSH1 0xE0 SHR DUP1 PUSH4 0x1FFC9A7 EQ PUSH2 0x180 JUMPI DUP1 PUSH4 0x25E7C27 EQ PUSH2 0x177 JUMPI DUP1 PUSH4 0x6FDDE03 EQ PUSH2 0x16E JUMPI DUP1 PUSH4 0x81812FC EQ PUSH2 0x165 JUMPI DUP1 PUSH4 0x95EA7B3 EQ PUSH2 0x15C JUMPI DUP1 PUSH4 0x23B872DD EQ PUSH2 0x153 JUMPI DUP1 PUSH4 0x387849FD EQ PUSH2 0x14A JUMPI DUP1 PUSH4 0x42842E0E EQ PUSH2 0x141 JUMPI DUP1 PUSH4 0x42966C68 EQ PUSH2 0x138 JUMPI DUP1 PUSH4 0x6352211E EQ PUSH2 0x12F JUMPI DUP1 PUSH4 0x70A08231 EQ PUSH2 0x126 JUMPI DUP1 PUSH4 0x95D89B41 EQ PUSH2 0x11D JUMPI DUP1 PUSH4 0x9870D7FE EQ PUSH2 0x114 JUMPI DUP1 PUSH4 0xA22CB465 EQ PUSH2 0x10B JUMPI DUP1 PUSH4 0xB88D4FDE EQ PUSH2 0x102 JUMPI DUP1 PUSH4 0xC87B56DD EQ PUSH2 0xF9 JUMPI DUP1 PUSH4 0xD85D3D27 EQ PUSH2 0xF0 JUMPI PUSH4 0xE985E9C5 SUB PUSH2 0xE JUMPI PUSH2 0xEB PUSH2 0x9E8 JUMP JUMPDEST PUSH2 0xE JUMP JUMPDEST POP PUSH2 0xEB PUSH2 0x98D JUMP JUMPDEST POP PUSH2 0xEB PUSH2 0x92E JUMP JUMPDEST POP PUSH2 0xEB PUSH2 0x903 JUMP JUMPDEST POP PUSH2 0xEB PUSH2 0x783 JUMP JUMPDEST POP PUSH2 0xEB PUSH2 0x716 JUMP JUMPDEST POP PUSH2 0xEB PUSH2 0x6EC JUMP JUMPDEST POP PUSH2 0xEB PUSH2 0x6B2 JUMP JUMPDEST POP PUSH2 0xEB PUSH2 0x66B JUMP JUMPDEST POP PUSH2 0xEB PUSH2 0x644 JUMP JUMPDEST POP PUSH2 0xEB PUSH2 0x61C JUMP JUMPDEST POP PUSH2 0xEB PUSH2 0x5DF JUMP JUMPDEST POP PUSH2 0xEB PUSH2 0x4C6 JUMP JUMPDEST POP PUSH2 0xEB PUSH2 0x45B JUMP JUMPDEST POP PUSH2 0xEB PUSH2 0x3EA JUMP JUMPDEST POP PUSH2 0xEB PUSH2 0x3B4 JUMP JUMPDEST POP PUSH2 0xEB PUSH2 0x2FF JUMP JUMPDEST POP PUSH2 0xEB PUSH2 0x1D8 JUMP JUMPDEST PUSH1 0x0 DUP1 REVERT JUMPDEST PUSH1 0x1 PUSH1 0x1 PUSH1 0xE0 SHL SUB NOT DUP2 AND JUMPDEST SUB PUSH2 0x189 JUMPI JUMP JUMPDEST SWAP1 POP CALLDATALOAD SWAP1 PUSH2 0x1AE DUP3 PUSH2 0x18E JUMP JUMPDEST JUMP JUMPDEST SWAP1 PUSH2 0x1C4 SWAP2 PUSH1 0x20 DUP2 DUP4 SUB SLT PUSH2 0x1C7 JUMPI PUSH2 0x1A1 JUMP JUMPDEST SWAP1 JUMP JUMPDEST PUSH2 0x1CF PUSH1 0x0 DUP1 REVERT JUMPDEST PUSH2 0x1A1 JUMP JUMPDEST SWAP1 MSTORE JUMP JUMPDEST POP CALLVALUE PUSH2 0x20C JUMPI JUMPDEST PUSH2 0x208 PUSH2 0x1F5 PUSH2 0x1F0 CALLDATASIZE PUSH1 0x4 PUSH2 0x1B0 JUMP JUMPDEST PUSH2 0xA13 JUMP JUMPDEST PUSH1 0x40 MLOAD JUMPDEST SWAP2 DUP3 SWAP2 DUP3 SWAP1 ISZERO ISZERO DUP2 MSTORE PUSH1 0x20 ADD SWAP1 JUMP JUMPDEST SUB SWAP1 RETURN JUMPDEST PUSH2 0x214 PUSH1 0x0 DUP1 REVERT JUMPDEST PUSH2 0x1DF JUMP JUMPDEST DUP1 PUSH2 0x19A JUMP JUMPDEST SWAP1 POP CALLDATALOAD SWAP1 PUSH2 0x1AE DUP3 PUSH2 0x219 JUMP JUMPDEST SWAP1 PUSH2 0x1C4 SWAP2 PUSH1 0x20 DUP2 DUP4 SUB SLT ISZERO PUSH2 0x21F JUMPI PUSH2 0x244 PUSH1 0x0 DUP1 REVERT JUMPDEST PUSH2 0x21F JUMP JUMPDEST POP PUSH4 0x4E487B71 PUSH1 0xE0 SHL PUSH1 0x0 MSTORE PUSH1 0x32 PUSH1 0x4 MSTORE PUSH1 0x24 PUSH1 0x0 REVERT JUMPDEST PUSH2 0x280 PUSH1 0x1 SWAP2 PUSH2 0x26E DUP2 SLOAD SWAP1 JUMP JUMPDEST DUP5 LT ISZERO PUSH2 0x289 JUMPI PUSH1 0x0 MSTORE PUSH1 0x20 PUSH1 0x0 KECCAK256 SWAP1 JUMP JUMPDEST SWAP2 MUL ADD SWAP1 PUSH1 0x0 SWAP1 JUMP JUMPDEST PUSH2 0x291 PUSH2 0x249 JUMP JUMPDEST PUSH1 0x0 MSTORE PUSH1 0x20 PUSH1 0x0 KECCAK256 SWAP1 JUMP JUMPDEST PUSH2 0x1C4 SWAP2 PUSH1 0x8 MUL SHR JUMPDEST PUSH1 0x1 PUSH1 0x1 PUSH1 0xA0 SHL SUB AND SWAP1 JUMP JUMPDEST SWAP1 PUSH2 0x1C4 SWAP2 SLOAD PUSH2 0x29C JUMP JUMPDEST PUSH1 0x8 PUSH1 0x0 PUSH2 0x2C8 DUP3 SLOAD SWAP1 JUMP JUMPDEST DUP4 LT ISZERO PUSH2 0x2E3 JUMPI POP PUSH2 0x1C4 SWAP2 PUSH2 0x2DD SWAP2 PUSH2 0x260 JUMP JUMPDEST SWAP1 PUSH2 0x2B1 JUMP JUMPDEST DUP1 REVERT JUMPDEST PUSH2 0x1D4 SWAP1 PUSH2 0x2A5 JUMP JUMPDEST PUSH1 0x20 DUP2 ADD SWAP3 SWAP2 PUSH2 0x1AE SWAP2 SWAP1 PUSH2 0x2E6 JUMP JUMPDEST POP CALLVALUE PUSH2 0x328 JUMPI JUMPDEST PUSH2 0x208 PUSH2 0x31C PUSH2 0x317 CALLDATASIZE PUSH1 0x4 PUSH2 0x22C JUMP JUMPDEST PUSH2 0x2BC JUMP JUMPDEST PUSH1 0x40 MLOAD SWAP2 DUP3 SWAP2 DUP3 PUSH2 0x2EF JUMP JUMPDEST PUSH2 0x330 PUSH1 0x0 DUP1 REVERT JUMPDEST PUSH2 0x306 JUMP JUMPDEST PUSH1 0x0 SWAP2 SUB SLT PUSH2 0x340 JUMPI JUMP JUMPDEST PUSH2 0x1AE PUSH1 0x0 DUP1 REVERT JUMPDEST PUSH1 0x0 JUMPDEST DUP4 DUP2 LT PUSH2 0x35B JUMPI POP POP PUSH1 0x0 SWAP2 ADD MSTORE JUMP JUMPDEST DUP2 DUP2 ADD MLOAD DUP4 DUP3 ADD MSTORE PUSH1 0x20 ADD PUSH2 0x34B JUMP JUMPDEST PUSH1 0x1F ADD PUSH1 0x1F NOT AND SWAP1 JUMP JUMPDEST PUSH2 0x396 PUSH2 0x36B PUSH1 0x20 SWAP4 PUSH2 0x39F SWAP4 PUSH2 0x38A DUP2 MLOAD SWAP1 JUMP JUMPDEST DUP1 DUP4 MSTORE SWAP4 DUP5 SWAP3 PUSH1 0x20 ADD SWAP1 JUMP JUMPDEST SWAP6 DUP7 SWAP2 ADD PUSH2 0x348 JUMP JUMPDEST ADD SWAP1 JUMP JUMPDEST PUSH1 0x20 DUP1 DUP3 MSTORE PUSH2 0x1C4 SWAP3 SWAP2 ADD SWAP1 PUSH2 0x375 JUMP JUMPDEST POP CALLVALUE PUSH2 0x3DD JUMPI JUMPDEST PUSH2 0x3C6 CALLDATASIZE PUSH1 0x4 PUSH2 0x335 JUMP JUMPDEST PUSH2 0x208 PUSH2 0x3D1 PUSH2 0xCDB JUMP JUMPDEST PUSH1 0x40 MLOAD SWAP2 DUP3 SWAP2 DUP3 PUSH2 0x3A3 JUMP JUMPDEST PUSH2 0x3E5 PUSH1 0x0 DUP1 REVERT JUMPDEST PUSH2 0x3BB JUMP JUMPDEST POP CALLVALUE PUSH2 0x407 JUMPI JUMPDEST PUSH2 0x208 PUSH2 0x31C PUSH2 0x402 CALLDATASIZE PUSH1 0x4 PUSH2 0x22C JUMP JUMPDEST PUSH2 0xE47 JUMP JUMPDEST PUSH2 0x40F PUSH1 0x0 DUP1 REVERT JUMPDEST PUSH2 0x3F1 JUMP JUMPDEST PUSH2 0x19A DUP2 PUSH2 0x2A5 JUMP JUMPDEST SWAP1 POP CALLDATALOAD SWAP1 PUSH2 0x1AE DUP3 PUSH2 0x414 JUMP JUMPDEST SWAP2 SWAP1 PUSH2 0x1C4 SWAP1 PUSH1 0x40 DUP5 DUP3 SUB SLT PUSH2 0x44E JUMPI JUMPDEST PUSH2 0x445 DUP2 DUP6 PUSH2 0x41D JUMP JUMPDEST SWAP4 PUSH1 0x20 ADD PUSH2 0x21F JUMP JUMPDEST PUSH2 0x456 PUSH1 0x0 DUP1 REVERT JUMPDEST PUSH2 0x43B JUMP JUMPDEST POP CALLVALUE PUSH2 0x47B JUMPI JUMPDEST PUSH2 0x476 PUSH2 0x470 CALLDATASIZE PUSH1 0x4 PUSH2 0x42A JUMP JUMPDEST SWAP1 PUSH2 0xDB7 JUMP JUMPDEST PUSH1 0x40 MLOAD STOP JUMPDEST PUSH2 0x483 PUSH1 0x0 DUP1 REVERT JUMPDEST PUSH2 0x462 JUMP JUMPDEST SWAP1 SWAP2 PUSH1 0x60 DUP3 DUP5 SUB SLT PUSH2 0x4B9 JUMPI JUMPDEST PUSH2 0x1C4 PUSH2 0x4A2 DUP5 DUP5 PUSH2 0x41D JUMP JUMPDEST SWAP4 PUSH2 0x4B0 DUP2 PUSH1 0x20 DUP7 ADD PUSH2 0x41D JUMP JUMPDEST SWAP4 PUSH1 0x40 ADD PUSH2 0x21F JUMP JUMPDEST PUSH2 0x4C1 PUSH1 0x0 DUP1 REVERT JUMPDEST PUSH2 0x495 JUMP JUMPDEST POP CALLVALUE PUSH2 0x4E1 JUMPI JUMPDEST PUSH2 0x476 PUSH2 0x4DB CALLDATASIZE PUSH1 0x4 PUSH2 0x488 JUMP JUMPDEST SWAP2 PUSH2 0xF00 JUMP JUMPDEST PUSH2 0x4E9 PUSH1 0x0 DUP1 REVERT JUMPDEST PUSH2 0x4CD JUMP JUMPDEST SWAP1 PUSH2 0x50E PUSH2 0x507 PUSH2 0x4FD DUP5 MLOAD SWAP1 JUMP JUMPDEST DUP1 DUP5 MSTORE SWAP3 PUSH1 0x20 ADD SWAP1 JUMP JUMPDEST SWAP3 PUSH1 0x20 ADD SWAP1 JUMP JUMPDEST SWAP1 PUSH1 0x0 JUMPDEST DUP2 DUP2 LT PUSH2 0x51F JUMPI POP POP POP SWAP1 JUMP JUMPDEST SWAP1 SWAP2 SWAP3 PUSH2 0x53C PUSH2 0x535 PUSH1 0x1 SWAP3 DUP7 MLOAD DUP2 MSTORE PUSH1 0x20 ADD SWAP1 JUMP JUMPDEST SWAP5 PUSH1 0x20 ADD SWAP1 JUMP JUMPDEST SWAP3 SWAP2 ADD PUSH2 0x512 JUMP JUMPDEST SWAP1 PUSH2 0x1C4 SWAP2 PUSH2 0x375 JUMP JUMPDEST SWAP1 PUSH2 0x564 PUSH2 0x55A DUP4 MLOAD SWAP1 JUMP JUMPDEST DUP1 DUP4 MSTORE SWAP2 PUSH1 0x20 ADD SWAP1 JUMP JUMPDEST SWAP1 DUP2 PUSH2 0x576 PUSH1 0x20 DUP4 MUL DUP5 ADD SWAP5 PUSH1 0x20 ADD SWAP1 JUMP JUMPDEST SWAP3 PUSH1 0x0 SWAP2 JUMPDEST DUP4 DUP4 LT PUSH2 0x58A JUMPI POP POP POP POP POP SWAP1 JUMP JUMPDEST SWAP1 SWAP2 SWAP3 SWAP4 SWAP5 PUSH1 0x20 PUSH2 0x5AD PUSH2 0x5A6 DUP4 DUP6 PUSH1 0x1 SWAP6 SUB DUP8 MSTORE DUP10 MLOAD PUSH2 0x544 JUMP JUMPDEST SWAP8 PUSH1 0x20 ADD SWAP1 JUMP JUMPDEST SWAP4 ADD SWAP4 ADD SWAP2 SWAP4 SWAP3 SWAP1 PUSH2 0x57B JUMP JUMPDEST PUSH1 0x40 DUP1 DUP3 MSTORE PUSH2 0x1C4 SWAP4 SWAP2 SWAP3 PUSH2 0x5D1 SWAP2 DUP5 ADD SWAP1 PUSH2 0x4EE JUMP JUMPDEST SWAP2 PUSH1 0x20 DUP2 DUP5 SUB SWAP2 ADD MSTORE PUSH2 0x54E JUMP JUMPDEST POP CALLVALUE PUSH2 0x60F JUMPI JUMPDEST PUSH2 0x5F1 CALLDATASIZE PUSH1 0x4 PUSH2 0x335 JUMP JUMPDEST PUSH2 0x5F9 PUSH2 0x2515 JUMP JUMPDEST SWAP1 PUSH2 0x208 PUSH2 0x606 PUSH1 0x40 MLOAD SWAP1 JUMP JUMPDEST SWAP3 DUP4 SWAP3 DUP4 PUSH2 0x5BA JUMP JUMPDEST PUSH2 0x617 PUSH1 0x0 DUP1 REVERT JUMPDEST PUSH2 0x5E6 JUMP JUMPDEST POP CALLVALUE PUSH2 0x637 JUMPI JUMPDEST PUSH2 0x476 PUSH2 0x631 CALLDATASIZE PUSH1 0x4 PUSH2 0x488 JUMP JUMPDEST SWAP2 PUSH2 0xF41 JUMP JUMPDEST PUSH2 0x63F PUSH1 0x0 DUP1 REVERT JUMPDEST PUSH2 0x623 JUMP JUMPDEST POP CALLVALUE PUSH2 0x65E JUMPI JUMPDEST PUSH2 0x476 PUSH2 0x659 CALLDATASIZE PUSH1 0x4 PUSH2 0x22C JUMP JUMPDEST PUSH2 0x2076 JUMP JUMPDEST PUSH2 0x666 PUSH1 0x0 DUP1 REVERT JUMPDEST PUSH2 0x64B JUMP JUMPDEST POP CALLVALUE PUSH2 0x688 JUMPI JUMPDEST PUSH2 0x208 PUSH2 0x31C PUSH2 0x683 CALLDATASIZE PUSH1 0x4 PUSH2 0x22C JUMP JUMPDEST PUSH2 0xBB2 JUMP JUMPDEST PUSH2 0x690 PUSH1 0x0 DUP1 REVERT JUMPDEST PUSH2 0x672 JUMP JUMPDEST SWAP1 PUSH2 0x1C4 SWAP2 PUSH1 0x20 DUP2 DUP4 SUB SLT ISZERO PUSH2 0x41D JUMPI PUSH2 0x6AD PUSH1 0x0 DUP1 REVERT JUMPDEST PUSH2 0x41D JUMP JUMPDEST POP CALLVALUE PUSH2 0x6DF JUMPI JUMPDEST PUSH2 0x208 PUSH2 0x6CF PUSH2 0x6CA CALLDATASIZE PUSH1 0x4 PUSH2 0x695 JUMP JUMPDEST PUSH2 0xB25 JUMP JUMPDEST PUSH1 0x40 MLOAD SWAP2 DUP3 SWAP2 DUP3 SWAP1 DUP2 MSTORE PUSH1 0x20 ADD SWAP1 JUMP JUMPDEST PUSH2 0x6E7 PUSH1 0x0 DUP1 REVERT JUMPDEST PUSH2 0x6B9 JUMP JUMPDEST POP CALLVALUE PUSH2 0x709 JUMPI JUMPDEST PUSH2 0x6FE CALLDATASIZE PUSH1 0x4 PUSH2 0x335 JUMP JUMPDEST PUSH2 0x208 PUSH2 0x3D1 PUSH2 0xCE5 JUMP JUMPDEST PUSH2 0x711 PUSH1 0x0 DUP1 REVERT JUMPDEST PUSH2 0x6F3 JUMP JUMPDEST POP CALLVALUE PUSH2 0x730 JUMPI JUMPDEST PUSH2 0x476 PUSH2 0x72B CALLDATASIZE PUSH1 0x4 PUSH2 0x695 JUMP JUMPDEST PUSH2 0x244D JUMP JUMPDEST PUSH2 0x738 PUSH1 0x0 DUP1 REVERT JUMPDEST PUSH2 0x71D JUMP JUMPDEST DUP1 ISZERO ISZERO PUSH2 0x19A JUMP JUMPDEST SWAP1 POP CALLDATALOAD SWAP1 PUSH2 0x1AE DUP3 PUSH2 0x73D JUMP JUMPDEST SWAP2 SWAP1 PUSH2 0x1C4 SWAP1 PUSH1 0x40 DUP5 DUP3 SUB SLT PUSH2 0x776 JUMPI JUMPDEST PUSH2 0x76D DUP2 DUP6 PUSH2 0x41D JUMP JUMPDEST SWAP4 PUSH1 0x20 ADD PUSH2 0x745 JUMP JUMPDEST PUSH2 0x77E PUSH1 0x0 DUP1 REVERT JUMPDEST PUSH2 0x763 JUMP JUMPDEST POP CALLVALUE PUSH2 0x79E JUMPI JUMPDEST PUSH2 0x476 PUSH2 0x798 CALLDATASIZE PUSH1 0x4 PUSH2 0x752 JUMP JUMPDEST SWAP1 PUSH2 0xE6C JUMP JUMPDEST PUSH2 0x7A6 PUSH1 0x0 DUP1 REVERT JUMPDEST PUSH2 0x78A JUMP JUMPDEST POP PUSH4 0x4E487B71 PUSH1 0xE0 SHL PUSH1 0x0 MSTORE PUSH1 0x41 PUSH1 0x4 MSTORE PUSH1 0x24 PUSH1 0x0 REVERT JUMPDEST SWAP1 PUSH1 0x1F ADD PUSH1 0x1F NOT AND DUP2 ADD SWAP1 DUP2 LT PUSH8 0xFFFFFFFFFFFFFFFF DUP3 GT OR PUSH2 0x7E4 JUMPI PUSH1 0x40 MSTORE JUMP JUMPDEST PUSH2 0x7EC PUSH2 0x7AB JUMP JUMPDEST PUSH1 0x40 MSTORE JUMP JUMPDEST SWAP1 PUSH2 0x1AE PUSH2 0x7FE PUSH1 0x40 MLOAD SWAP1 JUMP JUMPDEST SWAP3 DUP4 PUSH2 0x7C2 JUMP JUMPDEST PUSH2 0x39F PUSH1 0x20 SWAP2 PUSH8 0xFFFFFFFFFFFFFFFF DUP2 GT PUSH2 0x824 JUMPI PUSH1 0x1F ADD PUSH1 0x1F NOT AND SWAP1 JUMP JUMPDEST PUSH2 0x36B PUSH2 0x7AB JUMP JUMPDEST SWAP1 DUP3 PUSH1 0x0 SWAP4 SWAP3 DUP3 CALLDATACOPY ADD MSTORE JUMP JUMPDEST SWAP3 SWAP2 SWAP1 PUSH2 0x1AE SWAP2 PUSH2 0x850 PUSH2 0x84B DUP4 PUSH2 0x805 JUMP JUMPDEST PUSH2 0x7F1 JUMP JUMPDEST SWAP5 DUP3 DUP7 MSTORE PUSH1 0x20 DUP7 ADD SWAP2 DUP4 DUP3 ADD GT ISZERO PUSH2 0x82C JUMPI PUSH2 0x86A PUSH1 0x0 DUP1 REVERT JUMPDEST PUSH2 0x82C JUMP JUMPDEST SWAP1 PUSH2 0x1C4 SWAP2 DUP2 PUSH1 0x1F DUP3 ADD SLT ISZERO PUSH2 0x88B JUMPI JUMPDEST PUSH1 0x20 DUP2 CALLDATALOAD SWAP2 ADD PUSH2 0x838 JUMP JUMPDEST PUSH2 0x893 PUSH1 0x0 DUP1 REVERT JUMPDEST PUSH2 0x880 JUMP JUMPDEST PUSH1 0x80 DUP2 DUP4 SUB SLT PUSH2 0x8F6 JUMPI JUMPDEST PUSH2 0x8AD DUP3 DUP3 PUSH2 0x41D JUMP JUMPDEST SWAP3 PUSH2 0x1C4 PUSH2 0x8BE DUP5 PUSH1 0x20 DUP6 ADD PUSH2 0x41D JUMP JUMPDEST SWAP4 PUSH2 0x8CC DUP2 PUSH1 0x40 DUP7 ADD PUSH2 0x21F JUMP JUMPDEST SWAP4 PUSH1 0x60 DUP2 ADD CALLDATALOAD SWAP1 PUSH8 0xFFFFFFFFFFFFFFFF DUP3 GT PUSH2 0x8E9 JUMPI JUMPDEST ADD PUSH2 0x86F JUMP JUMPDEST PUSH2 0x8F1 PUSH1 0x0 DUP1 REVERT JUMPDEST PUSH2 0x8E3 JUMP JUMPDEST PUSH2 0x8FE PUSH1 0x0 DUP1 REVERT JUMPDEST PUSH2 0x8A3 JUMP JUMPDEST POP CALLVALUE PUSH2 0x921 JUMPI JUMPDEST PUSH2 0x476 PUSH2 0x918 CALLDATASIZE PUSH1 0x4 PUSH2 0x898 JUMP JUMPDEST SWAP3 SWAP2 SWAP1 SWAP2 PUSH2 0xF51 JUMP JUMPDEST PUSH2 0x929 PUSH1 0x0 DUP1 REVERT JUMPDEST PUSH2 0x90A JUMP JUMPDEST POP CALLVALUE PUSH2 0x94B JUMPI JUMPDEST PUSH2 0x208 PUSH2 0x3D1 PUSH2 0x946 CALLDATASIZE PUSH1 0x4 PUSH2 0x22C JUMP JUMPDEST PUSH2 0x15DE JUMP JUMPDEST PUSH2 0x953 PUSH1 0x0 DUP1 REVERT JUMPDEST PUSH2 0x935 JUMP JUMPDEST SWAP1 PUSH2 0x1C4 SWAP2 PUSH1 0x20 DUP2 DUP4 SUB SLT PUSH2 0x980 JUMPI JUMPDEST DUP1 CALLDATALOAD SWAP1 PUSH8 0xFFFFFFFFFFFFFFFF DUP3 GT PUSH2 0x8E9 JUMPI ADD PUSH2 0x86F JUMP JUMPDEST PUSH2 0x988 PUSH1 0x0 DUP1 REVERT JUMPDEST PUSH2 0x968 JUMP JUMPDEST POP CALLVALUE PUSH2 0x9AA JUMPI JUMPDEST PUSH2 0x208 PUSH2 0x6CF PUSH2 0x9A5 CALLDATASIZE PUSH1 0x4 PUSH2 0x958 JUMP JUMPDEST PUSH2 0x1BB3 JUMP JUMPDEST PUSH2 0x9B2 PUSH1 0x0 DUP1 REVERT JUMPDEST PUSH2 0x994 JUMP JUMPDEST SWAP2 SWAP1 PUSH2 0x1C4 SWAP1 PUSH1 0x40 DUP5 DUP3 SUB SLT PUSH2 0x9DB JUMPI JUMPDEST PUSH2 0x9D2 DUP2 DUP6 PUSH2 0x41D JUMP JUMPDEST SWAP4 PUSH1 0x20 ADD PUSH2 0x41D JUMP JUMPDEST PUSH2 0x9E3 PUSH1 0x0 DUP1 REVERT JUMPDEST PUSH2 0x9C8 JUMP JUMPDEST POP CALLVALUE PUSH2 0xA06 JUMPI JUMPDEST PUSH2 0x208 PUSH2 0x1F5 PUSH2 0xA00 CALLDATASIZE PUSH1 0x4 PUSH2 0x9B7 JUMP JUMPDEST SWAP1 PUSH2 0xE77 JUMP JUMPDEST PUSH2 0xA0E PUSH1 0x0 DUP1 REVERT JUMPDEST PUSH2 0x9EF JUMP JUMPDEST PUSH4 0x80AC58CD PUSH1 0xE0 SHL PUSH1 0x1 PUSH1 0x1 PUSH1 0xE0 SHL SUB NOT DUP3 AND EQ SWAP1 DUP2 ISZERO PUSH2 0xA43 JUMPI JUMPDEST DUP2 ISZERO PUSH2 0xA39 JUMPI POP SWAP1 JUMP JUMPDEST PUSH2 0x1C4 SWAP2 POP PUSH2 0x17B5 JUMP JUMPDEST PUSH1 0x1 PUSH1 0x1 PUSH1 0xE0 SHL SUB NOT DUP2 AND PUSH4 0x5B5E139F PUSH1 0xE0 SHL EQ SWAP2 POP PUSH2 0xA2F JUMP JUMPDEST PUSH2 0x2A5 PUSH2 0x1C4 PUSH2 0x1C4 SWAP3 SWAP1 JUMP JUMPDEST PUSH2 0x1C4 SWAP1 PUSH2 0xA5E JUMP JUMPDEST ISZERO PUSH2 0xA7B JUMPI JUMP JUMPDEST PUSH1 0x40 MLOAD PUSH3 0x461BCD PUSH1 0xE5 SHL DUP2 MSTORE PUSH1 0x20 PUSH1 0x4 DUP3 ADD MSTORE PUSH1 0x29 PUSH1 0x24 DUP3 ADD MSTORE PUSH32 0x4552433732313A2061646472657373207A65726F206973206E6F742061207661 PUSH1 0x44 DUP3 ADD MSTORE PUSH9 0x3634B21037BBB732B9 PUSH1 0xB9 SHL PUSH1 0x64 DUP3 ADD MSTORE PUSH1 0x84 SWAP1 REVERT JUMPDEST SUB SWAP1 REVERT JUMPDEST PUSH2 0x1C4 SWAP1 PUSH2 0x2A5 SWAP1 PUSH1 0x1 PUSH1 0x1 PUSH1 0xA0 SHL SUB AND DUP3 JUMP JUMPDEST PUSH2 0x1C4 SWAP1 PUSH2 0xAD6 JUMP JUMPDEST PUSH2 0x1C4 SWAP1 PUSH2 0xAEA JUMP JUMPDEST SWAP1 PUSH2 0xB06 SWAP1 PUSH2 0xAF3 JUMP JUMPDEST PUSH1 0x0 MSTORE PUSH1 0x20 MSTORE PUSH1 0x40 PUSH1 0x0 KECCAK256 SWAP1 JUMP JUMPDEST PUSH2 0x1C4 SWAP1 DUP2 JUMP JUMPDEST PUSH2 0x1C4 SWAP1 SLOAD PUSH2 0xB14 JUMP JUMPDEST PUSH2 0xB61 PUSH2 0x1C4 SWAP2 PUSH2 0xB34 PUSH1 0x0 SWAP1 JUMP JUMPDEST POP PUSH2 0xB5A PUSH2 0xB4A PUSH2 0xB45 PUSH1 0x0 PUSH2 0xA6B JUMP JUMPDEST PUSH2 0x2A5 JUMP JUMPDEST PUSH2 0xB53 DUP4 PUSH2 0x2A5 JUMP JUMPDEST EQ ISZERO PUSH2 0xA74 JUMP JUMPDEST PUSH1 0x3 PUSH2 0xAFC JUMP JUMPDEST PUSH2 0xB1B JUMP JUMPDEST ISZERO PUSH2 0xB6D JUMPI JUMP JUMPDEST PUSH1 0x40 MLOAD PUSH3 0x461BCD PUSH1 0xE5 SHL DUP2 MSTORE PUSH1 0x20 PUSH1 0x4 DUP3 ADD MSTORE PUSH1 0x18 PUSH1 0x24 DUP3 ADD MSTORE PUSH32 0x4552433732313A20696E76616C696420746F6B656E2049440000000000000000 PUSH1 0x44 DUP3 ADD MSTORE PUSH1 0x64 SWAP1 REVERT JUMPDEST PUSH2 0xBBF SWAP1 PUSH1 0x0 JUMPDEST POP PUSH2 0xFF1 JUMP JUMPDEST PUSH2 0x1C4 PUSH2 0xBCF PUSH2 0xB45 PUSH1 0x0 PUSH2 0xA6B JUMP JUMPDEST PUSH2 0xBD8 DUP4 PUSH2 0x2A5 JUMP JUMPDEST EQ ISZERO PUSH2 0xB66 JUMP JUMPDEST POP PUSH4 0x4E487B71 PUSH1 0xE0 SHL PUSH1 0x0 MSTORE PUSH1 0x22 PUSH1 0x4 MSTORE PUSH1 0x24 PUSH1 0x0 REVERT JUMPDEST SWAP1 PUSH1 0x1 PUSH1 0x2 DUP4 DIV SWAP3 AND DUP1 ISZERO PUSH2 0xC19 JUMPI JUMPDEST PUSH1 0x20 DUP4 LT EQ PUSH2 0xC11 JUMPI JUMP JUMPDEST PUSH2 0x1AE PUSH2 0xBDF JUMP JUMPDEST SWAP2 PUSH1 0x7F AND SWAP2 PUSH2 0xC06 JUMP JUMPDEST DUP1 SLOAD PUSH1 0x0 SWAP4 SWAP3 SWAP2 PUSH2 0xC40 PUSH2 0xC36 DUP4 PUSH2 0xBF6 JUMP JUMPDEST DUP1 DUP6 MSTORE SWAP4 PUSH1 0x20 ADD SWAP1 JUMP JUMPDEST SWAP2 PUSH1 0x1 DUP2 AND SWAP1 DUP2 ISZERO PUSH2 0xC92 JUMPI POP PUSH1 0x1 EQ PUSH2 0xC59 JUMPI POP POP POP JUMP JUMPDEST PUSH2 0xC6C SWAP2 SWAP3 SWAP4 SWAP5 POP PUSH1 0x0 MSTORE PUSH1 0x20 PUSH1 0x0 KECCAK256 SWAP1 JUMP JUMPDEST SWAP2 PUSH1 0x0 SWAP3 JUMPDEST DUP2 DUP5 LT PUSH2 0xC7E JUMPI POP POP ADD SWAP1 JUMP JUMPDEST DUP1 SLOAD DUP5 DUP5 ADD MSTORE PUSH1 0x20 SWAP1 SWAP4 ADD SWAP3 PUSH1 0x1 ADD PUSH2 0xC71 JUMP JUMPDEST SWAP3 SWAP5 SWAP6 POP POP POP PUSH1 0xFF NOT AND DUP3 MSTORE ISZERO ISZERO PUSH1 0x20 MUL ADD SWAP1 JUMP JUMPDEST SWAP1 PUSH2 0x1C4 SWAP2 PUSH2 0xC23 JUMP JUMPDEST SWAP1 PUSH2 0x1AE PUSH2 0xCCB SWAP3 PUSH2 0xCC2 PUSH1 0x40 MLOAD SWAP1 JUMP JUMPDEST SWAP4 DUP5 DUP1 SWAP3 PUSH2 0xCA7 JUMP JUMPDEST SUB DUP4 PUSH2 0x7C2 JUMP JUMPDEST PUSH2 0x1C4 SWAP1 PUSH2 0xCB1 JUMP JUMPDEST PUSH2 0x1C4 PUSH1 0x0 PUSH2 0xCD2 JUMP JUMPDEST PUSH2 0x1C4 PUSH1 0x1 PUSH2 0xCD2 JUMP JUMPDEST ISZERO PUSH2 0xCF6 JUMPI JUMP JUMPDEST PUSH1 0x40 MLOAD PUSH3 0x461BCD PUSH1 0xE5 SHL DUP2 MSTORE PUSH1 0x20 PUSH1 0x4 DUP3 ADD MSTORE PUSH1 0x21 PUSH1 0x24 DUP3 ADD MSTORE PUSH32 0x4552433732313A20617070726F76616C20746F2063757272656E74206F776E65 PUSH1 0x44 DUP3 ADD MSTORE PUSH1 0x39 PUSH1 0xF9 SHL PUSH1 0x64 DUP3 ADD MSTORE PUSH1 0x84 SWAP1 REVERT JUMPDEST ISZERO PUSH2 0xD4C JUMPI JUMP JUMPDEST PUSH1 0x40 MLOAD PUSH3 0x461BCD PUSH1 0xE5 SHL DUP2 MSTORE PUSH1 0x20 PUSH1 0x4 DUP3 ADD MSTORE PUSH1 0x3D PUSH1 0x24 DUP3 ADD MSTORE PUSH32 0x4552433732313A20617070726F76652063616C6C6572206973206E6F7420746F PUSH1 0x44 DUP3 ADD MSTORE PUSH32 0x6B656E206F776E6572206F7220617070726F76656420666F7220616C6C000000 PUSH1 0x64 DUP3 ADD MSTORE PUSH1 0x84 SWAP1 REVERT JUMPDEST SWAP1 PUSH2 0x1AE SWAP2 PUSH2 0xE07 PUSH2 0xDC8 DUP4 PUSH2 0xBB2 JUMP JUMPDEST PUSH2 0xDE4 PUSH2 0xDD4 DUP3 PUSH2 0x2A5 JUMP JUMPDEST PUSH2 0xDDD DUP6 PUSH2 0x2A5 JUMP JUMPDEST EQ ISZERO PUSH2 0xCEF JUMP JUMPDEST CALLER PUSH2 0xDEE DUP3 PUSH2 0x2A5 JUMP JUMPDEST PUSH2 0xDF7 DUP3 PUSH2 0x2A5 JUMP JUMPDEST EQ SWAP2 DUP3 ISZERO PUSH2 0xE0C JUMPI JUMPDEST POP POP PUSH2 0xD45 JUMP JUMPDEST PUSH2 0x12C0 JUMP JUMPDEST PUSH2 0xE16 SWAP3 POP PUSH2 0xE77 JUMP JUMPDEST CODESIZE DUP1 PUSH2 0xE00 JUMP JUMPDEST PUSH2 0x1C4 PUSH2 0x1C4 PUSH2 0x1C4 SWAP3 SWAP1 JUMP JUMPDEST SWAP1 PUSH2 0xB06 SWAP1 PUSH2 0xE1D JUMP JUMPDEST PUSH2 0x1C4 SWAP1 PUSH2 0x2A5 JUMP JUMPDEST PUSH2 0x1C4 SWAP1 SLOAD PUSH2 0xE34 JUMP JUMPDEST PUSH2 0xE67 PUSH2 0x1C4 SWAP2 PUSH2 0xE56 PUSH1 0x0 SWAP1 JUMP JUMPDEST POP PUSH2 0xE60 DUP2 PUSH2 0x13EF JUMP JUMPDEST PUSH1 0x4 PUSH2 0xE2A JUMP JUMPDEST PUSH2 0xE3D JUMP JUMPDEST PUSH2 0x1AE SWAP2 SWAP1 CALLER PUSH2 0x1376 JUMP JUMPDEST PUSH2 0x1C4 SWAP2 PUSH2 0xE92 PUSH2 0xE97 SWAP3 PUSH2 0xE8A PUSH1 0x0 SWAP1 JUMP JUMPDEST POP PUSH1 0x5 PUSH2 0xAFC JUMP JUMPDEST PUSH2 0xAFC JUMP JUMPDEST SLOAD PUSH1 0xFF AND SWAP1 JUMP JUMPDEST ISZERO PUSH2 0xEA5 JUMPI JUMP JUMPDEST PUSH1 0x40 MLOAD PUSH3 0x461BCD PUSH1 0xE5 SHL DUP2 MSTORE PUSH1 0x20 PUSH1 0x4 DUP3 ADD MSTORE PUSH1 0x2D PUSH1 0x24 DUP3 ADD MSTORE PUSH32 0x4552433732313A2063616C6C6572206973206E6F7420746F6B656E206F776E65 PUSH1 0x44 DUP3 ADD MSTORE PUSH13 0x1C881BDC88185C1C1C9BDD9959 PUSH1 0x9A SHL PUSH1 0x64 DUP3 ADD MSTORE PUSH1 0x84 SWAP1 REVERT JUMPDEST PUSH2 0x1AE SWAP3 SWAP2 SWAP1 PUSH2 0xF18 PUSH2 0xF13 DUP5 CALLER PUSH2 0x1008 JUMP JUMPDEST PUSH2 0xE9E JUMP JUMPDEST PUSH2 0x11B0 JUMP JUMPDEST SWAP1 PUSH2 0xF2A PUSH2 0x84B DUP4 PUSH2 0x805 JUMP JUMPDEST SWAP2 DUP3 MSTORE JUMP JUMPDEST PUSH2 0x1C4 PUSH1 0x0 PUSH2 0xF1D JUMP JUMPDEST PUSH2 0x1C4 PUSH2 0xF2F JUMP JUMPDEST SWAP1 SWAP2 PUSH2 0x1AE SWAP3 PUSH2 0xF4F PUSH2 0xF39 JUMP JUMPDEST SWAP3 JUMPDEST PUSH2 0x1AE SWAP4 SWAP3 SWAP2 SWAP1 PUSH2 0xF65 PUSH2 0xF13 DUP5 CALLER PUSH2 0x1008 JUMP JUMPDEST PUSH2 0xFD2 JUMP JUMPDEST ISZERO PUSH2 0xF71 JUMPI JUMP JUMPDEST PUSH1 0x40 MLOAD JUMPDEST PUSH3 0x461BCD PUSH1 0xE5 SHL DUP2 MSTORE PUSH1 0x20 PUSH1 0x4 DUP3 ADD MSTORE PUSH1 0x32 PUSH1 0x24 DUP3 ADD MSTORE PUSH32 0x4552433732313A207472616E7366657220746F206E6F6E204552433732315265 PUSH1 0x44 DUP3 ADD MSTORE PUSH18 0x31B2B4BB32B91034B6B83632B6B2B73A32B9 PUSH1 0x71 SHL PUSH1 0x64 DUP3 ADD MSTORE PUSH1 0x84 SWAP1 REVERT JUMPDEST SWAP2 PUSH2 0x1AE SWAP4 SWAP2 PUSH2 0xFEC SWAP4 PUSH2 0xFE7 DUP4 DUP4 DUP4 PUSH2 0x11B0 JUMP JUMPDEST PUSH2 0x14A7 JUMP JUMPDEST PUSH2 0xF6A JUMP JUMPDEST PUSH2 0xE67 PUSH2 0x1C4 SWAP2 PUSH2 0x1000 PUSH1 0x0 SWAP1 JUMP JUMPDEST POP PUSH1 0x2 PUSH2 0xE2A JUMP JUMPDEST PUSH2 0x1011 DUP3 PUSH2 0xBB2 JUMP JUMPDEST SWAP2 PUSH2 0x101B DUP4 PUSH2 0x2A5 JUMP JUMPDEST PUSH2 0x1024 DUP4 PUSH2 0x2A5 JUMP JUMPDEST EQ SWAP3 DUP4 ISZERO PUSH2 0x105B JUMPI JUMPDEST POP DUP3 ISZERO PUSH2 0x1039 JUMPI POP POP SWAP1 JUMP JUMPDEST PUSH2 0x1057 SWAP2 SWAP3 POP PUSH2 0x104B PUSH2 0x1051 SWAP2 PUSH2 0xE47 JUMP JUMPDEST SWAP3 PUSH2 0x2A5 JUMP JUMPDEST SWAP2 PUSH2 0x2A5 JUMP JUMPDEST EQ SWAP1 JUMP JUMPDEST PUSH2 0x1068 SWAP2 SWAP4 POP DUP3 SWAP1 PUSH2 0xE77 JUMP JUMPDEST SWAP2 CODESIZE PUSH2 0x102D JUMP JUMPDEST ISZERO PUSH2 0x1076 JUMPI JUMP JUMPDEST PUSH1 0x40 MLOAD PUSH3 0x461BCD PUSH1 0xE5 SHL DUP2 MSTORE PUSH1 0x20 PUSH1 0x4 DUP3 ADD MSTORE PUSH1 0x25 PUSH1 0x24 DUP3 ADD MSTORE PUSH32 0x4552433732313A207472616E736665722066726F6D20696E636F727265637420 PUSH1 0x44 DUP3 ADD MSTORE PUSH5 0x37BBB732B9 PUSH1 0xD9 SHL PUSH1 0x64 DUP3 ADD MSTORE PUSH1 0x84 SWAP1 REVERT JUMPDEST ISZERO PUSH2 0x10D0 JUMPI JUMP JUMPDEST PUSH1 0x40 MLOAD PUSH3 0x461BCD PUSH1 0xE5 SHL DUP2 MSTORE PUSH1 0x20 PUSH1 0x4 DUP3 ADD MSTORE PUSH1 0x24 DUP1 DUP3 ADD MSTORE PUSH32 0x4552433732313A207472616E7366657220746F20746865207A65726F20616464 PUSH1 0x44 DUP3 ADD MSTORE PUSH4 0x72657373 PUSH1 0xE0 SHL PUSH1 0x64 DUP3 ADD MSTORE PUSH1 0x84 SWAP1 REVERT JUMPDEST SWAP2 PUSH1 0x1 PUSH1 0x1 PUSH1 0xA0 SHL SUB PUSH1 0x8 SWAP3 SWAP1 SWAP3 MUL SWAP2 DUP3 SHL SWAP2 SHL JUMPDEST SWAP2 DUP2 NOT AND SWAP2 AND OR SWAP1 JUMP JUMPDEST SWAP2 SWAP1 PUSH2 0x1151 PUSH2 0x1C4 PUSH2 0x1159 SWAP4 PUSH2 0xAF3 JUMP JUMPDEST SWAP1 DUP4 SLOAD PUSH2 0x1121 JUMP JUMPDEST SWAP1 SSTORE JUMP JUMPDEST PUSH2 0x1AE SWAP2 PUSH1 0x0 SWAP2 PUSH2 0x1140 JUMP JUMPDEST SWAP1 PUSH1 0x0 NOT SWAP1 PUSH2 0x1136 JUMP JUMPDEST SWAP1 PUSH2 0x1183 PUSH2 0x1C4 PUSH2 0x1159 SWAP3 PUSH2 0xE1D JUMP JUMPDEST DUP3 SLOAD PUSH2 0x1169 JUMP JUMPDEST SWAP1 PUSH1 0x1 PUSH1 0x1 PUSH1 0xA0 SHL SUB SWAP1 PUSH2 0x1136 JUMP JUMPDEST SWAP1 PUSH2 0x11A9 PUSH2 0x1C4 PUSH2 0x1159 SWAP3 PUSH2 0xAF3 JUMP JUMPDEST DUP3 SLOAD PUSH2 0x118A JUMP JUMPDEST SWAP2 SWAP1 PUSH2 0x11D0 PUSH2 0x11BE DUP4 PUSH2 0xBB2 JUMP JUMPDEST PUSH2 0x11CA PUSH2 0x1051 DUP7 PUSH2 0x2A5 JUMP JUMPDEST EQ PUSH2 0x106F JUMP JUMPDEST PUSH2 0x121C PUSH1 0x0 PUSH2 0x11F4 PUSH2 0x11E4 PUSH2 0xB45 DUP4 PUSH2 0xA6B JUMP JUMPDEST PUSH2 0x11ED DUP6 PUSH2 0x2A5 JUMP JUMPDEST EQ ISZERO PUSH2 0x10C9 JUMP JUMPDEST PUSH2 0x120C PUSH2 0x1200 DUP6 PUSH2 0xBB2 JUMP JUMPDEST PUSH2 0x11CA PUSH2 0x1051 DUP9 PUSH2 0x2A5 JUMP JUMPDEST PUSH2 0x1217 DUP5 PUSH1 0x4 PUSH2 0xE2A JUMP JUMPDEST PUSH2 0x115D JUMP JUMPDEST PUSH2 0x1260 PUSH2 0x1229 PUSH1 0x1 PUSH2 0xE1D JUMP JUMPDEST PUSH2 0x1250 PUSH2 0x1256 DUP5 PUSH1 0x3 PUSH2 0xE92 PUSH2 0x123F DUP11 DUP4 PUSH2 0xAFC JUMP JUMPDEST PUSH2 0x1250 DUP8 PUSH2 0x124C DUP4 PUSH2 0xB1B JUMP JUMPDEST SUB SWAP1 JUMP JUMPDEST SWAP1 PUSH2 0x1173 JUMP JUMPDEST SWAP2 PUSH2 0x39F DUP4 PUSH2 0xB1B JUMP JUMPDEST PUSH2 0x1274 DUP2 PUSH2 0x126F DUP5 PUSH1 0x2 PUSH2 0xE2A JUMP JUMPDEST PUSH2 0x1199 JUMP JUMPDEST PUSH2 0x12B0 PUSH2 0x12AA PUSH2 0x12A4 PUSH32 0xDDF252AD1BE2C89B69C2B068FC378DAA952BA7F163C4A11628F55A4DF523B3EF SWAP6 PUSH2 0xAF3 JUMP JUMPDEST SWAP3 PUSH2 0xAF3 JUMP JUMPDEST SWAP3 PUSH2 0xE1D JUMP JUMPDEST SWAP3 PUSH2 0x12BA PUSH1 0x40 MLOAD SWAP1 JUMP JUMPDEST PUSH1 0x0 SWAP1 LOG4 JUMP JUMPDEST SWAP1 PUSH2 0x12D0 DUP3 PUSH2 0x126F DUP4 PUSH1 0x4 PUSH2 0xE2A JUMP JUMPDEST PUSH2 0x12D9 DUP2 PUSH2 0xBB2 JUMP JUMPDEST SWAP2 PUSH2 0x12B0 PUSH2 0x12AA PUSH2 0x12A4 PUSH32 0x8C5BE1E5EBEC7D5BD14F71427D1E84F3DD0314C0F7B2291E5B200AC8C7C3B925 SWAP6 PUSH2 0xAF3 JUMP JUMPDEST ISZERO PUSH2 0x1311 JUMPI JUMP JUMPDEST PUSH1 0x40 MLOAD PUSH3 0x461BCD PUSH1 0xE5 SHL DUP2 MSTORE PUSH1 0x20 PUSH1 0x4 DUP3 ADD MSTORE PUSH1 0x19 PUSH1 0x24 DUP3 ADD MSTORE PUSH32 0x4552433732313A20617070726F766520746F2063616C6C657200000000000000 PUSH1 0x44 DUP3 ADD MSTORE PUSH1 0x64 SWAP1 REVERT JUMPDEST SWAP1 PUSH1 0xFF SWAP1 PUSH2 0x1136 JUMP JUMPDEST SWAP1 PUSH2 0x136F PUSH2 0x1C4 PUSH2 0x1159 SWAP3 ISZERO ISZERO SWAP1 JUMP JUMPDEST DUP3 SLOAD PUSH2 0x1356 JUMP JUMPDEST PUSH2 0x1392 PUSH2 0x1382 DUP4 PUSH2 0x2A5 JUMP JUMPDEST PUSH2 0x138B DUP4 PUSH2 0x2A5 JUMP JUMPDEST EQ ISZERO PUSH2 0x130A JUMP JUMPDEST PUSH2 0x13AA DUP4 PUSH2 0x13A5 DUP5 PUSH2 0xE92 DUP6 PUSH1 0x5 PUSH2 0xAFC JUMP JUMPDEST PUSH2 0x135F JUMP JUMPDEST PUSH2 0x13EA PUSH2 0x13E0 PUSH2 0x13DA PUSH32 0x17307EAB39AB6107E8899845AD3D59BD9653F200F220920489CA2B5937696C31 SWAP4 PUSH2 0xAF3 JUMP JUMPDEST SWAP4 PUSH2 0xAF3 JUMP JUMPDEST SWAP4 PUSH2 0x1F9 PUSH1 0x40 MLOAD SWAP1 JUMP JUMPDEST SUB SWAP1 LOG3 JUMP JUMPDEST PUSH2 0x13FB PUSH2 0x1AE SWAP2 PUSH2 0x1400 JUMP JUMPDEST PUSH2 0xB66 JUMP JUMPDEST PUSH2 0x140B SWAP1 PUSH1 0x0 PUSH2 0xBB9 JUMP JUMPDEST PUSH2 0x141B PUSH2 0x1051 PUSH2 0xB45 PUSH1 0x0 PUSH2 0xA6B JUMP JUMPDEST EQ ISZERO SWAP1 JUMP JUMPDEST SWAP1 POP MLOAD SWAP1 PUSH2 0x1AE DUP3 PUSH2 0x18E JUMP JUMPDEST SWAP1 PUSH2 0x1C4 SWAP2 PUSH1 0x20 DUP2 DUP4 SUB SLT ISZERO PUSH2 0x1420 JUMPI PUSH2 0x1445 PUSH1 0x0 DUP1 REVERT JUMPDEST PUSH2 0x1420 JUMP JUMPDEST SWAP1 SWAP3 PUSH2 0x147B SWAP1 PUSH2 0x1474 PUSH2 0x1C4 SWAP7 SWAP5 PUSH2 0x146A PUSH1 0x80 DUP7 ADD SWAP8 PUSH1 0x0 DUP8 ADD SWAP1 PUSH2 0x2E6 JUMP JUMPDEST PUSH1 0x20 DUP6 ADD SWAP1 PUSH2 0x2E6 JUMP JUMPDEST PUSH1 0x40 DUP4 ADD MSTORE JUMP JUMPDEST PUSH1 0x60 DUP2 DUP5 SUB SWAP2 ADD MSTORE PUSH2 0x375 JUMP JUMPDEST RETURNDATASIZE ISZERO PUSH2 0x14A2 JUMPI PUSH2 0x1497 RETURNDATASIZE PUSH2 0xF1D JUMP JUMPDEST SWAP1 RETURNDATASIZE PUSH1 0x0 PUSH1 0x20 DUP5 ADD RETURNDATACOPY JUMP JUMPDEST PUSH1 0x60 SWAP1 JUMP JUMPDEST SWAP2 SWAP1 SWAP4 SWAP3 PUSH2 0x14B3 PUSH1 0x0 SWAP1 JUMP JUMPDEST SWAP5 PUSH2 0x14BD DUP2 PUSH2 0x16C2 JUMP JUMPDEST ISZERO PUSH2 0x159F JUMPI SWAP1 PUSH2 0x1504 PUSH1 0x0 PUSH2 0x14DC PUSH2 0x14D7 PUSH1 0x20 SWAP7 SWAP6 PUSH2 0xAF3 JUMP JUMPDEST PUSH2 0xAF3 JUMP JUMPDEST SWAP3 PUSH2 0x150F PUSH4 0x150B7A02 SWAP2 PUSH2 0x14ED CALLER SWAP1 JUMP JUMPDEST SWAP7 PUSH2 0x14F7 PUSH1 0x40 MLOAD SWAP1 JUMP JUMPDEST SWAP10 DUP11 SWAP9 DUP10 SWAP8 DUP9 SWAP7 PUSH1 0xE0 SHL SWAP1 JUMP JUMPDEST DUP7 MSTORE PUSH1 0x4 DUP7 ADD PUSH2 0x144A JUMP JUMPDEST SUB SWAP3 GAS CALL PUSH1 0x0 SWAP2 DUP2 PUSH2 0x156F JUMPI JUMPDEST POP PUSH2 0x1552 JUMPI POP PUSH2 0x152A PUSH2 0x1488 JUMP JUMPDEST DUP1 MLOAD PUSH2 0x153D PUSH2 0x1539 PUSH1 0x0 PUSH2 0xE1D JUMP JUMPDEST SWAP2 SWAP1 JUMP JUMPDEST SUB PUSH2 0x154A JUMPI PUSH1 0x40 MLOAD PUSH2 0xF75 JUMP JUMPDEST DUP1 MLOAD SWAP1 PUSH1 0x20 ADD REVERT JUMPDEST SWAP1 SWAP2 POP PUSH2 0x1057 PUSH4 0xA85BD01 PUSH1 0xE1 SHL JUMPDEST SWAP2 PUSH1 0x1 PUSH1 0x1 PUSH1 0xE0 SHL SUB NOT AND SWAP1 JUMP JUMPDEST PUSH2 0x1591 SWAP2 SWAP3 POP PUSH1 0x20 RETURNDATASIZE DUP2 GT PUSH2 0x1598 JUMPI JUMPDEST PUSH2 0x1589 DUP2 DUP4 PUSH2 0x7C2 JUMP JUMPDEST DUP2 ADD SWAP1 PUSH2 0x142D JUMP JUMPDEST SWAP1 CODESIZE PUSH2 0x151C JUMP JUMPDEST POP RETURNDATASIZE PUSH2 0x157F JUMP JUMPDEST POP PUSH1 0x1 SWAP5 POP POP POP POP JUMP JUMPDEST PUSH2 0x39F PUSH2 0x15C1 SWAP3 PUSH1 0x20 SWAP3 PUSH2 0x15BB DUP2 MLOAD SWAP1 JUMP JUMPDEST SWAP5 DUP6 SWAP3 SWAP1 JUMP JUMPDEST SWAP4 DUP5 SWAP2 ADD PUSH2 0x348 JUMP JUMPDEST PUSH2 0x15D8 SWAP1 PUSH2 0x1C4 SWAP4 SWAP3 PUSH2 0x15A9 JUMP JUMPDEST SWAP1 PUSH2 0x15A9 JUMP JUMPDEST PUSH2 0x15E7 DUP2 PUSH2 0x13EF JUMP JUMPDEST PUSH2 0x15FA PUSH2 0x15F5 DUP3 PUSH1 0x6 PUSH2 0xE2A JUMP JUMPDEST PUSH2 0xCD2 JUMP JUMPDEST PUSH2 0x1602 PUSH2 0x16BA JUMP JUMPDEST DUP1 MLOAD PUSH1 0x0 SWAP1 PUSH2 0x1613 PUSH2 0x1539 DUP4 PUSH2 0xE1D JUMP JUMPDEST EQ PUSH2 0x1666 JUMPI PUSH2 0x1626 PUSH2 0x1539 PUSH2 0x12AA DUP6 MLOAD SWAP1 JUMP JUMPDEST GT PUSH2 0x1636 JUMPI POP POP PUSH2 0x1C4 SWAP1 PUSH2 0x166D JUMP JUMPDEST PUSH2 0x1C4 SWAP3 POP PUSH2 0x165A SWAP2 PUSH2 0x1C4 SWAP2 PUSH2 0x164C PUSH1 0x40 MLOAD SWAP1 JUMP JUMPDEST SWAP4 DUP5 SWAP3 PUSH1 0x20 DUP5 ADD SWAP3 DUP4 PUSH2 0x15CA JUMP JUMPDEST SWAP1 DUP2 SUB DUP3 MSTORE SUB DUP3 PUSH2 0x7C2 JUMP JUMPDEST POP POP SWAP1 POP SWAP1 JUMP JUMPDEST PUSH2 0x1676 DUP2 PUSH2 0x13EF JUMP JUMPDEST PUSH2 0x167E PUSH2 0x16BA JUMP JUMPDEST DUP1 MLOAD PUSH2 0x168D PUSH2 0x1539 PUSH1 0x0 PUSH2 0xE1D JUMP JUMPDEST GT ISZERO PUSH2 0x16B0 JUMPI PUSH2 0x1C4 PUSH2 0x165A SWAP2 PUSH2 0x16A6 PUSH2 0x1C4 SWAP5 PUSH2 0x1729 JUMP JUMPDEST SWAP1 PUSH2 0x164C PUSH1 0x40 MLOAD SWAP1 JUMP JUMPDEST POP POP PUSH2 0x1C4 PUSH2 0xF39 JUMP JUMPDEST PUSH2 0x1C4 PUSH2 0xF39 JUMP JUMPDEST EXTCODESIZE PUSH2 0x16D0 PUSH2 0x1539 PUSH1 0x0 PUSH2 0xE1D JUMP JUMPDEST GT SWAP1 JUMP JUMPDEST CALLDATASIZE SWAP1 CALLDATACOPY JUMP JUMPDEST SWAP1 PUSH2 0x1AE PUSH2 0x16EF PUSH2 0x16E9 DUP5 PUSH2 0xF1D JUMP JUMPDEST SWAP4 PUSH2 0x805 JUMP JUMPDEST PUSH1 0x1F NOT ADD PUSH1 0x20 DUP5 ADD PUSH2 0x16D4 JUMP JUMPDEST POP PUSH4 0x4E487B71 PUSH1 0xE0 SHL PUSH1 0x0 MSTORE PUSH1 0x12 PUSH1 0x4 MSTORE PUSH1 0x24 PUSH1 0x0 REVERT JUMPDEST DUP2 ISZERO PUSH2 0x171D JUMPI DIV SWAP1 JUMP JUMPDEST PUSH2 0x1725 PUSH2 0x16FC JUMP JUMPDEST DIV SWAP1 JUMP JUMPDEST PUSH2 0x1732 DUP2 PUSH2 0x17C5 JUMP JUMPDEST SWAP1 PUSH2 0x1742 PUSH1 0x1 SWAP3 PUSH2 0x39F DUP5 PUSH2 0xE1D JUMP JUMPDEST SWAP2 DUP1 PUSH2 0x174D DUP5 PUSH2 0x16D9 JUMP JUMPDEST SWAP4 PUSH1 0x20 ADD DUP5 ADD SWAP1 JUMPDEST PUSH2 0x1760 JUMPI JUMPDEST POP POP POP SWAP1 JUMP JUMPDEST PUSH2 0x1794 SWAP1 PUSH1 0x0 NOT ADD SWAP3 PUSH16 0x181899199A1A9B1B9C1CB0B131B232B3 PUSH1 0x81 SHL PUSH1 0xA DUP3 MOD BYTE DUP5 MSTORE8 PUSH2 0x178E PUSH1 0xA PUSH2 0xE1D JUMP JUMPDEST SWAP1 PUSH2 0x1713 JUMP JUMPDEST SWAP1 DUP2 PUSH2 0x17A3 PUSH2 0x1539 PUSH1 0x0 PUSH2 0xE1D JUMP JUMPDEST EQ PUSH2 0x17B0 JUMPI SWAP1 SWAP2 DUP2 PUSH2 0x1755 JUMP JUMPDEST PUSH2 0x175A JUMP JUMPDEST PUSH2 0x1057 PUSH4 0x1FFC9A7 PUSH1 0xE0 SHL PUSH2 0x1561 JUMP JUMPDEST PUSH2 0x17CF PUSH1 0x0 PUSH2 0xE1D JUMP JUMPDEST SWAP1 PUSH27 0x184F03E93FF9F4DAA797ED6E38ED64BF6A1F010000000000000000 PUSH2 0x17F5 DUP2 PUSH2 0xE1D JUMP JUMPDEST DUP3 LT ISZERO PUSH2 0x1947 JUMPI JUMPDEST POP PUSH14 0x4EE2D6D415B85ACEF8100000000 PUSH2 0x1816 DUP2 PUSH2 0xE1D JUMP JUMPDEST DUP3 LT ISZERO PUSH2 0x1925 JUMPI JUMPDEST POP PUSH7 0x2386F26FC10000 PUSH2 0x1830 DUP2 PUSH2 0xE1D JUMP JUMPDEST DUP3 LT ISZERO PUSH2 0x1903 JUMPI JUMPDEST POP PUSH4 0x5F5E100 PUSH2 0x1847 DUP2 PUSH2 0xE1D JUMP JUMPDEST DUP3 LT ISZERO PUSH2 0x18E1 JUMPI JUMPDEST POP PUSH2 0x2710 PUSH2 0x185C DUP2 PUSH2 0xE1D JUMP JUMPDEST DUP3 LT ISZERO PUSH2 0x18BF JUMPI JUMPDEST POP PUSH1 0x64 PUSH2 0x1870 DUP2 PUSH2 0xE1D JUMP JUMPDEST DUP3 LT ISZERO PUSH2 0x189D JUMPI JUMPDEST POP PUSH2 0x1886 PUSH2 0x1539 PUSH1 0xA PUSH2 0xE1D JUMP JUMPDEST LT ISZERO PUSH2 0x188F JUMPI SWAP1 JUMP JUMPDEST PUSH2 0x1C4 SWAP1 PUSH2 0x39F PUSH1 0x1 PUSH2 0xE1D JUMP JUMPDEST PUSH2 0x18B8 SWAP2 PUSH2 0x178E PUSH2 0x18AD SWAP3 PUSH2 0xE1D JUMP JUMPDEST SWAP2 PUSH2 0x39F PUSH1 0x2 PUSH2 0xE1D JUMP JUMPDEST SWAP1 CODESIZE PUSH2 0x1878 JUMP JUMPDEST PUSH2 0x18DA SWAP2 PUSH2 0x178E PUSH2 0x18CF SWAP3 PUSH2 0xE1D JUMP JUMPDEST SWAP2 PUSH2 0x39F PUSH1 0x4 PUSH2 0xE1D JUMP JUMPDEST SWAP1 CODESIZE PUSH2 0x1864 JUMP JUMPDEST PUSH2 0x18FC SWAP2 PUSH2 0x178E PUSH2 0x18F1 SWAP3 PUSH2 0xE1D JUMP JUMPDEST SWAP2 PUSH2 0x39F PUSH1 0x8 PUSH2 0xE1D JUMP JUMPDEST SWAP1 CODESIZE PUSH2 0x184F JUMP JUMPDEST PUSH2 0x191E SWAP2 PUSH2 0x178E PUSH2 0x1913 SWAP3 PUSH2 0xE1D JUMP JUMPDEST SWAP2 PUSH2 0x39F PUSH1 0x10 PUSH2 0xE1D JUMP JUMPDEST SWAP1 CODESIZE PUSH2 0x1838 JUMP JUMPDEST PUSH2 0x1940 SWAP2 PUSH2 0x178E PUSH2 0x1935 SWAP3 PUSH2 0xE1D JUMP JUMPDEST SWAP2 PUSH2 0x39F PUSH1 0x20 PUSH2 0xE1D JUMP JUMPDEST SWAP1 CODESIZE PUSH2 0x181E JUMP JUMPDEST PUSH2 0x1962 SWAP2 PUSH2 0x178E PUSH2 0x1957 SWAP3 PUSH2 0xE1D JUMP JUMPDEST SWAP2 PUSH2 0x39F PUSH1 0x40 PUSH2 0xE1D JUMP JUMPDEST SWAP1 CODESIZE PUSH2 0x17FD JUMP JUMPDEST POP PUSH4 0x4E487B71 PUSH1 0xE0 SHL PUSH1 0x0 MSTORE PUSH1 0x11 PUSH1 0x4 MSTORE PUSH1 0x24 PUSH1 0x0 REVERT JUMPDEST PUSH1 0x1 SWAP1 PUSH1 0x0 NOT DUP2 EQ PUSH2 0x1990 JUMPI ADD SWAP1 JUMP JUMPDEST PUSH2 0x39F PUSH2 0x1969 JUMP JUMPDEST PUSH1 0x20 DUP1 DUP3 MSTORE PUSH1 0x26 SWAP1 DUP3 ADD MSTORE PUSH32 0x4F6E6C7920746865206F776E65722063616E2063616C6C20746869732066756E PUSH1 0x40 DUP3 ADD MSTORE PUSH6 0x31BA34B7B717 PUSH1 0xD1 SHL PUSH1 0x60 DUP3 ADD MSTORE PUSH1 0x80 ADD SWAP1 JUMP JUMPDEST ISZERO PUSH2 0x19E5 JUMPI JUMP JUMPDEST PUSH1 0x40 MLOAD PUSH3 0x461BCD PUSH1 0xE5 SHL DUP2 MSTORE DUP1 PUSH2 0xAD2 PUSH1 0x4 DUP3 ADD PUSH2 0x1998 JUMP JUMPDEST SWAP1 PUSH1 0x0 SWAP2 PUSH2 0x1A0B DUP4 PUSH2 0xE1D JUMP JUMPDEST PUSH1 0x8 PUSH2 0x1A18 PUSH2 0x1C4 DUP3 SLOAD SWAP1 JUMP JUMPDEST DUP3 LT ISZERO PUSH2 0x1A95 JUMPI PUSH2 0x1A33 PUSH2 0x1051 PUSH2 0xB45 PUSH2 0x2DD DUP6 CALLER SWAP6 PUSH2 0x260 JUMP JUMPDEST EQ PUSH2 0x1A46 JUMPI PUSH2 0x1A41 SWAP1 PUSH2 0x1980 JUMP JUMPDEST PUSH2 0x1A0B JUMP JUMPDEST POP PUSH2 0x1A5B SWAP3 POP PUSH2 0x1A56 PUSH1 0x1 PUSH2 0x19DE JUMP JUMPDEST PUSH2 0x1B2A JUMP JUMPDEST SWAP1 PUSH32 0x8514E9874D1EE55D652D405875552B31F7275A881F0F832EAB8D077876C093E2 PUSH2 0x1A86 PUSH1 0x40 MLOAD SWAP1 JUMP JUMPDEST DUP1 PUSH2 0x1A90 DUP2 PUSH2 0x1998 JUMP JUMPDEST SUB SWAP1 LOG1 JUMP JUMPDEST POP POP PUSH2 0x1A56 PUSH2 0x1A5B SWAP4 PUSH2 0x19DE JUMP JUMPDEST PUSH21 0x68747470733A2F2F697066732E696F2F697066732F PUSH1 0x58 SHL DUP2 MSTORE PUSH2 0x1C4 SWAP2 SWAP1 PUSH1 0x15 ADD PUSH2 0x15D8 JUMP JUMPDEST SWAP2 SWAP1 PUSH2 0x1C4 SWAP4 PUSH2 0x1AF1 PUSH2 0x1AFE SWAP4 PUSH2 0x1AEA PUSH1 0x80 DUP8 ADD SWAP5 PUSH1 0x0 DUP9 ADD SWAP1 PUSH2 0x2E6 JUMP JUMPDEST PUSH1 0x20 DUP7 ADD MSTORE JUMP JUMPDEST DUP4 DUP3 SUB PUSH1 0x40 DUP6 ADD MSTORE PUSH2 0x375 JUMP JUMPDEST SWAP1 PUSH1 0x60 DUP2 DUP4 SUB SWAP2 ADD MSTORE PUSH1 0x10 DUP2 MSTORE PUSH16 0x1050D51253D397D0D3D3919254935151 PUSH1 0x82 SHL PUSH1 0x20 DUP3 ADD MSTORE PUSH1 0x40 ADD SWAP1 JUMP JUMPDEST POP PUSH2 0x1B5F PUSH2 0x1B59 PUSH1 0x7 SWAP3 PUSH2 0x1B3D DUP5 PUSH2 0x1F0E JUMP JUMPDEST PUSH2 0x1C4 PUSH2 0x1B49 PUSH1 0x40 MLOAD SWAP1 JUMP JUMPDEST DUP1 SWAP3 PUSH2 0x165A PUSH1 0x20 DUP4 ADD SWAP2 DUP3 PUSH2 0x1AA3 JUMP JUMPDEST SWAP2 PUSH2 0x1EF9 JUMP JUMPDEST SWAP1 DUP2 CALLER PUSH2 0x1B6C DUP3 DUP3 PUSH2 0x1C5A JUMP JUMPDEST PUSH2 0x1B76 DUP4 DUP4 PUSH2 0x1ED4 JUMP JUMPDEST PUSH2 0x1BAD PUSH32 0xE22CC2323A3A1E016E6DE3D567FEF2C2667443939A122469A166E3D293B16D0B SWAP4 PUSH2 0x1BA4 PUSH1 0x40 MLOAD SWAP1 JUMP JUMPDEST SWAP4 DUP5 SWAP4 DUP5 PUSH2 0x1ACB JUMP JUMPDEST SUB SWAP1 LOG1 SWAP1 JUMP JUMPDEST PUSH2 0x1C4 SWAP1 PUSH1 0x0 PUSH2 0x19FE JUMP JUMPDEST ISZERO PUSH2 0x1BC5 JUMPI JUMP JUMPDEST PUSH1 0x40 MLOAD PUSH3 0x461BCD PUSH1 0xE5 SHL DUP2 MSTORE DUP1 PUSH2 0xAD2 PUSH1 0x4 DUP3 ADD PUSH1 0x20 DUP1 DUP3 MSTORE DUP2 DUP2 ADD MSTORE PUSH32 0x4552433732313A206D696E7420746F20746865207A65726F2061646472657373 PUSH1 0x40 DUP3 ADD MSTORE PUSH1 0x60 ADD SWAP1 JUMP JUMPDEST ISZERO PUSH2 0x1C15 JUMPI JUMP JUMPDEST PUSH1 0x40 MLOAD PUSH3 0x461BCD PUSH1 0xE5 SHL DUP2 MSTORE PUSH1 0x20 PUSH1 0x4 DUP3 ADD MSTORE PUSH1 0x1C PUSH1 0x24 DUP3 ADD MSTORE PUSH32 0x4552433732313A20746F6B656E20616C7265616479206D696E74656400000000 PUSH1 0x44 DUP3 ADD MSTORE PUSH1 0x64 SWAP1 REVERT JUMPDEST SWAP1 PUSH2 0x1C65 PUSH1 0x0 PUSH2 0xA6B JUMP JUMPDEST SWAP2 PUSH2 0x1C82 PUSH2 0x1C72 DUP5 PUSH2 0x2A5 JUMP JUMPDEST PUSH2 0x1C7B DUP4 PUSH2 0x2A5 JUMP JUMPDEST EQ ISZERO PUSH2 0x1BBE JUMP JUMPDEST PUSH2 0x1C9A PUSH2 0x1C95 PUSH2 0x1C91 DUP5 PUSH2 0x1400 JUMP JUMPDEST ISZERO SWAP1 JUMP JUMPDEST PUSH2 0x1C0E JUMP JUMPDEST PUSH2 0x1CA9 PUSH2 0x1C95 PUSH2 0x1C91 DUP5 PUSH2 0x1400 JUMP JUMPDEST PUSH2 0x1260 PUSH2 0x1CB6 PUSH1 0x1 PUSH2 0xE1D JUMP JUMPDEST PUSH2 0x1250 PUSH2 0x1256 DUP5 PUSH1 0x3 PUSH2 0xAFC JUMP JUMPDEST ISZERO PUSH2 0x1CCB JUMPI JUMP JUMPDEST PUSH1 0x40 MLOAD PUSH3 0x461BCD PUSH1 0xE5 SHL DUP2 MSTORE PUSH1 0x20 PUSH1 0x4 DUP3 ADD MSTORE PUSH1 0x2E PUSH1 0x24 DUP3 ADD MSTORE PUSH32 0x45524337323155524953746F726167653A2055524920736574206F66206E6F6E PUSH1 0x44 DUP3 ADD MSTORE PUSH14 0x32BC34B9BA32B73A103A37B5B2B7 PUSH1 0x91 SHL PUSH1 0x64 DUP3 ADD MSTORE PUSH1 0x84 SWAP1 REVERT JUMPDEST POP PUSH4 0x4E487B71 PUSH1 0xE0 SHL PUSH1 0x0 MSTORE PUSH1 0x0 PUSH1 0x4 MSTORE PUSH1 0x24 PUSH1 0x0 REVERT JUMPDEST SWAP2 PUSH1 0x0 NOT PUSH1 0x8 SWAP3 SWAP1 SWAP3 MUL SWAP2 DUP3 SHL SWAP2 SHL PUSH2 0x1136 JUMP JUMPDEST SWAP2 SWAP1 PUSH2 0x1D63 PUSH2 0x1C4 PUSH2 0x1159 SWAP4 PUSH2 0xE1D JUMP JUMPDEST SWAP1 DUP4 SLOAD PUSH2 0x1D3E JUMP JUMPDEST PUSH2 0x1AE SWAP2 PUSH1 0x0 SWAP2 PUSH2 0x1D52 JUMP JUMPDEST DUP2 DUP2 LT PUSH2 0x1D82 JUMPI POP POP JUMP JUMPDEST DUP1 PUSH2 0x1D90 PUSH1 0x0 PUSH1 0x1 SWAP4 PUSH2 0x1D6B JUMP JUMPDEST ADD PUSH2 0x1D77 JUMP JUMPDEST SWAP2 SWAP1 PUSH1 0x1F DUP2 GT PUSH2 0x1DA5 JUMPI POP POP POP JUMP JUMPDEST PUSH2 0x1DB7 PUSH2 0x1AE SWAP4 PUSH1 0x0 MSTORE PUSH1 0x20 PUSH1 0x0 KECCAK256 SWAP1 JUMP JUMPDEST SWAP1 PUSH1 0x20 PUSH1 0x1F DUP5 ADD DUP2 SWAP1 DIV DUP4 ADD SWAP4 LT PUSH2 0x1DDA JUMPI JUMPDEST PUSH1 0x20 PUSH1 0x1F SWAP1 SWAP2 ADD DIV JUMPDEST ADD SWAP1 PUSH2 0x1D77 JUMP JUMPDEST SWAP1 SWAP2 POP DUP2 SWAP1 PUSH2 0x1DCA JUMP JUMPDEST PUSH1 0x0 NOT PUSH1 0x8 DUP4 MUL SHR NOT AND SWAP1 PUSH1 0x2 MUL OR SWAP1 JUMP JUMPDEST SWAP1 PUSH2 0x1DFF DUP2 MLOAD SWAP1 JUMP JUMPDEST SWAP1 PUSH8 0xFFFFFFFFFFFFFFFF DUP3 GT PUSH2 0x1EBD JUMPI JUMPDEST PUSH2 0x1E24 DUP3 PUSH2 0x1E1E DUP6 SLOAD PUSH2 0xBF6 JUMP JUMPDEST DUP6 PUSH2 0x1D96 JUMP JUMPDEST PUSH1 0x20 SWAP1 PUSH1 0x1F DUP4 GT PUSH1 0x1 EQ PUSH2 0x1E52 JUMPI PUSH2 0x1159 SWAP3 SWAP2 PUSH1 0x0 SWAP2 DUP4 PUSH2 0x1E47 JUMPI JUMPDEST POP POP PUSH2 0x1DE4 JUMP JUMPDEST ADD MLOAD SWAP1 POP CODESIZE DUP1 PUSH2 0x1E40 JUMP JUMPDEST PUSH1 0x1F NOT DUP4 AND SWAP2 PUSH2 0x1E67 DUP6 PUSH1 0x0 MSTORE PUSH1 0x20 PUSH1 0x0 KECCAK256 SWAP1 JUMP JUMPDEST SWAP3 PUSH1 0x0 JUMPDEST DUP2 DUP2 LT PUSH2 0x1EA5 JUMPI POP SWAP2 PUSH1 0x2 SWAP4 SWAP2 DUP6 PUSH1 0x1 SWAP7 SWAP5 LT PUSH2 0x1E8C JUMPI JUMPDEST POP POP POP MUL ADD SWAP1 SSTORE JUMP JUMPDEST ADD MLOAD PUSH1 0x0 NOT PUSH1 0x8 PUSH1 0x1F DUP6 AND MUL SHR NOT AND SWAP1 SSTORE CODESIZE DUP1 DUP1 PUSH2 0x1E83 JUMP JUMPDEST SWAP2 SWAP4 PUSH1 0x20 PUSH1 0x1 DUP2 SWAP3 DUP8 DUP8 ADD MLOAD DUP2 SSTORE ADD SWAP6 ADD SWAP3 ADD PUSH2 0x1E6B JUMP JUMPDEST PUSH2 0x1EC5 PUSH2 0x7AB JUMP JUMPDEST PUSH2 0x1E10 JUMP JUMPDEST SWAP1 PUSH2 0x1AE SWAP2 PUSH2 0x1DF6 JUMP JUMPDEST SWAP1 PUSH2 0x1EF4 PUSH2 0x1AE SWAP3 PUSH2 0x1EED PUSH2 0x1EE8 DUP3 PUSH2 0x1400 JUMP JUMPDEST PUSH2 0x1CC4 JUMP JUMPDEST PUSH1 0x6 PUSH2 0xE2A JUMP JUMPDEST PUSH2 0x1ECA JUMP JUMPDEST PUSH1 0x0 PUSH2 0x1C4 SWAP2 PUSH2 0x1F07 PUSH1 0x0 SWAP1 JUMP JUMPDEST POP ADD PUSH2 0xB1B JUMP JUMPDEST PUSH2 0x1AE SWAP1 PUSH2 0x1250 PUSH1 0x0 PUSH2 0x1F21 PUSH1 0x1 PUSH2 0xE1D JUMP JUMPDEST SWAP3 ADD SWAP2 PUSH2 0x39F DUP4 PUSH2 0xB1B JUMP JUMPDEST PUSH1 0x0 SWAP1 PUSH2 0x1F39 DUP3 PUSH2 0xE1D JUMP JUMPDEST PUSH1 0x8 PUSH2 0x1F46 PUSH2 0x1C4 DUP3 SLOAD SWAP1 JUMP JUMPDEST DUP3 LT ISZERO PUSH2 0x1FB3 JUMPI PUSH2 0x1F61 PUSH2 0x1051 PUSH2 0xB45 PUSH2 0x2DD DUP6 CALLER SWAP6 PUSH2 0x260 JUMP JUMPDEST EQ PUSH2 0x1F74 JUMPI PUSH2 0x1F6F SWAP1 PUSH2 0x1980 JUMP JUMPDEST PUSH2 0x1F39 JUMP JUMPDEST POP PUSH2 0x1F89 SWAP2 POP PUSH2 0x1F84 PUSH1 0x1 PUSH2 0x19DE JUMP JUMPDEST PUSH2 0x2004 JUMP JUMPDEST PUSH32 0x8514E9874D1EE55D652D405875552B31F7275A881F0F832EAB8D077876C093E2 PUSH2 0x1A86 PUSH1 0x40 MLOAD SWAP1 JUMP JUMPDEST POP POP PUSH2 0x1F84 PUSH2 0x1F89 SWAP3 PUSH2 0x19DE JUMP JUMPDEST ISZERO PUSH2 0x1FC8 JUMPI JUMP JUMPDEST PUSH1 0x40 MLOAD PUSH3 0x461BCD PUSH1 0xE5 SHL DUP2 MSTORE PUSH1 0x20 PUSH1 0x4 DUP3 ADD MSTORE PUSH1 0x14 PUSH1 0x24 DUP3 ADD MSTORE PUSH20 0x151BDAD95B88191BD95CC81B9BDD08195E1A5CDD PUSH1 0x62 SHL PUSH1 0x44 DUP3 ADD MSTORE PUSH1 0x64 SWAP1 REVERT JUMPDEST PUSH2 0x201E SWAP1 PUSH2 0x2019 PUSH2 0x2014 DUP3 PUSH2 0x1400 JUMP JUMPDEST PUSH2 0x1FC1 JUMP JUMPDEST PUSH2 0x223A JUMP JUMPDEST PUSH32 0x3388BE4906A014D2BB3C19FA97B2CEDCAF76A476CBB307CD60459BBBDC38B0D2 PUSH2 0x2048 PUSH1 0x40 MLOAD SWAP1 JUMP JUMPDEST PUSH1 0x20 DUP1 DUP3 MSTORE PUSH1 0x10 SWAP1 DUP3 ADD MSTORE PUSH16 0x1050D51253D397D0D3D3919254935151 PUSH1 0x82 SHL PUSH1 0x40 DUP3 ADD MSTORE DUP1 PUSH1 0x60 DUP2 ADD PUSH2 0x1A90 JUMP JUMPDEST PUSH2 0x1AE SWAP1 PUSH2 0x1F2D JUMP JUMPDEST PUSH2 0x1C4 SWAP1 SLOAD PUSH2 0xBF6 JUMP JUMPDEST SWAP1 PUSH2 0x209C SWAP1 PUSH1 0x0 NOT SWAP1 PUSH1 0x20 SUB PUSH1 0x8 MUL SHR SWAP1 JUMP JUMPDEST DUP2 SLOAD AND SWAP1 SSTORE JUMP JUMPDEST SWAP1 PUSH1 0x0 SWAP2 PUSH2 0x20C1 PUSH2 0x20B9 DUP3 PUSH1 0x0 MSTORE PUSH1 0x20 PUSH1 0x0 KECCAK256 SWAP1 JUMP JUMPDEST SWAP3 DUP4 SLOAD PUSH2 0x1DE4 JUMP JUMPDEST SWAP1 SSTORE SSTORE JUMP JUMPDEST SWAP2 SWAP3 SWAP1 PUSH1 0x20 DUP3 LT ISZERO PUSH2 0x211E JUMPI PUSH1 0x1F DUP5 GT PUSH1 0x1 EQ PUSH2 0x20E8 JUMPI PUSH2 0x1159 SWAP3 SWAP4 POP PUSH2 0x1DE4 JUMP JUMPDEST POP SWAP1 PUSH2 0x2119 PUSH2 0x1AE SWAP4 PUSH1 0x1 PUSH2 0x2110 PUSH2 0x2105 DUP6 PUSH1 0x0 MSTORE PUSH1 0x20 PUSH1 0x0 KECCAK256 SWAP1 JUMP JUMPDEST SWAP3 PUSH1 0x1F PUSH1 0x20 SWAP2 ADD DIV SWAP1 JUMP JUMPDEST DUP3 ADD SWAP2 ADD PUSH2 0x1D77 JUMP JUMPDEST PUSH2 0x20A3 JUMP JUMPDEST POP PUSH2 0x2157 DUP3 SWAP4 PUSH2 0x2135 PUSH1 0x1 SWAP5 PUSH1 0x0 MSTORE PUSH1 0x20 PUSH1 0x0 KECCAK256 SWAP1 JUMP JUMPDEST PUSH2 0x1DD3 PUSH1 0x20 PUSH1 0x1F DUP7 ADD DIV DUP3 ADD SWAP3 PUSH1 0x1F DUP7 AND DUP1 PUSH2 0x215F JUMPI JUMPDEST POP PUSH1 0x1F PUSH1 0x20 SWAP2 ADD DIV SWAP1 JUMP JUMPDEST PUSH1 0x2 MUL OR SWAP1 SSTORE JUMP JUMPDEST PUSH2 0x216B SWAP1 DUP9 DUP7 SUB PUSH2 0x2089 JUMP JUMPDEST CODESIZE PUSH2 0x214C JUMP JUMPDEST SWAP3 SWAP1 SWAP2 PUSH1 0x20 SWAP1 PUSH1 0x1 PUSH1 0x40 SHL DUP4 GT PUSH2 0x21C6 JUMPI JUMPDEST LT ISZERO PUSH2 0x21BA JUMPI PUSH1 0x20 DUP2 LT ISZERO PUSH2 0x219B JUMPI PUSH2 0x1159 SWAP2 PUSH2 0x1DE4 JUMP JUMPDEST PUSH1 0x1 SWAP2 PUSH1 0xFF NOT AND PUSH2 0x21B1 DUP5 PUSH1 0x0 MSTORE PUSH1 0x20 PUSH1 0x0 KECCAK256 SWAP1 JUMP JUMPDEST SSTORE PUSH1 0x2 MUL ADD SWAP1 SSTORE JUMP JUMPDEST PUSH1 0x1 SWAP2 POP PUSH1 0x2 MUL ADD SWAP1 SSTORE JUMP JUMPDEST PUSH2 0x21CE PUSH2 0x7AB JUMP JUMPDEST PUSH2 0x2183 JUMP JUMPDEST SWAP1 DUP2 SLOAD PUSH2 0x21DF DUP2 PUSH2 0xBF6 JUMP JUMPDEST SWAP1 DUP2 DUP4 GT PUSH2 0x2208 JUMPI JUMPDEST DUP2 DUP4 LT PUSH2 0x21F6 JUMPI JUMPDEST POP POP POP POP JUMP JUMPDEST PUSH2 0x21FF SWAP4 PUSH2 0x20C6 JUMP JUMPDEST CODESIZE DUP1 DUP1 DUP1 PUSH2 0x21F0 JUMP JUMPDEST PUSH2 0x2214 DUP4 DUP4 DUP4 DUP8 PUSH2 0x2171 JUMP JUMPDEST PUSH2 0x21E8 JUMP JUMPDEST PUSH1 0x0 PUSH2 0x1AE SWAP2 PUSH2 0x21D3 JUMP JUMPDEST PUSH2 0x1AE SWAP2 ISZERO PUSH2 0x2219 JUMPI PUSH2 0x2235 PUSH2 0x1D27 JUMP JUMPDEST PUSH2 0x2219 JUMP JUMPDEST PUSH2 0x2243 DUP2 PUSH2 0x2286 JUMP JUMPDEST PUSH1 0x6 PUSH2 0x225A PUSH2 0x2255 PUSH2 0x1C4 DUP5 DUP5 PUSH2 0xE2A JUMP JUMPDEST PUSH2 0x207F JUMP JUMPDEST SWAP1 PUSH1 0x0 SWAP2 PUSH2 0x226A PUSH2 0x1539 DUP5 PUSH2 0xE1D JUMP JUMPDEST SUB PUSH2 0x2274 JUMPI POP POP POP JUMP JUMPDEST PUSH2 0x1AE SWAP3 PUSH2 0x2281 SWAP2 PUSH2 0xE2A JUMP JUMPDEST PUSH2 0x2224 JUMP JUMPDEST PUSH2 0x228F DUP2 PUSH2 0xBB2 JUMP JUMPDEST POP PUSH2 0x2299 DUP2 PUSH2 0xBB2 JUMP JUMPDEST SWAP1 PUSH2 0x22AA PUSH1 0x0 PUSH2 0x1217 DUP4 PUSH1 0x4 PUSH2 0xE2A JUMP JUMPDEST PUSH2 0x22CF PUSH2 0x22B7 PUSH1 0x1 PUSH2 0xE1D JUMP JUMPDEST PUSH2 0x1250 PUSH2 0x22C5 DUP6 PUSH1 0x3 PUSH2 0xAFC JUMP JUMPDEST SWAP2 PUSH2 0x124C DUP4 PUSH2 0xB1B JUMP JUMPDEST PUSH2 0x22DF PUSH1 0x0 PUSH2 0x1217 DUP4 PUSH1 0x2 PUSH2 0xE2A JUMP JUMPDEST PUSH2 0x1274 PUSH1 0x0 PUSH2 0xA6B JUMP JUMPDEST PUSH1 0x0 SWAP1 PUSH2 0x22F5 DUP3 PUSH2 0xE1D JUMP JUMPDEST PUSH1 0x8 PUSH2 0x2302 PUSH2 0x1C4 DUP3 SLOAD SWAP1 JUMP JUMPDEST DUP3 LT ISZERO PUSH2 0x2345 JUMPI PUSH2 0x231D PUSH2 0x1051 PUSH2 0xB45 PUSH2 0x2DD DUP6 CALLER SWAP6 PUSH2 0x260 JUMP JUMPDEST EQ PUSH2 0x2330 JUMPI PUSH2 0x232B SWAP1 PUSH2 0x1980 JUMP JUMPDEST PUSH2 0x22F5 JUMP JUMPDEST POP PUSH2 0x1F89 SWAP2 POP PUSH2 0x2340 PUSH1 0x1 PUSH2 0x19DE JUMP JUMPDEST PUSH2 0x23D5 JUMP JUMPDEST POP POP PUSH2 0x2340 PUSH2 0x1F89 SWAP3 PUSH2 0x19DE JUMP JUMPDEST ISZERO PUSH2 0x235A JUMPI JUMP JUMPDEST PUSH1 0x40 MLOAD PUSH3 0x461BCD PUSH1 0xE5 SHL DUP2 MSTORE PUSH1 0x20 PUSH1 0x4 DUP3 ADD MSTORE PUSH1 0x1D PUSH1 0x24 DUP3 ADD MSTORE PUSH32 0x4F70657261746F7220697320616C726561647920616E206F776E65722E000000 PUSH1 0x44 DUP3 ADD MSTORE PUSH1 0x64 SWAP1 REVERT JUMPDEST SWAP1 PUSH2 0x23C2 PUSH2 0x1AE SWAP3 DUP1 SLOAD SWAP1 PUSH1 0x1 PUSH1 0x40 SHL DUP3 LT ISZERO PUSH2 0x23C8 JUMPI JUMPDEST PUSH1 0x1 DUP3 ADD DUP2 SSTORE PUSH2 0x260 JUMP JUMPDEST SWAP1 PUSH2 0x1140 JUMP JUMPDEST PUSH2 0x23D0 PUSH2 0x7AB JUMP JUMPDEST PUSH2 0x23B7 JUMP JUMPDEST PUSH1 0x0 SWAP1 PUSH2 0x23E1 DUP3 PUSH2 0xE1D JUMP JUMPDEST PUSH1 0x8 PUSH2 0x23EE PUSH2 0x1C4 DUP3 SLOAD SWAP1 JUMP JUMPDEST DUP3 LT ISZERO PUSH2 0x243D JUMPI PUSH2 0xB45 PUSH2 0x2DD DUP4 PUSH2 0x2405 SWAP4 PUSH2 0x260 JUMP JUMPDEST PUSH2 0x240E DUP4 PUSH2 0x2A5 JUMP JUMPDEST EQ PUSH2 0x2421 JUMPI PUSH2 0x241C SWAP1 PUSH2 0x1980 JUMP JUMPDEST PUSH2 0x23E1 JUMP JUMPDEST POP PUSH2 0x1AE SWAP2 POP PUSH2 0x2436 PUSH1 0x0 PUSH2 0x2353 JUMP JUMPDEST PUSH2 0x2353 JUMP JUMPDEST PUSH1 0x8 PUSH2 0x239F JUMP JUMPDEST POP POP PUSH2 0x2436 PUSH2 0x2431 PUSH2 0x1AE SWAP4 ISZERO SWAP1 JUMP JUMPDEST PUSH2 0x1AE SWAP1 PUSH2 0x22E9 JUMP JUMPDEST PUSH1 0x20 DUP1 SWAP2 PUSH8 0xFFFFFFFFFFFFFFFF DUP2 GT PUSH2 0x246E JUMPI MUL ADD SWAP1 JUMP JUMPDEST PUSH2 0x2476 PUSH2 0x7AB JUMP JUMPDEST MUL ADD SWAP1 JUMP JUMPDEST SWAP1 PUSH2 0xF2A PUSH2 0x84B DUP4 PUSH2 0x2456 JUMP JUMPDEST SWAP1 PUSH2 0x1AE PUSH2 0x16EF PUSH2 0x2498 DUP5 PUSH2 0x247B JUMP JUMPDEST SWAP4 PUSH2 0x2456 JUMP JUMPDEST PUSH1 0x0 JUMPDEST DUP3 DUP2 LT PUSH2 0x24AD JUMPI POP POP POP JUMP JUMPDEST PUSH1 0x60 DUP3 DUP3 ADD MSTORE PUSH1 0x20 ADD PUSH2 0x24A1 JUMP JUMPDEST SWAP1 PUSH2 0x1AE PUSH2 0x24CB PUSH2 0x2498 DUP5 PUSH2 0x247B JUMP JUMPDEST PUSH1 0x1F NOT ADD PUSH1 0x20 DUP5 ADD PUSH2 0x249E JUMP JUMPDEST SWAP2 SWAP1 DUP3 ADD DUP1 SWAP3 GT PUSH2 0x24E5 JUMPI JUMP JUMPDEST PUSH2 0x1AE PUSH2 0x1969 JUMP JUMPDEST SWAP1 PUSH1 0x20 DUP1 SWAP2 PUSH2 0x24FA DUP5 MLOAD SWAP1 JUMP JUMPDEST DUP2 LT ISZERO PUSH2 0x2508 JUMPI JUMPDEST MUL ADD ADD SWAP1 JUMP JUMPDEST PUSH2 0x2510 PUSH2 0x249 JUMP JUMPDEST PUSH2 0x2502 JUMP JUMPDEST PUSH1 0x7 PUSH2 0x2528 PUSH2 0x2523 DUP3 PUSH2 0x1EF9 JUMP JUMPDEST PUSH2 0x2488 JUMP JUMPDEST PUSH2 0x2539 PUSH2 0x2534 DUP4 PUSH2 0x1EF9 JUMP JUMPDEST PUSH2 0x24BB JUMP JUMPDEST SWAP3 PUSH2 0x2544 PUSH1 0x0 PUSH2 0xE1D JUMP JUMPDEST PUSH2 0x2550 PUSH2 0x1C4 DUP6 PUSH2 0x1EF9 JUMP JUMPDEST DUP2 LT ISZERO PUSH2 0x25BB JUMPI PUSH2 0x1C4 PUSH2 0x25B3 PUSH2 0x2550 SWAP3 PUSH2 0x2584 PUSH2 0x2577 PUSH2 0x2571 PUSH1 0x1 PUSH2 0xE1D JUMP JUMPDEST DUP4 PUSH2 0x24D8 JUMP JUMPDEST PUSH2 0x2581 DUP4 DUP10 PUSH2 0x24ED JUMP JUMPDEST MSTORE JUMP JUMPDEST PUSH2 0x2598 PUSH2 0x946 PUSH2 0x2594 DUP4 DUP10 PUSH2 0x24ED JUMP JUMPDEST MLOAD SWAP1 JUMP JUMPDEST PUSH2 0x25A2 DUP3 DUP11 PUSH2 0x24ED JUMP JUMPDEST MSTORE PUSH2 0x25AD DUP2 DUP10 PUSH2 0x24ED JUMP JUMPDEST POP PUSH2 0x1980 JUMP JUMPDEST SWAP2 POP POP PUSH2 0x2544 JUMP JUMPDEST POP SWAP2 POP SWAP2 SWAP1 JUMP INVALID LOG2 PUSH5 0x6970667358 0x22 SLT KECCAK256 0xA8 DUP13 COINBASE 0x5F SWAP12 CALLDATASIZE SSTORE 0xCF RETURN 0x28 PUSH11 0x43F563FAA523ED5757B9A6 0xCF KECCAK256 SWAP8 PUSH23 0xCA727A131A564736F6C63430008110033000000000000 "},"methodIdentifiers":{"addOperator(address)":"9870d7fe","approve(address,uint256)":"095ea7b3","balanceOf(address)":"70a08231","burn(uint256)":"42966c68","getAllTokenIdsAndUrls()":"387849fd","getApproved(uint256)":"081812fc","isApprovedForAll(address,address)":"e985e9c5","mint(string)":"d85d3d27","name()":"06fdde03","ownerOf(uint256)":"6352211e","owners(uint256)":"025e7c27","safeTransferFrom(address,address,uint256)":"42842e0e","safeTransferFrom(address,address,uint256,bytes)":"b88d4fde","setApprovalForAll(address,bool)":"a22cb465","supportsInterface(bytes4)":"01ffc9a7","symbol()":"95d89b41","tokenURI(uint256)":"c87b56dd","transferFrom(address,address,uint256)":"23b872dd"}}}}}