{"contracts/StudentRegistry.sol":{"StudentRegistry":{"abi":[{"anonymous":false,"inputs":[{"indexed":true,"internalType":"address","name":"studentAddress","type":"address"},{"indexed":false,"internalType":"string","name":"firstName","type":"string"},{"indexed":false,"internalType":"string","name":"lastName","type":"string"},{"indexed":false,"internalType":"string","name":"degree","type":"string"},{"indexed":false,"internalType":"string","name":"major","type":"string"},{"indexed":false,"internalType":"uint256","name":"year","type":"uint256"}],"name":"StudentCreated","type":"event"},{"anonymous":false,"inputs":[{"indexed":true,"internalType":"address","name":"studentAddress","type":"address"}],"name":"StudentDeleted","type":"event"},{"anonymous":false,"inputs":[{"indexed":true,"internalType":"address","name":"studentAddress","type":"address"},{"indexed":false,"internalType":"string","name":"firstName","type":"string"},{"indexed":false,"internalType":"string","name":"lastName","type":"string"},{"indexed":false,"internalType":"string","name":"degree","type":"string"},{"indexed":false,"internalType":"string","name":"major","type":"string"},{"indexed":false,"internalType":"uint256","name":"year","type":"uint256"}],"name":"StudentUpdated","type":"event"},{"inputs":[{"internalType":"string","name":"_firstName","type":"string"},{"internalType":"string","name":"_lastName","type":"string"},{"internalType":"string","name":"_degree","type":"string"},{"internalType":"string","name":"_major","type":"string"},{"internalType":"uint256","name":"_year","type":"uint256"}],"name":"createStudent","outputs":[],"stateMutability":"nonpayable","type":"function"},{"inputs":[],"name":"deleteStudent","outputs":[],"stateMutability":"nonpayable","type":"function"},{"inputs":[],"name":"issueCertificate","outputs":[{"internalType":"bytes","name":"","type":"bytes"}],"stateMutability":"view","type":"function"},{"inputs":[],"name":"readStudent","outputs":[{"internalType":"string","name":"","type":"string"},{"internalType":"string","name":"","type":"string"},{"internalType":"string","name":"","type":"string"},{"internalType":"string","name":"","type":"string"},{"internalType":"uint256","name":"","type":"uint256"}],"stateMutability":"view","type":"function"},{"inputs":[{"internalType":"address","name":"","type":"address"}],"name":"students","outputs":[{"internalType":"string","name":"firstName","type":"string"},{"internalType":"string","name":"lastName","type":"string"},{"components":[{"internalType":"string","name":"degree","type":"string"},{"internalType":"string","name":"major","type":"string"},{"internalType":"uint256","name":"year","type":"uint256"}],"internalType":"struct StudentRegistry.Education","name":"education","type":"tuple"}],"stateMutability":"view","type":"function"},{"inputs":[{"internalType":"string","name":"_firstName","type":"string"},{"internalType":"string","name":"_lastName","type":"string"},{"internalType":"string","name":"_degree","type":"string"},{"internalType":"string","name":"_major","type":"string"},{"internalType":"uint256","name":"_year","type":"uint256"}],"name":"updateStudent","outputs":[],"stateMutability":"nonpayable","type":"function"}],"evm":{"bytecode":{"linkReferences":{},"object":"60806040523461001b575b6040516113b961002982396113b990f35b610023600080fd5b61000a56fe60806040526004361015610018575b610016600080fd5b005b60003560e01c80634e920ef814610090578063818169331461008757806392b2424d1461007e578063a6c807a914610075578063ec02547f1461006c5763f2750eaf0361000e576100676106d1565b61000e565b506100676106aa565b50610067610671565b506100676103c5565b506100676101c0565b50610067610168565b600080fd5b60009103126100a957565b6100b1600080fd5b565b60005b8381106100c65750506000910152565b81810151838201526020016100b6565b601f01601f191690565b6101016100d660209361010a936100f5815190565b80835293849260200190565b958691016100b3565b0190565b959492936101556100b1956101476080956101396101639660a08d01908d60008184039101526100e0565b908b820360208d01526100e0565b9089820360408b01526100e0565b9087820360608901526100e0565b940152565b503461019f575b61017a36600461009e565b61019b610185610bde565b9161019295939560405190565b9586958661010e565b0390f35b6101a7600080fd5b61016f565b60208082526101bd929101906100e0565b90565b50346101e9575b6101d236600461009e565b61019b6101dd6110e6565b604051918291826101ac565b6101f1600080fd5b6101c7565b50634e487b7160e01b600052604160045260246000fd5b90601f01601f1916810190811067ffffffffffffffff82111761022f57604052565b6102376101f6565b604052565b906100b161024960405190565b928361020d565b61010a60209167ffffffffffffffff811161026f57601f01601f191690565b6100d66101f6565b90826000939282370152565b9291906100b19161029b61029683610250565b61023c565b9482865260208601918382011115610277576102b5600080fd5b610277565b906101bd9181601f820112156102d6575b602081359101610283565b6102de600080fd5b6102cb565b805b0361009957565b905035906100b1826102e3565b919060a0838203126103b8575b61032381843567ffffffffffffffff811161039e575b85016102ba565b9261034482602083013567ffffffffffffffff81116103ab575b83016102ba565b926101bd61036784604085013567ffffffffffffffff811161039e5785016102ba565b9361038881606086013567ffffffffffffffff8111610391575b86016102ba565b936080016102ec565b610399600080fd5b610381565b6103a6600080fd5b61031c565b6103b3600080fd5b61033d565b6103c0600080fd5b610306565b50346103e8575b6103e36103da3660046102f9565b93929092610a81565b604051005b6103f0600080fd5b6103cc565b6001600160a01b031690565b6001600160a01b0381166102e5565b905035906100b182610401565b906101bd916020818303121561041057610435600080fd5b610410565b6101bd906103f5906001600160a01b031682565b6101bd9061043a565b6101bd9061044e565b9061046a90610457565b600052602052604060002090565b50634e487b7160e01b600052602260045260246000fd5b90600160028304921680156104b2575b60208310146104aa57565b6100b1610478565b91607f169161049f565b805460009392916104d96104cf8361048f565b8085529360200190565b916001811690811561052b57506001146104f257505050565b6105059192939450600052602060002090565b916000925b8184106105175750500190565b80548484015260209093019260010161050a565b92949550505060ff1916825215156020020190565b906101bd916104bc565b906100b16105649261055b60405190565b93848092610540565b038361020d565b6101bd9081565b6101bd905461056b565b6101bd606061023c565b906100b16105c4600261059761057c565b946105a86105a48261054a565b8752565b6105be6105b76001830161054a565b6020880152565b01610572565b6040840152565b6105d6906000610460565b6105df8161054a565b916101bd60026105f16001850161054a565b9301610586565b906101bd9060408061062e61061c60608501600088015186820360008801526100e0565b602087015185820360208701526100e0565b940151910152565b91610663906106556101bd9593606086019086820360008801526100e0565b9084820360208601526100e0565b9160408184039101526105f8565b503461069d575b61019b61068e61068936600461041d565b6105cb565b60405191939193849384610636565b6106a5600080fd5b610678565b50346106c4575b6106bc36600461009e565b6103e3610f32565b6106cc600080fd5b6106b1565b50346106ef575b6103e36106e63660046102f9565b93929092610c21565b6106f7600080fd5b6106d8565b6101bd6101bd6101bd9290565b1561071057565b60405162461bcd60e51b815260206004820152601a60248201527f4669727374206e616d652063616e6e6f7420626520656d7074790000000000006044820152606490fd5b1561075c57565b60405162461bcd60e51b815260206004820152601960248201527f4c617374206e616d652063616e6e6f7420626520656d707479000000000000006044820152606490fd5b156107a857565b60405162461bcd60e51b81526020600482015260166024820152754465677265652063616e6e6f7420626520656d70747960501b6044820152606490fd5b156107ed57565b60405162461bcd60e51b81526020600482015260156024820152744d616a6f722063616e6e6f7420626520656d70747960581b6044820152606490fd5b50634e487b7160e01b600052600060045260246000fd5b9160001960089290920291821b911b5b9181191691161790565b919061086c6101bd610874936106fc565b908354610841565b9055565b6100b19160009161085b565b81811061088f575050565b8061089d6000600193610878565b01610884565b9190601f81116108b257505050565b6108c46100b193600052602060002090565b906020601f8401819004830193106108e7575b6020601f909101045b0190610884565b90915081906108d7565b600019600883021c1916906002021790565b9061090c815190565b9067ffffffffffffffff82116109ca575b6109318261092b855461048f565b856108a3565b602090601f831160011461095f57610874929160009183610954575b50506108f1565b01519050388061094d565b601f1983169161097485600052602060002090565b9260005b8181106109b257509160029391856001969410610999575b50505002019055565b01516000196008601f8516021c19169055388080610990565b91936020600181928787015181550195019201610978565b6109d26101f6565b61091d565b906100b191610903565b5190565b9060001990610851565b906109ff6101bd610874926106fc565b82546109e5565b90610a43604060026100b194610a2a60008201610a24600088015190565b906109d7565b610a3c60018201610a24602088015190565b0192015190565b906109ef565b906100b191610a06565b90610a71604060026100b194610a2a60008201610a24600088015190565b90610a49565b906100b191610a53565b909193610b9d90610a926109e18490565b94610aaf600096610aa9610aa5896106fc565b9190565b11610709565b610acc610aba865190565b610ac6610aa5896106fc565b11610755565b610ae9610ad7885190565b610ae3610aa5896106fc565b116107a1565b610b06610af4825190565b610b00610aa5896106fc565b116107e6565b610b69610b1161057c565b610b1b8989830152565b610b26836020830152565b610b31846040830152565b610b59610b3c61057c565b91610b47888b850152565b610b52896020850152565b6040830152565b610b64338099610460565b610a77565b610b937f7b2915ee83b60c835e492363a7976b66ae49d42f51b0824c27b0ecd4a89c18d496610457565b9661019260405190565b0390a2565b906100b16105c46002610bb361057c565b94610bc06105a48261054a565b610bcf6105b76001830161054a565b01610586565b6101bd90610ba2565b600090610bf3610bee3384610460565b610bd5565b9180830151604060208501519401918251015192610c1960406020855101519451015190565b919493929190565b909193610b9d90610c326109e18490565b94610c45600096610aa9610aa5896106fc565b610c50610aba865190565b610c5b610ad7885190565b610c66610af4825190565b610cc1610c7161057c565b610c7b8989830152565b610c86836020830152565b610c91846040830152565b60023398610cae88610ca66101bd8d85610460565b9283016109d7565b610cbb89600183016109d7565b01610a49565b610b937f23bc9910b06b4440a923ecc439f6e57a3bc500bebf0b8c6c90e9a73633344ea796610457565b90610cfe90600019906020036008021c90565b8154169055565b90600091610d23610d1b82600052602060002090565b9283546108f1565b905555565b9192906020821015610d8057601f8411600114610d4a576108749293506108f1565b5090610d7b6100b1936001610d72610d6785600052602060002090565b92601f602091010490565b82019101610884565b610d05565b50610db98293610d97600194600052602060002090565b6108e06020601f860104820192601f861680610dc1575b50601f602091010490565b600202179055565b610dcd90888603610ceb565b38610dae565b929091602090680100000000000000008311610e2d575b1015610e21576020811015610e0257610874916108f1565b60019160ff1916610e1884600052602060002090565b55600202019055565b60019150600202019055565b610e356101f6565b610dea565b908154610e468161048f565b90818311610e6f575b818310610e5d575b50505050565b610e6693610d28565b38808080610e57565b610e7b83838387610dd3565b610e4f565b50634e487b7160e01b600052601160045260246000fd5b60006100b191610e3a565b6100b19115610e9757610eb361082a565b610e97565b600060026100b192610ecc83808301610ea2565b610ed98360018301610ea2565b01610878565b6100b19115610eb857610ef061082a565b610eb8565b600060026100b192610f0983808301610ea2565b610f168360018301610ea2565b01610edf565b6100b19115610ef557610f2d61082a565b610ef5565b33610f476000610f428382610460565b610f1c565b610f717f8b92780c414b9f0cc7e66f9ea0f7eb6a8cf72ac0571cd2445169f4c35c37418391610457565b90610f7b60405190565b8080610b9d565b61010a610f9a92602092610f94815190565b94859290565b938491016100b3565b60209561102b61109d6101bd999761102b61108d6110d79961102b61103e6110d29b61102b6110316110bc9d61102b6110026110ad9f7f4365727469666963617465206f662047726164756174696f6e0a0a00000000008152601b0190565b7f5468697320697320746f20636572746966792074686174200000000000000000815260180190565b90610f82565b600160fd1b815260010190565b7f20686173207375636365737366756c6c7920636f6d706c65746564207468652081527f726571756972656d656e747320666f722074686520646567726565206f6620006020820152603f0190565b6301034b7160e51b815260040190565b6301037b7160e51b815260040190565b6217050560e91b815260030190565b69024b9b9bab2b21037b7160b51b8152600a0190565b918252565b0161170560f11b815260020190565b6101bd6101bd60006101bd6110fe610bee3384610460565b8281015161114760406020840151930194855101519461112e61112960406020845101519351015190565b6112a6565b429161113960405190565b978896602088019687610fa3565b9081038252038261020d565b906110d261029683610250565b61116a6001611153565b600360fc1b602082015290565b6101bd611160565b600190600019811461118f570190565b61010a610e80565b50634e487b7160e01b600052601260045260246000fd5b81156111b8570490565b6111c0611197565b0490565b369037565b906100b16111df6111d984611153565b93610250565b601f1901602084016111c4565b81156111f6570690565b6111fe611197565b0690565b9190820180921161120f57565b6100b1610e80565b6112246101bd6101bd9290565b60ff1690565b61124061123a6101bd9260ff1690565b60f81b90565b6001600160f81b03191690565b600190801561125a570390565b611262610e80565b0390565b50634e487b7160e01b600052603260045260246000fd5b90600160209161128b845190565b811015611299575b02010190565b6112a1611266565b611293565b9060006112b2816106fc565b83146113785790829060005b6112c7846106fc565b83146112f0576112d96112ea9161117f565b926112e4600a6106fc565b906111ae565b916112be565b9150916112fc826111c9565b91935b611308826106fc565b811461136d57611368906112e4600a61135561134f61134a611345603061134061133a611334886106fc565b8a6111ec565b916106fc565b611202565b611217565b61122a565b9861124d565b97851a611362898861127d565b536106fc565b6112ff565b50506101bd91925090565b5090506101bd61117756fea2646970667358221220a0c7599624f5e3376d2747749616edce74df5ae9bc3ffa8a931b9221688b3b2264736f6c63430008110033","opcodes":"PUSH1 0x80 PUSH1 0x40 MSTORE CALLVALUE PUSH2 0x1B JUMPI JUMPDEST PUSH1 0x40 MLOAD PUSH2 0x13B9 PUSH2 0x29 DUP3 CODECOPY PUSH2 0x13B9 SWAP1 RETURN JUMPDEST PUSH2 0x23 PUSH1 0x0 DUP1 REVERT JUMPDEST PUSH2 0xA JUMP INVALID PUSH1 0x80 PUSH1 0x40 MSTORE PUSH1 0x4 CALLDATASIZE LT ISZERO PUSH2 0x18 JUMPI JUMPDEST PUSH2 0x16 PUSH1 0x0 DUP1 REVERT JUMPDEST STOP JUMPDEST PUSH1 0x0 CALLDATALOAD PUSH1 0xE0 SHR DUP1 PUSH4 0x4E920EF8 EQ PUSH2 0x90 JUMPI DUP1 PUSH4 0x81816933 EQ PUSH2 0x87 JUMPI DUP1 PUSH4 0x92B2424D EQ PUSH2 0x7E JUMPI DUP1 PUSH4 0xA6C807A9 EQ PUSH2 0x75 JUMPI DUP1 PUSH4 0xEC02547F EQ PUSH2 0x6C JUMPI PUSH4 0xF2750EAF SUB PUSH2 0xE JUMPI PUSH2 0x67 PUSH2 0x6D1 JUMP JUMPDEST PUSH2 0xE JUMP JUMPDEST POP PUSH2 0x67 PUSH2 0x6AA JUMP JUMPDEST POP PUSH2 0x67 PUSH2 0x671 JUMP JUMPDEST POP PUSH2 0x67 PUSH2 0x3C5 JUMP JUMPDEST POP PUSH2 0x67 PUSH2 0x1C0 JUMP JUMPDEST POP PUSH2 0x67 PUSH2 0x168 JUMP JUMPDEST PUSH1 0x0 DUP1 REVERT JUMPDEST PUSH1 0x0 SWAP2 SUB SLT PUSH2 0xA9 JUMPI JUMP JUMPDEST PUSH2 0xB1 PUSH1 0x0 DUP1 REVERT JUMPDEST JUMP JUMPDEST PUSH1 0x0 JUMPDEST DUP4 DUP2 LT PUSH2 0xC6 JUMPI POP POP PUSH1 0x0 SWAP2 ADD MSTORE JUMP JUMPDEST DUP2 DUP2 ADD MLOAD DUP4 DUP3 ADD MSTORE PUSH1 0x20 ADD PUSH2 0xB6 JUMP JUMPDEST PUSH1 0x1F ADD PUSH1 0x1F NOT AND SWAP1 JUMP JUMPDEST PUSH2 0x101 PUSH2 0xD6 PUSH1 0x20 SWAP4 PUSH2 0x10A SWAP4 PUSH2 0xF5 DUP2 MLOAD SWAP1 JUMP JUMPDEST DUP1 DUP4 MSTORE SWAP4 DUP5 SWAP3 PUSH1 0x20 ADD SWAP1 JUMP JUMPDEST SWAP6 DUP7 SWAP2 ADD PUSH2 0xB3 JUMP JUMPDEST ADD SWAP1 JUMP JUMPDEST SWAP6 SWAP5 SWAP3 SWAP4 PUSH2 0x155 PUSH2 0xB1 SWAP6 PUSH2 0x147 PUSH1 0x80 SWAP6 PUSH2 0x139 PUSH2 0x163 SWAP7 PUSH1 0xA0 DUP14 ADD SWAP1 DUP14 PUSH1 0x0 DUP2 DUP5 SUB SWAP2 ADD MSTORE PUSH2 0xE0 JUMP JUMPDEST SWAP1 DUP12 DUP3 SUB PUSH1 0x20 DUP14 ADD MSTORE PUSH2 0xE0 JUMP JUMPDEST SWAP1 DUP10 DUP3 SUB PUSH1 0x40 DUP12 ADD MSTORE PUSH2 0xE0 JUMP JUMPDEST SWAP1 DUP8 DUP3 SUB PUSH1 0x60 DUP10 ADD MSTORE PUSH2 0xE0 JUMP JUMPDEST SWAP5 ADD MSTORE JUMP JUMPDEST POP CALLVALUE PUSH2 0x19F JUMPI JUMPDEST PUSH2 0x17A CALLDATASIZE PUSH1 0x4 PUSH2 0x9E JUMP JUMPDEST PUSH2 0x19B PUSH2 0x185 PUSH2 0xBDE JUMP JUMPDEST SWAP2 PUSH2 0x192 SWAP6 SWAP4 SWAP6 PUSH1 0x40 MLOAD SWAP1 JUMP JUMPDEST SWAP6 DUP7 SWAP6 DUP7 PUSH2 0x10E JUMP JUMPDEST SUB SWAP1 RETURN JUMPDEST PUSH2 0x1A7 PUSH1 0x0 DUP1 REVERT JUMPDEST PUSH2 0x16F JUMP JUMPDEST PUSH1 0x20 DUP1 DUP3 MSTORE PUSH2 0x1BD SWAP3 SWAP2 ADD SWAP1 PUSH2 0xE0 JUMP JUMPDEST SWAP1 JUMP JUMPDEST POP CALLVALUE PUSH2 0x1E9 JUMPI JUMPDEST PUSH2 0x1D2 CALLDATASIZE PUSH1 0x4 PUSH2 0x9E JUMP JUMPDEST PUSH2 0x19B PUSH2 0x1DD PUSH2 0x10E6 JUMP JUMPDEST PUSH1 0x40 MLOAD SWAP2 DUP3 SWAP2 DUP3 PUSH2 0x1AC JUMP JUMPDEST PUSH2 0x1F1 PUSH1 0x0 DUP1 REVERT JUMPDEST PUSH2 0x1C7 JUMP JUMPDEST POP PUSH4 0x4E487B71 PUSH1 0xE0 SHL PUSH1 0x0 MSTORE PUSH1 0x41 PUSH1 0x4 MSTORE PUSH1 0x24 PUSH1 0x0 REVERT JUMPDEST SWAP1 PUSH1 0x1F ADD PUSH1 0x1F NOT AND DUP2 ADD SWAP1 DUP2 LT PUSH8 0xFFFFFFFFFFFFFFFF DUP3 GT OR PUSH2 0x22F JUMPI PUSH1 0x40 MSTORE JUMP JUMPDEST PUSH2 0x237 PUSH2 0x1F6 JUMP JUMPDEST PUSH1 0x40 MSTORE JUMP JUMPDEST SWAP1 PUSH2 0xB1 PUSH2 0x249 PUSH1 0x40 MLOAD SWAP1 JUMP JUMPDEST SWAP3 DUP4 PUSH2 0x20D JUMP JUMPDEST PUSH2 0x10A PUSH1 0x20 SWAP2 PUSH8 0xFFFFFFFFFFFFFFFF DUP2 GT PUSH2 0x26F JUMPI PUSH1 0x1F ADD PUSH1 0x1F NOT AND SWAP1 JUMP JUMPDEST PUSH2 0xD6 PUSH2 0x1F6 JUMP JUMPDEST SWAP1 DUP3 PUSH1 0x0 SWAP4 SWAP3 DUP3 CALLDATACOPY ADD MSTORE JUMP JUMPDEST SWAP3 SWAP2 SWAP1 PUSH2 0xB1 SWAP2 PUSH2 0x29B PUSH2 0x296 DUP4 PUSH2 0x250 JUMP JUMPDEST PUSH2 0x23C JUMP JUMPDEST SWAP5 DUP3 DUP7 MSTORE PUSH1 0x20 DUP7 ADD SWAP2 DUP4 DUP3 ADD GT ISZERO PUSH2 0x277 JUMPI PUSH2 0x2B5 PUSH1 0x0 DUP1 REVERT JUMPDEST PUSH2 0x277 JUMP JUMPDEST SWAP1 PUSH2 0x1BD SWAP2 DUP2 PUSH1 0x1F DUP3 ADD SLT ISZERO PUSH2 0x2D6 JUMPI JUMPDEST PUSH1 0x20 DUP2 CALLDATALOAD SWAP2 ADD PUSH2 0x283 JUMP JUMPDEST PUSH2 0x2DE PUSH1 0x0 DUP1 REVERT JUMPDEST PUSH2 0x2CB JUMP JUMPDEST DUP1 JUMPDEST SUB PUSH2 0x99 JUMPI JUMP JUMPDEST SWAP1 POP CALLDATALOAD SWAP1 PUSH2 0xB1 DUP3 PUSH2 0x2E3 JUMP JUMPDEST SWAP2 SWAP1 PUSH1 0xA0 DUP4 DUP3 SUB SLT PUSH2 0x3B8 JUMPI JUMPDEST PUSH2 0x323 DUP2 DUP5 CALLDATALOAD PUSH8 0xFFFFFFFFFFFFFFFF DUP2 GT PUSH2 0x39E JUMPI JUMPDEST DUP6 ADD PUSH2 0x2BA JUMP JUMPDEST SWAP3 PUSH2 0x344 DUP3 PUSH1 0x20 DUP4 ADD CALLDATALOAD PUSH8 0xFFFFFFFFFFFFFFFF DUP2 GT PUSH2 0x3AB JUMPI JUMPDEST DUP4 ADD PUSH2 0x2BA JUMP JUMPDEST SWAP3 PUSH2 0x1BD PUSH2 0x367 DUP5 PUSH1 0x40 DUP6 ADD CALLDATALOAD PUSH8 0xFFFFFFFFFFFFFFFF DUP2 GT PUSH2 0x39E JUMPI DUP6 ADD PUSH2 0x2BA JUMP JUMPDEST SWAP4 PUSH2 0x388 DUP2 PUSH1 0x60 DUP7 ADD CALLDATALOAD PUSH8 0xFFFFFFFFFFFFFFFF DUP2 GT PUSH2 0x391 JUMPI JUMPDEST DUP7 ADD PUSH2 0x2BA JUMP JUMPDEST SWAP4 PUSH1 0x80 ADD PUSH2 0x2EC JUMP JUMPDEST PUSH2 0x399 PUSH1 0x0 DUP1 REVERT JUMPDEST PUSH2 0x381 JUMP JUMPDEST PUSH2 0x3A6 PUSH1 0x0 DUP1 REVERT JUMPDEST PUSH2 0x31C JUMP JUMPDEST PUSH2 0x3B3 PUSH1 0x0 DUP1 REVERT JUMPDEST PUSH2 0x33D JUMP JUMPDEST PUSH2 0x3C0 PUSH1 0x0 DUP1 REVERT JUMPDEST PUSH2 0x306 JUMP JUMPDEST POP CALLVALUE PUSH2 0x3E8 JUMPI JUMPDEST PUSH2 0x3E3 PUSH2 0x3DA CALLDATASIZE PUSH1 0x4 PUSH2 0x2F9 JUMP JUMPDEST SWAP4 SWAP3 SWAP1 SWAP3 PUSH2 0xA81 JUMP JUMPDEST PUSH1 0x40 MLOAD STOP JUMPDEST PUSH2 0x3F0 PUSH1 0x0 DUP1 REVERT JUMPDEST PUSH2 0x3CC JUMP JUMPDEST PUSH1 0x1 PUSH1 0x1 PUSH1 0xA0 SHL SUB AND SWAP1 JUMP JUMPDEST PUSH1 0x1 PUSH1 0x1 PUSH1 0xA0 SHL SUB DUP2 AND PUSH2 0x2E5 JUMP JUMPDEST SWAP1 POP CALLDATALOAD SWAP1 PUSH2 0xB1 DUP3 PUSH2 0x401 JUMP JUMPDEST SWAP1 PUSH2 0x1BD SWAP2 PUSH1 0x20 DUP2 DUP4 SUB SLT ISZERO PUSH2 0x410 JUMPI PUSH2 0x435 PUSH1 0x0 DUP1 REVERT JUMPDEST PUSH2 0x410 JUMP JUMPDEST PUSH2 0x1BD SWAP1 PUSH2 0x3F5 SWAP1 PUSH1 0x1 PUSH1 0x1 PUSH1 0xA0 SHL SUB AND DUP3 JUMP JUMPDEST PUSH2 0x1BD SWAP1 PUSH2 0x43A JUMP JUMPDEST PUSH2 0x1BD SWAP1 PUSH2 0x44E JUMP JUMPDEST SWAP1 PUSH2 0x46A SWAP1 PUSH2 0x457 JUMP JUMPDEST PUSH1 0x0 MSTORE PUSH1 0x20 MSTORE PUSH1 0x40 PUSH1 0x0 KECCAK256 SWAP1 JUMP JUMPDEST POP PUSH4 0x4E487B71 PUSH1 0xE0 SHL PUSH1 0x0 MSTORE PUSH1 0x22 PUSH1 0x4 MSTORE PUSH1 0x24 PUSH1 0x0 REVERT JUMPDEST SWAP1 PUSH1 0x1 PUSH1 0x2 DUP4 DIV SWAP3 AND DUP1 ISZERO PUSH2 0x4B2 JUMPI JUMPDEST PUSH1 0x20 DUP4 LT EQ PUSH2 0x4AA JUMPI JUMP JUMPDEST PUSH2 0xB1 PUSH2 0x478 JUMP JUMPDEST SWAP2 PUSH1 0x7F AND SWAP2 PUSH2 0x49F JUMP JUMPDEST DUP1 SLOAD PUSH1 0x0 SWAP4 SWAP3 SWAP2 PUSH2 0x4D9 PUSH2 0x4CF DUP4 PUSH2 0x48F JUMP JUMPDEST DUP1 DUP6 MSTORE SWAP4 PUSH1 0x20 ADD SWAP1 JUMP JUMPDEST SWAP2 PUSH1 0x1 DUP2 AND SWAP1 DUP2 ISZERO PUSH2 0x52B JUMPI POP PUSH1 0x1 EQ PUSH2 0x4F2 JUMPI POP POP POP JUMP JUMPDEST PUSH2 0x505 SWAP2 SWAP3 SWAP4 SWAP5 POP PUSH1 0x0 MSTORE PUSH1 0x20 PUSH1 0x0 KECCAK256 SWAP1 JUMP JUMPDEST SWAP2 PUSH1 0x0 SWAP3 JUMPDEST DUP2 DUP5 LT PUSH2 0x517 JUMPI POP POP ADD SWAP1 JUMP JUMPDEST DUP1 SLOAD DUP5 DUP5 ADD MSTORE PUSH1 0x20 SWAP1 SWAP4 ADD SWAP3 PUSH1 0x1 ADD PUSH2 0x50A JUMP JUMPDEST SWAP3 SWAP5 SWAP6 POP POP POP PUSH1 0xFF NOT AND DUP3 MSTORE ISZERO ISZERO PUSH1 0x20 MUL ADD SWAP1 JUMP JUMPDEST SWAP1 PUSH2 0x1BD SWAP2 PUSH2 0x4BC JUMP JUMPDEST SWAP1 PUSH2 0xB1 PUSH2 0x564 SWAP3 PUSH2 0x55B PUSH1 0x40 MLOAD SWAP1 JUMP JUMPDEST SWAP4 DUP5 DUP1 SWAP3 PUSH2 0x540 JUMP JUMPDEST SUB DUP4 PUSH2 0x20D JUMP JUMPDEST PUSH2 0x1BD SWAP1 DUP2 JUMP JUMPDEST PUSH2 0x1BD SWAP1 SLOAD PUSH2 0x56B JUMP JUMPDEST PUSH2 0x1BD PUSH1 0x60 PUSH2 0x23C JUMP JUMPDEST SWAP1 PUSH2 0xB1 PUSH2 0x5C4 PUSH1 0x2 PUSH2 0x597 PUSH2 0x57C JUMP JUMPDEST SWAP5 PUSH2 0x5A8 PUSH2 0x5A4 DUP3 PUSH2 0x54A JUMP JUMPDEST DUP8 MSTORE JUMP JUMPDEST PUSH2 0x5BE PUSH2 0x5B7 PUSH1 0x1 DUP4 ADD PUSH2 0x54A JUMP JUMPDEST PUSH1 0x20 DUP9 ADD MSTORE JUMP JUMPDEST ADD PUSH2 0x572 JUMP JUMPDEST PUSH1 0x40 DUP5 ADD MSTORE JUMP JUMPDEST PUSH2 0x5D6 SWAP1 PUSH1 0x0 PUSH2 0x460 JUMP JUMPDEST PUSH2 0x5DF DUP2 PUSH2 0x54A JUMP JUMPDEST SWAP2 PUSH2 0x1BD PUSH1 0x2 PUSH2 0x5F1 PUSH1 0x1 DUP6 ADD PUSH2 0x54A JUMP JUMPDEST SWAP4 ADD PUSH2 0x586 JUMP JUMPDEST SWAP1 PUSH2 0x1BD SWAP1 PUSH1 0x40 DUP1 PUSH2 0x62E PUSH2 0x61C PUSH1 0x60 DUP6 ADD PUSH1 0x0 DUP9 ADD MLOAD DUP7 DUP3 SUB PUSH1 0x0 DUP9 ADD MSTORE PUSH2 0xE0 JUMP JUMPDEST PUSH1 0x20 DUP8 ADD MLOAD DUP6 DUP3 SUB PUSH1 0x20 DUP8 ADD MSTORE PUSH2 0xE0 JUMP JUMPDEST SWAP5 ADD MLOAD SWAP2 ADD MSTORE JUMP JUMPDEST SWAP2 PUSH2 0x663 SWAP1 PUSH2 0x655 PUSH2 0x1BD SWAP6 SWAP4 PUSH1 0x60 DUP7 ADD SWAP1 DUP7 DUP3 SUB PUSH1 0x0 DUP9 ADD MSTORE PUSH2 0xE0 JUMP JUMPDEST SWAP1 DUP5 DUP3 SUB PUSH1 0x20 DUP7 ADD MSTORE PUSH2 0xE0 JUMP JUMPDEST SWAP2 PUSH1 0x40 DUP2 DUP5 SUB SWAP2 ADD MSTORE PUSH2 0x5F8 JUMP JUMPDEST POP CALLVALUE PUSH2 0x69D JUMPI JUMPDEST PUSH2 0x19B PUSH2 0x68E PUSH2 0x689 CALLDATASIZE PUSH1 0x4 PUSH2 0x41D JUMP JUMPDEST PUSH2 0x5CB JUMP JUMPDEST PUSH1 0x40 MLOAD SWAP2 SWAP4 SWAP2 SWAP4 DUP5 SWAP4 DUP5 PUSH2 0x636 JUMP JUMPDEST PUSH2 0x6A5 PUSH1 0x0 DUP1 REVERT JUMPDEST PUSH2 0x678 JUMP JUMPDEST POP CALLVALUE PUSH2 0x6C4 JUMPI JUMPDEST PUSH2 0x6BC CALLDATASIZE PUSH1 0x4 PUSH2 0x9E JUMP JUMPDEST PUSH2 0x3E3 PUSH2 0xF32 JUMP JUMPDEST PUSH2 0x6CC PUSH1 0x0 DUP1 REVERT JUMPDEST PUSH2 0x6B1 JUMP JUMPDEST POP CALLVALUE PUSH2 0x6EF JUMPI JUMPDEST PUSH2 0x3E3 PUSH2 0x6E6 CALLDATASIZE PUSH1 0x4 PUSH2 0x2F9 JUMP JUMPDEST SWAP4 SWAP3 SWAP1 SWAP3 PUSH2 0xC21 JUMP JUMPDEST PUSH2 0x6F7 PUSH1 0x0 DUP1 REVERT JUMPDEST PUSH2 0x6D8 JUMP JUMPDEST PUSH2 0x1BD PUSH2 0x1BD PUSH2 0x1BD SWAP3 SWAP1 JUMP JUMPDEST ISZERO PUSH2 0x710 JUMPI JUMP JUMPDEST PUSH1 0x40 MLOAD PUSH3 0x461BCD PUSH1 0xE5 SHL DUP2 MSTORE PUSH1 0x20 PUSH1 0x4 DUP3 ADD MSTORE PUSH1 0x1A PUSH1 0x24 DUP3 ADD MSTORE PUSH32 0x4669727374206E616D652063616E6E6F7420626520656D707479000000000000 PUSH1 0x44 DUP3 ADD MSTORE PUSH1 0x64 SWAP1 REVERT JUMPDEST ISZERO PUSH2 0x75C JUMPI JUMP JUMPDEST PUSH1 0x40 MLOAD PUSH3 0x461BCD PUSH1 0xE5 SHL DUP2 MSTORE PUSH1 0x20 PUSH1 0x4 DUP3 ADD MSTORE PUSH1 0x19 PUSH1 0x24 DUP3 ADD MSTORE PUSH32 0x4C617374206E616D652063616E6E6F7420626520656D70747900000000000000 PUSH1 0x44 DUP3 ADD MSTORE PUSH1 0x64 SWAP1 REVERT JUMPDEST ISZERO PUSH2 0x7A8 JUMPI JUMP JUMPDEST PUSH1 0x40 MLOAD PUSH3 0x461BCD PUSH1 0xE5 SHL DUP2 MSTORE PUSH1 0x20 PUSH1 0x4 DUP3 ADD MSTORE PUSH1 0x16 PUSH1 0x24 DUP3 ADD MSTORE PUSH22 0x4465677265652063616E6E6F7420626520656D707479 PUSH1 0x50 SHL PUSH1 0x44 DUP3 ADD MSTORE PUSH1 0x64 SWAP1 REVERT JUMPDEST ISZERO PUSH2 0x7ED JUMPI JUMP JUMPDEST PUSH1 0x40 MLOAD PUSH3 0x461BCD PUSH1 0xE5 SHL DUP2 MSTORE PUSH1 0x20 PUSH1 0x4 DUP3 ADD MSTORE PUSH1 0x15 PUSH1 0x24 DUP3 ADD MSTORE PUSH21 0x4D616A6F722063616E6E6F7420626520656D707479 PUSH1 0x58 SHL PUSH1 0x44 DUP3 ADD MSTORE PUSH1 0x64 SWAP1 REVERT JUMPDEST POP PUSH4 0x4E487B71 PUSH1 0xE0 SHL PUSH1 0x0 MSTORE PUSH1 0x0 PUSH1 0x4 MSTORE PUSH1 0x24 PUSH1 0x0 REVERT JUMPDEST SWAP2 PUSH1 0x0 NOT PUSH1 0x8 SWAP3 SWAP1 SWAP3 MUL SWAP2 DUP3 SHL SWAP2 SHL JUMPDEST SWAP2 DUP2 NOT AND SWAP2 AND OR SWAP1 JUMP JUMPDEST SWAP2 SWAP1 PUSH2 0x86C PUSH2 0x1BD PUSH2 0x874 SWAP4 PUSH2 0x6FC JUMP JUMPDEST SWAP1 DUP4 SLOAD PUSH2 0x841 JUMP JUMPDEST SWAP1 SSTORE JUMP JUMPDEST PUSH2 0xB1 SWAP2 PUSH1 0x0 SWAP2 PUSH2 0x85B JUMP JUMPDEST DUP2 DUP2 LT PUSH2 0x88F JUMPI POP POP JUMP JUMPDEST DUP1 PUSH2 0x89D PUSH1 0x0 PUSH1 0x1 SWAP4 PUSH2 0x878 JUMP JUMPDEST ADD PUSH2 0x884 JUMP JUMPDEST SWAP2 SWAP1 PUSH1 0x1F DUP2 GT PUSH2 0x8B2 JUMPI POP POP POP JUMP JUMPDEST PUSH2 0x8C4 PUSH2 0xB1 SWAP4 PUSH1 0x0 MSTORE PUSH1 0x20 PUSH1 0x0 KECCAK256 SWAP1 JUMP JUMPDEST SWAP1 PUSH1 0x20 PUSH1 0x1F DUP5 ADD DUP2 SWAP1 DIV DUP4 ADD SWAP4 LT PUSH2 0x8E7 JUMPI JUMPDEST PUSH1 0x20 PUSH1 0x1F SWAP1 SWAP2 ADD DIV JUMPDEST ADD SWAP1 PUSH2 0x884 JUMP JUMPDEST SWAP1 SWAP2 POP DUP2 SWAP1 PUSH2 0x8D7 JUMP JUMPDEST PUSH1 0x0 NOT PUSH1 0x8 DUP4 MUL SHR NOT AND SWAP1 PUSH1 0x2 MUL OR SWAP1 JUMP JUMPDEST SWAP1 PUSH2 0x90C DUP2 MLOAD SWAP1 JUMP JUMPDEST SWAP1 PUSH8 0xFFFFFFFFFFFFFFFF DUP3 GT PUSH2 0x9CA JUMPI JUMPDEST PUSH2 0x931 DUP3 PUSH2 0x92B DUP6 SLOAD PUSH2 0x48F JUMP JUMPDEST DUP6 PUSH2 0x8A3 JUMP JUMPDEST PUSH1 0x20 SWAP1 PUSH1 0x1F DUP4 GT PUSH1 0x1 EQ PUSH2 0x95F JUMPI PUSH2 0x874 SWAP3 SWAP2 PUSH1 0x0 SWAP2 DUP4 PUSH2 0x954 JUMPI JUMPDEST POP POP PUSH2 0x8F1 JUMP JUMPDEST ADD MLOAD SWAP1 POP CODESIZE DUP1 PUSH2 0x94D JUMP JUMPDEST PUSH1 0x1F NOT DUP4 AND SWAP2 PUSH2 0x974 DUP6 PUSH1 0x0 MSTORE PUSH1 0x20 PUSH1 0x0 KECCAK256 SWAP1 JUMP JUMPDEST SWAP3 PUSH1 0x0 JUMPDEST DUP2 DUP2 LT PUSH2 0x9B2 JUMPI POP SWAP2 PUSH1 0x2 SWAP4 SWAP2 DUP6 PUSH1 0x1 SWAP7 SWAP5 LT PUSH2 0x999 JUMPI JUMPDEST POP POP POP MUL ADD SWAP1 SSTORE JUMP JUMPDEST ADD MLOAD PUSH1 0x0 NOT PUSH1 0x8 PUSH1 0x1F DUP6 AND MUL SHR NOT AND SWAP1 SSTORE CODESIZE DUP1 DUP1 PUSH2 0x990 JUMP JUMPDEST SWAP2 SWAP4 PUSH1 0x20 PUSH1 0x1 DUP2 SWAP3 DUP8 DUP8 ADD MLOAD DUP2 SSTORE ADD SWAP6 ADD SWAP3 ADD PUSH2 0x978 JUMP JUMPDEST PUSH2 0x9D2 PUSH2 0x1F6 JUMP JUMPDEST PUSH2 0x91D JUMP JUMPDEST SWAP1 PUSH2 0xB1 SWAP2 PUSH2 0x903 JUMP JUMPDEST MLOAD SWAP1 JUMP JUMPDEST SWAP1 PUSH1 0x0 NOT SWAP1 PUSH2 0x851 JUMP JUMPDEST SWAP1 PUSH2 0x9FF PUSH2 0x1BD PUSH2 0x874 SWAP3 PUSH2 0x6FC JUMP JUMPDEST DUP3 SLOAD PUSH2 0x9E5 JUMP JUMPDEST SWAP1 PUSH2 0xA43 PUSH1 0x40 PUSH1 0x2 PUSH2 0xB1 SWAP5 PUSH2 0xA2A PUSH1 0x0 DUP3 ADD PUSH2 0xA24 PUSH1 0x0 DUP9 ADD MLOAD SWAP1 JUMP JUMPDEST SWAP1 PUSH2 0x9D7 JUMP JUMPDEST PUSH2 0xA3C PUSH1 0x1 DUP3 ADD PUSH2 0xA24 PUSH1 0x20 DUP9 ADD MLOAD SWAP1 JUMP JUMPDEST ADD SWAP3 ADD MLOAD SWAP1 JUMP JUMPDEST SWAP1 PUSH2 0x9EF JUMP JUMPDEST SWAP1 PUSH2 0xB1 SWAP2 PUSH2 0xA06 JUMP JUMPDEST SWAP1 PUSH2 0xA71 PUSH1 0x40 PUSH1 0x2 PUSH2 0xB1 SWAP5 PUSH2 0xA2A PUSH1 0x0 DUP3 ADD PUSH2 0xA24 PUSH1 0x0 DUP9 ADD MLOAD SWAP1 JUMP JUMPDEST SWAP1 PUSH2 0xA49 JUMP JUMPDEST SWAP1 PUSH2 0xB1 SWAP2 PUSH2 0xA53 JUMP JUMPDEST SWAP1 SWAP2 SWAP4 PUSH2 0xB9D SWAP1 PUSH2 0xA92 PUSH2 0x9E1 DUP5 SWAP1 JUMP JUMPDEST SWAP5 PUSH2 0xAAF PUSH1 0x0 SWAP7 PUSH2 0xAA9 PUSH2 0xAA5 DUP10 PUSH2 0x6FC JUMP JUMPDEST SWAP2 SWAP1 JUMP JUMPDEST GT PUSH2 0x709 JUMP JUMPDEST PUSH2 0xACC PUSH2 0xABA DUP7 MLOAD SWAP1 JUMP JUMPDEST PUSH2 0xAC6 PUSH2 0xAA5 DUP10 PUSH2 0x6FC JUMP JUMPDEST GT PUSH2 0x755 JUMP JUMPDEST PUSH2 0xAE9 PUSH2 0xAD7 DUP9 MLOAD SWAP1 JUMP JUMPDEST PUSH2 0xAE3 PUSH2 0xAA5 DUP10 PUSH2 0x6FC JUMP JUMPDEST GT PUSH2 0x7A1 JUMP JUMPDEST PUSH2 0xB06 PUSH2 0xAF4 DUP3 MLOAD SWAP1 JUMP JUMPDEST PUSH2 0xB00 PUSH2 0xAA5 DUP10 PUSH2 0x6FC JUMP JUMPDEST GT PUSH2 0x7E6 JUMP JUMPDEST PUSH2 0xB69 PUSH2 0xB11 PUSH2 0x57C JUMP JUMPDEST PUSH2 0xB1B DUP10 DUP10 DUP4 ADD MSTORE JUMP JUMPDEST PUSH2 0xB26 DUP4 PUSH1 0x20 DUP4 ADD MSTORE JUMP JUMPDEST PUSH2 0xB31 DUP5 PUSH1 0x40 DUP4 ADD MSTORE JUMP JUMPDEST PUSH2 0xB59 PUSH2 0xB3C PUSH2 0x57C JUMP JUMPDEST SWAP2 PUSH2 0xB47 DUP9 DUP12 DUP6 ADD MSTORE JUMP JUMPDEST PUSH2 0xB52 DUP10 PUSH1 0x20 DUP6 ADD MSTORE JUMP JUMPDEST PUSH1 0x40 DUP4 ADD MSTORE JUMP JUMPDEST PUSH2 0xB64 CALLER DUP1 SWAP10 PUSH2 0x460 JUMP JUMPDEST PUSH2 0xA77 JUMP JUMPDEST PUSH2 0xB93 PUSH32 0x7B2915EE83B60C835E492363A7976B66AE49D42F51B0824C27B0ECD4A89C18D4 SWAP7 PUSH2 0x457 JUMP JUMPDEST SWAP7 PUSH2 0x192 PUSH1 0x40 MLOAD SWAP1 JUMP JUMPDEST SUB SWAP1 LOG2 JUMP JUMPDEST SWAP1 PUSH2 0xB1 PUSH2 0x5C4 PUSH1 0x2 PUSH2 0xBB3 PUSH2 0x57C JUMP JUMPDEST SWAP5 PUSH2 0xBC0 PUSH2 0x5A4 DUP3 PUSH2 0x54A JUMP JUMPDEST PUSH2 0xBCF PUSH2 0x5B7 PUSH1 0x1 DUP4 ADD PUSH2 0x54A JUMP JUMPDEST ADD PUSH2 0x586 JUMP JUMPDEST PUSH2 0x1BD SWAP1 PUSH2 0xBA2 JUMP JUMPDEST PUSH1 0x0 SWAP1 PUSH2 0xBF3 PUSH2 0xBEE CALLER DUP5 PUSH2 0x460 JUMP JUMPDEST PUSH2 0xBD5 JUMP JUMPDEST SWAP2 DUP1 DUP4 ADD MLOAD PUSH1 0x40 PUSH1 0x20 DUP6 ADD MLOAD SWAP5 ADD SWAP2 DUP3 MLOAD ADD MLOAD SWAP3 PUSH2 0xC19 PUSH1 0x40 PUSH1 0x20 DUP6 MLOAD ADD MLOAD SWAP5 MLOAD ADD MLOAD SWAP1 JUMP JUMPDEST SWAP2 SWAP5 SWAP4 SWAP3 SWAP2 SWAP1 JUMP JUMPDEST SWAP1 SWAP2 SWAP4 PUSH2 0xB9D SWAP1 PUSH2 0xC32 PUSH2 0x9E1 DUP5 SWAP1 JUMP JUMPDEST SWAP5 PUSH2 0xC45 PUSH1 0x0 SWAP7 PUSH2 0xAA9 PUSH2 0xAA5 DUP10 PUSH2 0x6FC JUMP JUMPDEST PUSH2 0xC50 PUSH2 0xABA DUP7 MLOAD SWAP1 JUMP JUMPDEST PUSH2 0xC5B PUSH2 0xAD7 DUP9 MLOAD SWAP1 JUMP JUMPDEST PUSH2 0xC66 PUSH2 0xAF4 DUP3 MLOAD SWAP1 JUMP JUMPDEST PUSH2 0xCC1 PUSH2 0xC71 PUSH2 0x57C JUMP JUMPDEST PUSH2 0xC7B DUP10 DUP10 DUP4 ADD MSTORE JUMP JUMPDEST PUSH2 0xC86 DUP4 PUSH1 0x20 DUP4 ADD MSTORE JUMP JUMPDEST PUSH2 0xC91 DUP5 PUSH1 0x40 DUP4 ADD MSTORE JUMP JUMPDEST PUSH1 0x2 CALLER SWAP9 PUSH2 0xCAE DUP9 PUSH2 0xCA6 PUSH2 0x1BD DUP14 DUP6 PUSH2 0x460 JUMP JUMPDEST SWAP3 DUP4 ADD PUSH2 0x9D7 JUMP JUMPDEST PUSH2 0xCBB DUP10 PUSH1 0x1 DUP4 ADD PUSH2 0x9D7 JUMP JUMPDEST ADD PUSH2 0xA49 JUMP JUMPDEST PUSH2 0xB93 PUSH32 0x23BC9910B06B4440A923ECC439F6E57A3BC500BEBF0B8C6C90E9A73633344EA7 SWAP7 PUSH2 0x457 JUMP JUMPDEST SWAP1 PUSH2 0xCFE SWAP1 PUSH1 0x0 NOT SWAP1 PUSH1 0x20 SUB PUSH1 0x8 MUL SHR SWAP1 JUMP JUMPDEST DUP2 SLOAD AND SWAP1 SSTORE JUMP JUMPDEST SWAP1 PUSH1 0x0 SWAP2 PUSH2 0xD23 PUSH2 0xD1B DUP3 PUSH1 0x0 MSTORE PUSH1 0x20 PUSH1 0x0 KECCAK256 SWAP1 JUMP JUMPDEST SWAP3 DUP4 SLOAD PUSH2 0x8F1 JUMP JUMPDEST SWAP1 SSTORE SSTORE JUMP JUMPDEST SWAP2 SWAP3 SWAP1 PUSH1 0x20 DUP3 LT ISZERO PUSH2 0xD80 JUMPI PUSH1 0x1F DUP5 GT PUSH1 0x1 EQ PUSH2 0xD4A JUMPI PUSH2 0x874 SWAP3 SWAP4 POP PUSH2 0x8F1 JUMP JUMPDEST POP SWAP1 PUSH2 0xD7B PUSH2 0xB1 SWAP4 PUSH1 0x1 PUSH2 0xD72 PUSH2 0xD67 DUP6 PUSH1 0x0 MSTORE PUSH1 0x20 PUSH1 0x0 KECCAK256 SWAP1 JUMP JUMPDEST SWAP3 PUSH1 0x1F PUSH1 0x20 SWAP2 ADD DIV SWAP1 JUMP JUMPDEST DUP3 ADD SWAP2 ADD PUSH2 0x884 JUMP JUMPDEST PUSH2 0xD05 JUMP JUMPDEST POP PUSH2 0xDB9 DUP3 SWAP4 PUSH2 0xD97 PUSH1 0x1 SWAP5 PUSH1 0x0 MSTORE PUSH1 0x20 PUSH1 0x0 KECCAK256 SWAP1 JUMP JUMPDEST PUSH2 0x8E0 PUSH1 0x20 PUSH1 0x1F DUP7 ADD DIV DUP3 ADD SWAP3 PUSH1 0x1F DUP7 AND DUP1 PUSH2 0xDC1 JUMPI JUMPDEST POP PUSH1 0x1F PUSH1 0x20 SWAP2 ADD DIV SWAP1 JUMP JUMPDEST PUSH1 0x2 MUL OR SWAP1 SSTORE JUMP JUMPDEST PUSH2 0xDCD SWAP1 DUP9 DUP7 SUB PUSH2 0xCEB JUMP JUMPDEST CODESIZE PUSH2 0xDAE JUMP JUMPDEST SWAP3 SWAP1 SWAP2 PUSH1 0x20 SWAP1 PUSH9 0x10000000000000000 DUP4 GT PUSH2 0xE2D JUMPI JUMPDEST LT ISZERO PUSH2 0xE21 JUMPI PUSH1 0x20 DUP2 LT ISZERO PUSH2 0xE02 JUMPI PUSH2 0x874 SWAP2 PUSH2 0x8F1 JUMP JUMPDEST PUSH1 0x1 SWAP2 PUSH1 0xFF NOT AND PUSH2 0xE18 DUP5 PUSH1 0x0 MSTORE PUSH1 0x20 PUSH1 0x0 KECCAK256 SWAP1 JUMP JUMPDEST SSTORE PUSH1 0x2 MUL ADD SWAP1 SSTORE JUMP JUMPDEST PUSH1 0x1 SWAP2 POP PUSH1 0x2 MUL ADD SWAP1 SSTORE JUMP JUMPDEST PUSH2 0xE35 PUSH2 0x1F6 JUMP JUMPDEST PUSH2 0xDEA JUMP JUMPDEST SWAP1 DUP2 SLOAD PUSH2 0xE46 DUP2 PUSH2 0x48F JUMP JUMPDEST SWAP1 DUP2 DUP4 GT PUSH2 0xE6F JUMPI JUMPDEST DUP2 DUP4 LT PUSH2 0xE5D JUMPI JUMPDEST POP POP POP POP JUMP JUMPDEST PUSH2 0xE66 SWAP4 PUSH2 0xD28 JUMP JUMPDEST CODESIZE DUP1 DUP1 DUP1 PUSH2 0xE57 JUMP JUMPDEST PUSH2 0xE7B DUP4 DUP4 DUP4 DUP8 PUSH2 0xDD3 JUMP JUMPDEST PUSH2 0xE4F JUMP JUMPDEST POP PUSH4 0x4E487B71 PUSH1 0xE0 SHL PUSH1 0x0 MSTORE PUSH1 0x11 PUSH1 0x4 MSTORE PUSH1 0x24 PUSH1 0x0 REVERT JUMPDEST PUSH1 0x0 PUSH2 0xB1 SWAP2 PUSH2 0xE3A JUMP JUMPDEST PUSH2 0xB1 SWAP2 ISZERO PUSH2 0xE97 JUMPI PUSH2 0xEB3 PUSH2 0x82A JUMP JUMPDEST PUSH2 0xE97 JUMP JUMPDEST PUSH1 0x0 PUSH1 0x2 PUSH2 0xB1 SWAP3 PUSH2 0xECC DUP4 DUP1 DUP4 ADD PUSH2 0xEA2 JUMP JUMPDEST PUSH2 0xED9 DUP4 PUSH1 0x1 DUP4 ADD PUSH2 0xEA2 JUMP JUMPDEST ADD PUSH2 0x878 JUMP JUMPDEST PUSH2 0xB1 SWAP2 ISZERO PUSH2 0xEB8 JUMPI PUSH2 0xEF0 PUSH2 0x82A JUMP JUMPDEST PUSH2 0xEB8 JUMP JUMPDEST PUSH1 0x0 PUSH1 0x2 PUSH2 0xB1 SWAP3 PUSH2 0xF09 DUP4 DUP1 DUP4 ADD PUSH2 0xEA2 JUMP JUMPDEST PUSH2 0xF16 DUP4 PUSH1 0x1 DUP4 ADD PUSH2 0xEA2 JUMP JUMPDEST ADD PUSH2 0xEDF JUMP JUMPDEST PUSH2 0xB1 SWAP2 ISZERO PUSH2 0xEF5 JUMPI PUSH2 0xF2D PUSH2 0x82A JUMP JUMPDEST PUSH2 0xEF5 JUMP JUMPDEST CALLER PUSH2 0xF47 PUSH1 0x0 PUSH2 0xF42 DUP4 DUP3 PUSH2 0x460 JUMP JUMPDEST PUSH2 0xF1C JUMP JUMPDEST PUSH2 0xF71 PUSH32 0x8B92780C414B9F0CC7E66F9EA0F7EB6A8CF72AC0571CD2445169F4C35C374183 SWAP2 PUSH2 0x457 JUMP JUMPDEST SWAP1 PUSH2 0xF7B PUSH1 0x40 MLOAD SWAP1 JUMP JUMPDEST DUP1 DUP1 PUSH2 0xB9D JUMP JUMPDEST PUSH2 0x10A PUSH2 0xF9A SWAP3 PUSH1 0x20 SWAP3 PUSH2 0xF94 DUP2 MLOAD SWAP1 JUMP JUMPDEST SWAP5 DUP6 SWAP3 SWAP1 JUMP JUMPDEST SWAP4 DUP5 SWAP2 ADD PUSH2 0xB3 JUMP JUMPDEST PUSH1 0x20 SWAP6 PUSH2 0x102B PUSH2 0x109D PUSH2 0x1BD SWAP10 SWAP8 PUSH2 0x102B PUSH2 0x108D PUSH2 0x10D7 SWAP10 PUSH2 0x102B PUSH2 0x103E PUSH2 0x10D2 SWAP12 PUSH2 0x102B PUSH2 0x1031 PUSH2 0x10BC SWAP14 PUSH2 0x102B PUSH2 0x1002 PUSH2 0x10AD SWAP16 PUSH32 0x4365727469666963617465206F662047726164756174696F6E0A0A0000000000 DUP2 MSTORE PUSH1 0x1B ADD SWAP1 JUMP JUMPDEST PUSH32 0x5468697320697320746F20636572746966792074686174200000000000000000 DUP2 MSTORE PUSH1 0x18 ADD SWAP1 JUMP JUMPDEST SWAP1 PUSH2 0xF82 JUMP JUMPDEST PUSH1 0x1 PUSH1 0xFD SHL DUP2 MSTORE PUSH1 0x1 ADD SWAP1 JUMP JUMPDEST PUSH32 0x20686173207375636365737366756C6C7920636F6D706C657465642074686520 DUP2 MSTORE PUSH32 0x726571756972656D656E747320666F722074686520646567726565206F662000 PUSH1 0x20 DUP3 ADD MSTORE PUSH1 0x3F ADD SWAP1 JUMP JUMPDEST PUSH4 0x1034B71 PUSH1 0xE5 SHL DUP2 MSTORE PUSH1 0x4 ADD SWAP1 JUMP JUMPDEST PUSH4 0x1037B71 PUSH1 0xE5 SHL DUP2 MSTORE PUSH1 0x4 ADD SWAP1 JUMP JUMPDEST PUSH3 0x170505 PUSH1 0xE9 SHL DUP2 MSTORE PUSH1 0x3 ADD SWAP1 JUMP JUMPDEST PUSH10 0x24B9B9BAB2B21037B71 PUSH1 0xB5 SHL DUP2 MSTORE PUSH1 0xA ADD SWAP1 JUMP JUMPDEST SWAP2 DUP3 MSTORE JUMP JUMPDEST ADD PUSH2 0x1705 PUSH1 0xF1 SHL DUP2 MSTORE PUSH1 0x2 ADD SWAP1 JUMP JUMPDEST PUSH2 0x1BD PUSH2 0x1BD PUSH1 0x0 PUSH2 0x1BD PUSH2 0x10FE PUSH2 0xBEE CALLER DUP5 PUSH2 0x460 JUMP JUMPDEST DUP3 DUP2 ADD MLOAD PUSH2 0x1147 PUSH1 0x40 PUSH1 0x20 DUP5 ADD MLOAD SWAP4 ADD SWAP5 DUP6 MLOAD ADD MLOAD SWAP5 PUSH2 0x112E PUSH2 0x1129 PUSH1 0x40 PUSH1 0x20 DUP5 MLOAD ADD MLOAD SWAP4 MLOAD ADD MLOAD SWAP1 JUMP JUMPDEST PUSH2 0x12A6 JUMP JUMPDEST TIMESTAMP SWAP2 PUSH2 0x1139 PUSH1 0x40 MLOAD SWAP1 JUMP JUMPDEST SWAP8 DUP9 SWAP7 PUSH1 0x20 DUP9 ADD SWAP7 DUP8 PUSH2 0xFA3 JUMP JUMPDEST SWAP1 DUP2 SUB DUP3 MSTORE SUB DUP3 PUSH2 0x20D JUMP JUMPDEST SWAP1 PUSH2 0x10D2 PUSH2 0x296 DUP4 PUSH2 0x250 JUMP JUMPDEST PUSH2 0x116A PUSH1 0x1 PUSH2 0x1153 JUMP JUMPDEST PUSH1 0x3 PUSH1 0xFC SHL PUSH1 0x20 DUP3 ADD MSTORE SWAP1 JUMP JUMPDEST PUSH2 0x1BD PUSH2 0x1160 JUMP JUMPDEST PUSH1 0x1 SWAP1 PUSH1 0x0 NOT DUP2 EQ PUSH2 0x118F JUMPI ADD SWAP1 JUMP JUMPDEST PUSH2 0x10A PUSH2 0xE80 JUMP JUMPDEST POP PUSH4 0x4E487B71 PUSH1 0xE0 SHL PUSH1 0x0 MSTORE PUSH1 0x12 PUSH1 0x4 MSTORE PUSH1 0x24 PUSH1 0x0 REVERT JUMPDEST DUP2 ISZERO PUSH2 0x11B8 JUMPI DIV SWAP1 JUMP JUMPDEST PUSH2 0x11C0 PUSH2 0x1197 JUMP JUMPDEST DIV SWAP1 JUMP JUMPDEST CALLDATASIZE SWAP1 CALLDATACOPY JUMP JUMPDEST SWAP1 PUSH2 0xB1 PUSH2 0x11DF PUSH2 0x11D9 DUP5 PUSH2 0x1153 JUMP JUMPDEST SWAP4 PUSH2 0x250 JUMP JUMPDEST PUSH1 0x1F NOT ADD PUSH1 0x20 DUP5 ADD PUSH2 0x11C4 JUMP JUMPDEST DUP2 ISZERO PUSH2 0x11F6 JUMPI MOD SWAP1 JUMP JUMPDEST PUSH2 0x11FE PUSH2 0x1197 JUMP JUMPDEST MOD SWAP1 JUMP JUMPDEST SWAP2 SWAP1 DUP3 ADD DUP1 SWAP3 GT PUSH2 0x120F JUMPI JUMP JUMPDEST PUSH2 0xB1 PUSH2 0xE80 JUMP JUMPDEST PUSH2 0x1224 PUSH2 0x1BD PUSH2 0x1BD SWAP3 SWAP1 JUMP JUMPDEST PUSH1 0xFF AND SWAP1 JUMP JUMPDEST PUSH2 0x1240 PUSH2 0x123A PUSH2 0x1BD SWAP3 PUSH1 0xFF AND SWAP1 JUMP JUMPDEST PUSH1 0xF8 SHL SWAP1 JUMP JUMPDEST PUSH1 0x1 PUSH1 0x1 PUSH1 0xF8 SHL SUB NOT AND SWAP1 JUMP JUMPDEST PUSH1 0x1 SWAP1 DUP1 ISZERO PUSH2 0x125A JUMPI SUB SWAP1 JUMP JUMPDEST PUSH2 0x1262 PUSH2 0xE80 JUMP JUMPDEST SUB SWAP1 JUMP JUMPDEST POP PUSH4 0x4E487B71 PUSH1 0xE0 SHL PUSH1 0x0 MSTORE PUSH1 0x32 PUSH1 0x4 MSTORE PUSH1 0x24 PUSH1 0x0 REVERT JUMPDEST SWAP1 PUSH1 0x1 PUSH1 0x20 SWAP2 PUSH2 0x128B DUP5 MLOAD SWAP1 JUMP JUMPDEST DUP2 LT ISZERO PUSH2 0x1299 JUMPI JUMPDEST MUL ADD ADD SWAP1 JUMP JUMPDEST PUSH2 0x12A1 PUSH2 0x1266 JUMP JUMPDEST PUSH2 0x1293 JUMP JUMPDEST SWAP1 PUSH1 0x0 PUSH2 0x12B2 DUP2 PUSH2 0x6FC JUMP JUMPDEST DUP4 EQ PUSH2 0x1378 JUMPI SWAP1 DUP3 SWAP1 PUSH1 0x0 JUMPDEST PUSH2 0x12C7 DUP5 PUSH2 0x6FC JUMP JUMPDEST DUP4 EQ PUSH2 0x12F0 JUMPI PUSH2 0x12D9 PUSH2 0x12EA SWAP2 PUSH2 0x117F JUMP JUMPDEST SWAP3 PUSH2 0x12E4 PUSH1 0xA PUSH2 0x6FC JUMP JUMPDEST SWAP1 PUSH2 0x11AE JUMP JUMPDEST SWAP2 PUSH2 0x12BE JUMP JUMPDEST SWAP2 POP SWAP2 PUSH2 0x12FC DUP3 PUSH2 0x11C9 JUMP JUMPDEST SWAP2 SWAP4 JUMPDEST PUSH2 0x1308 DUP3 PUSH2 0x6FC JUMP JUMPDEST DUP2 EQ PUSH2 0x136D JUMPI PUSH2 0x1368 SWAP1 PUSH2 0x12E4 PUSH1 0xA PUSH2 0x1355 PUSH2 0x134F PUSH2 0x134A PUSH2 0x1345 PUSH1 0x30 PUSH2 0x1340 PUSH2 0x133A PUSH2 0x1334 DUP9 PUSH2 0x6FC JUMP JUMPDEST DUP11 PUSH2 0x11EC JUMP JUMPDEST SWAP2 PUSH2 0x6FC JUMP JUMPDEST PUSH2 0x1202 JUMP JUMPDEST PUSH2 0x1217 JUMP JUMPDEST PUSH2 0x122A JUMP JUMPDEST SWAP9 PUSH2 0x124D JUMP JUMPDEST SWAP8 DUP6 BYTE PUSH2 0x1362 DUP10 DUP9 PUSH2 0x127D JUMP JUMPDEST MSTORE8 PUSH2 0x6FC JUMP JUMPDEST PUSH2 0x12FF JUMP JUMPDEST POP POP PUSH2 0x1BD SWAP2 SWAP3 POP SWAP1 JUMP JUMPDEST POP SWAP1 POP PUSH2 0x1BD PUSH2 0x1177 JUMP INVALID LOG2 PUSH5 0x6970667358 0x22 SLT KECCAK256 LOG0 0xC7 MSIZE SWAP7 0x24 CREATE2 0xE3 CALLDATACOPY PUSH14 0x2747749616EDCE74DF5AE9BC3FFA DUP11 SWAP4 SHL SWAP3 0x21 PUSH9 0x8B3B2264736F6C6343 STOP ADDMOD GT STOP CALLER "},"methodIdentifiers":{"createStudent(string,string,string,string,uint256)":"92b2424d","deleteStudent()":"ec02547f","issueCertificate()":"81816933","readStudent()":"4e920ef8","students(address)":"a6c807a9","updateStudent(string,string,string,string,uint256)":"f2750eaf"}}}}}