{"contracts/Greeter.sol":{"Greeter":{"abi":[{"inputs":[{"internalType":"string","name":"_greeting","type":"string"}],"stateMutability":"nonpayable","type":"constructor"},{"inputs":[],"name":"greet","outputs":[{"internalType":"string","name":"","type":"string"}],"stateMutability":"view","type":"function"},{"inputs":[{"internalType":"string","name":"_greeting","type":"string"}],"name":"setGreeting","outputs":[],"stateMutability":"nonpayable","type":"function"}],"evm":{"bytecode":{"linkReferences":{},"object":"60806040523462000031575b6200001f62000019620001b9565b6200044b565b6040516106576200052a823961065790f35b6200003a600080fd5b6200000b565b601f01601f191690565b50634e487b7160e01b600052604160045260246000fd5b90601f01601f191681019081106001600160401b038211176200008357604052565b6200008d6200004a565b604052565b90620000a9620000a160405190565b928362000061565b565b602090620000cc906001600160401b038111620000d057601f01601f191690565b0190565b620000406200004a565b60005b838110620000ee5750506000910152565b8181015183820152602001620000dd565b929190620000a9916200011c6200011683620000ab565b62000092565b9482865260208601918382011115620000da5762000138600080fd5b620000da565b906200015d9181601f8201121562000160575b602081519101620000ff565b90565b62000169600080fd5b62000151565b906200015d91602081830312620001aa575b8051906001600160401b0382116200019b575b016200013e565b620001a4600080fd5b62000194565b620001b3600080fd5b62000181565b6200015d62000b8180380380620001d08162000092565b9283398101906200016f565b90620001ec6200011683620000ab565b918252565b620001fd6022620001dc565b7f4465706c6f79696e67206120477265657465722077697468206772656574696e602082015261339d60f11b604082015290565b6200015d620001f1565b50634e487b7160e01b600052602260045260246000fd5b906001600283049216801562000279575b60208310146200026f57565b620000a96200023b565b91607f169162000263565b6200015d6200015d6200015d9290565b9190620002a96200015d620002c59362000284565b9083549160001960089290920291821b911b9181191691161790565b9055565b620000a99160009162000294565b818110620002e3575050565b80620002f36000600193620002c9565b01620002d7565b9190601f81116200030a57505050565b6200031e620000a993600052602060002090565b906020601f84018190048301931062000342575b6020601f909101040190620002d7565b909150819062000332565b9062000357815190565b906001600160401b0382116200042f575b620003808262000379855462000252565b85620002fa565b602090601f8311600114620003bf57620002c5929160009183620003b3575b5050600019600883021c1916906002021790565b0151905038806200039f565b601f19831691620003d585600052602060002090565b9260005b8181106200041657509160029391856001969410620003fc575b50505002019055565b01516000196008601f8516021c19169055388080620003f3565b91936020600181928787015181550195019201620003d9565b620004396200004a565b62000368565b90620000a9916200034d565b620000a99062000465816200045f62000231565b620004c5565b60006200043f565b6200049262000040602093620000cc9362000486815190565b80835293849260200190565b95869101620000da565b60408082526200015d939192620004b6918401906200046d565b9160208184039101526200046d565b9062000507620000a992620004f7620004dd60405190565b634b5c427760e01b6020820152938492602484016200049c565b6020820181038252038262000061565b6000809162000514815190565b906020016a636f6e736f6c652e6c6f675afa5056fe60806040526004361015610018575b610016600080fd5b005b60003560e01c8063a4136862146100405763cfae32170361000e5761003b61022d565b61000e565b5061003b61018c565b601f01601f191690565b50634e487b7160e01b600052604160045260246000fd5b90601f01601f1916810190811067ffffffffffffffff82111761008c57604052565b610094610053565b604052565b906100ad6100a660405190565b928361006a565b565b6100ce60209167ffffffffffffffff81116100d257601f01601f191690565b0190565b610049610053565b90826000939282370152565b9291906100ad916100fe6100f9836100af565b610099565b94828652602086019183820111156100da57610118600080fd5b6100da565b906101399181601f8201121561013c575b6020813591016100e6565b90565b610144600080fd5b61012e565b906101399160208183031261017f575b80359067ffffffffffffffff8211610172575b0161011d565b61017a600080fd5b61016c565b610187600080fd5b610159565b50346101af575b6101a66101a1366004610149565b610563565b604051005b0390f35b6101b7600080fd5b610193565b60009103126101c757565b6100ad600080fd5b60005b8381106101e25750506000910152565b81810151838201526020016101d2565b6102136100496020936100ce93610207815190565b80835293849260200190565b958691016101cf565b6020808252610139929101906101f2565b5034610256575b61023f3660046101bc565b6101ab61024a61035f565b6040519182918261021c565b61025e600080fd5b610234565b50634e487b7160e01b600052602260045260246000fd5b906001600283049216801561029d575b602083101461029557565b6100ad610263565b91607f169161028a565b805460009392916102c46102ba8361027a565b8085529360200190565b916001811690811561031657506001146102dd57505050565b6102f09192939450600052602060002090565b916000925b8184106103025750500190565b8054848401526020909301926001016102f5565b92949550505060ff1916825215156020020190565b90610139916102a7565b906100ad61034f9261034660405190565b9384809261032b565b038361006a565b61013990610335565b6101396000610356565b906103766100f9836100af565b918252565b6103856023610369565b7f4368616e67696e67206772656574696e672066726f6d202725732720746f202760208201526225732760e81b604082015290565b61013961037b565b6101396101396101399290565b91906103e06101396103fc936103c2565b9083549160001960089290920291821b911b9181191691161790565b9055565b6100ad916000916103cf565b818110610417575050565b806104256000600193610400565b0161040c565b9190601f811161043a57505050565b61044c6100ad93600052602060002090565b906020601f84018190048301931061046e575b6020601f90910104019061040c565b909150819061045f565b90610481815190565b9067ffffffffffffffff821161054c575b6104a6826104a0855461027a565b8561042b565b602090601f83116001146104e1576103fc9291600091836104d6575b5050600019600883021c1916906002021790565b0151905038806104c2565b601f198316916104f685600052602060002090565b9260005b8181106105345750916002939185600196941061051b575b50505002019055565b01516000196008601f8516021c19169055388080610512565b919360206001819287870151815501950192016104fa565b610554610053565b610492565b906100ad91610478565b6100ad906000610584826105756103ba565b61057e84610356565b906105c4565b610559565b916105b6906105a86101399593606086019086820360008801526101f2565b9084820360208601526101f2565b9160408184039101526101f2565b610600906105f16100ad946105d860405190565b632ced7cef60e01b602082015294859360248501610589565b6020820181038252038261006a565b6000809161060c815190565b906020016a636f6e736f6c652e6c6f675afa5056fea2646970667358221220fcfb811858a26933dbc6ab914ca62f83785d4cb9cc7ba0386f3202019b31318464736f6c63430008110033","opcodes":"PUSH1 0x80 PUSH1 0x40 MSTORE CALLVALUE PUSH3 0x31 JUMPI JUMPDEST PUSH3 0x1F PUSH3 0x19 PUSH3 0x1B9 JUMP JUMPDEST PUSH3 0x44B JUMP JUMPDEST PUSH1 0x40 MLOAD PUSH2 0x657 PUSH3 0x52A DUP3 CODECOPY PUSH2 0x657 SWAP1 RETURN JUMPDEST PUSH3 0x3A PUSH1 0x0 DUP1 REVERT JUMPDEST PUSH3 0xB JUMP JUMPDEST PUSH1 0x1F ADD PUSH1 0x1F NOT AND SWAP1 JUMP JUMPDEST POP PUSH4 0x4E487B71 PUSH1 0xE0 SHL PUSH1 0x0 MSTORE PUSH1 0x41 PUSH1 0x4 MSTORE PUSH1 0x24 PUSH1 0x0 REVERT JUMPDEST SWAP1 PUSH1 0x1F ADD PUSH1 0x1F NOT AND DUP2 ADD SWAP1 DUP2 LT PUSH1 0x1 PUSH1 0x1 PUSH1 0x40 SHL SUB DUP3 GT OR PUSH3 0x83 JUMPI PUSH1 0x40 MSTORE JUMP JUMPDEST PUSH3 0x8D PUSH3 0x4A JUMP JUMPDEST PUSH1 0x40 MSTORE JUMP JUMPDEST SWAP1 PUSH3 0xA9 PUSH3 0xA1 PUSH1 0x40 MLOAD SWAP1 JUMP JUMPDEST SWAP3 DUP4 PUSH3 0x61 JUMP JUMPDEST JUMP JUMPDEST PUSH1 0x20 SWAP1 PUSH3 0xCC SWAP1 PUSH1 0x1 PUSH1 0x1 PUSH1 0x40 SHL SUB DUP2 GT PUSH3 0xD0 JUMPI PUSH1 0x1F ADD PUSH1 0x1F NOT AND SWAP1 JUMP JUMPDEST ADD SWAP1 JUMP JUMPDEST PUSH3 0x40 PUSH3 0x4A JUMP JUMPDEST PUSH1 0x0 JUMPDEST DUP4 DUP2 LT PUSH3 0xEE JUMPI POP POP PUSH1 0x0 SWAP2 ADD MSTORE JUMP JUMPDEST DUP2 DUP2 ADD MLOAD DUP4 DUP3 ADD MSTORE PUSH1 0x20 ADD PUSH3 0xDD JUMP JUMPDEST SWAP3 SWAP2 SWAP1 PUSH3 0xA9 SWAP2 PUSH3 0x11C PUSH3 0x116 DUP4 PUSH3 0xAB JUMP JUMPDEST PUSH3 0x92 JUMP JUMPDEST SWAP5 DUP3 DUP7 MSTORE PUSH1 0x20 DUP7 ADD SWAP2 DUP4 DUP3 ADD GT ISZERO PUSH3 0xDA JUMPI PUSH3 0x138 PUSH1 0x0 DUP1 REVERT JUMPDEST PUSH3 0xDA JUMP JUMPDEST SWAP1 PUSH3 0x15D SWAP2 DUP2 PUSH1 0x1F DUP3 ADD SLT ISZERO PUSH3 0x160 JUMPI JUMPDEST PUSH1 0x20 DUP2 MLOAD SWAP2 ADD PUSH3 0xFF JUMP JUMPDEST SWAP1 JUMP JUMPDEST PUSH3 0x169 PUSH1 0x0 DUP1 REVERT JUMPDEST PUSH3 0x151 JUMP JUMPDEST SWAP1 PUSH3 0x15D SWAP2 PUSH1 0x20 DUP2 DUP4 SUB SLT PUSH3 0x1AA JUMPI JUMPDEST DUP1 MLOAD SWAP1 PUSH1 0x1 PUSH1 0x1 PUSH1 0x40 SHL SUB DUP3 GT PUSH3 0x19B JUMPI JUMPDEST ADD PUSH3 0x13E JUMP JUMPDEST PUSH3 0x1A4 PUSH1 0x0 DUP1 REVERT JUMPDEST PUSH3 0x194 JUMP JUMPDEST PUSH3 0x1B3 PUSH1 0x0 DUP1 REVERT JUMPDEST PUSH3 0x181 JUMP JUMPDEST PUSH3 0x15D PUSH3 0xB81 DUP1 CODESIZE SUB DUP1 PUSH3 0x1D0 DUP2 PUSH3 0x92 JUMP JUMPDEST SWAP3 DUP4 CODECOPY DUP2 ADD SWAP1 PUSH3 0x16F JUMP JUMPDEST SWAP1 PUSH3 0x1EC PUSH3 0x116 DUP4 PUSH3 0xAB JUMP JUMPDEST SWAP2 DUP3 MSTORE JUMP JUMPDEST PUSH3 0x1FD PUSH1 0x22 PUSH3 0x1DC JUMP JUMPDEST PUSH32 0x4465706C6F79696E67206120477265657465722077697468206772656574696E PUSH1 0x20 DUP3 ADD MSTORE PUSH2 0x339D PUSH1 0xF1 SHL PUSH1 0x40 DUP3 ADD MSTORE SWAP1 JUMP JUMPDEST PUSH3 0x15D PUSH3 0x1F1 JUMP JUMPDEST POP PUSH4 0x4E487B71 PUSH1 0xE0 SHL PUSH1 0x0 MSTORE PUSH1 0x22 PUSH1 0x4 MSTORE PUSH1 0x24 PUSH1 0x0 REVERT JUMPDEST SWAP1 PUSH1 0x1 PUSH1 0x2 DUP4 DIV SWAP3 AND DUP1 ISZERO PUSH3 0x279 JUMPI JUMPDEST PUSH1 0x20 DUP4 LT EQ PUSH3 0x26F JUMPI JUMP JUMPDEST PUSH3 0xA9 PUSH3 0x23B JUMP JUMPDEST SWAP2 PUSH1 0x7F AND SWAP2 PUSH3 0x263 JUMP JUMPDEST PUSH3 0x15D PUSH3 0x15D PUSH3 0x15D SWAP3 SWAP1 JUMP JUMPDEST SWAP2 SWAP1 PUSH3 0x2A9 PUSH3 0x15D PUSH3 0x2C5 SWAP4 PUSH3 0x284 JUMP JUMPDEST SWAP1 DUP4 SLOAD SWAP2 PUSH1 0x0 NOT PUSH1 0x8 SWAP3 SWAP1 SWAP3 MUL SWAP2 DUP3 SHL SWAP2 SHL SWAP2 DUP2 NOT AND SWAP2 AND OR SWAP1 JUMP JUMPDEST SWAP1 SSTORE JUMP JUMPDEST PUSH3 0xA9 SWAP2 PUSH1 0x0 SWAP2 PUSH3 0x294 JUMP JUMPDEST DUP2 DUP2 LT PUSH3 0x2E3 JUMPI POP POP JUMP JUMPDEST DUP1 PUSH3 0x2F3 PUSH1 0x0 PUSH1 0x1 SWAP4 PUSH3 0x2C9 JUMP JUMPDEST ADD PUSH3 0x2D7 JUMP JUMPDEST SWAP2 SWAP1 PUSH1 0x1F DUP2 GT PUSH3 0x30A JUMPI POP POP POP JUMP JUMPDEST PUSH3 0x31E PUSH3 0xA9 SWAP4 PUSH1 0x0 MSTORE PUSH1 0x20 PUSH1 0x0 KECCAK256 SWAP1 JUMP JUMPDEST SWAP1 PUSH1 0x20 PUSH1 0x1F DUP5 ADD DUP2 SWAP1 DIV DUP4 ADD SWAP4 LT PUSH3 0x342 JUMPI JUMPDEST PUSH1 0x20 PUSH1 0x1F SWAP1 SWAP2 ADD DIV ADD SWAP1 PUSH3 0x2D7 JUMP JUMPDEST SWAP1 SWAP2 POP DUP2 SWAP1 PUSH3 0x332 JUMP JUMPDEST SWAP1 PUSH3 0x357 DUP2 MLOAD SWAP1 JUMP JUMPDEST SWAP1 PUSH1 0x1 PUSH1 0x1 PUSH1 0x40 SHL SUB DUP3 GT PUSH3 0x42F JUMPI JUMPDEST PUSH3 0x380 DUP3 PUSH3 0x379 DUP6 SLOAD PUSH3 0x252 JUMP JUMPDEST DUP6 PUSH3 0x2FA JUMP JUMPDEST PUSH1 0x20 SWAP1 PUSH1 0x1F DUP4 GT PUSH1 0x1 EQ PUSH3 0x3BF JUMPI PUSH3 0x2C5 SWAP3 SWAP2 PUSH1 0x0 SWAP2 DUP4 PUSH3 0x3B3 JUMPI JUMPDEST POP POP PUSH1 0x0 NOT PUSH1 0x8 DUP4 MUL SHR NOT AND SWAP1 PUSH1 0x2 MUL OR SWAP1 JUMP JUMPDEST ADD MLOAD SWAP1 POP CODESIZE DUP1 PUSH3 0x39F JUMP JUMPDEST PUSH1 0x1F NOT DUP4 AND SWAP2 PUSH3 0x3D5 DUP6 PUSH1 0x0 MSTORE PUSH1 0x20 PUSH1 0x0 KECCAK256 SWAP1 JUMP JUMPDEST SWAP3 PUSH1 0x0 JUMPDEST DUP2 DUP2 LT PUSH3 0x416 JUMPI POP SWAP2 PUSH1 0x2 SWAP4 SWAP2 DUP6 PUSH1 0x1 SWAP7 SWAP5 LT PUSH3 0x3FC JUMPI JUMPDEST POP POP POP MUL ADD SWAP1 SSTORE JUMP JUMPDEST ADD MLOAD PUSH1 0x0 NOT PUSH1 0x8 PUSH1 0x1F DUP6 AND MUL SHR NOT AND SWAP1 SSTORE CODESIZE DUP1 DUP1 PUSH3 0x3F3 JUMP JUMPDEST SWAP2 SWAP4 PUSH1 0x20 PUSH1 0x1 DUP2 SWAP3 DUP8 DUP8 ADD MLOAD DUP2 SSTORE ADD SWAP6 ADD SWAP3 ADD PUSH3 0x3D9 JUMP JUMPDEST PUSH3 0x439 PUSH3 0x4A JUMP JUMPDEST PUSH3 0x368 JUMP JUMPDEST SWAP1 PUSH3 0xA9 SWAP2 PUSH3 0x34D JUMP JUMPDEST PUSH3 0xA9 SWAP1 PUSH3 0x465 DUP2 PUSH3 0x45F PUSH3 0x231 JUMP JUMPDEST PUSH3 0x4C5 JUMP JUMPDEST PUSH1 0x0 PUSH3 0x43F JUMP JUMPDEST PUSH3 0x492 PUSH3 0x40 PUSH1 0x20 SWAP4 PUSH3 0xCC SWAP4 PUSH3 0x486 DUP2 MLOAD SWAP1 JUMP JUMPDEST DUP1 DUP4 MSTORE SWAP4 DUP5 SWAP3 PUSH1 0x20 ADD SWAP1 JUMP JUMPDEST SWAP6 DUP7 SWAP2 ADD PUSH3 0xDA JUMP JUMPDEST PUSH1 0x40 DUP1 DUP3 MSTORE PUSH3 0x15D SWAP4 SWAP2 SWAP3 PUSH3 0x4B6 SWAP2 DUP5 ADD SWAP1 PUSH3 0x46D JUMP JUMPDEST SWAP2 PUSH1 0x20 DUP2 DUP5 SUB SWAP2 ADD MSTORE PUSH3 0x46D JUMP JUMPDEST SWAP1 PUSH3 0x507 PUSH3 0xA9 SWAP3 PUSH3 0x4F7 PUSH3 0x4DD PUSH1 0x40 MLOAD SWAP1 JUMP JUMPDEST PUSH4 0x4B5C4277 PUSH1 0xE0 SHL PUSH1 0x20 DUP3 ADD MSTORE SWAP4 DUP5 SWAP3 PUSH1 0x24 DUP5 ADD PUSH3 0x49C JUMP JUMPDEST PUSH1 0x20 DUP3 ADD DUP2 SUB DUP3 MSTORE SUB DUP3 PUSH3 0x61 JUMP JUMPDEST PUSH1 0x0 DUP1 SWAP2 PUSH3 0x514 DUP2 MLOAD SWAP1 JUMP JUMPDEST SWAP1 PUSH1 0x20 ADD PUSH11 0x636F6E736F6C652E6C6F67 GAS STATICCALL POP JUMP INVALID PUSH1 0x80 PUSH1 0x40 MSTORE PUSH1 0x4 CALLDATASIZE LT ISZERO PUSH2 0x18 JUMPI JUMPDEST PUSH2 0x16 PUSH1 0x0 DUP1 REVERT JUMPDEST STOP JUMPDEST PUSH1 0x0 CALLDATALOAD PUSH1 0xE0 SHR DUP1 PUSH4 0xA4136862 EQ PUSH2 0x40 JUMPI PUSH4 0xCFAE3217 SUB PUSH2 0xE JUMPI PUSH2 0x3B PUSH2 0x22D JUMP JUMPDEST PUSH2 0xE JUMP JUMPDEST POP PUSH2 0x3B PUSH2 0x18C JUMP JUMPDEST PUSH1 0x1F ADD PUSH1 0x1F NOT AND SWAP1 JUMP JUMPDEST POP PUSH4 0x4E487B71 PUSH1 0xE0 SHL PUSH1 0x0 MSTORE PUSH1 0x41 PUSH1 0x4 MSTORE PUSH1 0x24 PUSH1 0x0 REVERT JUMPDEST SWAP1 PUSH1 0x1F ADD PUSH1 0x1F NOT AND DUP2 ADD SWAP1 DUP2 LT PUSH8 0xFFFFFFFFFFFFFFFF DUP3 GT OR PUSH2 0x8C JUMPI PUSH1 0x40 MSTORE JUMP JUMPDEST PUSH2 0x94 PUSH2 0x53 JUMP JUMPDEST PUSH1 0x40 MSTORE JUMP JUMPDEST SWAP1 PUSH2 0xAD PUSH2 0xA6 PUSH1 0x40 MLOAD SWAP1 JUMP JUMPDEST SWAP3 DUP4 PUSH2 0x6A JUMP JUMPDEST JUMP JUMPDEST PUSH2 0xCE PUSH1 0x20 SWAP2 PUSH8 0xFFFFFFFFFFFFFFFF DUP2 GT PUSH2 0xD2 JUMPI PUSH1 0x1F ADD PUSH1 0x1F NOT AND SWAP1 JUMP JUMPDEST ADD SWAP1 JUMP JUMPDEST PUSH2 0x49 PUSH2 0x53 JUMP JUMPDEST SWAP1 DUP3 PUSH1 0x0 SWAP4 SWAP3 DUP3 CALLDATACOPY ADD MSTORE JUMP JUMPDEST SWAP3 SWAP2 SWAP1 PUSH2 0xAD SWAP2 PUSH2 0xFE PUSH2 0xF9 DUP4 PUSH2 0xAF JUMP JUMPDEST PUSH2 0x99 JUMP JUMPDEST SWAP5 DUP3 DUP7 MSTORE PUSH1 0x20 DUP7 ADD SWAP2 DUP4 DUP3 ADD GT ISZERO PUSH2 0xDA JUMPI PUSH2 0x118 PUSH1 0x0 DUP1 REVERT JUMPDEST PUSH2 0xDA JUMP JUMPDEST SWAP1 PUSH2 0x139 SWAP2 DUP2 PUSH1 0x1F DUP3 ADD SLT ISZERO PUSH2 0x13C JUMPI JUMPDEST PUSH1 0x20 DUP2 CALLDATALOAD SWAP2 ADD PUSH2 0xE6 JUMP JUMPDEST SWAP1 JUMP JUMPDEST PUSH2 0x144 PUSH1 0x0 DUP1 REVERT JUMPDEST PUSH2 0x12E JUMP JUMPDEST SWAP1 PUSH2 0x139 SWAP2 PUSH1 0x20 DUP2 DUP4 SUB SLT PUSH2 0x17F JUMPI JUMPDEST DUP1 CALLDATALOAD SWAP1 PUSH8 0xFFFFFFFFFFFFFFFF DUP3 GT PUSH2 0x172 JUMPI JUMPDEST ADD PUSH2 0x11D JUMP JUMPDEST PUSH2 0x17A PUSH1 0x0 DUP1 REVERT JUMPDEST PUSH2 0x16C JUMP JUMPDEST PUSH2 0x187 PUSH1 0x0 DUP1 REVERT JUMPDEST PUSH2 0x159 JUMP JUMPDEST POP CALLVALUE PUSH2 0x1AF JUMPI JUMPDEST PUSH2 0x1A6 PUSH2 0x1A1 CALLDATASIZE PUSH1 0x4 PUSH2 0x149 JUMP JUMPDEST PUSH2 0x563 JUMP JUMPDEST PUSH1 0x40 MLOAD STOP JUMPDEST SUB SWAP1 RETURN JUMPDEST PUSH2 0x1B7 PUSH1 0x0 DUP1 REVERT JUMPDEST PUSH2 0x193 JUMP JUMPDEST PUSH1 0x0 SWAP2 SUB SLT PUSH2 0x1C7 JUMPI JUMP JUMPDEST PUSH2 0xAD PUSH1 0x0 DUP1 REVERT JUMPDEST PUSH1 0x0 JUMPDEST DUP4 DUP2 LT PUSH2 0x1E2 JUMPI POP POP PUSH1 0x0 SWAP2 ADD MSTORE JUMP JUMPDEST DUP2 DUP2 ADD MLOAD DUP4 DUP3 ADD MSTORE PUSH1 0x20 ADD PUSH2 0x1D2 JUMP JUMPDEST PUSH2 0x213 PUSH2 0x49 PUSH1 0x20 SWAP4 PUSH2 0xCE SWAP4 PUSH2 0x207 DUP2 MLOAD SWAP1 JUMP JUMPDEST DUP1 DUP4 MSTORE SWAP4 DUP5 SWAP3 PUSH1 0x20 ADD SWAP1 JUMP JUMPDEST SWAP6 DUP7 SWAP2 ADD PUSH2 0x1CF JUMP JUMPDEST PUSH1 0x20 DUP1 DUP3 MSTORE PUSH2 0x139 SWAP3 SWAP2 ADD SWAP1 PUSH2 0x1F2 JUMP JUMPDEST POP CALLVALUE PUSH2 0x256 JUMPI JUMPDEST PUSH2 0x23F CALLDATASIZE PUSH1 0x4 PUSH2 0x1BC JUMP JUMPDEST PUSH2 0x1AB PUSH2 0x24A PUSH2 0x35F JUMP JUMPDEST PUSH1 0x40 MLOAD SWAP2 DUP3 SWAP2 DUP3 PUSH2 0x21C JUMP JUMPDEST PUSH2 0x25E PUSH1 0x0 DUP1 REVERT JUMPDEST PUSH2 0x234 JUMP JUMPDEST POP PUSH4 0x4E487B71 PUSH1 0xE0 SHL PUSH1 0x0 MSTORE PUSH1 0x22 PUSH1 0x4 MSTORE PUSH1 0x24 PUSH1 0x0 REVERT JUMPDEST SWAP1 PUSH1 0x1 PUSH1 0x2 DUP4 DIV SWAP3 AND DUP1 ISZERO PUSH2 0x29D JUMPI JUMPDEST PUSH1 0x20 DUP4 LT EQ PUSH2 0x295 JUMPI JUMP JUMPDEST PUSH2 0xAD PUSH2 0x263 JUMP JUMPDEST SWAP2 PUSH1 0x7F AND SWAP2 PUSH2 0x28A JUMP JUMPDEST DUP1 SLOAD PUSH1 0x0 SWAP4 SWAP3 SWAP2 PUSH2 0x2C4 PUSH2 0x2BA DUP4 PUSH2 0x27A JUMP JUMPDEST DUP1 DUP6 MSTORE SWAP4 PUSH1 0x20 ADD SWAP1 JUMP JUMPDEST SWAP2 PUSH1 0x1 DUP2 AND SWAP1 DUP2 ISZERO PUSH2 0x316 JUMPI POP PUSH1 0x1 EQ PUSH2 0x2DD JUMPI POP POP POP JUMP JUMPDEST PUSH2 0x2F0 SWAP2 SWAP3 SWAP4 SWAP5 POP PUSH1 0x0 MSTORE PUSH1 0x20 PUSH1 0x0 KECCAK256 SWAP1 JUMP JUMPDEST SWAP2 PUSH1 0x0 SWAP3 JUMPDEST DUP2 DUP5 LT PUSH2 0x302 JUMPI POP POP ADD SWAP1 JUMP JUMPDEST DUP1 SLOAD DUP5 DUP5 ADD MSTORE PUSH1 0x20 SWAP1 SWAP4 ADD SWAP3 PUSH1 0x1 ADD PUSH2 0x2F5 JUMP JUMPDEST SWAP3 SWAP5 SWAP6 POP POP POP PUSH1 0xFF NOT AND DUP3 MSTORE ISZERO ISZERO PUSH1 0x20 MUL ADD SWAP1 JUMP JUMPDEST SWAP1 PUSH2 0x139 SWAP2 PUSH2 0x2A7 JUMP JUMPDEST SWAP1 PUSH2 0xAD PUSH2 0x34F SWAP3 PUSH2 0x346 PUSH1 0x40 MLOAD SWAP1 JUMP JUMPDEST SWAP4 DUP5 DUP1 SWAP3 PUSH2 0x32B JUMP JUMPDEST SUB DUP4 PUSH2 0x6A JUMP JUMPDEST PUSH2 0x139 SWAP1 PUSH2 0x335 JUMP JUMPDEST PUSH2 0x139 PUSH1 0x0 PUSH2 0x356 JUMP JUMPDEST SWAP1 PUSH2 0x376 PUSH2 0xF9 DUP4 PUSH2 0xAF JUMP JUMPDEST SWAP2 DUP3 MSTORE JUMP JUMPDEST PUSH2 0x385 PUSH1 0x23 PUSH2 0x369 JUMP JUMPDEST PUSH32 0x4368616E67696E67206772656574696E672066726F6D202725732720746F2027 PUSH1 0x20 DUP3 ADD MSTORE PUSH3 0x257327 PUSH1 0xE8 SHL PUSH1 0x40 DUP3 ADD MSTORE SWAP1 JUMP JUMPDEST PUSH2 0x139 PUSH2 0x37B JUMP JUMPDEST PUSH2 0x139 PUSH2 0x139 PUSH2 0x139 SWAP3 SWAP1 JUMP JUMPDEST SWAP2 SWAP1 PUSH2 0x3E0 PUSH2 0x139 PUSH2 0x3FC SWAP4 PUSH2 0x3C2 JUMP JUMPDEST SWAP1 DUP4 SLOAD SWAP2 PUSH1 0x0 NOT PUSH1 0x8 SWAP3 SWAP1 SWAP3 MUL SWAP2 DUP3 SHL SWAP2 SHL SWAP2 DUP2 NOT AND SWAP2 AND OR SWAP1 JUMP JUMPDEST SWAP1 SSTORE JUMP JUMPDEST PUSH2 0xAD SWAP2 PUSH1 0x0 SWAP2 PUSH2 0x3CF JUMP JUMPDEST DUP2 DUP2 LT PUSH2 0x417 JUMPI POP POP JUMP JUMPDEST DUP1 PUSH2 0x425 PUSH1 0x0 PUSH1 0x1 SWAP4 PUSH2 0x400 JUMP JUMPDEST ADD PUSH2 0x40C JUMP JUMPDEST SWAP2 SWAP1 PUSH1 0x1F DUP2 GT PUSH2 0x43A JUMPI POP POP POP JUMP JUMPDEST PUSH2 0x44C PUSH2 0xAD SWAP4 PUSH1 0x0 MSTORE PUSH1 0x20 PUSH1 0x0 KECCAK256 SWAP1 JUMP JUMPDEST SWAP1 PUSH1 0x20 PUSH1 0x1F DUP5 ADD DUP2 SWAP1 DIV DUP4 ADD SWAP4 LT PUSH2 0x46E JUMPI JUMPDEST PUSH1 0x20 PUSH1 0x1F SWAP1 SWAP2 ADD DIV ADD SWAP1 PUSH2 0x40C JUMP JUMPDEST SWAP1 SWAP2 POP DUP2 SWAP1 PUSH2 0x45F JUMP JUMPDEST SWAP1 PUSH2 0x481 DUP2 MLOAD SWAP1 JUMP JUMPDEST SWAP1 PUSH8 0xFFFFFFFFFFFFFFFF DUP3 GT PUSH2 0x54C JUMPI JUMPDEST PUSH2 0x4A6 DUP3 PUSH2 0x4A0 DUP6 SLOAD PUSH2 0x27A JUMP JUMPDEST DUP6 PUSH2 0x42B JUMP JUMPDEST PUSH1 0x20 SWAP1 PUSH1 0x1F DUP4 GT PUSH1 0x1 EQ PUSH2 0x4E1 JUMPI PUSH2 0x3FC SWAP3 SWAP2 PUSH1 0x0 SWAP2 DUP4 PUSH2 0x4D6 JUMPI JUMPDEST POP POP PUSH1 0x0 NOT PUSH1 0x8 DUP4 MUL SHR NOT AND SWAP1 PUSH1 0x2 MUL OR SWAP1 JUMP JUMPDEST ADD MLOAD SWAP1 POP CODESIZE DUP1 PUSH2 0x4C2 JUMP JUMPDEST PUSH1 0x1F NOT DUP4 AND SWAP2 PUSH2 0x4F6 DUP6 PUSH1 0x0 MSTORE PUSH1 0x20 PUSH1 0x0 KECCAK256 SWAP1 JUMP JUMPDEST SWAP3 PUSH1 0x0 JUMPDEST DUP2 DUP2 LT PUSH2 0x534 JUMPI POP SWAP2 PUSH1 0x2 SWAP4 SWAP2 DUP6 PUSH1 0x1 SWAP7 SWAP5 LT PUSH2 0x51B JUMPI JUMPDEST POP POP POP MUL ADD SWAP1 SSTORE JUMP JUMPDEST ADD MLOAD PUSH1 0x0 NOT PUSH1 0x8 PUSH1 0x1F DUP6 AND MUL SHR NOT AND SWAP1 SSTORE CODESIZE DUP1 DUP1 PUSH2 0x512 JUMP JUMPDEST SWAP2 SWAP4 PUSH1 0x20 PUSH1 0x1 DUP2 SWAP3 DUP8 DUP8 ADD MLOAD DUP2 SSTORE ADD SWAP6 ADD SWAP3 ADD PUSH2 0x4FA JUMP JUMPDEST PUSH2 0x554 PUSH2 0x53 JUMP JUMPDEST PUSH2 0x492 JUMP JUMPDEST SWAP1 PUSH2 0xAD SWAP2 PUSH2 0x478 JUMP JUMPDEST PUSH2 0xAD SWAP1 PUSH1 0x0 PUSH2 0x584 DUP3 PUSH2 0x575 PUSH2 0x3BA JUMP JUMPDEST PUSH2 0x57E DUP5 PUSH2 0x356 JUMP JUMPDEST SWAP1 PUSH2 0x5C4 JUMP JUMPDEST PUSH2 0x559 JUMP JUMPDEST SWAP2 PUSH2 0x5B6 SWAP1 PUSH2 0x5A8 PUSH2 0x139 SWAP6 SWAP4 PUSH1 0x60 DUP7 ADD SWAP1 DUP7 DUP3 SUB PUSH1 0x0 DUP9 ADD MSTORE PUSH2 0x1F2 JUMP JUMPDEST SWAP1 DUP5 DUP3 SUB PUSH1 0x20 DUP7 ADD MSTORE PUSH2 0x1F2 JUMP JUMPDEST SWAP2 PUSH1 0x40 DUP2 DUP5 SUB SWAP2 ADD MSTORE PUSH2 0x1F2 JUMP JUMPDEST PUSH2 0x600 SWAP1 PUSH2 0x5F1 PUSH2 0xAD SWAP5 PUSH2 0x5D8 PUSH1 0x40 MLOAD SWAP1 JUMP JUMPDEST PUSH4 0x2CED7CEF PUSH1 0xE0 SHL PUSH1 0x20 DUP3 ADD MSTORE SWAP5 DUP6 SWAP4 PUSH1 0x24 DUP6 ADD PUSH2 0x589 JUMP JUMPDEST PUSH1 0x20 DUP3 ADD DUP2 SUB DUP3 MSTORE SUB DUP3 PUSH2 0x6A JUMP JUMPDEST PUSH1 0x0 DUP1 SWAP2 PUSH2 0x60C DUP2 MLOAD SWAP1 JUMP JUMPDEST SWAP1 PUSH1 0x20 ADD PUSH11 0x636F6E736F6C652E6C6F67 GAS STATICCALL POP JUMP INVALID LOG2 PUSH5 0x6970667358 0x22 SLT KECCAK256 0xFC 0xFB DUP2 XOR PC LOG2 PUSH10 0x33DBC6AB914CA62F8378 0x5D 0x4C 0xB9 0xCC PUSH28 0xA0386F3202019B31318464736F6C6343000811003300000000000000 "},"methodIdentifiers":{"greet()":"cfae3217","setGreeting(string)":"a4136862"}}}}}