{"contracts/StudentRegistry.sol":{"StudentRegistry":{"abi":[{"anonymous":false,"inputs":[{"indexed":false,"internalType":"uint256","name":"id","type":"uint256"},{"indexed":false,"internalType":"string","name":"code","type":"string"}],"name":"CertificateIssued","type":"event"},{"anonymous":false,"inputs":[{"indexed":false,"internalType":"uint256","name":"id","type":"uint256"},{"indexed":false,"internalType":"string","name":"firstName","type":"string"},{"indexed":false,"internalType":"string","name":"lastName","type":"string"},{"indexed":false,"internalType":"string","name":"degree","type":"string"},{"indexed":false,"internalType":"string","name":"major","type":"string"},{"indexed":false,"internalType":"string","name":"year","type":"string"},{"indexed":false,"internalType":"string","name":"code","type":"string"}],"name":"StudentCreated","type":"event"},{"anonymous":false,"inputs":[{"indexed":false,"internalType":"string","name":"code","type":"string"}],"name":"StudentDeleted","type":"event"},{"anonymous":false,"inputs":[{"indexed":false,"internalType":"uint256","name":"id","type":"uint256"},{"indexed":false,"internalType":"string","name":"firstName","type":"string"},{"indexed":false,"internalType":"string","name":"lastName","type":"string"},{"indexed":false,"internalType":"string","name":"degree","type":"string"},{"indexed":false,"internalType":"string","name":"major","type":"string"},{"indexed":false,"internalType":"string","name":"year","type":"string"},{"indexed":false,"internalType":"string","name":"code","type":"string"}],"name":"StudentUpdated","type":"event"},{"inputs":[{"internalType":"uint256","name":"","type":"uint256"}],"name":"Students","outputs":[{"internalType":"string","name":"firstName","type":"string"},{"internalType":"string","name":"lastName","type":"string"},{"components":[{"internalType":"string","name":"degree","type":"string"},{"internalType":"string","name":"major","type":"string"},{"internalType":"string","name":"year","type":"string"}],"internalType":"struct StudentRegistry.Education","name":"education","type":"tuple"},{"internalType":"bool","name":"isissued","type":"bool"}],"stateMutability":"view","type":"function"},{"inputs":[{"internalType":"string","name":"_firstName","type":"string"},{"internalType":"string","name":"_lastName","type":"string"},{"internalType":"string","name":"_degree","type":"string"},{"internalType":"string","name":"_major","type":"string"},{"internalType":"string","name":"_year","type":"string"}],"name":"createStudent","outputs":[{"internalType":"uint256","name":"","type":"uint256"}],"stateMutability":"nonpayable","type":"function"},{"inputs":[{"internalType":"uint256","name":"_studentId","type":"uint256"}],"name":"deleteStudent","outputs":[],"stateMutability":"nonpayable","type":"function"},{"inputs":[],"name":"getAallStudents","outputs":[{"components":[{"internalType":"string","name":"firstName","type":"string"},{"internalType":"string","name":"lastName","type":"string"},{"components":[{"internalType":"string","name":"degree","type":"string"},{"internalType":"string","name":"major","type":"string"},{"internalType":"string","name":"year","type":"string"}],"internalType":"struct StudentRegistry.Education","name":"education","type":"tuple"},{"internalType":"bool","name":"isissued","type":"bool"}],"internalType":"struct StudentRegistry.Student[]","name":"","type":"tuple[]"}],"stateMutability":"view","type":"function"},{"inputs":[{"internalType":"uint256","name":"studentId","type":"uint256"},{"internalType":"bool","name":"isissued","type":"bool"}],"name":"isissuedcertificate","outputs":[],"stateMutability":"nonpayable","type":"function"},{"inputs":[{"internalType":"address","name":"","type":"address"}],"name":"students","outputs":[{"internalType":"string","name":"firstName","type":"string"},{"internalType":"string","name":"lastName","type":"string"},{"components":[{"internalType":"string","name":"degree","type":"string"},{"internalType":"string","name":"major","type":"string"},{"internalType":"string","name":"year","type":"string"}],"internalType":"struct StudentRegistry.Education","name":"education","type":"tuple"},{"internalType":"bool","name":"isissued","type":"bool"}],"stateMutability":"view","type":"function"},{"inputs":[{"internalType":"uint256","name":"_studentId","type":"uint256"},{"internalType":"string","name":"_firstName","type":"string"},{"internalType":"string","name":"_lastName","type":"string"},{"internalType":"string","name":"_degree","type":"string"},{"internalType":"string","name":"_major","type":"string"},{"internalType":"string","name":"_year","type":"string"}],"name":"updateStudent","outputs":[],"stateMutability":"nonpayable","type":"function"}],"evm":{"bytecode":{"linkReferences":{},"object":"60806040523461001b575b604051611648610029823961164890f35b610023600080fd5b61000a56fe60806040526004361015610018575b610016600080fd5b005b60003560e01c80630352e27c146100a457806350ca5d1a1461009b57806357c8d71d14610092578063728e2274146100895780638ef4b9d314610080578063a6c807a9146100775763b645307d0361000e5761007261095a565b61000e565b50610072610930565b5061007261085a565b5061007261077c565b506100726105b4565b506100726102d9565b50610072610243565b600080fd5b60009103126100bd57565b6100c5600080fd5b565b60005b8381106100da5750506000910152565b81810151838201526020016100ca565b601f01601f191690565b6101156100ea60209361011e93610109815190565b80835293849260200190565b958691016100c7565b0190565b80516060808452610164939160409161015391610141918501906100f4565b602085015184820360208601526100f4565b9201519060408184039101526100f4565b90565b90610164906060806101b26101a061018e60808601600089015187820360008901526100f4565b602088015186820360208801526100f4565b60408701518582036040870152610122565b9401511515910152565b9061016491610167565b906101dc6101d2835190565b8083529160200190565b90816101ee6020830284019460200190565b926000915b83831061020257505050505090565b9091929394602061022561021e838560019503875289516101bc565b9760200190565b93019301919392906101f3565b6020808252610164929101906101c6565b5034610270575b6102553660046100b2565b61026c6102606110f2565b60405191829182610232565b0390f35b610278600080fd5b61024a565b805b036100ad57565b905035906100c58261027d565b80151561027f565b905035906100c582610293565b9190610164906040848203126102cc575b6102c38185610286565b9360200161029b565b6102d4600080fd5b6102b9565b50346102f9575b6102f46102ee3660046102a8565b906110fc565b604051005b610301600080fd5b6102e0565b9061016491602081830312156102865761031e600080fd5b610286565b50634e487b7160e01b600052603260045260246000fd5b61035a600691610348815490565b84101561036357600052602060002090565b91020190600090565b61036b610323565b600052602060002090565b50634e487b7160e01b600052602260045260246000fd5b90600160028304921680156103b0575b60208310146103a857565b6100c5610376565b91607f169161039d565b805460009392916103d76103cd8361038d565b8085529360200190565b916001811690811561042957506001146103f057505050565b6104039192939450600052602060002090565b916000925b8184106104155750500190565b805484840152602090930192600101610408565b92949550505060ff1916825215156020020190565b90610164916103ba565b50634e487b7160e01b600052604160045260246000fd5b90601f01601f191681019081106001600160401b0382111761048057604052565b610488610448565b604052565b906100c56104a79261049e60405190565b9384809261043e565b038361045f565b906100c56104bb60405190565b928361045f565b61016460606104ae565b906100c561050a60026104dd6104c2565b946104ee6104ea8261048d565b8752565b6105046104fd6001830161048d565b6020880152565b0161048d565b6040840152565b90600191600092610520815490565b8210156105655761053292935061033a565b509061053d8261048d565b9161054a6001820161048d565b91610164600561055c600285016104cc565b93015460ff1690565b8380fd5b9493916100c59361059d6105ab9261058f60609560808b01908b820360008d01526100f4565b9089820360208b01526100f4565b908782036040890152610122565b94019015159052565b50346105e7575b61026c6105d16105cc366004610306565b610511565b906105de94929460405190565b94859485610569565b6105ef600080fd5b6105bb565b61011e6020916001600160401b03811161061257601f01601f191690565b6100ea610448565b90826000939282370152565b9291906100c59161063e610639836105f4565b6104ae565b948286526020860191838201111561061a57610658600080fd5b61061a565b906101649181601f82011215610679575b602081359101610626565b610681600080fd5b61066e565b909160c08284031261076f575b61069d8383610286565b926106bd8160208501356001600160401b038111610755575b850161065d565b926106dd8260408301356001600160401b038111610762575b830161065d565b926101646106ff8460608501356001600160401b03811161075557850161065d565b9361071f8160808601356001600160401b038111610748575b860161065d565b9360a0810135906001600160401b03821161073b575b0161065d565b610743600080fd5b610735565b610750600080fd5b610718565b61075d600080fd5b6106b6565b61076a600080fd5b6106d6565b610777600080fd5b610693565b503461079d575b6102f4610791366004610686565b9493909392919261125d565b6107a5600080fd5b610783565b919060a08382031261084d575b6107d28184356001600160401b03811161075557850161065d565b926107f18260208301356001600160401b03811161076257830161065d565b926101646108138460408501356001600160401b03811161075557850161065d565b936108328160608601356001600160401b03811161074857860161065d565b936080810135906001600160401b03821161073b570161065d565b610855600080fd5b6107b7565b503461088b575b61026c61087b6108723660046107aa565b93929092610e81565b6040519182918290815260200190565b610893600080fd5b610861565b6001600160a01b031690565b6001600160a01b03811661027f565b905035906100c5826108a4565b9061016491602081830312156108b3576108d8600080fd5b6108b3565b61016490610898906001600160a01b031682565b610164906108dd565b610164906108f1565b9061090d906108fa565b600052602052604060002090565b610926906000610903565b9061053d8261048d565b503461094d575b61026c6105d16109483660046108c0565b61091b565b610955600080fd5b610937565b5034610974575b6102f461096f366004610306565b6115a7565b61097c600080fd5b610961565b6101646101646101649290565b1561099557565b60405162461bcd60e51b815260206004820152601a60248201527f4669727374206e616d652063616e6e6f7420626520656d7074790000000000006044820152606490fd5b156109e157565b60405162461bcd60e51b815260206004820152601960248201527f4c617374206e616d652063616e6e6f7420626520656d707479000000000000006044820152606490fd5b15610a2d57565b60405162461bcd60e51b81526020600482015260166024820152754465677265652063616e6e6f7420626520656d70747960501b6044820152606490fd5b15610a7257565b60405162461bcd60e51b81526020600482015260156024820152744d616a6f722063616e6e6f7420626520656d70747960581b6044820152606490fd5b15610ab657565b60405162461bcd60e51b8152602060048201526014602482015273796165722063616e6e6f7420626520656d70747960601b6044820152606490fd5b61016460806104ae565b50634e487b7160e01b600052600060045260246000fd5b9160001960089290920291821b911b5b9181191691161790565b9190610b3e610164610b4693610981565b908354610b13565b9055565b6100c591600091610b2d565b818110610b61575050565b80610b6f6000600193610b4a565b01610b56565b9190601f8111610b8457505050565b610b966100c593600052602060002090565b906020601f840181900483019310610bb9575b6020601f909101045b0190610b56565b9091508190610ba9565b600019600883021c1916906002021790565b90610bde815190565b906001600160401b038211610c9b575b610c0282610bfc855461038d565b85610b75565b602090601f8311600114610c3057610b46929160009183610c25575b5050610bc3565b015190503880610c1e565b601f19831691610c4585600052602060002090565b9260005b818110610c8357509160029391856001969410610c6a575b50505002019055565b01516000196008601f8516021c19169055388080610c61565b91936020600181928787015181550195019201610c49565b610ca3610448565b610bee565b906100c591610bd5565b90610cd0604060026100c594610cd660008201610cd0600088015190565b90610ca8565b610ce860018201610cd0602088015190565b0192015190565b906100c591610cb2565b9060ff90610b23565b90610d12610164610b4692151590565b8254610cf9565b90610d6a606060056100c594610d3760008201610cd0600088015190565b610d4960018201610cd0602088015190565b610d6160028201610d5b604088015190565b90610cef565b01920151151590565b90610d02565b6100c5929115610d1957610d82610afc565b610d19565b90610daa6100c592805490600160401b821015610db0575b60018201815561033a565b90610d70565b610db8610448565b610d9f565b50634e487b7160e01b600052601160045260246000fd5b91908203918211610de157565b6100c5610dbd565b9490610e5694610e2c6101649895610e1e89610e4897610e11610e3a97600060e08501940152565b8b820360208d01526100f4565b9089820360408b01526100f4565b9087820360608901526100f4565b9085820360808701526100f4565b9083820360a08501526100f4565b9060c0818303910152600f81526e414354494f4e5f434f4e4649524d4560881b602082015260400190565b9091610fed61016495610e92600090565b508351610e9e565b5190565b95610ebb600097610eb5610eb18a610981565b9190565b1161098e565b610ed8610ec6875190565b610ed2610eb18a610981565b116109da565b610ef5610ee3855190565b610eef610eb18a610981565b11610a26565b610f12610f00825190565b610f0c610eb18a610981565b11610a6b565b610f2f610f1d835190565b610f29610eb18a610981565b11610aaf565b610f8c610f3a6104c2565b97610f4586828b0152565b610f508360208b0152565b610f5b8460408b0152565b610f83610f66610af2565b99610f7189848d0152565b610f7c8a60208d0152565b60408b0152565b15156060890152565b610f9e600197610f998990565b610d87565b610fb8610fa9885490565b610fb289610981565b90610dd4565b937fb3ba2cff02b32eeb145a4310f642027c74c7037f3f86732ad86b47ee1fdd8d2a96610fe460405190565b96879687610de9565b0390a1610fb2610ffb825490565b91610981565b602080916001600160401b03811161101857020190565b611020610448565b020190565b9061103261063983611001565b918252565b906100c56110826005611048610af2565b946110556104ea8261048d565b6110646104fd6001830161048d565b61107a611073600283016104cc565b6040880152565b015460ff1690565b15156060840152565b61016490611037565b9061109d825490565b6110a681611025565b926110ba6020850191600052602060002090565b6000915b8383106110cb5750505050565b600660206001926110db8561108b565b8152019201920191906110be565b61016490611094565b61016460016110e9565b9061111b90600561111561111185600161033a565b5090565b01610d02565b61117d7f82e047af96f6b7e5a52ea238aee0ca4188211301535ddf1fe126e140df6421b49161114960405190565b91829182908152604060208201819052600f908201526e414354494f4e5f434f4e4649524d4560881b606082015260800190565b0390a1565b1561118957565b60405162461bcd60e51b815260206004820152601960248201527f46697273746e616d652063616e6e6f7420626520656d707479000000000000006044820152606490fd5b156111d557565b60405162461bcd60e51b815260206004820152601860248201527f4c6173746e616d652063616e6e6f7420626520656d70747900000000000000006044820152606490fd5b1561122157565b60405162461bcd60e51b8152602060048201526014602482015273796561722063616e6e6f7420626520656d70747960601b6044820152606490fd5b929361117d9295919461134a611273610e9a8890565b61128b600091611285610eb184610981565b11611182565b6112a86112968a5190565b6112a2610eb184610981565b116111ce565b6112bf6112b3845190565b610eef610eb184610981565b6112d66112ca855190565b610f0c610eb184610981565b6112f36112e1865190565b6112ed610eb184610981565b1161121a565b60026112fd6104c2565b916113088582850152565b611313866020850152565b61131e876040850152565b6113448b600161133d8d6113356111118f8561033a565b958601610ca8565b8301610ca8565b01610cef565b7f7805d5a30b55d3f171bac6edbc08f1ec7ff173b3a037a9835b57f9ea38d01c6d96610fe460405190565b9061138890600019906020036008021c90565b8154169055565b906000916113ad6113a582600052602060002090565b928354610bc3565b905555565b919290602082101561140a57601f84116001146113d457610b46929350610bc3565b50906114056100c59360016113fc6113f185600052602060002090565b92601f602091010490565b82019101610b56565b61138f565b506114438293611421600194600052602060002090565b610bb26020601f860104820192601f86168061144b575b50601f602091010490565b600202179055565b61145790888603611375565b38611438565b929091602090600160401b83116114b2575b10156114a657602081101561148757610b4691610bc3565b60019160ff191661149d84600052602060002090565b55600202019055565b60019150600202019055565b6114ba610448565b61146f565b9081546114cb8161038d565b908183116114f4575b8183106114e2575b50505050565b6114eb936113b2565b388080806114dc565b6115008383838761145d565b6114d4565b60006100c5916114bf565b6100c5911561150557611521610afc565b611505565b600060026100c59261153a83808301611510565b6115478360018301611510565b01611510565b6100c591156115265761155e610afc565b611526565b6000906005906115738382611510565b6115808360018301611510565b61158d836002830161154d565b0155565b6100c59115611563576115a2610afc565b611563565b6115b56115bb91600161033a565b90611591565b7fa6fb241657c3c18fc80b9ead1a3ff49713b698afdf880800d2fc42f10098cd536115e560405190565b6020808252600f908201526e414354494f4e5f434f4e4649524d4560881b6040820152806060810161117d56fea2646970667358221220454c0f7f65f85214645786713ad04e743b97bc58cc080dbd20d6456ab258983064736f6c63430008110033","opcodes":"PUSH1 0x80 PUSH1 0x40 MSTORE CALLVALUE PUSH2 0x1B JUMPI JUMPDEST PUSH1 0x40 MLOAD PUSH2 0x1648 PUSH2 0x29 DUP3 CODECOPY PUSH2 0x1648 SWAP1 RETURN JUMPDEST PUSH2 0x23 PUSH1 0x0 DUP1 REVERT JUMPDEST PUSH2 0xA JUMP INVALID PUSH1 0x80 PUSH1 0x40 MSTORE PUSH1 0x4 CALLDATASIZE LT ISZERO PUSH2 0x18 JUMPI JUMPDEST PUSH2 0x16 PUSH1 0x0 DUP1 REVERT JUMPDEST STOP JUMPDEST PUSH1 0x0 CALLDATALOAD PUSH1 0xE0 SHR DUP1 PUSH4 0x352E27C EQ PUSH2 0xA4 JUMPI DUP1 PUSH4 0x50CA5D1A EQ PUSH2 0x9B JUMPI DUP1 PUSH4 0x57C8D71D EQ PUSH2 0x92 JUMPI DUP1 PUSH4 0x728E2274 EQ PUSH2 0x89 JUMPI DUP1 PUSH4 0x8EF4B9D3 EQ PUSH2 0x80 JUMPI DUP1 PUSH4 0xA6C807A9 EQ PUSH2 0x77 JUMPI PUSH4 0xB645307D SUB PUSH2 0xE JUMPI PUSH2 0x72 PUSH2 0x95A JUMP JUMPDEST PUSH2 0xE JUMP JUMPDEST POP PUSH2 0x72 PUSH2 0x930 JUMP JUMPDEST POP PUSH2 0x72 PUSH2 0x85A JUMP JUMPDEST POP PUSH2 0x72 PUSH2 0x77C JUMP JUMPDEST POP PUSH2 0x72 PUSH2 0x5B4 JUMP JUMPDEST POP PUSH2 0x72 PUSH2 0x2D9 JUMP JUMPDEST POP PUSH2 0x72 PUSH2 0x243 JUMP JUMPDEST PUSH1 0x0 DUP1 REVERT JUMPDEST PUSH1 0x0 SWAP2 SUB SLT PUSH2 0xBD JUMPI JUMP JUMPDEST PUSH2 0xC5 PUSH1 0x0 DUP1 REVERT JUMPDEST JUMP JUMPDEST PUSH1 0x0 JUMPDEST DUP4 DUP2 LT PUSH2 0xDA JUMPI POP POP PUSH1 0x0 SWAP2 ADD MSTORE JUMP JUMPDEST DUP2 DUP2 ADD MLOAD DUP4 DUP3 ADD MSTORE PUSH1 0x20 ADD PUSH2 0xCA JUMP JUMPDEST PUSH1 0x1F ADD PUSH1 0x1F NOT AND SWAP1 JUMP JUMPDEST PUSH2 0x115 PUSH2 0xEA PUSH1 0x20 SWAP4 PUSH2 0x11E SWAP4 PUSH2 0x109 DUP2 MLOAD SWAP1 JUMP JUMPDEST DUP1 DUP4 MSTORE SWAP4 DUP5 SWAP3 PUSH1 0x20 ADD SWAP1 JUMP JUMPDEST SWAP6 DUP7 SWAP2 ADD PUSH2 0xC7 JUMP JUMPDEST ADD SWAP1 JUMP JUMPDEST DUP1 MLOAD PUSH1 0x60 DUP1 DUP5 MSTORE PUSH2 0x164 SWAP4 SWAP2 PUSH1 0x40 SWAP2 PUSH2 0x153 SWAP2 PUSH2 0x141 SWAP2 DUP6 ADD SWAP1 PUSH2 0xF4 JUMP JUMPDEST PUSH1 0x20 DUP6 ADD MLOAD DUP5 DUP3 SUB PUSH1 0x20 DUP7 ADD MSTORE PUSH2 0xF4 JUMP JUMPDEST SWAP3 ADD MLOAD SWAP1 PUSH1 0x40 DUP2 DUP5 SUB SWAP2 ADD MSTORE PUSH2 0xF4 JUMP JUMPDEST SWAP1 JUMP JUMPDEST SWAP1 PUSH2 0x164 SWAP1 PUSH1 0x60 DUP1 PUSH2 0x1B2 PUSH2 0x1A0 PUSH2 0x18E PUSH1 0x80 DUP7 ADD PUSH1 0x0 DUP10 ADD MLOAD DUP8 DUP3 SUB PUSH1 0x0 DUP10 ADD MSTORE PUSH2 0xF4 JUMP JUMPDEST PUSH1 0x20 DUP9 ADD MLOAD DUP7 DUP3 SUB PUSH1 0x20 DUP9 ADD MSTORE PUSH2 0xF4 JUMP JUMPDEST PUSH1 0x40 DUP8 ADD MLOAD DUP6 DUP3 SUB PUSH1 0x40 DUP8 ADD MSTORE PUSH2 0x122 JUMP JUMPDEST SWAP5 ADD MLOAD ISZERO ISZERO SWAP2 ADD MSTORE JUMP JUMPDEST SWAP1 PUSH2 0x164 SWAP2 PUSH2 0x167 JUMP JUMPDEST SWAP1 PUSH2 0x1DC PUSH2 0x1D2 DUP4 MLOAD SWAP1 JUMP JUMPDEST DUP1 DUP4 MSTORE SWAP2 PUSH1 0x20 ADD SWAP1 JUMP JUMPDEST SWAP1 DUP2 PUSH2 0x1EE PUSH1 0x20 DUP4 MUL DUP5 ADD SWAP5 PUSH1 0x20 ADD SWAP1 JUMP JUMPDEST SWAP3 PUSH1 0x0 SWAP2 JUMPDEST DUP4 DUP4 LT PUSH2 0x202 JUMPI POP POP POP POP POP SWAP1 JUMP JUMPDEST SWAP1 SWAP2 SWAP3 SWAP4 SWAP5 PUSH1 0x20 PUSH2 0x225 PUSH2 0x21E DUP4 DUP6 PUSH1 0x1 SWAP6 SUB DUP8 MSTORE DUP10 MLOAD PUSH2 0x1BC JUMP JUMPDEST SWAP8 PUSH1 0x20 ADD SWAP1 JUMP JUMPDEST SWAP4 ADD SWAP4 ADD SWAP2 SWAP4 SWAP3 SWAP1 PUSH2 0x1F3 JUMP JUMPDEST PUSH1 0x20 DUP1 DUP3 MSTORE PUSH2 0x164 SWAP3 SWAP2 ADD SWAP1 PUSH2 0x1C6 JUMP JUMPDEST POP CALLVALUE PUSH2 0x270 JUMPI JUMPDEST PUSH2 0x255 CALLDATASIZE PUSH1 0x4 PUSH2 0xB2 JUMP JUMPDEST PUSH2 0x26C PUSH2 0x260 PUSH2 0x10F2 JUMP JUMPDEST PUSH1 0x40 MLOAD SWAP2 DUP3 SWAP2 DUP3 PUSH2 0x232 JUMP JUMPDEST SUB SWAP1 RETURN JUMPDEST PUSH2 0x278 PUSH1 0x0 DUP1 REVERT JUMPDEST PUSH2 0x24A JUMP JUMPDEST DUP1 JUMPDEST SUB PUSH2 0xAD JUMPI JUMP JUMPDEST SWAP1 POP CALLDATALOAD SWAP1 PUSH2 0xC5 DUP3 PUSH2 0x27D JUMP JUMPDEST DUP1 ISZERO ISZERO PUSH2 0x27F JUMP JUMPDEST SWAP1 POP CALLDATALOAD SWAP1 PUSH2 0xC5 DUP3 PUSH2 0x293 JUMP JUMPDEST SWAP2 SWAP1 PUSH2 0x164 SWAP1 PUSH1 0x40 DUP5 DUP3 SUB SLT PUSH2 0x2CC JUMPI JUMPDEST PUSH2 0x2C3 DUP2 DUP6 PUSH2 0x286 JUMP JUMPDEST SWAP4 PUSH1 0x20 ADD PUSH2 0x29B JUMP JUMPDEST PUSH2 0x2D4 PUSH1 0x0 DUP1 REVERT JUMPDEST PUSH2 0x2B9 JUMP JUMPDEST POP CALLVALUE PUSH2 0x2F9 JUMPI JUMPDEST PUSH2 0x2F4 PUSH2 0x2EE CALLDATASIZE PUSH1 0x4 PUSH2 0x2A8 JUMP JUMPDEST SWAP1 PUSH2 0x10FC JUMP JUMPDEST PUSH1 0x40 MLOAD STOP JUMPDEST PUSH2 0x301 PUSH1 0x0 DUP1 REVERT JUMPDEST PUSH2 0x2E0 JUMP JUMPDEST SWAP1 PUSH2 0x164 SWAP2 PUSH1 0x20 DUP2 DUP4 SUB SLT ISZERO PUSH2 0x286 JUMPI PUSH2 0x31E PUSH1 0x0 DUP1 REVERT JUMPDEST PUSH2 0x286 JUMP JUMPDEST POP PUSH4 0x4E487B71 PUSH1 0xE0 SHL PUSH1 0x0 MSTORE PUSH1 0x32 PUSH1 0x4 MSTORE PUSH1 0x24 PUSH1 0x0 REVERT JUMPDEST PUSH2 0x35A PUSH1 0x6 SWAP2 PUSH2 0x348 DUP2 SLOAD SWAP1 JUMP JUMPDEST DUP5 LT ISZERO PUSH2 0x363 JUMPI PUSH1 0x0 MSTORE PUSH1 0x20 PUSH1 0x0 KECCAK256 SWAP1 JUMP JUMPDEST SWAP2 MUL ADD SWAP1 PUSH1 0x0 SWAP1 JUMP JUMPDEST PUSH2 0x36B PUSH2 0x323 JUMP JUMPDEST PUSH1 0x0 MSTORE PUSH1 0x20 PUSH1 0x0 KECCAK256 SWAP1 JUMP JUMPDEST POP PUSH4 0x4E487B71 PUSH1 0xE0 SHL PUSH1 0x0 MSTORE PUSH1 0x22 PUSH1 0x4 MSTORE PUSH1 0x24 PUSH1 0x0 REVERT JUMPDEST SWAP1 PUSH1 0x1 PUSH1 0x2 DUP4 DIV SWAP3 AND DUP1 ISZERO PUSH2 0x3B0 JUMPI JUMPDEST PUSH1 0x20 DUP4 LT EQ PUSH2 0x3A8 JUMPI JUMP JUMPDEST PUSH2 0xC5 PUSH2 0x376 JUMP JUMPDEST SWAP2 PUSH1 0x7F AND SWAP2 PUSH2 0x39D JUMP JUMPDEST DUP1 SLOAD PUSH1 0x0 SWAP4 SWAP3 SWAP2 PUSH2 0x3D7 PUSH2 0x3CD DUP4 PUSH2 0x38D JUMP JUMPDEST DUP1 DUP6 MSTORE SWAP4 PUSH1 0x20 ADD SWAP1 JUMP JUMPDEST SWAP2 PUSH1 0x1 DUP2 AND SWAP1 DUP2 ISZERO PUSH2 0x429 JUMPI POP PUSH1 0x1 EQ PUSH2 0x3F0 JUMPI POP POP POP JUMP JUMPDEST PUSH2 0x403 SWAP2 SWAP3 SWAP4 SWAP5 POP PUSH1 0x0 MSTORE PUSH1 0x20 PUSH1 0x0 KECCAK256 SWAP1 JUMP JUMPDEST SWAP2 PUSH1 0x0 SWAP3 JUMPDEST DUP2 DUP5 LT PUSH2 0x415 JUMPI POP POP ADD SWAP1 JUMP JUMPDEST DUP1 SLOAD DUP5 DUP5 ADD MSTORE PUSH1 0x20 SWAP1 SWAP4 ADD SWAP3 PUSH1 0x1 ADD PUSH2 0x408 JUMP JUMPDEST SWAP3 SWAP5 SWAP6 POP POP POP PUSH1 0xFF NOT AND DUP3 MSTORE ISZERO ISZERO PUSH1 0x20 MUL ADD SWAP1 JUMP JUMPDEST SWAP1 PUSH2 0x164 SWAP2 PUSH2 0x3BA JUMP JUMPDEST POP PUSH4 0x4E487B71 PUSH1 0xE0 SHL PUSH1 0x0 MSTORE PUSH1 0x41 PUSH1 0x4 MSTORE PUSH1 0x24 PUSH1 0x0 REVERT JUMPDEST SWAP1 PUSH1 0x1F ADD PUSH1 0x1F NOT AND DUP2 ADD SWAP1 DUP2 LT PUSH1 0x1 PUSH1 0x1 PUSH1 0x40 SHL SUB DUP3 GT OR PUSH2 0x480 JUMPI PUSH1 0x40 MSTORE JUMP JUMPDEST PUSH2 0x488 PUSH2 0x448 JUMP JUMPDEST PUSH1 0x40 MSTORE JUMP JUMPDEST SWAP1 PUSH2 0xC5 PUSH2 0x4A7 SWAP3 PUSH2 0x49E PUSH1 0x40 MLOAD SWAP1 JUMP JUMPDEST SWAP4 DUP5 DUP1 SWAP3 PUSH2 0x43E JUMP JUMPDEST SUB DUP4 PUSH2 0x45F JUMP JUMPDEST SWAP1 PUSH2 0xC5 PUSH2 0x4BB PUSH1 0x40 MLOAD SWAP1 JUMP JUMPDEST SWAP3 DUP4 PUSH2 0x45F JUMP JUMPDEST PUSH2 0x164 PUSH1 0x60 PUSH2 0x4AE JUMP JUMPDEST SWAP1 PUSH2 0xC5 PUSH2 0x50A PUSH1 0x2 PUSH2 0x4DD PUSH2 0x4C2 JUMP JUMPDEST SWAP5 PUSH2 0x4EE PUSH2 0x4EA DUP3 PUSH2 0x48D JUMP JUMPDEST DUP8 MSTORE JUMP JUMPDEST PUSH2 0x504 PUSH2 0x4FD PUSH1 0x1 DUP4 ADD PUSH2 0x48D JUMP JUMPDEST PUSH1 0x20 DUP9 ADD MSTORE JUMP JUMPDEST ADD PUSH2 0x48D JUMP JUMPDEST PUSH1 0x40 DUP5 ADD MSTORE JUMP JUMPDEST SWAP1 PUSH1 0x1 SWAP2 PUSH1 0x0 SWAP3 PUSH2 0x520 DUP2 SLOAD SWAP1 JUMP JUMPDEST DUP3 LT ISZERO PUSH2 0x565 JUMPI PUSH2 0x532 SWAP3 SWAP4 POP PUSH2 0x33A JUMP JUMPDEST POP SWAP1 PUSH2 0x53D DUP3 PUSH2 0x48D JUMP JUMPDEST SWAP2 PUSH2 0x54A PUSH1 0x1 DUP3 ADD PUSH2 0x48D JUMP JUMPDEST SWAP2 PUSH2 0x164 PUSH1 0x5 PUSH2 0x55C PUSH1 0x2 DUP6 ADD PUSH2 0x4CC JUMP JUMPDEST SWAP4 ADD SLOAD PUSH1 0xFF AND SWAP1 JUMP JUMPDEST DUP4 DUP1 REVERT JUMPDEST SWAP5 SWAP4 SWAP2 PUSH2 0xC5 SWAP4 PUSH2 0x59D PUSH2 0x5AB SWAP3 PUSH2 0x58F PUSH1 0x60 SWAP6 PUSH1 0x80 DUP12 ADD SWAP1 DUP12 DUP3 SUB PUSH1 0x0 DUP14 ADD MSTORE PUSH2 0xF4 JUMP JUMPDEST SWAP1 DUP10 DUP3 SUB PUSH1 0x20 DUP12 ADD MSTORE PUSH2 0xF4 JUMP JUMPDEST SWAP1 DUP8 DUP3 SUB PUSH1 0x40 DUP10 ADD MSTORE PUSH2 0x122 JUMP JUMPDEST SWAP5 ADD SWAP1 ISZERO ISZERO SWAP1 MSTORE JUMP JUMPDEST POP CALLVALUE PUSH2 0x5E7 JUMPI JUMPDEST PUSH2 0x26C PUSH2 0x5D1 PUSH2 0x5CC CALLDATASIZE PUSH1 0x4 PUSH2 0x306 JUMP JUMPDEST PUSH2 0x511 JUMP JUMPDEST SWAP1 PUSH2 0x5DE SWAP5 SWAP3 SWAP5 PUSH1 0x40 MLOAD SWAP1 JUMP JUMPDEST SWAP5 DUP6 SWAP5 DUP6 PUSH2 0x569 JUMP JUMPDEST PUSH2 0x5EF PUSH1 0x0 DUP1 REVERT JUMPDEST PUSH2 0x5BB JUMP JUMPDEST PUSH2 0x11E PUSH1 0x20 SWAP2 PUSH1 0x1 PUSH1 0x1 PUSH1 0x40 SHL SUB DUP2 GT PUSH2 0x612 JUMPI PUSH1 0x1F ADD PUSH1 0x1F NOT AND SWAP1 JUMP JUMPDEST PUSH2 0xEA PUSH2 0x448 JUMP JUMPDEST SWAP1 DUP3 PUSH1 0x0 SWAP4 SWAP3 DUP3 CALLDATACOPY ADD MSTORE JUMP JUMPDEST SWAP3 SWAP2 SWAP1 PUSH2 0xC5 SWAP2 PUSH2 0x63E PUSH2 0x639 DUP4 PUSH2 0x5F4 JUMP JUMPDEST PUSH2 0x4AE JUMP JUMPDEST SWAP5 DUP3 DUP7 MSTORE PUSH1 0x20 DUP7 ADD SWAP2 DUP4 DUP3 ADD GT ISZERO PUSH2 0x61A JUMPI PUSH2 0x658 PUSH1 0x0 DUP1 REVERT JUMPDEST PUSH2 0x61A JUMP JUMPDEST SWAP1 PUSH2 0x164 SWAP2 DUP2 PUSH1 0x1F DUP3 ADD SLT ISZERO PUSH2 0x679 JUMPI JUMPDEST PUSH1 0x20 DUP2 CALLDATALOAD SWAP2 ADD PUSH2 0x626 JUMP JUMPDEST PUSH2 0x681 PUSH1 0x0 DUP1 REVERT JUMPDEST PUSH2 0x66E JUMP JUMPDEST SWAP1 SWAP2 PUSH1 0xC0 DUP3 DUP5 SUB SLT PUSH2 0x76F JUMPI JUMPDEST PUSH2 0x69D DUP4 DUP4 PUSH2 0x286 JUMP JUMPDEST SWAP3 PUSH2 0x6BD DUP2 PUSH1 0x20 DUP6 ADD CALLDATALOAD PUSH1 0x1 PUSH1 0x1 PUSH1 0x40 SHL SUB DUP2 GT PUSH2 0x755 JUMPI JUMPDEST DUP6 ADD PUSH2 0x65D JUMP JUMPDEST SWAP3 PUSH2 0x6DD DUP3 PUSH1 0x40 DUP4 ADD CALLDATALOAD PUSH1 0x1 PUSH1 0x1 PUSH1 0x40 SHL SUB DUP2 GT PUSH2 0x762 JUMPI JUMPDEST DUP4 ADD PUSH2 0x65D JUMP JUMPDEST SWAP3 PUSH2 0x164 PUSH2 0x6FF DUP5 PUSH1 0x60 DUP6 ADD CALLDATALOAD PUSH1 0x1 PUSH1 0x1 PUSH1 0x40 SHL SUB DUP2 GT PUSH2 0x755 JUMPI DUP6 ADD PUSH2 0x65D JUMP JUMPDEST SWAP4 PUSH2 0x71F DUP2 PUSH1 0x80 DUP7 ADD CALLDATALOAD PUSH1 0x1 PUSH1 0x1 PUSH1 0x40 SHL SUB DUP2 GT PUSH2 0x748 JUMPI JUMPDEST DUP7 ADD PUSH2 0x65D JUMP JUMPDEST SWAP4 PUSH1 0xA0 DUP2 ADD CALLDATALOAD SWAP1 PUSH1 0x1 PUSH1 0x1 PUSH1 0x40 SHL SUB DUP3 GT PUSH2 0x73B JUMPI JUMPDEST ADD PUSH2 0x65D JUMP JUMPDEST PUSH2 0x743 PUSH1 0x0 DUP1 REVERT JUMPDEST PUSH2 0x735 JUMP JUMPDEST PUSH2 0x750 PUSH1 0x0 DUP1 REVERT JUMPDEST PUSH2 0x718 JUMP JUMPDEST PUSH2 0x75D PUSH1 0x0 DUP1 REVERT JUMPDEST PUSH2 0x6B6 JUMP JUMPDEST PUSH2 0x76A PUSH1 0x0 DUP1 REVERT JUMPDEST PUSH2 0x6D6 JUMP JUMPDEST PUSH2 0x777 PUSH1 0x0 DUP1 REVERT JUMPDEST PUSH2 0x693 JUMP JUMPDEST POP CALLVALUE PUSH2 0x79D JUMPI JUMPDEST PUSH2 0x2F4 PUSH2 0x791 CALLDATASIZE PUSH1 0x4 PUSH2 0x686 JUMP JUMPDEST SWAP5 SWAP4 SWAP1 SWAP4 SWAP3 SWAP2 SWAP3 PUSH2 0x125D JUMP JUMPDEST PUSH2 0x7A5 PUSH1 0x0 DUP1 REVERT JUMPDEST PUSH2 0x783 JUMP JUMPDEST SWAP2 SWAP1 PUSH1 0xA0 DUP4 DUP3 SUB SLT PUSH2 0x84D JUMPI JUMPDEST PUSH2 0x7D2 DUP2 DUP5 CALLDATALOAD PUSH1 0x1 PUSH1 0x1 PUSH1 0x40 SHL SUB DUP2 GT PUSH2 0x755 JUMPI DUP6 ADD PUSH2 0x65D JUMP JUMPDEST SWAP3 PUSH2 0x7F1 DUP3 PUSH1 0x20 DUP4 ADD CALLDATALOAD PUSH1 0x1 PUSH1 0x1 PUSH1 0x40 SHL SUB DUP2 GT PUSH2 0x762 JUMPI DUP4 ADD PUSH2 0x65D JUMP JUMPDEST SWAP3 PUSH2 0x164 PUSH2 0x813 DUP5 PUSH1 0x40 DUP6 ADD CALLDATALOAD PUSH1 0x1 PUSH1 0x1 PUSH1 0x40 SHL SUB DUP2 GT PUSH2 0x755 JUMPI DUP6 ADD PUSH2 0x65D JUMP JUMPDEST SWAP4 PUSH2 0x832 DUP2 PUSH1 0x60 DUP7 ADD CALLDATALOAD PUSH1 0x1 PUSH1 0x1 PUSH1 0x40 SHL SUB DUP2 GT PUSH2 0x748 JUMPI DUP7 ADD PUSH2 0x65D JUMP JUMPDEST SWAP4 PUSH1 0x80 DUP2 ADD CALLDATALOAD SWAP1 PUSH1 0x1 PUSH1 0x1 PUSH1 0x40 SHL SUB DUP3 GT PUSH2 0x73B JUMPI ADD PUSH2 0x65D JUMP JUMPDEST PUSH2 0x855 PUSH1 0x0 DUP1 REVERT JUMPDEST PUSH2 0x7B7 JUMP JUMPDEST POP CALLVALUE PUSH2 0x88B JUMPI JUMPDEST PUSH2 0x26C PUSH2 0x87B PUSH2 0x872 CALLDATASIZE PUSH1 0x4 PUSH2 0x7AA JUMP JUMPDEST SWAP4 SWAP3 SWAP1 SWAP3 PUSH2 0xE81 JUMP JUMPDEST PUSH1 0x40 MLOAD SWAP2 DUP3 SWAP2 DUP3 SWAP1 DUP2 MSTORE PUSH1 0x20 ADD SWAP1 JUMP JUMPDEST PUSH2 0x893 PUSH1 0x0 DUP1 REVERT JUMPDEST PUSH2 0x861 JUMP JUMPDEST PUSH1 0x1 PUSH1 0x1 PUSH1 0xA0 SHL SUB AND SWAP1 JUMP JUMPDEST PUSH1 0x1 PUSH1 0x1 PUSH1 0xA0 SHL SUB DUP2 AND PUSH2 0x27F JUMP JUMPDEST SWAP1 POP CALLDATALOAD SWAP1 PUSH2 0xC5 DUP3 PUSH2 0x8A4 JUMP JUMPDEST SWAP1 PUSH2 0x164 SWAP2 PUSH1 0x20 DUP2 DUP4 SUB SLT ISZERO PUSH2 0x8B3 JUMPI PUSH2 0x8D8 PUSH1 0x0 DUP1 REVERT JUMPDEST PUSH2 0x8B3 JUMP JUMPDEST PUSH2 0x164 SWAP1 PUSH2 0x898 SWAP1 PUSH1 0x1 PUSH1 0x1 PUSH1 0xA0 SHL SUB AND DUP3 JUMP JUMPDEST PUSH2 0x164 SWAP1 PUSH2 0x8DD JUMP JUMPDEST PUSH2 0x164 SWAP1 PUSH2 0x8F1 JUMP JUMPDEST SWAP1 PUSH2 0x90D SWAP1 PUSH2 0x8FA JUMP JUMPDEST PUSH1 0x0 MSTORE PUSH1 0x20 MSTORE PUSH1 0x40 PUSH1 0x0 KECCAK256 SWAP1 JUMP JUMPDEST PUSH2 0x926 SWAP1 PUSH1 0x0 PUSH2 0x903 JUMP JUMPDEST SWAP1 PUSH2 0x53D DUP3 PUSH2 0x48D JUMP JUMPDEST POP CALLVALUE PUSH2 0x94D JUMPI JUMPDEST PUSH2 0x26C PUSH2 0x5D1 PUSH2 0x948 CALLDATASIZE PUSH1 0x4 PUSH2 0x8C0 JUMP JUMPDEST PUSH2 0x91B JUMP JUMPDEST PUSH2 0x955 PUSH1 0x0 DUP1 REVERT JUMPDEST PUSH2 0x937 JUMP JUMPDEST POP CALLVALUE PUSH2 0x974 JUMPI JUMPDEST PUSH2 0x2F4 PUSH2 0x96F CALLDATASIZE PUSH1 0x4 PUSH2 0x306 JUMP JUMPDEST PUSH2 0x15A7 JUMP JUMPDEST PUSH2 0x97C PUSH1 0x0 DUP1 REVERT JUMPDEST PUSH2 0x961 JUMP JUMPDEST PUSH2 0x164 PUSH2 0x164 PUSH2 0x164 SWAP3 SWAP1 JUMP JUMPDEST ISZERO PUSH2 0x995 JUMPI JUMP JUMPDEST PUSH1 0x40 MLOAD PUSH3 0x461BCD PUSH1 0xE5 SHL DUP2 MSTORE PUSH1 0x20 PUSH1 0x4 DUP3 ADD MSTORE PUSH1 0x1A PUSH1 0x24 DUP3 ADD MSTORE PUSH32 0x4669727374206E616D652063616E6E6F7420626520656D707479000000000000 PUSH1 0x44 DUP3 ADD MSTORE PUSH1 0x64 SWAP1 REVERT JUMPDEST ISZERO PUSH2 0x9E1 JUMPI JUMP JUMPDEST PUSH1 0x40 MLOAD PUSH3 0x461BCD PUSH1 0xE5 SHL DUP2 MSTORE PUSH1 0x20 PUSH1 0x4 DUP3 ADD MSTORE PUSH1 0x19 PUSH1 0x24 DUP3 ADD MSTORE PUSH32 0x4C617374206E616D652063616E6E6F7420626520656D70747900000000000000 PUSH1 0x44 DUP3 ADD MSTORE PUSH1 0x64 SWAP1 REVERT JUMPDEST ISZERO PUSH2 0xA2D JUMPI JUMP JUMPDEST PUSH1 0x40 MLOAD PUSH3 0x461BCD PUSH1 0xE5 SHL DUP2 MSTORE PUSH1 0x20 PUSH1 0x4 DUP3 ADD MSTORE PUSH1 0x16 PUSH1 0x24 DUP3 ADD MSTORE PUSH22 0x4465677265652063616E6E6F7420626520656D707479 PUSH1 0x50 SHL PUSH1 0x44 DUP3 ADD MSTORE PUSH1 0x64 SWAP1 REVERT JUMPDEST ISZERO PUSH2 0xA72 JUMPI JUMP JUMPDEST PUSH1 0x40 MLOAD PUSH3 0x461BCD PUSH1 0xE5 SHL DUP2 MSTORE PUSH1 0x20 PUSH1 0x4 DUP3 ADD MSTORE PUSH1 0x15 PUSH1 0x24 DUP3 ADD MSTORE PUSH21 0x4D616A6F722063616E6E6F7420626520656D707479 PUSH1 0x58 SHL PUSH1 0x44 DUP3 ADD MSTORE PUSH1 0x64 SWAP1 REVERT JUMPDEST ISZERO PUSH2 0xAB6 JUMPI JUMP JUMPDEST PUSH1 0x40 MLOAD PUSH3 0x461BCD PUSH1 0xE5 SHL DUP2 MSTORE PUSH1 0x20 PUSH1 0x4 DUP3 ADD MSTORE PUSH1 0x14 PUSH1 0x24 DUP3 ADD MSTORE PUSH20 0x796165722063616E6E6F7420626520656D707479 PUSH1 0x60 SHL PUSH1 0x44 DUP3 ADD MSTORE PUSH1 0x64 SWAP1 REVERT JUMPDEST PUSH2 0x164 PUSH1 0x80 PUSH2 0x4AE JUMP JUMPDEST POP PUSH4 0x4E487B71 PUSH1 0xE0 SHL PUSH1 0x0 MSTORE PUSH1 0x0 PUSH1 0x4 MSTORE PUSH1 0x24 PUSH1 0x0 REVERT JUMPDEST SWAP2 PUSH1 0x0 NOT PUSH1 0x8 SWAP3 SWAP1 SWAP3 MUL SWAP2 DUP3 SHL SWAP2 SHL JUMPDEST SWAP2 DUP2 NOT AND SWAP2 AND OR SWAP1 JUMP JUMPDEST SWAP2 SWAP1 PUSH2 0xB3E PUSH2 0x164 PUSH2 0xB46 SWAP4 PUSH2 0x981 JUMP JUMPDEST SWAP1 DUP4 SLOAD PUSH2 0xB13 JUMP JUMPDEST SWAP1 SSTORE JUMP JUMPDEST PUSH2 0xC5 SWAP2 PUSH1 0x0 SWAP2 PUSH2 0xB2D JUMP JUMPDEST DUP2 DUP2 LT PUSH2 0xB61 JUMPI POP POP JUMP JUMPDEST DUP1 PUSH2 0xB6F PUSH1 0x0 PUSH1 0x1 SWAP4 PUSH2 0xB4A JUMP JUMPDEST ADD PUSH2 0xB56 JUMP JUMPDEST SWAP2 SWAP1 PUSH1 0x1F DUP2 GT PUSH2 0xB84 JUMPI POP POP POP JUMP JUMPDEST PUSH2 0xB96 PUSH2 0xC5 SWAP4 PUSH1 0x0 MSTORE PUSH1 0x20 PUSH1 0x0 KECCAK256 SWAP1 JUMP JUMPDEST SWAP1 PUSH1 0x20 PUSH1 0x1F DUP5 ADD DUP2 SWAP1 DIV DUP4 ADD SWAP4 LT PUSH2 0xBB9 JUMPI JUMPDEST PUSH1 0x20 PUSH1 0x1F SWAP1 SWAP2 ADD DIV JUMPDEST ADD SWAP1 PUSH2 0xB56 JUMP JUMPDEST SWAP1 SWAP2 POP DUP2 SWAP1 PUSH2 0xBA9 JUMP JUMPDEST PUSH1 0x0 NOT PUSH1 0x8 DUP4 MUL SHR NOT AND SWAP1 PUSH1 0x2 MUL OR SWAP1 JUMP JUMPDEST SWAP1 PUSH2 0xBDE DUP2 MLOAD SWAP1 JUMP JUMPDEST SWAP1 PUSH1 0x1 PUSH1 0x1 PUSH1 0x40 SHL SUB DUP3 GT PUSH2 0xC9B JUMPI JUMPDEST PUSH2 0xC02 DUP3 PUSH2 0xBFC DUP6 SLOAD PUSH2 0x38D JUMP JUMPDEST DUP6 PUSH2 0xB75 JUMP JUMPDEST PUSH1 0x20 SWAP1 PUSH1 0x1F DUP4 GT PUSH1 0x1 EQ PUSH2 0xC30 JUMPI PUSH2 0xB46 SWAP3 SWAP2 PUSH1 0x0 SWAP2 DUP4 PUSH2 0xC25 JUMPI JUMPDEST POP POP PUSH2 0xBC3 JUMP JUMPDEST ADD MLOAD SWAP1 POP CODESIZE DUP1 PUSH2 0xC1E JUMP JUMPDEST PUSH1 0x1F NOT DUP4 AND SWAP2 PUSH2 0xC45 DUP6 PUSH1 0x0 MSTORE PUSH1 0x20 PUSH1 0x0 KECCAK256 SWAP1 JUMP JUMPDEST SWAP3 PUSH1 0x0 JUMPDEST DUP2 DUP2 LT PUSH2 0xC83 JUMPI POP SWAP2 PUSH1 0x2 SWAP4 SWAP2 DUP6 PUSH1 0x1 SWAP7 SWAP5 LT PUSH2 0xC6A JUMPI JUMPDEST POP POP POP MUL ADD SWAP1 SSTORE JUMP JUMPDEST ADD MLOAD PUSH1 0x0 NOT PUSH1 0x8 PUSH1 0x1F DUP6 AND MUL SHR NOT AND SWAP1 SSTORE CODESIZE DUP1 DUP1 PUSH2 0xC61 JUMP JUMPDEST SWAP2 SWAP4 PUSH1 0x20 PUSH1 0x1 DUP2 SWAP3 DUP8 DUP8 ADD MLOAD DUP2 SSTORE ADD SWAP6 ADD SWAP3 ADD PUSH2 0xC49 JUMP JUMPDEST PUSH2 0xCA3 PUSH2 0x448 JUMP JUMPDEST PUSH2 0xBEE JUMP JUMPDEST SWAP1 PUSH2 0xC5 SWAP2 PUSH2 0xBD5 JUMP JUMPDEST SWAP1 PUSH2 0xCD0 PUSH1 0x40 PUSH1 0x2 PUSH2 0xC5 SWAP5 PUSH2 0xCD6 PUSH1 0x0 DUP3 ADD PUSH2 0xCD0 PUSH1 0x0 DUP9 ADD MLOAD SWAP1 JUMP JUMPDEST SWAP1 PUSH2 0xCA8 JUMP JUMPDEST PUSH2 0xCE8 PUSH1 0x1 DUP3 ADD PUSH2 0xCD0 PUSH1 0x20 DUP9 ADD MLOAD SWAP1 JUMP JUMPDEST ADD SWAP3 ADD MLOAD SWAP1 JUMP JUMPDEST SWAP1 PUSH2 0xC5 SWAP2 PUSH2 0xCB2 JUMP JUMPDEST SWAP1 PUSH1 0xFF SWAP1 PUSH2 0xB23 JUMP JUMPDEST SWAP1 PUSH2 0xD12 PUSH2 0x164 PUSH2 0xB46 SWAP3 ISZERO ISZERO SWAP1 JUMP JUMPDEST DUP3 SLOAD PUSH2 0xCF9 JUMP JUMPDEST SWAP1 PUSH2 0xD6A PUSH1 0x60 PUSH1 0x5 PUSH2 0xC5 SWAP5 PUSH2 0xD37 PUSH1 0x0 DUP3 ADD PUSH2 0xCD0 PUSH1 0x0 DUP9 ADD MLOAD SWAP1 JUMP JUMPDEST PUSH2 0xD49 PUSH1 0x1 DUP3 ADD PUSH2 0xCD0 PUSH1 0x20 DUP9 ADD MLOAD SWAP1 JUMP JUMPDEST PUSH2 0xD61 PUSH1 0x2 DUP3 ADD PUSH2 0xD5B PUSH1 0x40 DUP9 ADD MLOAD SWAP1 JUMP JUMPDEST SWAP1 PUSH2 0xCEF JUMP JUMPDEST ADD SWAP3 ADD MLOAD ISZERO ISZERO SWAP1 JUMP JUMPDEST SWAP1 PUSH2 0xD02 JUMP JUMPDEST PUSH2 0xC5 SWAP3 SWAP2 ISZERO PUSH2 0xD19 JUMPI PUSH2 0xD82 PUSH2 0xAFC JUMP JUMPDEST PUSH2 0xD19 JUMP JUMPDEST SWAP1 PUSH2 0xDAA PUSH2 0xC5 SWAP3 DUP1 SLOAD SWAP1 PUSH1 0x1 PUSH1 0x40 SHL DUP3 LT ISZERO PUSH2 0xDB0 JUMPI JUMPDEST PUSH1 0x1 DUP3 ADD DUP2 SSTORE PUSH2 0x33A JUMP JUMPDEST SWAP1 PUSH2 0xD70 JUMP JUMPDEST PUSH2 0xDB8 PUSH2 0x448 JUMP JUMPDEST PUSH2 0xD9F JUMP JUMPDEST POP PUSH4 0x4E487B71 PUSH1 0xE0 SHL PUSH1 0x0 MSTORE PUSH1 0x11 PUSH1 0x4 MSTORE PUSH1 0x24 PUSH1 0x0 REVERT JUMPDEST SWAP2 SWAP1 DUP3 SUB SWAP2 DUP3 GT PUSH2 0xDE1 JUMPI JUMP JUMPDEST PUSH2 0xC5 PUSH2 0xDBD JUMP JUMPDEST SWAP5 SWAP1 PUSH2 0xE56 SWAP5 PUSH2 0xE2C PUSH2 0x164 SWAP9 SWAP6 PUSH2 0xE1E DUP10 PUSH2 0xE48 SWAP8 PUSH2 0xE11 PUSH2 0xE3A SWAP8 PUSH1 0x0 PUSH1 0xE0 DUP6 ADD SWAP5 ADD MSTORE JUMP JUMPDEST DUP12 DUP3 SUB PUSH1 0x20 DUP14 ADD MSTORE PUSH2 0xF4 JUMP JUMPDEST SWAP1 DUP10 DUP3 SUB PUSH1 0x40 DUP12 ADD MSTORE PUSH2 0xF4 JUMP JUMPDEST SWAP1 DUP8 DUP3 SUB PUSH1 0x60 DUP10 ADD MSTORE PUSH2 0xF4 JUMP JUMPDEST SWAP1 DUP6 DUP3 SUB PUSH1 0x80 DUP8 ADD MSTORE PUSH2 0xF4 JUMP JUMPDEST SWAP1 DUP4 DUP3 SUB PUSH1 0xA0 DUP6 ADD MSTORE PUSH2 0xF4 JUMP JUMPDEST SWAP1 PUSH1 0xC0 DUP2 DUP4 SUB SWAP2 ADD MSTORE PUSH1 0xF DUP2 MSTORE PUSH15 0x414354494F4E5F434F4E4649524D45 PUSH1 0x88 SHL PUSH1 0x20 DUP3 ADD MSTORE PUSH1 0x40 ADD SWAP1 JUMP JUMPDEST SWAP1 SWAP2 PUSH2 0xFED PUSH2 0x164 SWAP6 PUSH2 0xE92 PUSH1 0x0 SWAP1 JUMP JUMPDEST POP DUP4 MLOAD PUSH2 0xE9E JUMP JUMPDEST MLOAD SWAP1 JUMP JUMPDEST SWAP6 PUSH2 0xEBB PUSH1 0x0 SWAP8 PUSH2 0xEB5 PUSH2 0xEB1 DUP11 PUSH2 0x981 JUMP JUMPDEST SWAP2 SWAP1 JUMP JUMPDEST GT PUSH2 0x98E JUMP JUMPDEST PUSH2 0xED8 PUSH2 0xEC6 DUP8 MLOAD SWAP1 JUMP JUMPDEST PUSH2 0xED2 PUSH2 0xEB1 DUP11 PUSH2 0x981 JUMP JUMPDEST GT PUSH2 0x9DA JUMP JUMPDEST PUSH2 0xEF5 PUSH2 0xEE3 DUP6 MLOAD SWAP1 JUMP JUMPDEST PUSH2 0xEEF PUSH2 0xEB1 DUP11 PUSH2 0x981 JUMP JUMPDEST GT PUSH2 0xA26 JUMP JUMPDEST PUSH2 0xF12 PUSH2 0xF00 DUP3 MLOAD SWAP1 JUMP JUMPDEST PUSH2 0xF0C PUSH2 0xEB1 DUP11 PUSH2 0x981 JUMP JUMPDEST GT PUSH2 0xA6B JUMP JUMPDEST PUSH2 0xF2F PUSH2 0xF1D DUP4 MLOAD SWAP1 JUMP JUMPDEST PUSH2 0xF29 PUSH2 0xEB1 DUP11 PUSH2 0x981 JUMP JUMPDEST GT PUSH2 0xAAF JUMP JUMPDEST PUSH2 0xF8C PUSH2 0xF3A PUSH2 0x4C2 JUMP JUMPDEST SWAP8 PUSH2 0xF45 DUP7 DUP3 DUP12 ADD MSTORE JUMP JUMPDEST PUSH2 0xF50 DUP4 PUSH1 0x20 DUP12 ADD MSTORE JUMP JUMPDEST PUSH2 0xF5B DUP5 PUSH1 0x40 DUP12 ADD MSTORE JUMP JUMPDEST PUSH2 0xF83 PUSH2 0xF66 PUSH2 0xAF2 JUMP JUMPDEST SWAP10 PUSH2 0xF71 DUP10 DUP5 DUP14 ADD MSTORE JUMP JUMPDEST PUSH2 0xF7C DUP11 PUSH1 0x20 DUP14 ADD MSTORE JUMP JUMPDEST PUSH1 0x40 DUP12 ADD MSTORE JUMP JUMPDEST ISZERO ISZERO PUSH1 0x60 DUP10 ADD MSTORE JUMP JUMPDEST PUSH2 0xF9E PUSH1 0x1 SWAP8 PUSH2 0xF99 DUP10 SWAP1 JUMP JUMPDEST PUSH2 0xD87 JUMP JUMPDEST PUSH2 0xFB8 PUSH2 0xFA9 DUP9 SLOAD SWAP1 JUMP JUMPDEST PUSH2 0xFB2 DUP10 PUSH2 0x981 JUMP JUMPDEST SWAP1 PUSH2 0xDD4 JUMP JUMPDEST SWAP4 PUSH32 0xB3BA2CFF02B32EEB145A4310F642027C74C7037F3F86732AD86B47EE1FDD8D2A SWAP7 PUSH2 0xFE4 PUSH1 0x40 MLOAD SWAP1 JUMP JUMPDEST SWAP7 DUP8 SWAP7 DUP8 PUSH2 0xDE9 JUMP JUMPDEST SUB SWAP1 LOG1 PUSH2 0xFB2 PUSH2 0xFFB DUP3 SLOAD SWAP1 JUMP JUMPDEST SWAP2 PUSH2 0x981 JUMP JUMPDEST PUSH1 0x20 DUP1 SWAP2 PUSH1 0x1 PUSH1 0x1 PUSH1 0x40 SHL SUB DUP2 GT PUSH2 0x1018 JUMPI MUL ADD SWAP1 JUMP JUMPDEST PUSH2 0x1020 PUSH2 0x448 JUMP JUMPDEST MUL ADD SWAP1 JUMP JUMPDEST SWAP1 PUSH2 0x1032 PUSH2 0x639 DUP4 PUSH2 0x1001 JUMP JUMPDEST SWAP2 DUP3 MSTORE JUMP JUMPDEST SWAP1 PUSH2 0xC5 PUSH2 0x1082 PUSH1 0x5 PUSH2 0x1048 PUSH2 0xAF2 JUMP JUMPDEST SWAP5 PUSH2 0x1055 PUSH2 0x4EA DUP3 PUSH2 0x48D JUMP JUMPDEST PUSH2 0x1064 PUSH2 0x4FD PUSH1 0x1 DUP4 ADD PUSH2 0x48D JUMP JUMPDEST PUSH2 0x107A PUSH2 0x1073 PUSH1 0x2 DUP4 ADD PUSH2 0x4CC JUMP JUMPDEST PUSH1 0x40 DUP9 ADD MSTORE JUMP JUMPDEST ADD SLOAD PUSH1 0xFF AND SWAP1 JUMP JUMPDEST ISZERO ISZERO PUSH1 0x60 DUP5 ADD MSTORE JUMP JUMPDEST PUSH2 0x164 SWAP1 PUSH2 0x1037 JUMP JUMPDEST SWAP1 PUSH2 0x109D DUP3 SLOAD SWAP1 JUMP JUMPDEST PUSH2 0x10A6 DUP2 PUSH2 0x1025 JUMP JUMPDEST SWAP3 PUSH2 0x10BA PUSH1 0x20 DUP6 ADD SWAP2 PUSH1 0x0 MSTORE PUSH1 0x20 PUSH1 0x0 KECCAK256 SWAP1 JUMP JUMPDEST PUSH1 0x0 SWAP2 JUMPDEST DUP4 DUP4 LT PUSH2 0x10CB JUMPI POP POP POP POP JUMP JUMPDEST PUSH1 0x6 PUSH1 0x20 PUSH1 0x1 SWAP3 PUSH2 0x10DB DUP6 PUSH2 0x108B JUMP JUMPDEST DUP2 MSTORE ADD SWAP3 ADD SWAP3 ADD SWAP2 SWAP1 PUSH2 0x10BE JUMP JUMPDEST PUSH2 0x164 SWAP1 PUSH2 0x1094 JUMP JUMPDEST PUSH2 0x164 PUSH1 0x1 PUSH2 0x10E9 JUMP JUMPDEST SWAP1 PUSH2 0x111B SWAP1 PUSH1 0x5 PUSH2 0x1115 PUSH2 0x1111 DUP6 PUSH1 0x1 PUSH2 0x33A JUMP JUMPDEST POP SWAP1 JUMP JUMPDEST ADD PUSH2 0xD02 JUMP JUMPDEST PUSH2 0x117D PUSH32 0x82E047AF96F6B7E5A52EA238AEE0CA4188211301535DDF1FE126E140DF6421B4 SWAP2 PUSH2 0x1149 PUSH1 0x40 MLOAD SWAP1 JUMP JUMPDEST SWAP2 DUP3 SWAP2 DUP3 SWAP1 DUP2 MSTORE PUSH1 0x40 PUSH1 0x20 DUP3 ADD DUP2 SWAP1 MSTORE PUSH1 0xF SWAP1 DUP3 ADD MSTORE PUSH15 0x414354494F4E5F434F4E4649524D45 PUSH1 0x88 SHL PUSH1 0x60 DUP3 ADD MSTORE PUSH1 0x80 ADD SWAP1 JUMP JUMPDEST SUB SWAP1 LOG1 JUMP JUMPDEST ISZERO PUSH2 0x1189 JUMPI JUMP JUMPDEST PUSH1 0x40 MLOAD PUSH3 0x461BCD PUSH1 0xE5 SHL DUP2 MSTORE PUSH1 0x20 PUSH1 0x4 DUP3 ADD MSTORE PUSH1 0x19 PUSH1 0x24 DUP3 ADD MSTORE PUSH32 0x46697273746E616D652063616E6E6F7420626520656D70747900000000000000 PUSH1 0x44 DUP3 ADD MSTORE PUSH1 0x64 SWAP1 REVERT JUMPDEST ISZERO PUSH2 0x11D5 JUMPI JUMP JUMPDEST PUSH1 0x40 MLOAD PUSH3 0x461BCD PUSH1 0xE5 SHL DUP2 MSTORE PUSH1 0x20 PUSH1 0x4 DUP3 ADD MSTORE PUSH1 0x18 PUSH1 0x24 DUP3 ADD MSTORE PUSH32 0x4C6173746E616D652063616E6E6F7420626520656D7074790000000000000000 PUSH1 0x44 DUP3 ADD MSTORE PUSH1 0x64 SWAP1 REVERT JUMPDEST ISZERO PUSH2 0x1221 JUMPI JUMP JUMPDEST PUSH1 0x40 MLOAD PUSH3 0x461BCD PUSH1 0xE5 SHL DUP2 MSTORE PUSH1 0x20 PUSH1 0x4 DUP3 ADD MSTORE PUSH1 0x14 PUSH1 0x24 DUP3 ADD MSTORE PUSH20 0x796561722063616E6E6F7420626520656D707479 PUSH1 0x60 SHL PUSH1 0x44 DUP3 ADD MSTORE PUSH1 0x64 SWAP1 REVERT JUMPDEST SWAP3 SWAP4 PUSH2 0x117D SWAP3 SWAP6 SWAP2 SWAP5 PUSH2 0x134A PUSH2 0x1273 PUSH2 0xE9A DUP9 SWAP1 JUMP JUMPDEST PUSH2 0x128B PUSH1 0x0 SWAP2 PUSH2 0x1285 PUSH2 0xEB1 DUP5 PUSH2 0x981 JUMP JUMPDEST GT PUSH2 0x1182 JUMP JUMPDEST PUSH2 0x12A8 PUSH2 0x1296 DUP11 MLOAD SWAP1 JUMP JUMPDEST PUSH2 0x12A2 PUSH2 0xEB1 DUP5 PUSH2 0x981 JUMP JUMPDEST GT PUSH2 0x11CE JUMP JUMPDEST PUSH2 0x12BF PUSH2 0x12B3 DUP5 MLOAD SWAP1 JUMP JUMPDEST PUSH2 0xEEF PUSH2 0xEB1 DUP5 PUSH2 0x981 JUMP JUMPDEST PUSH2 0x12D6 PUSH2 0x12CA DUP6 MLOAD SWAP1 JUMP JUMPDEST PUSH2 0xF0C PUSH2 0xEB1 DUP5 PUSH2 0x981 JUMP JUMPDEST PUSH2 0x12F3 PUSH2 0x12E1 DUP7 MLOAD SWAP1 JUMP JUMPDEST PUSH2 0x12ED PUSH2 0xEB1 DUP5 PUSH2 0x981 JUMP JUMPDEST GT PUSH2 0x121A JUMP JUMPDEST PUSH1 0x2 PUSH2 0x12FD PUSH2 0x4C2 JUMP JUMPDEST SWAP2 PUSH2 0x1308 DUP6 DUP3 DUP6 ADD MSTORE JUMP JUMPDEST PUSH2 0x1313 DUP7 PUSH1 0x20 DUP6 ADD MSTORE JUMP JUMPDEST PUSH2 0x131E DUP8 PUSH1 0x40 DUP6 ADD MSTORE JUMP JUMPDEST PUSH2 0x1344 DUP12 PUSH1 0x1 PUSH2 0x133D DUP14 PUSH2 0x1335 PUSH2 0x1111 DUP16 DUP6 PUSH2 0x33A JUMP JUMPDEST SWAP6 DUP7 ADD PUSH2 0xCA8 JUMP JUMPDEST DUP4 ADD PUSH2 0xCA8 JUMP JUMPDEST ADD PUSH2 0xCEF JUMP JUMPDEST PUSH32 0x7805D5A30B55D3F171BAC6EDBC08F1EC7FF173B3A037A9835B57F9EA38D01C6D SWAP7 PUSH2 0xFE4 PUSH1 0x40 MLOAD SWAP1 JUMP JUMPDEST SWAP1 PUSH2 0x1388 SWAP1 PUSH1 0x0 NOT SWAP1 PUSH1 0x20 SUB PUSH1 0x8 MUL SHR SWAP1 JUMP JUMPDEST DUP2 SLOAD AND SWAP1 SSTORE JUMP JUMPDEST SWAP1 PUSH1 0x0 SWAP2 PUSH2 0x13AD PUSH2 0x13A5 DUP3 PUSH1 0x0 MSTORE PUSH1 0x20 PUSH1 0x0 KECCAK256 SWAP1 JUMP JUMPDEST SWAP3 DUP4 SLOAD PUSH2 0xBC3 JUMP JUMPDEST SWAP1 SSTORE SSTORE JUMP JUMPDEST SWAP2 SWAP3 SWAP1 PUSH1 0x20 DUP3 LT ISZERO PUSH2 0x140A JUMPI PUSH1 0x1F DUP5 GT PUSH1 0x1 EQ PUSH2 0x13D4 JUMPI PUSH2 0xB46 SWAP3 SWAP4 POP PUSH2 0xBC3 JUMP JUMPDEST POP SWAP1 PUSH2 0x1405 PUSH2 0xC5 SWAP4 PUSH1 0x1 PUSH2 0x13FC PUSH2 0x13F1 DUP6 PUSH1 0x0 MSTORE PUSH1 0x20 PUSH1 0x0 KECCAK256 SWAP1 JUMP JUMPDEST SWAP3 PUSH1 0x1F PUSH1 0x20 SWAP2 ADD DIV SWAP1 JUMP JUMPDEST DUP3 ADD SWAP2 ADD PUSH2 0xB56 JUMP JUMPDEST PUSH2 0x138F JUMP JUMPDEST POP PUSH2 0x1443 DUP3 SWAP4 PUSH2 0x1421 PUSH1 0x1 SWAP5 PUSH1 0x0 MSTORE PUSH1 0x20 PUSH1 0x0 KECCAK256 SWAP1 JUMP JUMPDEST PUSH2 0xBB2 PUSH1 0x20 PUSH1 0x1F DUP7 ADD DIV DUP3 ADD SWAP3 PUSH1 0x1F DUP7 AND DUP1 PUSH2 0x144B JUMPI JUMPDEST POP PUSH1 0x1F PUSH1 0x20 SWAP2 ADD DIV SWAP1 JUMP JUMPDEST PUSH1 0x2 MUL OR SWAP1 SSTORE JUMP JUMPDEST PUSH2 0x1457 SWAP1 DUP9 DUP7 SUB PUSH2 0x1375 JUMP JUMPDEST CODESIZE PUSH2 0x1438 JUMP JUMPDEST SWAP3 SWAP1 SWAP2 PUSH1 0x20 SWAP1 PUSH1 0x1 PUSH1 0x40 SHL DUP4 GT PUSH2 0x14B2 JUMPI JUMPDEST LT ISZERO PUSH2 0x14A6 JUMPI PUSH1 0x20 DUP2 LT ISZERO PUSH2 0x1487 JUMPI PUSH2 0xB46 SWAP2 PUSH2 0xBC3 JUMP JUMPDEST PUSH1 0x1 SWAP2 PUSH1 0xFF NOT AND PUSH2 0x149D DUP5 PUSH1 0x0 MSTORE PUSH1 0x20 PUSH1 0x0 KECCAK256 SWAP1 JUMP JUMPDEST SSTORE PUSH1 0x2 MUL ADD SWAP1 SSTORE JUMP JUMPDEST PUSH1 0x1 SWAP2 POP PUSH1 0x2 MUL ADD SWAP1 SSTORE JUMP JUMPDEST PUSH2 0x14BA PUSH2 0x448 JUMP JUMPDEST PUSH2 0x146F JUMP JUMPDEST SWAP1 DUP2 SLOAD PUSH2 0x14CB DUP2 PUSH2 0x38D JUMP JUMPDEST SWAP1 DUP2 DUP4 GT PUSH2 0x14F4 JUMPI JUMPDEST DUP2 DUP4 LT PUSH2 0x14E2 JUMPI JUMPDEST POP POP POP POP JUMP JUMPDEST PUSH2 0x14EB SWAP4 PUSH2 0x13B2 JUMP JUMPDEST CODESIZE DUP1 DUP1 DUP1 PUSH2 0x14DC JUMP JUMPDEST PUSH2 0x1500 DUP4 DUP4 DUP4 DUP8 PUSH2 0x145D JUMP JUMPDEST PUSH2 0x14D4 JUMP JUMPDEST PUSH1 0x0 PUSH2 0xC5 SWAP2 PUSH2 0x14BF JUMP JUMPDEST PUSH2 0xC5 SWAP2 ISZERO PUSH2 0x1505 JUMPI PUSH2 0x1521 PUSH2 0xAFC JUMP JUMPDEST PUSH2 0x1505 JUMP JUMPDEST PUSH1 0x0 PUSH1 0x2 PUSH2 0xC5 SWAP3 PUSH2 0x153A DUP4 DUP1 DUP4 ADD PUSH2 0x1510 JUMP JUMPDEST PUSH2 0x1547 DUP4 PUSH1 0x1 DUP4 ADD PUSH2 0x1510 JUMP JUMPDEST ADD PUSH2 0x1510 JUMP JUMPDEST PUSH2 0xC5 SWAP2 ISZERO PUSH2 0x1526 JUMPI PUSH2 0x155E PUSH2 0xAFC JUMP JUMPDEST PUSH2 0x1526 JUMP JUMPDEST PUSH1 0x0 SWAP1 PUSH1 0x5 SWAP1 PUSH2 0x1573 DUP4 DUP3 PUSH2 0x1510 JUMP JUMPDEST PUSH2 0x1580 DUP4 PUSH1 0x1 DUP4 ADD PUSH2 0x1510 JUMP JUMPDEST PUSH2 0x158D DUP4 PUSH1 0x2 DUP4 ADD PUSH2 0x154D JUMP JUMPDEST ADD SSTORE JUMP JUMPDEST PUSH2 0xC5 SWAP2 ISZERO PUSH2 0x1563 JUMPI PUSH2 0x15A2 PUSH2 0xAFC JUMP JUMPDEST PUSH2 0x1563 JUMP JUMPDEST PUSH2 0x15B5 PUSH2 0x15BB SWAP2 PUSH1 0x1 PUSH2 0x33A JUMP JUMPDEST SWAP1 PUSH2 0x1591 JUMP JUMPDEST PUSH32 0xA6FB241657C3C18FC80B9EAD1A3FF49713B698AFDF880800D2FC42F10098CD53 PUSH2 0x15E5 PUSH1 0x40 MLOAD SWAP1 JUMP JUMPDEST PUSH1 0x20 DUP1 DUP3 MSTORE PUSH1 0xF SWAP1 DUP3 ADD MSTORE PUSH15 0x414354494F4E5F434F4E4649524D45 PUSH1 0x88 SHL PUSH1 0x40 DUP3 ADD MSTORE DUP1 PUSH1 0x60 DUP2 ADD PUSH2 0x117D JUMP INVALID LOG2 PUSH5 0x6970667358 0x22 SLT KECCAK256 GASLIMIT 0x4C 0xF PUSH32 0x65F85214645786713AD04E743B97BC58CC080DBD20D6456AB258983064736F6C PUSH4 0x43000811 STOP CALLER "},"methodIdentifiers":{"Students(uint256)":"57c8d71d","createStudent(string,string,string,string,string)":"8ef4b9d3","deleteStudent(uint256)":"b645307d","getAallStudents()":"0352e27c","isissuedcertificate(uint256,bool)":"50ca5d1a","students(address)":"a6c807a9","updateStudent(uint256,string,string,string,string,string)":"728e2274"}}}}}