{"contracts/NFT.sol":{"CERTNFT":{"abi":[{"inputs":[{"internalType":"address[]","name":"_owners","type":"address[]"},{"internalType":"string","name":"_name","type":"string"},{"internalType":"string","name":"_symbol","type":"string"}],"stateMutability":"nonpayable","type":"constructor"},{"anonymous":false,"inputs":[{"indexed":true,"internalType":"address","name":"owner","type":"address"},{"indexed":true,"internalType":"address","name":"approved","type":"address"},{"indexed":true,"internalType":"uint256","name":"tokenId","type":"uint256"}],"name":"Approval","type":"event"},{"anonymous":false,"inputs":[{"indexed":true,"internalType":"address","name":"owner","type":"address"},{"indexed":true,"internalType":"address","name":"operator","type":"address"},{"indexed":false,"internalType":"bool","name":"approved","type":"bool"}],"name":"ApprovalForAll","type":"event"},{"anonymous":false,"inputs":[{"indexed":false,"internalType":"string","name":"code","type":"string"}],"name":"Owner","type":"event"},{"anonymous":false,"inputs":[{"indexed":true,"internalType":"address","name":"from","type":"address"},{"indexed":true,"internalType":"address","name":"to","type":"address"},{"indexed":true,"internalType":"uint256","name":"tokenId","type":"uint256"}],"name":"Transfer","type":"event"},{"anonymous":false,"inputs":[{"indexed":false,"internalType":"address","name":"owner","type":"address"},{"indexed":false,"internalType":"uint256","name":"tokenid","type":"uint256"},{"indexed":false,"internalType":"string","name":"url","type":"string"},{"indexed":false,"internalType":"string","name":"code","type":"string"}],"name":"mintnft","type":"event"},{"inputs":[{"internalType":"address","name":"to","type":"address"},{"internalType":"uint256","name":"tokenId","type":"uint256"}],"name":"approve","outputs":[],"stateMutability":"nonpayable","type":"function"},{"inputs":[{"internalType":"address","name":"owner","type":"address"}],"name":"balanceOf","outputs":[{"internalType":"uint256","name":"","type":"uint256"}],"stateMutability":"view","type":"function"},{"inputs":[],"name":"getAllTokenIdsAndUrls","outputs":[{"internalType":"uint256[]","name":"","type":"uint256[]"},{"internalType":"string[]","name":"","type":"string[]"}],"stateMutability":"view","type":"function"},{"inputs":[{"internalType":"uint256","name":"tokenId","type":"uint256"}],"name":"getApproved","outputs":[{"internalType":"address","name":"","type":"address"}],"stateMutability":"view","type":"function"},{"inputs":[{"internalType":"address","name":"owner","type":"address"},{"internalType":"address","name":"operator","type":"address"}],"name":"isApprovedForAll","outputs":[{"internalType":"bool","name":"","type":"bool"}],"stateMutability":"view","type":"function"},{"inputs":[{"internalType":"string","name":"tokenURI","type":"string"}],"name":"mint","outputs":[{"internalType":"uint256","name":"","type":"uint256"}],"stateMutability":"nonpayable","type":"function"},{"inputs":[],"name":"name","outputs":[{"internalType":"string","name":"","type":"string"}],"stateMutability":"view","type":"function"},{"inputs":[{"internalType":"uint256","name":"tokenId","type":"uint256"}],"name":"ownerOf","outputs":[{"internalType":"address","name":"","type":"address"}],"stateMutability":"view","type":"function"},{"inputs":[{"internalType":"address","name":"from","type":"address"},{"internalType":"address","name":"to","type":"address"},{"internalType":"uint256","name":"tokenId","type":"uint256"}],"name":"safeTransferFrom","outputs":[],"stateMutability":"nonpayable","type":"function"},{"inputs":[{"internalType":"address","name":"from","type":"address"},{"internalType":"address","name":"to","type":"address"},{"internalType":"uint256","name":"tokenId","type":"uint256"},{"internalType":"bytes","name":"data","type":"bytes"}],"name":"safeTransferFrom","outputs":[],"stateMutability":"nonpayable","type":"function"},{"inputs":[{"internalType":"address","name":"operator","type":"address"},{"internalType":"bool","name":"approved","type":"bool"}],"name":"setApprovalForAll","outputs":[],"stateMutability":"nonpayable","type":"function"},{"inputs":[{"internalType":"bytes4","name":"interfaceId","type":"bytes4"}],"name":"supportsInterface","outputs":[{"internalType":"bool","name":"","type":"bool"}],"stateMutability":"view","type":"function"},{"inputs":[],"name":"symbol","outputs":[{"internalType":"string","name":"","type":"string"}],"stateMutability":"view","type":"function"},{"inputs":[{"internalType":"uint256","name":"tokenId","type":"uint256"}],"name":"tokenURI","outputs":[{"internalType":"string","name":"","type":"string"}],"stateMutability":"view","type":"function"},{"inputs":[{"internalType":"address","name":"from","type":"address"},{"internalType":"address","name":"to","type":"address"},{"internalType":"uint256","name":"tokenId","type":"uint256"}],"name":"transferFrom","outputs":[],"stateMutability":"nonpayable","type":"function"}],"evm":{"bytecode":{"linkReferences":{},"object":"60806040523462000032575b620000206200001962000301565b9162000492565b604051611fe26200068f8239611fe290f35b6200003b600080fd5b6200000b565b600080fd5b50634e487b7160e01b600052604160045260246000fd5b90601f01601f191681019081106001600160401b038211176200007f57604052565b6200008962000046565b604052565b90620000a56200009d60405190565b92836200005d565b565b60209081906001600160401b038111620000c057020190565b620000ca62000046565b020190565b90565b6001600160a01b038116036200004157565b90505190620000a582620000d2565b909291926200010c6200010682620000a7565b6200008e565b93818552602080860192028301928184116200014f575b915b838310620001335750505050565b60208091620001438486620000e4565b81520192019162000125565b62000158600080fd5b62000123565b90620000cf9181601f820112156200017d575b602081519101620000f3565b62000186600080fd5b62000171565b602090620001ad906001600160401b038111620001b157601f01601f191690565b0190565b620001bb62000046565b601f01601f191690565b60005b838110620001d95750506000910152565b8181015183820152602001620001c8565b929190620000a5916200020162000106836200018c565b9482865260208601918382011115620001c5576200021d600080fd5b620001c5565b90620000cf9181601f8201121562000242575b602081519101620001ea565b6200024b600080fd5b62000236565b9091606082840312620002f2575b8151620000cf90620002859085906001600160401b038111620002e3575b85016200015e565b93620002a781602086015160018060401b038111620002d4575b860162000223565b604085015190946001600160401b038211620002c5575b0162000223565b620002ce600080fd5b620002be565b620002dd600080fd5b6200029f565b620002ec600080fd5b6200027d565b620002fb600080fd5b6200025f565b62000324620026718038038062000318816200008e565b92833981019062000251565b909192565b620000cf620000cf620000cf9290565b91906200034e620000cf6200036a9362000329565b9083549160001960089290920291821b911b9181191691161790565b9055565b620000a59160009162000339565b81811062000388575050565b806200039860006001936200036e565b016200037c565b9091828110620003ae57505050565b620000a59290620003c6905b92600052602060002090565b90810191016200037c565b90620000a591680100000000000000008211620003f5575b8054908281556200039f565b620003ff62000046565b620003e9565b600162000439620003ba62000418855190565b94838060401b03861162000476575b620004338686620003d1565b60200190565b92049160005b8381106200044d5750505050565b600190602062000468620000cf86516001600160a01b031690565b94019381840155016200043f565b6200048062000046565b62000427565b90620000a59162000405565b90620000a592620004a391620004ab565b600862000486565b90620000a59162000674565b50634e487b7160e01b600052602260045260246000fd5b9060016002830492168015620004f5575b6020831014620004eb57565b620000a5620004b7565b91607f1691620004df565b8181106200050c575050565b806200051c60006001936200036e565b0162000500565b9190601f81116200053357505050565b62000547620000a593600052602060002090565b906020601f8401819004830193106200056b575b6020601f90910104019062000500565b90915081906200055b565b9062000580815190565b906001600160401b03821162000658575b620005a982620005a28554620004ce565b8562000523565b602090601f8311600114620005e8576200036a929160009183620005dc575b5050600019600883021c1916906002021790565b015190503880620005c8565b601f19831691620005fe85600052602060002090565b9260005b8181106200063f5750916002939185600196941062000625575b50505002019055565b01516000196008601f8516021c191690553880806200061c565b9193602060018192878701518155019501920162000602565b6200066262000046565b62000591565b90620000a59162000576565b9062000686620000a592600062000668565b60016200066856fe60806040526004361015610018575b610016600080fd5b005b60003560e01c806301ffc9a71461014457806306fdde031461013b578063081812fc14610132578063095ea7b31461012957806323b872dd14610120578063387849fd1461011757806342842e0e1461010e5780636352211e1461010557806370a08231146100fc57806395d89b41146100f3578063a22cb465146100ea578063b88d4fde146100e1578063c87b56dd146100d8578063d85d3d27146100cf5763e985e9c50361000e576100ca61089a565b61000e565b506100ca61083f565b506100ca6107e0565b506100ca6107b5565b506100ca610635565b506100ca6105c5565b506100ca61058b565b506100ca610544565b506100ca61051c565b506100ca6104df565b506100ca6103c6565b506100ca61035b565b506100ca6102ca565b506100ca610258565b506100ca610198565b600080fd5b6001600160e01b031981165b0361014d57565b9050359061017282610152565b565b906101889160208183031261018b57610165565b90565b610193600080fd5b610165565b50346101cc575b6101c86101b56101b0366004610174565b6108c5565b6040515b91829182901515815260200190565b0390f35b6101d4600080fd5b61019f565b60009103126101e457565b610172600080fd5b60005b8381106101ff5750506000910152565b81810151838201526020016101ef565b601f01601f191690565b61023a61020f6020936102439361022e815190565b80835293849260200190565b958691016101ec565b0190565b602080825261018892910190610219565b5034610281575b61026a3660046101d9565b6101c8610275610b8a565b60405191829182610247565b610289600080fd5b61025f565b8061015e565b905035906101728261028e565b906101889160208183031215610294576102b9600080fd5b610294565b6001600160a01b031690565b5034610301575b6101c86102e76102e23660046102a1565b610cf1565b604051918291826001600160a01b03909116815260200190565b610309600080fd5b6102d1565b6001600160a01b03811661015e565b905035906101728261030e565b91906101889060408482031261034e575b610345818561031d565b93602001610294565b610356600080fd5b61033b565b503461037b575b61037661037036600461032a565b90610c66565b604051005b610383600080fd5b610362565b90916060828403126103b9575b6101886103a2848461031d565b936103b0816020860161031d565b93604001610294565b6103c1600080fd5b610395565b50346103e1575b6103766103db366004610388565b91610daa565b6103e9600080fd5b6103cd565b9061040e6104076103fd845190565b8084529260200190565b9260200190565b9060005b81811061041f5750505090565b90919261043c6104356001928651815260200190565b9460200190565b929101610412565b9061018891610219565b9061046461045a835190565b8083529160200190565b90816104766020830284019460200190565b926000915b83831061048a57505050505090565b909192939460206104ad6104a683856001950387528951610444565b9760200190565b930193019193929061047b565b60408082526101889391926104d1918401906103ee565b91602081840391015261044e565b503461050f575b6104f13660046101d9565b6104f9611eff565b906101c861050660405190565b928392836104ba565b610517600080fd5b6104e6565b5034610537575b610376610531366004610388565b91610deb565b61053f600080fd5b610523565b5034610561575b6101c86102e761055c3660046102a1565b610a60565b610569600080fd5b61054b565b90610188916020818303121561031d57610586600080fd5b61031d565b50346105b8575b6101c86105a86105a336600461056e565b6109d7565b6040519182918290815260200190565b6105c0600080fd5b610592565b50346105e2575b6105d73660046101d9565b6101c8610275610b94565b6105ea600080fd5b6105cc565b80151561015e565b90503590610172826105ef565b919061018890604084820312610628575b61061f818561031d565b936020016105f7565b610630600080fd5b610615565b5034610650575b61037661064a366004610604565b90610d16565b610658600080fd5b61063c565b50634e487b7160e01b600052604160045260246000fd5b90601f01601f1916810190811067ffffffffffffffff82111761069657604052565b61069e61065d565b604052565b906101726106b060405190565b9283610674565b61024360209167ffffffffffffffff81116106d657601f01601f191690565b61020f61065d565b90826000939282370152565b929190610172916107026106fd836106b7565b6106a3565b94828652602086019183820111156106de5761071c600080fd5b6106de565b906101889181601f8201121561073d575b6020813591016106ea565b610745600080fd5b610732565b6080818303126107a8575b61075f828261031d565b92610188610770846020850161031d565b9361077e8160408601610294565b9360608101359067ffffffffffffffff821161079b575b01610721565b6107a3600080fd5b610795565b6107b0600080fd5b610755565b50346107d3575b6103766107ca36600461074a565b92919091610dfb565b6107db600080fd5b6107bc565b50346107fd575b6101c86102756107f83660046102a1565b61149a565b610805600080fd5b6107e7565b9061018891602081830312610832575b80359067ffffffffffffffff821161079b5701610721565b61083a600080fd5b61081a565b503461085c575b6101c86105a861085736600461080a565b611ae1565b610864600080fd5b610846565b91906101889060408482031261088d575b610884818561031d565b9360200161031d565b610895600080fd5b61087a565b50346108b8575b6101c86101b56108b2366004610869565b90610d21565b6108c0600080fd5b6108a1565b6380ac58cd60e01b6001600160e01b03198216149081156108f5575b81156108eb575090565b6101889150611671565b6001600160e01b03198116635b5e139f60e01b1491506108e1565b6102be6101886101889290565b61018890610910565b1561092d57565b60405162461bcd60e51b815260206004820152602960248201527f4552433732313a2061646472657373207a65726f206973206e6f7420612076616044820152683634b21037bbb732b960b91b6064820152608490fd5b0390fd5b610188906102be906001600160a01b031682565b61018890610988565b6101889061099c565b906109b8906109a5565b600052602052604060002090565b6101889081565b61018890546109c6565b610a0f610188916109e6600090565b50610a086109f76102be600061091d565b6001600160a01b0383161415610926565b60036109ae565b6109cd565b15610a1b57565b60405162461bcd60e51b815260206004820152601860248201527f4552433732313a20696e76616c696420746f6b656e20494400000000000000006044820152606490fd5b610a6d9060005b50610e9b565b610188610a7d6102be600061091d565b6001600160a01b0383161415610a14565b50634e487b7160e01b600052602260045260246000fd5b9060016002830492168015610ac8575b6020831014610ac057565b610172610a8e565b91607f1691610ab5565b80546000939291610aef610ae583610aa5565b8085529360200190565b9160018116908115610b415750600114610b0857505050565b610b1b9192939450600052602060002090565b916000925b818410610b2d5750500190565b805484840152602090930192600101610b20565b92949550505060ff1916825215156020020190565b9061018891610ad2565b90610172610b7a92610b7160405190565b93848092610b56565b0383610674565b61018890610b60565b6101886000610b81565b6101886001610b81565b15610ba557565b60405162461bcd60e51b815260206004820152602160248201527f4552433732313a20617070726f76616c20746f2063757272656e74206f776e656044820152603960f91b6064820152608490fd5b15610bfb57565b60405162461bcd60e51b815260206004820152603d60248201527f4552433732313a20617070726f76652063616c6c6572206973206e6f7420746f60448201527f6b656e206f776e6572206f7220617070726f76656420666f7220616c6c0000006064820152608490fd5b9061017291610cb1610c7783610a60565b610c956001600160a01b0382166001600160a01b0385161415610b9e565b336001600160a01b0382168114918215610cb6575b5050610bf4565b611187565b610cc09250610d21565b3880610caa565b6101886101886101889290565b906109b890610cc7565b610188906102be565b6101889054610cde565b610d1161018891610d00600090565b50610d0a816112b8565b6004610cd4565b610ce7565b61017291903361123d565b61018891610d3c610d4192610d34600090565b5060056109ae565b6109ae565b5460ff1690565b15610d4f57565b60405162461bcd60e51b815260206004820152602d60248201527f4552433732313a2063616c6c6572206973206e6f7420746f6b656e206f776e6560448201526c1c881bdc88185c1c1c9bdd9959609a1b6064820152608490fd5b610172929190610dc2610dbd8433610eb2565b610d48565b61106a565b90610dd46106fd836106b7565b918252565b6101886000610dc7565b610188610dd9565b909161017292610df9610de3565b925b61017293929190610e0f610dbd8433610eb2565b610e7c565b15610e1b57565b6040515b62461bcd60e51b815260206004820152603260248201527f4552433732313a207472616e7366657220746f206e6f6e20455243373231526560448201527131b2b4bb32b91034b6b83632b6b2b73a32b960711b6064820152608490fd5b916101729391610e9693610e9183838361106a565b611363565b610e14565b610d1161018891610eaa600090565b506002610cd4565b610ebb82610a60565b916001600160a01b0383166001600160a01b03831614928315610f15575b508215610ee557505090565b610f11919250610ef7610f0491610cf1565b926001600160a01b031690565b916001600160a01b031690565b1490565b610f229193508290610d21565b9138610ed9565b15610f3057565b60405162461bcd60e51b815260206004820152602560248201527f4552433732313a207472616e736665722066726f6d20696e636f72726563742060448201526437bbb732b960d91b6064820152608490fd5b15610f8a57565b60405162461bcd60e51b8152602060048201526024808201527f4552433732313a207472616e7366657220746f20746865207a65726f206164646044820152637265737360e01b6064820152608490fd5b916001600160a01b0360089290920291821b911b5b9181191691161790565b919061100b610188611013936109a5565b908354610fdb565b9055565b61017291600091610ffa565b9060001990610ff0565b9061103d61018861101392610cc7565b8254611023565b906001600160a01b0390610ff0565b90611063610188611013926109a5565b8254611044565b919061109061107883610a60565b61108a6001600160a01b038616610f04565b14610f29565b6110e360006110b56110a46102be8361091d565b6001600160a01b0385161415610f83565b6110d36110c185610a60565b61108a6001600160a01b038816610f04565b6110de846004610cd4565b611017565b6111276110f06001610cc7565b61111761111d846003610d3c6111068a836109ae565b61111787611113836109cd565b0390565b9061102d565b91610243836109cd565b61113b81611136846002610cd4565b611053565b61117761117161116b7fddf252ad1be2c89b69c2b068fc378daa952ba7f163c4a11628f55a4df523b3ef956109a5565b926109a5565b92610cc7565b9261118160405190565b600090a4565b9061119782611136836004610cd4565b6111a081610a60565b9161117761117161116b7f8c5be1e5ebec7d5bd14f71427d1e84f3dd0314c0f7b2291e5b200ac8c7c3b925956109a5565b156111d857565b60405162461bcd60e51b815260206004820152601960248201527f4552433732313a20617070726f766520746f2063616c6c6572000000000000006044820152606490fd5b9060ff90610ff0565b9061123661018861101392151590565b825461121d565b61125b6001600160a01b0383166001600160a01b03831614156111d1565b6112738361126e84610d3c8560056109ae565b611226565b6112b36112a96112a37f17307eab39ab6107e8899845ad3d59bd9653f200f220920489ca2b5937696c31936109a5565b936109a5565b936101b960405190565b0390a3565b6112c4610172916112c9565b610a14565b6112d4906000610a67565b6112e4610f046102be600061091d565b141590565b9050519061017282610152565b9061018891602081830312156112e95761130e600080fd5b6112e9565b6001600160a01b03918216815291166020820152604081019190915260806060820181905261018892910190610219565b3d1561135e576113533d610dc7565b903d6000602084013e565b606090565b9190939261136f600090565b946113798161157e565b1561145b57906113c06000611398611393602096956109a5565b6109a5565b926113cb63150b7a02916113a93390565b966113b360405190565b998a988997889660e01b90565b865260048601611313565b03925af16000918161142b575b5061140e57506113e6611344565b80516113f96113f56000610cc7565b9190565b0361140657604051610e1f565b805190602001fd5b909150610f11630a85bd0160e11b5b916001600160e01b03191690565b61144d91925060203d8111611454575b6114458183610674565b8101906112f6565b90386113d8565b503d61143b565b5060019450505050565b61024361147d92602092611477815190565b94859290565b938491016101ec565b611494906101889392611465565b90611465565b6114a3816112b8565b6114b66114b1826006610cd4565b610b81565b6114be611576565b80516000906114cf6113f583610cc7565b14611522576114e26113f5611171855190565b116114f257505061018890611529565b6101889250611516916101889161150860405190565b938492602084019283611486565b90810382520382610674565b5050905090565b611532816112b8565b61153a611576565b80516115496113f56000610cc7565b111561156c5761018861151691611562610188946115e5565b9061150860405190565b5050610188610de3565b610188610de3565b3b61158c6113f56000610cc7565b1190565b369037565b906101726115ab6115a584610dc7565b936106b7565b601f190160208401611590565b50634e487b7160e01b600052601260045260246000fd5b81156115d9570490565b6115e16115b8565b0490565b6115ee81611681565b906115fe60019261024384610cc7565b918061160984611595565b936020018401905b61161c575b50505090565b6116509060001901926f181899199a1a9b1b9c1cb0b131b232b360811b600a82061a845361164a600a610cc7565b906115cf565b908161165f6113f56000610cc7565b1461166c57909181611611565b611616565b610f116301ffc9a760e01b61141d565b61168b6000610cc7565b907a184f03e93ff9f4daa797ed6e38ed64bf6a1f0100000000000000006116b181610cc7565b821015611803575b506d04ee2d6d415b85acef81000000006116d281610cc7565b8210156117e1575b50662386f26fc100006116ec81610cc7565b8210156117bf575b506305f5e10061170381610cc7565b82101561179d575b5061271061171881610cc7565b82101561177b575b50606461172c81610cc7565b821015611759575b506117426113f5600a610cc7565b101561174b5790565b610188906102436001610cc7565b6117749161164a61176992610cc7565b916102436002610cc7565b9038611734565b6117969161164a61178b92610cc7565b916102436004610cc7565b9038611720565b6117b89161164a6117ad92610cc7565b916102436008610cc7565b903861170b565b6117da9161164a6117cf92610cc7565b916102436010610cc7565b90386116f4565b6117fc9161164a6117f192610cc7565b916102436020610cc7565b90386116da565b61181e9161164a61181392610cc7565b916102436040610cc7565b90386116b9565b50634e487b7160e01b600052601160045260246000fd5b600190600019811461184c570190565b610243611825565b50634e487b7160e01b600052603260045260246000fd5b61188b600191611879815490565b84101561189457600052602060002090565b91020190600090565b61189c611854565b600052602060002090565b610188916008021c6102be565b9061018891546118a7565b60208082526026908201527f4f6e6c7920746865206f776e65722063616e2063616c6c20746869732066756e60408201526531ba34b7b71760d11b606082015260800190565b1561190c57565b60405162461bcd60e51b815280610984600482016118bf565b9060009161193283610cc7565b600861193f610188825490565b8210156119c257611960610f046102be61195a85339561186b565b906118b4565b146119735761196e9061183c565b611932565b5061198892506119836001611905565b611a58565b907f8514e9874d1ee55d652d405875552b31f7275a881f0f832eab8d077876c093e26119b360405190565b806119bd816118bf565b0390a1565b505061198361198893611905565b7468747470733a2f2f697066732e696f2f697066732f60581b81526101889190601501611494565b6001600160a01b039091168152610188929091611a2c916080840191611a1f906020860152565b8382036040850152610219565b906060818303910152601081526f1050d51253d397d0d3d391925493515160821b602082015260400190565b50611a8d611a87600792611a6b84611e21565b610188611a7760405190565b80926115166020830191826119d0565b91611e0c565b908133611a9a8282611b88565b611aa48383611de7565b611adb7fe22cc2323a3a1e016e6de3d567fef2c2667443939a122469a166e3d293b16d0b93611ad260405190565b938493846119f8565b0390a190565b610188906000611925565b15611af357565b60405162461bcd60e51b815280610984600482016020808252818101527f4552433732313a206d696e7420746f20746865207a65726f2061646472657373604082015260600190565b15611b4357565b60405162461bcd60e51b815260206004820152601c60248201527f4552433732313a20746f6b656e20616c7265616479206d696e746564000000006044820152606490fd5b90611b93600061091d565b91611bb26001600160a01b0384166001600160a01b0383161415611aec565b611bca611bc5611bc1846112c9565b1590565b611b3c565b611bd9611bc5611bc1846112c9565b611127611be66001610cc7565b61111761111d8460036109ae565b15611bfb57565b60405162461bcd60e51b815260206004820152602e60248201527f45524337323155524953746f726167653a2055524920736574206f66206e6f6e60448201526d32bc34b9ba32b73a103a37b5b2b760911b6064820152608490fd5b9160001960089290920291821b911b610ff0565b9190611c7c61018861101393610cc7565b908354611c57565b61017291600091611c6b565b818110611c9b575050565b80611ca96000600193611c84565b01611c90565b9190601f8111611cbe57505050565b611cd061017293600052602060002090565b906020601f840181900483019310611cf2575b6020601f909101040190611c90565b9091508190611ce3565b90611d05815190565b9067ffffffffffffffff8211611dd0575b611d2a82611d248554610aa5565b85611caf565b602090601f8311600114611d6557611013929160009183611d5a575b5050600019600883021c1916906002021790565b015190503880611d46565b601f19831691611d7a85600052602060002090565b9260005b818110611db857509160029391856001969410611d9f575b50505002019055565b01516000196008601f8516021c19169055388080611d96565b91936020600181928787015181550195019201611d7e565b611dd861065d565b611d16565b9061017291611cfc565b90611e0761017292611e00611dfb826112c9565b611bf4565b6006610cd4565b611ddd565b600061018891611e1a600090565b50016109cd565b610172906111176000611e346001610cc7565b920191610243836109cd565b6020809167ffffffffffffffff8111611e5857020190565b611e6061065d565b020190565b90610dd46106fd83611e40565b906101726115ab611e8284611e65565b93611e40565b60005b828110611e9757505050565b606082820152602001611e8b565b90610172611eb5611e8284611e65565b601f190160208401611e88565b91908201809211611ecf57565b610172611825565b9060208091611ee4845190565b811015611ef2575b02010190565b611efa611854565b611eec565b6007611f12611f0d82611e0c565b611e72565b611f23611f1e83611e0c565b611ea5565b92611f2e6000610cc7565b611f3a61018885611e0c565b811015611fa557610188611f9d611f3a92611f6e611f61611f5b6001610cc7565b83611ec2565b611f6b8389611ed7565b52565b611f826107f8611f7e8389611ed7565b5190565b611f8c828a611ed7565b52611f978189611ed7565b5061183c565b915050611f2e565b509150919056fea2646970667358221220effdecabf558042708ce371f3f0fab12869cf249eebd3567d77261ad9c0135ec64736f6c63430008110033","opcodes":"PUSH1 0x80 PUSH1 0x40 MSTORE CALLVALUE PUSH3 0x32 JUMPI JUMPDEST PUSH3 0x20 PUSH3 0x19 PUSH3 0x301 JUMP JUMPDEST SWAP2 PUSH3 0x492 JUMP JUMPDEST PUSH1 0x40 MLOAD PUSH2 0x1FE2 PUSH3 0x68F DUP3 CODECOPY PUSH2 0x1FE2 SWAP1 RETURN JUMPDEST PUSH3 0x3B PUSH1 0x0 DUP1 REVERT JUMPDEST PUSH3 0xB JUMP JUMPDEST PUSH1 0x0 DUP1 REVERT JUMPDEST POP PUSH4 0x4E487B71 PUSH1 0xE0 SHL PUSH1 0x0 MSTORE PUSH1 0x41 PUSH1 0x4 MSTORE PUSH1 0x24 PUSH1 0x0 REVERT JUMPDEST SWAP1 PUSH1 0x1F ADD PUSH1 0x1F NOT AND DUP2 ADD SWAP1 DUP2 LT PUSH1 0x1 PUSH1 0x1 PUSH1 0x40 SHL SUB DUP3 GT OR PUSH3 0x7F JUMPI PUSH1 0x40 MSTORE JUMP JUMPDEST PUSH3 0x89 PUSH3 0x46 JUMP JUMPDEST PUSH1 0x40 MSTORE JUMP JUMPDEST SWAP1 PUSH3 0xA5 PUSH3 0x9D PUSH1 0x40 MLOAD SWAP1 JUMP JUMPDEST SWAP3 DUP4 PUSH3 0x5D JUMP JUMPDEST JUMP JUMPDEST PUSH1 0x20 SWAP1 DUP2 SWAP1 PUSH1 0x1 PUSH1 0x1 PUSH1 0x40 SHL SUB DUP2 GT PUSH3 0xC0 JUMPI MUL ADD SWAP1 JUMP JUMPDEST PUSH3 0xCA PUSH3 0x46 JUMP JUMPDEST MUL ADD SWAP1 JUMP JUMPDEST SWAP1 JUMP JUMPDEST PUSH1 0x1 PUSH1 0x1 PUSH1 0xA0 SHL SUB DUP2 AND SUB PUSH3 0x41 JUMPI JUMP JUMPDEST SWAP1 POP MLOAD SWAP1 PUSH3 0xA5 DUP3 PUSH3 0xD2 JUMP JUMPDEST SWAP1 SWAP3 SWAP2 SWAP3 PUSH3 0x10C PUSH3 0x106 DUP3 PUSH3 0xA7 JUMP JUMPDEST PUSH3 0x8E JUMP JUMPDEST SWAP4 DUP2 DUP6 MSTORE PUSH1 0x20 DUP1 DUP7 ADD SWAP3 MUL DUP4 ADD SWAP3 DUP2 DUP5 GT PUSH3 0x14F JUMPI JUMPDEST SWAP2 JUMPDEST DUP4 DUP4 LT PUSH3 0x133 JUMPI POP POP POP POP JUMP JUMPDEST PUSH1 0x20 DUP1 SWAP2 PUSH3 0x143 DUP5 DUP7 PUSH3 0xE4 JUMP JUMPDEST DUP2 MSTORE ADD SWAP3 ADD SWAP2 PUSH3 0x125 JUMP JUMPDEST PUSH3 0x158 PUSH1 0x0 DUP1 REVERT JUMPDEST PUSH3 0x123 JUMP JUMPDEST SWAP1 PUSH3 0xCF SWAP2 DUP2 PUSH1 0x1F DUP3 ADD SLT ISZERO PUSH3 0x17D JUMPI JUMPDEST PUSH1 0x20 DUP2 MLOAD SWAP2 ADD PUSH3 0xF3 JUMP JUMPDEST PUSH3 0x186 PUSH1 0x0 DUP1 REVERT JUMPDEST PUSH3 0x171 JUMP JUMPDEST PUSH1 0x20 SWAP1 PUSH3 0x1AD SWAP1 PUSH1 0x1 PUSH1 0x1 PUSH1 0x40 SHL SUB DUP2 GT PUSH3 0x1B1 JUMPI PUSH1 0x1F ADD PUSH1 0x1F NOT AND SWAP1 JUMP JUMPDEST ADD SWAP1 JUMP JUMPDEST PUSH3 0x1BB PUSH3 0x46 JUMP JUMPDEST PUSH1 0x1F ADD PUSH1 0x1F NOT AND SWAP1 JUMP JUMPDEST PUSH1 0x0 JUMPDEST DUP4 DUP2 LT PUSH3 0x1D9 JUMPI POP POP PUSH1 0x0 SWAP2 ADD MSTORE JUMP JUMPDEST DUP2 DUP2 ADD MLOAD DUP4 DUP3 ADD MSTORE PUSH1 0x20 ADD PUSH3 0x1C8 JUMP JUMPDEST SWAP3 SWAP2 SWAP1 PUSH3 0xA5 SWAP2 PUSH3 0x201 PUSH3 0x106 DUP4 PUSH3 0x18C JUMP JUMPDEST SWAP5 DUP3 DUP7 MSTORE PUSH1 0x20 DUP7 ADD SWAP2 DUP4 DUP3 ADD GT ISZERO PUSH3 0x1C5 JUMPI PUSH3 0x21D PUSH1 0x0 DUP1 REVERT JUMPDEST PUSH3 0x1C5 JUMP JUMPDEST SWAP1 PUSH3 0xCF SWAP2 DUP2 PUSH1 0x1F DUP3 ADD SLT ISZERO PUSH3 0x242 JUMPI JUMPDEST PUSH1 0x20 DUP2 MLOAD SWAP2 ADD PUSH3 0x1EA JUMP JUMPDEST PUSH3 0x24B PUSH1 0x0 DUP1 REVERT JUMPDEST PUSH3 0x236 JUMP JUMPDEST SWAP1 SWAP2 PUSH1 0x60 DUP3 DUP5 SUB SLT PUSH3 0x2F2 JUMPI JUMPDEST DUP2 MLOAD PUSH3 0xCF SWAP1 PUSH3 0x285 SWAP1 DUP6 SWAP1 PUSH1 0x1 PUSH1 0x1 PUSH1 0x40 SHL SUB DUP2 GT PUSH3 0x2E3 JUMPI JUMPDEST DUP6 ADD PUSH3 0x15E JUMP JUMPDEST SWAP4 PUSH3 0x2A7 DUP2 PUSH1 0x20 DUP7 ADD MLOAD PUSH1 0x1 DUP1 PUSH1 0x40 SHL SUB DUP2 GT PUSH3 0x2D4 JUMPI JUMPDEST DUP7 ADD PUSH3 0x223 JUMP JUMPDEST PUSH1 0x40 DUP6 ADD MLOAD SWAP1 SWAP5 PUSH1 0x1 PUSH1 0x1 PUSH1 0x40 SHL SUB DUP3 GT PUSH3 0x2C5 JUMPI JUMPDEST ADD PUSH3 0x223 JUMP JUMPDEST PUSH3 0x2CE PUSH1 0x0 DUP1 REVERT JUMPDEST PUSH3 0x2BE JUMP JUMPDEST PUSH3 0x2DD PUSH1 0x0 DUP1 REVERT JUMPDEST PUSH3 0x29F JUMP JUMPDEST PUSH3 0x2EC PUSH1 0x0 DUP1 REVERT JUMPDEST PUSH3 0x27D JUMP JUMPDEST PUSH3 0x2FB PUSH1 0x0 DUP1 REVERT JUMPDEST PUSH3 0x25F JUMP JUMPDEST PUSH3 0x324 PUSH3 0x2671 DUP1 CODESIZE SUB DUP1 PUSH3 0x318 DUP2 PUSH3 0x8E JUMP JUMPDEST SWAP3 DUP4 CODECOPY DUP2 ADD SWAP1 PUSH3 0x251 JUMP JUMPDEST SWAP1 SWAP2 SWAP3 JUMP JUMPDEST PUSH3 0xCF PUSH3 0xCF PUSH3 0xCF SWAP3 SWAP1 JUMP JUMPDEST SWAP2 SWAP1 PUSH3 0x34E PUSH3 0xCF PUSH3 0x36A SWAP4 PUSH3 0x329 JUMP JUMPDEST SWAP1 DUP4 SLOAD SWAP2 PUSH1 0x0 NOT PUSH1 0x8 SWAP3 SWAP1 SWAP3 MUL SWAP2 DUP3 SHL SWAP2 SHL SWAP2 DUP2 NOT AND SWAP2 AND OR SWAP1 JUMP JUMPDEST SWAP1 SSTORE JUMP JUMPDEST PUSH3 0xA5 SWAP2 PUSH1 0x0 SWAP2 PUSH3 0x339 JUMP JUMPDEST DUP2 DUP2 LT PUSH3 0x388 JUMPI POP POP JUMP JUMPDEST DUP1 PUSH3 0x398 PUSH1 0x0 PUSH1 0x1 SWAP4 PUSH3 0x36E JUMP JUMPDEST ADD PUSH3 0x37C JUMP JUMPDEST SWAP1 SWAP2 DUP3 DUP2 LT PUSH3 0x3AE JUMPI POP POP POP JUMP JUMPDEST PUSH3 0xA5 SWAP3 SWAP1 PUSH3 0x3C6 SWAP1 JUMPDEST SWAP3 PUSH1 0x0 MSTORE PUSH1 0x20 PUSH1 0x0 KECCAK256 SWAP1 JUMP JUMPDEST SWAP1 DUP2 ADD SWAP2 ADD PUSH3 0x37C JUMP JUMPDEST SWAP1 PUSH3 0xA5 SWAP2 PUSH9 0x10000000000000000 DUP3 GT PUSH3 0x3F5 JUMPI JUMPDEST DUP1 SLOAD SWAP1 DUP3 DUP2 SSTORE PUSH3 0x39F JUMP JUMPDEST PUSH3 0x3FF PUSH3 0x46 JUMP JUMPDEST PUSH3 0x3E9 JUMP JUMPDEST PUSH1 0x1 PUSH3 0x439 PUSH3 0x3BA PUSH3 0x418 DUP6 MLOAD SWAP1 JUMP JUMPDEST SWAP5 DUP4 DUP1 PUSH1 0x40 SHL SUB DUP7 GT PUSH3 0x476 JUMPI JUMPDEST PUSH3 0x433 DUP7 DUP7 PUSH3 0x3D1 JUMP JUMPDEST PUSH1 0x20 ADD SWAP1 JUMP JUMPDEST SWAP3 DIV SWAP2 PUSH1 0x0 JUMPDEST DUP4 DUP2 LT PUSH3 0x44D JUMPI POP POP POP POP JUMP JUMPDEST PUSH1 0x1 SWAP1 PUSH1 0x20 PUSH3 0x468 PUSH3 0xCF DUP7 MLOAD PUSH1 0x1 PUSH1 0x1 PUSH1 0xA0 SHL SUB AND SWAP1 JUMP JUMPDEST SWAP5 ADD SWAP4 DUP2 DUP5 ADD SSTORE ADD PUSH3 0x43F JUMP JUMPDEST PUSH3 0x480 PUSH3 0x46 JUMP JUMPDEST PUSH3 0x427 JUMP JUMPDEST SWAP1 PUSH3 0xA5 SWAP2 PUSH3 0x405 JUMP JUMPDEST SWAP1 PUSH3 0xA5 SWAP3 PUSH3 0x4A3 SWAP2 PUSH3 0x4AB JUMP JUMPDEST PUSH1 0x8 PUSH3 0x486 JUMP JUMPDEST SWAP1 PUSH3 0xA5 SWAP2 PUSH3 0x674 JUMP JUMPDEST POP PUSH4 0x4E487B71 PUSH1 0xE0 SHL PUSH1 0x0 MSTORE PUSH1 0x22 PUSH1 0x4 MSTORE PUSH1 0x24 PUSH1 0x0 REVERT JUMPDEST SWAP1 PUSH1 0x1 PUSH1 0x2 DUP4 DIV SWAP3 AND DUP1 ISZERO PUSH3 0x4F5 JUMPI JUMPDEST PUSH1 0x20 DUP4 LT EQ PUSH3 0x4EB JUMPI JUMP JUMPDEST PUSH3 0xA5 PUSH3 0x4B7 JUMP JUMPDEST SWAP2 PUSH1 0x7F AND SWAP2 PUSH3 0x4DF JUMP JUMPDEST DUP2 DUP2 LT PUSH3 0x50C JUMPI POP POP JUMP JUMPDEST DUP1 PUSH3 0x51C PUSH1 0x0 PUSH1 0x1 SWAP4 PUSH3 0x36E JUMP JUMPDEST ADD PUSH3 0x500 JUMP JUMPDEST SWAP2 SWAP1 PUSH1 0x1F DUP2 GT PUSH3 0x533 JUMPI POP POP POP JUMP JUMPDEST PUSH3 0x547 PUSH3 0xA5 SWAP4 PUSH1 0x0 MSTORE PUSH1 0x20 PUSH1 0x0 KECCAK256 SWAP1 JUMP JUMPDEST SWAP1 PUSH1 0x20 PUSH1 0x1F DUP5 ADD DUP2 SWAP1 DIV DUP4 ADD SWAP4 LT PUSH3 0x56B JUMPI JUMPDEST PUSH1 0x20 PUSH1 0x1F SWAP1 SWAP2 ADD DIV ADD SWAP1 PUSH3 0x500 JUMP JUMPDEST SWAP1 SWAP2 POP DUP2 SWAP1 PUSH3 0x55B JUMP JUMPDEST SWAP1 PUSH3 0x580 DUP2 MLOAD SWAP1 JUMP JUMPDEST SWAP1 PUSH1 0x1 PUSH1 0x1 PUSH1 0x40 SHL SUB DUP3 GT PUSH3 0x658 JUMPI JUMPDEST PUSH3 0x5A9 DUP3 PUSH3 0x5A2 DUP6 SLOAD PUSH3 0x4CE JUMP JUMPDEST DUP6 PUSH3 0x523 JUMP JUMPDEST PUSH1 0x20 SWAP1 PUSH1 0x1F DUP4 GT PUSH1 0x1 EQ PUSH3 0x5E8 JUMPI PUSH3 0x36A SWAP3 SWAP2 PUSH1 0x0 SWAP2 DUP4 PUSH3 0x5DC JUMPI JUMPDEST POP POP PUSH1 0x0 NOT PUSH1 0x8 DUP4 MUL SHR NOT AND SWAP1 PUSH1 0x2 MUL OR SWAP1 JUMP JUMPDEST ADD MLOAD SWAP1 POP CODESIZE DUP1 PUSH3 0x5C8 JUMP JUMPDEST PUSH1 0x1F NOT DUP4 AND SWAP2 PUSH3 0x5FE DUP6 PUSH1 0x0 MSTORE PUSH1 0x20 PUSH1 0x0 KECCAK256 SWAP1 JUMP JUMPDEST SWAP3 PUSH1 0x0 JUMPDEST DUP2 DUP2 LT PUSH3 0x63F JUMPI POP SWAP2 PUSH1 0x2 SWAP4 SWAP2 DUP6 PUSH1 0x1 SWAP7 SWAP5 LT PUSH3 0x625 JUMPI JUMPDEST POP POP POP MUL ADD SWAP1 SSTORE JUMP JUMPDEST ADD MLOAD PUSH1 0x0 NOT PUSH1 0x8 PUSH1 0x1F DUP6 AND MUL SHR NOT AND SWAP1 SSTORE CODESIZE DUP1 DUP1 PUSH3 0x61C JUMP JUMPDEST SWAP2 SWAP4 PUSH1 0x20 PUSH1 0x1 DUP2 SWAP3 DUP8 DUP8 ADD MLOAD DUP2 SSTORE ADD SWAP6 ADD SWAP3 ADD PUSH3 0x602 JUMP JUMPDEST PUSH3 0x662 PUSH3 0x46 JUMP JUMPDEST PUSH3 0x591 JUMP JUMPDEST SWAP1 PUSH3 0xA5 SWAP2 PUSH3 0x576 JUMP JUMPDEST SWAP1 PUSH3 0x686 PUSH3 0xA5 SWAP3 PUSH1 0x0 PUSH3 0x668 JUMP JUMPDEST PUSH1 0x1 PUSH3 0x668 JUMP INVALID PUSH1 0x80 PUSH1 0x40 MSTORE PUSH1 0x4 CALLDATASIZE LT ISZERO PUSH2 0x18 JUMPI JUMPDEST PUSH2 0x16 PUSH1 0x0 DUP1 REVERT JUMPDEST STOP JUMPDEST PUSH1 0x0 CALLDATALOAD PUSH1 0xE0 SHR DUP1 PUSH4 0x1FFC9A7 EQ PUSH2 0x144 JUMPI DUP1 PUSH4 0x6FDDE03 EQ PUSH2 0x13B JUMPI DUP1 PUSH4 0x81812FC EQ PUSH2 0x132 JUMPI DUP1 PUSH4 0x95EA7B3 EQ PUSH2 0x129 JUMPI DUP1 PUSH4 0x23B872DD EQ PUSH2 0x120 JUMPI DUP1 PUSH4 0x387849FD EQ PUSH2 0x117 JUMPI DUP1 PUSH4 0x42842E0E EQ PUSH2 0x10E JUMPI DUP1 PUSH4 0x6352211E EQ PUSH2 0x105 JUMPI DUP1 PUSH4 0x70A08231 EQ PUSH2 0xFC JUMPI DUP1 PUSH4 0x95D89B41 EQ PUSH2 0xF3 JUMPI DUP1 PUSH4 0xA22CB465 EQ PUSH2 0xEA JUMPI DUP1 PUSH4 0xB88D4FDE EQ PUSH2 0xE1 JUMPI DUP1 PUSH4 0xC87B56DD EQ PUSH2 0xD8 JUMPI DUP1 PUSH4 0xD85D3D27 EQ PUSH2 0xCF JUMPI PUSH4 0xE985E9C5 SUB PUSH2 0xE JUMPI PUSH2 0xCA PUSH2 0x89A JUMP JUMPDEST PUSH2 0xE JUMP JUMPDEST POP PUSH2 0xCA PUSH2 0x83F JUMP JUMPDEST POP PUSH2 0xCA PUSH2 0x7E0 JUMP JUMPDEST POP PUSH2 0xCA PUSH2 0x7B5 JUMP JUMPDEST POP PUSH2 0xCA PUSH2 0x635 JUMP JUMPDEST POP PUSH2 0xCA PUSH2 0x5C5 JUMP JUMPDEST POP PUSH2 0xCA PUSH2 0x58B JUMP JUMPDEST POP PUSH2 0xCA PUSH2 0x544 JUMP JUMPDEST POP PUSH2 0xCA PUSH2 0x51C JUMP JUMPDEST POP PUSH2 0xCA PUSH2 0x4DF JUMP JUMPDEST POP PUSH2 0xCA PUSH2 0x3C6 JUMP JUMPDEST POP PUSH2 0xCA PUSH2 0x35B JUMP JUMPDEST POP PUSH2 0xCA PUSH2 0x2CA JUMP JUMPDEST POP PUSH2 0xCA PUSH2 0x258 JUMP JUMPDEST POP PUSH2 0xCA PUSH2 0x198 JUMP JUMPDEST PUSH1 0x0 DUP1 REVERT JUMPDEST PUSH1 0x1 PUSH1 0x1 PUSH1 0xE0 SHL SUB NOT DUP2 AND JUMPDEST SUB PUSH2 0x14D JUMPI JUMP JUMPDEST SWAP1 POP CALLDATALOAD SWAP1 PUSH2 0x172 DUP3 PUSH2 0x152 JUMP JUMPDEST JUMP JUMPDEST SWAP1 PUSH2 0x188 SWAP2 PUSH1 0x20 DUP2 DUP4 SUB SLT PUSH2 0x18B JUMPI PUSH2 0x165 JUMP JUMPDEST SWAP1 JUMP JUMPDEST PUSH2 0x193 PUSH1 0x0 DUP1 REVERT JUMPDEST PUSH2 0x165 JUMP JUMPDEST POP CALLVALUE PUSH2 0x1CC JUMPI JUMPDEST PUSH2 0x1C8 PUSH2 0x1B5 PUSH2 0x1B0 CALLDATASIZE PUSH1 0x4 PUSH2 0x174 JUMP JUMPDEST PUSH2 0x8C5 JUMP JUMPDEST PUSH1 0x40 MLOAD JUMPDEST SWAP2 DUP3 SWAP2 DUP3 SWAP1 ISZERO ISZERO DUP2 MSTORE PUSH1 0x20 ADD SWAP1 JUMP JUMPDEST SUB SWAP1 RETURN JUMPDEST PUSH2 0x1D4 PUSH1 0x0 DUP1 REVERT JUMPDEST PUSH2 0x19F JUMP JUMPDEST PUSH1 0x0 SWAP2 SUB SLT PUSH2 0x1E4 JUMPI JUMP JUMPDEST PUSH2 0x172 PUSH1 0x0 DUP1 REVERT JUMPDEST PUSH1 0x0 JUMPDEST DUP4 DUP2 LT PUSH2 0x1FF JUMPI POP POP PUSH1 0x0 SWAP2 ADD MSTORE JUMP JUMPDEST DUP2 DUP2 ADD MLOAD DUP4 DUP3 ADD MSTORE PUSH1 0x20 ADD PUSH2 0x1EF JUMP JUMPDEST PUSH1 0x1F ADD PUSH1 0x1F NOT AND SWAP1 JUMP JUMPDEST PUSH2 0x23A PUSH2 0x20F PUSH1 0x20 SWAP4 PUSH2 0x243 SWAP4 PUSH2 0x22E DUP2 MLOAD SWAP1 JUMP JUMPDEST DUP1 DUP4 MSTORE SWAP4 DUP5 SWAP3 PUSH1 0x20 ADD SWAP1 JUMP JUMPDEST SWAP6 DUP7 SWAP2 ADD PUSH2 0x1EC JUMP JUMPDEST ADD SWAP1 JUMP JUMPDEST PUSH1 0x20 DUP1 DUP3 MSTORE PUSH2 0x188 SWAP3 SWAP2 ADD SWAP1 PUSH2 0x219 JUMP JUMPDEST POP CALLVALUE PUSH2 0x281 JUMPI JUMPDEST PUSH2 0x26A CALLDATASIZE PUSH1 0x4 PUSH2 0x1D9 JUMP JUMPDEST PUSH2 0x1C8 PUSH2 0x275 PUSH2 0xB8A JUMP JUMPDEST PUSH1 0x40 MLOAD SWAP2 DUP3 SWAP2 DUP3 PUSH2 0x247 JUMP JUMPDEST PUSH2 0x289 PUSH1 0x0 DUP1 REVERT JUMPDEST PUSH2 0x25F JUMP JUMPDEST DUP1 PUSH2 0x15E JUMP JUMPDEST SWAP1 POP CALLDATALOAD SWAP1 PUSH2 0x172 DUP3 PUSH2 0x28E JUMP JUMPDEST SWAP1 PUSH2 0x188 SWAP2 PUSH1 0x20 DUP2 DUP4 SUB SLT ISZERO PUSH2 0x294 JUMPI PUSH2 0x2B9 PUSH1 0x0 DUP1 REVERT JUMPDEST PUSH2 0x294 JUMP JUMPDEST PUSH1 0x1 PUSH1 0x1 PUSH1 0xA0 SHL SUB AND SWAP1 JUMP JUMPDEST POP CALLVALUE PUSH2 0x301 JUMPI JUMPDEST PUSH2 0x1C8 PUSH2 0x2E7 PUSH2 0x2E2 CALLDATASIZE PUSH1 0x4 PUSH2 0x2A1 JUMP JUMPDEST PUSH2 0xCF1 JUMP JUMPDEST PUSH1 0x40 MLOAD SWAP2 DUP3 SWAP2 DUP3 PUSH1 0x1 PUSH1 0x1 PUSH1 0xA0 SHL SUB SWAP1 SWAP2 AND DUP2 MSTORE PUSH1 0x20 ADD SWAP1 JUMP JUMPDEST PUSH2 0x309 PUSH1 0x0 DUP1 REVERT JUMPDEST PUSH2 0x2D1 JUMP JUMPDEST PUSH1 0x1 PUSH1 0x1 PUSH1 0xA0 SHL SUB DUP2 AND PUSH2 0x15E JUMP JUMPDEST SWAP1 POP CALLDATALOAD SWAP1 PUSH2 0x172 DUP3 PUSH2 0x30E JUMP JUMPDEST SWAP2 SWAP1 PUSH2 0x188 SWAP1 PUSH1 0x40 DUP5 DUP3 SUB SLT PUSH2 0x34E JUMPI JUMPDEST PUSH2 0x345 DUP2 DUP6 PUSH2 0x31D JUMP JUMPDEST SWAP4 PUSH1 0x20 ADD PUSH2 0x294 JUMP JUMPDEST PUSH2 0x356 PUSH1 0x0 DUP1 REVERT JUMPDEST PUSH2 0x33B JUMP JUMPDEST POP CALLVALUE PUSH2 0x37B JUMPI JUMPDEST PUSH2 0x376 PUSH2 0x370 CALLDATASIZE PUSH1 0x4 PUSH2 0x32A JUMP JUMPDEST SWAP1 PUSH2 0xC66 JUMP JUMPDEST PUSH1 0x40 MLOAD STOP JUMPDEST PUSH2 0x383 PUSH1 0x0 DUP1 REVERT JUMPDEST PUSH2 0x362 JUMP JUMPDEST SWAP1 SWAP2 PUSH1 0x60 DUP3 DUP5 SUB SLT PUSH2 0x3B9 JUMPI JUMPDEST PUSH2 0x188 PUSH2 0x3A2 DUP5 DUP5 PUSH2 0x31D JUMP JUMPDEST SWAP4 PUSH2 0x3B0 DUP2 PUSH1 0x20 DUP7 ADD PUSH2 0x31D JUMP JUMPDEST SWAP4 PUSH1 0x40 ADD PUSH2 0x294 JUMP JUMPDEST PUSH2 0x3C1 PUSH1 0x0 DUP1 REVERT JUMPDEST PUSH2 0x395 JUMP JUMPDEST POP CALLVALUE PUSH2 0x3E1 JUMPI JUMPDEST PUSH2 0x376 PUSH2 0x3DB CALLDATASIZE PUSH1 0x4 PUSH2 0x388 JUMP JUMPDEST SWAP2 PUSH2 0xDAA JUMP JUMPDEST PUSH2 0x3E9 PUSH1 0x0 DUP1 REVERT JUMPDEST PUSH2 0x3CD JUMP JUMPDEST SWAP1 PUSH2 0x40E PUSH2 0x407 PUSH2 0x3FD DUP5 MLOAD SWAP1 JUMP JUMPDEST DUP1 DUP5 MSTORE SWAP3 PUSH1 0x20 ADD SWAP1 JUMP JUMPDEST SWAP3 PUSH1 0x20 ADD SWAP1 JUMP JUMPDEST SWAP1 PUSH1 0x0 JUMPDEST DUP2 DUP2 LT PUSH2 0x41F JUMPI POP POP POP SWAP1 JUMP JUMPDEST SWAP1 SWAP2 SWAP3 PUSH2 0x43C PUSH2 0x435 PUSH1 0x1 SWAP3 DUP7 MLOAD DUP2 MSTORE PUSH1 0x20 ADD SWAP1 JUMP JUMPDEST SWAP5 PUSH1 0x20 ADD SWAP1 JUMP JUMPDEST SWAP3 SWAP2 ADD PUSH2 0x412 JUMP JUMPDEST SWAP1 PUSH2 0x188 SWAP2 PUSH2 0x219 JUMP JUMPDEST SWAP1 PUSH2 0x464 PUSH2 0x45A DUP4 MLOAD SWAP1 JUMP JUMPDEST DUP1 DUP4 MSTORE SWAP2 PUSH1 0x20 ADD SWAP1 JUMP JUMPDEST SWAP1 DUP2 PUSH2 0x476 PUSH1 0x20 DUP4 MUL DUP5 ADD SWAP5 PUSH1 0x20 ADD SWAP1 JUMP JUMPDEST SWAP3 PUSH1 0x0 SWAP2 JUMPDEST DUP4 DUP4 LT PUSH2 0x48A JUMPI POP POP POP POP POP SWAP1 JUMP JUMPDEST SWAP1 SWAP2 SWAP3 SWAP4 SWAP5 PUSH1 0x20 PUSH2 0x4AD PUSH2 0x4A6 DUP4 DUP6 PUSH1 0x1 SWAP6 SUB DUP8 MSTORE DUP10 MLOAD PUSH2 0x444 JUMP JUMPDEST SWAP8 PUSH1 0x20 ADD SWAP1 JUMP JUMPDEST SWAP4 ADD SWAP4 ADD SWAP2 SWAP4 SWAP3 SWAP1 PUSH2 0x47B JUMP JUMPDEST PUSH1 0x40 DUP1 DUP3 MSTORE PUSH2 0x188 SWAP4 SWAP2 SWAP3 PUSH2 0x4D1 SWAP2 DUP5 ADD SWAP1 PUSH2 0x3EE JUMP JUMPDEST SWAP2 PUSH1 0x20 DUP2 DUP5 SUB SWAP2 ADD MSTORE PUSH2 0x44E JUMP JUMPDEST POP CALLVALUE PUSH2 0x50F JUMPI JUMPDEST PUSH2 0x4F1 CALLDATASIZE PUSH1 0x4 PUSH2 0x1D9 JUMP JUMPDEST PUSH2 0x4F9 PUSH2 0x1EFF JUMP JUMPDEST SWAP1 PUSH2 0x1C8 PUSH2 0x506 PUSH1 0x40 MLOAD SWAP1 JUMP JUMPDEST SWAP3 DUP4 SWAP3 DUP4 PUSH2 0x4BA JUMP JUMPDEST PUSH2 0x517 PUSH1 0x0 DUP1 REVERT JUMPDEST PUSH2 0x4E6 JUMP JUMPDEST POP CALLVALUE PUSH2 0x537 JUMPI JUMPDEST PUSH2 0x376 PUSH2 0x531 CALLDATASIZE PUSH1 0x4 PUSH2 0x388 JUMP JUMPDEST SWAP2 PUSH2 0xDEB JUMP JUMPDEST PUSH2 0x53F PUSH1 0x0 DUP1 REVERT JUMPDEST PUSH2 0x523 JUMP JUMPDEST POP CALLVALUE PUSH2 0x561 JUMPI JUMPDEST PUSH2 0x1C8 PUSH2 0x2E7 PUSH2 0x55C CALLDATASIZE PUSH1 0x4 PUSH2 0x2A1 JUMP JUMPDEST PUSH2 0xA60 JUMP JUMPDEST PUSH2 0x569 PUSH1 0x0 DUP1 REVERT JUMPDEST PUSH2 0x54B JUMP JUMPDEST SWAP1 PUSH2 0x188 SWAP2 PUSH1 0x20 DUP2 DUP4 SUB SLT ISZERO PUSH2 0x31D JUMPI PUSH2 0x586 PUSH1 0x0 DUP1 REVERT JUMPDEST PUSH2 0x31D JUMP JUMPDEST POP CALLVALUE PUSH2 0x5B8 JUMPI JUMPDEST PUSH2 0x1C8 PUSH2 0x5A8 PUSH2 0x5A3 CALLDATASIZE PUSH1 0x4 PUSH2 0x56E JUMP JUMPDEST PUSH2 0x9D7 JUMP JUMPDEST PUSH1 0x40 MLOAD SWAP2 DUP3 SWAP2 DUP3 SWAP1 DUP2 MSTORE PUSH1 0x20 ADD SWAP1 JUMP JUMPDEST PUSH2 0x5C0 PUSH1 0x0 DUP1 REVERT JUMPDEST PUSH2 0x592 JUMP JUMPDEST POP CALLVALUE PUSH2 0x5E2 JUMPI JUMPDEST PUSH2 0x5D7 CALLDATASIZE PUSH1 0x4 PUSH2 0x1D9 JUMP JUMPDEST PUSH2 0x1C8 PUSH2 0x275 PUSH2 0xB94 JUMP JUMPDEST PUSH2 0x5EA PUSH1 0x0 DUP1 REVERT JUMPDEST PUSH2 0x5CC JUMP JUMPDEST DUP1 ISZERO ISZERO PUSH2 0x15E JUMP JUMPDEST SWAP1 POP CALLDATALOAD SWAP1 PUSH2 0x172 DUP3 PUSH2 0x5EF JUMP JUMPDEST SWAP2 SWAP1 PUSH2 0x188 SWAP1 PUSH1 0x40 DUP5 DUP3 SUB SLT PUSH2 0x628 JUMPI JUMPDEST PUSH2 0x61F DUP2 DUP6 PUSH2 0x31D JUMP JUMPDEST SWAP4 PUSH1 0x20 ADD PUSH2 0x5F7 JUMP JUMPDEST PUSH2 0x630 PUSH1 0x0 DUP1 REVERT JUMPDEST PUSH2 0x615 JUMP JUMPDEST POP CALLVALUE PUSH2 0x650 JUMPI JUMPDEST PUSH2 0x376 PUSH2 0x64A CALLDATASIZE PUSH1 0x4 PUSH2 0x604 JUMP JUMPDEST SWAP1 PUSH2 0xD16 JUMP JUMPDEST PUSH2 0x658 PUSH1 0x0 DUP1 REVERT JUMPDEST PUSH2 0x63C JUMP JUMPDEST POP PUSH4 0x4E487B71 PUSH1 0xE0 SHL PUSH1 0x0 MSTORE PUSH1 0x41 PUSH1 0x4 MSTORE PUSH1 0x24 PUSH1 0x0 REVERT JUMPDEST SWAP1 PUSH1 0x1F ADD PUSH1 0x1F NOT AND DUP2 ADD SWAP1 DUP2 LT PUSH8 0xFFFFFFFFFFFFFFFF DUP3 GT OR PUSH2 0x696 JUMPI PUSH1 0x40 MSTORE JUMP JUMPDEST PUSH2 0x69E PUSH2 0x65D JUMP JUMPDEST PUSH1 0x40 MSTORE JUMP JUMPDEST SWAP1 PUSH2 0x172 PUSH2 0x6B0 PUSH1 0x40 MLOAD SWAP1 JUMP JUMPDEST SWAP3 DUP4 PUSH2 0x674 JUMP JUMPDEST PUSH2 0x243 PUSH1 0x20 SWAP2 PUSH8 0xFFFFFFFFFFFFFFFF DUP2 GT PUSH2 0x6D6 JUMPI PUSH1 0x1F ADD PUSH1 0x1F NOT AND SWAP1 JUMP JUMPDEST PUSH2 0x20F PUSH2 0x65D JUMP JUMPDEST SWAP1 DUP3 PUSH1 0x0 SWAP4 SWAP3 DUP3 CALLDATACOPY ADD MSTORE JUMP JUMPDEST SWAP3 SWAP2 SWAP1 PUSH2 0x172 SWAP2 PUSH2 0x702 PUSH2 0x6FD DUP4 PUSH2 0x6B7 JUMP JUMPDEST PUSH2 0x6A3 JUMP JUMPDEST SWAP5 DUP3 DUP7 MSTORE PUSH1 0x20 DUP7 ADD SWAP2 DUP4 DUP3 ADD GT ISZERO PUSH2 0x6DE JUMPI PUSH2 0x71C PUSH1 0x0 DUP1 REVERT JUMPDEST PUSH2 0x6DE JUMP JUMPDEST SWAP1 PUSH2 0x188 SWAP2 DUP2 PUSH1 0x1F DUP3 ADD SLT ISZERO PUSH2 0x73D JUMPI JUMPDEST PUSH1 0x20 DUP2 CALLDATALOAD SWAP2 ADD PUSH2 0x6EA JUMP JUMPDEST PUSH2 0x745 PUSH1 0x0 DUP1 REVERT JUMPDEST PUSH2 0x732 JUMP JUMPDEST PUSH1 0x80 DUP2 DUP4 SUB SLT PUSH2 0x7A8 JUMPI JUMPDEST PUSH2 0x75F DUP3 DUP3 PUSH2 0x31D JUMP JUMPDEST SWAP3 PUSH2 0x188 PUSH2 0x770 DUP5 PUSH1 0x20 DUP6 ADD PUSH2 0x31D JUMP JUMPDEST SWAP4 PUSH2 0x77E DUP2 PUSH1 0x40 DUP7 ADD PUSH2 0x294 JUMP JUMPDEST SWAP4 PUSH1 0x60 DUP2 ADD CALLDATALOAD SWAP1 PUSH8 0xFFFFFFFFFFFFFFFF DUP3 GT PUSH2 0x79B JUMPI JUMPDEST ADD PUSH2 0x721 JUMP JUMPDEST PUSH2 0x7A3 PUSH1 0x0 DUP1 REVERT JUMPDEST PUSH2 0x795 JUMP JUMPDEST PUSH2 0x7B0 PUSH1 0x0 DUP1 REVERT JUMPDEST PUSH2 0x755 JUMP JUMPDEST POP CALLVALUE PUSH2 0x7D3 JUMPI JUMPDEST PUSH2 0x376 PUSH2 0x7CA CALLDATASIZE PUSH1 0x4 PUSH2 0x74A JUMP JUMPDEST SWAP3 SWAP2 SWAP1 SWAP2 PUSH2 0xDFB JUMP JUMPDEST PUSH2 0x7DB PUSH1 0x0 DUP1 REVERT JUMPDEST PUSH2 0x7BC JUMP JUMPDEST POP CALLVALUE PUSH2 0x7FD JUMPI JUMPDEST PUSH2 0x1C8 PUSH2 0x275 PUSH2 0x7F8 CALLDATASIZE PUSH1 0x4 PUSH2 0x2A1 JUMP JUMPDEST PUSH2 0x149A JUMP JUMPDEST PUSH2 0x805 PUSH1 0x0 DUP1 REVERT JUMPDEST PUSH2 0x7E7 JUMP JUMPDEST SWAP1 PUSH2 0x188 SWAP2 PUSH1 0x20 DUP2 DUP4 SUB SLT PUSH2 0x832 JUMPI JUMPDEST DUP1 CALLDATALOAD SWAP1 PUSH8 0xFFFFFFFFFFFFFFFF DUP3 GT PUSH2 0x79B JUMPI ADD PUSH2 0x721 JUMP JUMPDEST PUSH2 0x83A PUSH1 0x0 DUP1 REVERT JUMPDEST PUSH2 0x81A JUMP JUMPDEST POP CALLVALUE PUSH2 0x85C JUMPI JUMPDEST PUSH2 0x1C8 PUSH2 0x5A8 PUSH2 0x857 CALLDATASIZE PUSH1 0x4 PUSH2 0x80A JUMP JUMPDEST PUSH2 0x1AE1 JUMP JUMPDEST PUSH2 0x864 PUSH1 0x0 DUP1 REVERT JUMPDEST PUSH2 0x846 JUMP JUMPDEST SWAP2 SWAP1 PUSH2 0x188 SWAP1 PUSH1 0x40 DUP5 DUP3 SUB SLT PUSH2 0x88D JUMPI JUMPDEST PUSH2 0x884 DUP2 DUP6 PUSH2 0x31D JUMP JUMPDEST SWAP4 PUSH1 0x20 ADD PUSH2 0x31D JUMP JUMPDEST PUSH2 0x895 PUSH1 0x0 DUP1 REVERT JUMPDEST PUSH2 0x87A JUMP JUMPDEST POP CALLVALUE PUSH2 0x8B8 JUMPI JUMPDEST PUSH2 0x1C8 PUSH2 0x1B5 PUSH2 0x8B2 CALLDATASIZE PUSH1 0x4 PUSH2 0x869 JUMP JUMPDEST SWAP1 PUSH2 0xD21 JUMP JUMPDEST PUSH2 0x8C0 PUSH1 0x0 DUP1 REVERT JUMPDEST PUSH2 0x8A1 JUMP JUMPDEST PUSH4 0x80AC58CD PUSH1 0xE0 SHL PUSH1 0x1 PUSH1 0x1 PUSH1 0xE0 SHL SUB NOT DUP3 AND EQ SWAP1 DUP2 ISZERO PUSH2 0x8F5 JUMPI JUMPDEST DUP2 ISZERO PUSH2 0x8EB JUMPI POP SWAP1 JUMP JUMPDEST PUSH2 0x188 SWAP2 POP PUSH2 0x1671 JUMP JUMPDEST PUSH1 0x1 PUSH1 0x1 PUSH1 0xE0 SHL SUB NOT DUP2 AND PUSH4 0x5B5E139F PUSH1 0xE0 SHL EQ SWAP2 POP PUSH2 0x8E1 JUMP JUMPDEST PUSH2 0x2BE PUSH2 0x188 PUSH2 0x188 SWAP3 SWAP1 JUMP JUMPDEST PUSH2 0x188 SWAP1 PUSH2 0x910 JUMP JUMPDEST ISZERO PUSH2 0x92D JUMPI JUMP JUMPDEST PUSH1 0x40 MLOAD PUSH3 0x461BCD PUSH1 0xE5 SHL DUP2 MSTORE PUSH1 0x20 PUSH1 0x4 DUP3 ADD MSTORE PUSH1 0x29 PUSH1 0x24 DUP3 ADD MSTORE PUSH32 0x4552433732313A2061646472657373207A65726F206973206E6F742061207661 PUSH1 0x44 DUP3 ADD MSTORE PUSH9 0x3634B21037BBB732B9 PUSH1 0xB9 SHL PUSH1 0x64 DUP3 ADD MSTORE PUSH1 0x84 SWAP1 REVERT JUMPDEST SUB SWAP1 REVERT JUMPDEST PUSH2 0x188 SWAP1 PUSH2 0x2BE SWAP1 PUSH1 0x1 PUSH1 0x1 PUSH1 0xA0 SHL SUB AND DUP3 JUMP JUMPDEST PUSH2 0x188 SWAP1 PUSH2 0x988 JUMP JUMPDEST PUSH2 0x188 SWAP1 PUSH2 0x99C JUMP JUMPDEST SWAP1 PUSH2 0x9B8 SWAP1 PUSH2 0x9A5 JUMP JUMPDEST PUSH1 0x0 MSTORE PUSH1 0x20 MSTORE PUSH1 0x40 PUSH1 0x0 KECCAK256 SWAP1 JUMP JUMPDEST PUSH2 0x188 SWAP1 DUP2 JUMP JUMPDEST PUSH2 0x188 SWAP1 SLOAD PUSH2 0x9C6 JUMP JUMPDEST PUSH2 0xA0F PUSH2 0x188 SWAP2 PUSH2 0x9E6 PUSH1 0x0 SWAP1 JUMP JUMPDEST POP PUSH2 0xA08 PUSH2 0x9F7 PUSH2 0x2BE PUSH1 0x0 PUSH2 0x91D JUMP JUMPDEST PUSH1 0x1 PUSH1 0x1 PUSH1 0xA0 SHL SUB DUP4 AND EQ ISZERO PUSH2 0x926 JUMP JUMPDEST PUSH1 0x3 PUSH2 0x9AE JUMP JUMPDEST PUSH2 0x9CD JUMP JUMPDEST ISZERO PUSH2 0xA1B JUMPI JUMP JUMPDEST PUSH1 0x40 MLOAD PUSH3 0x461BCD PUSH1 0xE5 SHL DUP2 MSTORE PUSH1 0x20 PUSH1 0x4 DUP3 ADD MSTORE PUSH1 0x18 PUSH1 0x24 DUP3 ADD MSTORE PUSH32 0x4552433732313A20696E76616C696420746F6B656E2049440000000000000000 PUSH1 0x44 DUP3 ADD MSTORE PUSH1 0x64 SWAP1 REVERT JUMPDEST PUSH2 0xA6D SWAP1 PUSH1 0x0 JUMPDEST POP PUSH2 0xE9B JUMP JUMPDEST PUSH2 0x188 PUSH2 0xA7D PUSH2 0x2BE PUSH1 0x0 PUSH2 0x91D JUMP JUMPDEST PUSH1 0x1 PUSH1 0x1 PUSH1 0xA0 SHL SUB DUP4 AND EQ ISZERO PUSH2 0xA14 JUMP JUMPDEST POP PUSH4 0x4E487B71 PUSH1 0xE0 SHL PUSH1 0x0 MSTORE PUSH1 0x22 PUSH1 0x4 MSTORE PUSH1 0x24 PUSH1 0x0 REVERT JUMPDEST SWAP1 PUSH1 0x1 PUSH1 0x2 DUP4 DIV SWAP3 AND DUP1 ISZERO PUSH2 0xAC8 JUMPI JUMPDEST PUSH1 0x20 DUP4 LT EQ PUSH2 0xAC0 JUMPI JUMP JUMPDEST PUSH2 0x172 PUSH2 0xA8E JUMP JUMPDEST SWAP2 PUSH1 0x7F AND SWAP2 PUSH2 0xAB5 JUMP JUMPDEST DUP1 SLOAD PUSH1 0x0 SWAP4 SWAP3 SWAP2 PUSH2 0xAEF PUSH2 0xAE5 DUP4 PUSH2 0xAA5 JUMP JUMPDEST DUP1 DUP6 MSTORE SWAP4 PUSH1 0x20 ADD SWAP1 JUMP JUMPDEST SWAP2 PUSH1 0x1 DUP2 AND SWAP1 DUP2 ISZERO PUSH2 0xB41 JUMPI POP PUSH1 0x1 EQ PUSH2 0xB08 JUMPI POP POP POP JUMP JUMPDEST PUSH2 0xB1B SWAP2 SWAP3 SWAP4 SWAP5 POP PUSH1 0x0 MSTORE PUSH1 0x20 PUSH1 0x0 KECCAK256 SWAP1 JUMP JUMPDEST SWAP2 PUSH1 0x0 SWAP3 JUMPDEST DUP2 DUP5 LT PUSH2 0xB2D JUMPI POP POP ADD SWAP1 JUMP JUMPDEST DUP1 SLOAD DUP5 DUP5 ADD MSTORE PUSH1 0x20 SWAP1 SWAP4 ADD SWAP3 PUSH1 0x1 ADD PUSH2 0xB20 JUMP JUMPDEST SWAP3 SWAP5 SWAP6 POP POP POP PUSH1 0xFF NOT AND DUP3 MSTORE ISZERO ISZERO PUSH1 0x20 MUL ADD SWAP1 JUMP JUMPDEST SWAP1 PUSH2 0x188 SWAP2 PUSH2 0xAD2 JUMP JUMPDEST SWAP1 PUSH2 0x172 PUSH2 0xB7A SWAP3 PUSH2 0xB71 PUSH1 0x40 MLOAD SWAP1 JUMP JUMPDEST SWAP4 DUP5 DUP1 SWAP3 PUSH2 0xB56 JUMP JUMPDEST SUB DUP4 PUSH2 0x674 JUMP JUMPDEST PUSH2 0x188 SWAP1 PUSH2 0xB60 JUMP JUMPDEST PUSH2 0x188 PUSH1 0x0 PUSH2 0xB81 JUMP JUMPDEST PUSH2 0x188 PUSH1 0x1 PUSH2 0xB81 JUMP JUMPDEST ISZERO PUSH2 0xBA5 JUMPI JUMP JUMPDEST PUSH1 0x40 MLOAD PUSH3 0x461BCD PUSH1 0xE5 SHL DUP2 MSTORE PUSH1 0x20 PUSH1 0x4 DUP3 ADD MSTORE PUSH1 0x21 PUSH1 0x24 DUP3 ADD MSTORE PUSH32 0x4552433732313A20617070726F76616C20746F2063757272656E74206F776E65 PUSH1 0x44 DUP3 ADD MSTORE PUSH1 0x39 PUSH1 0xF9 SHL PUSH1 0x64 DUP3 ADD MSTORE PUSH1 0x84 SWAP1 REVERT JUMPDEST ISZERO PUSH2 0xBFB JUMPI JUMP JUMPDEST PUSH1 0x40 MLOAD PUSH3 0x461BCD PUSH1 0xE5 SHL DUP2 MSTORE PUSH1 0x20 PUSH1 0x4 DUP3 ADD MSTORE PUSH1 0x3D PUSH1 0x24 DUP3 ADD MSTORE PUSH32 0x4552433732313A20617070726F76652063616C6C6572206973206E6F7420746F PUSH1 0x44 DUP3 ADD MSTORE PUSH32 0x6B656E206F776E6572206F7220617070726F76656420666F7220616C6C000000 PUSH1 0x64 DUP3 ADD MSTORE PUSH1 0x84 SWAP1 REVERT JUMPDEST SWAP1 PUSH2 0x172 SWAP2 PUSH2 0xCB1 PUSH2 0xC77 DUP4 PUSH2 0xA60 JUMP JUMPDEST PUSH2 0xC95 PUSH1 0x1 PUSH1 0x1 PUSH1 0xA0 SHL SUB DUP3 AND PUSH1 0x1 PUSH1 0x1 PUSH1 0xA0 SHL SUB DUP6 AND EQ ISZERO PUSH2 0xB9E JUMP JUMPDEST CALLER PUSH1 0x1 PUSH1 0x1 PUSH1 0xA0 SHL SUB DUP3 AND DUP2 EQ SWAP2 DUP3 ISZERO PUSH2 0xCB6 JUMPI JUMPDEST POP POP PUSH2 0xBF4 JUMP JUMPDEST PUSH2 0x1187 JUMP JUMPDEST PUSH2 0xCC0 SWAP3 POP PUSH2 0xD21 JUMP JUMPDEST CODESIZE DUP1 PUSH2 0xCAA JUMP JUMPDEST PUSH2 0x188 PUSH2 0x188 PUSH2 0x188 SWAP3 SWAP1 JUMP JUMPDEST SWAP1 PUSH2 0x9B8 SWAP1 PUSH2 0xCC7 JUMP JUMPDEST PUSH2 0x188 SWAP1 PUSH2 0x2BE JUMP JUMPDEST PUSH2 0x188 SWAP1 SLOAD PUSH2 0xCDE JUMP JUMPDEST PUSH2 0xD11 PUSH2 0x188 SWAP2 PUSH2 0xD00 PUSH1 0x0 SWAP1 JUMP JUMPDEST POP PUSH2 0xD0A DUP2 PUSH2 0x12B8 JUMP JUMPDEST PUSH1 0x4 PUSH2 0xCD4 JUMP JUMPDEST PUSH2 0xCE7 JUMP JUMPDEST PUSH2 0x172 SWAP2 SWAP1 CALLER PUSH2 0x123D JUMP JUMPDEST PUSH2 0x188 SWAP2 PUSH2 0xD3C PUSH2 0xD41 SWAP3 PUSH2 0xD34 PUSH1 0x0 SWAP1 JUMP JUMPDEST POP PUSH1 0x5 PUSH2 0x9AE JUMP JUMPDEST PUSH2 0x9AE JUMP JUMPDEST SLOAD PUSH1 0xFF AND SWAP1 JUMP JUMPDEST ISZERO PUSH2 0xD4F JUMPI JUMP JUMPDEST PUSH1 0x40 MLOAD PUSH3 0x461BCD PUSH1 0xE5 SHL DUP2 MSTORE PUSH1 0x20 PUSH1 0x4 DUP3 ADD MSTORE PUSH1 0x2D PUSH1 0x24 DUP3 ADD MSTORE PUSH32 0x4552433732313A2063616C6C6572206973206E6F7420746F6B656E206F776E65 PUSH1 0x44 DUP3 ADD MSTORE PUSH13 0x1C881BDC88185C1C1C9BDD9959 PUSH1 0x9A SHL PUSH1 0x64 DUP3 ADD MSTORE PUSH1 0x84 SWAP1 REVERT JUMPDEST PUSH2 0x172 SWAP3 SWAP2 SWAP1 PUSH2 0xDC2 PUSH2 0xDBD DUP5 CALLER PUSH2 0xEB2 JUMP JUMPDEST PUSH2 0xD48 JUMP JUMPDEST PUSH2 0x106A JUMP JUMPDEST SWAP1 PUSH2 0xDD4 PUSH2 0x6FD DUP4 PUSH2 0x6B7 JUMP JUMPDEST SWAP2 DUP3 MSTORE JUMP JUMPDEST PUSH2 0x188 PUSH1 0x0 PUSH2 0xDC7 JUMP JUMPDEST PUSH2 0x188 PUSH2 0xDD9 JUMP JUMPDEST SWAP1 SWAP2 PUSH2 0x172 SWAP3 PUSH2 0xDF9 PUSH2 0xDE3 JUMP JUMPDEST SWAP3 JUMPDEST PUSH2 0x172 SWAP4 SWAP3 SWAP2 SWAP1 PUSH2 0xE0F PUSH2 0xDBD DUP5 CALLER PUSH2 0xEB2 JUMP JUMPDEST PUSH2 0xE7C JUMP JUMPDEST ISZERO PUSH2 0xE1B JUMPI JUMP JUMPDEST PUSH1 0x40 MLOAD JUMPDEST PUSH3 0x461BCD PUSH1 0xE5 SHL DUP2 MSTORE PUSH1 0x20 PUSH1 0x4 DUP3 ADD MSTORE PUSH1 0x32 PUSH1 0x24 DUP3 ADD MSTORE PUSH32 0x4552433732313A207472616E7366657220746F206E6F6E204552433732315265 PUSH1 0x44 DUP3 ADD MSTORE PUSH18 0x31B2B4BB32B91034B6B83632B6B2B73A32B9 PUSH1 0x71 SHL PUSH1 0x64 DUP3 ADD MSTORE PUSH1 0x84 SWAP1 REVERT JUMPDEST SWAP2 PUSH2 0x172 SWAP4 SWAP2 PUSH2 0xE96 SWAP4 PUSH2 0xE91 DUP4 DUP4 DUP4 PUSH2 0x106A JUMP JUMPDEST PUSH2 0x1363 JUMP JUMPDEST PUSH2 0xE14 JUMP JUMPDEST PUSH2 0xD11 PUSH2 0x188 SWAP2 PUSH2 0xEAA PUSH1 0x0 SWAP1 JUMP JUMPDEST POP PUSH1 0x2 PUSH2 0xCD4 JUMP JUMPDEST PUSH2 0xEBB DUP3 PUSH2 0xA60 JUMP JUMPDEST SWAP2 PUSH1 0x1 PUSH1 0x1 PUSH1 0xA0 SHL SUB DUP4 AND PUSH1 0x1 PUSH1 0x1 PUSH1 0xA0 SHL SUB DUP4 AND EQ SWAP3 DUP4 ISZERO PUSH2 0xF15 JUMPI JUMPDEST POP DUP3 ISZERO PUSH2 0xEE5 JUMPI POP POP SWAP1 JUMP JUMPDEST PUSH2 0xF11 SWAP2 SWAP3 POP PUSH2 0xEF7 PUSH2 0xF04 SWAP2 PUSH2 0xCF1 JUMP JUMPDEST SWAP3 PUSH1 0x1 PUSH1 0x1 PUSH1 0xA0 SHL SUB AND SWAP1 JUMP JUMPDEST SWAP2 PUSH1 0x1 PUSH1 0x1 PUSH1 0xA0 SHL SUB AND SWAP1 JUMP JUMPDEST EQ SWAP1 JUMP JUMPDEST PUSH2 0xF22 SWAP2 SWAP4 POP DUP3 SWAP1 PUSH2 0xD21 JUMP JUMPDEST SWAP2 CODESIZE PUSH2 0xED9 JUMP JUMPDEST ISZERO PUSH2 0xF30 JUMPI JUMP JUMPDEST PUSH1 0x40 MLOAD PUSH3 0x461BCD PUSH1 0xE5 SHL DUP2 MSTORE PUSH1 0x20 PUSH1 0x4 DUP3 ADD MSTORE PUSH1 0x25 PUSH1 0x24 DUP3 ADD MSTORE PUSH32 0x4552433732313A207472616E736665722066726F6D20696E636F727265637420 PUSH1 0x44 DUP3 ADD MSTORE PUSH5 0x37BBB732B9 PUSH1 0xD9 SHL PUSH1 0x64 DUP3 ADD MSTORE PUSH1 0x84 SWAP1 REVERT JUMPDEST ISZERO PUSH2 0xF8A JUMPI JUMP JUMPDEST PUSH1 0x40 MLOAD PUSH3 0x461BCD PUSH1 0xE5 SHL DUP2 MSTORE PUSH1 0x20 PUSH1 0x4 DUP3 ADD MSTORE PUSH1 0x24 DUP1 DUP3 ADD MSTORE PUSH32 0x4552433732313A207472616E7366657220746F20746865207A65726F20616464 PUSH1 0x44 DUP3 ADD MSTORE PUSH4 0x72657373 PUSH1 0xE0 SHL PUSH1 0x64 DUP3 ADD MSTORE PUSH1 0x84 SWAP1 REVERT JUMPDEST SWAP2 PUSH1 0x1 PUSH1 0x1 PUSH1 0xA0 SHL SUB PUSH1 0x8 SWAP3 SWAP1 SWAP3 MUL SWAP2 DUP3 SHL SWAP2 SHL JUMPDEST SWAP2 DUP2 NOT AND SWAP2 AND OR SWAP1 JUMP JUMPDEST SWAP2 SWAP1 PUSH2 0x100B PUSH2 0x188 PUSH2 0x1013 SWAP4 PUSH2 0x9A5 JUMP JUMPDEST SWAP1 DUP4 SLOAD PUSH2 0xFDB JUMP JUMPDEST SWAP1 SSTORE JUMP JUMPDEST PUSH2 0x172 SWAP2 PUSH1 0x0 SWAP2 PUSH2 0xFFA JUMP JUMPDEST SWAP1 PUSH1 0x0 NOT SWAP1 PUSH2 0xFF0 JUMP JUMPDEST SWAP1 PUSH2 0x103D PUSH2 0x188 PUSH2 0x1013 SWAP3 PUSH2 0xCC7 JUMP JUMPDEST DUP3 SLOAD PUSH2 0x1023 JUMP JUMPDEST SWAP1 PUSH1 0x1 PUSH1 0x1 PUSH1 0xA0 SHL SUB SWAP1 PUSH2 0xFF0 JUMP JUMPDEST SWAP1 PUSH2 0x1063 PUSH2 0x188 PUSH2 0x1013 SWAP3 PUSH2 0x9A5 JUMP JUMPDEST DUP3 SLOAD PUSH2 0x1044 JUMP JUMPDEST SWAP2 SWAP1 PUSH2 0x1090 PUSH2 0x1078 DUP4 PUSH2 0xA60 JUMP JUMPDEST PUSH2 0x108A PUSH1 0x1 PUSH1 0x1 PUSH1 0xA0 SHL SUB DUP7 AND PUSH2 0xF04 JUMP JUMPDEST EQ PUSH2 0xF29 JUMP JUMPDEST PUSH2 0x10E3 PUSH1 0x0 PUSH2 0x10B5 PUSH2 0x10A4 PUSH2 0x2BE DUP4 PUSH2 0x91D JUMP JUMPDEST PUSH1 0x1 PUSH1 0x1 PUSH1 0xA0 SHL SUB DUP6 AND EQ ISZERO PUSH2 0xF83 JUMP JUMPDEST PUSH2 0x10D3 PUSH2 0x10C1 DUP6 PUSH2 0xA60 JUMP JUMPDEST PUSH2 0x108A PUSH1 0x1 PUSH1 0x1 PUSH1 0xA0 SHL SUB DUP9 AND PUSH2 0xF04 JUMP JUMPDEST PUSH2 0x10DE DUP5 PUSH1 0x4 PUSH2 0xCD4 JUMP JUMPDEST PUSH2 0x1017 JUMP JUMPDEST PUSH2 0x1127 PUSH2 0x10F0 PUSH1 0x1 PUSH2 0xCC7 JUMP JUMPDEST PUSH2 0x1117 PUSH2 0x111D DUP5 PUSH1 0x3 PUSH2 0xD3C PUSH2 0x1106 DUP11 DUP4 PUSH2 0x9AE JUMP JUMPDEST PUSH2 0x1117 DUP8 PUSH2 0x1113 DUP4 PUSH2 0x9CD JUMP JUMPDEST SUB SWAP1 JUMP JUMPDEST SWAP1 PUSH2 0x102D JUMP JUMPDEST SWAP2 PUSH2 0x243 DUP4 PUSH2 0x9CD JUMP JUMPDEST PUSH2 0x113B DUP2 PUSH2 0x1136 DUP5 PUSH1 0x2 PUSH2 0xCD4 JUMP JUMPDEST PUSH2 0x1053 JUMP JUMPDEST PUSH2 0x1177 PUSH2 0x1171 PUSH2 0x116B PUSH32 0xDDF252AD1BE2C89B69C2B068FC378DAA952BA7F163C4A11628F55A4DF523B3EF SWAP6 PUSH2 0x9A5 JUMP JUMPDEST SWAP3 PUSH2 0x9A5 JUMP JUMPDEST SWAP3 PUSH2 0xCC7 JUMP JUMPDEST SWAP3 PUSH2 0x1181 PUSH1 0x40 MLOAD SWAP1 JUMP JUMPDEST PUSH1 0x0 SWAP1 LOG4 JUMP JUMPDEST SWAP1 PUSH2 0x1197 DUP3 PUSH2 0x1136 DUP4 PUSH1 0x4 PUSH2 0xCD4 JUMP JUMPDEST PUSH2 0x11A0 DUP2 PUSH2 0xA60 JUMP JUMPDEST SWAP2 PUSH2 0x1177 PUSH2 0x1171 PUSH2 0x116B PUSH32 0x8C5BE1E5EBEC7D5BD14F71427D1E84F3DD0314C0F7B2291E5B200AC8C7C3B925 SWAP6 PUSH2 0x9A5 JUMP JUMPDEST ISZERO PUSH2 0x11D8 JUMPI JUMP JUMPDEST PUSH1 0x40 MLOAD PUSH3 0x461BCD PUSH1 0xE5 SHL DUP2 MSTORE PUSH1 0x20 PUSH1 0x4 DUP3 ADD MSTORE PUSH1 0x19 PUSH1 0x24 DUP3 ADD MSTORE PUSH32 0x4552433732313A20617070726F766520746F2063616C6C657200000000000000 PUSH1 0x44 DUP3 ADD MSTORE PUSH1 0x64 SWAP1 REVERT JUMPDEST SWAP1 PUSH1 0xFF SWAP1 PUSH2 0xFF0 JUMP JUMPDEST SWAP1 PUSH2 0x1236 PUSH2 0x188 PUSH2 0x1013 SWAP3 ISZERO ISZERO SWAP1 JUMP JUMPDEST DUP3 SLOAD PUSH2 0x121D JUMP JUMPDEST PUSH2 0x125B PUSH1 0x1 PUSH1 0x1 PUSH1 0xA0 SHL SUB DUP4 AND PUSH1 0x1 PUSH1 0x1 PUSH1 0xA0 SHL SUB DUP4 AND EQ ISZERO PUSH2 0x11D1 JUMP JUMPDEST PUSH2 0x1273 DUP4 PUSH2 0x126E DUP5 PUSH2 0xD3C DUP6 PUSH1 0x5 PUSH2 0x9AE JUMP JUMPDEST PUSH2 0x1226 JUMP JUMPDEST PUSH2 0x12B3 PUSH2 0x12A9 PUSH2 0x12A3 PUSH32 0x17307EAB39AB6107E8899845AD3D59BD9653F200F220920489CA2B5937696C31 SWAP4 PUSH2 0x9A5 JUMP JUMPDEST SWAP4 PUSH2 0x9A5 JUMP JUMPDEST SWAP4 PUSH2 0x1B9 PUSH1 0x40 MLOAD SWAP1 JUMP JUMPDEST SUB SWAP1 LOG3 JUMP JUMPDEST PUSH2 0x12C4 PUSH2 0x172 SWAP2 PUSH2 0x12C9 JUMP JUMPDEST PUSH2 0xA14 JUMP JUMPDEST PUSH2 0x12D4 SWAP1 PUSH1 0x0 PUSH2 0xA67 JUMP JUMPDEST PUSH2 0x12E4 PUSH2 0xF04 PUSH2 0x2BE PUSH1 0x0 PUSH2 0x91D JUMP JUMPDEST EQ ISZERO SWAP1 JUMP JUMPDEST SWAP1 POP MLOAD SWAP1 PUSH2 0x172 DUP3 PUSH2 0x152 JUMP JUMPDEST SWAP1 PUSH2 0x188 SWAP2 PUSH1 0x20 DUP2 DUP4 SUB SLT ISZERO PUSH2 0x12E9 JUMPI PUSH2 0x130E PUSH1 0x0 DUP1 REVERT JUMPDEST PUSH2 0x12E9 JUMP JUMPDEST PUSH1 0x1 PUSH1 0x1 PUSH1 0xA0 SHL SUB SWAP2 DUP3 AND DUP2 MSTORE SWAP2 AND PUSH1 0x20 DUP3 ADD MSTORE PUSH1 0x40 DUP2 ADD SWAP2 SWAP1 SWAP2 MSTORE PUSH1 0x80 PUSH1 0x60 DUP3 ADD DUP2 SWAP1 MSTORE PUSH2 0x188 SWAP3 SWAP2 ADD SWAP1 PUSH2 0x219 JUMP JUMPDEST RETURNDATASIZE ISZERO PUSH2 0x135E JUMPI PUSH2 0x1353 RETURNDATASIZE PUSH2 0xDC7 JUMP JUMPDEST SWAP1 RETURNDATASIZE PUSH1 0x0 PUSH1 0x20 DUP5 ADD RETURNDATACOPY JUMP JUMPDEST PUSH1 0x60 SWAP1 JUMP JUMPDEST SWAP2 SWAP1 SWAP4 SWAP3 PUSH2 0x136F PUSH1 0x0 SWAP1 JUMP JUMPDEST SWAP5 PUSH2 0x1379 DUP2 PUSH2 0x157E JUMP JUMPDEST ISZERO PUSH2 0x145B JUMPI SWAP1 PUSH2 0x13C0 PUSH1 0x0 PUSH2 0x1398 PUSH2 0x1393 PUSH1 0x20 SWAP7 SWAP6 PUSH2 0x9A5 JUMP JUMPDEST PUSH2 0x9A5 JUMP JUMPDEST SWAP3 PUSH2 0x13CB PUSH4 0x150B7A02 SWAP2 PUSH2 0x13A9 CALLER SWAP1 JUMP JUMPDEST SWAP7 PUSH2 0x13B3 PUSH1 0x40 MLOAD SWAP1 JUMP JUMPDEST SWAP10 DUP11 SWAP9 DUP10 SWAP8 DUP9 SWAP7 PUSH1 0xE0 SHL SWAP1 JUMP JUMPDEST DUP7 MSTORE PUSH1 0x4 DUP7 ADD PUSH2 0x1313 JUMP JUMPDEST SUB SWAP3 GAS CALL PUSH1 0x0 SWAP2 DUP2 PUSH2 0x142B JUMPI JUMPDEST POP PUSH2 0x140E JUMPI POP PUSH2 0x13E6 PUSH2 0x1344 JUMP JUMPDEST DUP1 MLOAD PUSH2 0x13F9 PUSH2 0x13F5 PUSH1 0x0 PUSH2 0xCC7 JUMP JUMPDEST SWAP2 SWAP1 JUMP JUMPDEST SUB PUSH2 0x1406 JUMPI PUSH1 0x40 MLOAD PUSH2 0xE1F JUMP JUMPDEST DUP1 MLOAD SWAP1 PUSH1 0x20 ADD REVERT JUMPDEST SWAP1 SWAP2 POP PUSH2 0xF11 PUSH4 0xA85BD01 PUSH1 0xE1 SHL JUMPDEST SWAP2 PUSH1 0x1 PUSH1 0x1 PUSH1 0xE0 SHL SUB NOT AND SWAP1 JUMP JUMPDEST PUSH2 0x144D SWAP2 SWAP3 POP PUSH1 0x20 RETURNDATASIZE DUP2 GT PUSH2 0x1454 JUMPI JUMPDEST PUSH2 0x1445 DUP2 DUP4 PUSH2 0x674 JUMP JUMPDEST DUP2 ADD SWAP1 PUSH2 0x12F6 JUMP JUMPDEST SWAP1 CODESIZE PUSH2 0x13D8 JUMP JUMPDEST POP RETURNDATASIZE PUSH2 0x143B JUMP JUMPDEST POP PUSH1 0x1 SWAP5 POP POP POP POP JUMP JUMPDEST PUSH2 0x243 PUSH2 0x147D SWAP3 PUSH1 0x20 SWAP3 PUSH2 0x1477 DUP2 MLOAD SWAP1 JUMP JUMPDEST SWAP5 DUP6 SWAP3 SWAP1 JUMP JUMPDEST SWAP4 DUP5 SWAP2 ADD PUSH2 0x1EC JUMP JUMPDEST PUSH2 0x1494 SWAP1 PUSH2 0x188 SWAP4 SWAP3 PUSH2 0x1465 JUMP JUMPDEST SWAP1 PUSH2 0x1465 JUMP JUMPDEST PUSH2 0x14A3 DUP2 PUSH2 0x12B8 JUMP JUMPDEST PUSH2 0x14B6 PUSH2 0x14B1 DUP3 PUSH1 0x6 PUSH2 0xCD4 JUMP JUMPDEST PUSH2 0xB81 JUMP JUMPDEST PUSH2 0x14BE PUSH2 0x1576 JUMP JUMPDEST DUP1 MLOAD PUSH1 0x0 SWAP1 PUSH2 0x14CF PUSH2 0x13F5 DUP4 PUSH2 0xCC7 JUMP JUMPDEST EQ PUSH2 0x1522 JUMPI PUSH2 0x14E2 PUSH2 0x13F5 PUSH2 0x1171 DUP6 MLOAD SWAP1 JUMP JUMPDEST GT PUSH2 0x14F2 JUMPI POP POP PUSH2 0x188 SWAP1 PUSH2 0x1529 JUMP JUMPDEST PUSH2 0x188 SWAP3 POP PUSH2 0x1516 SWAP2 PUSH2 0x188 SWAP2 PUSH2 0x1508 PUSH1 0x40 MLOAD SWAP1 JUMP JUMPDEST SWAP4 DUP5 SWAP3 PUSH1 0x20 DUP5 ADD SWAP3 DUP4 PUSH2 0x1486 JUMP JUMPDEST SWAP1 DUP2 SUB DUP3 MSTORE SUB DUP3 PUSH2 0x674 JUMP JUMPDEST POP POP SWAP1 POP SWAP1 JUMP JUMPDEST PUSH2 0x1532 DUP2 PUSH2 0x12B8 JUMP JUMPDEST PUSH2 0x153A PUSH2 0x1576 JUMP JUMPDEST DUP1 MLOAD PUSH2 0x1549 PUSH2 0x13F5 PUSH1 0x0 PUSH2 0xCC7 JUMP JUMPDEST GT ISZERO PUSH2 0x156C JUMPI PUSH2 0x188 PUSH2 0x1516 SWAP2 PUSH2 0x1562 PUSH2 0x188 SWAP5 PUSH2 0x15E5 JUMP JUMPDEST SWAP1 PUSH2 0x1508 PUSH1 0x40 MLOAD SWAP1 JUMP JUMPDEST POP POP PUSH2 0x188 PUSH2 0xDE3 JUMP JUMPDEST PUSH2 0x188 PUSH2 0xDE3 JUMP JUMPDEST EXTCODESIZE PUSH2 0x158C PUSH2 0x13F5 PUSH1 0x0 PUSH2 0xCC7 JUMP JUMPDEST GT SWAP1 JUMP JUMPDEST CALLDATASIZE SWAP1 CALLDATACOPY JUMP JUMPDEST SWAP1 PUSH2 0x172 PUSH2 0x15AB PUSH2 0x15A5 DUP5 PUSH2 0xDC7 JUMP JUMPDEST SWAP4 PUSH2 0x6B7 JUMP JUMPDEST PUSH1 0x1F NOT ADD PUSH1 0x20 DUP5 ADD PUSH2 0x1590 JUMP JUMPDEST POP PUSH4 0x4E487B71 PUSH1 0xE0 SHL PUSH1 0x0 MSTORE PUSH1 0x12 PUSH1 0x4 MSTORE PUSH1 0x24 PUSH1 0x0 REVERT JUMPDEST DUP2 ISZERO PUSH2 0x15D9 JUMPI DIV SWAP1 JUMP JUMPDEST PUSH2 0x15E1 PUSH2 0x15B8 JUMP JUMPDEST DIV SWAP1 JUMP JUMPDEST PUSH2 0x15EE DUP2 PUSH2 0x1681 JUMP JUMPDEST SWAP1 PUSH2 0x15FE PUSH1 0x1 SWAP3 PUSH2 0x243 DUP5 PUSH2 0xCC7 JUMP JUMPDEST SWAP2 DUP1 PUSH2 0x1609 DUP5 PUSH2 0x1595 JUMP JUMPDEST SWAP4 PUSH1 0x20 ADD DUP5 ADD SWAP1 JUMPDEST PUSH2 0x161C JUMPI JUMPDEST POP POP POP SWAP1 JUMP JUMPDEST PUSH2 0x1650 SWAP1 PUSH1 0x0 NOT ADD SWAP3 PUSH16 0x181899199A1A9B1B9C1CB0B131B232B3 PUSH1 0x81 SHL PUSH1 0xA DUP3 MOD BYTE DUP5 MSTORE8 PUSH2 0x164A PUSH1 0xA PUSH2 0xCC7 JUMP JUMPDEST SWAP1 PUSH2 0x15CF JUMP JUMPDEST SWAP1 DUP2 PUSH2 0x165F PUSH2 0x13F5 PUSH1 0x0 PUSH2 0xCC7 JUMP JUMPDEST EQ PUSH2 0x166C JUMPI SWAP1 SWAP2 DUP2 PUSH2 0x1611 JUMP JUMPDEST PUSH2 0x1616 JUMP JUMPDEST PUSH2 0xF11 PUSH4 0x1FFC9A7 PUSH1 0xE0 SHL PUSH2 0x141D JUMP JUMPDEST PUSH2 0x168B PUSH1 0x0 PUSH2 0xCC7 JUMP JUMPDEST SWAP1 PUSH27 0x184F03E93FF9F4DAA797ED6E38ED64BF6A1F010000000000000000 PUSH2 0x16B1 DUP2 PUSH2 0xCC7 JUMP JUMPDEST DUP3 LT ISZERO PUSH2 0x1803 JUMPI JUMPDEST POP PUSH14 0x4EE2D6D415B85ACEF8100000000 PUSH2 0x16D2 DUP2 PUSH2 0xCC7 JUMP JUMPDEST DUP3 LT ISZERO PUSH2 0x17E1 JUMPI JUMPDEST POP PUSH7 0x2386F26FC10000 PUSH2 0x16EC DUP2 PUSH2 0xCC7 JUMP JUMPDEST DUP3 LT ISZERO PUSH2 0x17BF JUMPI JUMPDEST POP PUSH4 0x5F5E100 PUSH2 0x1703 DUP2 PUSH2 0xCC7 JUMP JUMPDEST DUP3 LT ISZERO PUSH2 0x179D JUMPI JUMPDEST POP PUSH2 0x2710 PUSH2 0x1718 DUP2 PUSH2 0xCC7 JUMP JUMPDEST DUP3 LT ISZERO PUSH2 0x177B JUMPI JUMPDEST POP PUSH1 0x64 PUSH2 0x172C DUP2 PUSH2 0xCC7 JUMP JUMPDEST DUP3 LT ISZERO PUSH2 0x1759 JUMPI JUMPDEST POP PUSH2 0x1742 PUSH2 0x13F5 PUSH1 0xA PUSH2 0xCC7 JUMP JUMPDEST LT ISZERO PUSH2 0x174B JUMPI SWAP1 JUMP JUMPDEST PUSH2 0x188 SWAP1 PUSH2 0x243 PUSH1 0x1 PUSH2 0xCC7 JUMP JUMPDEST PUSH2 0x1774 SWAP2 PUSH2 0x164A PUSH2 0x1769 SWAP3 PUSH2 0xCC7 JUMP JUMPDEST SWAP2 PUSH2 0x243 PUSH1 0x2 PUSH2 0xCC7 JUMP JUMPDEST SWAP1 CODESIZE PUSH2 0x1734 JUMP JUMPDEST PUSH2 0x1796 SWAP2 PUSH2 0x164A PUSH2 0x178B SWAP3 PUSH2 0xCC7 JUMP JUMPDEST SWAP2 PUSH2 0x243 PUSH1 0x4 PUSH2 0xCC7 JUMP JUMPDEST SWAP1 CODESIZE PUSH2 0x1720 JUMP JUMPDEST PUSH2 0x17B8 SWAP2 PUSH2 0x164A PUSH2 0x17AD SWAP3 PUSH2 0xCC7 JUMP JUMPDEST SWAP2 PUSH2 0x243 PUSH1 0x8 PUSH2 0xCC7 JUMP JUMPDEST SWAP1 CODESIZE PUSH2 0x170B JUMP JUMPDEST PUSH2 0x17DA SWAP2 PUSH2 0x164A PUSH2 0x17CF SWAP3 PUSH2 0xCC7 JUMP JUMPDEST SWAP2 PUSH2 0x243 PUSH1 0x10 PUSH2 0xCC7 JUMP JUMPDEST SWAP1 CODESIZE PUSH2 0x16F4 JUMP JUMPDEST PUSH2 0x17FC SWAP2 PUSH2 0x164A PUSH2 0x17F1 SWAP3 PUSH2 0xCC7 JUMP JUMPDEST SWAP2 PUSH2 0x243 PUSH1 0x20 PUSH2 0xCC7 JUMP JUMPDEST SWAP1 CODESIZE PUSH2 0x16DA JUMP JUMPDEST PUSH2 0x181E SWAP2 PUSH2 0x164A PUSH2 0x1813 SWAP3 PUSH2 0xCC7 JUMP JUMPDEST SWAP2 PUSH2 0x243 PUSH1 0x40 PUSH2 0xCC7 JUMP JUMPDEST SWAP1 CODESIZE PUSH2 0x16B9 JUMP JUMPDEST POP PUSH4 0x4E487B71 PUSH1 0xE0 SHL PUSH1 0x0 MSTORE PUSH1 0x11 PUSH1 0x4 MSTORE PUSH1 0x24 PUSH1 0x0 REVERT JUMPDEST PUSH1 0x1 SWAP1 PUSH1 0x0 NOT DUP2 EQ PUSH2 0x184C JUMPI ADD SWAP1 JUMP JUMPDEST PUSH2 0x243 PUSH2 0x1825 JUMP JUMPDEST POP PUSH4 0x4E487B71 PUSH1 0xE0 SHL PUSH1 0x0 MSTORE PUSH1 0x32 PUSH1 0x4 MSTORE PUSH1 0x24 PUSH1 0x0 REVERT JUMPDEST PUSH2 0x188B PUSH1 0x1 SWAP2 PUSH2 0x1879 DUP2 SLOAD SWAP1 JUMP JUMPDEST DUP5 LT ISZERO PUSH2 0x1894 JUMPI PUSH1 0x0 MSTORE PUSH1 0x20 PUSH1 0x0 KECCAK256 SWAP1 JUMP JUMPDEST SWAP2 MUL ADD SWAP1 PUSH1 0x0 SWAP1 JUMP JUMPDEST PUSH2 0x189C PUSH2 0x1854 JUMP JUMPDEST PUSH1 0x0 MSTORE PUSH1 0x20 PUSH1 0x0 KECCAK256 SWAP1 JUMP JUMPDEST PUSH2 0x188 SWAP2 PUSH1 0x8 MUL SHR PUSH2 0x2BE JUMP JUMPDEST SWAP1 PUSH2 0x188 SWAP2 SLOAD PUSH2 0x18A7 JUMP JUMPDEST PUSH1 0x20 DUP1 DUP3 MSTORE PUSH1 0x26 SWAP1 DUP3 ADD MSTORE PUSH32 0x4F6E6C7920746865206F776E65722063616E2063616C6C20746869732066756E PUSH1 0x40 DUP3 ADD MSTORE PUSH6 0x31BA34B7B717 PUSH1 0xD1 SHL PUSH1 0x60 DUP3 ADD MSTORE PUSH1 0x80 ADD SWAP1 JUMP JUMPDEST ISZERO PUSH2 0x190C JUMPI JUMP JUMPDEST PUSH1 0x40 MLOAD PUSH3 0x461BCD PUSH1 0xE5 SHL DUP2 MSTORE DUP1 PUSH2 0x984 PUSH1 0x4 DUP3 ADD PUSH2 0x18BF JUMP JUMPDEST SWAP1 PUSH1 0x0 SWAP2 PUSH2 0x1932 DUP4 PUSH2 0xCC7 JUMP JUMPDEST PUSH1 0x8 PUSH2 0x193F PUSH2 0x188 DUP3 SLOAD SWAP1 JUMP JUMPDEST DUP3 LT ISZERO PUSH2 0x19C2 JUMPI PUSH2 0x1960 PUSH2 0xF04 PUSH2 0x2BE PUSH2 0x195A DUP6 CALLER SWAP6 PUSH2 0x186B JUMP JUMPDEST SWAP1 PUSH2 0x18B4 JUMP JUMPDEST EQ PUSH2 0x1973 JUMPI PUSH2 0x196E SWAP1 PUSH2 0x183C JUMP JUMPDEST PUSH2 0x1932 JUMP JUMPDEST POP PUSH2 0x1988 SWAP3 POP PUSH2 0x1983 PUSH1 0x1 PUSH2 0x1905 JUMP JUMPDEST PUSH2 0x1A58 JUMP JUMPDEST SWAP1 PUSH32 0x8514E9874D1EE55D652D405875552B31F7275A881F0F832EAB8D077876C093E2 PUSH2 0x19B3 PUSH1 0x40 MLOAD SWAP1 JUMP JUMPDEST DUP1 PUSH2 0x19BD DUP2 PUSH2 0x18BF JUMP JUMPDEST SUB SWAP1 LOG1 JUMP JUMPDEST POP POP PUSH2 0x1983 PUSH2 0x1988 SWAP4 PUSH2 0x1905 JUMP JUMPDEST PUSH21 0x68747470733A2F2F697066732E696F2F697066732F PUSH1 0x58 SHL DUP2 MSTORE PUSH2 0x188 SWAP2 SWAP1 PUSH1 0x15 ADD PUSH2 0x1494 JUMP JUMPDEST PUSH1 0x1 PUSH1 0x1 PUSH1 0xA0 SHL SUB SWAP1 SWAP2 AND DUP2 MSTORE PUSH2 0x188 SWAP3 SWAP1 SWAP2 PUSH2 0x1A2C SWAP2 PUSH1 0x80 DUP5 ADD SWAP2 PUSH2 0x1A1F SWAP1 PUSH1 0x20 DUP7 ADD MSTORE JUMP JUMPDEST DUP4 DUP3 SUB PUSH1 0x40 DUP6 ADD MSTORE PUSH2 0x219 JUMP JUMPDEST SWAP1 PUSH1 0x60 DUP2 DUP4 SUB SWAP2 ADD MSTORE PUSH1 0x10 DUP2 MSTORE PUSH16 0x1050D51253D397D0D3D3919254935151 PUSH1 0x82 SHL PUSH1 0x20 DUP3 ADD MSTORE PUSH1 0x40 ADD SWAP1 JUMP JUMPDEST POP PUSH2 0x1A8D PUSH2 0x1A87 PUSH1 0x7 SWAP3 PUSH2 0x1A6B DUP5 PUSH2 0x1E21 JUMP JUMPDEST PUSH2 0x188 PUSH2 0x1A77 PUSH1 0x40 MLOAD SWAP1 JUMP JUMPDEST DUP1 SWAP3 PUSH2 0x1516 PUSH1 0x20 DUP4 ADD SWAP2 DUP3 PUSH2 0x19D0 JUMP JUMPDEST SWAP2 PUSH2 0x1E0C JUMP JUMPDEST SWAP1 DUP2 CALLER PUSH2 0x1A9A DUP3 DUP3 PUSH2 0x1B88 JUMP JUMPDEST PUSH2 0x1AA4 DUP4 DUP4 PUSH2 0x1DE7 JUMP JUMPDEST PUSH2 0x1ADB PUSH32 0xE22CC2323A3A1E016E6DE3D567FEF2C2667443939A122469A166E3D293B16D0B SWAP4 PUSH2 0x1AD2 PUSH1 0x40 MLOAD SWAP1 JUMP JUMPDEST SWAP4 DUP5 SWAP4 DUP5 PUSH2 0x19F8 JUMP JUMPDEST SUB SWAP1 LOG1 SWAP1 JUMP JUMPDEST PUSH2 0x188 SWAP1 PUSH1 0x0 PUSH2 0x1925 JUMP JUMPDEST ISZERO PUSH2 0x1AF3 JUMPI JUMP JUMPDEST PUSH1 0x40 MLOAD PUSH3 0x461BCD PUSH1 0xE5 SHL DUP2 MSTORE DUP1 PUSH2 0x984 PUSH1 0x4 DUP3 ADD PUSH1 0x20 DUP1 DUP3 MSTORE DUP2 DUP2 ADD MSTORE PUSH32 0x4552433732313A206D696E7420746F20746865207A65726F2061646472657373 PUSH1 0x40 DUP3 ADD MSTORE PUSH1 0x60 ADD SWAP1 JUMP JUMPDEST ISZERO PUSH2 0x1B43 JUMPI JUMP JUMPDEST PUSH1 0x40 MLOAD PUSH3 0x461BCD PUSH1 0xE5 SHL DUP2 MSTORE PUSH1 0x20 PUSH1 0x4 DUP3 ADD MSTORE PUSH1 0x1C PUSH1 0x24 DUP3 ADD MSTORE PUSH32 0x4552433732313A20746F6B656E20616C7265616479206D696E74656400000000 PUSH1 0x44 DUP3 ADD MSTORE PUSH1 0x64 SWAP1 REVERT JUMPDEST SWAP1 PUSH2 0x1B93 PUSH1 0x0 PUSH2 0x91D JUMP JUMPDEST SWAP2 PUSH2 0x1BB2 PUSH1 0x1 PUSH1 0x1 PUSH1 0xA0 SHL SUB DUP5 AND PUSH1 0x1 PUSH1 0x1 PUSH1 0xA0 SHL SUB DUP4 AND EQ ISZERO PUSH2 0x1AEC JUMP JUMPDEST PUSH2 0x1BCA PUSH2 0x1BC5 PUSH2 0x1BC1 DUP5 PUSH2 0x12C9 JUMP JUMPDEST ISZERO SWAP1 JUMP JUMPDEST PUSH2 0x1B3C JUMP JUMPDEST PUSH2 0x1BD9 PUSH2 0x1BC5 PUSH2 0x1BC1 DUP5 PUSH2 0x12C9 JUMP JUMPDEST PUSH2 0x1127 PUSH2 0x1BE6 PUSH1 0x1 PUSH2 0xCC7 JUMP JUMPDEST PUSH2 0x1117 PUSH2 0x111D DUP5 PUSH1 0x3 PUSH2 0x9AE JUMP JUMPDEST ISZERO PUSH2 0x1BFB JUMPI JUMP JUMPDEST PUSH1 0x40 MLOAD PUSH3 0x461BCD PUSH1 0xE5 SHL DUP2 MSTORE PUSH1 0x20 PUSH1 0x4 DUP3 ADD MSTORE PUSH1 0x2E PUSH1 0x24 DUP3 ADD MSTORE PUSH32 0x45524337323155524953746F726167653A2055524920736574206F66206E6F6E PUSH1 0x44 DUP3 ADD MSTORE PUSH14 0x32BC34B9BA32B73A103A37B5B2B7 PUSH1 0x91 SHL PUSH1 0x64 DUP3 ADD MSTORE PUSH1 0x84 SWAP1 REVERT JUMPDEST SWAP2 PUSH1 0x0 NOT PUSH1 0x8 SWAP3 SWAP1 SWAP3 MUL SWAP2 DUP3 SHL SWAP2 SHL PUSH2 0xFF0 JUMP JUMPDEST SWAP2 SWAP1 PUSH2 0x1C7C PUSH2 0x188 PUSH2 0x1013 SWAP4 PUSH2 0xCC7 JUMP JUMPDEST SWAP1 DUP4 SLOAD PUSH2 0x1C57 JUMP JUMPDEST PUSH2 0x172 SWAP2 PUSH1 0x0 SWAP2 PUSH2 0x1C6B JUMP JUMPDEST DUP2 DUP2 LT PUSH2 0x1C9B JUMPI POP POP JUMP JUMPDEST DUP1 PUSH2 0x1CA9 PUSH1 0x0 PUSH1 0x1 SWAP4 PUSH2 0x1C84 JUMP JUMPDEST ADD PUSH2 0x1C90 JUMP JUMPDEST SWAP2 SWAP1 PUSH1 0x1F DUP2 GT PUSH2 0x1CBE JUMPI POP POP POP JUMP JUMPDEST PUSH2 0x1CD0 PUSH2 0x172 SWAP4 PUSH1 0x0 MSTORE PUSH1 0x20 PUSH1 0x0 KECCAK256 SWAP1 JUMP JUMPDEST SWAP1 PUSH1 0x20 PUSH1 0x1F DUP5 ADD DUP2 SWAP1 DIV DUP4 ADD SWAP4 LT PUSH2 0x1CF2 JUMPI JUMPDEST PUSH1 0x20 PUSH1 0x1F SWAP1 SWAP2 ADD DIV ADD SWAP1 PUSH2 0x1C90 JUMP JUMPDEST SWAP1 SWAP2 POP DUP2 SWAP1 PUSH2 0x1CE3 JUMP JUMPDEST SWAP1 PUSH2 0x1D05 DUP2 MLOAD SWAP1 JUMP JUMPDEST SWAP1 PUSH8 0xFFFFFFFFFFFFFFFF DUP3 GT PUSH2 0x1DD0 JUMPI JUMPDEST PUSH2 0x1D2A DUP3 PUSH2 0x1D24 DUP6 SLOAD PUSH2 0xAA5 JUMP JUMPDEST DUP6 PUSH2 0x1CAF JUMP JUMPDEST PUSH1 0x20 SWAP1 PUSH1 0x1F DUP4 GT PUSH1 0x1 EQ PUSH2 0x1D65 JUMPI PUSH2 0x1013 SWAP3 SWAP2 PUSH1 0x0 SWAP2 DUP4 PUSH2 0x1D5A JUMPI JUMPDEST POP POP PUSH1 0x0 NOT PUSH1 0x8 DUP4 MUL SHR NOT AND SWAP1 PUSH1 0x2 MUL OR SWAP1 JUMP JUMPDEST ADD MLOAD SWAP1 POP CODESIZE DUP1 PUSH2 0x1D46 JUMP JUMPDEST PUSH1 0x1F NOT DUP4 AND SWAP2 PUSH2 0x1D7A DUP6 PUSH1 0x0 MSTORE PUSH1 0x20 PUSH1 0x0 KECCAK256 SWAP1 JUMP JUMPDEST SWAP3 PUSH1 0x0 JUMPDEST DUP2 DUP2 LT PUSH2 0x1DB8 JUMPI POP SWAP2 PUSH1 0x2 SWAP4 SWAP2 DUP6 PUSH1 0x1 SWAP7 SWAP5 LT PUSH2 0x1D9F JUMPI JUMPDEST POP POP POP MUL ADD SWAP1 SSTORE JUMP JUMPDEST ADD MLOAD PUSH1 0x0 NOT PUSH1 0x8 PUSH1 0x1F DUP6 AND MUL SHR NOT AND SWAP1 SSTORE CODESIZE DUP1 DUP1 PUSH2 0x1D96 JUMP JUMPDEST SWAP2 SWAP4 PUSH1 0x20 PUSH1 0x1 DUP2 SWAP3 DUP8 DUP8 ADD MLOAD DUP2 SSTORE ADD SWAP6 ADD SWAP3 ADD PUSH2 0x1D7E JUMP JUMPDEST PUSH2 0x1DD8 PUSH2 0x65D JUMP JUMPDEST PUSH2 0x1D16 JUMP JUMPDEST SWAP1 PUSH2 0x172 SWAP2 PUSH2 0x1CFC JUMP JUMPDEST SWAP1 PUSH2 0x1E07 PUSH2 0x172 SWAP3 PUSH2 0x1E00 PUSH2 0x1DFB DUP3 PUSH2 0x12C9 JUMP JUMPDEST PUSH2 0x1BF4 JUMP JUMPDEST PUSH1 0x6 PUSH2 0xCD4 JUMP JUMPDEST PUSH2 0x1DDD JUMP JUMPDEST PUSH1 0x0 PUSH2 0x188 SWAP2 PUSH2 0x1E1A PUSH1 0x0 SWAP1 JUMP JUMPDEST POP ADD PUSH2 0x9CD JUMP JUMPDEST PUSH2 0x172 SWAP1 PUSH2 0x1117 PUSH1 0x0 PUSH2 0x1E34 PUSH1 0x1 PUSH2 0xCC7 JUMP JUMPDEST SWAP3 ADD SWAP2 PUSH2 0x243 DUP4 PUSH2 0x9CD JUMP JUMPDEST PUSH1 0x20 DUP1 SWAP2 PUSH8 0xFFFFFFFFFFFFFFFF DUP2 GT PUSH2 0x1E58 JUMPI MUL ADD SWAP1 JUMP JUMPDEST PUSH2 0x1E60 PUSH2 0x65D JUMP JUMPDEST MUL ADD SWAP1 JUMP JUMPDEST SWAP1 PUSH2 0xDD4 PUSH2 0x6FD DUP4 PUSH2 0x1E40 JUMP JUMPDEST SWAP1 PUSH2 0x172 PUSH2 0x15AB PUSH2 0x1E82 DUP5 PUSH2 0x1E65 JUMP JUMPDEST SWAP4 PUSH2 0x1E40 JUMP JUMPDEST PUSH1 0x0 JUMPDEST DUP3 DUP2 LT PUSH2 0x1E97 JUMPI POP POP POP JUMP JUMPDEST PUSH1 0x60 DUP3 DUP3 ADD MSTORE PUSH1 0x20 ADD PUSH2 0x1E8B JUMP JUMPDEST SWAP1 PUSH2 0x172 PUSH2 0x1EB5 PUSH2 0x1E82 DUP5 PUSH2 0x1E65 JUMP JUMPDEST PUSH1 0x1F NOT ADD PUSH1 0x20 DUP5 ADD PUSH2 0x1E88 JUMP JUMPDEST SWAP2 SWAP1 DUP3 ADD DUP1 SWAP3 GT PUSH2 0x1ECF JUMPI JUMP JUMPDEST PUSH2 0x172 PUSH2 0x1825 JUMP JUMPDEST SWAP1 PUSH1 0x20 DUP1 SWAP2 PUSH2 0x1EE4 DUP5 MLOAD SWAP1 JUMP JUMPDEST DUP2 LT ISZERO PUSH2 0x1EF2 JUMPI JUMPDEST MUL ADD ADD SWAP1 JUMP JUMPDEST PUSH2 0x1EFA PUSH2 0x1854 JUMP JUMPDEST PUSH2 0x1EEC JUMP JUMPDEST PUSH1 0x7 PUSH2 0x1F12 PUSH2 0x1F0D DUP3 PUSH2 0x1E0C JUMP JUMPDEST PUSH2 0x1E72 JUMP JUMPDEST PUSH2 0x1F23 PUSH2 0x1F1E DUP4 PUSH2 0x1E0C JUMP JUMPDEST PUSH2 0x1EA5 JUMP JUMPDEST SWAP3 PUSH2 0x1F2E PUSH1 0x0 PUSH2 0xCC7 JUMP JUMPDEST PUSH2 0x1F3A PUSH2 0x188 DUP6 PUSH2 0x1E0C JUMP JUMPDEST DUP2 LT ISZERO PUSH2 0x1FA5 JUMPI PUSH2 0x188 PUSH2 0x1F9D PUSH2 0x1F3A SWAP3 PUSH2 0x1F6E PUSH2 0x1F61 PUSH2 0x1F5B PUSH1 0x1 PUSH2 0xCC7 JUMP JUMPDEST DUP4 PUSH2 0x1EC2 JUMP JUMPDEST PUSH2 0x1F6B DUP4 DUP10 PUSH2 0x1ED7 JUMP JUMPDEST MSTORE JUMP JUMPDEST PUSH2 0x1F82 PUSH2 0x7F8 PUSH2 0x1F7E DUP4 DUP10 PUSH2 0x1ED7 JUMP JUMPDEST MLOAD SWAP1 JUMP JUMPDEST PUSH2 0x1F8C DUP3 DUP11 PUSH2 0x1ED7 JUMP JUMPDEST MSTORE PUSH2 0x1F97 DUP2 DUP10 PUSH2 0x1ED7 JUMP JUMPDEST POP PUSH2 0x183C JUMP JUMPDEST SWAP2 POP POP PUSH2 0x1F2E JUMP JUMPDEST POP SWAP2 POP SWAP2 SWAP1 JUMP INVALID LOG2 PUSH5 0x6970667358 0x22 SLT KECCAK256 0xEF REVERT 0xEC 0xAB CREATE2 PC DIV 0x27 ADDMOD 0xCE CALLDATACOPY 0x1F EXTCODEHASH 0xF 0xAB SLT DUP7 SWAP13 CALLCODE 0x49 0xEE 0xBD CALLDATALOAD PUSH8 0xD77261AD9C0135EC PUSH5 0x736F6C6343 STOP ADDMOD GT STOP CALLER "},"methodIdentifiers":{"approve(address,uint256)":"095ea7b3","balanceOf(address)":"70a08231","getAllTokenIdsAndUrls()":"387849fd","getApproved(uint256)":"081812fc","isApprovedForAll(address,address)":"e985e9c5","mint(string)":"d85d3d27","name()":"06fdde03","ownerOf(uint256)":"6352211e","safeTransferFrom(address,address,uint256)":"42842e0e","safeTransferFrom(address,address,uint256,bytes)":"b88d4fde","setApprovalForAll(address,bool)":"a22cb465","supportsInterface(bytes4)":"01ffc9a7","symbol()":"95d89b41","tokenURI(uint256)":"c87b56dd","transferFrom(address,address,uint256)":"23b872dd"}}}}}