{"contracts/StudentRegistry.sol":{"StudentRegistry":{"abi":[{"anonymous":false,"inputs":[{"indexed":false,"internalType":"uint256","name":"id","type":"uint256"},{"indexed":false,"internalType":"string","name":"firstName","type":"string"},{"indexed":false,"internalType":"string","name":"lastName","type":"string"},{"indexed":false,"internalType":"string","name":"degree","type":"string"},{"indexed":false,"internalType":"string","name":"major","type":"string"},{"indexed":false,"internalType":"string","name":"year","type":"string"},{"indexed":false,"internalType":"string","name":"code","type":"string"}],"name":"StudentCreated","type":"event"},{"anonymous":false,"inputs":[{"indexed":false,"internalType":"string","name":"code","type":"string"}],"name":"StudentDeleted","type":"event"},{"anonymous":false,"inputs":[{"indexed":false,"internalType":"uint256","name":"id","type":"uint256"},{"indexed":false,"internalType":"string","name":"firstName","type":"string"},{"indexed":false,"internalType":"string","name":"lastName","type":"string"},{"indexed":false,"internalType":"string","name":"degree","type":"string"},{"indexed":false,"internalType":"string","name":"major","type":"string"},{"indexed":false,"internalType":"string","name":"year","type":"string"},{"indexed":false,"internalType":"string","name":"code","type":"string"}],"name":"StudentUpdated","type":"event"},{"inputs":[{"internalType":"uint256","name":"","type":"uint256"}],"name":"Students","outputs":[{"internalType":"string","name":"firstName","type":"string"},{"internalType":"string","name":"lastName","type":"string"},{"components":[{"internalType":"string","name":"degree","type":"string"},{"internalType":"string","name":"major","type":"string"},{"internalType":"string","name":"year","type":"string"}],"internalType":"struct StudentRegistry.Education","name":"education","type":"tuple"}],"stateMutability":"view","type":"function"},{"inputs":[{"internalType":"string","name":"_firstName","type":"string"},{"internalType":"string","name":"_lastName","type":"string"},{"internalType":"string","name":"_degree","type":"string"},{"internalType":"string","name":"_major","type":"string"},{"internalType":"string","name":"_year","type":"string"}],"name":"createStudent","outputs":[{"internalType":"uint256","name":"","type":"uint256"}],"stateMutability":"nonpayable","type":"function"},{"inputs":[{"internalType":"uint256","name":"_studentId","type":"uint256"}],"name":"deleteStudent","outputs":[],"stateMutability":"nonpayable","type":"function"},{"inputs":[],"name":"getAallStudents","outputs":[{"components":[{"internalType":"string","name":"firstName","type":"string"},{"internalType":"string","name":"lastName","type":"string"},{"components":[{"internalType":"string","name":"degree","type":"string"},{"internalType":"string","name":"major","type":"string"},{"internalType":"string","name":"year","type":"string"}],"internalType":"struct StudentRegistry.Education","name":"education","type":"tuple"}],"internalType":"struct StudentRegistry.Student[]","name":"","type":"tuple[]"}],"stateMutability":"view","type":"function"},{"inputs":[{"internalType":"address","name":"","type":"address"}],"name":"students","outputs":[{"internalType":"string","name":"firstName","type":"string"},{"internalType":"string","name":"lastName","type":"string"},{"components":[{"internalType":"string","name":"degree","type":"string"},{"internalType":"string","name":"major","type":"string"},{"internalType":"string","name":"year","type":"string"}],"internalType":"struct StudentRegistry.Education","name":"education","type":"tuple"}],"stateMutability":"view","type":"function"},{"inputs":[{"internalType":"uint256","name":"_studentId","type":"uint256"},{"internalType":"string","name":"_firstName","type":"string"},{"internalType":"string","name":"_lastName","type":"string"},{"internalType":"string","name":"_degree","type":"string"},{"internalType":"string","name":"_major","type":"string"},{"internalType":"string","name":"_year","type":"string"}],"name":"updateStudent","outputs":[],"stateMutability":"nonpayable","type":"function"}],"evm":{"bytecode":{"linkReferences":{},"object":"60806040523461001b575b604051611463610029823961146390f35b610023600080fd5b61000a56fe60806040526004361015610018575b610016600080fd5b005b60003560e01c80630352e27c1461009057806357c8d71d14610087578063728e22741461007e5780638ef4b9d314610075578063a6c807a91461006c5763b645307d0361000e5761006761088b565b61000e565b50610067610861565b5061006761078c565b506100676106a9565b506100676104e8565b5061006761020a565b600080fd5b60009103126100a957565b6100b1600080fd5b565b60005b8381106100c65750506000910152565b81810151838201526020016100b6565b601f01601f191690565b6101016100d660209361010a936100f5815190565b80835293849260200190565b958691016100b3565b0190565b80516060808452610150939160409161013f9161012d918501906100e0565b602085015184820360208601526100e0565b9201519060408184039101526100e0565b90565b8051606080845261015093916040916101729161012d918501906100e0565b92015190604081840391015261010e565b9061015091610153565b906101a3610199835190565b8083529160200190565b90816101b56020830284019460200190565b926000915b8383106101c957505050505090565b909192939460206101ec6101e583856001950387528951610183565b9760200190565b93019301919392906101ba565b60208082526101509291019061018d565b5034610237575b61021c36600461009e565b610233610227610f91565b604051918291826101f9565b0390f35b61023f600080fd5b610211565b805b0361009957565b905035906100b182610244565b90610150916020818303121561024d57610272600080fd5b61024d565b50634e487b7160e01b600052603260045260246000fd5b6102ae60059161029c815490565b8410156102b757600052602060002090565b91020190600090565b6102bf610277565b600052602060002090565b50634e487b7160e01b600052602260045260246000fd5b9060016002830492168015610304575b60208310146102fc57565b6100b16102ca565b91607f16916102f1565b8054600093929161032b610321836102e1565b8085529360200190565b916001811690811561037d575060011461034457505050565b6103579192939450600052602060002090565b916000925b8184106103695750500190565b80548484015260209093019260010161035c565b92949550505060ff1916825215156020020190565b906101509161030e565b50634e487b7160e01b600052604160045260246000fd5b90601f01601f191681019081106001600160401b038211176103d457604052565b6103dc61039c565b604052565b906100b16103fb926103f260405190565b93848092610392565b03836103b3565b906100b161040f60405190565b92836103b3565b6101506060610402565b906100b161045e6002610431610416565b9461044261043e826103e1565b8752565b610458610451600183016103e1565b6020880152565b016103e1565b6040840152565b90600191600092610474815490565b8210156104a95761048692935061028e565b50610490816103e1565b9161015060026104a2600185016103e1565b9301610420565b8380fd5b916104da906104cc6101509593606086019086820360008801526100e0565b9084820360208601526100e0565b91604081840391015261010e565b5034610514575b61023361050561050036600461025a565b610465565b604051919391938493846104ad565b61051c600080fd5b6104ef565b61010a6020916001600160401b03811161053f57601f01601f191690565b6100d661039c565b90826000939282370152565b9291906100b19161056b61056683610521565b610402565b948286526020860191838201111561054757610585600080fd5b610547565b906101509181601f820112156105a6575b602081359101610553565b6105ae600080fd5b61059b565b909160c08284031261069c575b6105ca838361024d565b926105ea8160208501356001600160401b038111610682575b850161058a565b9261060a8260408301356001600160401b03811161068f575b830161058a565b9261015061062c8460608501356001600160401b03811161068257850161058a565b9361064c8160808601356001600160401b038111610675575b860161058a565b9360a0810135906001600160401b038211610668575b0161058a565b610670600080fd5b610662565b61067d600080fd5b610645565b61068a600080fd5b6105e3565b610697600080fd5b610603565b6106a4600080fd5b6105c0565b50346106cf575b6106ca6106be3660046105b3565b94939093929192611076565b604051005b6106d7600080fd5b6106b0565b919060a08382031261077f575b6107048184356001600160401b03811161068257850161058a565b926107238260208301356001600160401b03811161068f57830161058a565b926101506107458460408501356001600160401b03811161068257850161058a565b936107648160608601356001600160401b03811161067557860161058a565b936080810135906001600160401b038211610668570161058a565b610787600080fd5b6106e9565b50346107bd575b6102336107ad6107a43660046106dc565b93929092610d4f565b6040519182918290815260200190565b6107c5600080fd5b610793565b6001600160a01b031690565b6001600160a01b038116610246565b905035906100b1826107d6565b9061015091602081830312156107e55761080a600080fd5b6107e5565b610150906107ca906001600160a01b031682565b6101509061080f565b61015090610823565b9061083f9061082c565b600052602052604060002090565b610858906000610835565b610490816103e1565b503461087e575b6102336105056108793660046107f2565b61084d565b610886600080fd5b610868565b50346108a5575b6106ca6108a036600461025a565b6113c2565b6108ad600080fd5b610892565b6101506101506101509290565b156108c657565b60405162461bcd60e51b815260206004820152601a60248201527f4669727374206e616d652063616e6e6f7420626520656d7074790000000000006044820152606490fd5b1561091257565b60405162461bcd60e51b815260206004820152601960248201527f4c617374206e616d652063616e6e6f7420626520656d707479000000000000006044820152606490fd5b1561095e57565b60405162461bcd60e51b81526020600482015260166024820152754465677265652063616e6e6f7420626520656d70747960501b6044820152606490fd5b156109a357565b60405162461bcd60e51b81526020600482015260156024820152744d616a6f722063616e6e6f7420626520656d70747960581b6044820152606490fd5b156109e757565b60405162461bcd60e51b8152602060048201526014602482015273796165722063616e6e6f7420626520656d70747960601b6044820152606490fd5b50634e487b7160e01b600052600060045260246000fd5b9190610a4b610150610a67936108b2565b9083549160001960089290920291821b911b9181191691161790565b9055565b6100b191600091610a3a565b818110610a82575050565b80610a906000600193610a6b565b01610a77565b9190601f8111610aa557505050565b610ab76100b193600052602060002090565b906020601f840181900483019310610ada575b6020601f909101045b0190610a77565b9091508190610aca565b600019600883021c1916906002021790565b90610aff815190565b906001600160401b038211610bbc575b610b2382610b1d85546102e1565b85610a96565b602090601f8311600114610b5157610a67929160009183610b46575b5050610ae4565b015190503880610b3f565b601f19831691610b6685600052602060002090565b9260005b818110610ba457509160029391856001969410610b8b575b50505002019055565b01516000196008601f8516021c19169055388080610b82565b91936020600181928787015181550195019201610b6a565b610bc461039c565b610b0f565b906100b191610af6565b90610bf1604060026100b194610bf760008201610bf1600088015190565b90610bc9565b610c0960018201610bf1602088015190565b0192015190565b906100b191610bd3565b90610c38604060026100b194610bf760008201610bf1600088015190565b90610c10565b6100b1929115610c1a57610c50610a23565b610c1a565b90610c786100b192805490600160401b821015610c7e575b60018201815561028e565b90610c3e565b610c8661039c565b610c6d565b50634e487b7160e01b600052601160045260246000fd5b91908203918211610caf57565b6100b1610c8b565b9490610d2494610cfa6101509895610cec89610d1697610cdf610d0897600060e08501940152565b8b820360208d01526100e0565b9089820360408b01526100e0565b9087820360608901526100e0565b9085820360808701526100e0565b9083820360a08501526100e0565b9060c0818303910152600f81526e414354494f4e5f434f4e4649524d4560881b602082015260400190565b9091610ead61015095610d60600090565b508351610d6c565b5190565b95610d89600097610d83610d7f8a6108b2565b9190565b116108bf565b610da6610d94875190565b610da0610d7f8a6108b2565b1161090b565b610dc3610db1855190565b610dbd610d7f8a6108b2565b11610957565b610de0610dce825190565b610dda610d7f8a6108b2565b1161099c565b610dfd610deb835190565b610df7610d7f8a6108b2565b116109e0565b610e4c610e08610416565b610e12868a830152565b610e1d836020830152565b610e28846040830152565b610e3a87610e34610416565b9a8b0152565b610e458860208b0152565b6040890152565b610e5e600197610e598990565b610c55565b610e78610e69885490565b610e72896108b2565b90610ca2565b937fb3ba2cff02b32eeb145a4310f642027c74c7037f3f86732ad86b47ee1fdd8d2a96610ea460405190565b96879687610cb7565b0390a1610e72610ebb825490565b916108b2565b602080916001600160401b038111610ed857020190565b610ee061039c565b020190565b90610ef261056683610ec1565b918252565b906100b161045e6002610f08610416565b94610f1561043e826103e1565b610f24610451600183016103e1565b01610420565b61015090610ef7565b90610f3c825490565b610f4581610ee5565b92610f596020850191600052602060002090565b6000915b838310610f6a5750505050565b60056020600192610f7a85610f2a565b815201920192019190610f5d565b61015090610f33565b6101506001610f88565b15610fa257565b60405162461bcd60e51b815260206004820152601960248201527f46697273746e616d652063616e6e6f7420626520656d707479000000000000006044820152606490fd5b15610fee57565b60405162461bcd60e51b815260206004820152601860248201527f4c6173746e616d652063616e6e6f7420626520656d70747900000000000000006044820152606490fd5b1561103a57565b60405162461bcd60e51b8152602060048201526014602482015273796561722063616e6e6f7420626520656d70747960601b6044820152606490fd5b92936111929295919461116761108c610d688890565b6110a460009161109e610d7f846108b2565b11610f9b565b6110c16110af8a5190565b6110bb610d7f846108b2565b11610fe7565b6110d86110cc845190565b610dbd610d7f846108b2565b6110ef6110e3855190565b610dda610d7f846108b2565b61110c6110fa865190565b611106610d7f846108b2565b11611033565b6002611116610416565b916111218582850152565b61112c866020850152565b611137876040850152565b6111618b600161115a8d61115261114e8f8561028e565b5090565b958601610bc9565b8301610bc9565b01610c10565b7f7805d5a30b55d3f171bac6edbc08f1ec7ff173b3a037a9835b57f9ea38d01c6d96610ea460405190565b0390a1565b906111aa90600019906020036008021c90565b8154169055565b906000916111cf6111c782600052602060002090565b928354610ae4565b905555565b919290602082101561122c57601f84116001146111f657610a67929350610ae4565b50906112276100b193600161121e61121385600052602060002090565b92601f602091010490565b82019101610a77565b6111b1565b506112658293611243600194600052602060002090565b610ad36020601f860104820192601f86168061126d575b50601f602091010490565b600202179055565b61127990888603611197565b3861125a565b929091602090600160401b83116112d4575b10156112c85760208110156112a957610a6791610ae4565b60019160ff19166112bf84600052602060002090565b55600202019055565b60019150600202019055565b6112dc61039c565b611291565b9081546112ed816102e1565b90818311611316575b818310611304575b50505050565b61130d936111d4565b388080806112fe565b6113228383838761127f565b6112f6565b60006100b1916112e1565b6100b1911561132757611343610a23565b611327565b600060026100b19261135c83808301611332565b6113698360018301611332565b01611332565b6100b1911561134857611380610a23565b611348565b600060026100b19261139983808301611332565b6113a68360018301611332565b0161136f565b6100b19115611385576113bd610a23565b611385565b6113d06113d691600161028e565b906113ac565b7fa6fb241657c3c18fc80b9ead1a3ff49713b698afdf880800d2fc42f10098cd5361140060405190565b6020808252600f908201526e414354494f4e5f434f4e4649524d4560881b6040820152806060810161119256fea26469706673582212209650d703beefb28a37f77babbfe9774f717aed88624244a11864071e9f8295ab64736f6c63430008110033","opcodes":"PUSH1 0x80 PUSH1 0x40 MSTORE CALLVALUE PUSH2 0x1B JUMPI JUMPDEST PUSH1 0x40 MLOAD PUSH2 0x1463 PUSH2 0x29 DUP3 CODECOPY PUSH2 0x1463 SWAP1 RETURN JUMPDEST PUSH2 0x23 PUSH1 0x0 DUP1 REVERT JUMPDEST PUSH2 0xA JUMP INVALID PUSH1 0x80 PUSH1 0x40 MSTORE PUSH1 0x4 CALLDATASIZE LT ISZERO PUSH2 0x18 JUMPI JUMPDEST PUSH2 0x16 PUSH1 0x0 DUP1 REVERT JUMPDEST STOP JUMPDEST PUSH1 0x0 CALLDATALOAD PUSH1 0xE0 SHR DUP1 PUSH4 0x352E27C EQ PUSH2 0x90 JUMPI DUP1 PUSH4 0x57C8D71D EQ PUSH2 0x87 JUMPI DUP1 PUSH4 0x728E2274 EQ PUSH2 0x7E JUMPI DUP1 PUSH4 0x8EF4B9D3 EQ PUSH2 0x75 JUMPI DUP1 PUSH4 0xA6C807A9 EQ PUSH2 0x6C JUMPI PUSH4 0xB645307D SUB PUSH2 0xE JUMPI PUSH2 0x67 PUSH2 0x88B JUMP JUMPDEST PUSH2 0xE JUMP JUMPDEST POP PUSH2 0x67 PUSH2 0x861 JUMP JUMPDEST POP PUSH2 0x67 PUSH2 0x78C JUMP JUMPDEST POP PUSH2 0x67 PUSH2 0x6A9 JUMP JUMPDEST POP PUSH2 0x67 PUSH2 0x4E8 JUMP JUMPDEST POP PUSH2 0x67 PUSH2 0x20A JUMP JUMPDEST PUSH1 0x0 DUP1 REVERT JUMPDEST PUSH1 0x0 SWAP2 SUB SLT PUSH2 0xA9 JUMPI JUMP JUMPDEST PUSH2 0xB1 PUSH1 0x0 DUP1 REVERT JUMPDEST JUMP JUMPDEST PUSH1 0x0 JUMPDEST DUP4 DUP2 LT PUSH2 0xC6 JUMPI POP POP PUSH1 0x0 SWAP2 ADD MSTORE JUMP JUMPDEST DUP2 DUP2 ADD MLOAD DUP4 DUP3 ADD MSTORE PUSH1 0x20 ADD PUSH2 0xB6 JUMP JUMPDEST PUSH1 0x1F ADD PUSH1 0x1F NOT AND SWAP1 JUMP JUMPDEST PUSH2 0x101 PUSH2 0xD6 PUSH1 0x20 SWAP4 PUSH2 0x10A SWAP4 PUSH2 0xF5 DUP2 MLOAD SWAP1 JUMP JUMPDEST DUP1 DUP4 MSTORE SWAP4 DUP5 SWAP3 PUSH1 0x20 ADD SWAP1 JUMP JUMPDEST SWAP6 DUP7 SWAP2 ADD PUSH2 0xB3 JUMP JUMPDEST ADD SWAP1 JUMP JUMPDEST DUP1 MLOAD PUSH1 0x60 DUP1 DUP5 MSTORE PUSH2 0x150 SWAP4 SWAP2 PUSH1 0x40 SWAP2 PUSH2 0x13F SWAP2 PUSH2 0x12D SWAP2 DUP6 ADD SWAP1 PUSH2 0xE0 JUMP JUMPDEST PUSH1 0x20 DUP6 ADD MLOAD DUP5 DUP3 SUB PUSH1 0x20 DUP7 ADD MSTORE PUSH2 0xE0 JUMP JUMPDEST SWAP3 ADD MLOAD SWAP1 PUSH1 0x40 DUP2 DUP5 SUB SWAP2 ADD MSTORE PUSH2 0xE0 JUMP JUMPDEST SWAP1 JUMP JUMPDEST DUP1 MLOAD PUSH1 0x60 DUP1 DUP5 MSTORE PUSH2 0x150 SWAP4 SWAP2 PUSH1 0x40 SWAP2 PUSH2 0x172 SWAP2 PUSH2 0x12D SWAP2 DUP6 ADD SWAP1 PUSH2 0xE0 JUMP JUMPDEST SWAP3 ADD MLOAD SWAP1 PUSH1 0x40 DUP2 DUP5 SUB SWAP2 ADD MSTORE PUSH2 0x10E JUMP JUMPDEST SWAP1 PUSH2 0x150 SWAP2 PUSH2 0x153 JUMP JUMPDEST SWAP1 PUSH2 0x1A3 PUSH2 0x199 DUP4 MLOAD SWAP1 JUMP JUMPDEST DUP1 DUP4 MSTORE SWAP2 PUSH1 0x20 ADD SWAP1 JUMP JUMPDEST SWAP1 DUP2 PUSH2 0x1B5 PUSH1 0x20 DUP4 MUL DUP5 ADD SWAP5 PUSH1 0x20 ADD SWAP1 JUMP JUMPDEST SWAP3 PUSH1 0x0 SWAP2 JUMPDEST DUP4 DUP4 LT PUSH2 0x1C9 JUMPI POP POP POP POP POP SWAP1 JUMP JUMPDEST SWAP1 SWAP2 SWAP3 SWAP4 SWAP5 PUSH1 0x20 PUSH2 0x1EC PUSH2 0x1E5 DUP4 DUP6 PUSH1 0x1 SWAP6 SUB DUP8 MSTORE DUP10 MLOAD PUSH2 0x183 JUMP JUMPDEST SWAP8 PUSH1 0x20 ADD SWAP1 JUMP JUMPDEST SWAP4 ADD SWAP4 ADD SWAP2 SWAP4 SWAP3 SWAP1 PUSH2 0x1BA JUMP JUMPDEST PUSH1 0x20 DUP1 DUP3 MSTORE PUSH2 0x150 SWAP3 SWAP2 ADD SWAP1 PUSH2 0x18D JUMP JUMPDEST POP CALLVALUE PUSH2 0x237 JUMPI JUMPDEST PUSH2 0x21C CALLDATASIZE PUSH1 0x4 PUSH2 0x9E JUMP JUMPDEST PUSH2 0x233 PUSH2 0x227 PUSH2 0xF91 JUMP JUMPDEST PUSH1 0x40 MLOAD SWAP2 DUP3 SWAP2 DUP3 PUSH2 0x1F9 JUMP JUMPDEST SUB SWAP1 RETURN JUMPDEST PUSH2 0x23F PUSH1 0x0 DUP1 REVERT JUMPDEST PUSH2 0x211 JUMP JUMPDEST DUP1 JUMPDEST SUB PUSH2 0x99 JUMPI JUMP JUMPDEST SWAP1 POP CALLDATALOAD SWAP1 PUSH2 0xB1 DUP3 PUSH2 0x244 JUMP JUMPDEST SWAP1 PUSH2 0x150 SWAP2 PUSH1 0x20 DUP2 DUP4 SUB SLT ISZERO PUSH2 0x24D JUMPI PUSH2 0x272 PUSH1 0x0 DUP1 REVERT JUMPDEST PUSH2 0x24D JUMP JUMPDEST POP PUSH4 0x4E487B71 PUSH1 0xE0 SHL PUSH1 0x0 MSTORE PUSH1 0x32 PUSH1 0x4 MSTORE PUSH1 0x24 PUSH1 0x0 REVERT JUMPDEST PUSH2 0x2AE PUSH1 0x5 SWAP2 PUSH2 0x29C DUP2 SLOAD SWAP1 JUMP JUMPDEST DUP5 LT ISZERO PUSH2 0x2B7 JUMPI PUSH1 0x0 MSTORE PUSH1 0x20 PUSH1 0x0 KECCAK256 SWAP1 JUMP JUMPDEST SWAP2 MUL ADD SWAP1 PUSH1 0x0 SWAP1 JUMP JUMPDEST PUSH2 0x2BF PUSH2 0x277 JUMP JUMPDEST PUSH1 0x0 MSTORE PUSH1 0x20 PUSH1 0x0 KECCAK256 SWAP1 JUMP JUMPDEST POP PUSH4 0x4E487B71 PUSH1 0xE0 SHL PUSH1 0x0 MSTORE PUSH1 0x22 PUSH1 0x4 MSTORE PUSH1 0x24 PUSH1 0x0 REVERT JUMPDEST SWAP1 PUSH1 0x1 PUSH1 0x2 DUP4 DIV SWAP3 AND DUP1 ISZERO PUSH2 0x304 JUMPI JUMPDEST PUSH1 0x20 DUP4 LT EQ PUSH2 0x2FC JUMPI JUMP JUMPDEST PUSH2 0xB1 PUSH2 0x2CA JUMP JUMPDEST SWAP2 PUSH1 0x7F AND SWAP2 PUSH2 0x2F1 JUMP JUMPDEST DUP1 SLOAD PUSH1 0x0 SWAP4 SWAP3 SWAP2 PUSH2 0x32B PUSH2 0x321 DUP4 PUSH2 0x2E1 JUMP JUMPDEST DUP1 DUP6 MSTORE SWAP4 PUSH1 0x20 ADD SWAP1 JUMP JUMPDEST SWAP2 PUSH1 0x1 DUP2 AND SWAP1 DUP2 ISZERO PUSH2 0x37D JUMPI POP PUSH1 0x1 EQ PUSH2 0x344 JUMPI POP POP POP JUMP JUMPDEST PUSH2 0x357 SWAP2 SWAP3 SWAP4 SWAP5 POP PUSH1 0x0 MSTORE PUSH1 0x20 PUSH1 0x0 KECCAK256 SWAP1 JUMP JUMPDEST SWAP2 PUSH1 0x0 SWAP3 JUMPDEST DUP2 DUP5 LT PUSH2 0x369 JUMPI POP POP ADD SWAP1 JUMP JUMPDEST DUP1 SLOAD DUP5 DUP5 ADD MSTORE PUSH1 0x20 SWAP1 SWAP4 ADD SWAP3 PUSH1 0x1 ADD PUSH2 0x35C JUMP JUMPDEST SWAP3 SWAP5 SWAP6 POP POP POP PUSH1 0xFF NOT AND DUP3 MSTORE ISZERO ISZERO PUSH1 0x20 MUL ADD SWAP1 JUMP JUMPDEST SWAP1 PUSH2 0x150 SWAP2 PUSH2 0x30E JUMP JUMPDEST POP PUSH4 0x4E487B71 PUSH1 0xE0 SHL PUSH1 0x0 MSTORE PUSH1 0x41 PUSH1 0x4 MSTORE PUSH1 0x24 PUSH1 0x0 REVERT JUMPDEST SWAP1 PUSH1 0x1F ADD PUSH1 0x1F NOT AND DUP2 ADD SWAP1 DUP2 LT PUSH1 0x1 PUSH1 0x1 PUSH1 0x40 SHL SUB DUP3 GT OR PUSH2 0x3D4 JUMPI PUSH1 0x40 MSTORE JUMP JUMPDEST PUSH2 0x3DC PUSH2 0x39C JUMP JUMPDEST PUSH1 0x40 MSTORE JUMP JUMPDEST SWAP1 PUSH2 0xB1 PUSH2 0x3FB SWAP3 PUSH2 0x3F2 PUSH1 0x40 MLOAD SWAP1 JUMP JUMPDEST SWAP4 DUP5 DUP1 SWAP3 PUSH2 0x392 JUMP JUMPDEST SUB DUP4 PUSH2 0x3B3 JUMP JUMPDEST SWAP1 PUSH2 0xB1 PUSH2 0x40F PUSH1 0x40 MLOAD SWAP1 JUMP JUMPDEST SWAP3 DUP4 PUSH2 0x3B3 JUMP JUMPDEST PUSH2 0x150 PUSH1 0x60 PUSH2 0x402 JUMP JUMPDEST SWAP1 PUSH2 0xB1 PUSH2 0x45E PUSH1 0x2 PUSH2 0x431 PUSH2 0x416 JUMP JUMPDEST SWAP5 PUSH2 0x442 PUSH2 0x43E DUP3 PUSH2 0x3E1 JUMP JUMPDEST DUP8 MSTORE JUMP JUMPDEST PUSH2 0x458 PUSH2 0x451 PUSH1 0x1 DUP4 ADD PUSH2 0x3E1 JUMP JUMPDEST PUSH1 0x20 DUP9 ADD MSTORE JUMP JUMPDEST ADD PUSH2 0x3E1 JUMP JUMPDEST PUSH1 0x40 DUP5 ADD MSTORE JUMP JUMPDEST SWAP1 PUSH1 0x1 SWAP2 PUSH1 0x0 SWAP3 PUSH2 0x474 DUP2 SLOAD SWAP1 JUMP JUMPDEST DUP3 LT ISZERO PUSH2 0x4A9 JUMPI PUSH2 0x486 SWAP3 SWAP4 POP PUSH2 0x28E JUMP JUMPDEST POP PUSH2 0x490 DUP2 PUSH2 0x3E1 JUMP JUMPDEST SWAP2 PUSH2 0x150 PUSH1 0x2 PUSH2 0x4A2 PUSH1 0x1 DUP6 ADD PUSH2 0x3E1 JUMP JUMPDEST SWAP4 ADD PUSH2 0x420 JUMP JUMPDEST DUP4 DUP1 REVERT JUMPDEST SWAP2 PUSH2 0x4DA SWAP1 PUSH2 0x4CC PUSH2 0x150 SWAP6 SWAP4 PUSH1 0x60 DUP7 ADD SWAP1 DUP7 DUP3 SUB PUSH1 0x0 DUP9 ADD MSTORE PUSH2 0xE0 JUMP JUMPDEST SWAP1 DUP5 DUP3 SUB PUSH1 0x20 DUP7 ADD MSTORE PUSH2 0xE0 JUMP JUMPDEST SWAP2 PUSH1 0x40 DUP2 DUP5 SUB SWAP2 ADD MSTORE PUSH2 0x10E JUMP JUMPDEST POP CALLVALUE PUSH2 0x514 JUMPI JUMPDEST PUSH2 0x233 PUSH2 0x505 PUSH2 0x500 CALLDATASIZE PUSH1 0x4 PUSH2 0x25A JUMP JUMPDEST PUSH2 0x465 JUMP JUMPDEST PUSH1 0x40 MLOAD SWAP2 SWAP4 SWAP2 SWAP4 DUP5 SWAP4 DUP5 PUSH2 0x4AD JUMP JUMPDEST PUSH2 0x51C PUSH1 0x0 DUP1 REVERT JUMPDEST PUSH2 0x4EF JUMP JUMPDEST PUSH2 0x10A PUSH1 0x20 SWAP2 PUSH1 0x1 PUSH1 0x1 PUSH1 0x40 SHL SUB DUP2 GT PUSH2 0x53F JUMPI PUSH1 0x1F ADD PUSH1 0x1F NOT AND SWAP1 JUMP JUMPDEST PUSH2 0xD6 PUSH2 0x39C JUMP JUMPDEST SWAP1 DUP3 PUSH1 0x0 SWAP4 SWAP3 DUP3 CALLDATACOPY ADD MSTORE JUMP JUMPDEST SWAP3 SWAP2 SWAP1 PUSH2 0xB1 SWAP2 PUSH2 0x56B PUSH2 0x566 DUP4 PUSH2 0x521 JUMP JUMPDEST PUSH2 0x402 JUMP JUMPDEST SWAP5 DUP3 DUP7 MSTORE PUSH1 0x20 DUP7 ADD SWAP2 DUP4 DUP3 ADD GT ISZERO PUSH2 0x547 JUMPI PUSH2 0x585 PUSH1 0x0 DUP1 REVERT JUMPDEST PUSH2 0x547 JUMP JUMPDEST SWAP1 PUSH2 0x150 SWAP2 DUP2 PUSH1 0x1F DUP3 ADD SLT ISZERO PUSH2 0x5A6 JUMPI JUMPDEST PUSH1 0x20 DUP2 CALLDATALOAD SWAP2 ADD PUSH2 0x553 JUMP JUMPDEST PUSH2 0x5AE PUSH1 0x0 DUP1 REVERT JUMPDEST PUSH2 0x59B JUMP JUMPDEST SWAP1 SWAP2 PUSH1 0xC0 DUP3 DUP5 SUB SLT PUSH2 0x69C JUMPI JUMPDEST PUSH2 0x5CA DUP4 DUP4 PUSH2 0x24D JUMP JUMPDEST SWAP3 PUSH2 0x5EA DUP2 PUSH1 0x20 DUP6 ADD CALLDATALOAD PUSH1 0x1 PUSH1 0x1 PUSH1 0x40 SHL SUB DUP2 GT PUSH2 0x682 JUMPI JUMPDEST DUP6 ADD PUSH2 0x58A JUMP JUMPDEST SWAP3 PUSH2 0x60A DUP3 PUSH1 0x40 DUP4 ADD CALLDATALOAD PUSH1 0x1 PUSH1 0x1 PUSH1 0x40 SHL SUB DUP2 GT PUSH2 0x68F JUMPI JUMPDEST DUP4 ADD PUSH2 0x58A JUMP JUMPDEST SWAP3 PUSH2 0x150 PUSH2 0x62C DUP5 PUSH1 0x60 DUP6 ADD CALLDATALOAD PUSH1 0x1 PUSH1 0x1 PUSH1 0x40 SHL SUB DUP2 GT PUSH2 0x682 JUMPI DUP6 ADD PUSH2 0x58A JUMP JUMPDEST SWAP4 PUSH2 0x64C DUP2 PUSH1 0x80 DUP7 ADD CALLDATALOAD PUSH1 0x1 PUSH1 0x1 PUSH1 0x40 SHL SUB DUP2 GT PUSH2 0x675 JUMPI JUMPDEST DUP7 ADD PUSH2 0x58A JUMP JUMPDEST SWAP4 PUSH1 0xA0 DUP2 ADD CALLDATALOAD SWAP1 PUSH1 0x1 PUSH1 0x1 PUSH1 0x40 SHL SUB DUP3 GT PUSH2 0x668 JUMPI JUMPDEST ADD PUSH2 0x58A JUMP JUMPDEST PUSH2 0x670 PUSH1 0x0 DUP1 REVERT JUMPDEST PUSH2 0x662 JUMP JUMPDEST PUSH2 0x67D PUSH1 0x0 DUP1 REVERT JUMPDEST PUSH2 0x645 JUMP JUMPDEST PUSH2 0x68A PUSH1 0x0 DUP1 REVERT JUMPDEST PUSH2 0x5E3 JUMP JUMPDEST PUSH2 0x697 PUSH1 0x0 DUP1 REVERT JUMPDEST PUSH2 0x603 JUMP JUMPDEST PUSH2 0x6A4 PUSH1 0x0 DUP1 REVERT JUMPDEST PUSH2 0x5C0 JUMP JUMPDEST POP CALLVALUE PUSH2 0x6CF JUMPI JUMPDEST PUSH2 0x6CA PUSH2 0x6BE CALLDATASIZE PUSH1 0x4 PUSH2 0x5B3 JUMP JUMPDEST SWAP5 SWAP4 SWAP1 SWAP4 SWAP3 SWAP2 SWAP3 PUSH2 0x1076 JUMP JUMPDEST PUSH1 0x40 MLOAD STOP JUMPDEST PUSH2 0x6D7 PUSH1 0x0 DUP1 REVERT JUMPDEST PUSH2 0x6B0 JUMP JUMPDEST SWAP2 SWAP1 PUSH1 0xA0 DUP4 DUP3 SUB SLT PUSH2 0x77F JUMPI JUMPDEST PUSH2 0x704 DUP2 DUP5 CALLDATALOAD PUSH1 0x1 PUSH1 0x1 PUSH1 0x40 SHL SUB DUP2 GT PUSH2 0x682 JUMPI DUP6 ADD PUSH2 0x58A JUMP JUMPDEST SWAP3 PUSH2 0x723 DUP3 PUSH1 0x20 DUP4 ADD CALLDATALOAD PUSH1 0x1 PUSH1 0x1 PUSH1 0x40 SHL SUB DUP2 GT PUSH2 0x68F JUMPI DUP4 ADD PUSH2 0x58A JUMP JUMPDEST SWAP3 PUSH2 0x150 PUSH2 0x745 DUP5 PUSH1 0x40 DUP6 ADD CALLDATALOAD PUSH1 0x1 PUSH1 0x1 PUSH1 0x40 SHL SUB DUP2 GT PUSH2 0x682 JUMPI DUP6 ADD PUSH2 0x58A JUMP JUMPDEST SWAP4 PUSH2 0x764 DUP2 PUSH1 0x60 DUP7 ADD CALLDATALOAD PUSH1 0x1 PUSH1 0x1 PUSH1 0x40 SHL SUB DUP2 GT PUSH2 0x675 JUMPI DUP7 ADD PUSH2 0x58A JUMP JUMPDEST SWAP4 PUSH1 0x80 DUP2 ADD CALLDATALOAD SWAP1 PUSH1 0x1 PUSH1 0x1 PUSH1 0x40 SHL SUB DUP3 GT PUSH2 0x668 JUMPI ADD PUSH2 0x58A JUMP JUMPDEST PUSH2 0x787 PUSH1 0x0 DUP1 REVERT JUMPDEST PUSH2 0x6E9 JUMP JUMPDEST POP CALLVALUE PUSH2 0x7BD JUMPI JUMPDEST PUSH2 0x233 PUSH2 0x7AD PUSH2 0x7A4 CALLDATASIZE PUSH1 0x4 PUSH2 0x6DC JUMP JUMPDEST SWAP4 SWAP3 SWAP1 SWAP3 PUSH2 0xD4F JUMP JUMPDEST PUSH1 0x40 MLOAD SWAP2 DUP3 SWAP2 DUP3 SWAP1 DUP2 MSTORE PUSH1 0x20 ADD SWAP1 JUMP JUMPDEST PUSH2 0x7C5 PUSH1 0x0 DUP1 REVERT JUMPDEST PUSH2 0x793 JUMP JUMPDEST PUSH1 0x1 PUSH1 0x1 PUSH1 0xA0 SHL SUB AND SWAP1 JUMP JUMPDEST PUSH1 0x1 PUSH1 0x1 PUSH1 0xA0 SHL SUB DUP2 AND PUSH2 0x246 JUMP JUMPDEST SWAP1 POP CALLDATALOAD SWAP1 PUSH2 0xB1 DUP3 PUSH2 0x7D6 JUMP JUMPDEST SWAP1 PUSH2 0x150 SWAP2 PUSH1 0x20 DUP2 DUP4 SUB SLT ISZERO PUSH2 0x7E5 JUMPI PUSH2 0x80A PUSH1 0x0 DUP1 REVERT JUMPDEST PUSH2 0x7E5 JUMP JUMPDEST PUSH2 0x150 SWAP1 PUSH2 0x7CA SWAP1 PUSH1 0x1 PUSH1 0x1 PUSH1 0xA0 SHL SUB AND DUP3 JUMP JUMPDEST PUSH2 0x150 SWAP1 PUSH2 0x80F JUMP JUMPDEST PUSH2 0x150 SWAP1 PUSH2 0x823 JUMP JUMPDEST SWAP1 PUSH2 0x83F SWAP1 PUSH2 0x82C JUMP JUMPDEST PUSH1 0x0 MSTORE PUSH1 0x20 MSTORE PUSH1 0x40 PUSH1 0x0 KECCAK256 SWAP1 JUMP JUMPDEST PUSH2 0x858 SWAP1 PUSH1 0x0 PUSH2 0x835 JUMP JUMPDEST PUSH2 0x490 DUP2 PUSH2 0x3E1 JUMP JUMPDEST POP CALLVALUE PUSH2 0x87E JUMPI JUMPDEST PUSH2 0x233 PUSH2 0x505 PUSH2 0x879 CALLDATASIZE PUSH1 0x4 PUSH2 0x7F2 JUMP JUMPDEST PUSH2 0x84D JUMP JUMPDEST PUSH2 0x886 PUSH1 0x0 DUP1 REVERT JUMPDEST PUSH2 0x868 JUMP JUMPDEST POP CALLVALUE PUSH2 0x8A5 JUMPI JUMPDEST PUSH2 0x6CA PUSH2 0x8A0 CALLDATASIZE PUSH1 0x4 PUSH2 0x25A JUMP JUMPDEST PUSH2 0x13C2 JUMP JUMPDEST PUSH2 0x8AD PUSH1 0x0 DUP1 REVERT JUMPDEST PUSH2 0x892 JUMP JUMPDEST PUSH2 0x150 PUSH2 0x150 PUSH2 0x150 SWAP3 SWAP1 JUMP JUMPDEST ISZERO PUSH2 0x8C6 JUMPI JUMP JUMPDEST PUSH1 0x40 MLOAD PUSH3 0x461BCD PUSH1 0xE5 SHL DUP2 MSTORE PUSH1 0x20 PUSH1 0x4 DUP3 ADD MSTORE PUSH1 0x1A PUSH1 0x24 DUP3 ADD MSTORE PUSH32 0x4669727374206E616D652063616E6E6F7420626520656D707479000000000000 PUSH1 0x44 DUP3 ADD MSTORE PUSH1 0x64 SWAP1 REVERT JUMPDEST ISZERO PUSH2 0x912 JUMPI JUMP JUMPDEST PUSH1 0x40 MLOAD PUSH3 0x461BCD PUSH1 0xE5 SHL DUP2 MSTORE PUSH1 0x20 PUSH1 0x4 DUP3 ADD MSTORE PUSH1 0x19 PUSH1 0x24 DUP3 ADD MSTORE PUSH32 0x4C617374206E616D652063616E6E6F7420626520656D70747900000000000000 PUSH1 0x44 DUP3 ADD MSTORE PUSH1 0x64 SWAP1 REVERT JUMPDEST ISZERO PUSH2 0x95E JUMPI JUMP JUMPDEST PUSH1 0x40 MLOAD PUSH3 0x461BCD PUSH1 0xE5 SHL DUP2 MSTORE PUSH1 0x20 PUSH1 0x4 DUP3 ADD MSTORE PUSH1 0x16 PUSH1 0x24 DUP3 ADD MSTORE PUSH22 0x4465677265652063616E6E6F7420626520656D707479 PUSH1 0x50 SHL PUSH1 0x44 DUP3 ADD MSTORE PUSH1 0x64 SWAP1 REVERT JUMPDEST ISZERO PUSH2 0x9A3 JUMPI JUMP JUMPDEST PUSH1 0x40 MLOAD PUSH3 0x461BCD PUSH1 0xE5 SHL DUP2 MSTORE PUSH1 0x20 PUSH1 0x4 DUP3 ADD MSTORE PUSH1 0x15 PUSH1 0x24 DUP3 ADD MSTORE PUSH21 0x4D616A6F722063616E6E6F7420626520656D707479 PUSH1 0x58 SHL PUSH1 0x44 DUP3 ADD MSTORE PUSH1 0x64 SWAP1 REVERT JUMPDEST ISZERO PUSH2 0x9E7 JUMPI JUMP JUMPDEST PUSH1 0x40 MLOAD PUSH3 0x461BCD PUSH1 0xE5 SHL DUP2 MSTORE PUSH1 0x20 PUSH1 0x4 DUP3 ADD MSTORE PUSH1 0x14 PUSH1 0x24 DUP3 ADD MSTORE PUSH20 0x796165722063616E6E6F7420626520656D707479 PUSH1 0x60 SHL PUSH1 0x44 DUP3 ADD MSTORE PUSH1 0x64 SWAP1 REVERT JUMPDEST POP PUSH4 0x4E487B71 PUSH1 0xE0 SHL PUSH1 0x0 MSTORE PUSH1 0x0 PUSH1 0x4 MSTORE PUSH1 0x24 PUSH1 0x0 REVERT JUMPDEST SWAP2 SWAP1 PUSH2 0xA4B PUSH2 0x150 PUSH2 0xA67 SWAP4 PUSH2 0x8B2 JUMP JUMPDEST SWAP1 DUP4 SLOAD SWAP2 PUSH1 0x0 NOT PUSH1 0x8 SWAP3 SWAP1 SWAP3 MUL SWAP2 DUP3 SHL SWAP2 SHL SWAP2 DUP2 NOT AND SWAP2 AND OR SWAP1 JUMP JUMPDEST SWAP1 SSTORE JUMP JUMPDEST PUSH2 0xB1 SWAP2 PUSH1 0x0 SWAP2 PUSH2 0xA3A JUMP JUMPDEST DUP2 DUP2 LT PUSH2 0xA82 JUMPI POP POP JUMP JUMPDEST DUP1 PUSH2 0xA90 PUSH1 0x0 PUSH1 0x1 SWAP4 PUSH2 0xA6B JUMP JUMPDEST ADD PUSH2 0xA77 JUMP JUMPDEST SWAP2 SWAP1 PUSH1 0x1F DUP2 GT PUSH2 0xAA5 JUMPI POP POP POP JUMP JUMPDEST PUSH2 0xAB7 PUSH2 0xB1 SWAP4 PUSH1 0x0 MSTORE PUSH1 0x20 PUSH1 0x0 KECCAK256 SWAP1 JUMP JUMPDEST SWAP1 PUSH1 0x20 PUSH1 0x1F DUP5 ADD DUP2 SWAP1 DIV DUP4 ADD SWAP4 LT PUSH2 0xADA JUMPI JUMPDEST PUSH1 0x20 PUSH1 0x1F SWAP1 SWAP2 ADD DIV JUMPDEST ADD SWAP1 PUSH2 0xA77 JUMP JUMPDEST SWAP1 SWAP2 POP DUP2 SWAP1 PUSH2 0xACA JUMP JUMPDEST PUSH1 0x0 NOT PUSH1 0x8 DUP4 MUL SHR NOT AND SWAP1 PUSH1 0x2 MUL OR SWAP1 JUMP JUMPDEST SWAP1 PUSH2 0xAFF DUP2 MLOAD SWAP1 JUMP JUMPDEST SWAP1 PUSH1 0x1 PUSH1 0x1 PUSH1 0x40 SHL SUB DUP3 GT PUSH2 0xBBC JUMPI JUMPDEST PUSH2 0xB23 DUP3 PUSH2 0xB1D DUP6 SLOAD PUSH2 0x2E1 JUMP JUMPDEST DUP6 PUSH2 0xA96 JUMP JUMPDEST PUSH1 0x20 SWAP1 PUSH1 0x1F DUP4 GT PUSH1 0x1 EQ PUSH2 0xB51 JUMPI PUSH2 0xA67 SWAP3 SWAP2 PUSH1 0x0 SWAP2 DUP4 PUSH2 0xB46 JUMPI JUMPDEST POP POP PUSH2 0xAE4 JUMP JUMPDEST ADD MLOAD SWAP1 POP CODESIZE DUP1 PUSH2 0xB3F JUMP JUMPDEST PUSH1 0x1F NOT DUP4 AND SWAP2 PUSH2 0xB66 DUP6 PUSH1 0x0 MSTORE PUSH1 0x20 PUSH1 0x0 KECCAK256 SWAP1 JUMP JUMPDEST SWAP3 PUSH1 0x0 JUMPDEST DUP2 DUP2 LT PUSH2 0xBA4 JUMPI POP SWAP2 PUSH1 0x2 SWAP4 SWAP2 DUP6 PUSH1 0x1 SWAP7 SWAP5 LT PUSH2 0xB8B JUMPI JUMPDEST POP POP POP MUL ADD SWAP1 SSTORE JUMP JUMPDEST ADD MLOAD PUSH1 0x0 NOT PUSH1 0x8 PUSH1 0x1F DUP6 AND MUL SHR NOT AND SWAP1 SSTORE CODESIZE DUP1 DUP1 PUSH2 0xB82 JUMP JUMPDEST SWAP2 SWAP4 PUSH1 0x20 PUSH1 0x1 DUP2 SWAP3 DUP8 DUP8 ADD MLOAD DUP2 SSTORE ADD SWAP6 ADD SWAP3 ADD PUSH2 0xB6A JUMP JUMPDEST PUSH2 0xBC4 PUSH2 0x39C JUMP JUMPDEST PUSH2 0xB0F JUMP JUMPDEST SWAP1 PUSH2 0xB1 SWAP2 PUSH2 0xAF6 JUMP JUMPDEST SWAP1 PUSH2 0xBF1 PUSH1 0x40 PUSH1 0x2 PUSH2 0xB1 SWAP5 PUSH2 0xBF7 PUSH1 0x0 DUP3 ADD PUSH2 0xBF1 PUSH1 0x0 DUP9 ADD MLOAD SWAP1 JUMP JUMPDEST SWAP1 PUSH2 0xBC9 JUMP JUMPDEST PUSH2 0xC09 PUSH1 0x1 DUP3 ADD PUSH2 0xBF1 PUSH1 0x20 DUP9 ADD MLOAD SWAP1 JUMP JUMPDEST ADD SWAP3 ADD MLOAD SWAP1 JUMP JUMPDEST SWAP1 PUSH2 0xB1 SWAP2 PUSH2 0xBD3 JUMP JUMPDEST SWAP1 PUSH2 0xC38 PUSH1 0x40 PUSH1 0x2 PUSH2 0xB1 SWAP5 PUSH2 0xBF7 PUSH1 0x0 DUP3 ADD PUSH2 0xBF1 PUSH1 0x0 DUP9 ADD MLOAD SWAP1 JUMP JUMPDEST SWAP1 PUSH2 0xC10 JUMP JUMPDEST PUSH2 0xB1 SWAP3 SWAP2 ISZERO PUSH2 0xC1A JUMPI PUSH2 0xC50 PUSH2 0xA23 JUMP JUMPDEST PUSH2 0xC1A JUMP JUMPDEST SWAP1 PUSH2 0xC78 PUSH2 0xB1 SWAP3 DUP1 SLOAD SWAP1 PUSH1 0x1 PUSH1 0x40 SHL DUP3 LT ISZERO PUSH2 0xC7E JUMPI JUMPDEST PUSH1 0x1 DUP3 ADD DUP2 SSTORE PUSH2 0x28E JUMP JUMPDEST SWAP1 PUSH2 0xC3E JUMP JUMPDEST PUSH2 0xC86 PUSH2 0x39C JUMP JUMPDEST PUSH2 0xC6D JUMP JUMPDEST POP PUSH4 0x4E487B71 PUSH1 0xE0 SHL PUSH1 0x0 MSTORE PUSH1 0x11 PUSH1 0x4 MSTORE PUSH1 0x24 PUSH1 0x0 REVERT JUMPDEST SWAP2 SWAP1 DUP3 SUB SWAP2 DUP3 GT PUSH2 0xCAF JUMPI JUMP JUMPDEST PUSH2 0xB1 PUSH2 0xC8B JUMP JUMPDEST SWAP5 SWAP1 PUSH2 0xD24 SWAP5 PUSH2 0xCFA PUSH2 0x150 SWAP9 SWAP6 PUSH2 0xCEC DUP10 PUSH2 0xD16 SWAP8 PUSH2 0xCDF PUSH2 0xD08 SWAP8 PUSH1 0x0 PUSH1 0xE0 DUP6 ADD SWAP5 ADD MSTORE JUMP JUMPDEST DUP12 DUP3 SUB PUSH1 0x20 DUP14 ADD MSTORE PUSH2 0xE0 JUMP JUMPDEST SWAP1 DUP10 DUP3 SUB PUSH1 0x40 DUP12 ADD MSTORE PUSH2 0xE0 JUMP JUMPDEST SWAP1 DUP8 DUP3 SUB PUSH1 0x60 DUP10 ADD MSTORE PUSH2 0xE0 JUMP JUMPDEST SWAP1 DUP6 DUP3 SUB PUSH1 0x80 DUP8 ADD MSTORE PUSH2 0xE0 JUMP JUMPDEST SWAP1 DUP4 DUP3 SUB PUSH1 0xA0 DUP6 ADD MSTORE PUSH2 0xE0 JUMP JUMPDEST SWAP1 PUSH1 0xC0 DUP2 DUP4 SUB SWAP2 ADD MSTORE PUSH1 0xF DUP2 MSTORE PUSH15 0x414354494F4E5F434F4E4649524D45 PUSH1 0x88 SHL PUSH1 0x20 DUP3 ADD MSTORE PUSH1 0x40 ADD SWAP1 JUMP JUMPDEST SWAP1 SWAP2 PUSH2 0xEAD PUSH2 0x150 SWAP6 PUSH2 0xD60 PUSH1 0x0 SWAP1 JUMP JUMPDEST POP DUP4 MLOAD PUSH2 0xD6C JUMP JUMPDEST MLOAD SWAP1 JUMP JUMPDEST SWAP6 PUSH2 0xD89 PUSH1 0x0 SWAP8 PUSH2 0xD83 PUSH2 0xD7F DUP11 PUSH2 0x8B2 JUMP JUMPDEST SWAP2 SWAP1 JUMP JUMPDEST GT PUSH2 0x8BF JUMP JUMPDEST PUSH2 0xDA6 PUSH2 0xD94 DUP8 MLOAD SWAP1 JUMP JUMPDEST PUSH2 0xDA0 PUSH2 0xD7F DUP11 PUSH2 0x8B2 JUMP JUMPDEST GT PUSH2 0x90B JUMP JUMPDEST PUSH2 0xDC3 PUSH2 0xDB1 DUP6 MLOAD SWAP1 JUMP JUMPDEST PUSH2 0xDBD PUSH2 0xD7F DUP11 PUSH2 0x8B2 JUMP JUMPDEST GT PUSH2 0x957 JUMP JUMPDEST PUSH2 0xDE0 PUSH2 0xDCE DUP3 MLOAD SWAP1 JUMP JUMPDEST PUSH2 0xDDA PUSH2 0xD7F DUP11 PUSH2 0x8B2 JUMP JUMPDEST GT PUSH2 0x99C JUMP JUMPDEST PUSH2 0xDFD PUSH2 0xDEB DUP4 MLOAD SWAP1 JUMP JUMPDEST PUSH2 0xDF7 PUSH2 0xD7F DUP11 PUSH2 0x8B2 JUMP JUMPDEST GT PUSH2 0x9E0 JUMP JUMPDEST PUSH2 0xE4C PUSH2 0xE08 PUSH2 0x416 JUMP JUMPDEST PUSH2 0xE12 DUP7 DUP11 DUP4 ADD MSTORE JUMP JUMPDEST PUSH2 0xE1D DUP4 PUSH1 0x20 DUP4 ADD MSTORE JUMP JUMPDEST PUSH2 0xE28 DUP5 PUSH1 0x40 DUP4 ADD MSTORE JUMP JUMPDEST PUSH2 0xE3A DUP8 PUSH2 0xE34 PUSH2 0x416 JUMP JUMPDEST SWAP11 DUP12 ADD MSTORE JUMP JUMPDEST PUSH2 0xE45 DUP9 PUSH1 0x20 DUP12 ADD MSTORE JUMP JUMPDEST PUSH1 0x40 DUP10 ADD MSTORE JUMP JUMPDEST PUSH2 0xE5E PUSH1 0x1 SWAP8 PUSH2 0xE59 DUP10 SWAP1 JUMP JUMPDEST PUSH2 0xC55 JUMP JUMPDEST PUSH2 0xE78 PUSH2 0xE69 DUP9 SLOAD SWAP1 JUMP JUMPDEST PUSH2 0xE72 DUP10 PUSH2 0x8B2 JUMP JUMPDEST SWAP1 PUSH2 0xCA2 JUMP JUMPDEST SWAP4 PUSH32 0xB3BA2CFF02B32EEB145A4310F642027C74C7037F3F86732AD86B47EE1FDD8D2A SWAP7 PUSH2 0xEA4 PUSH1 0x40 MLOAD SWAP1 JUMP JUMPDEST SWAP7 DUP8 SWAP7 DUP8 PUSH2 0xCB7 JUMP JUMPDEST SUB SWAP1 LOG1 PUSH2 0xE72 PUSH2 0xEBB DUP3 SLOAD SWAP1 JUMP JUMPDEST SWAP2 PUSH2 0x8B2 JUMP JUMPDEST PUSH1 0x20 DUP1 SWAP2 PUSH1 0x1 PUSH1 0x1 PUSH1 0x40 SHL SUB DUP2 GT PUSH2 0xED8 JUMPI MUL ADD SWAP1 JUMP JUMPDEST PUSH2 0xEE0 PUSH2 0x39C JUMP JUMPDEST MUL ADD SWAP1 JUMP JUMPDEST SWAP1 PUSH2 0xEF2 PUSH2 0x566 DUP4 PUSH2 0xEC1 JUMP JUMPDEST SWAP2 DUP3 MSTORE JUMP JUMPDEST SWAP1 PUSH2 0xB1 PUSH2 0x45E PUSH1 0x2 PUSH2 0xF08 PUSH2 0x416 JUMP JUMPDEST SWAP5 PUSH2 0xF15 PUSH2 0x43E DUP3 PUSH2 0x3E1 JUMP JUMPDEST PUSH2 0xF24 PUSH2 0x451 PUSH1 0x1 DUP4 ADD PUSH2 0x3E1 JUMP JUMPDEST ADD PUSH2 0x420 JUMP JUMPDEST PUSH2 0x150 SWAP1 PUSH2 0xEF7 JUMP JUMPDEST SWAP1 PUSH2 0xF3C DUP3 SLOAD SWAP1 JUMP JUMPDEST PUSH2 0xF45 DUP2 PUSH2 0xEE5 JUMP JUMPDEST SWAP3 PUSH2 0xF59 PUSH1 0x20 DUP6 ADD SWAP2 PUSH1 0x0 MSTORE PUSH1 0x20 PUSH1 0x0 KECCAK256 SWAP1 JUMP JUMPDEST PUSH1 0x0 SWAP2 JUMPDEST DUP4 DUP4 LT PUSH2 0xF6A JUMPI POP POP POP POP JUMP JUMPDEST PUSH1 0x5 PUSH1 0x20 PUSH1 0x1 SWAP3 PUSH2 0xF7A DUP6 PUSH2 0xF2A JUMP JUMPDEST DUP2 MSTORE ADD SWAP3 ADD SWAP3 ADD SWAP2 SWAP1 PUSH2 0xF5D JUMP JUMPDEST PUSH2 0x150 SWAP1 PUSH2 0xF33 JUMP JUMPDEST PUSH2 0x150 PUSH1 0x1 PUSH2 0xF88 JUMP JUMPDEST ISZERO PUSH2 0xFA2 JUMPI JUMP JUMPDEST PUSH1 0x40 MLOAD PUSH3 0x461BCD PUSH1 0xE5 SHL DUP2 MSTORE PUSH1 0x20 PUSH1 0x4 DUP3 ADD MSTORE PUSH1 0x19 PUSH1 0x24 DUP3 ADD MSTORE PUSH32 0x46697273746E616D652063616E6E6F7420626520656D70747900000000000000 PUSH1 0x44 DUP3 ADD MSTORE PUSH1 0x64 SWAP1 REVERT JUMPDEST ISZERO PUSH2 0xFEE JUMPI JUMP JUMPDEST PUSH1 0x40 MLOAD PUSH3 0x461BCD PUSH1 0xE5 SHL DUP2 MSTORE PUSH1 0x20 PUSH1 0x4 DUP3 ADD MSTORE PUSH1 0x18 PUSH1 0x24 DUP3 ADD MSTORE PUSH32 0x4C6173746E616D652063616E6E6F7420626520656D7074790000000000000000 PUSH1 0x44 DUP3 ADD MSTORE PUSH1 0x64 SWAP1 REVERT JUMPDEST ISZERO PUSH2 0x103A JUMPI JUMP JUMPDEST PUSH1 0x40 MLOAD PUSH3 0x461BCD PUSH1 0xE5 SHL DUP2 MSTORE PUSH1 0x20 PUSH1 0x4 DUP3 ADD MSTORE PUSH1 0x14 PUSH1 0x24 DUP3 ADD MSTORE PUSH20 0x796561722063616E6E6F7420626520656D707479 PUSH1 0x60 SHL PUSH1 0x44 DUP3 ADD MSTORE PUSH1 0x64 SWAP1 REVERT JUMPDEST SWAP3 SWAP4 PUSH2 0x1192 SWAP3 SWAP6 SWAP2 SWAP5 PUSH2 0x1167 PUSH2 0x108C PUSH2 0xD68 DUP9 SWAP1 JUMP JUMPDEST PUSH2 0x10A4 PUSH1 0x0 SWAP2 PUSH2 0x109E PUSH2 0xD7F DUP5 PUSH2 0x8B2 JUMP JUMPDEST GT PUSH2 0xF9B JUMP JUMPDEST PUSH2 0x10C1 PUSH2 0x10AF DUP11 MLOAD SWAP1 JUMP JUMPDEST PUSH2 0x10BB PUSH2 0xD7F DUP5 PUSH2 0x8B2 JUMP JUMPDEST GT PUSH2 0xFE7 JUMP JUMPDEST PUSH2 0x10D8 PUSH2 0x10CC DUP5 MLOAD SWAP1 JUMP JUMPDEST PUSH2 0xDBD PUSH2 0xD7F DUP5 PUSH2 0x8B2 JUMP JUMPDEST PUSH2 0x10EF PUSH2 0x10E3 DUP6 MLOAD SWAP1 JUMP JUMPDEST PUSH2 0xDDA PUSH2 0xD7F DUP5 PUSH2 0x8B2 JUMP JUMPDEST PUSH2 0x110C PUSH2 0x10FA DUP7 MLOAD SWAP1 JUMP JUMPDEST PUSH2 0x1106 PUSH2 0xD7F DUP5 PUSH2 0x8B2 JUMP JUMPDEST GT PUSH2 0x1033 JUMP JUMPDEST PUSH1 0x2 PUSH2 0x1116 PUSH2 0x416 JUMP JUMPDEST SWAP2 PUSH2 0x1121 DUP6 DUP3 DUP6 ADD MSTORE JUMP JUMPDEST PUSH2 0x112C DUP7 PUSH1 0x20 DUP6 ADD MSTORE JUMP JUMPDEST PUSH2 0x1137 DUP8 PUSH1 0x40 DUP6 ADD MSTORE JUMP JUMPDEST PUSH2 0x1161 DUP12 PUSH1 0x1 PUSH2 0x115A DUP14 PUSH2 0x1152 PUSH2 0x114E DUP16 DUP6 PUSH2 0x28E JUMP JUMPDEST POP SWAP1 JUMP JUMPDEST SWAP6 DUP7 ADD PUSH2 0xBC9 JUMP JUMPDEST DUP4 ADD PUSH2 0xBC9 JUMP JUMPDEST ADD PUSH2 0xC10 JUMP JUMPDEST PUSH32 0x7805D5A30B55D3F171BAC6EDBC08F1EC7FF173B3A037A9835B57F9EA38D01C6D SWAP7 PUSH2 0xEA4 PUSH1 0x40 MLOAD SWAP1 JUMP JUMPDEST SUB SWAP1 LOG1 JUMP JUMPDEST SWAP1 PUSH2 0x11AA SWAP1 PUSH1 0x0 NOT SWAP1 PUSH1 0x20 SUB PUSH1 0x8 MUL SHR SWAP1 JUMP JUMPDEST DUP2 SLOAD AND SWAP1 SSTORE JUMP JUMPDEST SWAP1 PUSH1 0x0 SWAP2 PUSH2 0x11CF PUSH2 0x11C7 DUP3 PUSH1 0x0 MSTORE PUSH1 0x20 PUSH1 0x0 KECCAK256 SWAP1 JUMP JUMPDEST SWAP3 DUP4 SLOAD PUSH2 0xAE4 JUMP JUMPDEST SWAP1 SSTORE SSTORE JUMP JUMPDEST SWAP2 SWAP3 SWAP1 PUSH1 0x20 DUP3 LT ISZERO PUSH2 0x122C JUMPI PUSH1 0x1F DUP5 GT PUSH1 0x1 EQ PUSH2 0x11F6 JUMPI PUSH2 0xA67 SWAP3 SWAP4 POP PUSH2 0xAE4 JUMP JUMPDEST POP SWAP1 PUSH2 0x1227 PUSH2 0xB1 SWAP4 PUSH1 0x1 PUSH2 0x121E PUSH2 0x1213 DUP6 PUSH1 0x0 MSTORE PUSH1 0x20 PUSH1 0x0 KECCAK256 SWAP1 JUMP JUMPDEST SWAP3 PUSH1 0x1F PUSH1 0x20 SWAP2 ADD DIV SWAP1 JUMP JUMPDEST DUP3 ADD SWAP2 ADD PUSH2 0xA77 JUMP JUMPDEST PUSH2 0x11B1 JUMP JUMPDEST POP PUSH2 0x1265 DUP3 SWAP4 PUSH2 0x1243 PUSH1 0x1 SWAP5 PUSH1 0x0 MSTORE PUSH1 0x20 PUSH1 0x0 KECCAK256 SWAP1 JUMP JUMPDEST PUSH2 0xAD3 PUSH1 0x20 PUSH1 0x1F DUP7 ADD DIV DUP3 ADD SWAP3 PUSH1 0x1F DUP7 AND DUP1 PUSH2 0x126D JUMPI JUMPDEST POP PUSH1 0x1F PUSH1 0x20 SWAP2 ADD DIV SWAP1 JUMP JUMPDEST PUSH1 0x2 MUL OR SWAP1 SSTORE JUMP JUMPDEST PUSH2 0x1279 SWAP1 DUP9 DUP7 SUB PUSH2 0x1197 JUMP JUMPDEST CODESIZE PUSH2 0x125A JUMP JUMPDEST SWAP3 SWAP1 SWAP2 PUSH1 0x20 SWAP1 PUSH1 0x1 PUSH1 0x40 SHL DUP4 GT PUSH2 0x12D4 JUMPI JUMPDEST LT ISZERO PUSH2 0x12C8 JUMPI PUSH1 0x20 DUP2 LT ISZERO PUSH2 0x12A9 JUMPI PUSH2 0xA67 SWAP2 PUSH2 0xAE4 JUMP JUMPDEST PUSH1 0x1 SWAP2 PUSH1 0xFF NOT AND PUSH2 0x12BF DUP5 PUSH1 0x0 MSTORE PUSH1 0x20 PUSH1 0x0 KECCAK256 SWAP1 JUMP JUMPDEST SSTORE PUSH1 0x2 MUL ADD SWAP1 SSTORE JUMP JUMPDEST PUSH1 0x1 SWAP2 POP PUSH1 0x2 MUL ADD SWAP1 SSTORE JUMP JUMPDEST PUSH2 0x12DC PUSH2 0x39C JUMP JUMPDEST PUSH2 0x1291 JUMP JUMPDEST SWAP1 DUP2 SLOAD PUSH2 0x12ED DUP2 PUSH2 0x2E1 JUMP JUMPDEST SWAP1 DUP2 DUP4 GT PUSH2 0x1316 JUMPI JUMPDEST DUP2 DUP4 LT PUSH2 0x1304 JUMPI JUMPDEST POP POP POP POP JUMP JUMPDEST PUSH2 0x130D SWAP4 PUSH2 0x11D4 JUMP JUMPDEST CODESIZE DUP1 DUP1 DUP1 PUSH2 0x12FE JUMP JUMPDEST PUSH2 0x1322 DUP4 DUP4 DUP4 DUP8 PUSH2 0x127F JUMP JUMPDEST PUSH2 0x12F6 JUMP JUMPDEST PUSH1 0x0 PUSH2 0xB1 SWAP2 PUSH2 0x12E1 JUMP JUMPDEST PUSH2 0xB1 SWAP2 ISZERO PUSH2 0x1327 JUMPI PUSH2 0x1343 PUSH2 0xA23 JUMP JUMPDEST PUSH2 0x1327 JUMP JUMPDEST PUSH1 0x0 PUSH1 0x2 PUSH2 0xB1 SWAP3 PUSH2 0x135C DUP4 DUP1 DUP4 ADD PUSH2 0x1332 JUMP JUMPDEST PUSH2 0x1369 DUP4 PUSH1 0x1 DUP4 ADD PUSH2 0x1332 JUMP JUMPDEST ADD PUSH2 0x1332 JUMP JUMPDEST PUSH2 0xB1 SWAP2 ISZERO PUSH2 0x1348 JUMPI PUSH2 0x1380 PUSH2 0xA23 JUMP JUMPDEST PUSH2 0x1348 JUMP JUMPDEST PUSH1 0x0 PUSH1 0x2 PUSH2 0xB1 SWAP3 PUSH2 0x1399 DUP4 DUP1 DUP4 ADD PUSH2 0x1332 JUMP JUMPDEST PUSH2 0x13A6 DUP4 PUSH1 0x1 DUP4 ADD PUSH2 0x1332 JUMP JUMPDEST ADD PUSH2 0x136F JUMP JUMPDEST PUSH2 0xB1 SWAP2 ISZERO PUSH2 0x1385 JUMPI PUSH2 0x13BD PUSH2 0xA23 JUMP JUMPDEST PUSH2 0x1385 JUMP JUMPDEST PUSH2 0x13D0 PUSH2 0x13D6 SWAP2 PUSH1 0x1 PUSH2 0x28E JUMP JUMPDEST SWAP1 PUSH2 0x13AC JUMP JUMPDEST PUSH32 0xA6FB241657C3C18FC80B9EAD1A3FF49713B698AFDF880800D2FC42F10098CD53 PUSH2 0x1400 PUSH1 0x40 MLOAD SWAP1 JUMP JUMPDEST PUSH1 0x20 DUP1 DUP3 MSTORE PUSH1 0xF SWAP1 DUP3 ADD MSTORE PUSH15 0x414354494F4E5F434F4E4649524D45 PUSH1 0x88 SHL PUSH1 0x40 DUP3 ADD MSTORE DUP1 PUSH1 0x60 DUP2 ADD PUSH2 0x1192 JUMP INVALID LOG2 PUSH5 0x6970667358 0x22 SLT KECCAK256 SWAP7 POP 0xD7 SUB 0xBE 0xEF 0xB2 DUP11 CALLDATACOPY 0xF7 PUSH28 0xABBFE9774F717AED88624244A11864071E9F8295AB64736F6C634300 ADDMOD GT STOP CALLER "},"methodIdentifiers":{"Students(uint256)":"57c8d71d","createStudent(string,string,string,string,string)":"8ef4b9d3","deleteStudent(uint256)":"b645307d","getAallStudents()":"0352e27c","students(address)":"a6c807a9","updateStudent(uint256,string,string,string,string,string)":"728e2274"}}}}}