{"contracts/Studentmultisig.sol":{"StudentRegistry2":{"abi":[{"inputs":[{"internalType":"address[]","name":"_owners","type":"address[]"},{"internalType":"uint256","name":"_numConfirmationsRequired","type":"uint256"}],"stateMutability":"nonpayable","type":"constructor"},{"anonymous":false,"inputs":[{"indexed":true,"internalType":"uint256","name":"studentId","type":"uint256"},{"indexed":true,"internalType":"address","name":"sender","type":"address"}],"name":"Confirmation","type":"event"},{"anonymous":false,"inputs":[{"indexed":true,"internalType":"uint256","name":"studentId","type":"uint256"}],"name":"Execution","type":"event"},{"anonymous":false,"inputs":[{"indexed":true,"internalType":"uint256","name":"studentId","type":"uint256"},{"indexed":false,"internalType":"string","name":"firstName","type":"string"},{"indexed":false,"internalType":"string","name":"lastName","type":"string"},{"indexed":false,"internalType":"string","name":"degree","type":"string"},{"indexed":false,"internalType":"string","name":"major","type":"string"},{"indexed":false,"internalType":"uint256","name":"year","type":"uint256"}],"name":"StudentCreated","type":"event"},{"anonymous":false,"inputs":[{"indexed":true,"internalType":"uint256","name":"studentId","type":"uint256"}],"name":"StudentDeleted","type":"event"},{"anonymous":false,"inputs":[{"indexed":true,"internalType":"uint256","name":"studentId","type":"uint256"},{"indexed":false,"internalType":"string","name":"firstName","type":"string"},{"indexed":false,"internalType":"string","name":"lastName","type":"string"},{"indexed":false,"internalType":"string","name":"degree","type":"string"},{"indexed":false,"internalType":"string","name":"major","type":"string"},{"indexed":false,"internalType":"uint256","name":"year","type":"uint256"}],"name":"StudentUpdated","type":"event"},{"inputs":[{"internalType":"uint256","name":"_studentId","type":"uint256"}],"name":"confirmCreateStudent","outputs":[],"stateMutability":"nonpayable","type":"function"},{"inputs":[{"internalType":"string","name":"_firstName","type":"string"},{"internalType":"string","name":"_lastName","type":"string"},{"internalType":"string","name":"_degree","type":"string"},{"internalType":"string","name":"_major","type":"string"},{"internalType":"uint256","name":"_year","type":"uint256"}],"name":"createStudent","outputs":[],"stateMutability":"nonpayable","type":"function"},{"inputs":[{"internalType":"uint256","name":"_studentId","type":"uint256"}],"name":"deleteStudent","outputs":[],"stateMutability":"nonpayable","type":"function"},{"inputs":[{"internalType":"address","name":"","type":"address"}],"name":"isOwner","outputs":[{"internalType":"bool","name":"","type":"bool"}],"stateMutability":"view","type":"function"},{"inputs":[{"internalType":"uint256","name":"_studentId","type":"uint256"}],"name":"issueCertificate","outputs":[{"internalType":"bytes","name":"","type":"bytes"}],"stateMutability":"view","type":"function"},{"inputs":[],"name":"numConfirmationsRequired","outputs":[{"internalType":"uint256","name":"","type":"uint256"}],"stateMutability":"view","type":"function"},{"inputs":[{"internalType":"uint256","name":"","type":"uint256"}],"name":"owners","outputs":[{"internalType":"address","name":"","type":"address"}],"stateMutability":"view","type":"function"},{"inputs":[{"internalType":"uint256","name":"_studentId","type":"uint256"}],"name":"readStudent","outputs":[{"internalType":"string","name":"","type":"string"},{"internalType":"string","name":"","type":"string"},{"internalType":"string","name":"","type":"string"},{"internalType":"string","name":"","type":"string"},{"internalType":"uint256","name":"","type":"uint256"}],"stateMutability":"view","type":"function"},{"inputs":[],"name":"studentCount","outputs":[{"internalType":"uint256","name":"","type":"uint256"}],"stateMutability":"view","type":"function"},{"inputs":[{"internalType":"uint256","name":"","type":"uint256"}],"name":"students","outputs":[{"internalType":"string","name":"firstName","type":"string"},{"internalType":"string","name":"lastName","type":"string"},{"components":[{"internalType":"string","name":"degree","type":"string"},{"internalType":"string","name":"major","type":"string"},{"internalType":"uint256","name":"year","type":"uint256"}],"internalType":"struct StudentRegistry2.Education","name":"education","type":"tuple"},{"internalType":"bool","name":"isExecuted","type":"bool"},{"internalType":"uint256","name":"confirmationCount","type":"uint256"}],"stateMutability":"view","type":"function"},{"inputs":[{"internalType":"uint256","name":"_studentId","type":"uint256"},{"internalType":"string","name":"_firstName","type":"string"},{"internalType":"string","name":"_lastName","type":"string"},{"internalType":"string","name":"_degree","type":"string"},{"internalType":"string","name":"_major","type":"string"},{"internalType":"uint256","name":"_year","type":"uint256"}],"name":"updateStudent","outputs":[],"stateMutability":"nonpayable","type":"function"}],"evm":{"bytecode":{"linkReferences":{},"object":"60806040523462000032575b62000020620000196200020b565b9062000555565b60405161198f62000688823961198f90f35b6200003b600080fd5b6200000b565b600080fd5b50634e487b7160e01b600052604160045260246000fd5b90601f01601f191681019081106001600160401b038211176200007f57604052565b6200008962000046565b604052565b90620000a56200009d60405190565b92836200005d565b565b60209081906001600160401b038111620000c057020190565b620000ca62000046565b020190565b6001600160a01b031690565b90565b6001600160a01b0381165b036200004157565b90505190620000a582620000de565b90929192620001196200011382620000a7565b6200008e565b93818552602080860192028301928184116200015c575b915b838310620001405750505050565b60208091620001508486620000f1565b81520192019162000132565b62000165600080fd5b62000130565b90620000db9181601f820112156200018a575b60208151910162000100565b62000193600080fd5b6200017e565b80620000e9565b90505190620000a58262000199565b9190620000db90604084820312620001fc575b8351620001e39082906001600160401b038111620001ed575b86016200016b565b93602001620001a0565b620001f6600080fd5b620001db565b62000205600080fd5b620001c2565b6200022e620020178038038062000222816200008e565b928339810190620001af565b9091565b620000db620000db620000db9290565b0190565b156200024e57565b60405162461bcd60e51b815260206004820152600f60248201526e13dddb995c9cc81c995c5d5a5c9959608a1b6044820152606490fd5b156200028d57565b60405162461bcd60e51b815260206004820152602860248201527f496e76616c6964206e756d626572206f6620636f6e6669726d6174696f6e73206044820152671c995c5d5a5c995960c21b6064820152608490fd5b50634e487b7160e01b600052601160045260246000fd5b60019060001981146200030b570190565b62000242620002e3565b50634e487b7160e01b600052603260045260246000fd5b90602080916200033a845190565b81101562000349575b02010190565b6200035362000315565b62000343565b620000cf620000db620000db9290565b620000db9062000359565b156200037c57565b60405162461bcd60e51b815260206004820152600d60248201526c24b73b30b634b21037bbb732b960991b6044820152606490fd5b620000db90620000cf906001600160a01b031682565b620000db90620003b1565b620000db90620003c7565b90620003e990620003d2565b600052602052604060002090565b15620003ff57565b60405162461bcd60e51b815260206004820152601360248201527f4f776e657220616c7265616479206164646564000000000000000000000000006044820152606490fd5b9060ff905b9181191691161790565b9062000466620000db6200046e92151590565b825462000444565b9055565b6200049560019162000482815490565b8410156200049e57600052602060002090565b91020190600090565b620004a862000315565b600052602060002090565b916001600160a01b0360089290920291821b911b62000449565b9190620004e2620000db6200046e93620003d2565b908354620004b3565b9062000517620000a592805490680100000000000000008210156200051e575b60018201815562000472565b90620004cd565b6200052862000046565b6200050b565b906000199062000449565b906200054d620000db6200046e9262000232565b82546200052e565b80519262000579600094620005726200056e8762000232565b9190565b1162000246565b620005848462000232565b8311806200066a575b620005989062000285565b620005a38462000232565b620005b0620000db845190565b8110156200065957806200064d620005de620005d16200065394876200032c565b516001600160a01b031690565b62000603620005f1620000cf8a62000369565b6001600160a01b038316141562000374565b620006466002620006326200062c62000628620006218685620003dd565b5460ff1690565b1590565b620003f7565b6200064083600192620003dd565b62000453565b87620004eb565b620002fa565b620005a3565b50925050620000a590600162000539565b50620005986200067c620000db845190565b84111590506200058d56fe60806040526004361015610018575b610016600080fd5b005b60003560e01c8063025e7c27146100f457806306ead22e146100eb5780632f54bf6e146100e25780634fb14e68146100d95780638ec0124a146100d057806392b2424d146100c7578063a302ef19146100be578063b645307d146100b5578063d0549b85146100ac578063d80fa7cf146100a35763e581f9ee0361000e5761009e610a69565b61000e565b5061009e610a27565b5061009e6109dc565b5061009e610980565b5061009e610959565b5061009e61092e565b5061009e61084c565b5061009e6107bf565b5061009e610616565b5061009e610544565b5061009e6101ef565b600080fd5b805b036100fd57565b9050359061011882610102565b565b9061012e916020818303126101315761010b565b90565b610139600080fd5b61010b565b50634e487b7160e01b600052603260045260246000fd5b610175600191610163815490565b84101561017e57600052602060002090565b91020190600090565b61018661013e565b600052602060002090565b61012e916008021c5b6001600160a01b031690565b9061012e9154610191565b600080548210156101cf5761012e916101c991610155565b906101a6565b80fd5b6101db9061019a565b9052565b60208101929161011891906101d2565b503461021c575b61021861020c61020736600461011a565b6101b1565b604051918291826101df565b0390f35b610224600080fd5b6101f6565b61012e61012e61012e9290565b9061024090610229565b600052602052604060002090565b50634e487b7160e01b600052602260045260246000fd5b9060016002830492168015610288575b602083101461028057565b61011861024e565b91607f1691610275565b805460009392916102af6102a583610265565b8085529360200190565b916001811690811561030157506001146102c857505050565b6102db9192939450600052602060002090565b916000925b8184106102ed5750500190565b8054848401526020909301926001016102e0565b92949550505060ff1916825215156020020190565b9061012e91610292565b601f01601f191690565b50634e487b7160e01b600052604160045260246000fd5b90601f01601f1916810190811067ffffffffffffffff82111761036357604052565b61036b61032a565b604052565b9061011861038a9261038160405190565b93848092610316565b0383610341565b61012e9081565b61012e9054610391565b906101186103af60405190565b9283610341565b61012e60606103a2565b906101186103fe60026103d16103b6565b946103e26103de82610370565b8752565b6103f86103f160018301610370565b6020880152565b01610398565b6040840152565b61012e905b60ff1690565b61012e9054610405565b610425906003610236565b61042e81610370565b9161043b60018301610370565b91610448600282016103c0565b9161012e600661045a60058501610410565b9301610398565b60005b8381106104745750506000910152565b8181015183820152602001610464565b6104a56103206020936104ae93610499815190565b80835293849260200190565b95869101610461565b0190565b9061012e906040806104e86104d66060850160008801518682036000880152610484565b60208701518582036020870152610484565b940151910152565b906105366101189597969461052860809561051a6105409560a088019088820360008a0152610484565b908682036020880152610484565b9084820360408601526104b2565b9615156060830152565b0152565b5034610577575b61021861056161055c36600461011a565b61041a565b9161056e95939560405190565b958695866104f0565b61057f600080fd5b61054b565b6101048161019a565b9050359061011882610584565b9061012e916020818303121561058d576105b2600080fd5b61058d565b61012e9061019a906001600160a01b031682565b61012e906105b7565b61012e906105cb565b90610240906105d4565b61012e916008021c61040a565b9061012e91546105e7565b61012e906106116002916000926105dd565b6105f4565b5034610645575b61021861063361062e36600461059a565b6105ff565b60405191829182901515815260200190565b61064d600080fd5b61061d565b6104ae60209167ffffffffffffffff811161067157601f01601f191690565b61032061032a565b90826000939282370152565b9291906101189161069d61069883610652565b6103a2565b9482865260208601918382011115610679576106b7600080fd5b610679565b9061012e9181601f820112156106d8575b602081359101610685565b6106e0600080fd5b6106cd565b909160c0828403126107b2575b6106fc838361010b565b9261071d81602085013567ffffffffffffffff8111610798575b85016106bc565b9261073e82604083013567ffffffffffffffff81116107a5575b83016106bc565b9261012e61076184606085013567ffffffffffffffff81116107985785016106bc565b9361078281608086013567ffffffffffffffff811161078b575b86016106bc565b9360a00161010b565b610793600080fd5b61077b565b6107a0600080fd5b610716565b6107ad600080fd5b610737565b6107ba600080fd5b6106f2565b50346107e5575b6107e06107d43660046106e5565b949390939291926110b9565b604051005b6107ed600080fd5b6107c6565b959492936108396101189561082b60809561081d6108479660a08d01908d6000818403910152610484565b908b820360208d0152610484565b9089820360408b0152610484565b908782036060890152610484565b940152565b503461087f575b61021861086961086436600461011a565b611079565b9161087695939560405190565b958695866107f2565b610887600080fd5b610853565b919060a083820312610921575b6108b581843567ffffffffffffffff81116107985785016106bc565b926108d582602083013567ffffffffffffffff81116107a55783016106bc565b9261012e6108f884604085013567ffffffffffffffff81116107985785016106bc565b9361091881606086013567ffffffffffffffff811161078b5786016106bc565b9360800161010b565b610929600080fd5b610899565b503461094c575b6107e061094336600461088c565b93929092610ea2565b610954600080fd5b610935565b5034610973575b6107e061096e36600461011a565b611496565b61097b600080fd5b610960565b503461099a575b6107e061099536600461011a565b6113c7565b6109a2600080fd5b610987565b60009103126109b257565b610118600080fd5b61012e916008021c81565b9061012e91546109ba565b61012e600060016109c5565b5034610a09575b6109ee3660046109a7565b6102186109f96109d0565b6040519182918290815260200190565b610a11600080fd5b6109e3565b602080825261012e92910190610484565b5034610a50575b610218610a44610a3f36600461011a565b6116f7565b60405191829182610a16565b610a58600080fd5b610a2e565b61012e600060046109c5565b5034610a86575b610a7b3660046109a7565b6102186109f9610a5d565b610a8e600080fd5b610a70565b15610a9a57565b60405162461bcd60e51b815260206004820152601a60248201527f4669727374206e616d652063616e6e6f7420626520656d7074790000000000006044820152606490fd5b15610ae657565b60405162461bcd60e51b815260206004820152601960248201527f4c617374206e616d652063616e6e6f7420626520656d707479000000000000006044820152606490fd5b15610b3257565b60405162461bcd60e51b81526020600482015260166024820152754465677265652063616e6e6f7420626520656d70747960501b6044820152606490fd5b15610b7757565b60405162461bcd60e51b81526020600482015260156024820152744d616a6f722063616e6e6f7420626520656d70747960581b6044820152606490fd5b61012e60a06103a2565b50634e487b7160e01b600052601160045260246000fd5b6001906000198114610be5570190565b6104ae610bbe565b90600019905b9181191691161790565b90610c0d61012e610c1492610229565b8254610bed565b9055565b50634e487b7160e01b600052600060045260246000fd5b9160001960089290920291821b911b610bf3565b9190610c5461012e610c1493610229565b908354610c2f565b61011891600091610c43565b818110610c73575050565b80610c816000600193610c5c565b01610c68565b9190601f8111610c9657505050565b610ca861011893600052602060002090565b906020601f840181900483019310610ccb575b6020601f909101045b0190610c68565b9091508190610cbb565b600019600883021c1916906002021790565b90610cf0815190565b9067ffffffffffffffff8211610dae575b610d1582610d0f8554610265565b85610c87565b602090601f8311600114610d4357610c14929160009183610d38575b5050610cd5565b015190503880610d31565b601f19831691610d5885600052602060002090565b9260005b818110610d9657509160029391856001969410610d7d575b50505002019055565b01516000196008601f8516021c19169055388080610d74565b91936020600181928787015181550195019201610d5c565b610db661032a565b610d01565b9061011891610ce7565b5190565b90610e066040600261011894610ded60008201610de7600088015190565b90610dbb565b610dff60018201610de7602088015190565b0192015190565b90610bfd565b9061011891610dc9565b9060ff90610bf3565b90610e2f61012e610c1492151590565b8254610e16565b90610e066080600661011894610e5460008201610de7600088015190565b610e6660018201610de7602088015190565b610e7e60028201610e78604088015190565b90610e0c565b610dff60058201610e926060880151151590565b90610e1f565b9061011891610e36565b90919361100990610fca610eb6610dc58590565b610ed2600091610ecc610ec884610229565b9190565b11610a93565b610eef610edd875190565b610ee9610ec884610229565b11610adf565b610f0c610efa895190565b610f06610ec884610229565b11610b2b565b610f29610f17885190565b610f23610ec884610229565b11610b70565b610f94610f8d610f376103b6565b92610f428b82860152565b610f4d8a6020860152565b610f58866040860152565b610f80610f63610bb4565b94610f6e8a84880152565b610f798b6020880152565b6040860152565b8015156060850152610229565b6080830152565b610fb0610fa9610fa46004610398565b610bd5565b6004610bfd565b610fc56003610fbf6004610398565b90610236565b610e98565b610fd46004610398565b94610fff7f70b517a9dbd4bf0acdc42bbef27f987464150fbe85e7bede1640091c816e951096610229565b9661087660405190565b0390a2565b90610118611069600661101f610bb4565b9461102c6103de82610370565b61103b6103f160018301610370565b61105161104a600283016103c0565b6040880152565b6103f861106060058301610410565b15156060880152565b6080840152565b61012e9061100e565b61109461109991611088606090565b5060005b506003610236565b611070565b805160208083015160409384015180519281015194015192949093919290565b93946110099192939561115a6110cf610dc58690565b6110e1600091610ecc610ec884610229565b6110ec610edd885190565b6110f7610efa8a5190565b611102610f17845190565b600261110c6103b6565b916111178b82850152565b611122856020850152565b61112d866040850152565b6111478861113f61012e8d6003610236565b928301610dbb565b6111548960018301610dbb565b01610e0c565b610fff7f5ae86f194f51c32e0721d07aeeeb2b329b5050b21907aafbcba0455f5233c39796610229565b9061119790600019906020036008021c90565b8154169055565b906000916111bc6111b482600052602060002090565b928354610cd5565b905555565b919290602082101561121957601f84116001146111e357610c14929350610cd5565b509061121461011893600161120b61120085600052602060002090565b92601f602091010490565b82019101610c68565b61119e565b506112528293611230600194600052602060002090565b610cc46020601f860104820192601f86168061125a575b50601f602091010490565b600202179055565b61126690888603611184565b38611247565b9290916020906801000000000000000083116112c6575b10156112ba57602081101561129b57610c1491610cd5565b60019160ff19166112b184600052602060002090565b55600202019055565b60019150600202019055565b6112ce61032a565b611283565b9081546112df81610265565b90818311611308575b8183106112f6575b50505050565b6112ff936111c1565b388080806112f0565b6113148383838761126c565b6112e8565b6000610118916112d3565b610118911561131957611335610c18565b611319565b600060026101189261134e83808301611324565b61135b8360018301611324565b01610c5c565b610118911561133a57611372610c18565b61133a565b600060066101189261138b83808301611324565b6113988360018301611324565b6113a58360028301611361565b82600582015501610c5c565b6101189115611377576113c2610c18565b611377565b6113dc60006113d7836003610236565b6113b1565b6114067f34de6b871245ed0a89b82912e8e5ee6d9c3104b3e5bb1d67a71ad7e68239e41c91610229565b9061141060405190565b8080611009565b1561141e57565b60405162461bcd60e51b815260206004820152600c60248201526b2737ba1030b71037bbb732b960a11b6044820152606490fd5b1561145957565b60405162461bcd60e51b815260206004820152601560248201527415185cdac8185b1c9958591e48195e1958dd5d1959605a1b6044820152606490fd5b611531906115446114ab61012e836003610236565b9133906114c96114c46114bf8460026105dd565b610410565b611417565b600660058501946114e86114e36114df88610410565b1590565b611452565b01916114ff6114f9610fa485610398565b84610bfd565b6115297f1f7db319f45151674bbce08ad4e1093bca1941bc7ef2f91ccafd6519406f010192610229565b9586916105d4565b9161153b60405190565b600090a3610398565b611554610ec861012e6001610398565b1461155d575050565b61156990600190610e1f565b7f33e13ecb54c3076d8e8bb8c2881800a4d972b792045ffae98fdf46df365fed7561141060405190565b6104ae6115ab926020926115a5815190565b94859290565b93849101610461565b60209561163c6116ae61012e999761163c61169e6116e89961163c61164f6116e39b61163c6116426116cd9d61163c6116136116be9f7f4365727469666963617465206f662047726164756174696f6e0a0a00000000008152601b0190565b7f5468697320697320746f20636572746966792074686174200000000000000000815260180190565b90611593565b600160fd1b815260010190565b7f20686173207375636365737366756c6c7920636f6d706c65746564207468652081527f726571756972656d656e747320666f722074686520646567726565206f6620006020820152603f0190565b6301034b7160e51b815260040190565b6301037b7160e51b815260040190565b6217050560e91b815260030190565b69024b9b9bab2b21037b7160b51b8152600a0190565b918252565b0161170560f11b815260020190565b61012e61170c61109461012e9361108c606090565b8051602080830151604093840151805192810151940151919361012e93919261175291906117399061187c565b429161174460405190565b9788966020880196876115b4565b90810382520382610341565b906116e361069883610652565b611775600161175e565b600360fc1b602082015290565b61012e61176b565b50634e487b7160e01b600052601260045260246000fd5b81156117ab570490565b6117b361178a565b0490565b369037565b906101186117d26117cc8461175e565b93610652565b601f1901602084016117b7565b81156117e9570690565b6117f161178a565b0690565b9190820180921161180257565b610118610bbe565b61040a61012e61012e9290565b61182d61182761012e9260ff1690565b60f81b90565b6001600160f81b03191690565b6001908015611847570390565b61184f610bbe565b0390565b906001602091611861845190565b81101561186f575b02010190565b61187761013e565b611869565b90600061188881610229565b831461194e5790829060005b61189d84610229565b83146118c6576118af6118c091610bd5565b926118ba600a610229565b906117a1565b91611894565b9150916118d2826117bc565b91935b6118de82610229565b81146119435761193e906118ba600a61192b61192561192061191b603061191661191061190a88610229565b8a6117df565b91610229565b6117f5565b61180a565b611817565b9861183a565b97851a6119388988611853565b53610229565b6118d5565b505061012e91925090565b50905061012e61178256fea26469706673582212205619d8dc7ee920d69f75f0008d7231efb49c02f0b8412d7c6550d2237b35a53864736f6c63430008110033","opcodes":"PUSH1 0x80 PUSH1 0x40 MSTORE CALLVALUE PUSH3 0x32 JUMPI JUMPDEST PUSH3 0x20 PUSH3 0x19 PUSH3 0x20B JUMP JUMPDEST SWAP1 PUSH3 0x555 JUMP JUMPDEST PUSH1 0x40 MLOAD PUSH2 0x198F PUSH3 0x688 DUP3 CODECOPY PUSH2 0x198F SWAP1 RETURN JUMPDEST PUSH3 0x3B PUSH1 0x0 DUP1 REVERT JUMPDEST PUSH3 0xB JUMP JUMPDEST PUSH1 0x0 DUP1 REVERT JUMPDEST POP PUSH4 0x4E487B71 PUSH1 0xE0 SHL PUSH1 0x0 MSTORE PUSH1 0x41 PUSH1 0x4 MSTORE PUSH1 0x24 PUSH1 0x0 REVERT JUMPDEST SWAP1 PUSH1 0x1F ADD PUSH1 0x1F NOT AND DUP2 ADD SWAP1 DUP2 LT PUSH1 0x1 PUSH1 0x1 PUSH1 0x40 SHL SUB DUP3 GT OR PUSH3 0x7F JUMPI PUSH1 0x40 MSTORE JUMP JUMPDEST PUSH3 0x89 PUSH3 0x46 JUMP JUMPDEST PUSH1 0x40 MSTORE JUMP JUMPDEST SWAP1 PUSH3 0xA5 PUSH3 0x9D PUSH1 0x40 MLOAD SWAP1 JUMP JUMPDEST SWAP3 DUP4 PUSH3 0x5D JUMP JUMPDEST JUMP JUMPDEST PUSH1 0x20 SWAP1 DUP2 SWAP1 PUSH1 0x1 PUSH1 0x1 PUSH1 0x40 SHL SUB DUP2 GT PUSH3 0xC0 JUMPI MUL ADD SWAP1 JUMP JUMPDEST PUSH3 0xCA PUSH3 0x46 JUMP JUMPDEST MUL ADD SWAP1 JUMP JUMPDEST PUSH1 0x1 PUSH1 0x1 PUSH1 0xA0 SHL SUB AND SWAP1 JUMP JUMPDEST SWAP1 JUMP JUMPDEST PUSH1 0x1 PUSH1 0x1 PUSH1 0xA0 SHL SUB DUP2 AND JUMPDEST SUB PUSH3 0x41 JUMPI JUMP JUMPDEST SWAP1 POP MLOAD SWAP1 PUSH3 0xA5 DUP3 PUSH3 0xDE JUMP JUMPDEST SWAP1 SWAP3 SWAP2 SWAP3 PUSH3 0x119 PUSH3 0x113 DUP3 PUSH3 0xA7 JUMP JUMPDEST PUSH3 0x8E JUMP JUMPDEST SWAP4 DUP2 DUP6 MSTORE PUSH1 0x20 DUP1 DUP7 ADD SWAP3 MUL DUP4 ADD SWAP3 DUP2 DUP5 GT PUSH3 0x15C JUMPI JUMPDEST SWAP2 JUMPDEST DUP4 DUP4 LT PUSH3 0x140 JUMPI POP POP POP POP JUMP JUMPDEST PUSH1 0x20 DUP1 SWAP2 PUSH3 0x150 DUP5 DUP7 PUSH3 0xF1 JUMP JUMPDEST DUP2 MSTORE ADD SWAP3 ADD SWAP2 PUSH3 0x132 JUMP JUMPDEST PUSH3 0x165 PUSH1 0x0 DUP1 REVERT JUMPDEST PUSH3 0x130 JUMP JUMPDEST SWAP1 PUSH3 0xDB SWAP2 DUP2 PUSH1 0x1F DUP3 ADD SLT ISZERO PUSH3 0x18A JUMPI JUMPDEST PUSH1 0x20 DUP2 MLOAD SWAP2 ADD PUSH3 0x100 JUMP JUMPDEST PUSH3 0x193 PUSH1 0x0 DUP1 REVERT JUMPDEST PUSH3 0x17E JUMP JUMPDEST DUP1 PUSH3 0xE9 JUMP JUMPDEST SWAP1 POP MLOAD SWAP1 PUSH3 0xA5 DUP3 PUSH3 0x199 JUMP JUMPDEST SWAP2 SWAP1 PUSH3 0xDB SWAP1 PUSH1 0x40 DUP5 DUP3 SUB SLT PUSH3 0x1FC JUMPI JUMPDEST DUP4 MLOAD PUSH3 0x1E3 SWAP1 DUP3 SWAP1 PUSH1 0x1 PUSH1 0x1 PUSH1 0x40 SHL SUB DUP2 GT PUSH3 0x1ED JUMPI JUMPDEST DUP7 ADD PUSH3 0x16B JUMP JUMPDEST SWAP4 PUSH1 0x20 ADD PUSH3 0x1A0 JUMP JUMPDEST PUSH3 0x1F6 PUSH1 0x0 DUP1 REVERT JUMPDEST PUSH3 0x1DB JUMP JUMPDEST PUSH3 0x205 PUSH1 0x0 DUP1 REVERT JUMPDEST PUSH3 0x1C2 JUMP JUMPDEST PUSH3 0x22E PUSH3 0x2017 DUP1 CODESIZE SUB DUP1 PUSH3 0x222 DUP2 PUSH3 0x8E JUMP JUMPDEST SWAP3 DUP4 CODECOPY DUP2 ADD SWAP1 PUSH3 0x1AF JUMP JUMPDEST SWAP1 SWAP2 JUMP JUMPDEST PUSH3 0xDB PUSH3 0xDB PUSH3 0xDB SWAP3 SWAP1 JUMP JUMPDEST ADD SWAP1 JUMP JUMPDEST ISZERO PUSH3 0x24E JUMPI JUMP JUMPDEST PUSH1 0x40 MLOAD PUSH3 0x461BCD PUSH1 0xE5 SHL DUP2 MSTORE PUSH1 0x20 PUSH1 0x4 DUP3 ADD MSTORE PUSH1 0xF PUSH1 0x24 DUP3 ADD MSTORE PUSH15 0x13DDDB995C9CC81C995C5D5A5C9959 PUSH1 0x8A SHL PUSH1 0x44 DUP3 ADD MSTORE PUSH1 0x64 SWAP1 REVERT JUMPDEST ISZERO PUSH3 0x28D JUMPI JUMP JUMPDEST PUSH1 0x40 MLOAD PUSH3 0x461BCD PUSH1 0xE5 SHL DUP2 MSTORE PUSH1 0x20 PUSH1 0x4 DUP3 ADD MSTORE PUSH1 0x28 PUSH1 0x24 DUP3 ADD MSTORE PUSH32 0x496E76616C6964206E756D626572206F6620636F6E6669726D6174696F6E7320 PUSH1 0x44 DUP3 ADD MSTORE PUSH8 0x1C995C5D5A5C9959 PUSH1 0xC2 SHL PUSH1 0x64 DUP3 ADD MSTORE PUSH1 0x84 SWAP1 REVERT JUMPDEST POP PUSH4 0x4E487B71 PUSH1 0xE0 SHL PUSH1 0x0 MSTORE PUSH1 0x11 PUSH1 0x4 MSTORE PUSH1 0x24 PUSH1 0x0 REVERT JUMPDEST PUSH1 0x1 SWAP1 PUSH1 0x0 NOT DUP2 EQ PUSH3 0x30B JUMPI ADD SWAP1 JUMP JUMPDEST PUSH3 0x242 PUSH3 0x2E3 JUMP JUMPDEST POP PUSH4 0x4E487B71 PUSH1 0xE0 SHL PUSH1 0x0 MSTORE PUSH1 0x32 PUSH1 0x4 MSTORE PUSH1 0x24 PUSH1 0x0 REVERT JUMPDEST SWAP1 PUSH1 0x20 DUP1 SWAP2 PUSH3 0x33A DUP5 MLOAD SWAP1 JUMP JUMPDEST DUP2 LT ISZERO PUSH3 0x349 JUMPI JUMPDEST MUL ADD ADD SWAP1 JUMP JUMPDEST PUSH3 0x353 PUSH3 0x315 JUMP JUMPDEST PUSH3 0x343 JUMP JUMPDEST PUSH3 0xCF PUSH3 0xDB PUSH3 0xDB SWAP3 SWAP1 JUMP JUMPDEST PUSH3 0xDB SWAP1 PUSH3 0x359 JUMP JUMPDEST ISZERO PUSH3 0x37C JUMPI JUMP JUMPDEST PUSH1 0x40 MLOAD PUSH3 0x461BCD PUSH1 0xE5 SHL DUP2 MSTORE PUSH1 0x20 PUSH1 0x4 DUP3 ADD MSTORE PUSH1 0xD PUSH1 0x24 DUP3 ADD MSTORE PUSH13 0x24B73B30B634B21037BBB732B9 PUSH1 0x99 SHL PUSH1 0x44 DUP3 ADD MSTORE PUSH1 0x64 SWAP1 REVERT JUMPDEST PUSH3 0xDB SWAP1 PUSH3 0xCF SWAP1 PUSH1 0x1 PUSH1 0x1 PUSH1 0xA0 SHL SUB AND DUP3 JUMP JUMPDEST PUSH3 0xDB SWAP1 PUSH3 0x3B1 JUMP JUMPDEST PUSH3 0xDB SWAP1 PUSH3 0x3C7 JUMP JUMPDEST SWAP1 PUSH3 0x3E9 SWAP1 PUSH3 0x3D2 JUMP JUMPDEST PUSH1 0x0 MSTORE PUSH1 0x20 MSTORE PUSH1 0x40 PUSH1 0x0 KECCAK256 SWAP1 JUMP JUMPDEST ISZERO PUSH3 0x3FF JUMPI JUMP JUMPDEST PUSH1 0x40 MLOAD PUSH3 0x461BCD PUSH1 0xE5 SHL DUP2 MSTORE PUSH1 0x20 PUSH1 0x4 DUP3 ADD MSTORE PUSH1 0x13 PUSH1 0x24 DUP3 ADD MSTORE PUSH32 0x4F776E657220616C726561647920616464656400000000000000000000000000 PUSH1 0x44 DUP3 ADD MSTORE PUSH1 0x64 SWAP1 REVERT JUMPDEST SWAP1 PUSH1 0xFF SWAP1 JUMPDEST SWAP2 DUP2 NOT AND SWAP2 AND OR SWAP1 JUMP JUMPDEST SWAP1 PUSH3 0x466 PUSH3 0xDB PUSH3 0x46E SWAP3 ISZERO ISZERO SWAP1 JUMP JUMPDEST DUP3 SLOAD PUSH3 0x444 JUMP JUMPDEST SWAP1 SSTORE JUMP JUMPDEST PUSH3 0x495 PUSH1 0x1 SWAP2 PUSH3 0x482 DUP2 SLOAD SWAP1 JUMP JUMPDEST DUP5 LT ISZERO PUSH3 0x49E JUMPI PUSH1 0x0 MSTORE PUSH1 0x20 PUSH1 0x0 KECCAK256 SWAP1 JUMP JUMPDEST SWAP2 MUL ADD SWAP1 PUSH1 0x0 SWAP1 JUMP JUMPDEST PUSH3 0x4A8 PUSH3 0x315 JUMP JUMPDEST PUSH1 0x0 MSTORE PUSH1 0x20 PUSH1 0x0 KECCAK256 SWAP1 JUMP JUMPDEST SWAP2 PUSH1 0x1 PUSH1 0x1 PUSH1 0xA0 SHL SUB PUSH1 0x8 SWAP3 SWAP1 SWAP3 MUL SWAP2 DUP3 SHL SWAP2 SHL PUSH3 0x449 JUMP JUMPDEST SWAP2 SWAP1 PUSH3 0x4E2 PUSH3 0xDB PUSH3 0x46E SWAP4 PUSH3 0x3D2 JUMP JUMPDEST SWAP1 DUP4 SLOAD PUSH3 0x4B3 JUMP JUMPDEST SWAP1 PUSH3 0x517 PUSH3 0xA5 SWAP3 DUP1 SLOAD SWAP1 PUSH9 0x10000000000000000 DUP3 LT ISZERO PUSH3 0x51E JUMPI JUMPDEST PUSH1 0x1 DUP3 ADD DUP2 SSTORE PUSH3 0x472 JUMP JUMPDEST SWAP1 PUSH3 0x4CD JUMP JUMPDEST PUSH3 0x528 PUSH3 0x46 JUMP JUMPDEST PUSH3 0x50B JUMP JUMPDEST SWAP1 PUSH1 0x0 NOT SWAP1 PUSH3 0x449 JUMP JUMPDEST SWAP1 PUSH3 0x54D PUSH3 0xDB PUSH3 0x46E SWAP3 PUSH3 0x232 JUMP JUMPDEST DUP3 SLOAD PUSH3 0x52E JUMP JUMPDEST DUP1 MLOAD SWAP3 PUSH3 0x579 PUSH1 0x0 SWAP5 PUSH3 0x572 PUSH3 0x56E DUP8 PUSH3 0x232 JUMP JUMPDEST SWAP2 SWAP1 JUMP JUMPDEST GT PUSH3 0x246 JUMP JUMPDEST PUSH3 0x584 DUP5 PUSH3 0x232 JUMP JUMPDEST DUP4 GT DUP1 PUSH3 0x66A JUMPI JUMPDEST PUSH3 0x598 SWAP1 PUSH3 0x285 JUMP JUMPDEST PUSH3 0x5A3 DUP5 PUSH3 0x232 JUMP JUMPDEST PUSH3 0x5B0 PUSH3 0xDB DUP5 MLOAD SWAP1 JUMP JUMPDEST DUP2 LT ISZERO PUSH3 0x659 JUMPI DUP1 PUSH3 0x64D PUSH3 0x5DE PUSH3 0x5D1 PUSH3 0x653 SWAP5 DUP8 PUSH3 0x32C JUMP JUMPDEST MLOAD PUSH1 0x1 PUSH1 0x1 PUSH1 0xA0 SHL SUB AND SWAP1 JUMP JUMPDEST PUSH3 0x603 PUSH3 0x5F1 PUSH3 0xCF DUP11 PUSH3 0x369 JUMP JUMPDEST PUSH1 0x1 PUSH1 0x1 PUSH1 0xA0 SHL SUB DUP4 AND EQ ISZERO PUSH3 0x374 JUMP JUMPDEST PUSH3 0x646 PUSH1 0x2 PUSH3 0x632 PUSH3 0x62C PUSH3 0x628 PUSH3 0x621 DUP7 DUP6 PUSH3 0x3DD JUMP JUMPDEST SLOAD PUSH1 0xFF AND SWAP1 JUMP JUMPDEST ISZERO SWAP1 JUMP JUMPDEST PUSH3 0x3F7 JUMP JUMPDEST PUSH3 0x640 DUP4 PUSH1 0x1 SWAP3 PUSH3 0x3DD JUMP JUMPDEST PUSH3 0x453 JUMP JUMPDEST DUP8 PUSH3 0x4EB JUMP JUMPDEST PUSH3 0x2FA JUMP JUMPDEST PUSH3 0x5A3 JUMP JUMPDEST POP SWAP3 POP POP PUSH3 0xA5 SWAP1 PUSH1 0x1 PUSH3 0x539 JUMP JUMPDEST POP PUSH3 0x598 PUSH3 0x67C PUSH3 0xDB DUP5 MLOAD SWAP1 JUMP JUMPDEST DUP5 GT ISZERO SWAP1 POP PUSH3 0x58D JUMP INVALID PUSH1 0x80 PUSH1 0x40 MSTORE PUSH1 0x4 CALLDATASIZE LT ISZERO PUSH2 0x18 JUMPI JUMPDEST PUSH2 0x16 PUSH1 0x0 DUP1 REVERT JUMPDEST STOP JUMPDEST PUSH1 0x0 CALLDATALOAD PUSH1 0xE0 SHR DUP1 PUSH4 0x25E7C27 EQ PUSH2 0xF4 JUMPI DUP1 PUSH4 0x6EAD22E EQ PUSH2 0xEB JUMPI DUP1 PUSH4 0x2F54BF6E EQ PUSH2 0xE2 JUMPI DUP1 PUSH4 0x4FB14E68 EQ PUSH2 0xD9 JUMPI DUP1 PUSH4 0x8EC0124A EQ PUSH2 0xD0 JUMPI DUP1 PUSH4 0x92B2424D EQ PUSH2 0xC7 JUMPI DUP1 PUSH4 0xA302EF19 EQ PUSH2 0xBE JUMPI DUP1 PUSH4 0xB645307D EQ PUSH2 0xB5 JUMPI DUP1 PUSH4 0xD0549B85 EQ PUSH2 0xAC JUMPI DUP1 PUSH4 0xD80FA7CF EQ PUSH2 0xA3 JUMPI PUSH4 0xE581F9EE SUB PUSH2 0xE JUMPI PUSH2 0x9E PUSH2 0xA69 JUMP JUMPDEST PUSH2 0xE JUMP JUMPDEST POP PUSH2 0x9E PUSH2 0xA27 JUMP JUMPDEST POP PUSH2 0x9E PUSH2 0x9DC JUMP JUMPDEST POP PUSH2 0x9E PUSH2 0x980 JUMP JUMPDEST POP PUSH2 0x9E PUSH2 0x959 JUMP JUMPDEST POP PUSH2 0x9E PUSH2 0x92E JUMP JUMPDEST POP PUSH2 0x9E PUSH2 0x84C JUMP JUMPDEST POP PUSH2 0x9E PUSH2 0x7BF JUMP JUMPDEST POP PUSH2 0x9E PUSH2 0x616 JUMP JUMPDEST POP PUSH2 0x9E PUSH2 0x544 JUMP JUMPDEST POP PUSH2 0x9E PUSH2 0x1EF JUMP JUMPDEST PUSH1 0x0 DUP1 REVERT JUMPDEST DUP1 JUMPDEST SUB PUSH2 0xFD JUMPI JUMP JUMPDEST SWAP1 POP CALLDATALOAD SWAP1 PUSH2 0x118 DUP3 PUSH2 0x102 JUMP JUMPDEST JUMP JUMPDEST SWAP1 PUSH2 0x12E SWAP2 PUSH1 0x20 DUP2 DUP4 SUB SLT PUSH2 0x131 JUMPI PUSH2 0x10B JUMP JUMPDEST SWAP1 JUMP JUMPDEST PUSH2 0x139 PUSH1 0x0 DUP1 REVERT JUMPDEST PUSH2 0x10B JUMP JUMPDEST POP PUSH4 0x4E487B71 PUSH1 0xE0 SHL PUSH1 0x0 MSTORE PUSH1 0x32 PUSH1 0x4 MSTORE PUSH1 0x24 PUSH1 0x0 REVERT JUMPDEST PUSH2 0x175 PUSH1 0x1 SWAP2 PUSH2 0x163 DUP2 SLOAD SWAP1 JUMP JUMPDEST DUP5 LT ISZERO PUSH2 0x17E JUMPI PUSH1 0x0 MSTORE PUSH1 0x20 PUSH1 0x0 KECCAK256 SWAP1 JUMP JUMPDEST SWAP2 MUL ADD SWAP1 PUSH1 0x0 SWAP1 JUMP JUMPDEST PUSH2 0x186 PUSH2 0x13E JUMP JUMPDEST PUSH1 0x0 MSTORE PUSH1 0x20 PUSH1 0x0 KECCAK256 SWAP1 JUMP JUMPDEST PUSH2 0x12E SWAP2 PUSH1 0x8 MUL SHR JUMPDEST PUSH1 0x1 PUSH1 0x1 PUSH1 0xA0 SHL SUB AND SWAP1 JUMP JUMPDEST SWAP1 PUSH2 0x12E SWAP2 SLOAD PUSH2 0x191 JUMP JUMPDEST PUSH1 0x0 DUP1 SLOAD DUP3 LT ISZERO PUSH2 0x1CF JUMPI PUSH2 0x12E SWAP2 PUSH2 0x1C9 SWAP2 PUSH2 0x155 JUMP JUMPDEST SWAP1 PUSH2 0x1A6 JUMP JUMPDEST DUP1 REVERT JUMPDEST PUSH2 0x1DB SWAP1 PUSH2 0x19A JUMP JUMPDEST SWAP1 MSTORE JUMP JUMPDEST PUSH1 0x20 DUP2 ADD SWAP3 SWAP2 PUSH2 0x118 SWAP2 SWAP1 PUSH2 0x1D2 JUMP JUMPDEST POP CALLVALUE PUSH2 0x21C JUMPI JUMPDEST PUSH2 0x218 PUSH2 0x20C PUSH2 0x207 CALLDATASIZE PUSH1 0x4 PUSH2 0x11A JUMP JUMPDEST PUSH2 0x1B1 JUMP JUMPDEST PUSH1 0x40 MLOAD SWAP2 DUP3 SWAP2 DUP3 PUSH2 0x1DF JUMP JUMPDEST SUB SWAP1 RETURN JUMPDEST PUSH2 0x224 PUSH1 0x0 DUP1 REVERT JUMPDEST PUSH2 0x1F6 JUMP JUMPDEST PUSH2 0x12E PUSH2 0x12E PUSH2 0x12E SWAP3 SWAP1 JUMP JUMPDEST SWAP1 PUSH2 0x240 SWAP1 PUSH2 0x229 JUMP JUMPDEST PUSH1 0x0 MSTORE PUSH1 0x20 MSTORE PUSH1 0x40 PUSH1 0x0 KECCAK256 SWAP1 JUMP JUMPDEST POP PUSH4 0x4E487B71 PUSH1 0xE0 SHL PUSH1 0x0 MSTORE PUSH1 0x22 PUSH1 0x4 MSTORE PUSH1 0x24 PUSH1 0x0 REVERT JUMPDEST SWAP1 PUSH1 0x1 PUSH1 0x2 DUP4 DIV SWAP3 AND DUP1 ISZERO PUSH2 0x288 JUMPI JUMPDEST PUSH1 0x20 DUP4 LT EQ PUSH2 0x280 JUMPI JUMP JUMPDEST PUSH2 0x118 PUSH2 0x24E JUMP JUMPDEST SWAP2 PUSH1 0x7F AND SWAP2 PUSH2 0x275 JUMP JUMPDEST DUP1 SLOAD PUSH1 0x0 SWAP4 SWAP3 SWAP2 PUSH2 0x2AF PUSH2 0x2A5 DUP4 PUSH2 0x265 JUMP JUMPDEST DUP1 DUP6 MSTORE SWAP4 PUSH1 0x20 ADD SWAP1 JUMP JUMPDEST SWAP2 PUSH1 0x1 DUP2 AND SWAP1 DUP2 ISZERO PUSH2 0x301 JUMPI POP PUSH1 0x1 EQ PUSH2 0x2C8 JUMPI POP POP POP JUMP JUMPDEST PUSH2 0x2DB SWAP2 SWAP3 SWAP4 SWAP5 POP PUSH1 0x0 MSTORE PUSH1 0x20 PUSH1 0x0 KECCAK256 SWAP1 JUMP JUMPDEST SWAP2 PUSH1 0x0 SWAP3 JUMPDEST DUP2 DUP5 LT PUSH2 0x2ED JUMPI POP POP ADD SWAP1 JUMP JUMPDEST DUP1 SLOAD DUP5 DUP5 ADD MSTORE PUSH1 0x20 SWAP1 SWAP4 ADD SWAP3 PUSH1 0x1 ADD PUSH2 0x2E0 JUMP JUMPDEST SWAP3 SWAP5 SWAP6 POP POP POP PUSH1 0xFF NOT AND DUP3 MSTORE ISZERO ISZERO PUSH1 0x20 MUL ADD SWAP1 JUMP JUMPDEST SWAP1 PUSH2 0x12E SWAP2 PUSH2 0x292 JUMP JUMPDEST PUSH1 0x1F ADD PUSH1 0x1F NOT AND SWAP1 JUMP JUMPDEST POP PUSH4 0x4E487B71 PUSH1 0xE0 SHL PUSH1 0x0 MSTORE PUSH1 0x41 PUSH1 0x4 MSTORE PUSH1 0x24 PUSH1 0x0 REVERT JUMPDEST SWAP1 PUSH1 0x1F ADD PUSH1 0x1F NOT AND DUP2 ADD SWAP1 DUP2 LT PUSH8 0xFFFFFFFFFFFFFFFF DUP3 GT OR PUSH2 0x363 JUMPI PUSH1 0x40 MSTORE JUMP JUMPDEST PUSH2 0x36B PUSH2 0x32A JUMP JUMPDEST PUSH1 0x40 MSTORE JUMP JUMPDEST SWAP1 PUSH2 0x118 PUSH2 0x38A SWAP3 PUSH2 0x381 PUSH1 0x40 MLOAD SWAP1 JUMP JUMPDEST SWAP4 DUP5 DUP1 SWAP3 PUSH2 0x316 JUMP JUMPDEST SUB DUP4 PUSH2 0x341 JUMP JUMPDEST PUSH2 0x12E SWAP1 DUP2 JUMP JUMPDEST PUSH2 0x12E SWAP1 SLOAD PUSH2 0x391 JUMP JUMPDEST SWAP1 PUSH2 0x118 PUSH2 0x3AF PUSH1 0x40 MLOAD SWAP1 JUMP JUMPDEST SWAP3 DUP4 PUSH2 0x341 JUMP JUMPDEST PUSH2 0x12E PUSH1 0x60 PUSH2 0x3A2 JUMP JUMPDEST SWAP1 PUSH2 0x118 PUSH2 0x3FE PUSH1 0x2 PUSH2 0x3D1 PUSH2 0x3B6 JUMP JUMPDEST SWAP5 PUSH2 0x3E2 PUSH2 0x3DE DUP3 PUSH2 0x370 JUMP JUMPDEST DUP8 MSTORE JUMP JUMPDEST PUSH2 0x3F8 PUSH2 0x3F1 PUSH1 0x1 DUP4 ADD PUSH2 0x370 JUMP JUMPDEST PUSH1 0x20 DUP9 ADD MSTORE JUMP JUMPDEST ADD PUSH2 0x398 JUMP JUMPDEST PUSH1 0x40 DUP5 ADD MSTORE JUMP JUMPDEST PUSH2 0x12E SWAP1 JUMPDEST PUSH1 0xFF AND SWAP1 JUMP JUMPDEST PUSH2 0x12E SWAP1 SLOAD PUSH2 0x405 JUMP JUMPDEST PUSH2 0x425 SWAP1 PUSH1 0x3 PUSH2 0x236 JUMP JUMPDEST PUSH2 0x42E DUP2 PUSH2 0x370 JUMP JUMPDEST SWAP2 PUSH2 0x43B PUSH1 0x1 DUP4 ADD PUSH2 0x370 JUMP JUMPDEST SWAP2 PUSH2 0x448 PUSH1 0x2 DUP3 ADD PUSH2 0x3C0 JUMP JUMPDEST SWAP2 PUSH2 0x12E PUSH1 0x6 PUSH2 0x45A PUSH1 0x5 DUP6 ADD PUSH2 0x410 JUMP JUMPDEST SWAP4 ADD PUSH2 0x398 JUMP JUMPDEST PUSH1 0x0 JUMPDEST DUP4 DUP2 LT PUSH2 0x474 JUMPI POP POP PUSH1 0x0 SWAP2 ADD MSTORE JUMP JUMPDEST DUP2 DUP2 ADD MLOAD DUP4 DUP3 ADD MSTORE PUSH1 0x20 ADD PUSH2 0x464 JUMP JUMPDEST PUSH2 0x4A5 PUSH2 0x320 PUSH1 0x20 SWAP4 PUSH2 0x4AE SWAP4 PUSH2 0x499 DUP2 MLOAD SWAP1 JUMP JUMPDEST DUP1 DUP4 MSTORE SWAP4 DUP5 SWAP3 PUSH1 0x20 ADD SWAP1 JUMP JUMPDEST SWAP6 DUP7 SWAP2 ADD PUSH2 0x461 JUMP JUMPDEST ADD SWAP1 JUMP JUMPDEST SWAP1 PUSH2 0x12E SWAP1 PUSH1 0x40 DUP1 PUSH2 0x4E8 PUSH2 0x4D6 PUSH1 0x60 DUP6 ADD PUSH1 0x0 DUP9 ADD MLOAD DUP7 DUP3 SUB PUSH1 0x0 DUP9 ADD MSTORE PUSH2 0x484 JUMP JUMPDEST PUSH1 0x20 DUP8 ADD MLOAD DUP6 DUP3 SUB PUSH1 0x20 DUP8 ADD MSTORE PUSH2 0x484 JUMP JUMPDEST SWAP5 ADD MLOAD SWAP2 ADD MSTORE JUMP JUMPDEST SWAP1 PUSH2 0x536 PUSH2 0x118 SWAP6 SWAP8 SWAP7 SWAP5 PUSH2 0x528 PUSH1 0x80 SWAP6 PUSH2 0x51A PUSH2 0x540 SWAP6 PUSH1 0xA0 DUP9 ADD SWAP1 DUP9 DUP3 SUB PUSH1 0x0 DUP11 ADD MSTORE PUSH2 0x484 JUMP JUMPDEST SWAP1 DUP7 DUP3 SUB PUSH1 0x20 DUP9 ADD MSTORE PUSH2 0x484 JUMP JUMPDEST SWAP1 DUP5 DUP3 SUB PUSH1 0x40 DUP7 ADD MSTORE PUSH2 0x4B2 JUMP JUMPDEST SWAP7 ISZERO ISZERO PUSH1 0x60 DUP4 ADD MSTORE JUMP JUMPDEST ADD MSTORE JUMP JUMPDEST POP CALLVALUE PUSH2 0x577 JUMPI JUMPDEST PUSH2 0x218 PUSH2 0x561 PUSH2 0x55C CALLDATASIZE PUSH1 0x4 PUSH2 0x11A JUMP JUMPDEST PUSH2 0x41A JUMP JUMPDEST SWAP2 PUSH2 0x56E SWAP6 SWAP4 SWAP6 PUSH1 0x40 MLOAD SWAP1 JUMP JUMPDEST SWAP6 DUP7 SWAP6 DUP7 PUSH2 0x4F0 JUMP JUMPDEST PUSH2 0x57F PUSH1 0x0 DUP1 REVERT JUMPDEST PUSH2 0x54B JUMP JUMPDEST PUSH2 0x104 DUP2 PUSH2 0x19A JUMP JUMPDEST SWAP1 POP CALLDATALOAD SWAP1 PUSH2 0x118 DUP3 PUSH2 0x584 JUMP JUMPDEST SWAP1 PUSH2 0x12E SWAP2 PUSH1 0x20 DUP2 DUP4 SUB SLT ISZERO PUSH2 0x58D JUMPI PUSH2 0x5B2 PUSH1 0x0 DUP1 REVERT JUMPDEST PUSH2 0x58D JUMP JUMPDEST PUSH2 0x12E SWAP1 PUSH2 0x19A SWAP1 PUSH1 0x1 PUSH1 0x1 PUSH1 0xA0 SHL SUB AND DUP3 JUMP JUMPDEST PUSH2 0x12E SWAP1 PUSH2 0x5B7 JUMP JUMPDEST PUSH2 0x12E SWAP1 PUSH2 0x5CB JUMP JUMPDEST SWAP1 PUSH2 0x240 SWAP1 PUSH2 0x5D4 JUMP JUMPDEST PUSH2 0x12E SWAP2 PUSH1 0x8 MUL SHR PUSH2 0x40A JUMP JUMPDEST SWAP1 PUSH2 0x12E SWAP2 SLOAD PUSH2 0x5E7 JUMP JUMPDEST PUSH2 0x12E SWAP1 PUSH2 0x611 PUSH1 0x2 SWAP2 PUSH1 0x0 SWAP3 PUSH2 0x5DD JUMP JUMPDEST PUSH2 0x5F4 JUMP JUMPDEST POP CALLVALUE PUSH2 0x645 JUMPI JUMPDEST PUSH2 0x218 PUSH2 0x633 PUSH2 0x62E CALLDATASIZE PUSH1 0x4 PUSH2 0x59A JUMP JUMPDEST PUSH2 0x5FF JUMP JUMPDEST PUSH1 0x40 MLOAD SWAP2 DUP3 SWAP2 DUP3 SWAP1 ISZERO ISZERO DUP2 MSTORE PUSH1 0x20 ADD SWAP1 JUMP JUMPDEST PUSH2 0x64D PUSH1 0x0 DUP1 REVERT JUMPDEST PUSH2 0x61D JUMP JUMPDEST PUSH2 0x4AE PUSH1 0x20 SWAP2 PUSH8 0xFFFFFFFFFFFFFFFF DUP2 GT PUSH2 0x671 JUMPI PUSH1 0x1F ADD PUSH1 0x1F NOT AND SWAP1 JUMP JUMPDEST PUSH2 0x320 PUSH2 0x32A JUMP JUMPDEST SWAP1 DUP3 PUSH1 0x0 SWAP4 SWAP3 DUP3 CALLDATACOPY ADD MSTORE JUMP JUMPDEST SWAP3 SWAP2 SWAP1 PUSH2 0x118 SWAP2 PUSH2 0x69D PUSH2 0x698 DUP4 PUSH2 0x652 JUMP JUMPDEST PUSH2 0x3A2 JUMP JUMPDEST SWAP5 DUP3 DUP7 MSTORE PUSH1 0x20 DUP7 ADD SWAP2 DUP4 DUP3 ADD GT ISZERO PUSH2 0x679 JUMPI PUSH2 0x6B7 PUSH1 0x0 DUP1 REVERT JUMPDEST PUSH2 0x679 JUMP JUMPDEST SWAP1 PUSH2 0x12E SWAP2 DUP2 PUSH1 0x1F DUP3 ADD SLT ISZERO PUSH2 0x6D8 JUMPI JUMPDEST PUSH1 0x20 DUP2 CALLDATALOAD SWAP2 ADD PUSH2 0x685 JUMP JUMPDEST PUSH2 0x6E0 PUSH1 0x0 DUP1 REVERT JUMPDEST PUSH2 0x6CD JUMP JUMPDEST SWAP1 SWAP2 PUSH1 0xC0 DUP3 DUP5 SUB SLT PUSH2 0x7B2 JUMPI JUMPDEST PUSH2 0x6FC DUP4 DUP4 PUSH2 0x10B JUMP JUMPDEST SWAP3 PUSH2 0x71D DUP2 PUSH1 0x20 DUP6 ADD CALLDATALOAD PUSH8 0xFFFFFFFFFFFFFFFF DUP2 GT PUSH2 0x798 JUMPI JUMPDEST DUP6 ADD PUSH2 0x6BC JUMP JUMPDEST SWAP3 PUSH2 0x73E DUP3 PUSH1 0x40 DUP4 ADD CALLDATALOAD PUSH8 0xFFFFFFFFFFFFFFFF DUP2 GT PUSH2 0x7A5 JUMPI JUMPDEST DUP4 ADD PUSH2 0x6BC JUMP JUMPDEST SWAP3 PUSH2 0x12E PUSH2 0x761 DUP5 PUSH1 0x60 DUP6 ADD CALLDATALOAD PUSH8 0xFFFFFFFFFFFFFFFF DUP2 GT PUSH2 0x798 JUMPI DUP6 ADD PUSH2 0x6BC JUMP JUMPDEST SWAP4 PUSH2 0x782 DUP2 PUSH1 0x80 DUP7 ADD CALLDATALOAD PUSH8 0xFFFFFFFFFFFFFFFF DUP2 GT PUSH2 0x78B JUMPI JUMPDEST DUP7 ADD PUSH2 0x6BC JUMP JUMPDEST SWAP4 PUSH1 0xA0 ADD PUSH2 0x10B JUMP JUMPDEST PUSH2 0x793 PUSH1 0x0 DUP1 REVERT JUMPDEST PUSH2 0x77B JUMP JUMPDEST PUSH2 0x7A0 PUSH1 0x0 DUP1 REVERT JUMPDEST PUSH2 0x716 JUMP JUMPDEST PUSH2 0x7AD PUSH1 0x0 DUP1 REVERT JUMPDEST PUSH2 0x737 JUMP JUMPDEST PUSH2 0x7BA PUSH1 0x0 DUP1 REVERT JUMPDEST PUSH2 0x6F2 JUMP JUMPDEST POP CALLVALUE PUSH2 0x7E5 JUMPI JUMPDEST PUSH2 0x7E0 PUSH2 0x7D4 CALLDATASIZE PUSH1 0x4 PUSH2 0x6E5 JUMP JUMPDEST SWAP5 SWAP4 SWAP1 SWAP4 SWAP3 SWAP2 SWAP3 PUSH2 0x10B9 JUMP JUMPDEST PUSH1 0x40 MLOAD STOP JUMPDEST PUSH2 0x7ED PUSH1 0x0 DUP1 REVERT JUMPDEST PUSH2 0x7C6 JUMP JUMPDEST SWAP6 SWAP5 SWAP3 SWAP4 PUSH2 0x839 PUSH2 0x118 SWAP6 PUSH2 0x82B PUSH1 0x80 SWAP6 PUSH2 0x81D PUSH2 0x847 SWAP7 PUSH1 0xA0 DUP14 ADD SWAP1 DUP14 PUSH1 0x0 DUP2 DUP5 SUB SWAP2 ADD MSTORE PUSH2 0x484 JUMP JUMPDEST SWAP1 DUP12 DUP3 SUB PUSH1 0x20 DUP14 ADD MSTORE PUSH2 0x484 JUMP JUMPDEST SWAP1 DUP10 DUP3 SUB PUSH1 0x40 DUP12 ADD MSTORE PUSH2 0x484 JUMP JUMPDEST SWAP1 DUP8 DUP3 SUB PUSH1 0x60 DUP10 ADD MSTORE PUSH2 0x484 JUMP JUMPDEST SWAP5 ADD MSTORE JUMP JUMPDEST POP CALLVALUE PUSH2 0x87F JUMPI JUMPDEST PUSH2 0x218 PUSH2 0x869 PUSH2 0x864 CALLDATASIZE PUSH1 0x4 PUSH2 0x11A JUMP JUMPDEST PUSH2 0x1079 JUMP JUMPDEST SWAP2 PUSH2 0x876 SWAP6 SWAP4 SWAP6 PUSH1 0x40 MLOAD SWAP1 JUMP JUMPDEST SWAP6 DUP7 SWAP6 DUP7 PUSH2 0x7F2 JUMP JUMPDEST PUSH2 0x887 PUSH1 0x0 DUP1 REVERT JUMPDEST PUSH2 0x853 JUMP JUMPDEST SWAP2 SWAP1 PUSH1 0xA0 DUP4 DUP3 SUB SLT PUSH2 0x921 JUMPI JUMPDEST PUSH2 0x8B5 DUP2 DUP5 CALLDATALOAD PUSH8 0xFFFFFFFFFFFFFFFF DUP2 GT PUSH2 0x798 JUMPI DUP6 ADD PUSH2 0x6BC JUMP JUMPDEST SWAP3 PUSH2 0x8D5 DUP3 PUSH1 0x20 DUP4 ADD CALLDATALOAD PUSH8 0xFFFFFFFFFFFFFFFF DUP2 GT PUSH2 0x7A5 JUMPI DUP4 ADD PUSH2 0x6BC JUMP JUMPDEST SWAP3 PUSH2 0x12E PUSH2 0x8F8 DUP5 PUSH1 0x40 DUP6 ADD CALLDATALOAD PUSH8 0xFFFFFFFFFFFFFFFF DUP2 GT PUSH2 0x798 JUMPI DUP6 ADD PUSH2 0x6BC JUMP JUMPDEST SWAP4 PUSH2 0x918 DUP2 PUSH1 0x60 DUP7 ADD CALLDATALOAD PUSH8 0xFFFFFFFFFFFFFFFF DUP2 GT PUSH2 0x78B JUMPI DUP7 ADD PUSH2 0x6BC JUMP JUMPDEST SWAP4 PUSH1 0x80 ADD PUSH2 0x10B JUMP JUMPDEST PUSH2 0x929 PUSH1 0x0 DUP1 REVERT JUMPDEST PUSH2 0x899 JUMP JUMPDEST POP CALLVALUE PUSH2 0x94C JUMPI JUMPDEST PUSH2 0x7E0 PUSH2 0x943 CALLDATASIZE PUSH1 0x4 PUSH2 0x88C JUMP JUMPDEST SWAP4 SWAP3 SWAP1 SWAP3 PUSH2 0xEA2 JUMP JUMPDEST PUSH2 0x954 PUSH1 0x0 DUP1 REVERT JUMPDEST PUSH2 0x935 JUMP JUMPDEST POP CALLVALUE PUSH2 0x973 JUMPI JUMPDEST PUSH2 0x7E0 PUSH2 0x96E CALLDATASIZE PUSH1 0x4 PUSH2 0x11A JUMP JUMPDEST PUSH2 0x1496 JUMP JUMPDEST PUSH2 0x97B PUSH1 0x0 DUP1 REVERT JUMPDEST PUSH2 0x960 JUMP JUMPDEST POP CALLVALUE PUSH2 0x99A JUMPI JUMPDEST PUSH2 0x7E0 PUSH2 0x995 CALLDATASIZE PUSH1 0x4 PUSH2 0x11A JUMP JUMPDEST PUSH2 0x13C7 JUMP JUMPDEST PUSH2 0x9A2 PUSH1 0x0 DUP1 REVERT JUMPDEST PUSH2 0x987 JUMP JUMPDEST PUSH1 0x0 SWAP2 SUB SLT PUSH2 0x9B2 JUMPI JUMP JUMPDEST PUSH2 0x118 PUSH1 0x0 DUP1 REVERT JUMPDEST PUSH2 0x12E SWAP2 PUSH1 0x8 MUL SHR DUP2 JUMP JUMPDEST SWAP1 PUSH2 0x12E SWAP2 SLOAD PUSH2 0x9BA JUMP JUMPDEST PUSH2 0x12E PUSH1 0x0 PUSH1 0x1 PUSH2 0x9C5 JUMP JUMPDEST POP CALLVALUE PUSH2 0xA09 JUMPI JUMPDEST PUSH2 0x9EE CALLDATASIZE PUSH1 0x4 PUSH2 0x9A7 JUMP JUMPDEST PUSH2 0x218 PUSH2 0x9F9 PUSH2 0x9D0 JUMP JUMPDEST PUSH1 0x40 MLOAD SWAP2 DUP3 SWAP2 DUP3 SWAP1 DUP2 MSTORE PUSH1 0x20 ADD SWAP1 JUMP JUMPDEST PUSH2 0xA11 PUSH1 0x0 DUP1 REVERT JUMPDEST PUSH2 0x9E3 JUMP JUMPDEST PUSH1 0x20 DUP1 DUP3 MSTORE PUSH2 0x12E SWAP3 SWAP2 ADD SWAP1 PUSH2 0x484 JUMP JUMPDEST POP CALLVALUE PUSH2 0xA50 JUMPI JUMPDEST PUSH2 0x218 PUSH2 0xA44 PUSH2 0xA3F CALLDATASIZE PUSH1 0x4 PUSH2 0x11A JUMP JUMPDEST PUSH2 0x16F7 JUMP JUMPDEST PUSH1 0x40 MLOAD SWAP2 DUP3 SWAP2 DUP3 PUSH2 0xA16 JUMP JUMPDEST PUSH2 0xA58 PUSH1 0x0 DUP1 REVERT JUMPDEST PUSH2 0xA2E JUMP JUMPDEST PUSH2 0x12E PUSH1 0x0 PUSH1 0x4 PUSH2 0x9C5 JUMP JUMPDEST POP CALLVALUE PUSH2 0xA86 JUMPI JUMPDEST PUSH2 0xA7B CALLDATASIZE PUSH1 0x4 PUSH2 0x9A7 JUMP JUMPDEST PUSH2 0x218 PUSH2 0x9F9 PUSH2 0xA5D JUMP JUMPDEST PUSH2 0xA8E PUSH1 0x0 DUP1 REVERT JUMPDEST PUSH2 0xA70 JUMP JUMPDEST ISZERO PUSH2 0xA9A JUMPI JUMP JUMPDEST PUSH1 0x40 MLOAD PUSH3 0x461BCD PUSH1 0xE5 SHL DUP2 MSTORE PUSH1 0x20 PUSH1 0x4 DUP3 ADD MSTORE PUSH1 0x1A PUSH1 0x24 DUP3 ADD MSTORE PUSH32 0x4669727374206E616D652063616E6E6F7420626520656D707479000000000000 PUSH1 0x44 DUP3 ADD MSTORE PUSH1 0x64 SWAP1 REVERT JUMPDEST ISZERO PUSH2 0xAE6 JUMPI JUMP JUMPDEST PUSH1 0x40 MLOAD PUSH3 0x461BCD PUSH1 0xE5 SHL DUP2 MSTORE PUSH1 0x20 PUSH1 0x4 DUP3 ADD MSTORE PUSH1 0x19 PUSH1 0x24 DUP3 ADD MSTORE PUSH32 0x4C617374206E616D652063616E6E6F7420626520656D70747900000000000000 PUSH1 0x44 DUP3 ADD MSTORE PUSH1 0x64 SWAP1 REVERT JUMPDEST ISZERO PUSH2 0xB32 JUMPI JUMP JUMPDEST PUSH1 0x40 MLOAD PUSH3 0x461BCD PUSH1 0xE5 SHL DUP2 MSTORE PUSH1 0x20 PUSH1 0x4 DUP3 ADD MSTORE PUSH1 0x16 PUSH1 0x24 DUP3 ADD MSTORE PUSH22 0x4465677265652063616E6E6F7420626520656D707479 PUSH1 0x50 SHL PUSH1 0x44 DUP3 ADD MSTORE PUSH1 0x64 SWAP1 REVERT JUMPDEST ISZERO PUSH2 0xB77 JUMPI JUMP JUMPDEST PUSH1 0x40 MLOAD PUSH3 0x461BCD PUSH1 0xE5 SHL DUP2 MSTORE PUSH1 0x20 PUSH1 0x4 DUP3 ADD MSTORE PUSH1 0x15 PUSH1 0x24 DUP3 ADD MSTORE PUSH21 0x4D616A6F722063616E6E6F7420626520656D707479 PUSH1 0x58 SHL PUSH1 0x44 DUP3 ADD MSTORE PUSH1 0x64 SWAP1 REVERT JUMPDEST PUSH2 0x12E PUSH1 0xA0 PUSH2 0x3A2 JUMP JUMPDEST POP PUSH4 0x4E487B71 PUSH1 0xE0 SHL PUSH1 0x0 MSTORE PUSH1 0x11 PUSH1 0x4 MSTORE PUSH1 0x24 PUSH1 0x0 REVERT JUMPDEST PUSH1 0x1 SWAP1 PUSH1 0x0 NOT DUP2 EQ PUSH2 0xBE5 JUMPI ADD SWAP1 JUMP JUMPDEST PUSH2 0x4AE PUSH2 0xBBE JUMP JUMPDEST SWAP1 PUSH1 0x0 NOT SWAP1 JUMPDEST SWAP2 DUP2 NOT AND SWAP2 AND OR SWAP1 JUMP JUMPDEST SWAP1 PUSH2 0xC0D PUSH2 0x12E PUSH2 0xC14 SWAP3 PUSH2 0x229 JUMP JUMPDEST DUP3 SLOAD PUSH2 0xBED JUMP JUMPDEST SWAP1 SSTORE JUMP JUMPDEST POP PUSH4 0x4E487B71 PUSH1 0xE0 SHL PUSH1 0x0 MSTORE PUSH1 0x0 PUSH1 0x4 MSTORE PUSH1 0x24 PUSH1 0x0 REVERT JUMPDEST SWAP2 PUSH1 0x0 NOT PUSH1 0x8 SWAP3 SWAP1 SWAP3 MUL SWAP2 DUP3 SHL SWAP2 SHL PUSH2 0xBF3 JUMP JUMPDEST SWAP2 SWAP1 PUSH2 0xC54 PUSH2 0x12E PUSH2 0xC14 SWAP4 PUSH2 0x229 JUMP JUMPDEST SWAP1 DUP4 SLOAD PUSH2 0xC2F JUMP JUMPDEST PUSH2 0x118 SWAP2 PUSH1 0x0 SWAP2 PUSH2 0xC43 JUMP JUMPDEST DUP2 DUP2 LT PUSH2 0xC73 JUMPI POP POP JUMP JUMPDEST DUP1 PUSH2 0xC81 PUSH1 0x0 PUSH1 0x1 SWAP4 PUSH2 0xC5C JUMP JUMPDEST ADD PUSH2 0xC68 JUMP JUMPDEST SWAP2 SWAP1 PUSH1 0x1F DUP2 GT PUSH2 0xC96 JUMPI POP POP POP JUMP JUMPDEST PUSH2 0xCA8 PUSH2 0x118 SWAP4 PUSH1 0x0 MSTORE PUSH1 0x20 PUSH1 0x0 KECCAK256 SWAP1 JUMP JUMPDEST SWAP1 PUSH1 0x20 PUSH1 0x1F DUP5 ADD DUP2 SWAP1 DIV DUP4 ADD SWAP4 LT PUSH2 0xCCB JUMPI JUMPDEST PUSH1 0x20 PUSH1 0x1F SWAP1 SWAP2 ADD DIV JUMPDEST ADD SWAP1 PUSH2 0xC68 JUMP JUMPDEST SWAP1 SWAP2 POP DUP2 SWAP1 PUSH2 0xCBB JUMP JUMPDEST PUSH1 0x0 NOT PUSH1 0x8 DUP4 MUL SHR NOT AND SWAP1 PUSH1 0x2 MUL OR SWAP1 JUMP JUMPDEST SWAP1 PUSH2 0xCF0 DUP2 MLOAD SWAP1 JUMP JUMPDEST SWAP1 PUSH8 0xFFFFFFFFFFFFFFFF DUP3 GT PUSH2 0xDAE JUMPI JUMPDEST PUSH2 0xD15 DUP3 PUSH2 0xD0F DUP6 SLOAD PUSH2 0x265 JUMP JUMPDEST DUP6 PUSH2 0xC87 JUMP JUMPDEST PUSH1 0x20 SWAP1 PUSH1 0x1F DUP4 GT PUSH1 0x1 EQ PUSH2 0xD43 JUMPI PUSH2 0xC14 SWAP3 SWAP2 PUSH1 0x0 SWAP2 DUP4 PUSH2 0xD38 JUMPI JUMPDEST POP POP PUSH2 0xCD5 JUMP JUMPDEST ADD MLOAD SWAP1 POP CODESIZE DUP1 PUSH2 0xD31 JUMP JUMPDEST PUSH1 0x1F NOT DUP4 AND SWAP2 PUSH2 0xD58 DUP6 PUSH1 0x0 MSTORE PUSH1 0x20 PUSH1 0x0 KECCAK256 SWAP1 JUMP JUMPDEST SWAP3 PUSH1 0x0 JUMPDEST DUP2 DUP2 LT PUSH2 0xD96 JUMPI POP SWAP2 PUSH1 0x2 SWAP4 SWAP2 DUP6 PUSH1 0x1 SWAP7 SWAP5 LT PUSH2 0xD7D JUMPI JUMPDEST POP POP POP MUL ADD SWAP1 SSTORE JUMP JUMPDEST ADD MLOAD PUSH1 0x0 NOT PUSH1 0x8 PUSH1 0x1F DUP6 AND MUL SHR NOT AND SWAP1 SSTORE CODESIZE DUP1 DUP1 PUSH2 0xD74 JUMP JUMPDEST SWAP2 SWAP4 PUSH1 0x20 PUSH1 0x1 DUP2 SWAP3 DUP8 DUP8 ADD MLOAD DUP2 SSTORE ADD SWAP6 ADD SWAP3 ADD PUSH2 0xD5C JUMP JUMPDEST PUSH2 0xDB6 PUSH2 0x32A JUMP JUMPDEST PUSH2 0xD01 JUMP JUMPDEST SWAP1 PUSH2 0x118 SWAP2 PUSH2 0xCE7 JUMP JUMPDEST MLOAD SWAP1 JUMP JUMPDEST SWAP1 PUSH2 0xE06 PUSH1 0x40 PUSH1 0x2 PUSH2 0x118 SWAP5 PUSH2 0xDED PUSH1 0x0 DUP3 ADD PUSH2 0xDE7 PUSH1 0x0 DUP9 ADD MLOAD SWAP1 JUMP JUMPDEST SWAP1 PUSH2 0xDBB JUMP JUMPDEST PUSH2 0xDFF PUSH1 0x1 DUP3 ADD PUSH2 0xDE7 PUSH1 0x20 DUP9 ADD MLOAD SWAP1 JUMP JUMPDEST ADD SWAP3 ADD MLOAD SWAP1 JUMP JUMPDEST SWAP1 PUSH2 0xBFD JUMP JUMPDEST SWAP1 PUSH2 0x118 SWAP2 PUSH2 0xDC9 JUMP JUMPDEST SWAP1 PUSH1 0xFF SWAP1 PUSH2 0xBF3 JUMP JUMPDEST SWAP1 PUSH2 0xE2F PUSH2 0x12E PUSH2 0xC14 SWAP3 ISZERO ISZERO SWAP1 JUMP JUMPDEST DUP3 SLOAD PUSH2 0xE16 JUMP JUMPDEST SWAP1 PUSH2 0xE06 PUSH1 0x80 PUSH1 0x6 PUSH2 0x118 SWAP5 PUSH2 0xE54 PUSH1 0x0 DUP3 ADD PUSH2 0xDE7 PUSH1 0x0 DUP9 ADD MLOAD SWAP1 JUMP JUMPDEST PUSH2 0xE66 PUSH1 0x1 DUP3 ADD PUSH2 0xDE7 PUSH1 0x20 DUP9 ADD MLOAD SWAP1 JUMP JUMPDEST PUSH2 0xE7E PUSH1 0x2 DUP3 ADD PUSH2 0xE78 PUSH1 0x40 DUP9 ADD MLOAD SWAP1 JUMP JUMPDEST SWAP1 PUSH2 0xE0C JUMP JUMPDEST PUSH2 0xDFF PUSH1 0x5 DUP3 ADD PUSH2 0xE92 PUSH1 0x60 DUP9 ADD MLOAD ISZERO ISZERO SWAP1 JUMP JUMPDEST SWAP1 PUSH2 0xE1F JUMP JUMPDEST SWAP1 PUSH2 0x118 SWAP2 PUSH2 0xE36 JUMP JUMPDEST SWAP1 SWAP2 SWAP4 PUSH2 0x1009 SWAP1 PUSH2 0xFCA PUSH2 0xEB6 PUSH2 0xDC5 DUP6 SWAP1 JUMP JUMPDEST PUSH2 0xED2 PUSH1 0x0 SWAP2 PUSH2 0xECC PUSH2 0xEC8 DUP5 PUSH2 0x229 JUMP JUMPDEST SWAP2 SWAP1 JUMP JUMPDEST GT PUSH2 0xA93 JUMP JUMPDEST PUSH2 0xEEF PUSH2 0xEDD DUP8 MLOAD SWAP1 JUMP JUMPDEST PUSH2 0xEE9 PUSH2 0xEC8 DUP5 PUSH2 0x229 JUMP JUMPDEST GT PUSH2 0xADF JUMP JUMPDEST PUSH2 0xF0C PUSH2 0xEFA DUP10 MLOAD SWAP1 JUMP JUMPDEST PUSH2 0xF06 PUSH2 0xEC8 DUP5 PUSH2 0x229 JUMP JUMPDEST GT PUSH2 0xB2B JUMP JUMPDEST PUSH2 0xF29 PUSH2 0xF17 DUP9 MLOAD SWAP1 JUMP JUMPDEST PUSH2 0xF23 PUSH2 0xEC8 DUP5 PUSH2 0x229 JUMP JUMPDEST GT PUSH2 0xB70 JUMP JUMPDEST PUSH2 0xF94 PUSH2 0xF8D PUSH2 0xF37 PUSH2 0x3B6 JUMP JUMPDEST SWAP3 PUSH2 0xF42 DUP12 DUP3 DUP7 ADD MSTORE JUMP JUMPDEST PUSH2 0xF4D DUP11 PUSH1 0x20 DUP7 ADD MSTORE JUMP JUMPDEST PUSH2 0xF58 DUP7 PUSH1 0x40 DUP7 ADD MSTORE JUMP JUMPDEST PUSH2 0xF80 PUSH2 0xF63 PUSH2 0xBB4 JUMP JUMPDEST SWAP5 PUSH2 0xF6E DUP11 DUP5 DUP9 ADD MSTORE JUMP JUMPDEST PUSH2 0xF79 DUP12 PUSH1 0x20 DUP9 ADD MSTORE JUMP JUMPDEST PUSH1 0x40 DUP7 ADD MSTORE JUMP JUMPDEST DUP1 ISZERO ISZERO PUSH1 0x60 DUP6 ADD MSTORE PUSH2 0x229 JUMP JUMPDEST PUSH1 0x80 DUP4 ADD MSTORE JUMP JUMPDEST PUSH2 0xFB0 PUSH2 0xFA9 PUSH2 0xFA4 PUSH1 0x4 PUSH2 0x398 JUMP JUMPDEST PUSH2 0xBD5 JUMP JUMPDEST PUSH1 0x4 PUSH2 0xBFD JUMP JUMPDEST PUSH2 0xFC5 PUSH1 0x3 PUSH2 0xFBF PUSH1 0x4 PUSH2 0x398 JUMP JUMPDEST SWAP1 PUSH2 0x236 JUMP JUMPDEST PUSH2 0xE98 JUMP JUMPDEST PUSH2 0xFD4 PUSH1 0x4 PUSH2 0x398 JUMP JUMPDEST SWAP5 PUSH2 0xFFF PUSH32 0x70B517A9DBD4BF0ACDC42BBEF27F987464150FBE85E7BEDE1640091C816E9510 SWAP7 PUSH2 0x229 JUMP JUMPDEST SWAP7 PUSH2 0x876 PUSH1 0x40 MLOAD SWAP1 JUMP JUMPDEST SUB SWAP1 LOG2 JUMP JUMPDEST SWAP1 PUSH2 0x118 PUSH2 0x1069 PUSH1 0x6 PUSH2 0x101F PUSH2 0xBB4 JUMP JUMPDEST SWAP5 PUSH2 0x102C PUSH2 0x3DE DUP3 PUSH2 0x370 JUMP JUMPDEST PUSH2 0x103B PUSH2 0x3F1 PUSH1 0x1 DUP4 ADD PUSH2 0x370 JUMP JUMPDEST PUSH2 0x1051 PUSH2 0x104A PUSH1 0x2 DUP4 ADD PUSH2 0x3C0 JUMP JUMPDEST PUSH1 0x40 DUP9 ADD MSTORE JUMP JUMPDEST PUSH2 0x3F8 PUSH2 0x1060 PUSH1 0x5 DUP4 ADD PUSH2 0x410 JUMP JUMPDEST ISZERO ISZERO PUSH1 0x60 DUP9 ADD MSTORE JUMP JUMPDEST PUSH1 0x80 DUP5 ADD MSTORE JUMP JUMPDEST PUSH2 0x12E SWAP1 PUSH2 0x100E JUMP JUMPDEST PUSH2 0x1094 PUSH2 0x1099 SWAP2 PUSH2 0x1088 PUSH1 0x60 SWAP1 JUMP JUMPDEST POP PUSH1 0x0 JUMPDEST POP PUSH1 0x3 PUSH2 0x236 JUMP JUMPDEST PUSH2 0x1070 JUMP JUMPDEST DUP1 MLOAD PUSH1 0x20 DUP1 DUP4 ADD MLOAD PUSH1 0x40 SWAP4 DUP5 ADD MLOAD DUP1 MLOAD SWAP3 DUP2 ADD MLOAD SWAP5 ADD MLOAD SWAP3 SWAP5 SWAP1 SWAP4 SWAP2 SWAP3 SWAP1 JUMP JUMPDEST SWAP4 SWAP5 PUSH2 0x1009 SWAP2 SWAP3 SWAP4 SWAP6 PUSH2 0x115A PUSH2 0x10CF PUSH2 0xDC5 DUP7 SWAP1 JUMP JUMPDEST PUSH2 0x10E1 PUSH1 0x0 SWAP2 PUSH2 0xECC PUSH2 0xEC8 DUP5 PUSH2 0x229 JUMP JUMPDEST PUSH2 0x10EC PUSH2 0xEDD DUP9 MLOAD SWAP1 JUMP JUMPDEST PUSH2 0x10F7 PUSH2 0xEFA DUP11 MLOAD SWAP1 JUMP JUMPDEST PUSH2 0x1102 PUSH2 0xF17 DUP5 MLOAD SWAP1 JUMP JUMPDEST PUSH1 0x2 PUSH2 0x110C PUSH2 0x3B6 JUMP JUMPDEST SWAP2 PUSH2 0x1117 DUP12 DUP3 DUP6 ADD MSTORE JUMP JUMPDEST PUSH2 0x1122 DUP6 PUSH1 0x20 DUP6 ADD MSTORE JUMP JUMPDEST PUSH2 0x112D DUP7 PUSH1 0x40 DUP6 ADD MSTORE JUMP JUMPDEST PUSH2 0x1147 DUP9 PUSH2 0x113F PUSH2 0x12E DUP14 PUSH1 0x3 PUSH2 0x236 JUMP JUMPDEST SWAP3 DUP4 ADD PUSH2 0xDBB JUMP JUMPDEST PUSH2 0x1154 DUP10 PUSH1 0x1 DUP4 ADD PUSH2 0xDBB JUMP JUMPDEST ADD PUSH2 0xE0C JUMP JUMPDEST PUSH2 0xFFF PUSH32 0x5AE86F194F51C32E0721D07AEEEB2B329B5050B21907AAFBCBA0455F5233C397 SWAP7 PUSH2 0x229 JUMP JUMPDEST SWAP1 PUSH2 0x1197 SWAP1 PUSH1 0x0 NOT SWAP1 PUSH1 0x20 SUB PUSH1 0x8 MUL SHR SWAP1 JUMP JUMPDEST DUP2 SLOAD AND SWAP1 SSTORE JUMP JUMPDEST SWAP1 PUSH1 0x0 SWAP2 PUSH2 0x11BC PUSH2 0x11B4 DUP3 PUSH1 0x0 MSTORE PUSH1 0x20 PUSH1 0x0 KECCAK256 SWAP1 JUMP JUMPDEST SWAP3 DUP4 SLOAD PUSH2 0xCD5 JUMP JUMPDEST SWAP1 SSTORE SSTORE JUMP JUMPDEST SWAP2 SWAP3 SWAP1 PUSH1 0x20 DUP3 LT ISZERO PUSH2 0x1219 JUMPI PUSH1 0x1F DUP5 GT PUSH1 0x1 EQ PUSH2 0x11E3 JUMPI PUSH2 0xC14 SWAP3 SWAP4 POP PUSH2 0xCD5 JUMP JUMPDEST POP SWAP1 PUSH2 0x1214 PUSH2 0x118 SWAP4 PUSH1 0x1 PUSH2 0x120B PUSH2 0x1200 DUP6 PUSH1 0x0 MSTORE PUSH1 0x20 PUSH1 0x0 KECCAK256 SWAP1 JUMP JUMPDEST SWAP3 PUSH1 0x1F PUSH1 0x20 SWAP2 ADD DIV SWAP1 JUMP JUMPDEST DUP3 ADD SWAP2 ADD PUSH2 0xC68 JUMP JUMPDEST PUSH2 0x119E JUMP JUMPDEST POP PUSH2 0x1252 DUP3 SWAP4 PUSH2 0x1230 PUSH1 0x1 SWAP5 PUSH1 0x0 MSTORE PUSH1 0x20 PUSH1 0x0 KECCAK256 SWAP1 JUMP JUMPDEST PUSH2 0xCC4 PUSH1 0x20 PUSH1 0x1F DUP7 ADD DIV DUP3 ADD SWAP3 PUSH1 0x1F DUP7 AND DUP1 PUSH2 0x125A JUMPI JUMPDEST POP PUSH1 0x1F PUSH1 0x20 SWAP2 ADD DIV SWAP1 JUMP JUMPDEST PUSH1 0x2 MUL OR SWAP1 SSTORE JUMP JUMPDEST PUSH2 0x1266 SWAP1 DUP9 DUP7 SUB PUSH2 0x1184 JUMP JUMPDEST CODESIZE PUSH2 0x1247 JUMP JUMPDEST SWAP3 SWAP1 SWAP2 PUSH1 0x20 SWAP1 PUSH9 0x10000000000000000 DUP4 GT PUSH2 0x12C6 JUMPI JUMPDEST LT ISZERO PUSH2 0x12BA JUMPI PUSH1 0x20 DUP2 LT ISZERO PUSH2 0x129B JUMPI PUSH2 0xC14 SWAP2 PUSH2 0xCD5 JUMP JUMPDEST PUSH1 0x1 SWAP2 PUSH1 0xFF NOT AND PUSH2 0x12B1 DUP5 PUSH1 0x0 MSTORE PUSH1 0x20 PUSH1 0x0 KECCAK256 SWAP1 JUMP JUMPDEST SSTORE PUSH1 0x2 MUL ADD SWAP1 SSTORE JUMP JUMPDEST PUSH1 0x1 SWAP2 POP PUSH1 0x2 MUL ADD SWAP1 SSTORE JUMP JUMPDEST PUSH2 0x12CE PUSH2 0x32A JUMP JUMPDEST PUSH2 0x1283 JUMP JUMPDEST SWAP1 DUP2 SLOAD PUSH2 0x12DF DUP2 PUSH2 0x265 JUMP JUMPDEST SWAP1 DUP2 DUP4 GT PUSH2 0x1308 JUMPI JUMPDEST DUP2 DUP4 LT PUSH2 0x12F6 JUMPI JUMPDEST POP POP POP POP JUMP JUMPDEST PUSH2 0x12FF SWAP4 PUSH2 0x11C1 JUMP JUMPDEST CODESIZE DUP1 DUP1 DUP1 PUSH2 0x12F0 JUMP JUMPDEST PUSH2 0x1314 DUP4 DUP4 DUP4 DUP8 PUSH2 0x126C JUMP JUMPDEST PUSH2 0x12E8 JUMP JUMPDEST PUSH1 0x0 PUSH2 0x118 SWAP2 PUSH2 0x12D3 JUMP JUMPDEST PUSH2 0x118 SWAP2 ISZERO PUSH2 0x1319 JUMPI PUSH2 0x1335 PUSH2 0xC18 JUMP JUMPDEST PUSH2 0x1319 JUMP JUMPDEST PUSH1 0x0 PUSH1 0x2 PUSH2 0x118 SWAP3 PUSH2 0x134E DUP4 DUP1 DUP4 ADD PUSH2 0x1324 JUMP JUMPDEST PUSH2 0x135B DUP4 PUSH1 0x1 DUP4 ADD PUSH2 0x1324 JUMP JUMPDEST ADD PUSH2 0xC5C JUMP JUMPDEST PUSH2 0x118 SWAP2 ISZERO PUSH2 0x133A JUMPI PUSH2 0x1372 PUSH2 0xC18 JUMP JUMPDEST PUSH2 0x133A JUMP JUMPDEST PUSH1 0x0 PUSH1 0x6 PUSH2 0x118 SWAP3 PUSH2 0x138B DUP4 DUP1 DUP4 ADD PUSH2 0x1324 JUMP JUMPDEST PUSH2 0x1398 DUP4 PUSH1 0x1 DUP4 ADD PUSH2 0x1324 JUMP JUMPDEST PUSH2 0x13A5 DUP4 PUSH1 0x2 DUP4 ADD PUSH2 0x1361 JUMP JUMPDEST DUP3 PUSH1 0x5 DUP3 ADD SSTORE ADD PUSH2 0xC5C JUMP JUMPDEST PUSH2 0x118 SWAP2 ISZERO PUSH2 0x1377 JUMPI PUSH2 0x13C2 PUSH2 0xC18 JUMP JUMPDEST PUSH2 0x1377 JUMP JUMPDEST PUSH2 0x13DC PUSH1 0x0 PUSH2 0x13D7 DUP4 PUSH1 0x3 PUSH2 0x236 JUMP JUMPDEST PUSH2 0x13B1 JUMP JUMPDEST PUSH2 0x1406 PUSH32 0x34DE6B871245ED0A89B82912E8E5EE6D9C3104B3E5BB1D67A71AD7E68239E41C SWAP2 PUSH2 0x229 JUMP JUMPDEST SWAP1 PUSH2 0x1410 PUSH1 0x40 MLOAD SWAP1 JUMP JUMPDEST DUP1 DUP1 PUSH2 0x1009 JUMP JUMPDEST ISZERO PUSH2 0x141E JUMPI JUMP JUMPDEST PUSH1 0x40 MLOAD PUSH3 0x461BCD PUSH1 0xE5 SHL DUP2 MSTORE PUSH1 0x20 PUSH1 0x4 DUP3 ADD MSTORE PUSH1 0xC PUSH1 0x24 DUP3 ADD MSTORE PUSH12 0x2737BA1030B71037BBB732B9 PUSH1 0xA1 SHL PUSH1 0x44 DUP3 ADD MSTORE PUSH1 0x64 SWAP1 REVERT JUMPDEST ISZERO PUSH2 0x1459 JUMPI JUMP JUMPDEST PUSH1 0x40 MLOAD PUSH3 0x461BCD PUSH1 0xE5 SHL DUP2 MSTORE PUSH1 0x20 PUSH1 0x4 DUP3 ADD MSTORE PUSH1 0x15 PUSH1 0x24 DUP3 ADD MSTORE PUSH21 0x15185CDAC8185B1C9958591E48195E1958DD5D1959 PUSH1 0x5A SHL PUSH1 0x44 DUP3 ADD MSTORE PUSH1 0x64 SWAP1 REVERT JUMPDEST PUSH2 0x1531 SWAP1 PUSH2 0x1544 PUSH2 0x14AB PUSH2 0x12E DUP4 PUSH1 0x3 PUSH2 0x236 JUMP JUMPDEST SWAP2 CALLER SWAP1 PUSH2 0x14C9 PUSH2 0x14C4 PUSH2 0x14BF DUP5 PUSH1 0x2 PUSH2 0x5DD JUMP JUMPDEST PUSH2 0x410 JUMP JUMPDEST PUSH2 0x1417 JUMP JUMPDEST PUSH1 0x6 PUSH1 0x5 DUP6 ADD SWAP5 PUSH2 0x14E8 PUSH2 0x14E3 PUSH2 0x14DF DUP9 PUSH2 0x410 JUMP JUMPDEST ISZERO SWAP1 JUMP JUMPDEST PUSH2 0x1452 JUMP JUMPDEST ADD SWAP2 PUSH2 0x14FF PUSH2 0x14F9 PUSH2 0xFA4 DUP6 PUSH2 0x398 JUMP JUMPDEST DUP5 PUSH2 0xBFD JUMP JUMPDEST PUSH2 0x1529 PUSH32 0x1F7DB319F45151674BBCE08AD4E1093BCA1941BC7EF2F91CCAFD6519406F0101 SWAP3 PUSH2 0x229 JUMP JUMPDEST SWAP6 DUP7 SWAP2 PUSH2 0x5D4 JUMP JUMPDEST SWAP2 PUSH2 0x153B PUSH1 0x40 MLOAD SWAP1 JUMP JUMPDEST PUSH1 0x0 SWAP1 LOG3 PUSH2 0x398 JUMP JUMPDEST PUSH2 0x1554 PUSH2 0xEC8 PUSH2 0x12E PUSH1 0x1 PUSH2 0x398 JUMP JUMPDEST EQ PUSH2 0x155D JUMPI POP POP JUMP JUMPDEST PUSH2 0x1569 SWAP1 PUSH1 0x1 SWAP1 PUSH2 0xE1F JUMP JUMPDEST PUSH32 0x33E13ECB54C3076D8E8BB8C2881800A4D972B792045FFAE98FDF46DF365FED75 PUSH2 0x1410 PUSH1 0x40 MLOAD SWAP1 JUMP JUMPDEST PUSH2 0x4AE PUSH2 0x15AB SWAP3 PUSH1 0x20 SWAP3 PUSH2 0x15A5 DUP2 MLOAD SWAP1 JUMP JUMPDEST SWAP5 DUP6 SWAP3 SWAP1 JUMP JUMPDEST SWAP4 DUP5 SWAP2 ADD PUSH2 0x461 JUMP JUMPDEST PUSH1 0x20 SWAP6 PUSH2 0x163C PUSH2 0x16AE PUSH2 0x12E SWAP10 SWAP8 PUSH2 0x163C PUSH2 0x169E PUSH2 0x16E8 SWAP10 PUSH2 0x163C PUSH2 0x164F PUSH2 0x16E3 SWAP12 PUSH2 0x163C PUSH2 0x1642 PUSH2 0x16CD SWAP14 PUSH2 0x163C PUSH2 0x1613 PUSH2 0x16BE SWAP16 PUSH32 0x4365727469666963617465206F662047726164756174696F6E0A0A0000000000 DUP2 MSTORE PUSH1 0x1B ADD SWAP1 JUMP JUMPDEST PUSH32 0x5468697320697320746F20636572746966792074686174200000000000000000 DUP2 MSTORE PUSH1 0x18 ADD SWAP1 JUMP JUMPDEST SWAP1 PUSH2 0x1593 JUMP JUMPDEST PUSH1 0x1 PUSH1 0xFD SHL DUP2 MSTORE PUSH1 0x1 ADD SWAP1 JUMP JUMPDEST PUSH32 0x20686173207375636365737366756C6C7920636F6D706C657465642074686520 DUP2 MSTORE PUSH32 0x726571756972656D656E747320666F722074686520646567726565206F662000 PUSH1 0x20 DUP3 ADD MSTORE PUSH1 0x3F ADD SWAP1 JUMP JUMPDEST PUSH4 0x1034B71 PUSH1 0xE5 SHL DUP2 MSTORE PUSH1 0x4 ADD SWAP1 JUMP JUMPDEST PUSH4 0x1037B71 PUSH1 0xE5 SHL DUP2 MSTORE PUSH1 0x4 ADD SWAP1 JUMP JUMPDEST PUSH3 0x170505 PUSH1 0xE9 SHL DUP2 MSTORE PUSH1 0x3 ADD SWAP1 JUMP JUMPDEST PUSH10 0x24B9B9BAB2B21037B71 PUSH1 0xB5 SHL DUP2 MSTORE PUSH1 0xA ADD SWAP1 JUMP JUMPDEST SWAP2 DUP3 MSTORE JUMP JUMPDEST ADD PUSH2 0x1705 PUSH1 0xF1 SHL DUP2 MSTORE PUSH1 0x2 ADD SWAP1 JUMP JUMPDEST PUSH2 0x12E PUSH2 0x170C PUSH2 0x1094 PUSH2 0x12E SWAP4 PUSH2 0x108C PUSH1 0x60 SWAP1 JUMP JUMPDEST DUP1 MLOAD PUSH1 0x20 DUP1 DUP4 ADD MLOAD PUSH1 0x40 SWAP4 DUP5 ADD MLOAD DUP1 MLOAD SWAP3 DUP2 ADD MLOAD SWAP5 ADD MLOAD SWAP2 SWAP4 PUSH2 0x12E SWAP4 SWAP2 SWAP3 PUSH2 0x1752 SWAP2 SWAP1 PUSH2 0x1739 SWAP1 PUSH2 0x187C JUMP JUMPDEST TIMESTAMP SWAP2 PUSH2 0x1744 PUSH1 0x40 MLOAD SWAP1 JUMP JUMPDEST SWAP8 DUP9 SWAP7 PUSH1 0x20 DUP9 ADD SWAP7 DUP8 PUSH2 0x15B4 JUMP JUMPDEST SWAP1 DUP2 SUB DUP3 MSTORE SUB DUP3 PUSH2 0x341 JUMP JUMPDEST SWAP1 PUSH2 0x16E3 PUSH2 0x698 DUP4 PUSH2 0x652 JUMP JUMPDEST PUSH2 0x1775 PUSH1 0x1 PUSH2 0x175E JUMP JUMPDEST PUSH1 0x3 PUSH1 0xFC SHL PUSH1 0x20 DUP3 ADD MSTORE SWAP1 JUMP JUMPDEST PUSH2 0x12E PUSH2 0x176B JUMP JUMPDEST POP PUSH4 0x4E487B71 PUSH1 0xE0 SHL PUSH1 0x0 MSTORE PUSH1 0x12 PUSH1 0x4 MSTORE PUSH1 0x24 PUSH1 0x0 REVERT JUMPDEST DUP2 ISZERO PUSH2 0x17AB JUMPI DIV SWAP1 JUMP JUMPDEST PUSH2 0x17B3 PUSH2 0x178A JUMP JUMPDEST DIV SWAP1 JUMP JUMPDEST CALLDATASIZE SWAP1 CALLDATACOPY JUMP JUMPDEST SWAP1 PUSH2 0x118 PUSH2 0x17D2 PUSH2 0x17CC DUP5 PUSH2 0x175E JUMP JUMPDEST SWAP4 PUSH2 0x652 JUMP JUMPDEST PUSH1 0x1F NOT ADD PUSH1 0x20 DUP5 ADD PUSH2 0x17B7 JUMP JUMPDEST DUP2 ISZERO PUSH2 0x17E9 JUMPI MOD SWAP1 JUMP JUMPDEST PUSH2 0x17F1 PUSH2 0x178A JUMP JUMPDEST MOD SWAP1 JUMP JUMPDEST SWAP2 SWAP1 DUP3 ADD DUP1 SWAP3 GT PUSH2 0x1802 JUMPI JUMP JUMPDEST PUSH2 0x118 PUSH2 0xBBE JUMP JUMPDEST PUSH2 0x40A PUSH2 0x12E PUSH2 0x12E SWAP3 SWAP1 JUMP JUMPDEST PUSH2 0x182D PUSH2 0x1827 PUSH2 0x12E SWAP3 PUSH1 0xFF AND SWAP1 JUMP JUMPDEST PUSH1 0xF8 SHL SWAP1 JUMP JUMPDEST PUSH1 0x1 PUSH1 0x1 PUSH1 0xF8 SHL SUB NOT AND SWAP1 JUMP JUMPDEST PUSH1 0x1 SWAP1 DUP1 ISZERO PUSH2 0x1847 JUMPI SUB SWAP1 JUMP JUMPDEST PUSH2 0x184F PUSH2 0xBBE JUMP JUMPDEST SUB SWAP1 JUMP JUMPDEST SWAP1 PUSH1 0x1 PUSH1 0x20 SWAP2 PUSH2 0x1861 DUP5 MLOAD SWAP1 JUMP JUMPDEST DUP2 LT ISZERO PUSH2 0x186F JUMPI JUMPDEST MUL ADD ADD SWAP1 JUMP JUMPDEST PUSH2 0x1877 PUSH2 0x13E JUMP JUMPDEST PUSH2 0x1869 JUMP JUMPDEST SWAP1 PUSH1 0x0 PUSH2 0x1888 DUP2 PUSH2 0x229 JUMP JUMPDEST DUP4 EQ PUSH2 0x194E JUMPI SWAP1 DUP3 SWAP1 PUSH1 0x0 JUMPDEST PUSH2 0x189D DUP5 PUSH2 0x229 JUMP JUMPDEST DUP4 EQ PUSH2 0x18C6 JUMPI PUSH2 0x18AF PUSH2 0x18C0 SWAP2 PUSH2 0xBD5 JUMP JUMPDEST SWAP3 PUSH2 0x18BA PUSH1 0xA PUSH2 0x229 JUMP JUMPDEST SWAP1 PUSH2 0x17A1 JUMP JUMPDEST SWAP2 PUSH2 0x1894 JUMP JUMPDEST SWAP2 POP SWAP2 PUSH2 0x18D2 DUP3 PUSH2 0x17BC JUMP JUMPDEST SWAP2 SWAP4 JUMPDEST PUSH2 0x18DE DUP3 PUSH2 0x229 JUMP JUMPDEST DUP2 EQ PUSH2 0x1943 JUMPI PUSH2 0x193E SWAP1 PUSH2 0x18BA PUSH1 0xA PUSH2 0x192B PUSH2 0x1925 PUSH2 0x1920 PUSH2 0x191B PUSH1 0x30 PUSH2 0x1916 PUSH2 0x1910 PUSH2 0x190A DUP9 PUSH2 0x229 JUMP JUMPDEST DUP11 PUSH2 0x17DF JUMP JUMPDEST SWAP2 PUSH2 0x229 JUMP JUMPDEST PUSH2 0x17F5 JUMP JUMPDEST PUSH2 0x180A JUMP JUMPDEST PUSH2 0x1817 JUMP JUMPDEST SWAP9 PUSH2 0x183A JUMP JUMPDEST SWAP8 DUP6 BYTE PUSH2 0x1938 DUP10 DUP9 PUSH2 0x1853 JUMP JUMPDEST MSTORE8 PUSH2 0x229 JUMP JUMPDEST PUSH2 0x18D5 JUMP JUMPDEST POP POP PUSH2 0x12E SWAP2 SWAP3 POP SWAP1 JUMP JUMPDEST POP SWAP1 POP PUSH2 0x12E PUSH2 0x1782 JUMP INVALID LOG2 PUSH5 0x6970667358 0x22 SLT KECCAK256 JUMP NOT 0xD8 0xDC PUSH31 0xE920D69F75F0008D7231EFB49C02F0B8412D7C6550D2237B35A53864736F6C PUSH4 0x43000811 STOP CALLER "},"methodIdentifiers":{"confirmCreateStudent(uint256)":"a302ef19","createStudent(string,string,string,string,uint256)":"92b2424d","deleteStudent(uint256)":"b645307d","isOwner(address)":"2f54bf6e","issueCertificate(uint256)":"d80fa7cf","numConfirmationsRequired()":"d0549b85","owners(uint256)":"025e7c27","readStudent(uint256)":"8ec0124a","studentCount()":"e581f9ee","students(uint256)":"06ead22e","updateStudent(uint256,string,string,string,string,uint256)":"4fb14e68"}}}}}