{"contracts/StudentRegistry.sol":{"StudentRegistry":{"abi":[{"anonymous":false,"inputs":[{"indexed":true,"internalType":"address","name":"studentAddress","type":"address"},{"indexed":false,"internalType":"string","name":"firstName","type":"string"},{"indexed":false,"internalType":"string","name":"lastName","type":"string"},{"indexed":false,"internalType":"string","name":"degree","type":"string"},{"indexed":false,"internalType":"string","name":"major","type":"string"},{"indexed":false,"internalType":"uint256","name":"year","type":"uint256"}],"name":"StudentCreated","type":"event"},{"anonymous":false,"inputs":[{"indexed":true,"internalType":"address","name":"studentAddress","type":"address"}],"name":"StudentDeleted","type":"event"},{"anonymous":false,"inputs":[{"indexed":true,"internalType":"address","name":"studentAddress","type":"address"},{"indexed":false,"internalType":"string","name":"firstName","type":"string"},{"indexed":false,"internalType":"string","name":"lastName","type":"string"},{"indexed":false,"internalType":"string","name":"degree","type":"string"},{"indexed":false,"internalType":"string","name":"major","type":"string"},{"indexed":false,"internalType":"uint256","name":"year","type":"uint256"}],"name":"StudentUpdated","type":"event"},{"inputs":[{"internalType":"uint256","name":"","type":"uint256"}],"name":"Students","outputs":[{"internalType":"string","name":"firstName","type":"string"},{"internalType":"string","name":"lastName","type":"string"},{"components":[{"internalType":"string","name":"degree","type":"string"},{"internalType":"string","name":"major","type":"string"},{"internalType":"uint256","name":"year","type":"uint256"}],"internalType":"struct StudentRegistry.Education","name":"education","type":"tuple"}],"stateMutability":"view","type":"function"},{"inputs":[{"internalType":"string","name":"_firstName","type":"string"},{"internalType":"string","name":"_lastName","type":"string"},{"internalType":"string","name":"_degree","type":"string"},{"internalType":"string","name":"_major","type":"string"},{"internalType":"uint256","name":"_year","type":"uint256"}],"name":"createStudent","outputs":[],"stateMutability":"nonpayable","type":"function"},{"inputs":[{"internalType":"uint256","name":"index","type":"uint256"}],"name":"deleteStudent","outputs":[],"stateMutability":"nonpayable","type":"function"},{"inputs":[],"name":"getAallStudents","outputs":[{"components":[{"internalType":"string","name":"firstName","type":"string"},{"internalType":"string","name":"lastName","type":"string"},{"components":[{"internalType":"string","name":"degree","type":"string"},{"internalType":"string","name":"major","type":"string"},{"internalType":"uint256","name":"year","type":"uint256"}],"internalType":"struct StudentRegistry.Education","name":"education","type":"tuple"}],"internalType":"struct StudentRegistry.Student[]","name":"","type":"tuple[]"}],"stateMutability":"view","type":"function"},{"inputs":[],"name":"issueCertificate","outputs":[{"internalType":"bytes","name":"","type":"bytes"}],"stateMutability":"view","type":"function"},{"inputs":[{"internalType":"address","name":"","type":"address"}],"name":"students","outputs":[{"internalType":"string","name":"firstName","type":"string"},{"internalType":"string","name":"lastName","type":"string"},{"components":[{"internalType":"string","name":"degree","type":"string"},{"internalType":"string","name":"major","type":"string"},{"internalType":"uint256","name":"year","type":"uint256"}],"internalType":"struct StudentRegistry.Education","name":"education","type":"tuple"}],"stateMutability":"view","type":"function"},{"inputs":[{"internalType":"string","name":"_firstName","type":"string"},{"internalType":"string","name":"_lastName","type":"string"},{"internalType":"string","name":"_degree","type":"string"},{"internalType":"string","name":"_major","type":"string"},{"internalType":"uint256","name":"_year","type":"uint256"}],"name":"updateStudent","outputs":[],"stateMutability":"nonpayable","type":"function"}],"evm":{"bytecode":{"linkReferences":{},"object":"60806040523461001b575b6040516115bf61002982396115bf90f35b610023600080fd5b61000a56fe60806040526004361015610018575b610016600080fd5b005b60003560e01c80630352e27c146100a457806357c8d71d1461009b578063818169331461009257806392b2424d14610089578063a6c807a914610080578063b645307d146100775763f2750eaf0361000e57610072610813565b61000e565b506100726107ec565b506100726107c2565b506100726106fb565b50610072610566565b5061007261051c565b5061007261022c565b600080fd5b60009103126100bd57565b6100c5600080fd5b565b60005b8381106100da5750506000910152565b81810151838201526020016100ca565b601f01601f191690565b6101156100ea60209361011e93610109815190565b80835293849260200190565b958691016100c7565b0190565b906101609060408061015861014660608501600088015186820360008801526100f4565b602087015185820360208701526100f4565b940151910152565b90565b80516060808452610160939160409161019491610182918501906100f4565b602085015184820360208601526100f4565b920151906040818403910152610122565b9061016091610163565b906101c56101bb835190565b8083529160200190565b90816101d76020830284019460200190565b926000915b8383106101eb57505050505090565b9091929394602061020e610207838560019503875289516101a5565b9760200190565b93019301919392906101dc565b6020808252610160929101906101af565b5034610259575b61023e3660046100b2565b610255610249610e51565b6040519182918261021b565b0390f35b610261600080fd5b610233565b805b036100ad57565b905035906100c582610266565b90610160916020818303121561026f57610294600080fd5b61026f565b50634e487b7160e01b600052603260045260246000fd5b6102d06005916102be815490565b8410156102d957600052602060002090565b91020190600090565b6102e1610299565b600052602060002090565b50634e487b7160e01b600052602260045260246000fd5b9060016002830492168015610326575b602083101461031e57565b6100c56102ec565b91607f1691610313565b8054600093929161034d61034383610303565b8085529360200190565b916001811690811561039f575060011461036657505050565b6103799192939450600052602060002090565b916000925b81841061038b5750500190565b80548484015260209093019260010161037e565b92949550505060ff1916825215156020020190565b9061016091610330565b50634e487b7160e01b600052604160045260246000fd5b90601f01601f1916810190811067ffffffffffffffff8211176103f757604052565b6103ff6103be565b604052565b906100c561041e9261041560405190565b938480926103b4565b03836103d5565b6101609081565b6101609054610425565b906100c561044360405190565b92836103d5565b6101606060610436565b906100c5610492600261046561044a565b9461047661047282610404565b8752565b61048c61048560018301610404565b6020880152565b0161042c565b6040840152565b906001916000926104a8815490565b8210156104dd576104ba9293506102b0565b506104c481610404565b9161016060026104d660018501610404565b9301610454565b8380fd5b9161050e906105006101609593606086019086820360008801526100f4565b9084820360208601526100f4565b916040818403910152610122565b5034610548575b61025561053961053436600461027c565b610499565b604051919391938493846104e1565b610550600080fd5b610523565b6020808252610160929101906100f4565b503461058f575b6105783660046100b2565b6102556105836112fe565b60405191829182610555565b610597600080fd5b61056d565b61011e60209167ffffffffffffffff81116105bb57601f01601f191690565b6100ea6103be565b90826000939282370152565b9291906100c5916105e76105e28361059c565b610436565b94828652602086019183820111156105c357610601600080fd5b6105c3565b906101609181601f82011215610622575b6020813591016105cf565b61062a600080fd5b610617565b919060a0838203126106ee575b61065981843567ffffffffffffffff81116106d4575b8501610606565b9261067a82602083013567ffffffffffffffff81116106e1575b8301610606565b9261016061069d84604085013567ffffffffffffffff81116106d4578501610606565b936106be81606086013567ffffffffffffffff81116106c7575b8601610606565b9360800161026f565b6106cf600080fd5b6106b7565b6106dc600080fd5b610652565b6106e9600080fd5b610673565b6106f6600080fd5b61063c565b503461071e575b61071961071036600461062f565b93929092610c60565b604051005b610726600080fd5b610702565b6001600160a01b031690565b6001600160a01b038116610268565b905035906100c582610737565b9061016091602081830312156107465761076b600080fd5b610746565b6101609061072b906001600160a01b031682565b61016090610770565b61016090610784565b906107a09061078d565b600052602052604060002090565b6107b9906000610796565b6104c481610404565b50346107df575b6102556105396107da366004610753565b6107ae565b6107e7600080fd5b6107c9565b5034610806575b61071961080136600461027c565b61118b565b61080e600080fd5b6107f3565b5034610831575b61071961082836600461062f565b93929092610e5b565b610839600080fd5b61081a565b6101606101606101609290565b1561085257565b60405162461bcd60e51b815260206004820152601a60248201527f4669727374206e616d652063616e6e6f7420626520656d7074790000000000006044820152606490fd5b1561089e57565b60405162461bcd60e51b815260206004820152601960248201527f4c617374206e616d652063616e6e6f7420626520656d707479000000000000006044820152606490fd5b156108ea57565b60405162461bcd60e51b81526020600482015260166024820152754465677265652063616e6e6f7420626520656d70747960501b6044820152606490fd5b1561092f57565b60405162461bcd60e51b81526020600482015260156024820152744d616a6f722063616e6e6f7420626520656d70747960581b6044820152606490fd5b50634e487b7160e01b600052600060045260246000fd5b9160001960089290920291821b911b5b9181191691161790565b91906109ae6101606109b69361083e565b908354610983565b9055565b6100c59160009161099d565b8181106109d1575050565b806109df60006001936109ba565b016109c6565b9190601f81116109f457505050565b610a066100c593600052602060002090565b906020601f840181900483019310610a29575b6020601f909101045b01906109c6565b9091508190610a19565b600019600883021c1916906002021790565b90610a4e815190565b9067ffffffffffffffff8211610b0c575b610a7382610a6d8554610303565b856109e5565b602090601f8311600114610aa1576109b6929160009183610a96575b5050610a33565b015190503880610a8f565b601f19831691610ab685600052602060002090565b9260005b818110610af457509160029391856001969410610adb575b50505002019055565b01516000196008601f8516021c19169055388080610ad2565b91936020600181928787015181550195019201610aba565b610b146103be565b610a5f565b906100c591610a45565b5190565b9060001990610993565b90610b416101606109b69261083e565b8254610b27565b90610b85604060026100c594610b6c60008201610b66600088015190565b90610b19565b610b7e60018201610b66602088015190565b0192015190565b90610b31565b906100c591610b48565b90610bb3604060026100c594610b6c60008201610b66600088015190565b90610b8b565b6100c5929115610b9557610bcb61096c565b610b95565b90610bf36100c592805490600160401b821015610bf9575b6001820181556102b0565b90610bb9565b610c016103be565b610be8565b95949293610c4d6100c595610c3f608095610c31610c5b9660a08d01908d60008184039101526100f4565b908b820360208d01526100f4565b9089820360408b01526100f4565b9087820360608901526100f4565b940152565b909193610d7b90610d3d610c74610b238590565b610c90600091610c8a610c868461083e565b9190565b1161084b565b610cad610c9b875190565b610ca7610c868461083e565b11610897565b610cca610cb8895190565b610cc4610c868461083e565b116108e3565b610ce7610cd5885190565b610ce1610c868461083e565b11610928565b610d36610cf261044a565b610cfc8a84830152565b610d07896020830152565b610d12856040830152565b610d2487610d1e61044a565b94850152565b610d2f886020850152565b6040830152565b6001610bd0565b7f7b2915ee83b60c835e492363a7976b66ae49d42f51b0824c27b0ecd4a89c18d494610d683361078d565b96610d7260405190565b95869586610c06565b0390a2565b6020809167ffffffffffffffff8111610d9857020190565b610da06103be565b020190565b90610db26105e283610d80565b918252565b906100c56104926002610dc861044a565b94610dd561047282610404565b610de461048560018301610404565b01610454565b61016090610db7565b90610dfc825490565b610e0581610da5565b92610e196020850191600052602060002090565b6000915b838310610e2a5750505050565b60056020600192610e3a85610dea565b815201920192019190610e1d565b61016090610df3565b6101606001610e48565b909193610d7b90610e6c610b238490565b94610e7f600096610c8a610c868961083e565b610e96610e8a865190565b610ca7610c868961083e565b610ead610ea1885190565b610cc4610c868961083e565b610ec4610eb8825190565b610ce1610c868961083e565b610f1f610ecf61044a565b610ed98989830152565b610ee4836020830152565b610eef846040830152565b60023398610f0c88610f046101608d85610796565b928301610b19565b610f198960018301610b19565b01610b8b565b610d687f23bc9910b06b4440a923ecc439f6e57a3bc500bebf0b8c6c90e9a73633344ea79661078d565b90610f5c90600019906020036008021c90565b8154169055565b90600091610f81610f7982600052602060002090565b928354610a33565b905555565b9192906020821015610fde57601f8411600114610fa8576109b6929350610a33565b5090610fd96100c5936001610fd0610fc585600052602060002090565b92601f602091010490565b820191016109c6565b610f63565b506110178293610ff5600194600052602060002090565b610a226020601f860104820192601f86168061101f575b50601f602091010490565b600202179055565b61102b90888603610f49565b3861100c565b929091602090600160401b8311611086575b101561107a57602081101561105b576109b691610a33565b60019160ff191661107184600052602060002090565b55600202019055565b60019150600202019055565b61108e6103be565b611043565b90815461109f81610303565b908183116110c8575b8183106110b6575b50505050565b6110bf93610f86565b388080806110b0565b6110d483838387611031565b6110a8565b50634e487b7160e01b600052601160045260246000fd5b60006100c591611093565b6100c591156110f05761110c61096c565b6110f0565b600060026100c592611125838083016110fb565b61113283600183016110fb565b016109ba565b6100c591156111115761114961096c565b611111565b600060026100c592611162838083016110fb565b61116f83600183016110fb565b01611138565b6100c5911561114e5761118661096c565b61114e565b6111996100c59160016102b0565b90611175565b61011e6111b7926020926111b1815190565b94859290565b938491016100c7565b6020956112486112ba61016099976112486112aa6112ef9961124861125b610db29b61124861124e6112d99d61124861121f6112ca9f7f4365727469666963617465206f662047726164756174696f6e0a0a00000000008152601b0190565b7f5468697320697320746f20636572746966792074686174200000000000000000815260180190565b9061119f565b600160fd1b815260010190565b7f20686173207375636365737366756c6c7920636f6d706c65746564207468652081527f726571756972656d656e747320666f722074686520646567726565206f6620006020820152603f0190565b6301034b7160e51b815260040190565b6301037b7160e51b815260040190565b6217050560e91b815260030190565b69024b9b9bab2b21037b7160b51b8152600a0190565b0161170560f11b815260020190565b610160610160600061016061131b6113163384610796565b610dea565b8281015161136460406020840151930194855101519461134b61134660406020845101519351015190565b6114ac565b429161135660405190565b9788966020880196876111c0565b908103825203826103d5565b90610db26105e28361059c565b6113876001611370565b600360fc1b602082015290565b61016061137d565b60019060001981146113ac570190565b61011e6110d9565b50634e487b7160e01b600052601260045260246000fd5b81156113d5570490565b6113dd6113b4565b0490565b369037565b906100c56113fc6113f684611370565b9361059c565b601f1901602084016113e1565b8115611413570690565b61141b6113b4565b0690565b9190820180921161142c57565b6100c56110d9565b6114416101606101609290565b60ff1690565b61145d6114576101609260ff1690565b60f81b90565b6001600160f81b03191690565b6001908015611477570390565b61147f6110d9565b0390565b906001602091611491845190565b81101561149f575b02010190565b6114a7610299565b611499565b9060006114b88161083e565b831461157e5790829060005b6114cd8461083e565b83146114f6576114df6114f09161139c565b926114ea600a61083e565b906113cb565b916114c4565b915091611502826113e6565b91935b61150e8261083e565b81146115735761156e906114ea600a61155b61155561155061154b603061154661154061153a8861083e565b8a611409565b9161083e565b61141f565b611434565b611447565b9861146a565b97851a6115688988611483565b5361083e565b611505565b505061016091925090565b50905061016061139456fea26469706673582212204d2fba1c2ddfe50af5e8a63b5a5e2f6469559f7a744245f7695fc6b6af4faa6664736f6c63430008110033","opcodes":"PUSH1 0x80 PUSH1 0x40 MSTORE CALLVALUE PUSH2 0x1B JUMPI JUMPDEST PUSH1 0x40 MLOAD PUSH2 0x15BF PUSH2 0x29 DUP3 CODECOPY PUSH2 0x15BF SWAP1 RETURN JUMPDEST PUSH2 0x23 PUSH1 0x0 DUP1 REVERT JUMPDEST PUSH2 0xA JUMP INVALID PUSH1 0x80 PUSH1 0x40 MSTORE PUSH1 0x4 CALLDATASIZE LT ISZERO PUSH2 0x18 JUMPI JUMPDEST PUSH2 0x16 PUSH1 0x0 DUP1 REVERT JUMPDEST STOP JUMPDEST PUSH1 0x0 CALLDATALOAD PUSH1 0xE0 SHR DUP1 PUSH4 0x352E27C EQ PUSH2 0xA4 JUMPI DUP1 PUSH4 0x57C8D71D EQ PUSH2 0x9B JUMPI DUP1 PUSH4 0x81816933 EQ PUSH2 0x92 JUMPI DUP1 PUSH4 0x92B2424D EQ PUSH2 0x89 JUMPI DUP1 PUSH4 0xA6C807A9 EQ PUSH2 0x80 JUMPI DUP1 PUSH4 0xB645307D EQ PUSH2 0x77 JUMPI PUSH4 0xF2750EAF SUB PUSH2 0xE JUMPI PUSH2 0x72 PUSH2 0x813 JUMP JUMPDEST PUSH2 0xE JUMP JUMPDEST POP PUSH2 0x72 PUSH2 0x7EC JUMP JUMPDEST POP PUSH2 0x72 PUSH2 0x7C2 JUMP JUMPDEST POP PUSH2 0x72 PUSH2 0x6FB JUMP JUMPDEST POP PUSH2 0x72 PUSH2 0x566 JUMP JUMPDEST POP PUSH2 0x72 PUSH2 0x51C JUMP JUMPDEST POP PUSH2 0x72 PUSH2 0x22C JUMP JUMPDEST PUSH1 0x0 DUP1 REVERT JUMPDEST PUSH1 0x0 SWAP2 SUB SLT PUSH2 0xBD JUMPI JUMP JUMPDEST PUSH2 0xC5 PUSH1 0x0 DUP1 REVERT JUMPDEST JUMP JUMPDEST PUSH1 0x0 JUMPDEST DUP4 DUP2 LT PUSH2 0xDA JUMPI POP POP PUSH1 0x0 SWAP2 ADD MSTORE JUMP JUMPDEST DUP2 DUP2 ADD MLOAD DUP4 DUP3 ADD MSTORE PUSH1 0x20 ADD PUSH2 0xCA JUMP JUMPDEST PUSH1 0x1F ADD PUSH1 0x1F NOT AND SWAP1 JUMP JUMPDEST PUSH2 0x115 PUSH2 0xEA PUSH1 0x20 SWAP4 PUSH2 0x11E SWAP4 PUSH2 0x109 DUP2 MLOAD SWAP1 JUMP JUMPDEST DUP1 DUP4 MSTORE SWAP4 DUP5 SWAP3 PUSH1 0x20 ADD SWAP1 JUMP JUMPDEST SWAP6 DUP7 SWAP2 ADD PUSH2 0xC7 JUMP JUMPDEST ADD SWAP1 JUMP JUMPDEST SWAP1 PUSH2 0x160 SWAP1 PUSH1 0x40 DUP1 PUSH2 0x158 PUSH2 0x146 PUSH1 0x60 DUP6 ADD PUSH1 0x0 DUP9 ADD MLOAD DUP7 DUP3 SUB PUSH1 0x0 DUP9 ADD MSTORE PUSH2 0xF4 JUMP JUMPDEST PUSH1 0x20 DUP8 ADD MLOAD DUP6 DUP3 SUB PUSH1 0x20 DUP8 ADD MSTORE PUSH2 0xF4 JUMP JUMPDEST SWAP5 ADD MLOAD SWAP2 ADD MSTORE JUMP JUMPDEST SWAP1 JUMP JUMPDEST DUP1 MLOAD PUSH1 0x60 DUP1 DUP5 MSTORE PUSH2 0x160 SWAP4 SWAP2 PUSH1 0x40 SWAP2 PUSH2 0x194 SWAP2 PUSH2 0x182 SWAP2 DUP6 ADD SWAP1 PUSH2 0xF4 JUMP JUMPDEST PUSH1 0x20 DUP6 ADD MLOAD DUP5 DUP3 SUB PUSH1 0x20 DUP7 ADD MSTORE PUSH2 0xF4 JUMP JUMPDEST SWAP3 ADD MLOAD SWAP1 PUSH1 0x40 DUP2 DUP5 SUB SWAP2 ADD MSTORE PUSH2 0x122 JUMP JUMPDEST SWAP1 PUSH2 0x160 SWAP2 PUSH2 0x163 JUMP JUMPDEST SWAP1 PUSH2 0x1C5 PUSH2 0x1BB DUP4 MLOAD SWAP1 JUMP JUMPDEST DUP1 DUP4 MSTORE SWAP2 PUSH1 0x20 ADD SWAP1 JUMP JUMPDEST SWAP1 DUP2 PUSH2 0x1D7 PUSH1 0x20 DUP4 MUL DUP5 ADD SWAP5 PUSH1 0x20 ADD SWAP1 JUMP JUMPDEST SWAP3 PUSH1 0x0 SWAP2 JUMPDEST DUP4 DUP4 LT PUSH2 0x1EB JUMPI POP POP POP POP POP SWAP1 JUMP JUMPDEST SWAP1 SWAP2 SWAP3 SWAP4 SWAP5 PUSH1 0x20 PUSH2 0x20E PUSH2 0x207 DUP4 DUP6 PUSH1 0x1 SWAP6 SUB DUP8 MSTORE DUP10 MLOAD PUSH2 0x1A5 JUMP JUMPDEST SWAP8 PUSH1 0x20 ADD SWAP1 JUMP JUMPDEST SWAP4 ADD SWAP4 ADD SWAP2 SWAP4 SWAP3 SWAP1 PUSH2 0x1DC JUMP JUMPDEST PUSH1 0x20 DUP1 DUP3 MSTORE PUSH2 0x160 SWAP3 SWAP2 ADD SWAP1 PUSH2 0x1AF JUMP JUMPDEST POP CALLVALUE PUSH2 0x259 JUMPI JUMPDEST PUSH2 0x23E CALLDATASIZE PUSH1 0x4 PUSH2 0xB2 JUMP JUMPDEST PUSH2 0x255 PUSH2 0x249 PUSH2 0xE51 JUMP JUMPDEST PUSH1 0x40 MLOAD SWAP2 DUP3 SWAP2 DUP3 PUSH2 0x21B JUMP JUMPDEST SUB SWAP1 RETURN JUMPDEST PUSH2 0x261 PUSH1 0x0 DUP1 REVERT JUMPDEST PUSH2 0x233 JUMP JUMPDEST DUP1 JUMPDEST SUB PUSH2 0xAD JUMPI JUMP JUMPDEST SWAP1 POP CALLDATALOAD SWAP1 PUSH2 0xC5 DUP3 PUSH2 0x266 JUMP JUMPDEST SWAP1 PUSH2 0x160 SWAP2 PUSH1 0x20 DUP2 DUP4 SUB SLT ISZERO PUSH2 0x26F JUMPI PUSH2 0x294 PUSH1 0x0 DUP1 REVERT JUMPDEST PUSH2 0x26F JUMP JUMPDEST POP PUSH4 0x4E487B71 PUSH1 0xE0 SHL PUSH1 0x0 MSTORE PUSH1 0x32 PUSH1 0x4 MSTORE PUSH1 0x24 PUSH1 0x0 REVERT JUMPDEST PUSH2 0x2D0 PUSH1 0x5 SWAP2 PUSH2 0x2BE DUP2 SLOAD SWAP1 JUMP JUMPDEST DUP5 LT ISZERO PUSH2 0x2D9 JUMPI PUSH1 0x0 MSTORE PUSH1 0x20 PUSH1 0x0 KECCAK256 SWAP1 JUMP JUMPDEST SWAP2 MUL ADD SWAP1 PUSH1 0x0 SWAP1 JUMP JUMPDEST PUSH2 0x2E1 PUSH2 0x299 JUMP JUMPDEST PUSH1 0x0 MSTORE PUSH1 0x20 PUSH1 0x0 KECCAK256 SWAP1 JUMP JUMPDEST POP PUSH4 0x4E487B71 PUSH1 0xE0 SHL PUSH1 0x0 MSTORE PUSH1 0x22 PUSH1 0x4 MSTORE PUSH1 0x24 PUSH1 0x0 REVERT JUMPDEST SWAP1 PUSH1 0x1 PUSH1 0x2 DUP4 DIV SWAP3 AND DUP1 ISZERO PUSH2 0x326 JUMPI JUMPDEST PUSH1 0x20 DUP4 LT EQ PUSH2 0x31E JUMPI JUMP JUMPDEST PUSH2 0xC5 PUSH2 0x2EC JUMP JUMPDEST SWAP2 PUSH1 0x7F AND SWAP2 PUSH2 0x313 JUMP JUMPDEST DUP1 SLOAD PUSH1 0x0 SWAP4 SWAP3 SWAP2 PUSH2 0x34D PUSH2 0x343 DUP4 PUSH2 0x303 JUMP JUMPDEST DUP1 DUP6 MSTORE SWAP4 PUSH1 0x20 ADD SWAP1 JUMP JUMPDEST SWAP2 PUSH1 0x1 DUP2 AND SWAP1 DUP2 ISZERO PUSH2 0x39F JUMPI POP PUSH1 0x1 EQ PUSH2 0x366 JUMPI POP POP POP JUMP JUMPDEST PUSH2 0x379 SWAP2 SWAP3 SWAP4 SWAP5 POP PUSH1 0x0 MSTORE PUSH1 0x20 PUSH1 0x0 KECCAK256 SWAP1 JUMP JUMPDEST SWAP2 PUSH1 0x0 SWAP3 JUMPDEST DUP2 DUP5 LT PUSH2 0x38B JUMPI POP POP ADD SWAP1 JUMP JUMPDEST DUP1 SLOAD DUP5 DUP5 ADD MSTORE PUSH1 0x20 SWAP1 SWAP4 ADD SWAP3 PUSH1 0x1 ADD PUSH2 0x37E JUMP JUMPDEST SWAP3 SWAP5 SWAP6 POP POP POP PUSH1 0xFF NOT AND DUP3 MSTORE ISZERO ISZERO PUSH1 0x20 MUL ADD SWAP1 JUMP JUMPDEST SWAP1 PUSH2 0x160 SWAP2 PUSH2 0x330 JUMP JUMPDEST POP PUSH4 0x4E487B71 PUSH1 0xE0 SHL PUSH1 0x0 MSTORE PUSH1 0x41 PUSH1 0x4 MSTORE PUSH1 0x24 PUSH1 0x0 REVERT JUMPDEST SWAP1 PUSH1 0x1F ADD PUSH1 0x1F NOT AND DUP2 ADD SWAP1 DUP2 LT PUSH8 0xFFFFFFFFFFFFFFFF DUP3 GT OR PUSH2 0x3F7 JUMPI PUSH1 0x40 MSTORE JUMP JUMPDEST PUSH2 0x3FF PUSH2 0x3BE JUMP JUMPDEST PUSH1 0x40 MSTORE JUMP JUMPDEST SWAP1 PUSH2 0xC5 PUSH2 0x41E SWAP3 PUSH2 0x415 PUSH1 0x40 MLOAD SWAP1 JUMP JUMPDEST SWAP4 DUP5 DUP1 SWAP3 PUSH2 0x3B4 JUMP JUMPDEST SUB DUP4 PUSH2 0x3D5 JUMP JUMPDEST PUSH2 0x160 SWAP1 DUP2 JUMP JUMPDEST PUSH2 0x160 SWAP1 SLOAD PUSH2 0x425 JUMP JUMPDEST SWAP1 PUSH2 0xC5 PUSH2 0x443 PUSH1 0x40 MLOAD SWAP1 JUMP JUMPDEST SWAP3 DUP4 PUSH2 0x3D5 JUMP JUMPDEST PUSH2 0x160 PUSH1 0x60 PUSH2 0x436 JUMP JUMPDEST SWAP1 PUSH2 0xC5 PUSH2 0x492 PUSH1 0x2 PUSH2 0x465 PUSH2 0x44A JUMP JUMPDEST SWAP5 PUSH2 0x476 PUSH2 0x472 DUP3 PUSH2 0x404 JUMP JUMPDEST DUP8 MSTORE JUMP JUMPDEST PUSH2 0x48C PUSH2 0x485 PUSH1 0x1 DUP4 ADD PUSH2 0x404 JUMP JUMPDEST PUSH1 0x20 DUP9 ADD MSTORE JUMP JUMPDEST ADD PUSH2 0x42C JUMP JUMPDEST PUSH1 0x40 DUP5 ADD MSTORE JUMP JUMPDEST SWAP1 PUSH1 0x1 SWAP2 PUSH1 0x0 SWAP3 PUSH2 0x4A8 DUP2 SLOAD SWAP1 JUMP JUMPDEST DUP3 LT ISZERO PUSH2 0x4DD JUMPI PUSH2 0x4BA SWAP3 SWAP4 POP PUSH2 0x2B0 JUMP JUMPDEST POP PUSH2 0x4C4 DUP2 PUSH2 0x404 JUMP JUMPDEST SWAP2 PUSH2 0x160 PUSH1 0x2 PUSH2 0x4D6 PUSH1 0x1 DUP6 ADD PUSH2 0x404 JUMP JUMPDEST SWAP4 ADD PUSH2 0x454 JUMP JUMPDEST DUP4 DUP1 REVERT JUMPDEST SWAP2 PUSH2 0x50E SWAP1 PUSH2 0x500 PUSH2 0x160 SWAP6 SWAP4 PUSH1 0x60 DUP7 ADD SWAP1 DUP7 DUP3 SUB PUSH1 0x0 DUP9 ADD MSTORE PUSH2 0xF4 JUMP JUMPDEST SWAP1 DUP5 DUP3 SUB PUSH1 0x20 DUP7 ADD MSTORE PUSH2 0xF4 JUMP JUMPDEST SWAP2 PUSH1 0x40 DUP2 DUP5 SUB SWAP2 ADD MSTORE PUSH2 0x122 JUMP JUMPDEST POP CALLVALUE PUSH2 0x548 JUMPI JUMPDEST PUSH2 0x255 PUSH2 0x539 PUSH2 0x534 CALLDATASIZE PUSH1 0x4 PUSH2 0x27C JUMP JUMPDEST PUSH2 0x499 JUMP JUMPDEST PUSH1 0x40 MLOAD SWAP2 SWAP4 SWAP2 SWAP4 DUP5 SWAP4 DUP5 PUSH2 0x4E1 JUMP JUMPDEST PUSH2 0x550 PUSH1 0x0 DUP1 REVERT JUMPDEST PUSH2 0x523 JUMP JUMPDEST PUSH1 0x20 DUP1 DUP3 MSTORE PUSH2 0x160 SWAP3 SWAP2 ADD SWAP1 PUSH2 0xF4 JUMP JUMPDEST POP CALLVALUE PUSH2 0x58F JUMPI JUMPDEST PUSH2 0x578 CALLDATASIZE PUSH1 0x4 PUSH2 0xB2 JUMP JUMPDEST PUSH2 0x255 PUSH2 0x583 PUSH2 0x12FE JUMP JUMPDEST PUSH1 0x40 MLOAD SWAP2 DUP3 SWAP2 DUP3 PUSH2 0x555 JUMP JUMPDEST PUSH2 0x597 PUSH1 0x0 DUP1 REVERT JUMPDEST PUSH2 0x56D JUMP JUMPDEST PUSH2 0x11E PUSH1 0x20 SWAP2 PUSH8 0xFFFFFFFFFFFFFFFF DUP2 GT PUSH2 0x5BB JUMPI PUSH1 0x1F ADD PUSH1 0x1F NOT AND SWAP1 JUMP JUMPDEST PUSH2 0xEA PUSH2 0x3BE JUMP JUMPDEST SWAP1 DUP3 PUSH1 0x0 SWAP4 SWAP3 DUP3 CALLDATACOPY ADD MSTORE JUMP JUMPDEST SWAP3 SWAP2 SWAP1 PUSH2 0xC5 SWAP2 PUSH2 0x5E7 PUSH2 0x5E2 DUP4 PUSH2 0x59C JUMP JUMPDEST PUSH2 0x436 JUMP JUMPDEST SWAP5 DUP3 DUP7 MSTORE PUSH1 0x20 DUP7 ADD SWAP2 DUP4 DUP3 ADD GT ISZERO PUSH2 0x5C3 JUMPI PUSH2 0x601 PUSH1 0x0 DUP1 REVERT JUMPDEST PUSH2 0x5C3 JUMP JUMPDEST SWAP1 PUSH2 0x160 SWAP2 DUP2 PUSH1 0x1F DUP3 ADD SLT ISZERO PUSH2 0x622 JUMPI JUMPDEST PUSH1 0x20 DUP2 CALLDATALOAD SWAP2 ADD PUSH2 0x5CF JUMP JUMPDEST PUSH2 0x62A PUSH1 0x0 DUP1 REVERT JUMPDEST PUSH2 0x617 JUMP JUMPDEST SWAP2 SWAP1 PUSH1 0xA0 DUP4 DUP3 SUB SLT PUSH2 0x6EE JUMPI JUMPDEST PUSH2 0x659 DUP2 DUP5 CALLDATALOAD PUSH8 0xFFFFFFFFFFFFFFFF DUP2 GT PUSH2 0x6D4 JUMPI JUMPDEST DUP6 ADD PUSH2 0x606 JUMP JUMPDEST SWAP3 PUSH2 0x67A DUP3 PUSH1 0x20 DUP4 ADD CALLDATALOAD PUSH8 0xFFFFFFFFFFFFFFFF DUP2 GT PUSH2 0x6E1 JUMPI JUMPDEST DUP4 ADD PUSH2 0x606 JUMP JUMPDEST SWAP3 PUSH2 0x160 PUSH2 0x69D DUP5 PUSH1 0x40 DUP6 ADD CALLDATALOAD PUSH8 0xFFFFFFFFFFFFFFFF DUP2 GT PUSH2 0x6D4 JUMPI DUP6 ADD PUSH2 0x606 JUMP JUMPDEST SWAP4 PUSH2 0x6BE DUP2 PUSH1 0x60 DUP7 ADD CALLDATALOAD PUSH8 0xFFFFFFFFFFFFFFFF DUP2 GT PUSH2 0x6C7 JUMPI JUMPDEST DUP7 ADD PUSH2 0x606 JUMP JUMPDEST SWAP4 PUSH1 0x80 ADD PUSH2 0x26F JUMP JUMPDEST PUSH2 0x6CF PUSH1 0x0 DUP1 REVERT JUMPDEST PUSH2 0x6B7 JUMP JUMPDEST PUSH2 0x6DC PUSH1 0x0 DUP1 REVERT JUMPDEST PUSH2 0x652 JUMP JUMPDEST PUSH2 0x6E9 PUSH1 0x0 DUP1 REVERT JUMPDEST PUSH2 0x673 JUMP JUMPDEST PUSH2 0x6F6 PUSH1 0x0 DUP1 REVERT JUMPDEST PUSH2 0x63C JUMP JUMPDEST POP CALLVALUE PUSH2 0x71E JUMPI JUMPDEST PUSH2 0x719 PUSH2 0x710 CALLDATASIZE PUSH1 0x4 PUSH2 0x62F JUMP JUMPDEST SWAP4 SWAP3 SWAP1 SWAP3 PUSH2 0xC60 JUMP JUMPDEST PUSH1 0x40 MLOAD STOP JUMPDEST PUSH2 0x726 PUSH1 0x0 DUP1 REVERT JUMPDEST PUSH2 0x702 JUMP JUMPDEST PUSH1 0x1 PUSH1 0x1 PUSH1 0xA0 SHL SUB AND SWAP1 JUMP JUMPDEST PUSH1 0x1 PUSH1 0x1 PUSH1 0xA0 SHL SUB DUP2 AND PUSH2 0x268 JUMP JUMPDEST SWAP1 POP CALLDATALOAD SWAP1 PUSH2 0xC5 DUP3 PUSH2 0x737 JUMP JUMPDEST SWAP1 PUSH2 0x160 SWAP2 PUSH1 0x20 DUP2 DUP4 SUB SLT ISZERO PUSH2 0x746 JUMPI PUSH2 0x76B PUSH1 0x0 DUP1 REVERT JUMPDEST PUSH2 0x746 JUMP JUMPDEST PUSH2 0x160 SWAP1 PUSH2 0x72B SWAP1 PUSH1 0x1 PUSH1 0x1 PUSH1 0xA0 SHL SUB AND DUP3 JUMP JUMPDEST PUSH2 0x160 SWAP1 PUSH2 0x770 JUMP JUMPDEST PUSH2 0x160 SWAP1 PUSH2 0x784 JUMP JUMPDEST SWAP1 PUSH2 0x7A0 SWAP1 PUSH2 0x78D JUMP JUMPDEST PUSH1 0x0 MSTORE PUSH1 0x20 MSTORE PUSH1 0x40 PUSH1 0x0 KECCAK256 SWAP1 JUMP JUMPDEST PUSH2 0x7B9 SWAP1 PUSH1 0x0 PUSH2 0x796 JUMP JUMPDEST PUSH2 0x4C4 DUP2 PUSH2 0x404 JUMP JUMPDEST POP CALLVALUE PUSH2 0x7DF JUMPI JUMPDEST PUSH2 0x255 PUSH2 0x539 PUSH2 0x7DA CALLDATASIZE PUSH1 0x4 PUSH2 0x753 JUMP JUMPDEST PUSH2 0x7AE JUMP JUMPDEST PUSH2 0x7E7 PUSH1 0x0 DUP1 REVERT JUMPDEST PUSH2 0x7C9 JUMP JUMPDEST POP CALLVALUE PUSH2 0x806 JUMPI JUMPDEST PUSH2 0x719 PUSH2 0x801 CALLDATASIZE PUSH1 0x4 PUSH2 0x27C JUMP JUMPDEST PUSH2 0x118B JUMP JUMPDEST PUSH2 0x80E PUSH1 0x0 DUP1 REVERT JUMPDEST PUSH2 0x7F3 JUMP JUMPDEST POP CALLVALUE PUSH2 0x831 JUMPI JUMPDEST PUSH2 0x719 PUSH2 0x828 CALLDATASIZE PUSH1 0x4 PUSH2 0x62F JUMP JUMPDEST SWAP4 SWAP3 SWAP1 SWAP3 PUSH2 0xE5B JUMP JUMPDEST PUSH2 0x839 PUSH1 0x0 DUP1 REVERT JUMPDEST PUSH2 0x81A JUMP JUMPDEST PUSH2 0x160 PUSH2 0x160 PUSH2 0x160 SWAP3 SWAP1 JUMP JUMPDEST ISZERO PUSH2 0x852 JUMPI JUMP JUMPDEST PUSH1 0x40 MLOAD PUSH3 0x461BCD PUSH1 0xE5 SHL DUP2 MSTORE PUSH1 0x20 PUSH1 0x4 DUP3 ADD MSTORE PUSH1 0x1A PUSH1 0x24 DUP3 ADD MSTORE PUSH32 0x4669727374206E616D652063616E6E6F7420626520656D707479000000000000 PUSH1 0x44 DUP3 ADD MSTORE PUSH1 0x64 SWAP1 REVERT JUMPDEST ISZERO PUSH2 0x89E JUMPI JUMP JUMPDEST PUSH1 0x40 MLOAD PUSH3 0x461BCD PUSH1 0xE5 SHL DUP2 MSTORE PUSH1 0x20 PUSH1 0x4 DUP3 ADD MSTORE PUSH1 0x19 PUSH1 0x24 DUP3 ADD MSTORE PUSH32 0x4C617374206E616D652063616E6E6F7420626520656D70747900000000000000 PUSH1 0x44 DUP3 ADD MSTORE PUSH1 0x64 SWAP1 REVERT JUMPDEST ISZERO PUSH2 0x8EA JUMPI JUMP JUMPDEST PUSH1 0x40 MLOAD PUSH3 0x461BCD PUSH1 0xE5 SHL DUP2 MSTORE PUSH1 0x20 PUSH1 0x4 DUP3 ADD MSTORE PUSH1 0x16 PUSH1 0x24 DUP3 ADD MSTORE PUSH22 0x4465677265652063616E6E6F7420626520656D707479 PUSH1 0x50 SHL PUSH1 0x44 DUP3 ADD MSTORE PUSH1 0x64 SWAP1 REVERT JUMPDEST ISZERO PUSH2 0x92F JUMPI JUMP JUMPDEST PUSH1 0x40 MLOAD PUSH3 0x461BCD PUSH1 0xE5 SHL DUP2 MSTORE PUSH1 0x20 PUSH1 0x4 DUP3 ADD MSTORE PUSH1 0x15 PUSH1 0x24 DUP3 ADD MSTORE PUSH21 0x4D616A6F722063616E6E6F7420626520656D707479 PUSH1 0x58 SHL PUSH1 0x44 DUP3 ADD MSTORE PUSH1 0x64 SWAP1 REVERT JUMPDEST POP PUSH4 0x4E487B71 PUSH1 0xE0 SHL PUSH1 0x0 MSTORE PUSH1 0x0 PUSH1 0x4 MSTORE PUSH1 0x24 PUSH1 0x0 REVERT JUMPDEST SWAP2 PUSH1 0x0 NOT PUSH1 0x8 SWAP3 SWAP1 SWAP3 MUL SWAP2 DUP3 SHL SWAP2 SHL JUMPDEST SWAP2 DUP2 NOT AND SWAP2 AND OR SWAP1 JUMP JUMPDEST SWAP2 SWAP1 PUSH2 0x9AE PUSH2 0x160 PUSH2 0x9B6 SWAP4 PUSH2 0x83E JUMP JUMPDEST SWAP1 DUP4 SLOAD PUSH2 0x983 JUMP JUMPDEST SWAP1 SSTORE JUMP JUMPDEST PUSH2 0xC5 SWAP2 PUSH1 0x0 SWAP2 PUSH2 0x99D JUMP JUMPDEST DUP2 DUP2 LT PUSH2 0x9D1 JUMPI POP POP JUMP JUMPDEST DUP1 PUSH2 0x9DF PUSH1 0x0 PUSH1 0x1 SWAP4 PUSH2 0x9BA JUMP JUMPDEST ADD PUSH2 0x9C6 JUMP JUMPDEST SWAP2 SWAP1 PUSH1 0x1F DUP2 GT PUSH2 0x9F4 JUMPI POP POP POP JUMP JUMPDEST PUSH2 0xA06 PUSH2 0xC5 SWAP4 PUSH1 0x0 MSTORE PUSH1 0x20 PUSH1 0x0 KECCAK256 SWAP1 JUMP JUMPDEST SWAP1 PUSH1 0x20 PUSH1 0x1F DUP5 ADD DUP2 SWAP1 DIV DUP4 ADD SWAP4 LT PUSH2 0xA29 JUMPI JUMPDEST PUSH1 0x20 PUSH1 0x1F SWAP1 SWAP2 ADD DIV JUMPDEST ADD SWAP1 PUSH2 0x9C6 JUMP JUMPDEST SWAP1 SWAP2 POP DUP2 SWAP1 PUSH2 0xA19 JUMP JUMPDEST PUSH1 0x0 NOT PUSH1 0x8 DUP4 MUL SHR NOT AND SWAP1 PUSH1 0x2 MUL OR SWAP1 JUMP JUMPDEST SWAP1 PUSH2 0xA4E DUP2 MLOAD SWAP1 JUMP JUMPDEST SWAP1 PUSH8 0xFFFFFFFFFFFFFFFF DUP3 GT PUSH2 0xB0C JUMPI JUMPDEST PUSH2 0xA73 DUP3 PUSH2 0xA6D DUP6 SLOAD PUSH2 0x303 JUMP JUMPDEST DUP6 PUSH2 0x9E5 JUMP JUMPDEST PUSH1 0x20 SWAP1 PUSH1 0x1F DUP4 GT PUSH1 0x1 EQ PUSH2 0xAA1 JUMPI PUSH2 0x9B6 SWAP3 SWAP2 PUSH1 0x0 SWAP2 DUP4 PUSH2 0xA96 JUMPI JUMPDEST POP POP PUSH2 0xA33 JUMP JUMPDEST ADD MLOAD SWAP1 POP CODESIZE DUP1 PUSH2 0xA8F JUMP JUMPDEST PUSH1 0x1F NOT DUP4 AND SWAP2 PUSH2 0xAB6 DUP6 PUSH1 0x0 MSTORE PUSH1 0x20 PUSH1 0x0 KECCAK256 SWAP1 JUMP JUMPDEST SWAP3 PUSH1 0x0 JUMPDEST DUP2 DUP2 LT PUSH2 0xAF4 JUMPI POP SWAP2 PUSH1 0x2 SWAP4 SWAP2 DUP6 PUSH1 0x1 SWAP7 SWAP5 LT PUSH2 0xADB JUMPI JUMPDEST POP POP POP MUL ADD SWAP1 SSTORE JUMP JUMPDEST ADD MLOAD PUSH1 0x0 NOT PUSH1 0x8 PUSH1 0x1F DUP6 AND MUL SHR NOT AND SWAP1 SSTORE CODESIZE DUP1 DUP1 PUSH2 0xAD2 JUMP JUMPDEST SWAP2 SWAP4 PUSH1 0x20 PUSH1 0x1 DUP2 SWAP3 DUP8 DUP8 ADD MLOAD DUP2 SSTORE ADD SWAP6 ADD SWAP3 ADD PUSH2 0xABA JUMP JUMPDEST PUSH2 0xB14 PUSH2 0x3BE JUMP JUMPDEST PUSH2 0xA5F JUMP JUMPDEST SWAP1 PUSH2 0xC5 SWAP2 PUSH2 0xA45 JUMP JUMPDEST MLOAD SWAP1 JUMP JUMPDEST SWAP1 PUSH1 0x0 NOT SWAP1 PUSH2 0x993 JUMP JUMPDEST SWAP1 PUSH2 0xB41 PUSH2 0x160 PUSH2 0x9B6 SWAP3 PUSH2 0x83E JUMP JUMPDEST DUP3 SLOAD PUSH2 0xB27 JUMP JUMPDEST SWAP1 PUSH2 0xB85 PUSH1 0x40 PUSH1 0x2 PUSH2 0xC5 SWAP5 PUSH2 0xB6C PUSH1 0x0 DUP3 ADD PUSH2 0xB66 PUSH1 0x0 DUP9 ADD MLOAD SWAP1 JUMP JUMPDEST SWAP1 PUSH2 0xB19 JUMP JUMPDEST PUSH2 0xB7E PUSH1 0x1 DUP3 ADD PUSH2 0xB66 PUSH1 0x20 DUP9 ADD MLOAD SWAP1 JUMP JUMPDEST ADD SWAP3 ADD MLOAD SWAP1 JUMP JUMPDEST SWAP1 PUSH2 0xB31 JUMP JUMPDEST SWAP1 PUSH2 0xC5 SWAP2 PUSH2 0xB48 JUMP JUMPDEST SWAP1 PUSH2 0xBB3 PUSH1 0x40 PUSH1 0x2 PUSH2 0xC5 SWAP5 PUSH2 0xB6C PUSH1 0x0 DUP3 ADD PUSH2 0xB66 PUSH1 0x0 DUP9 ADD MLOAD SWAP1 JUMP JUMPDEST SWAP1 PUSH2 0xB8B JUMP JUMPDEST PUSH2 0xC5 SWAP3 SWAP2 ISZERO PUSH2 0xB95 JUMPI PUSH2 0xBCB PUSH2 0x96C JUMP JUMPDEST PUSH2 0xB95 JUMP JUMPDEST SWAP1 PUSH2 0xBF3 PUSH2 0xC5 SWAP3 DUP1 SLOAD SWAP1 PUSH1 0x1 PUSH1 0x40 SHL DUP3 LT ISZERO PUSH2 0xBF9 JUMPI JUMPDEST PUSH1 0x1 DUP3 ADD DUP2 SSTORE PUSH2 0x2B0 JUMP JUMPDEST SWAP1 PUSH2 0xBB9 JUMP JUMPDEST PUSH2 0xC01 PUSH2 0x3BE JUMP JUMPDEST PUSH2 0xBE8 JUMP JUMPDEST SWAP6 SWAP5 SWAP3 SWAP4 PUSH2 0xC4D PUSH2 0xC5 SWAP6 PUSH2 0xC3F PUSH1 0x80 SWAP6 PUSH2 0xC31 PUSH2 0xC5B SWAP7 PUSH1 0xA0 DUP14 ADD SWAP1 DUP14 PUSH1 0x0 DUP2 DUP5 SUB SWAP2 ADD MSTORE PUSH2 0xF4 JUMP JUMPDEST SWAP1 DUP12 DUP3 SUB PUSH1 0x20 DUP14 ADD MSTORE PUSH2 0xF4 JUMP JUMPDEST SWAP1 DUP10 DUP3 SUB PUSH1 0x40 DUP12 ADD MSTORE PUSH2 0xF4 JUMP JUMPDEST SWAP1 DUP8 DUP3 SUB PUSH1 0x60 DUP10 ADD MSTORE PUSH2 0xF4 JUMP JUMPDEST SWAP5 ADD MSTORE JUMP JUMPDEST SWAP1 SWAP2 SWAP4 PUSH2 0xD7B SWAP1 PUSH2 0xD3D PUSH2 0xC74 PUSH2 0xB23 DUP6 SWAP1 JUMP JUMPDEST PUSH2 0xC90 PUSH1 0x0 SWAP2 PUSH2 0xC8A PUSH2 0xC86 DUP5 PUSH2 0x83E JUMP JUMPDEST SWAP2 SWAP1 JUMP JUMPDEST GT PUSH2 0x84B JUMP JUMPDEST PUSH2 0xCAD PUSH2 0xC9B DUP8 MLOAD SWAP1 JUMP JUMPDEST PUSH2 0xCA7 PUSH2 0xC86 DUP5 PUSH2 0x83E JUMP JUMPDEST GT PUSH2 0x897 JUMP JUMPDEST PUSH2 0xCCA PUSH2 0xCB8 DUP10 MLOAD SWAP1 JUMP JUMPDEST PUSH2 0xCC4 PUSH2 0xC86 DUP5 PUSH2 0x83E JUMP JUMPDEST GT PUSH2 0x8E3 JUMP JUMPDEST PUSH2 0xCE7 PUSH2 0xCD5 DUP9 MLOAD SWAP1 JUMP JUMPDEST PUSH2 0xCE1 PUSH2 0xC86 DUP5 PUSH2 0x83E JUMP JUMPDEST GT PUSH2 0x928 JUMP JUMPDEST PUSH2 0xD36 PUSH2 0xCF2 PUSH2 0x44A JUMP JUMPDEST PUSH2 0xCFC DUP11 DUP5 DUP4 ADD MSTORE JUMP JUMPDEST PUSH2 0xD07 DUP10 PUSH1 0x20 DUP4 ADD MSTORE JUMP JUMPDEST PUSH2 0xD12 DUP6 PUSH1 0x40 DUP4 ADD MSTORE JUMP JUMPDEST PUSH2 0xD24 DUP8 PUSH2 0xD1E PUSH2 0x44A JUMP JUMPDEST SWAP5 DUP6 ADD MSTORE JUMP JUMPDEST PUSH2 0xD2F DUP9 PUSH1 0x20 DUP6 ADD MSTORE JUMP JUMPDEST PUSH1 0x40 DUP4 ADD MSTORE JUMP JUMPDEST PUSH1 0x1 PUSH2 0xBD0 JUMP JUMPDEST PUSH32 0x7B2915EE83B60C835E492363A7976B66AE49D42F51B0824C27B0ECD4A89C18D4 SWAP5 PUSH2 0xD68 CALLER PUSH2 0x78D JUMP JUMPDEST SWAP7 PUSH2 0xD72 PUSH1 0x40 MLOAD SWAP1 JUMP JUMPDEST SWAP6 DUP7 SWAP6 DUP7 PUSH2 0xC06 JUMP JUMPDEST SUB SWAP1 LOG2 JUMP JUMPDEST PUSH1 0x20 DUP1 SWAP2 PUSH8 0xFFFFFFFFFFFFFFFF DUP2 GT PUSH2 0xD98 JUMPI MUL ADD SWAP1 JUMP JUMPDEST PUSH2 0xDA0 PUSH2 0x3BE JUMP JUMPDEST MUL ADD SWAP1 JUMP JUMPDEST SWAP1 PUSH2 0xDB2 PUSH2 0x5E2 DUP4 PUSH2 0xD80 JUMP JUMPDEST SWAP2 DUP3 MSTORE JUMP JUMPDEST SWAP1 PUSH2 0xC5 PUSH2 0x492 PUSH1 0x2 PUSH2 0xDC8 PUSH2 0x44A JUMP JUMPDEST SWAP5 PUSH2 0xDD5 PUSH2 0x472 DUP3 PUSH2 0x404 JUMP JUMPDEST PUSH2 0xDE4 PUSH2 0x485 PUSH1 0x1 DUP4 ADD PUSH2 0x404 JUMP JUMPDEST ADD PUSH2 0x454 JUMP JUMPDEST PUSH2 0x160 SWAP1 PUSH2 0xDB7 JUMP JUMPDEST SWAP1 PUSH2 0xDFC DUP3 SLOAD SWAP1 JUMP JUMPDEST PUSH2 0xE05 DUP2 PUSH2 0xDA5 JUMP JUMPDEST SWAP3 PUSH2 0xE19 PUSH1 0x20 DUP6 ADD SWAP2 PUSH1 0x0 MSTORE PUSH1 0x20 PUSH1 0x0 KECCAK256 SWAP1 JUMP JUMPDEST PUSH1 0x0 SWAP2 JUMPDEST DUP4 DUP4 LT PUSH2 0xE2A JUMPI POP POP POP POP JUMP JUMPDEST PUSH1 0x5 PUSH1 0x20 PUSH1 0x1 SWAP3 PUSH2 0xE3A DUP6 PUSH2 0xDEA JUMP JUMPDEST DUP2 MSTORE ADD SWAP3 ADD SWAP3 ADD SWAP2 SWAP1 PUSH2 0xE1D JUMP JUMPDEST PUSH2 0x160 SWAP1 PUSH2 0xDF3 JUMP JUMPDEST PUSH2 0x160 PUSH1 0x1 PUSH2 0xE48 JUMP JUMPDEST SWAP1 SWAP2 SWAP4 PUSH2 0xD7B SWAP1 PUSH2 0xE6C PUSH2 0xB23 DUP5 SWAP1 JUMP JUMPDEST SWAP5 PUSH2 0xE7F PUSH1 0x0 SWAP7 PUSH2 0xC8A PUSH2 0xC86 DUP10 PUSH2 0x83E JUMP JUMPDEST PUSH2 0xE96 PUSH2 0xE8A DUP7 MLOAD SWAP1 JUMP JUMPDEST PUSH2 0xCA7 PUSH2 0xC86 DUP10 PUSH2 0x83E JUMP JUMPDEST PUSH2 0xEAD PUSH2 0xEA1 DUP9 MLOAD SWAP1 JUMP JUMPDEST PUSH2 0xCC4 PUSH2 0xC86 DUP10 PUSH2 0x83E JUMP JUMPDEST PUSH2 0xEC4 PUSH2 0xEB8 DUP3 MLOAD SWAP1 JUMP JUMPDEST PUSH2 0xCE1 PUSH2 0xC86 DUP10 PUSH2 0x83E JUMP JUMPDEST PUSH2 0xF1F PUSH2 0xECF PUSH2 0x44A JUMP JUMPDEST PUSH2 0xED9 DUP10 DUP10 DUP4 ADD MSTORE JUMP JUMPDEST PUSH2 0xEE4 DUP4 PUSH1 0x20 DUP4 ADD MSTORE JUMP JUMPDEST PUSH2 0xEEF DUP5 PUSH1 0x40 DUP4 ADD MSTORE JUMP JUMPDEST PUSH1 0x2 CALLER SWAP9 PUSH2 0xF0C DUP9 PUSH2 0xF04 PUSH2 0x160 DUP14 DUP6 PUSH2 0x796 JUMP JUMPDEST SWAP3 DUP4 ADD PUSH2 0xB19 JUMP JUMPDEST PUSH2 0xF19 DUP10 PUSH1 0x1 DUP4 ADD PUSH2 0xB19 JUMP JUMPDEST ADD PUSH2 0xB8B JUMP JUMPDEST PUSH2 0xD68 PUSH32 0x23BC9910B06B4440A923ECC439F6E57A3BC500BEBF0B8C6C90E9A73633344EA7 SWAP7 PUSH2 0x78D JUMP JUMPDEST SWAP1 PUSH2 0xF5C SWAP1 PUSH1 0x0 NOT SWAP1 PUSH1 0x20 SUB PUSH1 0x8 MUL SHR SWAP1 JUMP JUMPDEST DUP2 SLOAD AND SWAP1 SSTORE JUMP JUMPDEST SWAP1 PUSH1 0x0 SWAP2 PUSH2 0xF81 PUSH2 0xF79 DUP3 PUSH1 0x0 MSTORE PUSH1 0x20 PUSH1 0x0 KECCAK256 SWAP1 JUMP JUMPDEST SWAP3 DUP4 SLOAD PUSH2 0xA33 JUMP JUMPDEST SWAP1 SSTORE SSTORE JUMP JUMPDEST SWAP2 SWAP3 SWAP1 PUSH1 0x20 DUP3 LT ISZERO PUSH2 0xFDE JUMPI PUSH1 0x1F DUP5 GT PUSH1 0x1 EQ PUSH2 0xFA8 JUMPI PUSH2 0x9B6 SWAP3 SWAP4 POP PUSH2 0xA33 JUMP JUMPDEST POP SWAP1 PUSH2 0xFD9 PUSH2 0xC5 SWAP4 PUSH1 0x1 PUSH2 0xFD0 PUSH2 0xFC5 DUP6 PUSH1 0x0 MSTORE PUSH1 0x20 PUSH1 0x0 KECCAK256 SWAP1 JUMP JUMPDEST SWAP3 PUSH1 0x1F PUSH1 0x20 SWAP2 ADD DIV SWAP1 JUMP JUMPDEST DUP3 ADD SWAP2 ADD PUSH2 0x9C6 JUMP JUMPDEST PUSH2 0xF63 JUMP JUMPDEST POP PUSH2 0x1017 DUP3 SWAP4 PUSH2 0xFF5 PUSH1 0x1 SWAP5 PUSH1 0x0 MSTORE PUSH1 0x20 PUSH1 0x0 KECCAK256 SWAP1 JUMP JUMPDEST PUSH2 0xA22 PUSH1 0x20 PUSH1 0x1F DUP7 ADD DIV DUP3 ADD SWAP3 PUSH1 0x1F DUP7 AND DUP1 PUSH2 0x101F JUMPI JUMPDEST POP PUSH1 0x1F PUSH1 0x20 SWAP2 ADD DIV SWAP1 JUMP JUMPDEST PUSH1 0x2 MUL OR SWAP1 SSTORE JUMP JUMPDEST PUSH2 0x102B SWAP1 DUP9 DUP7 SUB PUSH2 0xF49 JUMP JUMPDEST CODESIZE PUSH2 0x100C JUMP JUMPDEST SWAP3 SWAP1 SWAP2 PUSH1 0x20 SWAP1 PUSH1 0x1 PUSH1 0x40 SHL DUP4 GT PUSH2 0x1086 JUMPI JUMPDEST LT ISZERO PUSH2 0x107A JUMPI PUSH1 0x20 DUP2 LT ISZERO PUSH2 0x105B JUMPI PUSH2 0x9B6 SWAP2 PUSH2 0xA33 JUMP JUMPDEST PUSH1 0x1 SWAP2 PUSH1 0xFF NOT AND PUSH2 0x1071 DUP5 PUSH1 0x0 MSTORE PUSH1 0x20 PUSH1 0x0 KECCAK256 SWAP1 JUMP JUMPDEST SSTORE PUSH1 0x2 MUL ADD SWAP1 SSTORE JUMP JUMPDEST PUSH1 0x1 SWAP2 POP PUSH1 0x2 MUL ADD SWAP1 SSTORE JUMP JUMPDEST PUSH2 0x108E PUSH2 0x3BE JUMP JUMPDEST PUSH2 0x1043 JUMP JUMPDEST SWAP1 DUP2 SLOAD PUSH2 0x109F DUP2 PUSH2 0x303 JUMP JUMPDEST SWAP1 DUP2 DUP4 GT PUSH2 0x10C8 JUMPI JUMPDEST DUP2 DUP4 LT PUSH2 0x10B6 JUMPI JUMPDEST POP POP POP POP JUMP JUMPDEST PUSH2 0x10BF SWAP4 PUSH2 0xF86 JUMP JUMPDEST CODESIZE DUP1 DUP1 DUP1 PUSH2 0x10B0 JUMP JUMPDEST PUSH2 0x10D4 DUP4 DUP4 DUP4 DUP8 PUSH2 0x1031 JUMP JUMPDEST PUSH2 0x10A8 JUMP JUMPDEST POP PUSH4 0x4E487B71 PUSH1 0xE0 SHL PUSH1 0x0 MSTORE PUSH1 0x11 PUSH1 0x4 MSTORE PUSH1 0x24 PUSH1 0x0 REVERT JUMPDEST PUSH1 0x0 PUSH2 0xC5 SWAP2 PUSH2 0x1093 JUMP JUMPDEST PUSH2 0xC5 SWAP2 ISZERO PUSH2 0x10F0 JUMPI PUSH2 0x110C PUSH2 0x96C JUMP JUMPDEST PUSH2 0x10F0 JUMP JUMPDEST PUSH1 0x0 PUSH1 0x2 PUSH2 0xC5 SWAP3 PUSH2 0x1125 DUP4 DUP1 DUP4 ADD PUSH2 0x10FB JUMP JUMPDEST PUSH2 0x1132 DUP4 PUSH1 0x1 DUP4 ADD PUSH2 0x10FB JUMP JUMPDEST ADD PUSH2 0x9BA JUMP JUMPDEST PUSH2 0xC5 SWAP2 ISZERO PUSH2 0x1111 JUMPI PUSH2 0x1149 PUSH2 0x96C JUMP JUMPDEST PUSH2 0x1111 JUMP JUMPDEST PUSH1 0x0 PUSH1 0x2 PUSH2 0xC5 SWAP3 PUSH2 0x1162 DUP4 DUP1 DUP4 ADD PUSH2 0x10FB JUMP JUMPDEST PUSH2 0x116F DUP4 PUSH1 0x1 DUP4 ADD PUSH2 0x10FB JUMP JUMPDEST ADD PUSH2 0x1138 JUMP JUMPDEST PUSH2 0xC5 SWAP2 ISZERO PUSH2 0x114E JUMPI PUSH2 0x1186 PUSH2 0x96C JUMP JUMPDEST PUSH2 0x114E JUMP JUMPDEST PUSH2 0x1199 PUSH2 0xC5 SWAP2 PUSH1 0x1 PUSH2 0x2B0 JUMP JUMPDEST SWAP1 PUSH2 0x1175 JUMP JUMPDEST PUSH2 0x11E PUSH2 0x11B7 SWAP3 PUSH1 0x20 SWAP3 PUSH2 0x11B1 DUP2 MLOAD SWAP1 JUMP JUMPDEST SWAP5 DUP6 SWAP3 SWAP1 JUMP JUMPDEST SWAP4 DUP5 SWAP2 ADD PUSH2 0xC7 JUMP JUMPDEST PUSH1 0x20 SWAP6 PUSH2 0x1248 PUSH2 0x12BA PUSH2 0x160 SWAP10 SWAP8 PUSH2 0x1248 PUSH2 0x12AA PUSH2 0x12EF SWAP10 PUSH2 0x1248 PUSH2 0x125B PUSH2 0xDB2 SWAP12 PUSH2 0x1248 PUSH2 0x124E PUSH2 0x12D9 SWAP14 PUSH2 0x1248 PUSH2 0x121F PUSH2 0x12CA SWAP16 PUSH32 0x4365727469666963617465206F662047726164756174696F6E0A0A0000000000 DUP2 MSTORE PUSH1 0x1B ADD SWAP1 JUMP JUMPDEST PUSH32 0x5468697320697320746F20636572746966792074686174200000000000000000 DUP2 MSTORE PUSH1 0x18 ADD SWAP1 JUMP JUMPDEST SWAP1 PUSH2 0x119F JUMP JUMPDEST PUSH1 0x1 PUSH1 0xFD SHL DUP2 MSTORE PUSH1 0x1 ADD SWAP1 JUMP JUMPDEST PUSH32 0x20686173207375636365737366756C6C7920636F6D706C657465642074686520 DUP2 MSTORE PUSH32 0x726571756972656D656E747320666F722074686520646567726565206F662000 PUSH1 0x20 DUP3 ADD MSTORE PUSH1 0x3F ADD SWAP1 JUMP JUMPDEST PUSH4 0x1034B71 PUSH1 0xE5 SHL DUP2 MSTORE PUSH1 0x4 ADD SWAP1 JUMP JUMPDEST PUSH4 0x1037B71 PUSH1 0xE5 SHL DUP2 MSTORE PUSH1 0x4 ADD SWAP1 JUMP JUMPDEST PUSH3 0x170505 PUSH1 0xE9 SHL DUP2 MSTORE PUSH1 0x3 ADD SWAP1 JUMP JUMPDEST PUSH10 0x24B9B9BAB2B21037B71 PUSH1 0xB5 SHL DUP2 MSTORE PUSH1 0xA ADD SWAP1 JUMP JUMPDEST ADD PUSH2 0x1705 PUSH1 0xF1 SHL DUP2 MSTORE PUSH1 0x2 ADD SWAP1 JUMP JUMPDEST PUSH2 0x160 PUSH2 0x160 PUSH1 0x0 PUSH2 0x160 PUSH2 0x131B PUSH2 0x1316 CALLER DUP5 PUSH2 0x796 JUMP JUMPDEST PUSH2 0xDEA JUMP JUMPDEST DUP3 DUP2 ADD MLOAD PUSH2 0x1364 PUSH1 0x40 PUSH1 0x20 DUP5 ADD MLOAD SWAP4 ADD SWAP5 DUP6 MLOAD ADD MLOAD SWAP5 PUSH2 0x134B PUSH2 0x1346 PUSH1 0x40 PUSH1 0x20 DUP5 MLOAD ADD MLOAD SWAP4 MLOAD ADD MLOAD SWAP1 JUMP JUMPDEST PUSH2 0x14AC JUMP JUMPDEST TIMESTAMP SWAP2 PUSH2 0x1356 PUSH1 0x40 MLOAD SWAP1 JUMP JUMPDEST SWAP8 DUP9 SWAP7 PUSH1 0x20 DUP9 ADD SWAP7 DUP8 PUSH2 0x11C0 JUMP JUMPDEST SWAP1 DUP2 SUB DUP3 MSTORE SUB DUP3 PUSH2 0x3D5 JUMP JUMPDEST SWAP1 PUSH2 0xDB2 PUSH2 0x5E2 DUP4 PUSH2 0x59C JUMP JUMPDEST PUSH2 0x1387 PUSH1 0x1 PUSH2 0x1370 JUMP JUMPDEST PUSH1 0x3 PUSH1 0xFC SHL PUSH1 0x20 DUP3 ADD MSTORE SWAP1 JUMP JUMPDEST PUSH2 0x160 PUSH2 0x137D JUMP JUMPDEST PUSH1 0x1 SWAP1 PUSH1 0x0 NOT DUP2 EQ PUSH2 0x13AC JUMPI ADD SWAP1 JUMP JUMPDEST PUSH2 0x11E PUSH2 0x10D9 JUMP JUMPDEST POP PUSH4 0x4E487B71 PUSH1 0xE0 SHL PUSH1 0x0 MSTORE PUSH1 0x12 PUSH1 0x4 MSTORE PUSH1 0x24 PUSH1 0x0 REVERT JUMPDEST DUP2 ISZERO PUSH2 0x13D5 JUMPI DIV SWAP1 JUMP JUMPDEST PUSH2 0x13DD PUSH2 0x13B4 JUMP JUMPDEST DIV SWAP1 JUMP JUMPDEST CALLDATASIZE SWAP1 CALLDATACOPY JUMP JUMPDEST SWAP1 PUSH2 0xC5 PUSH2 0x13FC PUSH2 0x13F6 DUP5 PUSH2 0x1370 JUMP JUMPDEST SWAP4 PUSH2 0x59C JUMP JUMPDEST PUSH1 0x1F NOT ADD PUSH1 0x20 DUP5 ADD PUSH2 0x13E1 JUMP JUMPDEST DUP2 ISZERO PUSH2 0x1413 JUMPI MOD SWAP1 JUMP JUMPDEST PUSH2 0x141B PUSH2 0x13B4 JUMP JUMPDEST MOD SWAP1 JUMP JUMPDEST SWAP2 SWAP1 DUP3 ADD DUP1 SWAP3 GT PUSH2 0x142C JUMPI JUMP JUMPDEST PUSH2 0xC5 PUSH2 0x10D9 JUMP JUMPDEST PUSH2 0x1441 PUSH2 0x160 PUSH2 0x160 SWAP3 SWAP1 JUMP JUMPDEST PUSH1 0xFF AND SWAP1 JUMP JUMPDEST PUSH2 0x145D PUSH2 0x1457 PUSH2 0x160 SWAP3 PUSH1 0xFF AND SWAP1 JUMP JUMPDEST PUSH1 0xF8 SHL SWAP1 JUMP JUMPDEST PUSH1 0x1 PUSH1 0x1 PUSH1 0xF8 SHL SUB NOT AND SWAP1 JUMP JUMPDEST PUSH1 0x1 SWAP1 DUP1 ISZERO PUSH2 0x1477 JUMPI SUB SWAP1 JUMP JUMPDEST PUSH2 0x147F PUSH2 0x10D9 JUMP JUMPDEST SUB SWAP1 JUMP JUMPDEST SWAP1 PUSH1 0x1 PUSH1 0x20 SWAP2 PUSH2 0x1491 DUP5 MLOAD SWAP1 JUMP JUMPDEST DUP2 LT ISZERO PUSH2 0x149F JUMPI JUMPDEST MUL ADD ADD SWAP1 JUMP JUMPDEST PUSH2 0x14A7 PUSH2 0x299 JUMP JUMPDEST PUSH2 0x1499 JUMP JUMPDEST SWAP1 PUSH1 0x0 PUSH2 0x14B8 DUP2 PUSH2 0x83E JUMP JUMPDEST DUP4 EQ PUSH2 0x157E JUMPI SWAP1 DUP3 SWAP1 PUSH1 0x0 JUMPDEST PUSH2 0x14CD DUP5 PUSH2 0x83E JUMP JUMPDEST DUP4 EQ PUSH2 0x14F6 JUMPI PUSH2 0x14DF PUSH2 0x14F0 SWAP2 PUSH2 0x139C JUMP JUMPDEST SWAP3 PUSH2 0x14EA PUSH1 0xA PUSH2 0x83E JUMP JUMPDEST SWAP1 PUSH2 0x13CB JUMP JUMPDEST SWAP2 PUSH2 0x14C4 JUMP JUMPDEST SWAP2 POP SWAP2 PUSH2 0x1502 DUP3 PUSH2 0x13E6 JUMP JUMPDEST SWAP2 SWAP4 JUMPDEST PUSH2 0x150E DUP3 PUSH2 0x83E JUMP JUMPDEST DUP2 EQ PUSH2 0x1573 JUMPI PUSH2 0x156E SWAP1 PUSH2 0x14EA PUSH1 0xA PUSH2 0x155B PUSH2 0x1555 PUSH2 0x1550 PUSH2 0x154B PUSH1 0x30 PUSH2 0x1546 PUSH2 0x1540 PUSH2 0x153A DUP9 PUSH2 0x83E JUMP JUMPDEST DUP11 PUSH2 0x1409 JUMP JUMPDEST SWAP2 PUSH2 0x83E JUMP JUMPDEST PUSH2 0x141F JUMP JUMPDEST PUSH2 0x1434 JUMP JUMPDEST PUSH2 0x1447 JUMP JUMPDEST SWAP9 PUSH2 0x146A JUMP JUMPDEST SWAP8 DUP6 BYTE PUSH2 0x1568 DUP10 DUP9 PUSH2 0x1483 JUMP JUMPDEST MSTORE8 PUSH2 0x83E JUMP JUMPDEST PUSH2 0x1505 JUMP JUMPDEST POP POP PUSH2 0x160 SWAP2 SWAP3 POP SWAP1 JUMP JUMPDEST POP SWAP1 POP PUSH2 0x160 PUSH2 0x1394 JUMP INVALID LOG2 PUSH5 0x6970667358 0x22 SLT KECCAK256 0x4D 0x2F 0xBA SHR 0x2D 0xDF 0xE5 EXP CREATE2 0xE8 0xA6 EXTCODESIZE GAS 0x5E 0x2F PUSH5 0x69559F7A74 TIMESTAMP GASLIMIT 0xF7 PUSH10 0x5FC6B6AF4FAA6664736F PUSH13 0x63430008110033000000000000 "},"methodIdentifiers":{"Students(uint256)":"57c8d71d","createStudent(string,string,string,string,uint256)":"92b2424d","deleteStudent(uint256)":"b645307d","getAallStudents()":"0352e27c","issueCertificate()":"81816933","students(address)":"a6c807a9","updateStudent(string,string,string,string,uint256)":"f2750eaf"}}}}}