{"contracts/token.sol":{"CERT":{"abi":[{"inputs":[{"internalType":"string","name":"name","type":"string"},{"internalType":"string","name":"symbol","type":"string"}],"stateMutability":"nonpayable","type":"constructor"},{"anonymous":false,"inputs":[{"indexed":true,"internalType":"address","name":"owner","type":"address"},{"indexed":true,"internalType":"address","name":"approved","type":"address"},{"indexed":true,"internalType":"uint256","name":"tokenId","type":"uint256"}],"name":"Approval","type":"event"},{"anonymous":false,"inputs":[{"indexed":true,"internalType":"address","name":"owner","type":"address"},{"indexed":true,"internalType":"address","name":"operator","type":"address"},{"indexed":false,"internalType":"bool","name":"approved","type":"bool"}],"name":"ApprovalForAll","type":"event"},{"anonymous":false,"inputs":[{"indexed":true,"internalType":"address","name":"from","type":"address"},{"indexed":true,"internalType":"address","name":"to","type":"address"},{"indexed":true,"internalType":"uint256","name":"tokenId","type":"uint256"}],"name":"Transfer","type":"event"},{"inputs":[{"internalType":"address","name":"to","type":"address"},{"internalType":"uint256","name":"tokenId","type":"uint256"}],"name":"approve","outputs":[],"stateMutability":"nonpayable","type":"function"},{"inputs":[{"internalType":"address","name":"owner","type":"address"}],"name":"balanceOf","outputs":[{"internalType":"uint256","name":"","type":"uint256"}],"stateMutability":"view","type":"function"},{"inputs":[{"internalType":"uint256","name":"tokenId","type":"uint256"}],"name":"getApproved","outputs":[{"internalType":"address","name":"","type":"address"}],"stateMutability":"view","type":"function"},{"inputs":[{"internalType":"address","name":"owner","type":"address"},{"internalType":"address","name":"operator","type":"address"}],"name":"isApprovedForAll","outputs":[{"internalType":"bool","name":"","type":"bool"}],"stateMutability":"view","type":"function"},{"inputs":[{"internalType":"string","name":"_tokenURI","type":"string"}],"name":"mint","outputs":[],"stateMutability":"nonpayable","type":"function"},{"inputs":[],"name":"name","outputs":[{"internalType":"string","name":"","type":"string"}],"stateMutability":"view","type":"function"},{"inputs":[{"internalType":"uint256","name":"tokenId","type":"uint256"}],"name":"ownerOf","outputs":[{"internalType":"address","name":"","type":"address"}],"stateMutability":"view","type":"function"},{"inputs":[{"internalType":"address","name":"from","type":"address"},{"internalType":"address","name":"to","type":"address"},{"internalType":"uint256","name":"tokenId","type":"uint256"}],"name":"safeTransferFrom","outputs":[],"stateMutability":"nonpayable","type":"function"},{"inputs":[{"internalType":"address","name":"from","type":"address"},{"internalType":"address","name":"to","type":"address"},{"internalType":"uint256","name":"tokenId","type":"uint256"},{"internalType":"bytes","name":"data","type":"bytes"}],"name":"safeTransferFrom","outputs":[],"stateMutability":"nonpayable","type":"function"},{"inputs":[{"internalType":"address","name":"operator","type":"address"},{"internalType":"bool","name":"approved","type":"bool"}],"name":"setApprovalForAll","outputs":[],"stateMutability":"nonpayable","type":"function"},{"inputs":[{"internalType":"bytes4","name":"interfaceId","type":"bytes4"}],"name":"supportsInterface","outputs":[{"internalType":"bool","name":"","type":"bool"}],"stateMutability":"view","type":"function"},{"inputs":[],"name":"symbol","outputs":[{"internalType":"string","name":"","type":"string"}],"stateMutability":"view","type":"function"},{"inputs":[],"name":"tokenCounter","outputs":[{"internalType":"uint256","name":"","type":"uint256"}],"stateMutability":"view","type":"function"},{"inputs":[{"internalType":"uint256","name":"_tokenId","type":"uint256"}],"name":"tokenURI","outputs":[{"internalType":"string","name":"","type":"string"}],"stateMutability":"view","type":"function"},{"inputs":[{"internalType":"address","name":"from","type":"address"},{"internalType":"address","name":"to","type":"address"},{"internalType":"uint256","name":"tokenId","type":"uint256"}],"name":"transferFrom","outputs":[],"stateMutability":"nonpayable","type":"function"}],"evm":{"bytecode":{"linkReferences":{},"object":"60806040523462000032575b6200002062000019620001ef565b9062000256565b6040516117b16200049382396117b190f35b6200003b600080fd5b6200000b565b50634e487b7160e01b600052604160045260246000fd5b90601f01601f191681019081106001600160401b038211176200007a57604052565b6200008462000041565b604052565b90620000a06200009860405190565b928362000058565b565b602090620000c3906001600160401b038111620000c757601f01601f191690565b0190565b620000d162000041565b601f01601f191690565b60005b838110620000ef5750506000910152565b8181015183820152602001620000de565b929190620000a0916200011d6200011783620000a2565b62000089565b9482865260208601918382011115620000db5762000139600080fd5b620000db565b906200015e9181601f8201121562000161575b60208151910162000100565b90565b6200016a600080fd5b62000152565b91906200015e90604084820312620001e0575b8351620001a49082906001600160401b038111620001d1575b86016200013f565b602085015190946001600160401b038211620001c2575b016200013f565b620001cb600080fd5b620001bb565b620001da600080fd5b6200019c565b620001e9600080fd5b62000183565b6200021262001c4480380380620002068162000089565b92833981019062000170565b9091565b6200015e6200015e6200015e9290565b90600019905b9181191691161790565b906200024a6200015e620002529262000216565b825462000226565b9055565b90620002629162000478565b620000a062000272600062000216565b600662000236565b50634e487b7160e01b600052602260045260246000fd5b9060016002830492168015620002b8575b6020831014620002ae57565b620000a06200027a565b91607f1691620002a2565b9160001960089290920291821b911b6200022c565b9190620002ed6200015e620002529362000216565b908354620002c3565b620000a091600091620002d8565b81811062000310575050565b80620003206000600193620002f6565b0162000304565b9190601f81116200033757505050565b6200034b620000a093600052602060002090565b906020601f8401819004830193106200036f575b6020601f90910104019062000304565b90915081906200035f565b9062000384815190565b906001600160401b0382116200045c575b620003ad82620003a6855462000291565b8562000327565b602090601f8311600114620003ec5762000252929160009183620003e0575b5050600019600883021c1916906002021790565b015190503880620003cc565b601f198316916200040285600052602060002090565b9260005b818110620004435750916002939185600196941062000429575b50505002019055565b01516000196008601f8516021c1916905538808062000420565b9193602060018192878701518155019501920162000406565b6200046662000041565b62000395565b90620000a0916200037a565b906200048a620000a09260006200046c565b60016200046c56fe60806040526004361015610018575b610016600080fd5b005b60003560e01c806301ffc9a71461014457806306fdde031461013b578063081812fc14610132578063095ea7b31461012957806323b872dd1461012057806342842e0e146101175780636352211e1461010e57806370a082311461010557806395d89b41146100fc578063a22cb465146100f3578063b88d4fde146100ea578063c87b56dd146100e1578063d082e381146100d8578063d85d3d27146100cf5763e985e9c50361000e576100ca6107b5565b61000e565b506100ca61075d565b506100ca6106fe565b506100ca6106b2565b506100ca610687565b506100ca610507565b506100ca610497565b506100ca61045d565b506100ca610416565b506100ca6103ee565b506100ca6103c6565b506100ca61035b565b506100ca6102ca565b506100ca610258565b506100ca610198565b600080fd5b6001600160e01b031981165b0361014d57565b9050359061017282610152565b565b906101889160208183031261018b57610165565b90565b610193600080fd5b610165565b50346101cc575b6101c86101b56101b0366004610174565b6107e0565b6040515b91829182901515815260200190565b0390f35b6101d4600080fd5b61019f565b60009103126101e457565b610172600080fd5b60005b8381106101ff5750506000910152565b81810151838201526020016101ef565b601f01601f191690565b61023a61020f6020936102439361022e815190565b80835293849260200190565b958691016101ec565b0190565b602080825261018892910190610219565b5034610281575b61026a3660046101d9565b6101c8610275610aa5565b60405191829182610247565b610289600080fd5b61025f565b8061015e565b905035906101728261028e565b906101889160208183031215610294576102b9600080fd5b610294565b6001600160a01b031690565b5034610301575b6101c86102e76102e23660046102a1565b610c0c565b604051918291826001600160a01b03909116815260200190565b610309600080fd5b6102d1565b6001600160a01b03811661015e565b905035906101728261030e565b91906101889060408482031261034e575b610345818561031d565b93602001610294565b610356600080fd5b61033b565b503461037b575b61037661037036600461032a565b90610b81565b604051005b610383600080fd5b610362565b90916060828403126103b9575b6101886103a2848461031d565b936103b0816020860161031d565b93604001610294565b6103c1600080fd5b610395565b50346103e1575b6103766103db366004610388565b91610cc5565b6103e9600080fd5b6103cd565b5034610409575b610376610403366004610388565b91610d06565b610411600080fd5b6103f5565b5034610433575b6101c86102e761042e3660046102a1565b61097b565b61043b600080fd5b61041d565b90610188916020818303121561031d57610458600080fd5b61031d565b503461048a575b6101c861047a610475366004610440565b6108f2565b6040519182918290815260200190565b610492600080fd5b610464565b50346104b4575b6104a93660046101d9565b6101c8610275610aaf565b6104bc600080fd5b61049e565b80151561015e565b90503590610172826104c1565b9190610188906040848203126104fa575b6104f1818561031d565b936020016104c9565b610502600080fd5b6104e7565b5034610522575b61037661051c3660046104d6565b90610c31565b61052a600080fd5b61050e565b50634e487b7160e01b600052604160045260246000fd5b90601f01601f1916810190811067ffffffffffffffff82111761056857604052565b61057061052f565b604052565b9061017261058260405190565b9283610546565b61024360209167ffffffffffffffff81116105a857601f01601f191690565b61020f61052f565b90826000939282370152565b929190610172916105d46105cf83610589565b610575565b94828652602086019183820111156105b0576105ee600080fd5b6105b0565b906101889181601f8201121561060f575b6020813591016105bc565b610617600080fd5b610604565b60808183031261067a575b610631828261031d565b92610188610642846020850161031d565b936106508160408601610294565b9360608101359067ffffffffffffffff821161066d575b016105f3565b610675600080fd5b610667565b610682600080fd5b610627565b50346106a5575b61037661069c36600461061c565b92919091610d16565b6106ad600080fd5b61068e565b50346106cf575b6101c86102756106ca3660046102a1565b61175a565b6106d7600080fd5b6106b9565b610188916008021c81565b9061018891546106dc565b610188600060066106e7565b503461071b575b6107103660046101d9565b6101c861047a6106f2565b610723600080fd5b610705565b9061018891602081830312610750575b80359067ffffffffffffffff821161066d57016105f3565b610758600080fd5b610738565b5034610777575b610376610772366004610728565b6113d1565b61077f600080fd5b610764565b9190610188906040848203126107a8575b61079f818561031d565b9360200161031d565b6107b0600080fd5b610795565b50346107d3575b6101c86101b56107cd366004610784565b90610c3c565b6107db600080fd5b6107bc565b6380ac58cd60e01b6001600160e01b0319821614908115610810575b8115610806575090565b6101889150611392565b6001600160e01b03198116635b5e139f60e01b1491506107fc565b6102be6101886101889290565b6101889061082b565b1561084857565b60405162461bcd60e51b815260206004820152602960248201527f4552433732313a2061646472657373207a65726f206973206e6f7420612076616044820152683634b21037bbb732b960b91b6064820152608490fd5b0390fd5b610188906102be906001600160a01b031682565b610188906108a3565b610188906108b7565b906108d3906108c0565b600052602052604060002090565b6101889081565b61018890546108e1565b61092a61018891610901600090565b506109236109126102be6000610838565b6001600160a01b0383161415610841565b60036108c9565b6108e8565b1561093657565b60405162461bcd60e51b815260206004820152601860248201527f4552433732313a20696e76616c696420746f6b656e20494400000000000000006044820152606490fd5b6109889060005b50610db6565b6101886109986102be6000610838565b6001600160a01b038316141561092f565b50634e487b7160e01b600052602260045260246000fd5b90600160028304921680156109e3575b60208310146109db57565b6101726109a9565b91607f16916109d0565b80546000939291610a0a610a00836109c0565b8085529360200190565b9160018116908115610a5c5750600114610a2357505050565b610a369192939450600052602060002090565b916000925b818410610a485750500190565b805484840152602090930192600101610a3b565b92949550505060ff1916825215156020020190565b90610188916109ed565b90610172610a9592610a8c60405190565b93848092610a71565b0383610546565b61018890610a7b565b6101886000610a9c565b6101886001610a9c565b15610ac057565b60405162461bcd60e51b815260206004820152602160248201527f4552433732313a20617070726f76616c20746f2063757272656e74206f776e656044820152603960f91b6064820152608490fd5b15610b1657565b60405162461bcd60e51b815260206004820152603d60248201527f4552433732313a20617070726f76652063616c6c6572206973206e6f7420746f60448201527f6b656e206f776e6572206f7220617070726f76656420666f7220616c6c0000006064820152608490fd5b9061017291610bcc610b928361097b565b610bb06001600160a01b0382166001600160a01b0385161415610ab9565b336001600160a01b0382168114918215610bd1575b5050610b0f565b6110a2565b610bdb9250610c3c565b3880610bc5565b6101886101886101889290565b906108d390610be2565b610188906102be565b6101889054610bf9565b610c2c61018891610c1b600090565b50610c25816111d3565b6004610bef565b610c02565b610172919033611158565b61018891610c57610c5c92610c4f600090565b5060056108c9565b6108c9565b5460ff1690565b15610c6a57565b60405162461bcd60e51b815260206004820152602d60248201527f4552433732313a2063616c6c6572206973206e6f7420746f6b656e206f776e6560448201526c1c881bdc88185c1c1c9bdd9959609a1b6064820152608490fd5b610172929190610cdd610cd88433610dcd565b610c63565b610f85565b90610cef6105cf83610589565b918252565b6101886000610ce2565b610188610cf4565b909161017292610d14610cfe565b925b61017293929190610d2a610cd88433610dcd565b610d97565b15610d3657565b6040515b62461bcd60e51b815260206004820152603260248201527f4552433732313a207472616e7366657220746f206e6f6e20455243373231526560448201527131b2b4bb32b91034b6b83632b6b2b73a32b960711b6064820152608490fd5b916101729391610db193610dac838383610f85565b61127e565b610d2f565b610c2c61018891610dc5600090565b506002610bef565b610dd68261097b565b916001600160a01b0383166001600160a01b03831614928315610e30575b508215610e0057505090565b610e2c919250610e12610e1f91610c0c565b926001600160a01b031690565b916001600160a01b031690565b1490565b610e3d9193508290610c3c565b9138610df4565b15610e4b57565b60405162461bcd60e51b815260206004820152602560248201527f4552433732313a207472616e736665722066726f6d20696e636f72726563742060448201526437bbb732b960d91b6064820152608490fd5b15610ea557565b60405162461bcd60e51b8152602060048201526024808201527f4552433732313a207472616e7366657220746f20746865207a65726f206164646044820152637265737360e01b6064820152608490fd5b916001600160a01b0360089290920291821b911b5b9181191691161790565b9190610f26610188610f2e936108c0565b908354610ef6565b9055565b61017291600091610f15565b9060001990610f0b565b90610f58610188610f2e92610be2565b8254610f3e565b906001600160a01b0390610f0b565b90610f7e610188610f2e926108c0565b8254610f5f565b9190610fab610f938361097b565b610fa56001600160a01b038616610e1f565b14610e44565b610ffe6000610fd0610fbf6102be83610838565b6001600160a01b0385161415610e9e565b610fee610fdc8561097b565b610fa56001600160a01b038816610e1f565b610ff9846004610bef565b610f32565b61104261100b6001610be2565b611032611038846003610c576110218a836108c9565b6110328761102e836108e8565b0390565b90610f48565b91610243836108e8565b61105681611051846002610bef565b610f6e565b61109261108c6110867fddf252ad1be2c89b69c2b068fc378daa952ba7f163c4a11628f55a4df523b3ef956108c0565b926108c0565b92610be2565b9261109c60405190565b600090a4565b906110b282611051836004610bef565b6110bb8161097b565b9161109261108c6110867f8c5be1e5ebec7d5bd14f71427d1e84f3dd0314c0f7b2291e5b200ac8c7c3b925956108c0565b156110f357565b60405162461bcd60e51b815260206004820152601960248201527f4552433732313a20617070726f766520746f2063616c6c6572000000000000006044820152606490fd5b9060ff90610f0b565b90611151610188610f2e92151590565b8254611138565b6111766001600160a01b0383166001600160a01b03831614156110ec565b61118e8361118984610c578560056108c9565b611141565b6111ce6111c46111be7f17307eab39ab6107e8899845ad3d59bd9653f200f220920489ca2b5937696c31936108c0565b936108c0565b936101b960405190565b0390a3565b6111df610172916111e4565b61092f565b6111ef906000610982565b6111ff610e1f6102be6000610838565b141590565b9050519061017282610152565b90610188916020818303121561120457611229600080fd5b611204565b6001600160a01b03918216815291166020820152604081019190915260806060820181905261018892910190610219565b3d156112795761126e3d610ce2565b903d6000602084013e565b606090565b9190939261128a600090565b9461129481611380565b1561137657906112db60006112b36112ae602096956108c0565b6108c0565b926112e663150b7a02916112c43390565b966112ce60405190565b998a988997889660e01b90565b86526004860161122e565b03925af160009181611346575b50611329575061130161125f565b80516113146113106000610be2565b9190565b0361132157604051610d3a565b805190602001fd5b909150610e2c630a85bd0160e11b5b916001600160e01b03191690565b61136891925060203d811161136f575b6113608183610546565b810190611211565b90386112f3565b503d611356565b5060019450505050565b3b61138e6113106000610be2565b1190565b610e2c6301ffc9a760e01b611338565b50634e487b7160e01b600052601160045260246000fd5b60019060001981146113c9570190565b6102436113a2565b6113f8906113e9336113e360066108e8565b90611414565b6113f360066108e8565b611735565b61017261140d61140860066108e8565b6113b9565b6006610f48565b61017291611420610cfe565b610db1916101729361143282826114d8565b610dac6000610838565b1561144357565b60405162461bcd60e51b81528061089f600482016020808252818101527f4552433732313a206d696e7420746f20746865207a65726f2061646472657373604082015260600190565b1561149357565b60405162461bcd60e51b815260206004820152601c60248201527f4552433732313a20746f6b656e20616c7265616479206d696e746564000000006044820152606490fd5b906114e36000610838565b916115026001600160a01b0384166001600160a01b038316141561143c565b61151a611515611511846111e4565b1590565b61148c565b611529611515611511846111e4565b6110426115366001610be2565b6110326110388460036108c9565b1561154b57565b60405162461bcd60e51b815260206004820152602c60248201527f4552433732314d657461646174613a2055524920736574206f66206e6f6e657860448201526b34b9ba32b73a103a37b5b2b760a11b6064820152608490fd5b9160001960089290920291821b911b610f0b565b91906115ca610188610f2e93610be2565b9083546115a5565b610172916000916115b9565b8181106115e9575050565b806115f760006001936115d2565b016115de565b9190601f811161160c57505050565b61161e61017293600052602060002090565b906020601f840181900483019310611640575b6020601f9091010401906115de565b9091508190611631565b90611653815190565b9067ffffffffffffffff821161171e575b6116788261167285546109c0565b856115fd565b602090601f83116001146116b357610f2e9291600091836116a8575b5050600019600883021c1916906002021790565b015190503880611694565b601f198316916116c885600052602060002090565b9260005b818110611706575091600293918560019694106116ed575b50505002019055565b01516000196008601f8516021c191690553880806116e4565b919360206001819287870151815501950192016116cc565b61172661052f565b611664565b906101729161164a565b906117556101729261174e611749826111e4565b611544565b6007610bef565b61172b565b61177661018891611769606090565b5061174e611749826111e4565b610a9c56fea264697066735822122071ca75e9954a38704d4450f8f584e65116985dacd8098faa259a7c50d93f416364736f6c63430008110033","opcodes":"PUSH1 0x80 PUSH1 0x40 MSTORE CALLVALUE PUSH3 0x32 JUMPI JUMPDEST PUSH3 0x20 PUSH3 0x19 PUSH3 0x1EF JUMP JUMPDEST SWAP1 PUSH3 0x256 JUMP JUMPDEST PUSH1 0x40 MLOAD PUSH2 0x17B1 PUSH3 0x493 DUP3 CODECOPY PUSH2 0x17B1 SWAP1 RETURN JUMPDEST PUSH3 0x3B PUSH1 0x0 DUP1 REVERT JUMPDEST PUSH3 0xB JUMP JUMPDEST POP PUSH4 0x4E487B71 PUSH1 0xE0 SHL PUSH1 0x0 MSTORE PUSH1 0x41 PUSH1 0x4 MSTORE PUSH1 0x24 PUSH1 0x0 REVERT JUMPDEST SWAP1 PUSH1 0x1F ADD PUSH1 0x1F NOT AND DUP2 ADD SWAP1 DUP2 LT PUSH1 0x1 PUSH1 0x1 PUSH1 0x40 SHL SUB DUP3 GT OR PUSH3 0x7A JUMPI PUSH1 0x40 MSTORE JUMP JUMPDEST PUSH3 0x84 PUSH3 0x41 JUMP JUMPDEST PUSH1 0x40 MSTORE JUMP JUMPDEST SWAP1 PUSH3 0xA0 PUSH3 0x98 PUSH1 0x40 MLOAD SWAP1 JUMP JUMPDEST SWAP3 DUP4 PUSH3 0x58 JUMP JUMPDEST JUMP JUMPDEST PUSH1 0x20 SWAP1 PUSH3 0xC3 SWAP1 PUSH1 0x1 PUSH1 0x1 PUSH1 0x40 SHL SUB DUP2 GT PUSH3 0xC7 JUMPI PUSH1 0x1F ADD PUSH1 0x1F NOT AND SWAP1 JUMP JUMPDEST ADD SWAP1 JUMP JUMPDEST PUSH3 0xD1 PUSH3 0x41 JUMP JUMPDEST PUSH1 0x1F ADD PUSH1 0x1F NOT AND SWAP1 JUMP JUMPDEST PUSH1 0x0 JUMPDEST DUP4 DUP2 LT PUSH3 0xEF JUMPI POP POP PUSH1 0x0 SWAP2 ADD MSTORE JUMP JUMPDEST DUP2 DUP2 ADD MLOAD DUP4 DUP3 ADD MSTORE PUSH1 0x20 ADD PUSH3 0xDE JUMP JUMPDEST SWAP3 SWAP2 SWAP1 PUSH3 0xA0 SWAP2 PUSH3 0x11D PUSH3 0x117 DUP4 PUSH3 0xA2 JUMP JUMPDEST PUSH3 0x89 JUMP JUMPDEST SWAP5 DUP3 DUP7 MSTORE PUSH1 0x20 DUP7 ADD SWAP2 DUP4 DUP3 ADD GT ISZERO PUSH3 0xDB JUMPI PUSH3 0x139 PUSH1 0x0 DUP1 REVERT JUMPDEST PUSH3 0xDB JUMP JUMPDEST SWAP1 PUSH3 0x15E SWAP2 DUP2 PUSH1 0x1F DUP3 ADD SLT ISZERO PUSH3 0x161 JUMPI JUMPDEST PUSH1 0x20 DUP2 MLOAD SWAP2 ADD PUSH3 0x100 JUMP JUMPDEST SWAP1 JUMP JUMPDEST PUSH3 0x16A PUSH1 0x0 DUP1 REVERT JUMPDEST PUSH3 0x152 JUMP JUMPDEST SWAP2 SWAP1 PUSH3 0x15E SWAP1 PUSH1 0x40 DUP5 DUP3 SUB SLT PUSH3 0x1E0 JUMPI JUMPDEST DUP4 MLOAD PUSH3 0x1A4 SWAP1 DUP3 SWAP1 PUSH1 0x1 PUSH1 0x1 PUSH1 0x40 SHL SUB DUP2 GT PUSH3 0x1D1 JUMPI JUMPDEST DUP7 ADD PUSH3 0x13F JUMP JUMPDEST PUSH1 0x20 DUP6 ADD MLOAD SWAP1 SWAP5 PUSH1 0x1 PUSH1 0x1 PUSH1 0x40 SHL SUB DUP3 GT PUSH3 0x1C2 JUMPI JUMPDEST ADD PUSH3 0x13F JUMP JUMPDEST PUSH3 0x1CB PUSH1 0x0 DUP1 REVERT JUMPDEST PUSH3 0x1BB JUMP JUMPDEST PUSH3 0x1DA PUSH1 0x0 DUP1 REVERT JUMPDEST PUSH3 0x19C JUMP JUMPDEST PUSH3 0x1E9 PUSH1 0x0 DUP1 REVERT JUMPDEST PUSH3 0x183 JUMP JUMPDEST PUSH3 0x212 PUSH3 0x1C44 DUP1 CODESIZE SUB DUP1 PUSH3 0x206 DUP2 PUSH3 0x89 JUMP JUMPDEST SWAP3 DUP4 CODECOPY DUP2 ADD SWAP1 PUSH3 0x170 JUMP JUMPDEST SWAP1 SWAP2 JUMP JUMPDEST PUSH3 0x15E PUSH3 0x15E PUSH3 0x15E SWAP3 SWAP1 JUMP JUMPDEST SWAP1 PUSH1 0x0 NOT SWAP1 JUMPDEST SWAP2 DUP2 NOT AND SWAP2 AND OR SWAP1 JUMP JUMPDEST SWAP1 PUSH3 0x24A PUSH3 0x15E PUSH3 0x252 SWAP3 PUSH3 0x216 JUMP JUMPDEST DUP3 SLOAD PUSH3 0x226 JUMP JUMPDEST SWAP1 SSTORE JUMP JUMPDEST SWAP1 PUSH3 0x262 SWAP2 PUSH3 0x478 JUMP JUMPDEST PUSH3 0xA0 PUSH3 0x272 PUSH1 0x0 PUSH3 0x216 JUMP JUMPDEST PUSH1 0x6 PUSH3 0x236 JUMP JUMPDEST POP PUSH4 0x4E487B71 PUSH1 0xE0 SHL PUSH1 0x0 MSTORE PUSH1 0x22 PUSH1 0x4 MSTORE PUSH1 0x24 PUSH1 0x0 REVERT JUMPDEST SWAP1 PUSH1 0x1 PUSH1 0x2 DUP4 DIV SWAP3 AND DUP1 ISZERO PUSH3 0x2B8 JUMPI JUMPDEST PUSH1 0x20 DUP4 LT EQ PUSH3 0x2AE JUMPI JUMP JUMPDEST PUSH3 0xA0 PUSH3 0x27A JUMP JUMPDEST SWAP2 PUSH1 0x7F AND SWAP2 PUSH3 0x2A2 JUMP JUMPDEST SWAP2 PUSH1 0x0 NOT PUSH1 0x8 SWAP3 SWAP1 SWAP3 MUL SWAP2 DUP3 SHL SWAP2 SHL PUSH3 0x22C JUMP JUMPDEST SWAP2 SWAP1 PUSH3 0x2ED PUSH3 0x15E PUSH3 0x252 SWAP4 PUSH3 0x216 JUMP JUMPDEST SWAP1 DUP4 SLOAD PUSH3 0x2C3 JUMP JUMPDEST PUSH3 0xA0 SWAP2 PUSH1 0x0 SWAP2 PUSH3 0x2D8 JUMP JUMPDEST DUP2 DUP2 LT PUSH3 0x310 JUMPI POP POP JUMP JUMPDEST DUP1 PUSH3 0x320 PUSH1 0x0 PUSH1 0x1 SWAP4 PUSH3 0x2F6 JUMP JUMPDEST ADD PUSH3 0x304 JUMP JUMPDEST SWAP2 SWAP1 PUSH1 0x1F DUP2 GT PUSH3 0x337 JUMPI POP POP POP JUMP JUMPDEST PUSH3 0x34B PUSH3 0xA0 SWAP4 PUSH1 0x0 MSTORE PUSH1 0x20 PUSH1 0x0 KECCAK256 SWAP1 JUMP JUMPDEST SWAP1 PUSH1 0x20 PUSH1 0x1F DUP5 ADD DUP2 SWAP1 DIV DUP4 ADD SWAP4 LT PUSH3 0x36F JUMPI JUMPDEST PUSH1 0x20 PUSH1 0x1F SWAP1 SWAP2 ADD DIV ADD SWAP1 PUSH3 0x304 JUMP JUMPDEST SWAP1 SWAP2 POP DUP2 SWAP1 PUSH3 0x35F JUMP JUMPDEST SWAP1 PUSH3 0x384 DUP2 MLOAD SWAP1 JUMP JUMPDEST SWAP1 PUSH1 0x1 PUSH1 0x1 PUSH1 0x40 SHL SUB DUP3 GT PUSH3 0x45C JUMPI JUMPDEST PUSH3 0x3AD DUP3 PUSH3 0x3A6 DUP6 SLOAD PUSH3 0x291 JUMP JUMPDEST DUP6 PUSH3 0x327 JUMP JUMPDEST PUSH1 0x20 SWAP1 PUSH1 0x1F DUP4 GT PUSH1 0x1 EQ PUSH3 0x3EC JUMPI PUSH3 0x252 SWAP3 SWAP2 PUSH1 0x0 SWAP2 DUP4 PUSH3 0x3E0 JUMPI JUMPDEST POP POP PUSH1 0x0 NOT PUSH1 0x8 DUP4 MUL SHR NOT AND SWAP1 PUSH1 0x2 MUL OR SWAP1 JUMP JUMPDEST ADD MLOAD SWAP1 POP CODESIZE DUP1 PUSH3 0x3CC JUMP JUMPDEST PUSH1 0x1F NOT DUP4 AND SWAP2 PUSH3 0x402 DUP6 PUSH1 0x0 MSTORE PUSH1 0x20 PUSH1 0x0 KECCAK256 SWAP1 JUMP JUMPDEST SWAP3 PUSH1 0x0 JUMPDEST DUP2 DUP2 LT PUSH3 0x443 JUMPI POP SWAP2 PUSH1 0x2 SWAP4 SWAP2 DUP6 PUSH1 0x1 SWAP7 SWAP5 LT PUSH3 0x429 JUMPI JUMPDEST POP POP POP MUL ADD SWAP1 SSTORE JUMP JUMPDEST ADD MLOAD PUSH1 0x0 NOT PUSH1 0x8 PUSH1 0x1F DUP6 AND MUL SHR NOT AND SWAP1 SSTORE CODESIZE DUP1 DUP1 PUSH3 0x420 JUMP JUMPDEST SWAP2 SWAP4 PUSH1 0x20 PUSH1 0x1 DUP2 SWAP3 DUP8 DUP8 ADD MLOAD DUP2 SSTORE ADD SWAP6 ADD SWAP3 ADD PUSH3 0x406 JUMP JUMPDEST PUSH3 0x466 PUSH3 0x41 JUMP JUMPDEST PUSH3 0x395 JUMP JUMPDEST SWAP1 PUSH3 0xA0 SWAP2 PUSH3 0x37A JUMP JUMPDEST SWAP1 PUSH3 0x48A PUSH3 0xA0 SWAP3 PUSH1 0x0 PUSH3 0x46C JUMP JUMPDEST PUSH1 0x1 PUSH3 0x46C JUMP INVALID PUSH1 0x80 PUSH1 0x40 MSTORE PUSH1 0x4 CALLDATASIZE LT ISZERO PUSH2 0x18 JUMPI JUMPDEST PUSH2 0x16 PUSH1 0x0 DUP1 REVERT JUMPDEST STOP JUMPDEST PUSH1 0x0 CALLDATALOAD PUSH1 0xE0 SHR DUP1 PUSH4 0x1FFC9A7 EQ PUSH2 0x144 JUMPI DUP1 PUSH4 0x6FDDE03 EQ PUSH2 0x13B JUMPI DUP1 PUSH4 0x81812FC EQ PUSH2 0x132 JUMPI DUP1 PUSH4 0x95EA7B3 EQ PUSH2 0x129 JUMPI DUP1 PUSH4 0x23B872DD EQ PUSH2 0x120 JUMPI DUP1 PUSH4 0x42842E0E EQ PUSH2 0x117 JUMPI DUP1 PUSH4 0x6352211E EQ PUSH2 0x10E JUMPI DUP1 PUSH4 0x70A08231 EQ PUSH2 0x105 JUMPI DUP1 PUSH4 0x95D89B41 EQ PUSH2 0xFC JUMPI DUP1 PUSH4 0xA22CB465 EQ PUSH2 0xF3 JUMPI DUP1 PUSH4 0xB88D4FDE EQ PUSH2 0xEA JUMPI DUP1 PUSH4 0xC87B56DD EQ PUSH2 0xE1 JUMPI DUP1 PUSH4 0xD082E381 EQ PUSH2 0xD8 JUMPI DUP1 PUSH4 0xD85D3D27 EQ PUSH2 0xCF JUMPI PUSH4 0xE985E9C5 SUB PUSH2 0xE JUMPI PUSH2 0xCA PUSH2 0x7B5 JUMP JUMPDEST PUSH2 0xE JUMP JUMPDEST POP PUSH2 0xCA PUSH2 0x75D JUMP JUMPDEST POP PUSH2 0xCA PUSH2 0x6FE JUMP JUMPDEST POP PUSH2 0xCA PUSH2 0x6B2 JUMP JUMPDEST POP PUSH2 0xCA PUSH2 0x687 JUMP JUMPDEST POP PUSH2 0xCA PUSH2 0x507 JUMP JUMPDEST POP PUSH2 0xCA PUSH2 0x497 JUMP JUMPDEST POP PUSH2 0xCA PUSH2 0x45D JUMP JUMPDEST POP PUSH2 0xCA PUSH2 0x416 JUMP JUMPDEST POP PUSH2 0xCA PUSH2 0x3EE JUMP JUMPDEST POP PUSH2 0xCA PUSH2 0x3C6 JUMP JUMPDEST POP PUSH2 0xCA PUSH2 0x35B JUMP JUMPDEST POP PUSH2 0xCA PUSH2 0x2CA JUMP JUMPDEST POP PUSH2 0xCA PUSH2 0x258 JUMP JUMPDEST POP PUSH2 0xCA PUSH2 0x198 JUMP JUMPDEST PUSH1 0x0 DUP1 REVERT JUMPDEST PUSH1 0x1 PUSH1 0x1 PUSH1 0xE0 SHL SUB NOT DUP2 AND JUMPDEST SUB PUSH2 0x14D JUMPI JUMP JUMPDEST SWAP1 POP CALLDATALOAD SWAP1 PUSH2 0x172 DUP3 PUSH2 0x152 JUMP JUMPDEST JUMP JUMPDEST SWAP1 PUSH2 0x188 SWAP2 PUSH1 0x20 DUP2 DUP4 SUB SLT PUSH2 0x18B JUMPI PUSH2 0x165 JUMP JUMPDEST SWAP1 JUMP JUMPDEST PUSH2 0x193 PUSH1 0x0 DUP1 REVERT JUMPDEST PUSH2 0x165 JUMP JUMPDEST POP CALLVALUE PUSH2 0x1CC JUMPI JUMPDEST PUSH2 0x1C8 PUSH2 0x1B5 PUSH2 0x1B0 CALLDATASIZE PUSH1 0x4 PUSH2 0x174 JUMP JUMPDEST PUSH2 0x7E0 JUMP JUMPDEST PUSH1 0x40 MLOAD JUMPDEST SWAP2 DUP3 SWAP2 DUP3 SWAP1 ISZERO ISZERO DUP2 MSTORE PUSH1 0x20 ADD SWAP1 JUMP JUMPDEST SUB SWAP1 RETURN JUMPDEST PUSH2 0x1D4 PUSH1 0x0 DUP1 REVERT JUMPDEST PUSH2 0x19F JUMP JUMPDEST PUSH1 0x0 SWAP2 SUB SLT PUSH2 0x1E4 JUMPI JUMP JUMPDEST PUSH2 0x172 PUSH1 0x0 DUP1 REVERT JUMPDEST PUSH1 0x0 JUMPDEST DUP4 DUP2 LT PUSH2 0x1FF JUMPI POP POP PUSH1 0x0 SWAP2 ADD MSTORE JUMP JUMPDEST DUP2 DUP2 ADD MLOAD DUP4 DUP3 ADD MSTORE PUSH1 0x20 ADD PUSH2 0x1EF JUMP JUMPDEST PUSH1 0x1F ADD PUSH1 0x1F NOT AND SWAP1 JUMP JUMPDEST PUSH2 0x23A PUSH2 0x20F PUSH1 0x20 SWAP4 PUSH2 0x243 SWAP4 PUSH2 0x22E DUP2 MLOAD SWAP1 JUMP JUMPDEST DUP1 DUP4 MSTORE SWAP4 DUP5 SWAP3 PUSH1 0x20 ADD SWAP1 JUMP JUMPDEST SWAP6 DUP7 SWAP2 ADD PUSH2 0x1EC JUMP JUMPDEST ADD SWAP1 JUMP JUMPDEST PUSH1 0x20 DUP1 DUP3 MSTORE PUSH2 0x188 SWAP3 SWAP2 ADD SWAP1 PUSH2 0x219 JUMP JUMPDEST POP CALLVALUE PUSH2 0x281 JUMPI JUMPDEST PUSH2 0x26A CALLDATASIZE PUSH1 0x4 PUSH2 0x1D9 JUMP JUMPDEST PUSH2 0x1C8 PUSH2 0x275 PUSH2 0xAA5 JUMP JUMPDEST PUSH1 0x40 MLOAD SWAP2 DUP3 SWAP2 DUP3 PUSH2 0x247 JUMP JUMPDEST PUSH2 0x289 PUSH1 0x0 DUP1 REVERT JUMPDEST PUSH2 0x25F JUMP JUMPDEST DUP1 PUSH2 0x15E JUMP JUMPDEST SWAP1 POP CALLDATALOAD SWAP1 PUSH2 0x172 DUP3 PUSH2 0x28E JUMP JUMPDEST SWAP1 PUSH2 0x188 SWAP2 PUSH1 0x20 DUP2 DUP4 SUB SLT ISZERO PUSH2 0x294 JUMPI PUSH2 0x2B9 PUSH1 0x0 DUP1 REVERT JUMPDEST PUSH2 0x294 JUMP JUMPDEST PUSH1 0x1 PUSH1 0x1 PUSH1 0xA0 SHL SUB AND SWAP1 JUMP JUMPDEST POP CALLVALUE PUSH2 0x301 JUMPI JUMPDEST PUSH2 0x1C8 PUSH2 0x2E7 PUSH2 0x2E2 CALLDATASIZE PUSH1 0x4 PUSH2 0x2A1 JUMP JUMPDEST PUSH2 0xC0C JUMP JUMPDEST PUSH1 0x40 MLOAD SWAP2 DUP3 SWAP2 DUP3 PUSH1 0x1 PUSH1 0x1 PUSH1 0xA0 SHL SUB SWAP1 SWAP2 AND DUP2 MSTORE PUSH1 0x20 ADD SWAP1 JUMP JUMPDEST PUSH2 0x309 PUSH1 0x0 DUP1 REVERT JUMPDEST PUSH2 0x2D1 JUMP JUMPDEST PUSH1 0x1 PUSH1 0x1 PUSH1 0xA0 SHL SUB DUP2 AND PUSH2 0x15E JUMP JUMPDEST SWAP1 POP CALLDATALOAD SWAP1 PUSH2 0x172 DUP3 PUSH2 0x30E JUMP JUMPDEST SWAP2 SWAP1 PUSH2 0x188 SWAP1 PUSH1 0x40 DUP5 DUP3 SUB SLT PUSH2 0x34E JUMPI JUMPDEST PUSH2 0x345 DUP2 DUP6 PUSH2 0x31D JUMP JUMPDEST SWAP4 PUSH1 0x20 ADD PUSH2 0x294 JUMP JUMPDEST PUSH2 0x356 PUSH1 0x0 DUP1 REVERT JUMPDEST PUSH2 0x33B JUMP JUMPDEST POP CALLVALUE PUSH2 0x37B JUMPI JUMPDEST PUSH2 0x376 PUSH2 0x370 CALLDATASIZE PUSH1 0x4 PUSH2 0x32A JUMP JUMPDEST SWAP1 PUSH2 0xB81 JUMP JUMPDEST PUSH1 0x40 MLOAD STOP JUMPDEST PUSH2 0x383 PUSH1 0x0 DUP1 REVERT JUMPDEST PUSH2 0x362 JUMP JUMPDEST SWAP1 SWAP2 PUSH1 0x60 DUP3 DUP5 SUB SLT PUSH2 0x3B9 JUMPI JUMPDEST PUSH2 0x188 PUSH2 0x3A2 DUP5 DUP5 PUSH2 0x31D JUMP JUMPDEST SWAP4 PUSH2 0x3B0 DUP2 PUSH1 0x20 DUP7 ADD PUSH2 0x31D JUMP JUMPDEST SWAP4 PUSH1 0x40 ADD PUSH2 0x294 JUMP JUMPDEST PUSH2 0x3C1 PUSH1 0x0 DUP1 REVERT JUMPDEST PUSH2 0x395 JUMP JUMPDEST POP CALLVALUE PUSH2 0x3E1 JUMPI JUMPDEST PUSH2 0x376 PUSH2 0x3DB CALLDATASIZE PUSH1 0x4 PUSH2 0x388 JUMP JUMPDEST SWAP2 PUSH2 0xCC5 JUMP JUMPDEST PUSH2 0x3E9 PUSH1 0x0 DUP1 REVERT JUMPDEST PUSH2 0x3CD JUMP JUMPDEST POP CALLVALUE PUSH2 0x409 JUMPI JUMPDEST PUSH2 0x376 PUSH2 0x403 CALLDATASIZE PUSH1 0x4 PUSH2 0x388 JUMP JUMPDEST SWAP2 PUSH2 0xD06 JUMP JUMPDEST PUSH2 0x411 PUSH1 0x0 DUP1 REVERT JUMPDEST PUSH2 0x3F5 JUMP JUMPDEST POP CALLVALUE PUSH2 0x433 JUMPI JUMPDEST PUSH2 0x1C8 PUSH2 0x2E7 PUSH2 0x42E CALLDATASIZE PUSH1 0x4 PUSH2 0x2A1 JUMP JUMPDEST PUSH2 0x97B JUMP JUMPDEST PUSH2 0x43B PUSH1 0x0 DUP1 REVERT JUMPDEST PUSH2 0x41D JUMP JUMPDEST SWAP1 PUSH2 0x188 SWAP2 PUSH1 0x20 DUP2 DUP4 SUB SLT ISZERO PUSH2 0x31D JUMPI PUSH2 0x458 PUSH1 0x0 DUP1 REVERT JUMPDEST PUSH2 0x31D JUMP JUMPDEST POP CALLVALUE PUSH2 0x48A JUMPI JUMPDEST PUSH2 0x1C8 PUSH2 0x47A PUSH2 0x475 CALLDATASIZE PUSH1 0x4 PUSH2 0x440 JUMP JUMPDEST PUSH2 0x8F2 JUMP JUMPDEST PUSH1 0x40 MLOAD SWAP2 DUP3 SWAP2 DUP3 SWAP1 DUP2 MSTORE PUSH1 0x20 ADD SWAP1 JUMP JUMPDEST PUSH2 0x492 PUSH1 0x0 DUP1 REVERT JUMPDEST PUSH2 0x464 JUMP JUMPDEST POP CALLVALUE PUSH2 0x4B4 JUMPI JUMPDEST PUSH2 0x4A9 CALLDATASIZE PUSH1 0x4 PUSH2 0x1D9 JUMP JUMPDEST PUSH2 0x1C8 PUSH2 0x275 PUSH2 0xAAF JUMP JUMPDEST PUSH2 0x4BC PUSH1 0x0 DUP1 REVERT JUMPDEST PUSH2 0x49E JUMP JUMPDEST DUP1 ISZERO ISZERO PUSH2 0x15E JUMP JUMPDEST SWAP1 POP CALLDATALOAD SWAP1 PUSH2 0x172 DUP3 PUSH2 0x4C1 JUMP JUMPDEST SWAP2 SWAP1 PUSH2 0x188 SWAP1 PUSH1 0x40 DUP5 DUP3 SUB SLT PUSH2 0x4FA JUMPI JUMPDEST PUSH2 0x4F1 DUP2 DUP6 PUSH2 0x31D JUMP JUMPDEST SWAP4 PUSH1 0x20 ADD PUSH2 0x4C9 JUMP JUMPDEST PUSH2 0x502 PUSH1 0x0 DUP1 REVERT JUMPDEST PUSH2 0x4E7 JUMP JUMPDEST POP CALLVALUE PUSH2 0x522 JUMPI JUMPDEST PUSH2 0x376 PUSH2 0x51C CALLDATASIZE PUSH1 0x4 PUSH2 0x4D6 JUMP JUMPDEST SWAP1 PUSH2 0xC31 JUMP JUMPDEST PUSH2 0x52A PUSH1 0x0 DUP1 REVERT JUMPDEST PUSH2 0x50E JUMP JUMPDEST POP PUSH4 0x4E487B71 PUSH1 0xE0 SHL PUSH1 0x0 MSTORE PUSH1 0x41 PUSH1 0x4 MSTORE PUSH1 0x24 PUSH1 0x0 REVERT JUMPDEST SWAP1 PUSH1 0x1F ADD PUSH1 0x1F NOT AND DUP2 ADD SWAP1 DUP2 LT PUSH8 0xFFFFFFFFFFFFFFFF DUP3 GT OR PUSH2 0x568 JUMPI PUSH1 0x40 MSTORE JUMP JUMPDEST PUSH2 0x570 PUSH2 0x52F JUMP JUMPDEST PUSH1 0x40 MSTORE JUMP JUMPDEST SWAP1 PUSH2 0x172 PUSH2 0x582 PUSH1 0x40 MLOAD SWAP1 JUMP JUMPDEST SWAP3 DUP4 PUSH2 0x546 JUMP JUMPDEST PUSH2 0x243 PUSH1 0x20 SWAP2 PUSH8 0xFFFFFFFFFFFFFFFF DUP2 GT PUSH2 0x5A8 JUMPI PUSH1 0x1F ADD PUSH1 0x1F NOT AND SWAP1 JUMP JUMPDEST PUSH2 0x20F PUSH2 0x52F JUMP JUMPDEST SWAP1 DUP3 PUSH1 0x0 SWAP4 SWAP3 DUP3 CALLDATACOPY ADD MSTORE JUMP JUMPDEST SWAP3 SWAP2 SWAP1 PUSH2 0x172 SWAP2 PUSH2 0x5D4 PUSH2 0x5CF DUP4 PUSH2 0x589 JUMP JUMPDEST PUSH2 0x575 JUMP JUMPDEST SWAP5 DUP3 DUP7 MSTORE PUSH1 0x20 DUP7 ADD SWAP2 DUP4 DUP3 ADD GT ISZERO PUSH2 0x5B0 JUMPI PUSH2 0x5EE PUSH1 0x0 DUP1 REVERT JUMPDEST PUSH2 0x5B0 JUMP JUMPDEST SWAP1 PUSH2 0x188 SWAP2 DUP2 PUSH1 0x1F DUP3 ADD SLT ISZERO PUSH2 0x60F JUMPI JUMPDEST PUSH1 0x20 DUP2 CALLDATALOAD SWAP2 ADD PUSH2 0x5BC JUMP JUMPDEST PUSH2 0x617 PUSH1 0x0 DUP1 REVERT JUMPDEST PUSH2 0x604 JUMP JUMPDEST PUSH1 0x80 DUP2 DUP4 SUB SLT PUSH2 0x67A JUMPI JUMPDEST PUSH2 0x631 DUP3 DUP3 PUSH2 0x31D JUMP JUMPDEST SWAP3 PUSH2 0x188 PUSH2 0x642 DUP5 PUSH1 0x20 DUP6 ADD PUSH2 0x31D JUMP JUMPDEST SWAP4 PUSH2 0x650 DUP2 PUSH1 0x40 DUP7 ADD PUSH2 0x294 JUMP JUMPDEST SWAP4 PUSH1 0x60 DUP2 ADD CALLDATALOAD SWAP1 PUSH8 0xFFFFFFFFFFFFFFFF DUP3 GT PUSH2 0x66D JUMPI JUMPDEST ADD PUSH2 0x5F3 JUMP JUMPDEST PUSH2 0x675 PUSH1 0x0 DUP1 REVERT JUMPDEST PUSH2 0x667 JUMP JUMPDEST PUSH2 0x682 PUSH1 0x0 DUP1 REVERT JUMPDEST PUSH2 0x627 JUMP JUMPDEST POP CALLVALUE PUSH2 0x6A5 JUMPI JUMPDEST PUSH2 0x376 PUSH2 0x69C CALLDATASIZE PUSH1 0x4 PUSH2 0x61C JUMP JUMPDEST SWAP3 SWAP2 SWAP1 SWAP2 PUSH2 0xD16 JUMP JUMPDEST PUSH2 0x6AD PUSH1 0x0 DUP1 REVERT JUMPDEST PUSH2 0x68E JUMP JUMPDEST POP CALLVALUE PUSH2 0x6CF JUMPI JUMPDEST PUSH2 0x1C8 PUSH2 0x275 PUSH2 0x6CA CALLDATASIZE PUSH1 0x4 PUSH2 0x2A1 JUMP JUMPDEST PUSH2 0x175A JUMP JUMPDEST PUSH2 0x6D7 PUSH1 0x0 DUP1 REVERT JUMPDEST PUSH2 0x6B9 JUMP JUMPDEST PUSH2 0x188 SWAP2 PUSH1 0x8 MUL SHR DUP2 JUMP JUMPDEST SWAP1 PUSH2 0x188 SWAP2 SLOAD PUSH2 0x6DC JUMP JUMPDEST PUSH2 0x188 PUSH1 0x0 PUSH1 0x6 PUSH2 0x6E7 JUMP JUMPDEST POP CALLVALUE PUSH2 0x71B JUMPI JUMPDEST PUSH2 0x710 CALLDATASIZE PUSH1 0x4 PUSH2 0x1D9 JUMP JUMPDEST PUSH2 0x1C8 PUSH2 0x47A PUSH2 0x6F2 JUMP JUMPDEST PUSH2 0x723 PUSH1 0x0 DUP1 REVERT JUMPDEST PUSH2 0x705 JUMP JUMPDEST SWAP1 PUSH2 0x188 SWAP2 PUSH1 0x20 DUP2 DUP4 SUB SLT PUSH2 0x750 JUMPI JUMPDEST DUP1 CALLDATALOAD SWAP1 PUSH8 0xFFFFFFFFFFFFFFFF DUP3 GT PUSH2 0x66D JUMPI ADD PUSH2 0x5F3 JUMP JUMPDEST PUSH2 0x758 PUSH1 0x0 DUP1 REVERT JUMPDEST PUSH2 0x738 JUMP JUMPDEST POP CALLVALUE PUSH2 0x777 JUMPI JUMPDEST PUSH2 0x376 PUSH2 0x772 CALLDATASIZE PUSH1 0x4 PUSH2 0x728 JUMP JUMPDEST PUSH2 0x13D1 JUMP JUMPDEST PUSH2 0x77F PUSH1 0x0 DUP1 REVERT JUMPDEST PUSH2 0x764 JUMP JUMPDEST SWAP2 SWAP1 PUSH2 0x188 SWAP1 PUSH1 0x40 DUP5 DUP3 SUB SLT PUSH2 0x7A8 JUMPI JUMPDEST PUSH2 0x79F DUP2 DUP6 PUSH2 0x31D JUMP JUMPDEST SWAP4 PUSH1 0x20 ADD PUSH2 0x31D JUMP JUMPDEST PUSH2 0x7B0 PUSH1 0x0 DUP1 REVERT JUMPDEST PUSH2 0x795 JUMP JUMPDEST POP CALLVALUE PUSH2 0x7D3 JUMPI JUMPDEST PUSH2 0x1C8 PUSH2 0x1B5 PUSH2 0x7CD CALLDATASIZE PUSH1 0x4 PUSH2 0x784 JUMP JUMPDEST SWAP1 PUSH2 0xC3C JUMP JUMPDEST PUSH2 0x7DB PUSH1 0x0 DUP1 REVERT JUMPDEST PUSH2 0x7BC JUMP JUMPDEST PUSH4 0x80AC58CD PUSH1 0xE0 SHL PUSH1 0x1 PUSH1 0x1 PUSH1 0xE0 SHL SUB NOT DUP3 AND EQ SWAP1 DUP2 ISZERO PUSH2 0x810 JUMPI JUMPDEST DUP2 ISZERO PUSH2 0x806 JUMPI POP SWAP1 JUMP JUMPDEST PUSH2 0x188 SWAP2 POP PUSH2 0x1392 JUMP JUMPDEST PUSH1 0x1 PUSH1 0x1 PUSH1 0xE0 SHL SUB NOT DUP2 AND PUSH4 0x5B5E139F PUSH1 0xE0 SHL EQ SWAP2 POP PUSH2 0x7FC JUMP JUMPDEST PUSH2 0x2BE PUSH2 0x188 PUSH2 0x188 SWAP3 SWAP1 JUMP JUMPDEST PUSH2 0x188 SWAP1 PUSH2 0x82B JUMP JUMPDEST ISZERO PUSH2 0x848 JUMPI JUMP JUMPDEST PUSH1 0x40 MLOAD PUSH3 0x461BCD PUSH1 0xE5 SHL DUP2 MSTORE PUSH1 0x20 PUSH1 0x4 DUP3 ADD MSTORE PUSH1 0x29 PUSH1 0x24 DUP3 ADD MSTORE PUSH32 0x4552433732313A2061646472657373207A65726F206973206E6F742061207661 PUSH1 0x44 DUP3 ADD MSTORE PUSH9 0x3634B21037BBB732B9 PUSH1 0xB9 SHL PUSH1 0x64 DUP3 ADD MSTORE PUSH1 0x84 SWAP1 REVERT JUMPDEST SUB SWAP1 REVERT JUMPDEST PUSH2 0x188 SWAP1 PUSH2 0x2BE SWAP1 PUSH1 0x1 PUSH1 0x1 PUSH1 0xA0 SHL SUB AND DUP3 JUMP JUMPDEST PUSH2 0x188 SWAP1 PUSH2 0x8A3 JUMP JUMPDEST PUSH2 0x188 SWAP1 PUSH2 0x8B7 JUMP JUMPDEST SWAP1 PUSH2 0x8D3 SWAP1 PUSH2 0x8C0 JUMP JUMPDEST PUSH1 0x0 MSTORE PUSH1 0x20 MSTORE PUSH1 0x40 PUSH1 0x0 KECCAK256 SWAP1 JUMP JUMPDEST PUSH2 0x188 SWAP1 DUP2 JUMP JUMPDEST PUSH2 0x188 SWAP1 SLOAD PUSH2 0x8E1 JUMP JUMPDEST PUSH2 0x92A PUSH2 0x188 SWAP2 PUSH2 0x901 PUSH1 0x0 SWAP1 JUMP JUMPDEST POP PUSH2 0x923 PUSH2 0x912 PUSH2 0x2BE PUSH1 0x0 PUSH2 0x838 JUMP JUMPDEST PUSH1 0x1 PUSH1 0x1 PUSH1 0xA0 SHL SUB DUP4 AND EQ ISZERO PUSH2 0x841 JUMP JUMPDEST PUSH1 0x3 PUSH2 0x8C9 JUMP JUMPDEST PUSH2 0x8E8 JUMP JUMPDEST ISZERO PUSH2 0x936 JUMPI JUMP JUMPDEST PUSH1 0x40 MLOAD PUSH3 0x461BCD PUSH1 0xE5 SHL DUP2 MSTORE PUSH1 0x20 PUSH1 0x4 DUP3 ADD MSTORE PUSH1 0x18 PUSH1 0x24 DUP3 ADD MSTORE PUSH32 0x4552433732313A20696E76616C696420746F6B656E2049440000000000000000 PUSH1 0x44 DUP3 ADD MSTORE PUSH1 0x64 SWAP1 REVERT JUMPDEST PUSH2 0x988 SWAP1 PUSH1 0x0 JUMPDEST POP PUSH2 0xDB6 JUMP JUMPDEST PUSH2 0x188 PUSH2 0x998 PUSH2 0x2BE PUSH1 0x0 PUSH2 0x838 JUMP JUMPDEST PUSH1 0x1 PUSH1 0x1 PUSH1 0xA0 SHL SUB DUP4 AND EQ ISZERO PUSH2 0x92F JUMP JUMPDEST POP PUSH4 0x4E487B71 PUSH1 0xE0 SHL PUSH1 0x0 MSTORE PUSH1 0x22 PUSH1 0x4 MSTORE PUSH1 0x24 PUSH1 0x0 REVERT JUMPDEST SWAP1 PUSH1 0x1 PUSH1 0x2 DUP4 DIV SWAP3 AND DUP1 ISZERO PUSH2 0x9E3 JUMPI JUMPDEST PUSH1 0x20 DUP4 LT EQ PUSH2 0x9DB JUMPI JUMP JUMPDEST PUSH2 0x172 PUSH2 0x9A9 JUMP JUMPDEST SWAP2 PUSH1 0x7F AND SWAP2 PUSH2 0x9D0 JUMP JUMPDEST DUP1 SLOAD PUSH1 0x0 SWAP4 SWAP3 SWAP2 PUSH2 0xA0A PUSH2 0xA00 DUP4 PUSH2 0x9C0 JUMP JUMPDEST DUP1 DUP6 MSTORE SWAP4 PUSH1 0x20 ADD SWAP1 JUMP JUMPDEST SWAP2 PUSH1 0x1 DUP2 AND SWAP1 DUP2 ISZERO PUSH2 0xA5C JUMPI POP PUSH1 0x1 EQ PUSH2 0xA23 JUMPI POP POP POP JUMP JUMPDEST PUSH2 0xA36 SWAP2 SWAP3 SWAP4 SWAP5 POP PUSH1 0x0 MSTORE PUSH1 0x20 PUSH1 0x0 KECCAK256 SWAP1 JUMP JUMPDEST SWAP2 PUSH1 0x0 SWAP3 JUMPDEST DUP2 DUP5 LT PUSH2 0xA48 JUMPI POP POP ADD SWAP1 JUMP JUMPDEST DUP1 SLOAD DUP5 DUP5 ADD MSTORE PUSH1 0x20 SWAP1 SWAP4 ADD SWAP3 PUSH1 0x1 ADD PUSH2 0xA3B JUMP JUMPDEST SWAP3 SWAP5 SWAP6 POP POP POP PUSH1 0xFF NOT AND DUP3 MSTORE ISZERO ISZERO PUSH1 0x20 MUL ADD SWAP1 JUMP JUMPDEST SWAP1 PUSH2 0x188 SWAP2 PUSH2 0x9ED JUMP JUMPDEST SWAP1 PUSH2 0x172 PUSH2 0xA95 SWAP3 PUSH2 0xA8C PUSH1 0x40 MLOAD SWAP1 JUMP JUMPDEST SWAP4 DUP5 DUP1 SWAP3 PUSH2 0xA71 JUMP JUMPDEST SUB DUP4 PUSH2 0x546 JUMP JUMPDEST PUSH2 0x188 SWAP1 PUSH2 0xA7B JUMP JUMPDEST PUSH2 0x188 PUSH1 0x0 PUSH2 0xA9C JUMP JUMPDEST PUSH2 0x188 PUSH1 0x1 PUSH2 0xA9C JUMP JUMPDEST ISZERO PUSH2 0xAC0 JUMPI JUMP JUMPDEST PUSH1 0x40 MLOAD PUSH3 0x461BCD PUSH1 0xE5 SHL DUP2 MSTORE PUSH1 0x20 PUSH1 0x4 DUP3 ADD MSTORE PUSH1 0x21 PUSH1 0x24 DUP3 ADD MSTORE PUSH32 0x4552433732313A20617070726F76616C20746F2063757272656E74206F776E65 PUSH1 0x44 DUP3 ADD MSTORE PUSH1 0x39 PUSH1 0xF9 SHL PUSH1 0x64 DUP3 ADD MSTORE PUSH1 0x84 SWAP1 REVERT JUMPDEST ISZERO PUSH2 0xB16 JUMPI JUMP JUMPDEST PUSH1 0x40 MLOAD PUSH3 0x461BCD PUSH1 0xE5 SHL DUP2 MSTORE PUSH1 0x20 PUSH1 0x4 DUP3 ADD MSTORE PUSH1 0x3D PUSH1 0x24 DUP3 ADD MSTORE PUSH32 0x4552433732313A20617070726F76652063616C6C6572206973206E6F7420746F PUSH1 0x44 DUP3 ADD MSTORE PUSH32 0x6B656E206F776E6572206F7220617070726F76656420666F7220616C6C000000 PUSH1 0x64 DUP3 ADD MSTORE PUSH1 0x84 SWAP1 REVERT JUMPDEST SWAP1 PUSH2 0x172 SWAP2 PUSH2 0xBCC PUSH2 0xB92 DUP4 PUSH2 0x97B JUMP JUMPDEST PUSH2 0xBB0 PUSH1 0x1 PUSH1 0x1 PUSH1 0xA0 SHL SUB DUP3 AND PUSH1 0x1 PUSH1 0x1 PUSH1 0xA0 SHL SUB DUP6 AND EQ ISZERO PUSH2 0xAB9 JUMP JUMPDEST CALLER PUSH1 0x1 PUSH1 0x1 PUSH1 0xA0 SHL SUB DUP3 AND DUP2 EQ SWAP2 DUP3 ISZERO PUSH2 0xBD1 JUMPI JUMPDEST POP POP PUSH2 0xB0F JUMP JUMPDEST PUSH2 0x10A2 JUMP JUMPDEST PUSH2 0xBDB SWAP3 POP PUSH2 0xC3C JUMP JUMPDEST CODESIZE DUP1 PUSH2 0xBC5 JUMP JUMPDEST PUSH2 0x188 PUSH2 0x188 PUSH2 0x188 SWAP3 SWAP1 JUMP JUMPDEST SWAP1 PUSH2 0x8D3 SWAP1 PUSH2 0xBE2 JUMP JUMPDEST PUSH2 0x188 SWAP1 PUSH2 0x2BE JUMP JUMPDEST PUSH2 0x188 SWAP1 SLOAD PUSH2 0xBF9 JUMP JUMPDEST PUSH2 0xC2C PUSH2 0x188 SWAP2 PUSH2 0xC1B PUSH1 0x0 SWAP1 JUMP JUMPDEST POP PUSH2 0xC25 DUP2 PUSH2 0x11D3 JUMP JUMPDEST PUSH1 0x4 PUSH2 0xBEF JUMP JUMPDEST PUSH2 0xC02 JUMP JUMPDEST PUSH2 0x172 SWAP2 SWAP1 CALLER PUSH2 0x1158 JUMP JUMPDEST PUSH2 0x188 SWAP2 PUSH2 0xC57 PUSH2 0xC5C SWAP3 PUSH2 0xC4F PUSH1 0x0 SWAP1 JUMP JUMPDEST POP PUSH1 0x5 PUSH2 0x8C9 JUMP JUMPDEST PUSH2 0x8C9 JUMP JUMPDEST SLOAD PUSH1 0xFF AND SWAP1 JUMP JUMPDEST ISZERO PUSH2 0xC6A JUMPI JUMP JUMPDEST PUSH1 0x40 MLOAD PUSH3 0x461BCD PUSH1 0xE5 SHL DUP2 MSTORE PUSH1 0x20 PUSH1 0x4 DUP3 ADD MSTORE PUSH1 0x2D PUSH1 0x24 DUP3 ADD MSTORE PUSH32 0x4552433732313A2063616C6C6572206973206E6F7420746F6B656E206F776E65 PUSH1 0x44 DUP3 ADD MSTORE PUSH13 0x1C881BDC88185C1C1C9BDD9959 PUSH1 0x9A SHL PUSH1 0x64 DUP3 ADD MSTORE PUSH1 0x84 SWAP1 REVERT JUMPDEST PUSH2 0x172 SWAP3 SWAP2 SWAP1 PUSH2 0xCDD PUSH2 0xCD8 DUP5 CALLER PUSH2 0xDCD JUMP JUMPDEST PUSH2 0xC63 JUMP JUMPDEST PUSH2 0xF85 JUMP JUMPDEST SWAP1 PUSH2 0xCEF PUSH2 0x5CF DUP4 PUSH2 0x589 JUMP JUMPDEST SWAP2 DUP3 MSTORE JUMP JUMPDEST PUSH2 0x188 PUSH1 0x0 PUSH2 0xCE2 JUMP JUMPDEST PUSH2 0x188 PUSH2 0xCF4 JUMP JUMPDEST SWAP1 SWAP2 PUSH2 0x172 SWAP3 PUSH2 0xD14 PUSH2 0xCFE JUMP JUMPDEST SWAP3 JUMPDEST PUSH2 0x172 SWAP4 SWAP3 SWAP2 SWAP1 PUSH2 0xD2A PUSH2 0xCD8 DUP5 CALLER PUSH2 0xDCD JUMP JUMPDEST PUSH2 0xD97 JUMP JUMPDEST ISZERO PUSH2 0xD36 JUMPI JUMP JUMPDEST PUSH1 0x40 MLOAD JUMPDEST PUSH3 0x461BCD PUSH1 0xE5 SHL DUP2 MSTORE PUSH1 0x20 PUSH1 0x4 DUP3 ADD MSTORE PUSH1 0x32 PUSH1 0x24 DUP3 ADD MSTORE PUSH32 0x4552433732313A207472616E7366657220746F206E6F6E204552433732315265 PUSH1 0x44 DUP3 ADD MSTORE PUSH18 0x31B2B4BB32B91034B6B83632B6B2B73A32B9 PUSH1 0x71 SHL PUSH1 0x64 DUP3 ADD MSTORE PUSH1 0x84 SWAP1 REVERT JUMPDEST SWAP2 PUSH2 0x172 SWAP4 SWAP2 PUSH2 0xDB1 SWAP4 PUSH2 0xDAC DUP4 DUP4 DUP4 PUSH2 0xF85 JUMP JUMPDEST PUSH2 0x127E JUMP JUMPDEST PUSH2 0xD2F JUMP JUMPDEST PUSH2 0xC2C PUSH2 0x188 SWAP2 PUSH2 0xDC5 PUSH1 0x0 SWAP1 JUMP JUMPDEST POP PUSH1 0x2 PUSH2 0xBEF JUMP JUMPDEST PUSH2 0xDD6 DUP3 PUSH2 0x97B JUMP JUMPDEST SWAP2 PUSH1 0x1 PUSH1 0x1 PUSH1 0xA0 SHL SUB DUP4 AND PUSH1 0x1 PUSH1 0x1 PUSH1 0xA0 SHL SUB DUP4 AND EQ SWAP3 DUP4 ISZERO PUSH2 0xE30 JUMPI JUMPDEST POP DUP3 ISZERO PUSH2 0xE00 JUMPI POP POP SWAP1 JUMP JUMPDEST PUSH2 0xE2C SWAP2 SWAP3 POP PUSH2 0xE12 PUSH2 0xE1F SWAP2 PUSH2 0xC0C JUMP JUMPDEST SWAP3 PUSH1 0x1 PUSH1 0x1 PUSH1 0xA0 SHL SUB AND SWAP1 JUMP JUMPDEST SWAP2 PUSH1 0x1 PUSH1 0x1 PUSH1 0xA0 SHL SUB AND SWAP1 JUMP JUMPDEST EQ SWAP1 JUMP JUMPDEST PUSH2 0xE3D SWAP2 SWAP4 POP DUP3 SWAP1 PUSH2 0xC3C JUMP JUMPDEST SWAP2 CODESIZE PUSH2 0xDF4 JUMP JUMPDEST ISZERO PUSH2 0xE4B JUMPI JUMP JUMPDEST PUSH1 0x40 MLOAD PUSH3 0x461BCD PUSH1 0xE5 SHL DUP2 MSTORE PUSH1 0x20 PUSH1 0x4 DUP3 ADD MSTORE PUSH1 0x25 PUSH1 0x24 DUP3 ADD MSTORE PUSH32 0x4552433732313A207472616E736665722066726F6D20696E636F727265637420 PUSH1 0x44 DUP3 ADD MSTORE PUSH5 0x37BBB732B9 PUSH1 0xD9 SHL PUSH1 0x64 DUP3 ADD MSTORE PUSH1 0x84 SWAP1 REVERT JUMPDEST ISZERO PUSH2 0xEA5 JUMPI JUMP JUMPDEST PUSH1 0x40 MLOAD PUSH3 0x461BCD PUSH1 0xE5 SHL DUP2 MSTORE PUSH1 0x20 PUSH1 0x4 DUP3 ADD MSTORE PUSH1 0x24 DUP1 DUP3 ADD MSTORE PUSH32 0x4552433732313A207472616E7366657220746F20746865207A65726F20616464 PUSH1 0x44 DUP3 ADD MSTORE PUSH4 0x72657373 PUSH1 0xE0 SHL PUSH1 0x64 DUP3 ADD MSTORE PUSH1 0x84 SWAP1 REVERT JUMPDEST SWAP2 PUSH1 0x1 PUSH1 0x1 PUSH1 0xA0 SHL SUB PUSH1 0x8 SWAP3 SWAP1 SWAP3 MUL SWAP2 DUP3 SHL SWAP2 SHL JUMPDEST SWAP2 DUP2 NOT AND SWAP2 AND OR SWAP1 JUMP JUMPDEST SWAP2 SWAP1 PUSH2 0xF26 PUSH2 0x188 PUSH2 0xF2E SWAP4 PUSH2 0x8C0 JUMP JUMPDEST SWAP1 DUP4 SLOAD PUSH2 0xEF6 JUMP JUMPDEST SWAP1 SSTORE JUMP JUMPDEST PUSH2 0x172 SWAP2 PUSH1 0x0 SWAP2 PUSH2 0xF15 JUMP JUMPDEST SWAP1 PUSH1 0x0 NOT SWAP1 PUSH2 0xF0B JUMP JUMPDEST SWAP1 PUSH2 0xF58 PUSH2 0x188 PUSH2 0xF2E SWAP3 PUSH2 0xBE2 JUMP JUMPDEST DUP3 SLOAD PUSH2 0xF3E JUMP JUMPDEST SWAP1 PUSH1 0x1 PUSH1 0x1 PUSH1 0xA0 SHL SUB SWAP1 PUSH2 0xF0B JUMP JUMPDEST SWAP1 PUSH2 0xF7E PUSH2 0x188 PUSH2 0xF2E SWAP3 PUSH2 0x8C0 JUMP JUMPDEST DUP3 SLOAD PUSH2 0xF5F JUMP JUMPDEST SWAP2 SWAP1 PUSH2 0xFAB PUSH2 0xF93 DUP4 PUSH2 0x97B JUMP JUMPDEST PUSH2 0xFA5 PUSH1 0x1 PUSH1 0x1 PUSH1 0xA0 SHL SUB DUP7 AND PUSH2 0xE1F JUMP JUMPDEST EQ PUSH2 0xE44 JUMP JUMPDEST PUSH2 0xFFE PUSH1 0x0 PUSH2 0xFD0 PUSH2 0xFBF PUSH2 0x2BE DUP4 PUSH2 0x838 JUMP JUMPDEST PUSH1 0x1 PUSH1 0x1 PUSH1 0xA0 SHL SUB DUP6 AND EQ ISZERO PUSH2 0xE9E JUMP JUMPDEST PUSH2 0xFEE PUSH2 0xFDC DUP6 PUSH2 0x97B JUMP JUMPDEST PUSH2 0xFA5 PUSH1 0x1 PUSH1 0x1 PUSH1 0xA0 SHL SUB DUP9 AND PUSH2 0xE1F JUMP JUMPDEST PUSH2 0xFF9 DUP5 PUSH1 0x4 PUSH2 0xBEF JUMP JUMPDEST PUSH2 0xF32 JUMP JUMPDEST PUSH2 0x1042 PUSH2 0x100B PUSH1 0x1 PUSH2 0xBE2 JUMP JUMPDEST PUSH2 0x1032 PUSH2 0x1038 DUP5 PUSH1 0x3 PUSH2 0xC57 PUSH2 0x1021 DUP11 DUP4 PUSH2 0x8C9 JUMP JUMPDEST PUSH2 0x1032 DUP8 PUSH2 0x102E DUP4 PUSH2 0x8E8 JUMP JUMPDEST SUB SWAP1 JUMP JUMPDEST SWAP1 PUSH2 0xF48 JUMP JUMPDEST SWAP2 PUSH2 0x243 DUP4 PUSH2 0x8E8 JUMP JUMPDEST PUSH2 0x1056 DUP2 PUSH2 0x1051 DUP5 PUSH1 0x2 PUSH2 0xBEF JUMP JUMPDEST PUSH2 0xF6E JUMP JUMPDEST PUSH2 0x1092 PUSH2 0x108C PUSH2 0x1086 PUSH32 0xDDF252AD1BE2C89B69C2B068FC378DAA952BA7F163C4A11628F55A4DF523B3EF SWAP6 PUSH2 0x8C0 JUMP JUMPDEST SWAP3 PUSH2 0x8C0 JUMP JUMPDEST SWAP3 PUSH2 0xBE2 JUMP JUMPDEST SWAP3 PUSH2 0x109C PUSH1 0x40 MLOAD SWAP1 JUMP JUMPDEST PUSH1 0x0 SWAP1 LOG4 JUMP JUMPDEST SWAP1 PUSH2 0x10B2 DUP3 PUSH2 0x1051 DUP4 PUSH1 0x4 PUSH2 0xBEF JUMP JUMPDEST PUSH2 0x10BB DUP2 PUSH2 0x97B JUMP JUMPDEST SWAP2 PUSH2 0x1092 PUSH2 0x108C PUSH2 0x1086 PUSH32 0x8C5BE1E5EBEC7D5BD14F71427D1E84F3DD0314C0F7B2291E5B200AC8C7C3B925 SWAP6 PUSH2 0x8C0 JUMP JUMPDEST ISZERO PUSH2 0x10F3 JUMPI JUMP JUMPDEST PUSH1 0x40 MLOAD PUSH3 0x461BCD PUSH1 0xE5 SHL DUP2 MSTORE PUSH1 0x20 PUSH1 0x4 DUP3 ADD MSTORE PUSH1 0x19 PUSH1 0x24 DUP3 ADD MSTORE PUSH32 0x4552433732313A20617070726F766520746F2063616C6C657200000000000000 PUSH1 0x44 DUP3 ADD MSTORE PUSH1 0x64 SWAP1 REVERT JUMPDEST SWAP1 PUSH1 0xFF SWAP1 PUSH2 0xF0B JUMP JUMPDEST SWAP1 PUSH2 0x1151 PUSH2 0x188 PUSH2 0xF2E SWAP3 ISZERO ISZERO SWAP1 JUMP JUMPDEST DUP3 SLOAD PUSH2 0x1138 JUMP JUMPDEST PUSH2 0x1176 PUSH1 0x1 PUSH1 0x1 PUSH1 0xA0 SHL SUB DUP4 AND PUSH1 0x1 PUSH1 0x1 PUSH1 0xA0 SHL SUB DUP4 AND EQ ISZERO PUSH2 0x10EC JUMP JUMPDEST PUSH2 0x118E DUP4 PUSH2 0x1189 DUP5 PUSH2 0xC57 DUP6 PUSH1 0x5 PUSH2 0x8C9 JUMP JUMPDEST PUSH2 0x1141 JUMP JUMPDEST PUSH2 0x11CE PUSH2 0x11C4 PUSH2 0x11BE PUSH32 0x17307EAB39AB6107E8899845AD3D59BD9653F200F220920489CA2B5937696C31 SWAP4 PUSH2 0x8C0 JUMP JUMPDEST SWAP4 PUSH2 0x8C0 JUMP JUMPDEST SWAP4 PUSH2 0x1B9 PUSH1 0x40 MLOAD SWAP1 JUMP JUMPDEST SUB SWAP1 LOG3 JUMP JUMPDEST PUSH2 0x11DF PUSH2 0x172 SWAP2 PUSH2 0x11E4 JUMP JUMPDEST PUSH2 0x92F JUMP JUMPDEST PUSH2 0x11EF SWAP1 PUSH1 0x0 PUSH2 0x982 JUMP JUMPDEST PUSH2 0x11FF PUSH2 0xE1F PUSH2 0x2BE PUSH1 0x0 PUSH2 0x838 JUMP JUMPDEST EQ ISZERO SWAP1 JUMP JUMPDEST SWAP1 POP MLOAD SWAP1 PUSH2 0x172 DUP3 PUSH2 0x152 JUMP JUMPDEST SWAP1 PUSH2 0x188 SWAP2 PUSH1 0x20 DUP2 DUP4 SUB SLT ISZERO PUSH2 0x1204 JUMPI PUSH2 0x1229 PUSH1 0x0 DUP1 REVERT JUMPDEST PUSH2 0x1204 JUMP JUMPDEST PUSH1 0x1 PUSH1 0x1 PUSH1 0xA0 SHL SUB SWAP2 DUP3 AND DUP2 MSTORE SWAP2 AND PUSH1 0x20 DUP3 ADD MSTORE PUSH1 0x40 DUP2 ADD SWAP2 SWAP1 SWAP2 MSTORE PUSH1 0x80 PUSH1 0x60 DUP3 ADD DUP2 SWAP1 MSTORE PUSH2 0x188 SWAP3 SWAP2 ADD SWAP1 PUSH2 0x219 JUMP JUMPDEST RETURNDATASIZE ISZERO PUSH2 0x1279 JUMPI PUSH2 0x126E RETURNDATASIZE PUSH2 0xCE2 JUMP JUMPDEST SWAP1 RETURNDATASIZE PUSH1 0x0 PUSH1 0x20 DUP5 ADD RETURNDATACOPY JUMP JUMPDEST PUSH1 0x60 SWAP1 JUMP JUMPDEST SWAP2 SWAP1 SWAP4 SWAP3 PUSH2 0x128A PUSH1 0x0 SWAP1 JUMP JUMPDEST SWAP5 PUSH2 0x1294 DUP2 PUSH2 0x1380 JUMP JUMPDEST ISZERO PUSH2 0x1376 JUMPI SWAP1 PUSH2 0x12DB PUSH1 0x0 PUSH2 0x12B3 PUSH2 0x12AE PUSH1 0x20 SWAP7 SWAP6 PUSH2 0x8C0 JUMP JUMPDEST PUSH2 0x8C0 JUMP JUMPDEST SWAP3 PUSH2 0x12E6 PUSH4 0x150B7A02 SWAP2 PUSH2 0x12C4 CALLER SWAP1 JUMP JUMPDEST SWAP7 PUSH2 0x12CE PUSH1 0x40 MLOAD SWAP1 JUMP JUMPDEST SWAP10 DUP11 SWAP9 DUP10 SWAP8 DUP9 SWAP7 PUSH1 0xE0 SHL SWAP1 JUMP JUMPDEST DUP7 MSTORE PUSH1 0x4 DUP7 ADD PUSH2 0x122E JUMP JUMPDEST SUB SWAP3 GAS CALL PUSH1 0x0 SWAP2 DUP2 PUSH2 0x1346 JUMPI JUMPDEST POP PUSH2 0x1329 JUMPI POP PUSH2 0x1301 PUSH2 0x125F JUMP JUMPDEST DUP1 MLOAD PUSH2 0x1314 PUSH2 0x1310 PUSH1 0x0 PUSH2 0xBE2 JUMP JUMPDEST SWAP2 SWAP1 JUMP JUMPDEST SUB PUSH2 0x1321 JUMPI PUSH1 0x40 MLOAD PUSH2 0xD3A JUMP JUMPDEST DUP1 MLOAD SWAP1 PUSH1 0x20 ADD REVERT JUMPDEST SWAP1 SWAP2 POP PUSH2 0xE2C PUSH4 0xA85BD01 PUSH1 0xE1 SHL JUMPDEST SWAP2 PUSH1 0x1 PUSH1 0x1 PUSH1 0xE0 SHL SUB NOT AND SWAP1 JUMP JUMPDEST PUSH2 0x1368 SWAP2 SWAP3 POP PUSH1 0x20 RETURNDATASIZE DUP2 GT PUSH2 0x136F JUMPI JUMPDEST PUSH2 0x1360 DUP2 DUP4 PUSH2 0x546 JUMP JUMPDEST DUP2 ADD SWAP1 PUSH2 0x1211 JUMP JUMPDEST SWAP1 CODESIZE PUSH2 0x12F3 JUMP JUMPDEST POP RETURNDATASIZE PUSH2 0x1356 JUMP JUMPDEST POP PUSH1 0x1 SWAP5 POP POP POP POP JUMP JUMPDEST EXTCODESIZE PUSH2 0x138E PUSH2 0x1310 PUSH1 0x0 PUSH2 0xBE2 JUMP JUMPDEST GT SWAP1 JUMP JUMPDEST PUSH2 0xE2C PUSH4 0x1FFC9A7 PUSH1 0xE0 SHL PUSH2 0x1338 JUMP JUMPDEST POP PUSH4 0x4E487B71 PUSH1 0xE0 SHL PUSH1 0x0 MSTORE PUSH1 0x11 PUSH1 0x4 MSTORE PUSH1 0x24 PUSH1 0x0 REVERT JUMPDEST PUSH1 0x1 SWAP1 PUSH1 0x0 NOT DUP2 EQ PUSH2 0x13C9 JUMPI ADD SWAP1 JUMP JUMPDEST PUSH2 0x243 PUSH2 0x13A2 JUMP JUMPDEST PUSH2 0x13F8 SWAP1 PUSH2 0x13E9 CALLER PUSH2 0x13E3 PUSH1 0x6 PUSH2 0x8E8 JUMP JUMPDEST SWAP1 PUSH2 0x1414 JUMP JUMPDEST PUSH2 0x13F3 PUSH1 0x6 PUSH2 0x8E8 JUMP JUMPDEST PUSH2 0x1735 JUMP JUMPDEST PUSH2 0x172 PUSH2 0x140D PUSH2 0x1408 PUSH1 0x6 PUSH2 0x8E8 JUMP JUMPDEST PUSH2 0x13B9 JUMP JUMPDEST PUSH1 0x6 PUSH2 0xF48 JUMP JUMPDEST PUSH2 0x172 SWAP2 PUSH2 0x1420 PUSH2 0xCFE JUMP JUMPDEST PUSH2 0xDB1 SWAP2 PUSH2 0x172 SWAP4 PUSH2 0x1432 DUP3 DUP3 PUSH2 0x14D8 JUMP JUMPDEST PUSH2 0xDAC PUSH1 0x0 PUSH2 0x838 JUMP JUMPDEST ISZERO PUSH2 0x1443 JUMPI JUMP JUMPDEST PUSH1 0x40 MLOAD PUSH3 0x461BCD PUSH1 0xE5 SHL DUP2 MSTORE DUP1 PUSH2 0x89F PUSH1 0x4 DUP3 ADD PUSH1 0x20 DUP1 DUP3 MSTORE DUP2 DUP2 ADD MSTORE PUSH32 0x4552433732313A206D696E7420746F20746865207A65726F2061646472657373 PUSH1 0x40 DUP3 ADD MSTORE PUSH1 0x60 ADD SWAP1 JUMP JUMPDEST ISZERO PUSH2 0x1493 JUMPI JUMP JUMPDEST PUSH1 0x40 MLOAD PUSH3 0x461BCD PUSH1 0xE5 SHL DUP2 MSTORE PUSH1 0x20 PUSH1 0x4 DUP3 ADD MSTORE PUSH1 0x1C PUSH1 0x24 DUP3 ADD MSTORE PUSH32 0x4552433732313A20746F6B656E20616C7265616479206D696E74656400000000 PUSH1 0x44 DUP3 ADD MSTORE PUSH1 0x64 SWAP1 REVERT JUMPDEST SWAP1 PUSH2 0x14E3 PUSH1 0x0 PUSH2 0x838 JUMP JUMPDEST SWAP2 PUSH2 0x1502 PUSH1 0x1 PUSH1 0x1 PUSH1 0xA0 SHL SUB DUP5 AND PUSH1 0x1 PUSH1 0x1 PUSH1 0xA0 SHL SUB DUP4 AND EQ ISZERO PUSH2 0x143C JUMP JUMPDEST PUSH2 0x151A PUSH2 0x1515 PUSH2 0x1511 DUP5 PUSH2 0x11E4 JUMP JUMPDEST ISZERO SWAP1 JUMP JUMPDEST PUSH2 0x148C JUMP JUMPDEST PUSH2 0x1529 PUSH2 0x1515 PUSH2 0x1511 DUP5 PUSH2 0x11E4 JUMP JUMPDEST PUSH2 0x1042 PUSH2 0x1536 PUSH1 0x1 PUSH2 0xBE2 JUMP JUMPDEST PUSH2 0x1032 PUSH2 0x1038 DUP5 PUSH1 0x3 PUSH2 0x8C9 JUMP JUMPDEST ISZERO PUSH2 0x154B JUMPI JUMP JUMPDEST PUSH1 0x40 MLOAD PUSH3 0x461BCD PUSH1 0xE5 SHL DUP2 MSTORE PUSH1 0x20 PUSH1 0x4 DUP3 ADD MSTORE PUSH1 0x2C PUSH1 0x24 DUP3 ADD MSTORE PUSH32 0x4552433732314D657461646174613A2055524920736574206F66206E6F6E6578 PUSH1 0x44 DUP3 ADD MSTORE PUSH12 0x34B9BA32B73A103A37B5B2B7 PUSH1 0xA1 SHL PUSH1 0x64 DUP3 ADD MSTORE PUSH1 0x84 SWAP1 REVERT JUMPDEST SWAP2 PUSH1 0x0 NOT PUSH1 0x8 SWAP3 SWAP1 SWAP3 MUL SWAP2 DUP3 SHL SWAP2 SHL PUSH2 0xF0B JUMP JUMPDEST SWAP2 SWAP1 PUSH2 0x15CA PUSH2 0x188 PUSH2 0xF2E SWAP4 PUSH2 0xBE2 JUMP JUMPDEST SWAP1 DUP4 SLOAD PUSH2 0x15A5 JUMP JUMPDEST PUSH2 0x172 SWAP2 PUSH1 0x0 SWAP2 PUSH2 0x15B9 JUMP JUMPDEST DUP2 DUP2 LT PUSH2 0x15E9 JUMPI POP POP JUMP JUMPDEST DUP1 PUSH2 0x15F7 PUSH1 0x0 PUSH1 0x1 SWAP4 PUSH2 0x15D2 JUMP JUMPDEST ADD PUSH2 0x15DE JUMP JUMPDEST SWAP2 SWAP1 PUSH1 0x1F DUP2 GT PUSH2 0x160C JUMPI POP POP POP JUMP JUMPDEST PUSH2 0x161E PUSH2 0x172 SWAP4 PUSH1 0x0 MSTORE PUSH1 0x20 PUSH1 0x0 KECCAK256 SWAP1 JUMP JUMPDEST SWAP1 PUSH1 0x20 PUSH1 0x1F DUP5 ADD DUP2 SWAP1 DIV DUP4 ADD SWAP4 LT PUSH2 0x1640 JUMPI JUMPDEST PUSH1 0x20 PUSH1 0x1F SWAP1 SWAP2 ADD DIV ADD SWAP1 PUSH2 0x15DE JUMP JUMPDEST SWAP1 SWAP2 POP DUP2 SWAP1 PUSH2 0x1631 JUMP JUMPDEST SWAP1 PUSH2 0x1653 DUP2 MLOAD SWAP1 JUMP JUMPDEST SWAP1 PUSH8 0xFFFFFFFFFFFFFFFF DUP3 GT PUSH2 0x171E JUMPI JUMPDEST PUSH2 0x1678 DUP3 PUSH2 0x1672 DUP6 SLOAD PUSH2 0x9C0 JUMP JUMPDEST DUP6 PUSH2 0x15FD JUMP JUMPDEST PUSH1 0x20 SWAP1 PUSH1 0x1F DUP4 GT PUSH1 0x1 EQ PUSH2 0x16B3 JUMPI PUSH2 0xF2E SWAP3 SWAP2 PUSH1 0x0 SWAP2 DUP4 PUSH2 0x16A8 JUMPI JUMPDEST POP POP PUSH1 0x0 NOT PUSH1 0x8 DUP4 MUL SHR NOT AND SWAP1 PUSH1 0x2 MUL OR SWAP1 JUMP JUMPDEST ADD MLOAD SWAP1 POP CODESIZE DUP1 PUSH2 0x1694 JUMP JUMPDEST PUSH1 0x1F NOT DUP4 AND SWAP2 PUSH2 0x16C8 DUP6 PUSH1 0x0 MSTORE PUSH1 0x20 PUSH1 0x0 KECCAK256 SWAP1 JUMP JUMPDEST SWAP3 PUSH1 0x0 JUMPDEST DUP2 DUP2 LT PUSH2 0x1706 JUMPI POP SWAP2 PUSH1 0x2 SWAP4 SWAP2 DUP6 PUSH1 0x1 SWAP7 SWAP5 LT PUSH2 0x16ED JUMPI JUMPDEST POP POP POP MUL ADD SWAP1 SSTORE JUMP JUMPDEST ADD MLOAD PUSH1 0x0 NOT PUSH1 0x8 PUSH1 0x1F DUP6 AND MUL SHR NOT AND SWAP1 SSTORE CODESIZE DUP1 DUP1 PUSH2 0x16E4 JUMP JUMPDEST SWAP2 SWAP4 PUSH1 0x20 PUSH1 0x1 DUP2 SWAP3 DUP8 DUP8 ADD MLOAD DUP2 SSTORE ADD SWAP6 ADD SWAP3 ADD PUSH2 0x16CC JUMP JUMPDEST PUSH2 0x1726 PUSH2 0x52F JUMP JUMPDEST PUSH2 0x1664 JUMP JUMPDEST SWAP1 PUSH2 0x172 SWAP2 PUSH2 0x164A JUMP JUMPDEST SWAP1 PUSH2 0x1755 PUSH2 0x172 SWAP3 PUSH2 0x174E PUSH2 0x1749 DUP3 PUSH2 0x11E4 JUMP JUMPDEST PUSH2 0x1544 JUMP JUMPDEST PUSH1 0x7 PUSH2 0xBEF JUMP JUMPDEST PUSH2 0x172B JUMP JUMPDEST PUSH2 0x1776 PUSH2 0x188 SWAP2 PUSH2 0x1769 PUSH1 0x60 SWAP1 JUMP JUMPDEST POP PUSH2 0x174E PUSH2 0x1749 DUP3 PUSH2 0x11E4 JUMP JUMPDEST PUSH2 0xA9C JUMP INVALID LOG2 PUSH5 0x6970667358 0x22 SLT KECCAK256 PUSH18 0xCA75E9954A38704D4450F8F584E65116985D 0xAC 0xD8 MULMOD DUP16 0xAA 0x25 SWAP11 PUSH29 0x50D93F416364736F6C6343000811003300000000000000000000000000 "},"methodIdentifiers":{"approve(address,uint256)":"095ea7b3","balanceOf(address)":"70a08231","getApproved(uint256)":"081812fc","isApprovedForAll(address,address)":"e985e9c5","mint(string)":"d85d3d27","name()":"06fdde03","ownerOf(uint256)":"6352211e","safeTransferFrom(address,address,uint256)":"42842e0e","safeTransferFrom(address,address,uint256,bytes)":"b88d4fde","setApprovalForAll(address,bool)":"a22cb465","supportsInterface(bytes4)":"01ffc9a7","symbol()":"95d89b41","tokenCounter()":"d082e381","tokenURI(uint256)":"c87b56dd","transferFrom(address,address,uint256)":"23b872dd"}}}}}