{
  "_format": "hh-sol-artifact-1",
  "contractName": "StudentRegistry",
  "sourceName": "contracts/StudentRegistry.sol",
  "abi": [
    {
      "anonymous": false,
      "inputs": [
        {
          "indexed": true,
          "internalType": "address",
          "name": "studentAddress",
          "type": "address"
        },
        {
          "indexed": false,
          "internalType": "string",
          "name": "firstName",
          "type": "string"
        },
        {
          "indexed": false,
          "internalType": "string",
          "name": "lastName",
          "type": "string"
        },
        {
          "indexed": false,
          "internalType": "string",
          "name": "degree",
          "type": "string"
        },
        {
          "indexed": false,
          "internalType": "string",
          "name": "major",
          "type": "string"
        },
        {
          "indexed": false,
          "internalType": "uint256",
          "name": "year",
          "type": "uint256"
        }
      ],
      "name": "StudentCreated",
      "type": "event"
    },
    {
      "anonymous": false,
      "inputs": [
        {
          "indexed": true,
          "internalType": "address",
          "name": "studentAddress",
          "type": "address"
        }
      ],
      "name": "StudentDeleted",
      "type": "event"
    },
    {
      "anonymous": false,
      "inputs": [
        {
          "indexed": true,
          "internalType": "address",
          "name": "studentAddress",
          "type": "address"
        },
        {
          "indexed": false,
          "internalType": "string",
          "name": "firstName",
          "type": "string"
        },
        {
          "indexed": false,
          "internalType": "string",
          "name": "lastName",
          "type": "string"
        },
        {
          "indexed": false,
          "internalType": "string",
          "name": "degree",
          "type": "string"
        },
        {
          "indexed": false,
          "internalType": "string",
          "name": "major",
          "type": "string"
        },
        {
          "indexed": false,
          "internalType": "uint256",
          "name": "year",
          "type": "uint256"
        }
      ],
      "name": "StudentUpdated",
      "type": "event"
    },
    {
      "inputs": [
        {
          "internalType": "string",
          "name": "_firstName",
          "type": "string"
        },
        {
          "internalType": "string",
          "name": "_lastName",
          "type": "string"
        },
        {
          "internalType": "string",
          "name": "_degree",
          "type": "string"
        },
        {
          "internalType": "string",
          "name": "_major",
          "type": "string"
        },
        {
          "internalType": "uint256",
          "name": "_year",
          "type": "uint256"
        }
      ],
      "name": "createStudent",
      "outputs": [],
      "stateMutability": "nonpayable",
      "type": "function"
    },
    {
      "inputs": [],
      "name": "deleteStudent",
      "outputs": [],
      "stateMutability": "nonpayable",
      "type": "function"
    },
    {
      "inputs": [],
      "name": "issueCertificate",
      "outputs": [
        {
          "internalType": "bytes",
          "name": "",
          "type": "bytes"
        }
      ],
      "stateMutability": "view",
      "type": "function"
    },
    {
      "inputs": [],
      "name": "readStudent",
      "outputs": [
        {
          "internalType": "string",
          "name": "",
          "type": "string"
        },
        {
          "internalType": "string",
          "name": "",
          "type": "string"
        },
        {
          "internalType": "string",
          "name": "",
          "type": "string"
        },
        {
          "internalType": "string",
          "name": "",
          "type": "string"
        },
        {
          "internalType": "uint256",
          "name": "",
          "type": "uint256"
        }
      ],
      "stateMutability": "view",
      "type": "function"
    },
    {
      "inputs": [
        {
          "internalType": "address",
          "name": "",
          "type": "address"
        }
      ],
      "name": "students",
      "outputs": [
        {
          "internalType": "string",
          "name": "firstName",
          "type": "string"
        },
        {
          "internalType": "string",
          "name": "lastName",
          "type": "string"
        },
        {
          "components": [
            {
              "internalType": "string",
              "name": "degree",
              "type": "string"
            },
            {
              "internalType": "string",
              "name": "major",
              "type": "string"
            },
            {
              "internalType": "uint256",
              "name": "year",
              "type": "uint256"
            }
          ],
          "internalType": "struct StudentRegistry.Education",
          "name": "education",
          "type": "tuple"
        }
      ],
      "stateMutability": "view",
      "type": "function"
    },
    {
      "inputs": [
        {
          "internalType": "string",
          "name": "_firstName",
          "type": "string"
        },
        {
          "internalType": "string",
          "name": "_lastName",
          "type": "string"
        },
        {
          "internalType": "string",
          "name": "_degree",
          "type": "string"
        },
        {
          "internalType": "string",
          "name": "_major",
          "type": "string"
        },
        {
          "internalType": "uint256",
          "name": "_year",
          "type": "uint256"
        }
      ],
      "name": "updateStudent",
      "outputs": [],
      "stateMutability": "nonpayable",
      "type": "function"
    }
  ],
  "bytecode": "0x60806040523461001b575b6040516113b961002982396113b990f35b610023600080fd5b61000a56fe60806040526004361015610018575b610016600080fd5b005b60003560e01c80634e920ef814610090578063818169331461008757806392b2424d1461007e578063a6c807a914610075578063ec02547f1461006c5763f2750eaf0361000e576100676106d1565b61000e565b506100676106aa565b50610067610671565b506100676103c5565b506100676101c0565b50610067610168565b600080fd5b60009103126100a957565b6100b1600080fd5b565b60005b8381106100c65750506000910152565b81810151838201526020016100b6565b601f01601f191690565b6101016100d660209361010a936100f5815190565b80835293849260200190565b958691016100b3565b0190565b959492936101556100b1956101476080956101396101639660a08d01908d60008184039101526100e0565b908b820360208d01526100e0565b9089820360408b01526100e0565b9087820360608901526100e0565b940152565b503461019f575b61017a36600461009e565b61019b610185610bde565b9161019295939560405190565b9586958661010e565b0390f35b6101a7600080fd5b61016f565b60208082526101bd929101906100e0565b90565b50346101e9575b6101d236600461009e565b61019b6101dd6110e6565b604051918291826101ac565b6101f1600080fd5b6101c7565b50634e487b7160e01b600052604160045260246000fd5b90601f01601f1916810190811067ffffffffffffffff82111761022f57604052565b6102376101f6565b604052565b906100b161024960405190565b928361020d565b61010a60209167ffffffffffffffff811161026f57601f01601f191690565b6100d66101f6565b90826000939282370152565b9291906100b19161029b61029683610250565b61023c565b9482865260208601918382011115610277576102b5600080fd5b610277565b906101bd9181601f820112156102d6575b602081359101610283565b6102de600080fd5b6102cb565b805b0361009957565b905035906100b1826102e3565b919060a0838203126103b8575b61032381843567ffffffffffffffff811161039e575b85016102ba565b9261034482602083013567ffffffffffffffff81116103ab575b83016102ba565b926101bd61036784604085013567ffffffffffffffff811161039e5785016102ba565b9361038881606086013567ffffffffffffffff8111610391575b86016102ba565b936080016102ec565b610399600080fd5b610381565b6103a6600080fd5b61031c565b6103b3600080fd5b61033d565b6103c0600080fd5b610306565b50346103e8575b6103e36103da3660046102f9565b93929092610a81565b604051005b6103f0600080fd5b6103cc565b6001600160a01b031690565b6001600160a01b0381166102e5565b905035906100b182610401565b906101bd916020818303121561041057610435600080fd5b610410565b6101bd906103f5906001600160a01b031682565b6101bd9061043a565b6101bd9061044e565b9061046a90610457565b600052602052604060002090565b50634e487b7160e01b600052602260045260246000fd5b90600160028304921680156104b2575b60208310146104aa57565b6100b1610478565b91607f169161049f565b805460009392916104d96104cf8361048f565b8085529360200190565b916001811690811561052b57506001146104f257505050565b6105059192939450600052602060002090565b916000925b8184106105175750500190565b80548484015260209093019260010161050a565b92949550505060ff1916825215156020020190565b906101bd916104bc565b906100b16105649261055b60405190565b93848092610540565b038361020d565b6101bd9081565b6101bd905461056b565b6101bd606061023c565b906100b16105c4600261059761057c565b946105a86105a48261054a565b8752565b6105be6105b76001830161054a565b6020880152565b01610572565b6040840152565b6105d6906000610460565b6105df8161054a565b916101bd60026105f16001850161054a565b9301610586565b906101bd9060408061062e61061c60608501600088015186820360008801526100e0565b602087015185820360208701526100e0565b940151910152565b91610663906106556101bd9593606086019086820360008801526100e0565b9084820360208601526100e0565b9160408184039101526105f8565b503461069d575b61019b61068e61068936600461041d565b6105cb565b60405191939193849384610636565b6106a5600080fd5b610678565b50346106c4575b6106bc36600461009e565b6103e3610f32565b6106cc600080fd5b6106b1565b50346106ef575b6103e36106e63660046102f9565b93929092610c21565b6106f7600080fd5b6106d8565b6101bd6101bd6101bd9290565b1561071057565b60405162461bcd60e51b815260206004820152601a60248201527f4669727374206e616d652063616e6e6f7420626520656d7074790000000000006044820152606490fd5b1561075c57565b60405162461bcd60e51b815260206004820152601960248201527f4c617374206e616d652063616e6e6f7420626520656d707479000000000000006044820152606490fd5b156107a857565b60405162461bcd60e51b81526020600482015260166024820152754465677265652063616e6e6f7420626520656d70747960501b6044820152606490fd5b156107ed57565b60405162461bcd60e51b81526020600482015260156024820152744d616a6f722063616e6e6f7420626520656d70747960581b6044820152606490fd5b50634e487b7160e01b600052600060045260246000fd5b9160001960089290920291821b911b5b9181191691161790565b919061086c6101bd610874936106fc565b908354610841565b9055565b6100b19160009161085b565b81811061088f575050565b8061089d6000600193610878565b01610884565b9190601f81116108b257505050565b6108c46100b193600052602060002090565b906020601f8401819004830193106108e7575b6020601f909101045b0190610884565b90915081906108d7565b600019600883021c1916906002021790565b9061090c815190565b9067ffffffffffffffff82116109ca575b6109318261092b855461048f565b856108a3565b602090601f831160011461095f57610874929160009183610954575b50506108f1565b01519050388061094d565b601f1983169161097485600052602060002090565b9260005b8181106109b257509160029391856001969410610999575b50505002019055565b01516000196008601f8516021c19169055388080610990565b91936020600181928787015181550195019201610978565b6109d26101f6565b61091d565b906100b191610903565b5190565b9060001990610851565b906109ff6101bd610874926106fc565b82546109e5565b90610a43604060026100b194610a2a60008201610a24600088015190565b906109d7565b610a3c60018201610a24602088015190565b0192015190565b906109ef565b906100b191610a06565b90610a71604060026100b194610a2a60008201610a24600088015190565b90610a49565b906100b191610a53565b909193610b9d90610a926109e18490565b94610aaf600096610aa9610aa5896106fc565b9190565b11610709565b610acc610aba865190565b610ac6610aa5896106fc565b11610755565b610ae9610ad7885190565b610ae3610aa5896106fc565b116107a1565b610b06610af4825190565b610b00610aa5896106fc565b116107e6565b610b69610b1161057c565b610b1b8989830152565b610b26836020830152565b610b31846040830152565b610b59610b3c61057c565b91610b47888b850152565b610b52896020850152565b6040830152565b610b64338099610460565b610a77565b610b937f7b2915ee83b60c835e492363a7976b66ae49d42f51b0824c27b0ecd4a89c18d496610457565b9661019260405190565b0390a2565b906100b16105c46002610bb361057c565b94610bc06105a48261054a565b610bcf6105b76001830161054a565b01610586565b6101bd90610ba2565b600090610bf3610bee3384610460565b610bd5565b9180830151604060208501519401918251015192610c1960406020855101519451015190565b919493929190565b909193610b9d90610c326109e18490565b94610c45600096610aa9610aa5896106fc565b610c50610aba865190565b610c5b610ad7885190565b610c66610af4825190565b610cc1610c7161057c565b610c7b8989830152565b610c86836020830152565b610c91846040830152565b60023398610cae88610ca66101bd8d85610460565b9283016109d7565b610cbb89600183016109d7565b01610a49565b610b937f23bc9910b06b4440a923ecc439f6e57a3bc500bebf0b8c6c90e9a73633344ea796610457565b90610cfe90600019906020036008021c90565b8154169055565b90600091610d23610d1b82600052602060002090565b9283546108f1565b905555565b9192906020821015610d8057601f8411600114610d4a576108749293506108f1565b5090610d7b6100b1936001610d72610d6785600052602060002090565b92601f602091010490565b82019101610884565b610d05565b50610db98293610d97600194600052602060002090565b6108e06020601f860104820192601f861680610dc1575b50601f602091010490565b600202179055565b610dcd90888603610ceb565b38610dae565b929091602090680100000000000000008311610e2d575b1015610e21576020811015610e0257610874916108f1565b60019160ff1916610e1884600052602060002090565b55600202019055565b60019150600202019055565b610e356101f6565b610dea565b908154610e468161048f565b90818311610e6f575b818310610e5d575b50505050565b610e6693610d28565b38808080610e57565b610e7b83838387610dd3565b610e4f565b50634e487b7160e01b600052601160045260246000fd5b60006100b191610e3a565b6100b19115610e9757610eb361082a565b610e97565b600060026100b192610ecc83808301610ea2565b610ed98360018301610ea2565b01610878565b6100b19115610eb857610ef061082a565b610eb8565b600060026100b192610f0983808301610ea2565b610f168360018301610ea2565b01610edf565b6100b19115610ef557610f2d61082a565b610ef5565b33610f476000610f428382610460565b610f1c565b610f717f8b92780c414b9f0cc7e66f9ea0f7eb6a8cf72ac0571cd2445169f4c35c37418391610457565b90610f7b60405190565b8080610b9d565b61010a610f9a92602092610f94815190565b94859290565b938491016100b3565b60209561102b61109d6101bd999761102b61108d6110d79961102b61103e6110d29b61102b6110316110bc9d61102b6110026110ad9f7f4365727469666963617465206f662047726164756174696f6e0a0a00000000008152601b0190565b7f5468697320697320746f20636572746966792074686174200000000000000000815260180190565b90610f82565b600160fd1b815260010190565b7f20686173207375636365737366756c6c7920636f6d706c65746564207468652081527f726571756972656d656e747320666f722074686520646567726565206f6620006020820152603f0190565b6301034b7160e51b815260040190565b6301037b7160e51b815260040190565b6217050560e91b815260030190565b69024b9b9bab2b21037b7160b51b8152600a0190565b918252565b0161170560f11b815260020190565b6101bd6101bd60006101bd6110fe610bee3384610460565b8281015161114760406020840151930194855101519461112e61112960406020845101519351015190565b6112a6565b429161113960405190565b978896602088019687610fa3565b9081038252038261020d565b906110d261029683610250565b61116a6001611153565b600360fc1b602082015290565b6101bd611160565b600190600019811461118f570190565b61010a610e80565b50634e487b7160e01b600052601260045260246000fd5b81156111b8570490565b6111c0611197565b0490565b369037565b906100b16111df6111d984611153565b93610250565b601f1901602084016111c4565b81156111f6570690565b6111fe611197565b0690565b9190820180921161120f57565b6100b1610e80565b6112246101bd6101bd9290565b60ff1690565b61124061123a6101bd9260ff1690565b60f81b90565b6001600160f81b03191690565b600190801561125a570390565b611262610e80565b0390565b50634e487b7160e01b600052603260045260246000fd5b90600160209161128b845190565b811015611299575b02010190565b6112a1611266565b611293565b9060006112b2816106fc565b83146113785790829060005b6112c7846106fc565b83146112f0576112d96112ea9161117f565b926112e4600a6106fc565b906111ae565b916112be565b9150916112fc826111c9565b91935b611308826106fc565b811461136d57611368906112e4600a61135561134f61134a611345603061134061133a611334886106fc565b8a6111ec565b916106fc565b611202565b611217565b61122a565b9861124d565b97851a611362898861127d565b536106fc565b6112ff565b50506101bd91925090565b5090506101bd61117756fea2646970667358221220d31f4c034c6816a4cf47c3f73ddb2a257bee1878c7ec90050f95a4f00c0990e564736f6c63430008110033",
  "linkReferences": {},
  "deployedLinkReferences": {}
}