{
  "_format": "hh-sol-artifact-1",
  "contractName": "CERTNFT",
  "sourceName": "contracts/NFT.sol",
  "abi": [
    {
      "inputs": [
        {
          "internalType": "address[]",
          "name": "_owners",
          "type": "address[]"
        },
        {
          "internalType": "string",
          "name": "_name",
          "type": "string"
        },
        {
          "internalType": "string",
          "name": "_symbol",
          "type": "string"
        }
      ],
      "stateMutability": "nonpayable",
      "type": "constructor"
    },
    {
      "anonymous": false,
      "inputs": [
        {
          "indexed": true,
          "internalType": "address",
          "name": "owner",
          "type": "address"
        },
        {
          "indexed": true,
          "internalType": "address",
          "name": "approved",
          "type": "address"
        },
        {
          "indexed": true,
          "internalType": "uint256",
          "name": "tokenId",
          "type": "uint256"
        }
      ],
      "name": "Approval",
      "type": "event"
    },
    {
      "anonymous": false,
      "inputs": [
        {
          "indexed": true,
          "internalType": "address",
          "name": "owner",
          "type": "address"
        },
        {
          "indexed": true,
          "internalType": "address",
          "name": "operator",
          "type": "address"
        },
        {
          "indexed": false,
          "internalType": "bool",
          "name": "approved",
          "type": "bool"
        }
      ],
      "name": "ApprovalForAll",
      "type": "event"
    },
    {
      "anonymous": false,
      "inputs": [
        {
          "indexed": false,
          "internalType": "string",
          "name": "code",
          "type": "string"
        }
      ],
      "name": "Owner",
      "type": "event"
    },
    {
      "anonymous": false,
      "inputs": [
        {
          "indexed": true,
          "internalType": "address",
          "name": "from",
          "type": "address"
        },
        {
          "indexed": true,
          "internalType": "address",
          "name": "to",
          "type": "address"
        },
        {
          "indexed": true,
          "internalType": "uint256",
          "name": "tokenId",
          "type": "uint256"
        }
      ],
      "name": "Transfer",
      "type": "event"
    },
    {
      "anonymous": false,
      "inputs": [
        {
          "indexed": false,
          "internalType": "address",
          "name": "owner",
          "type": "address"
        },
        {
          "indexed": false,
          "internalType": "uint256",
          "name": "tokenid",
          "type": "uint256"
        },
        {
          "indexed": false,
          "internalType": "string",
          "name": "url",
          "type": "string"
        },
        {
          "indexed": false,
          "internalType": "string",
          "name": "code",
          "type": "string"
        }
      ],
      "name": "mintnft",
      "type": "event"
    },
    {
      "inputs": [
        {
          "internalType": "address",
          "name": "_operator",
          "type": "address"
        }
      ],
      "name": "addOperator",
      "outputs": [],
      "stateMutability": "nonpayable",
      "type": "function"
    },
    {
      "inputs": [
        {
          "internalType": "address",
          "name": "to",
          "type": "address"
        },
        {
          "internalType": "uint256",
          "name": "tokenId",
          "type": "uint256"
        }
      ],
      "name": "approve",
      "outputs": [],
      "stateMutability": "nonpayable",
      "type": "function"
    },
    {
      "inputs": [
        {
          "internalType": "address",
          "name": "owner",
          "type": "address"
        }
      ],
      "name": "balanceOf",
      "outputs": [
        {
          "internalType": "uint256",
          "name": "",
          "type": "uint256"
        }
      ],
      "stateMutability": "view",
      "type": "function"
    },
    {
      "inputs": [],
      "name": "getAllTokenIdsAndUrls",
      "outputs": [
        {
          "internalType": "uint256[]",
          "name": "",
          "type": "uint256[]"
        },
        {
          "internalType": "string[]",
          "name": "",
          "type": "string[]"
        }
      ],
      "stateMutability": "view",
      "type": "function"
    },
    {
      "inputs": [
        {
          "internalType": "uint256",
          "name": "tokenId",
          "type": "uint256"
        }
      ],
      "name": "getApproved",
      "outputs": [
        {
          "internalType": "address",
          "name": "",
          "type": "address"
        }
      ],
      "stateMutability": "view",
      "type": "function"
    },
    {
      "inputs": [
        {
          "internalType": "address",
          "name": "owner",
          "type": "address"
        },
        {
          "internalType": "address",
          "name": "operator",
          "type": "address"
        }
      ],
      "name": "isApprovedForAll",
      "outputs": [
        {
          "internalType": "bool",
          "name": "",
          "type": "bool"
        }
      ],
      "stateMutability": "view",
      "type": "function"
    },
    {
      "inputs": [
        {
          "internalType": "string",
          "name": "tokenURI",
          "type": "string"
        }
      ],
      "name": "mint",
      "outputs": [
        {
          "internalType": "uint256",
          "name": "",
          "type": "uint256"
        }
      ],
      "stateMutability": "nonpayable",
      "type": "function"
    },
    {
      "inputs": [],
      "name": "name",
      "outputs": [
        {
          "internalType": "string",
          "name": "",
          "type": "string"
        }
      ],
      "stateMutability": "view",
      "type": "function"
    },
    {
      "inputs": [
        {
          "internalType": "uint256",
          "name": "tokenId",
          "type": "uint256"
        }
      ],
      "name": "ownerOf",
      "outputs": [
        {
          "internalType": "address",
          "name": "",
          "type": "address"
        }
      ],
      "stateMutability": "view",
      "type": "function"
    },
    {
      "inputs": [
        {
          "internalType": "uint256",
          "name": "",
          "type": "uint256"
        }
      ],
      "name": "owners",
      "outputs": [
        {
          "internalType": "address",
          "name": "",
          "type": "address"
        }
      ],
      "stateMutability": "view",
      "type": "function"
    },
    {
      "inputs": [
        {
          "internalType": "address",
          "name": "from",
          "type": "address"
        },
        {
          "internalType": "address",
          "name": "to",
          "type": "address"
        },
        {
          "internalType": "uint256",
          "name": "tokenId",
          "type": "uint256"
        }
      ],
      "name": "safeTransferFrom",
      "outputs": [],
      "stateMutability": "nonpayable",
      "type": "function"
    },
    {
      "inputs": [
        {
          "internalType": "address",
          "name": "from",
          "type": "address"
        },
        {
          "internalType": "address",
          "name": "to",
          "type": "address"
        },
        {
          "internalType": "uint256",
          "name": "tokenId",
          "type": "uint256"
        },
        {
          "internalType": "bytes",
          "name": "data",
          "type": "bytes"
        }
      ],
      "name": "safeTransferFrom",
      "outputs": [],
      "stateMutability": "nonpayable",
      "type": "function"
    },
    {
      "inputs": [
        {
          "internalType": "address",
          "name": "operator",
          "type": "address"
        },
        {
          "internalType": "bool",
          "name": "approved",
          "type": "bool"
        }
      ],
      "name": "setApprovalForAll",
      "outputs": [],
      "stateMutability": "nonpayable",
      "type": "function"
    },
    {
      "inputs": [
        {
          "internalType": "bytes4",
          "name": "interfaceId",
          "type": "bytes4"
        }
      ],
      "name": "supportsInterface",
      "outputs": [
        {
          "internalType": "bool",
          "name": "",
          "type": "bool"
        }
      ],
      "stateMutability": "view",
      "type": "function"
    },
    {
      "inputs": [],
      "name": "symbol",
      "outputs": [
        {
          "internalType": "string",
          "name": "",
          "type": "string"
        }
      ],
      "stateMutability": "view",
      "type": "function"
    },
    {
      "inputs": [
        {
          "internalType": "uint256",
          "name": "tokenId",
          "type": "uint256"
        }
      ],
      "name": "tokenURI",
      "outputs": [
        {
          "internalType": "string",
          "name": "",
          "type": "string"
        }
      ],
      "stateMutability": "view",
      "type": "function"
    },
    {
      "inputs": [
        {
          "internalType": "address",
          "name": "from",
          "type": "address"
        },
        {
          "internalType": "address",
          "name": "to",
          "type": "address"
        },
        {
          "internalType": "uint256",
          "name": "tokenId",
          "type": "uint256"
        }
      ],
      "name": "transferFrom",
      "outputs": [],
      "stateMutability": "nonpayable",
      "type": "function"
    }
  ],
  "bytecode": "0x60806040523462000032575b620000206200001962000301565b9162000492565b6040516122136200068f823961221390f35b6200003b600080fd5b6200000b565b600080fd5b50634e487b7160e01b600052604160045260246000fd5b90601f01601f191681019081106001600160401b038211176200007f57604052565b6200008962000046565b604052565b90620000a56200009d60405190565b92836200005d565b565b60209081906001600160401b038111620000c057020190565b620000ca62000046565b020190565b90565b6001600160a01b038116036200004157565b90505190620000a582620000d2565b909291926200010c6200010682620000a7565b6200008e565b93818552602080860192028301928184116200014f575b915b838310620001335750505050565b60208091620001438486620000e4565b81520192019162000125565b62000158600080fd5b62000123565b90620000cf9181601f820112156200017d575b602081519101620000f3565b62000186600080fd5b62000171565b602090620001ad906001600160401b038111620001b157601f01601f191690565b0190565b620001bb62000046565b601f01601f191690565b60005b838110620001d95750506000910152565b8181015183820152602001620001c8565b929190620000a5916200020162000106836200018c565b9482865260208601918382011115620001c5576200021d600080fd5b620001c5565b90620000cf9181601f8201121562000242575b602081519101620001ea565b6200024b600080fd5b62000236565b9091606082840312620002f2575b8151620000cf90620002859085906001600160401b038111620002e3575b85016200015e565b93620002a781602086015160018060401b038111620002d4575b860162000223565b604085015190946001600160401b038211620002c5575b0162000223565b620002ce600080fd5b620002be565b620002dd600080fd5b6200029f565b620002ec600080fd5b6200027d565b620002fb600080fd5b6200025f565b62000324620028a28038038062000318816200008e565b92833981019062000251565b909192565b620000cf620000cf620000cf9290565b91906200034e620000cf6200036a9362000329565b9083549160001960089290920291821b911b9181191691161790565b9055565b620000a59160009162000339565b81811062000388575050565b806200039860006001936200036e565b016200037c565b9091828110620003ae57505050565b620000a59290620003c6905b92600052602060002090565b90810191016200037c565b90620000a591680100000000000000008211620003f5575b8054908281556200039f565b620003ff62000046565b620003e9565b600162000439620003ba62000418855190565b94838060401b03861162000476575b620004338686620003d1565b60200190565b92049160005b8381106200044d5750505050565b600190602062000468620000cf86516001600160a01b031690565b94019381840155016200043f565b6200048062000046565b62000427565b90620000a59162000405565b90620000a592620004a391620004ab565b600862000486565b90620000a59162000674565b50634e487b7160e01b600052602260045260246000fd5b9060016002830492168015620004f5575b6020831014620004eb57565b620000a5620004b7565b91607f1691620004df565b8181106200050c575050565b806200051c60006001936200036e565b0162000500565b9190601f81116200053357505050565b62000547620000a593600052602060002090565b906020601f8401819004830193106200056b575b6020601f90910104019062000500565b90915081906200055b565b9062000580815190565b906001600160401b03821162000658575b620005a982620005a28554620004ce565b8562000523565b602090601f8311600114620005e8576200036a929160009183620005dc575b5050600019600883021c1916906002021790565b015190503880620005c8565b601f19831691620005fe85600052602060002090565b9260005b8181106200063f5750916002939185600196941062000625575b50505002019055565b01516000196008601f8516021c191690553880806200061c565b9193602060018192878701518155019501920162000602565b6200066262000046565b62000591565b90620000a59162000576565b9062000686620000a592600062000668565b60016200066856fe60806040526004361015610018575b610016600080fd5b005b60003560e01c806301ffc9a71461016c578063025e7c271461016357806306fdde031461015a578063081812fc14610151578063095ea7b31461014857806323b872dd1461013f578063387849fd1461013657806342842e0e1461012d5780636352211e1461012457806370a082311461011b57806395d89b41146101125780639870d7fe14610109578063a22cb46514610100578063b88d4fde146100f7578063c87b56dd146100ee578063d85d3d27146100e55763e985e9c50361000e576100e06109ad565b61000e565b506100e0610952565b506100e06108f3565b506100e06108c8565b506100e0610748565b506100e06106db565b506100e06106b1565b506100e0610677565b506100e0610630565b506100e0610608565b506100e06105cb565b506100e06104b2565b506100e0610447565b506100e06103d6565b506100e06103a0565b506100e06102eb565b506100e06101c4565b600080fd5b6001600160e01b031981165b0361017557565b9050359061019a8261017a565b565b906101b0916020818303126101b35761018d565b90565b6101bb600080fd5b61018d565b9052565b50346101f8575b6101f46101e16101dc36600461019c565b6109d8565b6040515b91829182901515815260200190565b0390f35b610200600080fd5b6101cb565b80610186565b9050359061019a82610205565b906101b0916020818303121561020b57610230600080fd5b61020b565b50634e487b7160e01b600052603260045260246000fd5b61026c60019161025a815490565b84101561027557600052602060002090565b91020190600090565b61027d610235565b600052602060002090565b6101b0916008021c5b6001600160a01b031690565b906101b09154610288565b600860006102b4825490565b8310156102cf57506101b0916102c99161024c565b9061029d565b80fd5b6101c090610291565b60208101929161019a91906102d2565b5034610314575b6101f4610308610303366004610218565b6102a8565b604051918291826102db565b61031c600080fd5b6102f2565b600091031261032c57565b61019a600080fd5b60005b8381106103475750506000910152565b8181015183820152602001610337565b601f01601f191690565b61038261035760209361038b93610376815190565b80835293849260200190565b95869101610334565b0190565b60208082526101b092910190610361565b50346103c9575b6103b2366004610321565b6101f46103bd610ca0565b6040519182918261038f565b6103d1600080fd5b6103a7565b50346103f3575b6101f46103086103ee366004610218565b610e0c565b6103fb600080fd5b6103dd565b61018681610291565b9050359061019a82610400565b91906101b09060408482031261043a575b6104318185610409565b9360200161020b565b610442600080fd5b610427565b5034610467575b61046261045c366004610416565b90610d7c565b604051005b61046f600080fd5b61044e565b90916060828403126104a5575b6101b061048e8484610409565b9361049c8160208601610409565b9360400161020b565b6104ad600080fd5b610481565b50346104cd575b6104626104c7366004610474565b91610ec5565b6104d5600080fd5b6104b9565b906104fa6104f36104e9845190565b8084529260200190565b9260200190565b9060005b81811061050b5750505090565b9091926105286105216001928651815260200190565b9460200190565b9291016104fe565b906101b091610361565b90610550610546835190565b8083529160200190565b90816105626020830284019460200190565b926000915b83831061057657505050505090565b9091929394602061059961059283856001950387528951610530565b9760200190565b9301930191939290610567565b60408082526101b09391926105bd918401906104da565b91602081840391015261053a565b50346105fb575b6105dd366004610321565b6105e5612130565b906101f46105f260405190565b928392836105a6565b610603600080fd5b6105d2565b5034610623575b61046261061d366004610474565b91610f06565b61062b600080fd5b61060f565b503461064d575b6101f4610308610648366004610218565b610b77565b610655600080fd5b610637565b906101b0916020818303121561040957610672600080fd5b610409565b50346106a4575b6101f461069461068f36600461065a565b610aea565b6040519182918290815260200190565b6106ac600080fd5b61067e565b50346106ce575b6106c3366004610321565b6101f46103bd610caa565b6106d6600080fd5b6106b8565b50346106f5575b6104626106f036600461065a565b612068565b6106fd600080fd5b6106e2565b801515610186565b9050359061019a82610702565b91906101b09060408482031261073b575b6107328185610409565b9360200161070a565b610743600080fd5b610728565b5034610763575b61046261075d366004610717565b90610e31565b61076b600080fd5b61074f565b50634e487b7160e01b600052604160045260246000fd5b90601f01601f1916810190811067ffffffffffffffff8211176107a957604052565b6107b1610770565b604052565b9061019a6107c360405190565b9283610787565b61038b60209167ffffffffffffffff81116107e957601f01601f191690565b610357610770565b90826000939282370152565b92919061019a91610815610810836107ca565b6107b6565b94828652602086019183820111156107f15761082f600080fd5b6107f1565b906101b09181601f82011215610850575b6020813591016107fd565b610858600080fd5b610845565b6080818303126108bb575b6108728282610409565b926101b06108838460208501610409565b93610891816040860161020b565b9360608101359067ffffffffffffffff82116108ae575b01610834565b6108b6600080fd5b6108a8565b6108c3600080fd5b610868565b50346108e6575b6104626108dd36600461085d565b92919091610f16565b6108ee600080fd5b6108cf565b5034610910575b6101f46103bd61090b366004610218565b6115a3565b610918600080fd5b6108fa565b906101b091602081830312610945575b80359067ffffffffffffffff82116108ae5701610834565b61094d600080fd5b61092d565b503461096f575b6101f461069461096a36600461091d565b611b78565b610977600080fd5b610959565b91906101b0906040848203126109a0575b6109978185610409565b93602001610409565b6109a8600080fd5b61098d565b50346109cb575b6101f46101e16109c536600461097c565b90610e3c565b6109d3600080fd5b6109b4565b6380ac58cd60e01b6001600160e01b0319821614908115610a08575b81156109fe575090565b6101b0915061177a565b6001600160e01b03198116635b5e139f60e01b1491506109f4565b6102916101b06101b09290565b6101b090610a23565b15610a4057565b60405162461bcd60e51b815260206004820152602960248201527f4552433732313a2061646472657373207a65726f206973206e6f7420612076616044820152683634b21037bbb732b960b91b6064820152608490fd5b0390fd5b6101b090610291906001600160a01b031682565b6101b090610a9b565b6101b090610aaf565b90610acb90610ab8565b600052602052604060002090565b6101b09081565b6101b09054610ad9565b610b266101b091610af9600090565b50610b1f610b0f610b0a6000610a30565b610291565b610b1883610291565b1415610a39565b6003610ac1565b610ae0565b15610b3257565b60405162461bcd60e51b815260206004820152601860248201527f4552433732313a20696e76616c696420746f6b656e20494400000000000000006044820152606490fd5b610b849060005b50610fb6565b6101b0610b94610b0a6000610a30565b610b9d83610291565b1415610b2b565b50634e487b7160e01b600052602260045260246000fd5b9060016002830492168015610bde575b6020831014610bd657565b61019a610ba4565b91607f1691610bcb565b80546000939291610c05610bfb83610bbb565b8085529360200190565b9160018116908115610c575750600114610c1e57505050565b610c319192939450600052602060002090565b916000925b818410610c435750500190565b805484840152602090930192600101610c36565b92949550505060ff1916825215156020020190565b906101b091610be8565b9061019a610c9092610c8760405190565b93848092610c6c565b0383610787565b6101b090610c76565b6101b06000610c97565b6101b06001610c97565b15610cbb57565b60405162461bcd60e51b815260206004820152602160248201527f4552433732313a20617070726f76616c20746f2063757272656e74206f776e656044820152603960f91b6064820152608490fd5b15610d1157565b60405162461bcd60e51b815260206004820152603d60248201527f4552433732313a20617070726f76652063616c6c6572206973206e6f7420746f60448201527f6b656e206f776e6572206f7220617070726f76656420666f7220616c6c0000006064820152608490fd5b9061019a91610dcc610d8d83610b77565b610da9610d9982610291565b610da285610291565b1415610cb4565b33610db382610291565b610dbc82610291565b14918215610dd1575b5050610d0a565b611285565b610ddb9250610e3c565b3880610dc5565b6101b06101b06101b09290565b90610acb90610de2565b6101b090610291565b6101b09054610df9565b610e2c6101b091610e1b600090565b50610e25816113b4565b6004610def565b610e02565b61019a91903361133b565b6101b091610e57610e5c92610e4f600090565b506005610ac1565b610ac1565b5460ff1690565b15610e6a57565b60405162461bcd60e51b815260206004820152602d60248201527f4552433732313a2063616c6c6572206973206e6f7420746f6b656e206f776e6560448201526c1c881bdc88185c1c1c9bdd9959609a1b6064820152608490fd5b61019a929190610edd610ed88433610fcd565b610e63565b611175565b90610eef610810836107ca565b918252565b6101b06000610ee2565b6101b0610ef4565b909161019a92610f14610efe565b925b61019a93929190610f2a610ed88433610fcd565b610f97565b15610f3657565b6040515b62461bcd60e51b815260206004820152603260248201527f4552433732313a207472616e7366657220746f206e6f6e20455243373231526560448201527131b2b4bb32b91034b6b83632b6b2b73a32b960711b6064820152608490fd5b9161019a9391610fb193610fac838383611175565b61146c565b610f2f565b610e2c6101b091610fc5600090565b506002610def565b610fd682610b77565b91610fe083610291565b610fe983610291565b14928315611020575b508215610ffe57505090565b61101c91925061101061101691610e0c565b92610291565b91610291565b1490565b61102d9193508290610e3c565b9138610ff2565b1561103b57565b60405162461bcd60e51b815260206004820152602560248201527f4552433732313a207472616e736665722066726f6d20696e636f72726563742060448201526437bbb732b960d91b6064820152608490fd5b1561109557565b60405162461bcd60e51b8152602060048201526024808201527f4552433732313a207472616e7366657220746f20746865207a65726f206164646044820152637265737360e01b6064820152608490fd5b916001600160a01b0360089290920291821b911b5b9181191691161790565b91906111166101b061111e93610ab8565b9083546110e6565b9055565b61019a91600091611105565b90600019906110fb565b906111486101b061111e92610de2565b825461112e565b906001600160a01b03906110fb565b9061116e6101b061111e92610ab8565b825461114f565b919061119561118383610b77565b61118f61101686610291565b14611034565b6111e160006111b96111a9610b0a83610a30565b6111b285610291565b141561108e565b6111d16111c585610b77565b61118f61101688610291565b6111dc846004610def565b611122565b6112256111ee6001610de2565b61121561121b846003610e576112048a83610ac1565b6112158761121183610ae0565b0390565b90611138565b9161038b83610ae0565b61123981611234846002610def565b61115e565b61127561126f6112697fddf252ad1be2c89b69c2b068fc378daa952ba7f163c4a11628f55a4df523b3ef95610ab8565b92610ab8565b92610de2565b9261127f60405190565b600090a4565b9061129582611234836004610def565b61129e81610b77565b9161127561126f6112697f8c5be1e5ebec7d5bd14f71427d1e84f3dd0314c0f7b2291e5b200ac8c7c3b92595610ab8565b156112d657565b60405162461bcd60e51b815260206004820152601960248201527f4552433732313a20617070726f766520746f2063616c6c6572000000000000006044820152606490fd5b9060ff906110fb565b906113346101b061111e92151590565b825461131b565b61135761134783610291565b61135083610291565b14156112cf565b61136f8361136a84610e57856005610ac1565b611324565b6113af6113a561139f7f17307eab39ab6107e8899845ad3d59bd9653f200f220920489ca2b5937696c3193610ab8565b93610ab8565b936101e560405190565b0390a3565b6113c061019a916113c5565b610b2b565b6113d0906000610b7e565b6113e0611016610b0a6000610a30565b141590565b9050519061019a8261017a565b906101b091602081830312156113e55761140a600080fd5b6113e5565b9092611440906114396101b0969461142f608086019760008701906102d2565b60208501906102d2565b6040830152565b6060818403910152610361565b3d156114675761145c3d610ee2565b903d6000602084013e565b606090565b91909392611478600090565b9461148281611687565b1561156457906114c960006114a161149c60209695610ab8565b610ab8565b926114d463150b7a02916114b23390565b966114bc60405190565b998a988997889660e01b90565b86526004860161140f565b03925af160009181611534575b5061151757506114ef61144d565b80516115026114fe6000610de2565b9190565b0361150f57604051610f3a565b805190602001fd5b90915061101c630a85bd0160e11b5b916001600160e01b03191690565b61155691925060203d811161155d575b61154e8183610787565b8101906113f2565b90386114e1565b503d611544565b5060019450505050565b61038b61158692602092611580815190565b94859290565b93849101610334565b61159d906101b0939261156e565b9061156e565b6115ac816113b4565b6115bf6115ba826006610def565b610c97565b6115c761167f565b80516000906115d86114fe83610de2565b1461162b576115eb6114fe61126f855190565b116115fb5750506101b090611632565b6101b0925061161f916101b09161161160405190565b93849260208401928361158f565b90810382520382610787565b5050905090565b61163b816113b4565b61164361167f565b80516116526114fe6000610de2565b1115611675576101b061161f9161166b6101b0946116ee565b9061161160405190565b50506101b0610efe565b6101b0610efe565b3b6116956114fe6000610de2565b1190565b369037565b9061019a6116b46116ae84610ee2565b936107ca565b601f190160208401611699565b50634e487b7160e01b600052601260045260246000fd5b81156116e2570490565b6116ea6116c1565b0490565b6116f78161178a565b9061170760019261038b84610de2565b91806117128461169e565b936020018401905b611725575b50505090565b6117599060001901926f181899199a1a9b1b9c1cb0b131b232b360811b600a82061a8453611753600a610de2565b906116d8565b90816117686114fe6000610de2565b146117755790918161171a565b61171f565b61101c6301ffc9a760e01b611526565b6117946000610de2565b907a184f03e93ff9f4daa797ed6e38ed64bf6a1f0100000000000000006117ba81610de2565b82101561190c575b506d04ee2d6d415b85acef81000000006117db81610de2565b8210156118ea575b50662386f26fc100006117f581610de2565b8210156118c8575b506305f5e10061180c81610de2565b8210156118a6575b5061271061182181610de2565b821015611884575b50606461183581610de2565b821015611862575b5061184b6114fe600a610de2565b10156118545790565b6101b09061038b6001610de2565b61187d9161175361187292610de2565b9161038b6002610de2565b903861183d565b61189f9161175361189492610de2565b9161038b6004610de2565b9038611829565b6118c1916117536118b692610de2565b9161038b6008610de2565b9038611814565b6118e3916117536118d892610de2565b9161038b6010610de2565b90386117fd565b611905916117536118fa92610de2565b9161038b6020610de2565b90386117e3565b6119279161175361191c92610de2565b9161038b6040610de2565b90386117c2565b50634e487b7160e01b600052601160045260246000fd5b6001906000198114611955570190565b61038b61192e565b60208082526026908201527f4f6e6c7920746865206f776e65722063616e2063616c6c20746869732066756e60408201526531ba34b7b71760d11b606082015260800190565b156119aa57565b60405162461bcd60e51b815280610a976004820161195d565b906000916119d083610de2565b60086119dd6101b0825490565b821015611a5a576119f8611016610b0a6102c985339561024c565b14611a0b57611a0690611945565b6119d0565b50611a209250611a1b60016119a3565b611aef565b907f8514e9874d1ee55d652d405875552b31f7275a881f0f832eab8d077876c093e2611a4b60405190565b80611a558161195d565b0390a1565b5050611a1b611a20936119a3565b7468747470733a2f2f697066732e696f2f697066732f60581b81526101b0919060150161159d565b91906101b093611ab6611ac393611aaf608087019460008801906102d2565b6020860152565b8382036040850152610361565b906060818303910152601081526f1050d51253d397d0d3d391925493515160821b602082015260400190565b50611b24611b1e600792611b0284611eb6565b6101b0611b0e60405190565b809261161f602083019182611a68565b91611ea1565b908133611b318282611c1f565b611b3b8383611e7c565b611b727fe22cc2323a3a1e016e6de3d567fef2c2667443939a122469a166e3d293b16d0b93611b6960405190565b93849384611a90565b0390a190565b6101b09060006119c3565b15611b8a57565b60405162461bcd60e51b815280610a97600482016020808252818101527f4552433732313a206d696e7420746f20746865207a65726f2061646472657373604082015260600190565b15611bda57565b60405162461bcd60e51b815260206004820152601c60248201527f4552433732313a20746f6b656e20616c7265616479206d696e746564000000006044820152606490fd5b90611c2a6000610a30565b91611c47611c3784610291565b611c4083610291565b1415611b83565b611c5f611c5a611c56846113c5565b1590565b611bd3565b611c6e611c5a611c56846113c5565b611225611c7b6001610de2565b61121561121b846003610ac1565b15611c9057565b60405162461bcd60e51b815260206004820152602e60248201527f45524337323155524953746f726167653a2055524920736574206f66206e6f6e60448201526d32bc34b9ba32b73a103a37b5b2b760911b6064820152608490fd5b9160001960089290920291821b911b6110fb565b9190611d116101b061111e93610de2565b908354611cec565b61019a91600091611d00565b818110611d30575050565b80611d3e6000600193611d19565b01611d25565b9190601f8111611d5357505050565b611d6561019a93600052602060002090565b906020601f840181900483019310611d87575b6020601f909101040190611d25565b9091508190611d78565b90611d9a815190565b9067ffffffffffffffff8211611e65575b611dbf82611db98554610bbb565b85611d44565b602090601f8311600114611dfa5761111e929160009183611def575b5050600019600883021c1916906002021790565b015190503880611ddb565b601f19831691611e0f85600052602060002090565b9260005b818110611e4d57509160029391856001969410611e34575b50505002019055565b01516000196008601f8516021c19169055388080611e2b565b91936020600181928787015181550195019201611e13565b611e6d610770565b611dab565b9061019a91611d91565b90611e9c61019a92611e95611e90826113c5565b611c89565b6006610def565b611e72565b60006101b091611eaf600090565b5001610ae0565b61019a906112156000611ec96001610de2565b92019161038b83610ae0565b600090611ee182610de2565b6008611eee6101b0825490565b821015611f5b57611f09611016610b0a6102c985339561024c565b14611f1c57611f1790611945565b611ee1565b50611f319150611f2c60016119a3565b611ff0565b7f8514e9874d1ee55d652d405875552b31f7275a881f0f832eab8d077876c093e2611a4b60405190565b5050611f2c611f31926119a3565b15611f7057565b60405162461bcd60e51b815260206004820152601d60248201527f4f70657261746f7220697320616c726561647920616e206f776e65722e0000006044820152606490fd5b90611fdd61019a9280549068010000000000000000821015611fe3575b60018201815561024c565b90611105565b611feb610770565b611fd2565b600090611ffc82610de2565b60086120096101b0825490565b82101561205857610b0a6102c9836120209361024c565b61202983610291565b1461203c5761203790611945565b611ffc565b5061019a91506120516000611f69565b611f69565b6008611fb5565b505061205161204c61019a931590565b61019a90611ed5565b6020809167ffffffffffffffff811161208957020190565b612091610770565b020190565b90610eef61081083612071565b9061019a6116b46120b384612096565b93612071565b60005b8281106120c857505050565b6060828201526020016120bc565b9061019a6120e66120b384612096565b601f1901602084016120b9565b9190820180921161210057565b61019a61192e565b9060208091612115845190565b811015612123575b02010190565b61212b610235565b61211d565b600761214361213e82611ea1565b6120a3565b61215461214f83611ea1565b6120d6565b9261215f6000610de2565b61216b6101b085611ea1565b8110156121d6576101b06121ce61216b9261219f61219261218c6001610de2565b836120f3565b61219c8389612108565b52565b6121b361090b6121af8389612108565b5190565b6121bd828a612108565b526121c88189612108565b50611945565b91505061215f565b509150919056fea2646970667358221220a4654bad914b7ff42cc226d23e4eb01787da410257ab4d1c85f63fa002faeb4364736f6c63430008110033",
  "linkReferences": {},
  "deployedLinkReferences": {}
}