{
  "_format": "hh-sol-artifact-1",
  "contractName": "CERTNFT",
  "sourceName": "contracts/NFT.sol",
  "abi": [
    {
      "inputs": [
        {
          "internalType": "address[]",
          "name": "_owners",
          "type": "address[]"
        },
        {
          "internalType": "string",
          "name": "_name",
          "type": "string"
        },
        {
          "internalType": "string",
          "name": "_symbol",
          "type": "string"
        }
      ],
      "stateMutability": "nonpayable",
      "type": "constructor"
    },
    {
      "anonymous": false,
      "inputs": [
        {
          "indexed": true,
          "internalType": "address",
          "name": "owner",
          "type": "address"
        },
        {
          "indexed": true,
          "internalType": "address",
          "name": "approved",
          "type": "address"
        },
        {
          "indexed": true,
          "internalType": "uint256",
          "name": "tokenId",
          "type": "uint256"
        }
      ],
      "name": "Approval",
      "type": "event"
    },
    {
      "anonymous": false,
      "inputs": [
        {
          "indexed": true,
          "internalType": "address",
          "name": "owner",
          "type": "address"
        },
        {
          "indexed": true,
          "internalType": "address",
          "name": "operator",
          "type": "address"
        },
        {
          "indexed": false,
          "internalType": "bool",
          "name": "approved",
          "type": "bool"
        }
      ],
      "name": "ApprovalForAll",
      "type": "event"
    },
    {
      "anonymous": false,
      "inputs": [
        {
          "indexed": false,
          "internalType": "string",
          "name": "code",
          "type": "string"
        }
      ],
      "name": "Owner",
      "type": "event"
    },
    {
      "anonymous": false,
      "inputs": [
        {
          "indexed": true,
          "internalType": "address",
          "name": "from",
          "type": "address"
        },
        {
          "indexed": true,
          "internalType": "address",
          "name": "to",
          "type": "address"
        },
        {
          "indexed": true,
          "internalType": "uint256",
          "name": "tokenId",
          "type": "uint256"
        }
      ],
      "name": "Transfer",
      "type": "event"
    },
    {
      "anonymous": false,
      "inputs": [
        {
          "indexed": false,
          "internalType": "string",
          "name": "code",
          "type": "string"
        }
      ],
      "name": "burnnft",
      "type": "event"
    },
    {
      "anonymous": false,
      "inputs": [
        {
          "indexed": false,
          "internalType": "address",
          "name": "owner",
          "type": "address"
        },
        {
          "indexed": false,
          "internalType": "uint256",
          "name": "tokenid",
          "type": "uint256"
        },
        {
          "indexed": false,
          "internalType": "string",
          "name": "url",
          "type": "string"
        },
        {
          "indexed": false,
          "internalType": "string",
          "name": "code",
          "type": "string"
        }
      ],
      "name": "mintnft",
      "type": "event"
    },
    {
      "inputs": [
        {
          "internalType": "address",
          "name": "_operator",
          "type": "address"
        }
      ],
      "name": "addOperator",
      "outputs": [],
      "stateMutability": "nonpayable",
      "type": "function"
    },
    {
      "inputs": [
        {
          "internalType": "address",
          "name": "to",
          "type": "address"
        },
        {
          "internalType": "uint256",
          "name": "tokenId",
          "type": "uint256"
        }
      ],
      "name": "approve",
      "outputs": [],
      "stateMutability": "nonpayable",
      "type": "function"
    },
    {
      "inputs": [
        {
          "internalType": "address",
          "name": "owner",
          "type": "address"
        }
      ],
      "name": "balanceOf",
      "outputs": [
        {
          "internalType": "uint256",
          "name": "",
          "type": "uint256"
        }
      ],
      "stateMutability": "view",
      "type": "function"
    },
    {
      "inputs": [
        {
          "internalType": "uint256",
          "name": "tokenId",
          "type": "uint256"
        }
      ],
      "name": "burn",
      "outputs": [],
      "stateMutability": "nonpayable",
      "type": "function"
    },
    {
      "inputs": [],
      "name": "getAllTokenIdsAndUrls",
      "outputs": [
        {
          "internalType": "uint256[]",
          "name": "",
          "type": "uint256[]"
        },
        {
          "internalType": "string[]",
          "name": "",
          "type": "string[]"
        }
      ],
      "stateMutability": "view",
      "type": "function"
    },
    {
      "inputs": [
        {
          "internalType": "uint256",
          "name": "tokenId",
          "type": "uint256"
        }
      ],
      "name": "getApproved",
      "outputs": [
        {
          "internalType": "address",
          "name": "",
          "type": "address"
        }
      ],
      "stateMutability": "view",
      "type": "function"
    },
    {
      "inputs": [
        {
          "internalType": "address",
          "name": "owner",
          "type": "address"
        },
        {
          "internalType": "address",
          "name": "operator",
          "type": "address"
        }
      ],
      "name": "isApprovedForAll",
      "outputs": [
        {
          "internalType": "bool",
          "name": "",
          "type": "bool"
        }
      ],
      "stateMutability": "view",
      "type": "function"
    },
    {
      "inputs": [
        {
          "internalType": "string",
          "name": "tokenURI",
          "type": "string"
        }
      ],
      "name": "mint",
      "outputs": [
        {
          "internalType": "uint256",
          "name": "",
          "type": "uint256"
        }
      ],
      "stateMutability": "nonpayable",
      "type": "function"
    },
    {
      "inputs": [],
      "name": "name",
      "outputs": [
        {
          "internalType": "string",
          "name": "",
          "type": "string"
        }
      ],
      "stateMutability": "view",
      "type": "function"
    },
    {
      "inputs": [
        {
          "internalType": "uint256",
          "name": "tokenId",
          "type": "uint256"
        }
      ],
      "name": "ownerOf",
      "outputs": [
        {
          "internalType": "address",
          "name": "",
          "type": "address"
        }
      ],
      "stateMutability": "view",
      "type": "function"
    },
    {
      "inputs": [
        {
          "internalType": "uint256",
          "name": "",
          "type": "uint256"
        }
      ],
      "name": "owners",
      "outputs": [
        {
          "internalType": "address",
          "name": "",
          "type": "address"
        }
      ],
      "stateMutability": "view",
      "type": "function"
    },
    {
      "inputs": [
        {
          "internalType": "address",
          "name": "from",
          "type": "address"
        },
        {
          "internalType": "address",
          "name": "to",
          "type": "address"
        },
        {
          "internalType": "uint256",
          "name": "tokenId",
          "type": "uint256"
        }
      ],
      "name": "safeTransferFrom",
      "outputs": [],
      "stateMutability": "nonpayable",
      "type": "function"
    },
    {
      "inputs": [
        {
          "internalType": "address",
          "name": "from",
          "type": "address"
        },
        {
          "internalType": "address",
          "name": "to",
          "type": "address"
        },
        {
          "internalType": "uint256",
          "name": "tokenId",
          "type": "uint256"
        },
        {
          "internalType": "bytes",
          "name": "data",
          "type": "bytes"
        }
      ],
      "name": "safeTransferFrom",
      "outputs": [],
      "stateMutability": "nonpayable",
      "type": "function"
    },
    {
      "inputs": [
        {
          "internalType": "address",
          "name": "operator",
          "type": "address"
        },
        {
          "internalType": "bool",
          "name": "approved",
          "type": "bool"
        }
      ],
      "name": "setApprovalForAll",
      "outputs": [],
      "stateMutability": "nonpayable",
      "type": "function"
    },
    {
      "inputs": [
        {
          "internalType": "bytes4",
          "name": "interfaceId",
          "type": "bytes4"
        }
      ],
      "name": "supportsInterface",
      "outputs": [
        {
          "internalType": "bool",
          "name": "",
          "type": "bool"
        }
      ],
      "stateMutability": "view",
      "type": "function"
    },
    {
      "inputs": [],
      "name": "symbol",
      "outputs": [
        {
          "internalType": "string",
          "name": "",
          "type": "string"
        }
      ],
      "stateMutability": "view",
      "type": "function"
    },
    {
      "inputs": [
        {
          "internalType": "uint256",
          "name": "tokenId",
          "type": "uint256"
        }
      ],
      "name": "tokenURI",
      "outputs": [
        {
          "internalType": "string",
          "name": "",
          "type": "string"
        }
      ],
      "stateMutability": "view",
      "type": "function"
    },
    {
      "inputs": [
        {
          "internalType": "address",
          "name": "from",
          "type": "address"
        },
        {
          "internalType": "address",
          "name": "to",
          "type": "address"
        },
        {
          "internalType": "uint256",
          "name": "tokenId",
          "type": "uint256"
        }
      ],
      "name": "transferFrom",
      "outputs": [],
      "stateMutability": "nonpayable",
      "type": "function"
    }
  ],
  "bytecode": "0x60806040523462000032575b620000206200001962000301565b9162000492565b6040516125f86200068f82396125f890f35b6200003b600080fd5b6200000b565b600080fd5b50634e487b7160e01b600052604160045260246000fd5b90601f01601f191681019081106001600160401b038211176200007f57604052565b6200008962000046565b604052565b90620000a56200009d60405190565b92836200005d565b565b60209081906001600160401b038111620000c057020190565b620000ca62000046565b020190565b90565b6001600160a01b038116036200004157565b90505190620000a582620000d2565b909291926200010c6200010682620000a7565b6200008e565b93818552602080860192028301928184116200014f575b915b838310620001335750505050565b60208091620001438486620000e4565b81520192019162000125565b62000158600080fd5b62000123565b90620000cf9181601f820112156200017d575b602081519101620000f3565b62000186600080fd5b62000171565b602090620001ad906001600160401b038111620001b157601f01601f191690565b0190565b620001bb62000046565b601f01601f191690565b60005b838110620001d95750506000910152565b8181015183820152602001620001c8565b929190620000a5916200020162000106836200018c565b9482865260208601918382011115620001c5576200021d600080fd5b620001c5565b90620000cf9181601f8201121562000242575b602081519101620001ea565b6200024b600080fd5b62000236565b9091606082840312620002f2575b8151620000cf90620002859085906001600160401b038111620002e3575b85016200015e565b93620002a781602086015160018060401b038111620002d4575b860162000223565b604085015190946001600160401b038211620002c5575b0162000223565b620002ce600080fd5b620002be565b620002dd600080fd5b6200029f565b620002ec600080fd5b6200027d565b620002fb600080fd5b6200025f565b6200032462002c878038038062000318816200008e565b92833981019062000251565b909192565b620000cf620000cf620000cf9290565b91906200034e620000cf6200036a9362000329565b9083549160001960089290920291821b911b9181191691161790565b9055565b620000a59160009162000339565b81811062000388575050565b806200039860006001936200036e565b016200037c565b9091828110620003ae57505050565b620000a59290620003c6905b92600052602060002090565b90810191016200037c565b90620000a591680100000000000000008211620003f5575b8054908281556200039f565b620003ff62000046565b620003e9565b600162000439620003ba62000418855190565b94838060401b03861162000476575b620004338686620003d1565b60200190565b92049160005b8381106200044d5750505050565b600190602062000468620000cf86516001600160a01b031690565b94019381840155016200043f565b6200048062000046565b62000427565b90620000a59162000405565b90620000a592620004a391620004ab565b600862000486565b90620000a59162000674565b50634e487b7160e01b600052602260045260246000fd5b9060016002830492168015620004f5575b6020831014620004eb57565b620000a5620004b7565b91607f1691620004df565b8181106200050c575050565b806200051c60006001936200036e565b0162000500565b9190601f81116200053357505050565b62000547620000a593600052602060002090565b906020601f8401819004830193106200056b575b6020601f90910104019062000500565b90915081906200055b565b9062000580815190565b906001600160401b03821162000658575b620005a982620005a28554620004ce565b8562000523565b602090601f8311600114620005e8576200036a929160009183620005dc575b5050600019600883021c1916906002021790565b015190503880620005c8565b601f19831691620005fe85600052602060002090565b9260005b8181106200063f5750916002939185600196941062000625575b50505002019055565b01516000196008601f8516021c191690553880806200061c565b9193602060018192878701518155019501920162000602565b6200066262000046565b62000591565b90620000a59162000576565b9062000686620000a592600062000668565b60016200066856fe60806040526004361015610018575b610016600080fd5b005b60003560e01c806301ffc9a714610180578063025e7c271461017757806306fdde031461016e578063081812fc14610165578063095ea7b31461015c57806323b872dd14610153578063387849fd1461014a57806342842e0e1461014157806342966c68146101385780636352211e1461012f57806370a082311461012657806395d89b411461011d5780639870d7fe14610114578063a22cb4651461010b578063b88d4fde14610102578063c87b56dd146100f9578063d85d3d27146100f05763e985e9c50361000e576100eb6109e8565b61000e565b506100eb61098d565b506100eb61092e565b506100eb610903565b506100eb610783565b506100eb610716565b506100eb6106ec565b506100eb6106b2565b506100eb61066b565b506100eb610644565b506100eb61061c565b506100eb6105df565b506100eb6104c6565b506100eb61045b565b506100eb6103ea565b506100eb6103b4565b506100eb6102ff565b506100eb6101d8565b600080fd5b6001600160e01b031981165b0361018957565b905035906101ae8261018e565b565b906101c4916020818303126101c7576101a1565b90565b6101cf600080fd5b6101a1565b9052565b503461020c575b6102086101f56101f03660046101b0565b610a13565b6040515b91829182901515815260200190565b0390f35b610214600080fd5b6101df565b8061019a565b905035906101ae82610219565b906101c4916020818303121561021f57610244600080fd5b61021f565b50634e487b7160e01b600052603260045260246000fd5b61028060019161026e815490565b84101561028957600052602060002090565b91020190600090565b610291610249565b600052602060002090565b6101c4916008021c5b6001600160a01b031690565b906101c4915461029c565b600860006102c8825490565b8310156102e357506101c4916102dd91610260565b906102b1565b80fd5b6101d4906102a5565b6020810192916101ae91906102e6565b5034610328575b61020861031c61031736600461022c565b6102bc565b604051918291826102ef565b610330600080fd5b610306565b600091031261034057565b6101ae600080fd5b60005b83811061035b5750506000910152565b818101518382015260200161034b565b601f01601f191690565b61039661036b60209361039f9361038a815190565b80835293849260200190565b95869101610348565b0190565b60208082526101c492910190610375565b50346103dd575b6103c6366004610335565b6102086103d1610cdb565b604051918291826103a3565b6103e5600080fd5b6103bb565b5034610407575b61020861031c61040236600461022c565b610e47565b61040f600080fd5b6103f1565b61019a816102a5565b905035906101ae82610414565b91906101c49060408482031261044e575b610445818561041d565b9360200161021f565b610456600080fd5b61043b565b503461047b575b61047661047036600461042a565b90610db7565b604051005b610483600080fd5b610462565b90916060828403126104b9575b6101c46104a2848461041d565b936104b0816020860161041d565b9360400161021f565b6104c1600080fd5b610495565b50346104e1575b6104766104db366004610488565b91610f00565b6104e9600080fd5b6104cd565b9061050e6105076104fd845190565b8084529260200190565b9260200190565b9060005b81811061051f5750505090565b90919261053c6105356001928651815260200190565b9460200190565b929101610512565b906101c491610375565b9061056461055a835190565b8083529160200190565b90816105766020830284019460200190565b926000915b83831061058a57505050505090565b909192939460206105ad6105a683856001950387528951610544565b9760200190565b930193019193929061057b565b60408082526101c49391926105d1918401906104ee565b91602081840391015261054e565b503461060f575b6105f1366004610335565b6105f9612515565b9061020861060660405190565b928392836105ba565b610617600080fd5b6105e6565b5034610637575b610476610631366004610488565b91610f41565b61063f600080fd5b610623565b503461065e575b61047661065936600461022c565b612076565b610666600080fd5b61064b565b5034610688575b61020861031c61068336600461022c565b610bb2565b610690600080fd5b610672565b906101c4916020818303121561041d576106ad600080fd5b61041d565b50346106df575b6102086106cf6106ca366004610695565b610b25565b6040519182918290815260200190565b6106e7600080fd5b6106b9565b5034610709575b6106fe366004610335565b6102086103d1610ce5565b610711600080fd5b6106f3565b5034610730575b61047661072b366004610695565b61244d565b610738600080fd5b61071d565b80151561019a565b905035906101ae8261073d565b91906101c490604084820312610776575b61076d818561041d565b93602001610745565b61077e600080fd5b610763565b503461079e575b610476610798366004610752565b90610e6c565b6107a6600080fd5b61078a565b50634e487b7160e01b600052604160045260246000fd5b90601f01601f1916810190811067ffffffffffffffff8211176107e457604052565b6107ec6107ab565b604052565b906101ae6107fe60405190565b92836107c2565b61039f60209167ffffffffffffffff811161082457601f01601f191690565b61036b6107ab565b90826000939282370152565b9291906101ae9161085061084b83610805565b6107f1565b948286526020860191838201111561082c5761086a600080fd5b61082c565b906101c49181601f8201121561088b575b602081359101610838565b610893600080fd5b610880565b6080818303126108f6575b6108ad828261041d565b926101c46108be846020850161041d565b936108cc816040860161021f565b9360608101359067ffffffffffffffff82116108e9575b0161086f565b6108f1600080fd5b6108e3565b6108fe600080fd5b6108a3565b5034610921575b610476610918366004610898565b92919091610f51565b610929600080fd5b61090a565b503461094b575b6102086103d161094636600461022c565b6115de565b610953600080fd5b610935565b906101c491602081830312610980575b80359067ffffffffffffffff82116108e9570161086f565b610988600080fd5b610968565b50346109aa575b6102086106cf6109a5366004610958565b611bb3565b6109b2600080fd5b610994565b91906101c4906040848203126109db575b6109d2818561041d565b9360200161041d565b6109e3600080fd5b6109c8565b5034610a06575b6102086101f5610a003660046109b7565b90610e77565b610a0e600080fd5b6109ef565b6380ac58cd60e01b6001600160e01b0319821614908115610a43575b8115610a39575090565b6101c491506117b5565b6001600160e01b03198116635b5e139f60e01b149150610a2f565b6102a56101c46101c49290565b6101c490610a5e565b15610a7b57565b60405162461bcd60e51b815260206004820152602960248201527f4552433732313a2061646472657373207a65726f206973206e6f7420612076616044820152683634b21037bbb732b960b91b6064820152608490fd5b0390fd5b6101c4906102a5906001600160a01b031682565b6101c490610ad6565b6101c490610aea565b90610b0690610af3565b600052602052604060002090565b6101c49081565b6101c49054610b14565b610b616101c491610b34600090565b50610b5a610b4a610b456000610a6b565b6102a5565b610b53836102a5565b1415610a74565b6003610afc565b610b1b565b15610b6d57565b60405162461bcd60e51b815260206004820152601860248201527f4552433732313a20696e76616c696420746f6b656e20494400000000000000006044820152606490fd5b610bbf9060005b50610ff1565b6101c4610bcf610b456000610a6b565b610bd8836102a5565b1415610b66565b50634e487b7160e01b600052602260045260246000fd5b9060016002830492168015610c19575b6020831014610c1157565b6101ae610bdf565b91607f1691610c06565b80546000939291610c40610c3683610bf6565b8085529360200190565b9160018116908115610c925750600114610c5957505050565b610c6c9192939450600052602060002090565b916000925b818410610c7e5750500190565b805484840152602090930192600101610c71565b92949550505060ff1916825215156020020190565b906101c491610c23565b906101ae610ccb92610cc260405190565b93848092610ca7565b03836107c2565b6101c490610cb1565b6101c46000610cd2565b6101c46001610cd2565b15610cf657565b60405162461bcd60e51b815260206004820152602160248201527f4552433732313a20617070726f76616c20746f2063757272656e74206f776e656044820152603960f91b6064820152608490fd5b15610d4c57565b60405162461bcd60e51b815260206004820152603d60248201527f4552433732313a20617070726f76652063616c6c6572206973206e6f7420746f60448201527f6b656e206f776e6572206f7220617070726f76656420666f7220616c6c0000006064820152608490fd5b906101ae91610e07610dc883610bb2565b610de4610dd4826102a5565b610ddd856102a5565b1415610cef565b33610dee826102a5565b610df7826102a5565b14918215610e0c575b5050610d45565b6112c0565b610e169250610e77565b3880610e00565b6101c46101c46101c49290565b90610b0690610e1d565b6101c4906102a5565b6101c49054610e34565b610e676101c491610e56600090565b50610e60816113ef565b6004610e2a565b610e3d565b6101ae919033611376565b6101c491610e92610e9792610e8a600090565b506005610afc565b610afc565b5460ff1690565b15610ea557565b60405162461bcd60e51b815260206004820152602d60248201527f4552433732313a2063616c6c6572206973206e6f7420746f6b656e206f776e6560448201526c1c881bdc88185c1c1c9bdd9959609a1b6064820152608490fd5b6101ae929190610f18610f138433611008565b610e9e565b6111b0565b90610f2a61084b83610805565b918252565b6101c46000610f1d565b6101c4610f2f565b90916101ae92610f4f610f39565b925b6101ae93929190610f65610f138433611008565b610fd2565b15610f7157565b6040515b62461bcd60e51b815260206004820152603260248201527f4552433732313a207472616e7366657220746f206e6f6e20455243373231526560448201527131b2b4bb32b91034b6b83632b6b2b73a32b960711b6064820152608490fd5b916101ae9391610fec93610fe78383836111b0565b6114a7565b610f6a565b610e676101c491611000600090565b506002610e2a565b61101182610bb2565b9161101b836102a5565b611024836102a5565b1492831561105b575b50821561103957505090565b61105791925061104b61105191610e47565b926102a5565b916102a5565b1490565b6110689193508290610e77565b913861102d565b1561107657565b60405162461bcd60e51b815260206004820152602560248201527f4552433732313a207472616e736665722066726f6d20696e636f72726563742060448201526437bbb732b960d91b6064820152608490fd5b156110d057565b60405162461bcd60e51b8152602060048201526024808201527f4552433732313a207472616e7366657220746f20746865207a65726f206164646044820152637265737360e01b6064820152608490fd5b916001600160a01b0360089290920291821b911b5b9181191691161790565b91906111516101c461115993610af3565b908354611121565b9055565b6101ae91600091611140565b9060001990611136565b906111836101c461115992610e1d565b8254611169565b906001600160a01b0390611136565b906111a96101c461115992610af3565b825461118a565b91906111d06111be83610bb2565b6111ca611051866102a5565b1461106f565b61121c60006111f46111e4610b4583610a6b565b6111ed856102a5565b14156110c9565b61120c61120085610bb2565b6111ca611051886102a5565b611217846004610e2a565b61115d565b6112606112296001610e1d565b611250611256846003610e9261123f8a83610afc565b6112508761124c83610b1b565b0390565b90611173565b9161039f83610b1b565b6112748161126f846002610e2a565b611199565b6112b06112aa6112a47fddf252ad1be2c89b69c2b068fc378daa952ba7f163c4a11628f55a4df523b3ef95610af3565b92610af3565b92610e1d565b926112ba60405190565b600090a4565b906112d08261126f836004610e2a565b6112d981610bb2565b916112b06112aa6112a47f8c5be1e5ebec7d5bd14f71427d1e84f3dd0314c0f7b2291e5b200ac8c7c3b92595610af3565b1561131157565b60405162461bcd60e51b815260206004820152601960248201527f4552433732313a20617070726f766520746f2063616c6c6572000000000000006044820152606490fd5b9060ff90611136565b9061136f6101c461115992151590565b8254611356565b611392611382836102a5565b61138b836102a5565b141561130a565b6113aa836113a584610e92856005610afc565b61135f565b6113ea6113e06113da7f17307eab39ab6107e8899845ad3d59bd9653f200f220920489ca2b5937696c3193610af3565b93610af3565b936101f960405190565b0390a3565b6113fb6101ae91611400565b610b66565b61140b906000610bb9565b61141b611051610b456000610a6b565b141590565b905051906101ae8261018e565b906101c4916020818303121561142057611445600080fd5b611420565b909261147b906114746101c4969461146a608086019760008701906102e6565b60208501906102e6565b6040830152565b6060818403910152610375565b3d156114a2576114973d610f1d565b903d6000602084013e565b606090565b919093926114b3600090565b946114bd816116c2565b1561159f579061150460006114dc6114d760209695610af3565b610af3565b9261150f63150b7a02916114ed3390565b966114f760405190565b998a988997889660e01b90565b86526004860161144a565b03925af16000918161156f575b50611552575061152a611488565b805161153d6115396000610e1d565b9190565b0361154a57604051610f75565b805190602001fd5b909150611057630a85bd0160e11b5b916001600160e01b03191690565b61159191925060203d8111611598575b61158981836107c2565b81019061142d565b903861151c565b503d61157f565b5060019450505050565b61039f6115c1926020926115bb815190565b94859290565b93849101610348565b6115d8906101c493926115a9565b906115a9565b6115e7816113ef565b6115fa6115f5826006610e2a565b610cd2565b6116026116ba565b805160009061161361153983610e1d565b14611666576116266115396112aa855190565b116116365750506101c49061166d565b6101c4925061165a916101c49161164c60405190565b9384926020840192836115ca565b908103825203826107c2565b5050905090565b611676816113ef565b61167e6116ba565b805161168d6115396000610e1d565b11156116b0576101c461165a916116a66101c494611729565b9061164c60405190565b50506101c4610f39565b6101c4610f39565b3b6116d06115396000610e1d565b1190565b369037565b906101ae6116ef6116e984610f1d565b93610805565b601f1901602084016116d4565b50634e487b7160e01b600052601260045260246000fd5b811561171d570490565b6117256116fc565b0490565b611732816117c5565b9061174260019261039f84610e1d565b918061174d846116d9565b936020018401905b611760575b50505090565b6117949060001901926f181899199a1a9b1b9c1cb0b131b232b360811b600a82061a845361178e600a610e1d565b90611713565b90816117a36115396000610e1d565b146117b057909181611755565b61175a565b6110576301ffc9a760e01b611561565b6117cf6000610e1d565b907a184f03e93ff9f4daa797ed6e38ed64bf6a1f0100000000000000006117f581610e1d565b821015611947575b506d04ee2d6d415b85acef810000000061181681610e1d565b821015611925575b50662386f26fc1000061183081610e1d565b821015611903575b506305f5e10061184781610e1d565b8210156118e1575b5061271061185c81610e1d565b8210156118bf575b50606461187081610e1d565b82101561189d575b50611886611539600a610e1d565b101561188f5790565b6101c49061039f6001610e1d565b6118b89161178e6118ad92610e1d565b9161039f6002610e1d565b9038611878565b6118da9161178e6118cf92610e1d565b9161039f6004610e1d565b9038611864565b6118fc9161178e6118f192610e1d565b9161039f6008610e1d565b903861184f565b61191e9161178e61191392610e1d565b9161039f6010610e1d565b9038611838565b6119409161178e61193592610e1d565b9161039f6020610e1d565b903861181e565b6119629161178e61195792610e1d565b9161039f6040610e1d565b90386117fd565b50634e487b7160e01b600052601160045260246000fd5b6001906000198114611990570190565b61039f611969565b60208082526026908201527f4f6e6c7920746865206f776e65722063616e2063616c6c20746869732066756e60408201526531ba34b7b71760d11b606082015260800190565b156119e557565b60405162461bcd60e51b815280610ad260048201611998565b90600091611a0b83610e1d565b6008611a186101c4825490565b821015611a9557611a33611051610b456102dd853395610260565b14611a4657611a4190611980565b611a0b565b50611a5b9250611a5660016119de565b611b2a565b907f8514e9874d1ee55d652d405875552b31f7275a881f0f832eab8d077876c093e2611a8660405190565b80611a9081611998565b0390a1565b5050611a56611a5b936119de565b7468747470733a2f2f697066732e696f2f697066732f60581b81526101c491906015016115d8565b91906101c493611af1611afe93611aea608087019460008801906102e6565b6020860152565b8382036040850152610375565b906060818303910152601081526f1050d51253d397d0d3d391925493515160821b602082015260400190565b50611b5f611b59600792611b3d84611f0e565b6101c4611b4960405190565b809261165a602083019182611aa3565b91611ef9565b908133611b6c8282611c5a565b611b768383611ed4565b611bad7fe22cc2323a3a1e016e6de3d567fef2c2667443939a122469a166e3d293b16d0b93611ba460405190565b93849384611acb565b0390a190565b6101c49060006119fe565b15611bc557565b60405162461bcd60e51b815280610ad2600482016020808252818101527f4552433732313a206d696e7420746f20746865207a65726f2061646472657373604082015260600190565b15611c1557565b60405162461bcd60e51b815260206004820152601c60248201527f4552433732313a20746f6b656e20616c7265616479206d696e746564000000006044820152606490fd5b90611c656000610a6b565b91611c82611c72846102a5565b611c7b836102a5565b1415611bbe565b611c9a611c95611c9184611400565b1590565b611c0e565b611ca9611c95611c9184611400565b611260611cb66001610e1d565b611250611256846003610afc565b15611ccb57565b60405162461bcd60e51b815260206004820152602e60248201527f45524337323155524953746f726167653a2055524920736574206f66206e6f6e60448201526d32bc34b9ba32b73a103a37b5b2b760911b6064820152608490fd5b50634e487b7160e01b600052600060045260246000fd5b9160001960089290920291821b911b611136565b9190611d636101c461115993610e1d565b908354611d3e565b6101ae91600091611d52565b818110611d82575050565b80611d906000600193611d6b565b01611d77565b9190601f8111611da557505050565b611db76101ae93600052602060002090565b906020601f840181900483019310611dda575b6020601f909101045b0190611d77565b9091508190611dca565b600019600883021c1916906002021790565b90611dff815190565b9067ffffffffffffffff8211611ebd575b611e2482611e1e8554610bf6565b85611d96565b602090601f8311600114611e5257611159929160009183611e47575b5050611de4565b015190503880611e40565b601f19831691611e6785600052602060002090565b9260005b818110611ea557509160029391856001969410611e8c575b50505002019055565b01516000196008601f8516021c19169055388080611e83565b91936020600181928787015181550195019201611e6b565b611ec56107ab565b611e10565b906101ae91611df6565b90611ef46101ae92611eed611ee882611400565b611cc4565b6006610e2a565b611eca565b60006101c491611f07600090565b5001610b1b565b6101ae906112506000611f216001610e1d565b92019161039f83610b1b565b600090611f3982610e1d565b6008611f466101c4825490565b821015611fb357611f61611051610b456102dd853395610260565b14611f7457611f6f90611980565b611f39565b50611f899150611f8460016119de565b612004565b7f8514e9874d1ee55d652d405875552b31f7275a881f0f832eab8d077876c093e2611a8660405190565b5050611f84611f89926119de565b15611fc857565b60405162461bcd60e51b8152602060048201526014602482015273151bdad95b88191bd95cc81b9bdd08195e1a5cdd60621b6044820152606490fd5b61201e9061201961201482611400565b611fc1565b61223a565b7f3388be4906a014d2bb3c19fa97b2cedcaf76a476cbb307cd60459bbbdc38b0d261204860405190565b60208082526010908201526f1050d51253d397d0d3d391925493515160821b60408201528060608101611a90565b6101ae90611f2d565b6101c49054610bf6565b9061209c90600019906020036008021c90565b8154169055565b906000916120c16120b982600052602060002090565b928354611de4565b905555565b919290602082101561211e57601f84116001146120e857611159929350611de4565b50906121196101ae93600161211061210585600052602060002090565b92601f602091010490565b82019101611d77565b6120a3565b506121578293612135600194600052602060002090565b611dd36020601f860104820192601f86168061215f575b50601f602091010490565b600202179055565b61216b90888603612089565b3861214c565b929091602090600160401b83116121c6575b10156121ba57602081101561219b5761115991611de4565b60019160ff19166121b184600052602060002090565b55600202019055565b60019150600202019055565b6121ce6107ab565b612183565b9081546121df81610bf6565b90818311612208575b8183106121f6575b50505050565b6121ff936120c6565b388080806121f0565b61221483838387612171565b6121e8565b60006101ae916121d3565b6101ae911561221957612235611d27565b612219565b61224381612286565b600661225a6122556101c48484610e2a565b61207f565b9060009161226a61153984610e1d565b0361227457505050565b6101ae9261228191610e2a565b612224565b61228f81610bb2565b5061229981610bb2565b906122aa6000611217836004610e2a565b6122cf6122b76001610e1d565b6112506122c5856003610afc565b9161124c83610b1b565b6122df6000611217836002610e2a565b6112746000610a6b565b6000906122f582610e1d565b60086123026101c4825490565b8210156123455761231d611051610b456102dd853395610260565b146123305761232b90611980565b6122f5565b50611f89915061234060016119de565b6123d5565b5050612340611f89926119de565b1561235a57565b60405162461bcd60e51b815260206004820152601d60248201527f4f70657261746f7220697320616c726561647920616e206f776e65722e0000006044820152606490fd5b906123c26101ae92805490600160401b8210156123c8575b600182018155610260565b90611140565b6123d06107ab565b6123b7565b6000906123e182610e1d565b60086123ee6101c4825490565b82101561243d57610b456102dd8361240593610260565b61240e836102a5565b146124215761241c90611980565b6123e1565b506101ae91506124366000612353565b612353565b600861239f565b50506124366124316101ae931590565b6101ae906122e9565b6020809167ffffffffffffffff811161246e57020190565b6124766107ab565b020190565b90610f2a61084b83612456565b906101ae6116ef6124988461247b565b93612456565b60005b8281106124ad57505050565b6060828201526020016124a1565b906101ae6124cb6124988461247b565b601f19016020840161249e565b919082018092116124e557565b6101ae611969565b90602080916124fa845190565b811015612508575b02010190565b612510610249565b612502565b600761252861252382611ef9565b612488565b61253961253483611ef9565b6124bb565b926125446000610e1d565b6125506101c485611ef9565b8110156125bb576101c46125b3612550926125846125776125716001610e1d565b836124d8565b61258183896124ed565b52565b61259861094661259483896124ed565b5190565b6125a2828a6124ed565b526125ad81896124ed565b50611980565b915050612544565b509150919056fea2646970667358221220a88c415f9b3655cff3286a43f563faa523ed5757b9a6cf2097760ca727a131a564736f6c63430008110033",
  "linkReferences": {},
  "deployedLinkReferences": {}
}