{
  "_format": "hh-sol-artifact-1",
  "contractName": "CERTNFT",
  "sourceName": "contracts/NFT.sol",
  "abi": [
    {
      "inputs": [
        {
          "internalType": "address[]",
          "name": "_owners",
          "type": "address[]"
        },
        {
          "internalType": "string",
          "name": "_name",
          "type": "string"
        },
        {
          "internalType": "string",
          "name": "_symbol",
          "type": "string"
        }
      ],
      "stateMutability": "nonpayable",
      "type": "constructor"
    },
    {
      "anonymous": false,
      "inputs": [
        {
          "indexed": true,
          "internalType": "address",
          "name": "owner",
          "type": "address"
        },
        {
          "indexed": true,
          "internalType": "address",
          "name": "approved",
          "type": "address"
        },
        {
          "indexed": true,
          "internalType": "uint256",
          "name": "tokenId",
          "type": "uint256"
        }
      ],
      "name": "Approval",
      "type": "event"
    },
    {
      "anonymous": false,
      "inputs": [
        {
          "indexed": true,
          "internalType": "address",
          "name": "owner",
          "type": "address"
        },
        {
          "indexed": true,
          "internalType": "address",
          "name": "operator",
          "type": "address"
        },
        {
          "indexed": false,
          "internalType": "bool",
          "name": "approved",
          "type": "bool"
        }
      ],
      "name": "ApprovalForAll",
      "type": "event"
    },
    {
      "anonymous": false,
      "inputs": [
        {
          "indexed": false,
          "internalType": "string",
          "name": "code",
          "type": "string"
        }
      ],
      "name": "Owner",
      "type": "event"
    },
    {
      "anonymous": false,
      "inputs": [
        {
          "indexed": true,
          "internalType": "address",
          "name": "from",
          "type": "address"
        },
        {
          "indexed": true,
          "internalType": "address",
          "name": "to",
          "type": "address"
        },
        {
          "indexed": true,
          "internalType": "uint256",
          "name": "tokenId",
          "type": "uint256"
        }
      ],
      "name": "Transfer",
      "type": "event"
    },
    {
      "anonymous": false,
      "inputs": [
        {
          "indexed": false,
          "internalType": "address",
          "name": "owner",
          "type": "address"
        },
        {
          "indexed": false,
          "internalType": "uint256",
          "name": "tokenid",
          "type": "uint256"
        },
        {
          "indexed": false,
          "internalType": "string",
          "name": "url",
          "type": "string"
        },
        {
          "indexed": false,
          "internalType": "string",
          "name": "code",
          "type": "string"
        }
      ],
      "name": "mintnft",
      "type": "event"
    },
    {
      "inputs": [
        {
          "internalType": "address",
          "name": "to",
          "type": "address"
        },
        {
          "internalType": "uint256",
          "name": "tokenId",
          "type": "uint256"
        }
      ],
      "name": "approve",
      "outputs": [],
      "stateMutability": "nonpayable",
      "type": "function"
    },
    {
      "inputs": [
        {
          "internalType": "address",
          "name": "owner",
          "type": "address"
        }
      ],
      "name": "balanceOf",
      "outputs": [
        {
          "internalType": "uint256",
          "name": "",
          "type": "uint256"
        }
      ],
      "stateMutability": "view",
      "type": "function"
    },
    {
      "inputs": [],
      "name": "getAllTokenIdsAndUrls",
      "outputs": [
        {
          "internalType": "uint256[]",
          "name": "",
          "type": "uint256[]"
        },
        {
          "internalType": "string[]",
          "name": "",
          "type": "string[]"
        }
      ],
      "stateMutability": "view",
      "type": "function"
    },
    {
      "inputs": [
        {
          "internalType": "uint256",
          "name": "tokenId",
          "type": "uint256"
        }
      ],
      "name": "getApproved",
      "outputs": [
        {
          "internalType": "address",
          "name": "",
          "type": "address"
        }
      ],
      "stateMutability": "view",
      "type": "function"
    },
    {
      "inputs": [
        {
          "internalType": "address",
          "name": "owner",
          "type": "address"
        },
        {
          "internalType": "address",
          "name": "operator",
          "type": "address"
        }
      ],
      "name": "isApprovedForAll",
      "outputs": [
        {
          "internalType": "bool",
          "name": "",
          "type": "bool"
        }
      ],
      "stateMutability": "view",
      "type": "function"
    },
    {
      "inputs": [
        {
          "internalType": "string",
          "name": "tokenURI",
          "type": "string"
        }
      ],
      "name": "mint",
      "outputs": [
        {
          "internalType": "uint256",
          "name": "",
          "type": "uint256"
        }
      ],
      "stateMutability": "nonpayable",
      "type": "function"
    },
    {
      "inputs": [],
      "name": "name",
      "outputs": [
        {
          "internalType": "string",
          "name": "",
          "type": "string"
        }
      ],
      "stateMutability": "view",
      "type": "function"
    },
    {
      "inputs": [
        {
          "internalType": "uint256",
          "name": "tokenId",
          "type": "uint256"
        }
      ],
      "name": "ownerOf",
      "outputs": [
        {
          "internalType": "address",
          "name": "",
          "type": "address"
        }
      ],
      "stateMutability": "view",
      "type": "function"
    },
    {
      "inputs": [
        {
          "internalType": "address",
          "name": "from",
          "type": "address"
        },
        {
          "internalType": "address",
          "name": "to",
          "type": "address"
        },
        {
          "internalType": "uint256",
          "name": "tokenId",
          "type": "uint256"
        }
      ],
      "name": "safeTransferFrom",
      "outputs": [],
      "stateMutability": "nonpayable",
      "type": "function"
    },
    {
      "inputs": [
        {
          "internalType": "address",
          "name": "from",
          "type": "address"
        },
        {
          "internalType": "address",
          "name": "to",
          "type": "address"
        },
        {
          "internalType": "uint256",
          "name": "tokenId",
          "type": "uint256"
        },
        {
          "internalType": "bytes",
          "name": "data",
          "type": "bytes"
        }
      ],
      "name": "safeTransferFrom",
      "outputs": [],
      "stateMutability": "nonpayable",
      "type": "function"
    },
    {
      "inputs": [
        {
          "internalType": "address",
          "name": "operator",
          "type": "address"
        },
        {
          "internalType": "bool",
          "name": "approved",
          "type": "bool"
        }
      ],
      "name": "setApprovalForAll",
      "outputs": [],
      "stateMutability": "nonpayable",
      "type": "function"
    },
    {
      "inputs": [
        {
          "internalType": "bytes4",
          "name": "interfaceId",
          "type": "bytes4"
        }
      ],
      "name": "supportsInterface",
      "outputs": [
        {
          "internalType": "bool",
          "name": "",
          "type": "bool"
        }
      ],
      "stateMutability": "view",
      "type": "function"
    },
    {
      "inputs": [],
      "name": "symbol",
      "outputs": [
        {
          "internalType": "string",
          "name": "",
          "type": "string"
        }
      ],
      "stateMutability": "view",
      "type": "function"
    },
    {
      "inputs": [
        {
          "internalType": "uint256",
          "name": "tokenId",
          "type": "uint256"
        }
      ],
      "name": "tokenURI",
      "outputs": [
        {
          "internalType": "string",
          "name": "",
          "type": "string"
        }
      ],
      "stateMutability": "view",
      "type": "function"
    },
    {
      "inputs": [
        {
          "internalType": "address",
          "name": "from",
          "type": "address"
        },
        {
          "internalType": "address",
          "name": "to",
          "type": "address"
        },
        {
          "internalType": "uint256",
          "name": "tokenId",
          "type": "uint256"
        }
      ],
      "name": "transferFrom",
      "outputs": [],
      "stateMutability": "nonpayable",
      "type": "function"
    }
  ],
  "bytecode": "0x60806040523462000032575b620000206200001962000301565b9162000492565b604051611fe26200068f8239611fe290f35b6200003b600080fd5b6200000b565b600080fd5b50634e487b7160e01b600052604160045260246000fd5b90601f01601f191681019081106001600160401b038211176200007f57604052565b6200008962000046565b604052565b90620000a56200009d60405190565b92836200005d565b565b60209081906001600160401b038111620000c057020190565b620000ca62000046565b020190565b90565b6001600160a01b038116036200004157565b90505190620000a582620000d2565b909291926200010c6200010682620000a7565b6200008e565b93818552602080860192028301928184116200014f575b915b838310620001335750505050565b60208091620001438486620000e4565b81520192019162000125565b62000158600080fd5b62000123565b90620000cf9181601f820112156200017d575b602081519101620000f3565b62000186600080fd5b62000171565b602090620001ad906001600160401b038111620001b157601f01601f191690565b0190565b620001bb62000046565b601f01601f191690565b60005b838110620001d95750506000910152565b8181015183820152602001620001c8565b929190620000a5916200020162000106836200018c565b9482865260208601918382011115620001c5576200021d600080fd5b620001c5565b90620000cf9181601f8201121562000242575b602081519101620001ea565b6200024b600080fd5b62000236565b9091606082840312620002f2575b8151620000cf90620002859085906001600160401b038111620002e3575b85016200015e565b93620002a781602086015160018060401b038111620002d4575b860162000223565b604085015190946001600160401b038211620002c5575b0162000223565b620002ce600080fd5b620002be565b620002dd600080fd5b6200029f565b620002ec600080fd5b6200027d565b620002fb600080fd5b6200025f565b62000324620026718038038062000318816200008e565b92833981019062000251565b909192565b620000cf620000cf620000cf9290565b91906200034e620000cf6200036a9362000329565b9083549160001960089290920291821b911b9181191691161790565b9055565b620000a59160009162000339565b81811062000388575050565b806200039860006001936200036e565b016200037c565b9091828110620003ae57505050565b620000a59290620003c6905b92600052602060002090565b90810191016200037c565b90620000a591680100000000000000008211620003f5575b8054908281556200039f565b620003ff62000046565b620003e9565b600162000439620003ba62000418855190565b94838060401b03861162000476575b620004338686620003d1565b60200190565b92049160005b8381106200044d5750505050565b600190602062000468620000cf86516001600160a01b031690565b94019381840155016200043f565b6200048062000046565b62000427565b90620000a59162000405565b90620000a592620004a391620004ab565b600862000486565b90620000a59162000674565b50634e487b7160e01b600052602260045260246000fd5b9060016002830492168015620004f5575b6020831014620004eb57565b620000a5620004b7565b91607f1691620004df565b8181106200050c575050565b806200051c60006001936200036e565b0162000500565b9190601f81116200053357505050565b62000547620000a593600052602060002090565b906020601f8401819004830193106200056b575b6020601f90910104019062000500565b90915081906200055b565b9062000580815190565b906001600160401b03821162000658575b620005a982620005a28554620004ce565b8562000523565b602090601f8311600114620005e8576200036a929160009183620005dc575b5050600019600883021c1916906002021790565b015190503880620005c8565b601f19831691620005fe85600052602060002090565b9260005b8181106200063f5750916002939185600196941062000625575b50505002019055565b01516000196008601f8516021c191690553880806200061c565b9193602060018192878701518155019501920162000602565b6200066262000046565b62000591565b90620000a59162000576565b9062000686620000a592600062000668565b60016200066856fe60806040526004361015610018575b610016600080fd5b005b60003560e01c806301ffc9a71461014457806306fdde031461013b578063081812fc14610132578063095ea7b31461012957806323b872dd14610120578063387849fd1461011757806342842e0e1461010e5780636352211e1461010557806370a08231146100fc57806395d89b41146100f3578063a22cb465146100ea578063b88d4fde146100e1578063c87b56dd146100d8578063d85d3d27146100cf5763e985e9c50361000e576100ca61089a565b61000e565b506100ca61083f565b506100ca6107e0565b506100ca6107b5565b506100ca610635565b506100ca6105c5565b506100ca61058b565b506100ca610544565b506100ca61051c565b506100ca6104df565b506100ca6103c6565b506100ca61035b565b506100ca6102ca565b506100ca610258565b506100ca610198565b600080fd5b6001600160e01b031981165b0361014d57565b9050359061017282610152565b565b906101889160208183031261018b57610165565b90565b610193600080fd5b610165565b50346101cc575b6101c86101b56101b0366004610174565b6108c5565b6040515b91829182901515815260200190565b0390f35b6101d4600080fd5b61019f565b60009103126101e457565b610172600080fd5b60005b8381106101ff5750506000910152565b81810151838201526020016101ef565b601f01601f191690565b61023a61020f6020936102439361022e815190565b80835293849260200190565b958691016101ec565b0190565b602080825261018892910190610219565b5034610281575b61026a3660046101d9565b6101c8610275610b8a565b60405191829182610247565b610289600080fd5b61025f565b8061015e565b905035906101728261028e565b906101889160208183031215610294576102b9600080fd5b610294565b6001600160a01b031690565b5034610301575b6101c86102e76102e23660046102a1565b610cf1565b604051918291826001600160a01b03909116815260200190565b610309600080fd5b6102d1565b6001600160a01b03811661015e565b905035906101728261030e565b91906101889060408482031261034e575b610345818561031d565b93602001610294565b610356600080fd5b61033b565b503461037b575b61037661037036600461032a565b90610c66565b604051005b610383600080fd5b610362565b90916060828403126103b9575b6101886103a2848461031d565b936103b0816020860161031d565b93604001610294565b6103c1600080fd5b610395565b50346103e1575b6103766103db366004610388565b91610daa565b6103e9600080fd5b6103cd565b9061040e6104076103fd845190565b8084529260200190565b9260200190565b9060005b81811061041f5750505090565b90919261043c6104356001928651815260200190565b9460200190565b929101610412565b9061018891610219565b9061046461045a835190565b8083529160200190565b90816104766020830284019460200190565b926000915b83831061048a57505050505090565b909192939460206104ad6104a683856001950387528951610444565b9760200190565b930193019193929061047b565b60408082526101889391926104d1918401906103ee565b91602081840391015261044e565b503461050f575b6104f13660046101d9565b6104f9611eff565b906101c861050660405190565b928392836104ba565b610517600080fd5b6104e6565b5034610537575b610376610531366004610388565b91610deb565b61053f600080fd5b610523565b5034610561575b6101c86102e761055c3660046102a1565b610a60565b610569600080fd5b61054b565b90610188916020818303121561031d57610586600080fd5b61031d565b50346105b8575b6101c86105a86105a336600461056e565b6109d7565b6040519182918290815260200190565b6105c0600080fd5b610592565b50346105e2575b6105d73660046101d9565b6101c8610275610b94565b6105ea600080fd5b6105cc565b80151561015e565b90503590610172826105ef565b919061018890604084820312610628575b61061f818561031d565b936020016105f7565b610630600080fd5b610615565b5034610650575b61037661064a366004610604565b90610d16565b610658600080fd5b61063c565b50634e487b7160e01b600052604160045260246000fd5b90601f01601f1916810190811067ffffffffffffffff82111761069657604052565b61069e61065d565b604052565b906101726106b060405190565b9283610674565b61024360209167ffffffffffffffff81116106d657601f01601f191690565b61020f61065d565b90826000939282370152565b929190610172916107026106fd836106b7565b6106a3565b94828652602086019183820111156106de5761071c600080fd5b6106de565b906101889181601f8201121561073d575b6020813591016106ea565b610745600080fd5b610732565b6080818303126107a8575b61075f828261031d565b92610188610770846020850161031d565b9361077e8160408601610294565b9360608101359067ffffffffffffffff821161079b575b01610721565b6107a3600080fd5b610795565b6107b0600080fd5b610755565b50346107d3575b6103766107ca36600461074a565b92919091610dfb565b6107db600080fd5b6107bc565b50346107fd575b6101c86102756107f83660046102a1565b61149a565b610805600080fd5b6107e7565b9061018891602081830312610832575b80359067ffffffffffffffff821161079b5701610721565b61083a600080fd5b61081a565b503461085c575b6101c86105a861085736600461080a565b611ae1565b610864600080fd5b610846565b91906101889060408482031261088d575b610884818561031d565b9360200161031d565b610895600080fd5b61087a565b50346108b8575b6101c86101b56108b2366004610869565b90610d21565b6108c0600080fd5b6108a1565b6380ac58cd60e01b6001600160e01b03198216149081156108f5575b81156108eb575090565b6101889150611671565b6001600160e01b03198116635b5e139f60e01b1491506108e1565b6102be6101886101889290565b61018890610910565b1561092d57565b60405162461bcd60e51b815260206004820152602960248201527f4552433732313a2061646472657373207a65726f206973206e6f7420612076616044820152683634b21037bbb732b960b91b6064820152608490fd5b0390fd5b610188906102be906001600160a01b031682565b61018890610988565b6101889061099c565b906109b8906109a5565b600052602052604060002090565b6101889081565b61018890546109c6565b610a0f610188916109e6600090565b50610a086109f76102be600061091d565b6001600160a01b0383161415610926565b60036109ae565b6109cd565b15610a1b57565b60405162461bcd60e51b815260206004820152601860248201527f4552433732313a20696e76616c696420746f6b656e20494400000000000000006044820152606490fd5b610a6d9060005b50610e9b565b610188610a7d6102be600061091d565b6001600160a01b0383161415610a14565b50634e487b7160e01b600052602260045260246000fd5b9060016002830492168015610ac8575b6020831014610ac057565b610172610a8e565b91607f1691610ab5565b80546000939291610aef610ae583610aa5565b8085529360200190565b9160018116908115610b415750600114610b0857505050565b610b1b9192939450600052602060002090565b916000925b818410610b2d5750500190565b805484840152602090930192600101610b20565b92949550505060ff1916825215156020020190565b9061018891610ad2565b90610172610b7a92610b7160405190565b93848092610b56565b0383610674565b61018890610b60565b6101886000610b81565b6101886001610b81565b15610ba557565b60405162461bcd60e51b815260206004820152602160248201527f4552433732313a20617070726f76616c20746f2063757272656e74206f776e656044820152603960f91b6064820152608490fd5b15610bfb57565b60405162461bcd60e51b815260206004820152603d60248201527f4552433732313a20617070726f76652063616c6c6572206973206e6f7420746f60448201527f6b656e206f776e6572206f7220617070726f76656420666f7220616c6c0000006064820152608490fd5b9061017291610cb1610c7783610a60565b610c956001600160a01b0382166001600160a01b0385161415610b9e565b336001600160a01b0382168114918215610cb6575b5050610bf4565b611187565b610cc09250610d21565b3880610caa565b6101886101886101889290565b906109b890610cc7565b610188906102be565b6101889054610cde565b610d1161018891610d00600090565b50610d0a816112b8565b6004610cd4565b610ce7565b61017291903361123d565b61018891610d3c610d4192610d34600090565b5060056109ae565b6109ae565b5460ff1690565b15610d4f57565b60405162461bcd60e51b815260206004820152602d60248201527f4552433732313a2063616c6c6572206973206e6f7420746f6b656e206f776e6560448201526c1c881bdc88185c1c1c9bdd9959609a1b6064820152608490fd5b610172929190610dc2610dbd8433610eb2565b610d48565b61106a565b90610dd46106fd836106b7565b918252565b6101886000610dc7565b610188610dd9565b909161017292610df9610de3565b925b61017293929190610e0f610dbd8433610eb2565b610e7c565b15610e1b57565b6040515b62461bcd60e51b815260206004820152603260248201527f4552433732313a207472616e7366657220746f206e6f6e20455243373231526560448201527131b2b4bb32b91034b6b83632b6b2b73a32b960711b6064820152608490fd5b916101729391610e9693610e9183838361106a565b611363565b610e14565b610d1161018891610eaa600090565b506002610cd4565b610ebb82610a60565b916001600160a01b0383166001600160a01b03831614928315610f15575b508215610ee557505090565b610f11919250610ef7610f0491610cf1565b926001600160a01b031690565b916001600160a01b031690565b1490565b610f229193508290610d21565b9138610ed9565b15610f3057565b60405162461bcd60e51b815260206004820152602560248201527f4552433732313a207472616e736665722066726f6d20696e636f72726563742060448201526437bbb732b960d91b6064820152608490fd5b15610f8a57565b60405162461bcd60e51b8152602060048201526024808201527f4552433732313a207472616e7366657220746f20746865207a65726f206164646044820152637265737360e01b6064820152608490fd5b916001600160a01b0360089290920291821b911b5b9181191691161790565b919061100b610188611013936109a5565b908354610fdb565b9055565b61017291600091610ffa565b9060001990610ff0565b9061103d61018861101392610cc7565b8254611023565b906001600160a01b0390610ff0565b90611063610188611013926109a5565b8254611044565b919061109061107883610a60565b61108a6001600160a01b038616610f04565b14610f29565b6110e360006110b56110a46102be8361091d565b6001600160a01b0385161415610f83565b6110d36110c185610a60565b61108a6001600160a01b038816610f04565b6110de846004610cd4565b611017565b6111276110f06001610cc7565b61111761111d846003610d3c6111068a836109ae565b61111787611113836109cd565b0390565b9061102d565b91610243836109cd565b61113b81611136846002610cd4565b611053565b61117761117161116b7fddf252ad1be2c89b69c2b068fc378daa952ba7f163c4a11628f55a4df523b3ef956109a5565b926109a5565b92610cc7565b9261118160405190565b600090a4565b9061119782611136836004610cd4565b6111a081610a60565b9161117761117161116b7f8c5be1e5ebec7d5bd14f71427d1e84f3dd0314c0f7b2291e5b200ac8c7c3b925956109a5565b156111d857565b60405162461bcd60e51b815260206004820152601960248201527f4552433732313a20617070726f766520746f2063616c6c6572000000000000006044820152606490fd5b9060ff90610ff0565b9061123661018861101392151590565b825461121d565b61125b6001600160a01b0383166001600160a01b03831614156111d1565b6112738361126e84610d3c8560056109ae565b611226565b6112b36112a96112a37f17307eab39ab6107e8899845ad3d59bd9653f200f220920489ca2b5937696c31936109a5565b936109a5565b936101b960405190565b0390a3565b6112c4610172916112c9565b610a14565b6112d4906000610a67565b6112e4610f046102be600061091d565b141590565b9050519061017282610152565b9061018891602081830312156112e95761130e600080fd5b6112e9565b6001600160a01b03918216815291166020820152604081019190915260806060820181905261018892910190610219565b3d1561135e576113533d610dc7565b903d6000602084013e565b606090565b9190939261136f600090565b946113798161157e565b1561145b57906113c06000611398611393602096956109a5565b6109a5565b926113cb63150b7a02916113a93390565b966113b360405190565b998a988997889660e01b90565b865260048601611313565b03925af16000918161142b575b5061140e57506113e6611344565b80516113f96113f56000610cc7565b9190565b0361140657604051610e1f565b805190602001fd5b909150610f11630a85bd0160e11b5b916001600160e01b03191690565b61144d91925060203d8111611454575b6114458183610674565b8101906112f6565b90386113d8565b503d61143b565b5060019450505050565b61024361147d92602092611477815190565b94859290565b938491016101ec565b611494906101889392611465565b90611465565b6114a3816112b8565b6114b66114b1826006610cd4565b610b81565b6114be611576565b80516000906114cf6113f583610cc7565b14611522576114e26113f5611171855190565b116114f257505061018890611529565b6101889250611516916101889161150860405190565b938492602084019283611486565b90810382520382610674565b5050905090565b611532816112b8565b61153a611576565b80516115496113f56000610cc7565b111561156c5761018861151691611562610188946115e5565b9061150860405190565b5050610188610de3565b610188610de3565b3b61158c6113f56000610cc7565b1190565b369037565b906101726115ab6115a584610dc7565b936106b7565b601f190160208401611590565b50634e487b7160e01b600052601260045260246000fd5b81156115d9570490565b6115e16115b8565b0490565b6115ee81611681565b906115fe60019261024384610cc7565b918061160984611595565b936020018401905b61161c575b50505090565b6116509060001901926f181899199a1a9b1b9c1cb0b131b232b360811b600a82061a845361164a600a610cc7565b906115cf565b908161165f6113f56000610cc7565b1461166c57909181611611565b611616565b610f116301ffc9a760e01b61141d565b61168b6000610cc7565b907a184f03e93ff9f4daa797ed6e38ed64bf6a1f0100000000000000006116b181610cc7565b821015611803575b506d04ee2d6d415b85acef81000000006116d281610cc7565b8210156117e1575b50662386f26fc100006116ec81610cc7565b8210156117bf575b506305f5e10061170381610cc7565b82101561179d575b5061271061171881610cc7565b82101561177b575b50606461172c81610cc7565b821015611759575b506117426113f5600a610cc7565b101561174b5790565b610188906102436001610cc7565b6117749161164a61176992610cc7565b916102436002610cc7565b9038611734565b6117969161164a61178b92610cc7565b916102436004610cc7565b9038611720565b6117b89161164a6117ad92610cc7565b916102436008610cc7565b903861170b565b6117da9161164a6117cf92610cc7565b916102436010610cc7565b90386116f4565b6117fc9161164a6117f192610cc7565b916102436020610cc7565b90386116da565b61181e9161164a61181392610cc7565b916102436040610cc7565b90386116b9565b50634e487b7160e01b600052601160045260246000fd5b600190600019811461184c570190565b610243611825565b50634e487b7160e01b600052603260045260246000fd5b61188b600191611879815490565b84101561189457600052602060002090565b91020190600090565b61189c611854565b600052602060002090565b610188916008021c6102be565b9061018891546118a7565b60208082526026908201527f4f6e6c7920746865206f776e65722063616e2063616c6c20746869732066756e60408201526531ba34b7b71760d11b606082015260800190565b1561190c57565b60405162461bcd60e51b815280610984600482016118bf565b9060009161193283610cc7565b600861193f610188825490565b8210156119c257611960610f046102be61195a85339561186b565b906118b4565b146119735761196e9061183c565b611932565b5061198892506119836001611905565b611a58565b907f8514e9874d1ee55d652d405875552b31f7275a881f0f832eab8d077876c093e26119b360405190565b806119bd816118bf565b0390a1565b505061198361198893611905565b7468747470733a2f2f697066732e696f2f697066732f60581b81526101889190601501611494565b6001600160a01b039091168152610188929091611a2c916080840191611a1f906020860152565b8382036040850152610219565b906060818303910152601081526f1050d51253d397d0d3d391925493515160821b602082015260400190565b50611a8d611a87600792611a6b84611e21565b610188611a7760405190565b80926115166020830191826119d0565b91611e0c565b908133611a9a8282611b88565b611aa48383611de7565b611adb7fe22cc2323a3a1e016e6de3d567fef2c2667443939a122469a166e3d293b16d0b93611ad260405190565b938493846119f8565b0390a190565b610188906000611925565b15611af357565b60405162461bcd60e51b815280610984600482016020808252818101527f4552433732313a206d696e7420746f20746865207a65726f2061646472657373604082015260600190565b15611b4357565b60405162461bcd60e51b815260206004820152601c60248201527f4552433732313a20746f6b656e20616c7265616479206d696e746564000000006044820152606490fd5b90611b93600061091d565b91611bb26001600160a01b0384166001600160a01b0383161415611aec565b611bca611bc5611bc1846112c9565b1590565b611b3c565b611bd9611bc5611bc1846112c9565b611127611be66001610cc7565b61111761111d8460036109ae565b15611bfb57565b60405162461bcd60e51b815260206004820152602e60248201527f45524337323155524953746f726167653a2055524920736574206f66206e6f6e60448201526d32bc34b9ba32b73a103a37b5b2b760911b6064820152608490fd5b9160001960089290920291821b911b610ff0565b9190611c7c61018861101393610cc7565b908354611c57565b61017291600091611c6b565b818110611c9b575050565b80611ca96000600193611c84565b01611c90565b9190601f8111611cbe57505050565b611cd061017293600052602060002090565b906020601f840181900483019310611cf2575b6020601f909101040190611c90565b9091508190611ce3565b90611d05815190565b9067ffffffffffffffff8211611dd0575b611d2a82611d248554610aa5565b85611caf565b602090601f8311600114611d6557611013929160009183611d5a575b5050600019600883021c1916906002021790565b015190503880611d46565b601f19831691611d7a85600052602060002090565b9260005b818110611db857509160029391856001969410611d9f575b50505002019055565b01516000196008601f8516021c19169055388080611d96565b91936020600181928787015181550195019201611d7e565b611dd861065d565b611d16565b9061017291611cfc565b90611e0761017292611e00611dfb826112c9565b611bf4565b6006610cd4565b611ddd565b600061018891611e1a600090565b50016109cd565b610172906111176000611e346001610cc7565b920191610243836109cd565b6020809167ffffffffffffffff8111611e5857020190565b611e6061065d565b020190565b90610dd46106fd83611e40565b906101726115ab611e8284611e65565b93611e40565b60005b828110611e9757505050565b606082820152602001611e8b565b90610172611eb5611e8284611e65565b601f190160208401611e88565b91908201809211611ecf57565b610172611825565b9060208091611ee4845190565b811015611ef2575b02010190565b611efa611854565b611eec565b6007611f12611f0d82611e0c565b611e72565b611f23611f1e83611e0c565b611ea5565b92611f2e6000610cc7565b611f3a61018885611e0c565b811015611fa557610188611f9d611f3a92611f6e611f61611f5b6001610cc7565b83611ec2565b611f6b8389611ed7565b52565b611f826107f8611f7e8389611ed7565b5190565b611f8c828a611ed7565b52611f978189611ed7565b5061183c565b915050611f2e565b509150919056fea2646970667358221220effdecabf558042708ce371f3f0fab12869cf249eebd3567d77261ad9c0135ec64736f6c63430008110033",
  "linkReferences": {},
  "deployedLinkReferences": {}
}