{
  "_format": "hh-sol-artifact-1",
  "contractName": "Certificate",
  "sourceName": "contracts/Certificate.sol",
  "abi": [
    {
      "anonymous": false,
      "inputs": [
        {
          "indexed": true,
          "internalType": "uint256",
          "name": "id",
          "type": "uint256"
        },
        {
          "indexed": false,
          "internalType": "string",
          "name": "firstName",
          "type": "string"
        },
        {
          "indexed": false,
          "internalType": "string",
          "name": "lastName",
          "type": "string"
        },
        {
          "indexed": false,
          "internalType": "uint256",
          "name": "createdAt",
          "type": "uint256"
        }
      ],
      "name": "CertificateIssued",
      "type": "event"
    },
    {
      "anonymous": false,
      "inputs": [
        {
          "indexed": true,
          "internalType": "uint256",
          "name": "id",
          "type": "uint256"
        },
        {
          "indexed": false,
          "internalType": "string",
          "name": "firstName",
          "type": "string"
        },
        {
          "indexed": false,
          "internalType": "string",
          "name": "lastName",
          "type": "string"
        },
        {
          "indexed": false,
          "internalType": "enum Certificate.Level",
          "name": "level",
          "type": "uint8"
        }
      ],
      "name": "StudentCreated",
      "type": "event"
    },
    {
      "inputs": [],
      "name": "counter",
      "outputs": [
        {
          "internalType": "uint256",
          "name": "",
          "type": "uint256"
        }
      ],
      "stateMutability": "view",
      "type": "function"
    },
    {
      "inputs": [
        {
          "internalType": "string",
          "name": "firstName",
          "type": "string"
        },
        {
          "internalType": "string",
          "name": "lastName",
          "type": "string"
        },
        {
          "internalType": "enum Certificate.Level",
          "name": "level",
          "type": "uint8"
        }
      ],
      "name": "createStudent",
      "outputs": [],
      "stateMutability": "nonpayable",
      "type": "function"
    },
    {
      "inputs": [
        {
          "internalType": "uint256",
          "name": "id",
          "type": "uint256"
        }
      ],
      "name": "issueCertificate",
      "outputs": [],
      "stateMutability": "nonpayable",
      "type": "function"
    },
    {
      "inputs": [
        {
          "internalType": "uint256",
          "name": "",
          "type": "uint256"
        }
      ],
      "name": "students",
      "outputs": [
        {
          "internalType": "uint256",
          "name": "id",
          "type": "uint256"
        },
        {
          "internalType": "string",
          "name": "firstName",
          "type": "string"
        },
        {
          "internalType": "string",
          "name": "lastName",
          "type": "string"
        },
        {
          "internalType": "enum Certificate.Level",
          "name": "level",
          "type": "uint8"
        }
      ],
      "stateMutability": "view",
      "type": "function"
    }
  ],
  "bytecode": "0x60806040526000805534801561001457600080fd5b50610e04806100246000396000f3fe608060405234801561001057600080fd5b506004361061004c5760003560e01c806306ead22e1461005157806361bc221a14610084578063c38fedbf146100a2578063d80fa7cf146100be575b600080fd5b61006b6004803603810190610066919061087b565b6100da565b60405161007b9493929190610a69565b60405180910390f35b61008c610227565b6040516100999190610a4e565b60405180910390f35b6100bc60048036038101906100b791906107fc565b61022d565b005b6100d860048036038101906100d3919061087b565b6103fa565b005b600160205280600052604060002060009150905080600001549080600101805461010390610b9f565b80601f016020809104026020016040519081016040528092919081815260200182805461012f90610b9f565b801561017c5780601f106101515761010080835404028352916020019161017c565b820191906000526020600020905b81548152906001019060200180831161015f57829003601f168201915b50505050509080600201805461019190610b9f565b80601f01602080910402602001604051908101604052809291908181526020018280546101bd90610b9f565b801561020a5780601f106101df5761010080835404028352916020019161020a565b820191906000526020600020905b8154815290600101906020018083116101ed57829003601f168201915b5050505050908060030160009054906101000a900460ff16905084565b60005481565b6000835111801561023f575060008251115b61027e576040517f08c379a000000000000000000000000000000000000000000000000000000000815260040161027590610a0e565b60405180910390fd5b600080600081548092919061029290610c02565b91905055905060405180608001604052808281526020018581526020018481526020018360028111156102ee577f4e487b7100000000000000000000000000000000000000000000000000000000600052602160045260246000fd5b8152506001600083815260200190815260200160002060008201518160000155602082015181600101908051906020019061032a9291906106c7565b5060408201518160020190805190602001906103479291906106c7565b5060608201518160030160006101000a81548160ff02191690836002811115610399577f4e487b7100000000000000000000000000000000000000000000000000000000600052602160045260246000fd5b02179055509050506000808154809291906103b390610c02565b9190505550807faec6d342bf96b36da42d68b297ba03cca20f2a18af15aacced2d2f5b74c405888585856040516103ec93929190610964565b60405180910390a250505050565b60008111801561040c57506000548111155b61044b576040517f08c379a0000000000000000000000000000000000000000000000000000000008152600401610442906109ee565b60405180910390fd5b6000600160008381526020019081526020016000206040518060800160405290816000820154815260200160018201805461048590610b9f565b80601f01602080910402602001604051908101604052809291908181526020018280546104b190610b9f565b80156104fe5780601f106104d3576101008083540402835291602001916104fe565b820191906000526020600020905b8154815290600101906020018083116104e157829003601f168201915b5050505050815260200160028201805461051790610b9f565b80601f016020809104026020016040519081016040528092919081815260200182805461054390610b9f565b80156105905780601f1061056557610100808354040283529160200191610590565b820191906000526020600020905b81548152906001019060200180831161057357829003601f168201915b505050505081526020016003820160009054906101000a900460ff1660028111156105e4577f4e487b7100000000000000000000000000000000000000000000000000000000600052602160045260246000fd5b600281111561061c577f4e487b7100000000000000000000000000000000000000000000000000000000600052602160045260246000fd5b815250509050600081602001515111801561063c57506000816040015151115b61067b576040517f08c379a000000000000000000000000000000000000000000000000000000000815260040161067290610a2e565b60405180910390fd5b80600001517fcd160e5d3f508cd6eb6630fe53c9be3aefb8c8cb49b820801c2ae628df7c810982602001518360400151426040516106bb939291906109a9565b60405180910390a25050565b8280546106d390610b9f565b90600052602060002090601f0160209004810192826106f5576000855561073c565b82601f1061070e57805160ff191683800117855561073c565b8280016001018555821561073c579182015b8281111561073b578251825591602001919060010190610720565b5b509050610749919061074d565b5090565b5b8082111561076657600081600090555060010161074e565b5090565b600061077d61077884610ae1565b610abc565b90508281526020810184848401111561079557600080fd5b6107a0848285610b5d565b509392505050565b6000813590506107b781610da7565b92915050565b600082601f8301126107ce57600080fd5b81356107de84826020860161076a565b91505092915050565b6000813590506107f681610db7565b92915050565b60008060006060848603121561081157600080fd5b600084013567ffffffffffffffff81111561082b57600080fd5b610837868287016107bd565b935050602084013567ffffffffffffffff81111561085457600080fd5b610860868287016107bd565b9250506040610871868287016107a8565b9150509250925092565b60006020828403121561088d57600080fd5b600061089b848285016107e7565b91505092915050565b6108ad81610b4b565b82525050565b60006108be82610b12565b6108c88185610b1d565b93506108d8818560208601610b6c565b6108e181610d07565b840191505092915050565b60006108f9601283610b1d565b915061090482610d18565b602082019050919050565b600061091c601483610b1d565b915061092782610d41565b602082019050919050565b600061093f601683610b1d565b915061094a82610d6a565b602082019050919050565b61095e81610b41565b82525050565b6000606082019050818103600083015261097e81866108b3565b9050818103602083015261099281856108b3565b90506109a160408301846108a4565b949350505050565b600060608201905081810360008301526109c381866108b3565b905081810360208301526109d781856108b3565b90506109e66040830184610955565b949350505050565b60006020820190508181036000830152610a07816108ec565b9050919050565b60006020820190508181036000830152610a278161090f565b9050919050565b60006020820190508181036000830152610a4781610932565b9050919050565b6000602082019050610a636000830184610955565b92915050565b6000608082019050610a7e6000830187610955565b8181036020830152610a9081866108b3565b90508181036040830152610aa481856108b3565b9050610ab360608301846108a4565b95945050505050565b6000610ac6610ad7565b9050610ad28282610bd1565b919050565b6000604051905090565b600067ffffffffffffffff821115610afc57610afb610cd8565b5b610b0582610d07565b9050602081019050919050565b600081519050919050565b600082825260208201905092915050565b6000819050610b3c82610d93565b919050565b6000819050919050565b6000610b5682610b2e565b9050919050565b82818337600083830152505050565b60005b83811015610b8a578082015181840152602081019050610b6f565b83811115610b99576000848401525b50505050565b60006002820490506001821680610bb757607f821691505b60208210811415610bcb57610bca610ca9565b5b50919050565b610bda82610d07565b810181811067ffffffffffffffff82111715610bf957610bf8610cd8565b5b80604052505050565b6000610c0d82610b41565b91507fffffffffffffffffffffffffffffffffffffffffffffffffffffffffffffffff821415610c4057610c3f610c4b565b5b600182019050919050565b7f4e487b7100000000000000000000000000000000000000000000000000000000600052601160045260246000fd5b7f4e487b7100000000000000000000000000000000000000000000000000000000600052602160045260246000fd5b7f4e487b7100000000000000000000000000000000000000000000000000000000600052602260045260246000fd5b7f4e487b7100000000000000000000000000000000000000000000000000000000600052604160045260246000fd5b6000601f19601f8301169050919050565b7f496e76616c69642073747564656e742049440000000000000000000000000000600082015250565b7f496e76616c69642073747564656e74206e616d65000000000000000000000000600082015250565b7f53747564656e7420646f6573206e6f7420657869737400000000000000000000600082015250565b60038110610da457610da3610c7a565b5b50565b60038110610db457600080fd5b50565b610dc081610b41565b8114610dcb57600080fd5b5056fea2646970667358221220d47af952fa67e7b7ee0fa101aabc9b34c59c4c7abac8fa74f616b9f540d8e1f064736f6c63430008040033",
  "linkReferences": {},
  "deployedLinkReferences": {}
}