{
  "_format": "hh-sol-artifact-1",
  "contractName": "StudentRegistry",
  "sourceName": "contracts/StudentRegistry.sol",
  "abi": [
    {
      "anonymous": false,
      "inputs": [
        {
          "indexed": false,
          "internalType": "uint256",
          "name": "id",
          "type": "uint256"
        },
        {
          "indexed": false,
          "internalType": "string",
          "name": "firstName",
          "type": "string"
        },
        {
          "indexed": false,
          "internalType": "string",
          "name": "lastName",
          "type": "string"
        },
        {
          "indexed": false,
          "internalType": "string",
          "name": "degree",
          "type": "string"
        },
        {
          "indexed": false,
          "internalType": "string",
          "name": "major",
          "type": "string"
        },
        {
          "indexed": false,
          "internalType": "string",
          "name": "year",
          "type": "string"
        },
        {
          "indexed": false,
          "internalType": "string",
          "name": "code",
          "type": "string"
        }
      ],
      "name": "StudentCreated",
      "type": "event"
    },
    {
      "anonymous": false,
      "inputs": [
        {
          "indexed": false,
          "internalType": "string",
          "name": "code",
          "type": "string"
        }
      ],
      "name": "StudentDeleted",
      "type": "event"
    },
    {
      "anonymous": false,
      "inputs": [
        {
          "indexed": false,
          "internalType": "uint256",
          "name": "id",
          "type": "uint256"
        },
        {
          "indexed": false,
          "internalType": "string",
          "name": "firstName",
          "type": "string"
        },
        {
          "indexed": false,
          "internalType": "string",
          "name": "lastName",
          "type": "string"
        },
        {
          "indexed": false,
          "internalType": "string",
          "name": "degree",
          "type": "string"
        },
        {
          "indexed": false,
          "internalType": "string",
          "name": "major",
          "type": "string"
        },
        {
          "indexed": false,
          "internalType": "string",
          "name": "year",
          "type": "string"
        },
        {
          "indexed": false,
          "internalType": "string",
          "name": "code",
          "type": "string"
        }
      ],
      "name": "StudentUpdated",
      "type": "event"
    },
    {
      "inputs": [
        {
          "internalType": "uint256",
          "name": "",
          "type": "uint256"
        }
      ],
      "name": "Students",
      "outputs": [
        {
          "internalType": "string",
          "name": "firstName",
          "type": "string"
        },
        {
          "internalType": "string",
          "name": "lastName",
          "type": "string"
        },
        {
          "components": [
            {
              "internalType": "string",
              "name": "degree",
              "type": "string"
            },
            {
              "internalType": "string",
              "name": "major",
              "type": "string"
            },
            {
              "internalType": "string",
              "name": "year",
              "type": "string"
            }
          ],
          "internalType": "struct StudentRegistry.Education",
          "name": "education",
          "type": "tuple"
        }
      ],
      "stateMutability": "view",
      "type": "function"
    },
    {
      "inputs": [
        {
          "internalType": "string",
          "name": "_firstName",
          "type": "string"
        },
        {
          "internalType": "string",
          "name": "_lastName",
          "type": "string"
        },
        {
          "internalType": "string",
          "name": "_degree",
          "type": "string"
        },
        {
          "internalType": "string",
          "name": "_major",
          "type": "string"
        },
        {
          "internalType": "string",
          "name": "_year",
          "type": "string"
        }
      ],
      "name": "createStudent",
      "outputs": [
        {
          "internalType": "uint256",
          "name": "",
          "type": "uint256"
        }
      ],
      "stateMutability": "nonpayable",
      "type": "function"
    },
    {
      "inputs": [
        {
          "internalType": "uint256",
          "name": "_studentId",
          "type": "uint256"
        }
      ],
      "name": "deleteStudent",
      "outputs": [],
      "stateMutability": "nonpayable",
      "type": "function"
    },
    {
      "inputs": [],
      "name": "getAallStudents",
      "outputs": [
        {
          "components": [
            {
              "internalType": "string",
              "name": "firstName",
              "type": "string"
            },
            {
              "internalType": "string",
              "name": "lastName",
              "type": "string"
            },
            {
              "components": [
                {
                  "internalType": "string",
                  "name": "degree",
                  "type": "string"
                },
                {
                  "internalType": "string",
                  "name": "major",
                  "type": "string"
                },
                {
                  "internalType": "string",
                  "name": "year",
                  "type": "string"
                }
              ],
              "internalType": "struct StudentRegistry.Education",
              "name": "education",
              "type": "tuple"
            }
          ],
          "internalType": "struct StudentRegistry.Student[]",
          "name": "",
          "type": "tuple[]"
        }
      ],
      "stateMutability": "view",
      "type": "function"
    },
    {
      "inputs": [
        {
          "internalType": "address",
          "name": "",
          "type": "address"
        }
      ],
      "name": "students",
      "outputs": [
        {
          "internalType": "string",
          "name": "firstName",
          "type": "string"
        },
        {
          "internalType": "string",
          "name": "lastName",
          "type": "string"
        },
        {
          "components": [
            {
              "internalType": "string",
              "name": "degree",
              "type": "string"
            },
            {
              "internalType": "string",
              "name": "major",
              "type": "string"
            },
            {
              "internalType": "string",
              "name": "year",
              "type": "string"
            }
          ],
          "internalType": "struct StudentRegistry.Education",
          "name": "education",
          "type": "tuple"
        }
      ],
      "stateMutability": "view",
      "type": "function"
    },
    {
      "inputs": [
        {
          "internalType": "uint256",
          "name": "_studentId",
          "type": "uint256"
        },
        {
          "internalType": "string",
          "name": "_firstName",
          "type": "string"
        },
        {
          "internalType": "string",
          "name": "_lastName",
          "type": "string"
        },
        {
          "internalType": "string",
          "name": "_degree",
          "type": "string"
        },
        {
          "internalType": "string",
          "name": "_major",
          "type": "string"
        },
        {
          "internalType": "string",
          "name": "_year",
          "type": "string"
        }
      ],
      "name": "updateStudent",
      "outputs": [],
      "stateMutability": "nonpayable",
      "type": "function"
    }
  ],
  "bytecode": "0x60806040523461001b575b604051611463610029823961146390f35b610023600080fd5b61000a56fe60806040526004361015610018575b610016600080fd5b005b60003560e01c80630352e27c1461009057806357c8d71d14610087578063728e22741461007e5780638ef4b9d314610075578063a6c807a91461006c5763b645307d0361000e5761006761088b565b61000e565b50610067610861565b5061006761078c565b506100676106a9565b506100676104e8565b5061006761020a565b600080fd5b60009103126100a957565b6100b1600080fd5b565b60005b8381106100c65750506000910152565b81810151838201526020016100b6565b601f01601f191690565b6101016100d660209361010a936100f5815190565b80835293849260200190565b958691016100b3565b0190565b80516060808452610150939160409161013f9161012d918501906100e0565b602085015184820360208601526100e0565b9201519060408184039101526100e0565b90565b8051606080845261015093916040916101729161012d918501906100e0565b92015190604081840391015261010e565b9061015091610153565b906101a3610199835190565b8083529160200190565b90816101b56020830284019460200190565b926000915b8383106101c957505050505090565b909192939460206101ec6101e583856001950387528951610183565b9760200190565b93019301919392906101ba565b60208082526101509291019061018d565b5034610237575b61021c36600461009e565b610233610227610f91565b604051918291826101f9565b0390f35b61023f600080fd5b610211565b805b0361009957565b905035906100b182610244565b90610150916020818303121561024d57610272600080fd5b61024d565b50634e487b7160e01b600052603260045260246000fd5b6102ae60059161029c815490565b8410156102b757600052602060002090565b91020190600090565b6102bf610277565b600052602060002090565b50634e487b7160e01b600052602260045260246000fd5b9060016002830492168015610304575b60208310146102fc57565b6100b16102ca565b91607f16916102f1565b8054600093929161032b610321836102e1565b8085529360200190565b916001811690811561037d575060011461034457505050565b6103579192939450600052602060002090565b916000925b8184106103695750500190565b80548484015260209093019260010161035c565b92949550505060ff1916825215156020020190565b906101509161030e565b50634e487b7160e01b600052604160045260246000fd5b90601f01601f191681019081106001600160401b038211176103d457604052565b6103dc61039c565b604052565b906100b16103fb926103f260405190565b93848092610392565b03836103b3565b906100b161040f60405190565b92836103b3565b6101506060610402565b906100b161045e6002610431610416565b9461044261043e826103e1565b8752565b610458610451600183016103e1565b6020880152565b016103e1565b6040840152565b90600191600092610474815490565b8210156104a95761048692935061028e565b50610490816103e1565b9161015060026104a2600185016103e1565b9301610420565b8380fd5b916104da906104cc6101509593606086019086820360008801526100e0565b9084820360208601526100e0565b91604081840391015261010e565b5034610514575b61023361050561050036600461025a565b610465565b604051919391938493846104ad565b61051c600080fd5b6104ef565b61010a6020916001600160401b03811161053f57601f01601f191690565b6100d661039c565b90826000939282370152565b9291906100b19161056b61056683610521565b610402565b948286526020860191838201111561054757610585600080fd5b610547565b906101509181601f820112156105a6575b602081359101610553565b6105ae600080fd5b61059b565b909160c08284031261069c575b6105ca838361024d565b926105ea8160208501356001600160401b038111610682575b850161058a565b9261060a8260408301356001600160401b03811161068f575b830161058a565b9261015061062c8460608501356001600160401b03811161068257850161058a565b9361064c8160808601356001600160401b038111610675575b860161058a565b9360a0810135906001600160401b038211610668575b0161058a565b610670600080fd5b610662565b61067d600080fd5b610645565b61068a600080fd5b6105e3565b610697600080fd5b610603565b6106a4600080fd5b6105c0565b50346106cf575b6106ca6106be3660046105b3565b94939093929192611076565b604051005b6106d7600080fd5b6106b0565b919060a08382031261077f575b6107048184356001600160401b03811161068257850161058a565b926107238260208301356001600160401b03811161068f57830161058a565b926101506107458460408501356001600160401b03811161068257850161058a565b936107648160608601356001600160401b03811161067557860161058a565b936080810135906001600160401b038211610668570161058a565b610787600080fd5b6106e9565b50346107bd575b6102336107ad6107a43660046106dc565b93929092610d4f565b6040519182918290815260200190565b6107c5600080fd5b610793565b6001600160a01b031690565b6001600160a01b038116610246565b905035906100b1826107d6565b9061015091602081830312156107e55761080a600080fd5b6107e5565b610150906107ca906001600160a01b031682565b6101509061080f565b61015090610823565b9061083f9061082c565b600052602052604060002090565b610858906000610835565b610490816103e1565b503461087e575b6102336105056108793660046107f2565b61084d565b610886600080fd5b610868565b50346108a5575b6106ca6108a036600461025a565b6113c2565b6108ad600080fd5b610892565b6101506101506101509290565b156108c657565b60405162461bcd60e51b815260206004820152601a60248201527f4669727374206e616d652063616e6e6f7420626520656d7074790000000000006044820152606490fd5b1561091257565b60405162461bcd60e51b815260206004820152601960248201527f4c617374206e616d652063616e6e6f7420626520656d707479000000000000006044820152606490fd5b1561095e57565b60405162461bcd60e51b81526020600482015260166024820152754465677265652063616e6e6f7420626520656d70747960501b6044820152606490fd5b156109a357565b60405162461bcd60e51b81526020600482015260156024820152744d616a6f722063616e6e6f7420626520656d70747960581b6044820152606490fd5b156109e757565b60405162461bcd60e51b8152602060048201526014602482015273796165722063616e6e6f7420626520656d70747960601b6044820152606490fd5b50634e487b7160e01b600052600060045260246000fd5b9190610a4b610150610a67936108b2565b9083549160001960089290920291821b911b9181191691161790565b9055565b6100b191600091610a3a565b818110610a82575050565b80610a906000600193610a6b565b01610a77565b9190601f8111610aa557505050565b610ab76100b193600052602060002090565b906020601f840181900483019310610ada575b6020601f909101045b0190610a77565b9091508190610aca565b600019600883021c1916906002021790565b90610aff815190565b906001600160401b038211610bbc575b610b2382610b1d85546102e1565b85610a96565b602090601f8311600114610b5157610a67929160009183610b46575b5050610ae4565b015190503880610b3f565b601f19831691610b6685600052602060002090565b9260005b818110610ba457509160029391856001969410610b8b575b50505002019055565b01516000196008601f8516021c19169055388080610b82565b91936020600181928787015181550195019201610b6a565b610bc461039c565b610b0f565b906100b191610af6565b90610bf1604060026100b194610bf760008201610bf1600088015190565b90610bc9565b610c0960018201610bf1602088015190565b0192015190565b906100b191610bd3565b90610c38604060026100b194610bf760008201610bf1600088015190565b90610c10565b6100b1929115610c1a57610c50610a23565b610c1a565b90610c786100b192805490600160401b821015610c7e575b60018201815561028e565b90610c3e565b610c8661039c565b610c6d565b50634e487b7160e01b600052601160045260246000fd5b91908203918211610caf57565b6100b1610c8b565b9490610d2494610cfa6101509895610cec89610d1697610cdf610d0897600060e08501940152565b8b820360208d01526100e0565b9089820360408b01526100e0565b9087820360608901526100e0565b9085820360808701526100e0565b9083820360a08501526100e0565b9060c0818303910152600f81526e414354494f4e5f434f4e4649524d4560881b602082015260400190565b9091610ead61015095610d60600090565b508351610d6c565b5190565b95610d89600097610d83610d7f8a6108b2565b9190565b116108bf565b610da6610d94875190565b610da0610d7f8a6108b2565b1161090b565b610dc3610db1855190565b610dbd610d7f8a6108b2565b11610957565b610de0610dce825190565b610dda610d7f8a6108b2565b1161099c565b610dfd610deb835190565b610df7610d7f8a6108b2565b116109e0565b610e4c610e08610416565b610e12868a830152565b610e1d836020830152565b610e28846040830152565b610e3a87610e34610416565b9a8b0152565b610e458860208b0152565b6040890152565b610e5e600197610e598990565b610c55565b610e78610e69885490565b610e72896108b2565b90610ca2565b937fb3ba2cff02b32eeb145a4310f642027c74c7037f3f86732ad86b47ee1fdd8d2a96610ea460405190565b96879687610cb7565b0390a1610e72610ebb825490565b916108b2565b602080916001600160401b038111610ed857020190565b610ee061039c565b020190565b90610ef261056683610ec1565b918252565b906100b161045e6002610f08610416565b94610f1561043e826103e1565b610f24610451600183016103e1565b01610420565b61015090610ef7565b90610f3c825490565b610f4581610ee5565b92610f596020850191600052602060002090565b6000915b838310610f6a5750505050565b60056020600192610f7a85610f2a565b815201920192019190610f5d565b61015090610f33565b6101506001610f88565b15610fa257565b60405162461bcd60e51b815260206004820152601960248201527f46697273746e616d652063616e6e6f7420626520656d707479000000000000006044820152606490fd5b15610fee57565b60405162461bcd60e51b815260206004820152601860248201527f4c6173746e616d652063616e6e6f7420626520656d70747900000000000000006044820152606490fd5b1561103a57565b60405162461bcd60e51b8152602060048201526014602482015273796561722063616e6e6f7420626520656d70747960601b6044820152606490fd5b92936111929295919461116761108c610d688890565b6110a460009161109e610d7f846108b2565b11610f9b565b6110c16110af8a5190565b6110bb610d7f846108b2565b11610fe7565b6110d86110cc845190565b610dbd610d7f846108b2565b6110ef6110e3855190565b610dda610d7f846108b2565b61110c6110fa865190565b611106610d7f846108b2565b11611033565b6002611116610416565b916111218582850152565b61112c866020850152565b611137876040850152565b6111618b600161115a8d61115261114e8f8561028e565b5090565b958601610bc9565b8301610bc9565b01610c10565b7f7805d5a30b55d3f171bac6edbc08f1ec7ff173b3a037a9835b57f9ea38d01c6d96610ea460405190565b0390a1565b906111aa90600019906020036008021c90565b8154169055565b906000916111cf6111c782600052602060002090565b928354610ae4565b905555565b919290602082101561122c57601f84116001146111f657610a67929350610ae4565b50906112276100b193600161121e61121385600052602060002090565b92601f602091010490565b82019101610a77565b6111b1565b506112658293611243600194600052602060002090565b610ad36020601f860104820192601f86168061126d575b50601f602091010490565b600202179055565b61127990888603611197565b3861125a565b929091602090600160401b83116112d4575b10156112c85760208110156112a957610a6791610ae4565b60019160ff19166112bf84600052602060002090565b55600202019055565b60019150600202019055565b6112dc61039c565b611291565b9081546112ed816102e1565b90818311611316575b818310611304575b50505050565b61130d936111d4565b388080806112fe565b6113228383838761127f565b6112f6565b60006100b1916112e1565b6100b1911561132757611343610a23565b611327565b600060026100b19261135c83808301611332565b6113698360018301611332565b01611332565b6100b1911561134857611380610a23565b611348565b600060026100b19261139983808301611332565b6113a68360018301611332565b0161136f565b6100b19115611385576113bd610a23565b611385565b6113d06113d691600161028e565b906113ac565b7fa6fb241657c3c18fc80b9ead1a3ff49713b698afdf880800d2fc42f10098cd5361140060405190565b6020808252600f908201526e414354494f4e5f434f4e4649524d4560881b6040820152806060810161119256fea26469706673582212209650d703beefb28a37f77babbfe9774f717aed88624244a11864071e9f8295ab64736f6c63430008110033",
  "linkReferences": {},
  "deployedLinkReferences": {}
}