{
  "_format": "hh-sol-artifact-1",
  "contractName": "StudentRegistry",
  "sourceName": "contracts/StudentRegistry.sol",
  "abi": [
    {
      "anonymous": false,
      "inputs": [
        {
          "indexed": true,
          "internalType": "address",
          "name": "studentAddress",
          "type": "address"
        },
        {
          "indexed": false,
          "internalType": "string",
          "name": "firstName",
          "type": "string"
        },
        {
          "indexed": false,
          "internalType": "string",
          "name": "lastName",
          "type": "string"
        },
        {
          "indexed": false,
          "internalType": "string",
          "name": "degree",
          "type": "string"
        },
        {
          "indexed": false,
          "internalType": "string",
          "name": "major",
          "type": "string"
        },
        {
          "indexed": false,
          "internalType": "uint256",
          "name": "year",
          "type": "uint256"
        }
      ],
      "name": "StudentCreated",
      "type": "event"
    },
    {
      "anonymous": false,
      "inputs": [
        {
          "indexed": true,
          "internalType": "address",
          "name": "studentAddress",
          "type": "address"
        }
      ],
      "name": "StudentDeleted",
      "type": "event"
    },
    {
      "anonymous": false,
      "inputs": [
        {
          "indexed": true,
          "internalType": "address",
          "name": "studentAddress",
          "type": "address"
        },
        {
          "indexed": false,
          "internalType": "string",
          "name": "firstName",
          "type": "string"
        },
        {
          "indexed": false,
          "internalType": "string",
          "name": "lastName",
          "type": "string"
        },
        {
          "indexed": false,
          "internalType": "string",
          "name": "degree",
          "type": "string"
        },
        {
          "indexed": false,
          "internalType": "string",
          "name": "major",
          "type": "string"
        },
        {
          "indexed": false,
          "internalType": "uint256",
          "name": "year",
          "type": "uint256"
        }
      ],
      "name": "StudentUpdated",
      "type": "event"
    },
    {
      "inputs": [
        {
          "internalType": "string",
          "name": "_firstName",
          "type": "string"
        },
        {
          "internalType": "string",
          "name": "_lastName",
          "type": "string"
        },
        {
          "internalType": "string",
          "name": "_degree",
          "type": "string"
        },
        {
          "internalType": "string",
          "name": "_major",
          "type": "string"
        },
        {
          "internalType": "uint256",
          "name": "_year",
          "type": "uint256"
        }
      ],
      "name": "createStudent",
      "outputs": [],
      "stateMutability": "nonpayable",
      "type": "function"
    },
    {
      "inputs": [],
      "name": "deleteStudent",
      "outputs": [],
      "stateMutability": "nonpayable",
      "type": "function"
    },
    {
      "inputs": [],
      "name": "issueCertificate",
      "outputs": [
        {
          "internalType": "bytes",
          "name": "",
          "type": "bytes"
        }
      ],
      "stateMutability": "view",
      "type": "function"
    },
    {
      "inputs": [],
      "name": "readStudent",
      "outputs": [
        {
          "internalType": "string",
          "name": "",
          "type": "string"
        },
        {
          "internalType": "string",
          "name": "",
          "type": "string"
        },
        {
          "internalType": "string",
          "name": "",
          "type": "string"
        },
        {
          "internalType": "string",
          "name": "",
          "type": "string"
        },
        {
          "internalType": "uint256",
          "name": "",
          "type": "uint256"
        }
      ],
      "stateMutability": "view",
      "type": "function"
    },
    {
      "inputs": [
        {
          "internalType": "address",
          "name": "",
          "type": "address"
        }
      ],
      "name": "students",
      "outputs": [
        {
          "internalType": "string",
          "name": "firstName",
          "type": "string"
        },
        {
          "internalType": "string",
          "name": "lastName",
          "type": "string"
        },
        {
          "components": [
            {
              "internalType": "string",
              "name": "degree",
              "type": "string"
            },
            {
              "internalType": "string",
              "name": "major",
              "type": "string"
            },
            {
              "internalType": "uint256",
              "name": "year",
              "type": "uint256"
            }
          ],
          "internalType": "struct StudentRegistry.Education",
          "name": "education",
          "type": "tuple"
        }
      ],
      "stateMutability": "view",
      "type": "function"
    },
    {
      "inputs": [
        {
          "internalType": "string",
          "name": "_firstName",
          "type": "string"
        },
        {
          "internalType": "string",
          "name": "_lastName",
          "type": "string"
        },
        {
          "internalType": "string",
          "name": "_degree",
          "type": "string"
        },
        {
          "internalType": "string",
          "name": "_major",
          "type": "string"
        },
        {
          "internalType": "uint256",
          "name": "_year",
          "type": "uint256"
        }
      ],
      "name": "updateStudent",
      "outputs": [],
      "stateMutability": "nonpayable",
      "type": "function"
    }
  ],
  "bytecode": "0x608060405234801561001057600080fd5b50611ed1806100206000396000f3fe608060405234801561001057600080fd5b50600436106100625760003560e01c80634e920ef814610067578063818169331461008957806392b2424d146100a7578063a6c807a9146100c3578063ec02547f146100f5578063f2750eaf146100ff575b600080fd5b61006f61011b565b60405161008095949392919061176a565b60405180910390f35b61009161040c565b60405161009e9190611748565b60405180910390f35b6100c160048036038101906100bc9190611283565b610725565b005b6100dd60048036038101906100d8919061125a565b61099d565b6040516100ec939291906117d9565b60405180910390f35b6100fd610c0f565b005b61011960048036038101906101149190611283565b610ce4565b005b6060806060806000806000803373ffffffffffffffffffffffffffffffffffffffff1673ffffffffffffffffffffffffffffffffffffffff16815260200190815260200160002060405180606001604052908160008201805461017d90611a7e565b80601f01602080910402602001604051908101604052809291908181526020018280546101a990611a7e565b80156101f65780601f106101cb576101008083540402835291602001916101f6565b820191906000526020600020905b8154815290600101906020018083116101d957829003601f168201915b5050505050815260200160018201805461020f90611a7e565b80601f016020809104026020016040519081016040528092919081815260200182805461023b90611a7e565b80156102885780601f1061025d57610100808354040283529160200191610288565b820191906000526020600020905b81548152906001019060200180831161026b57829003601f168201915b50505050508152602001600282016040518060600160405290816000820180546102b190611a7e565b80601f01602080910402602001604051908101604052809291908181526020018280546102dd90611a7e565b801561032a5780601f106102ff5761010080835404028352916020019161032a565b820191906000526020600020905b81548152906001019060200180831161030d57829003601f168201915b5050505050815260200160018201805461034390611a7e565b80601f016020809104026020016040519081016040528092919081815260200182805461036f90611a7e565b80156103bc5780601f10610391576101008083540402835291602001916103bc565b820191906000526020600020905b81548152906001019060200180831161039f57829003601f168201915b505050505081526020016002820154815250508152505090508060000151816020015182604001516000015183604001516020015184604001516040015195509550955095509550509091929394565b606060008060003373ffffffffffffffffffffffffffffffffffffffff1673ffffffffffffffffffffffffffffffffffffffff16815260200190815260200160002060405180606001604052908160008201805461046990611a7e565b80601f016020809104026020016040519081016040528092919081815260200182805461049590611a7e565b80156104e25780601f106104b7576101008083540402835291602001916104e2565b820191906000526020600020905b8154815290600101906020018083116104c557829003601f168201915b505050505081526020016001820180546104fb90611a7e565b80601f016020809104026020016040519081016040528092919081815260200182805461052790611a7e565b80156105745780601f1061054957610100808354040283529160200191610574565b820191906000526020600020905b81548152906001019060200180831161055757829003601f168201915b505050505081526020016002820160405180606001604052908160008201805461059d90611a7e565b80601f01602080910402602001604051908101604052809291908181526020018280546105c990611a7e565b80156106165780601f106105eb57610100808354040283529160200191610616565b820191906000526020600020905b8154815290600101906020018083116105f957829003601f168201915b5050505050815260200160018201805461062f90611a7e565b80601f016020809104026020016040519081016040528092919081815260200182805461065b90611a7e565b80156106a85780601f1061067d576101008083540402835291602001916106a8565b820191906000526020600020905b81548152906001019060200180831161068b57829003601f168201915b505050505081526020016002820154815250508152505090506000816000015182602001518360400151600001518460400151602001516106f0866040015160400151610f32565b4260405160200161070696959493929190611689565b6040516020818303038152906040529050600081905080935050505090565b6000855111610769576040517f08c379a000000000000000000000000000000000000000000000000000000000815260040161076090611865565b60405180910390fd5b60008451116107ad576040517f08c379a00000000000000000000000000000000000000000000000000000000081526004016107a490611825565b60405180910390fd5b60008351116107f1576040517f08c379a00000000000000000000000000000000000000000000000000000000081526004016107e890611885565b60405180910390fd5b6000825111610835576040517f08c379a000000000000000000000000000000000000000000000000000000000815260040161082c90611845565b60405180910390fd5b6000604051806060016040528085815260200184815260200183815250905060006040518060600160405280888152602001878152602001838152509050806000803373ffffffffffffffffffffffffffffffffffffffff1673ffffffffffffffffffffffffffffffffffffffff16815260200190815260200160002060008201518160000190805190602001906108ce9291906110e5565b5060208201518160010190805190602001906108eb9291906110e5565b5060408201518160020160008201518160000190805190602001906109119291906110e5565b50602082015181600101908051906020019061092e9291906110e5565b506040820151816002015550509050503373ffffffffffffffffffffffffffffffffffffffff167f7b2915ee83b60c835e492363a7976b66ae49d42f51b0824c27b0ecd4a89c18d4888888888860405161098c95949392919061176a565b60405180910390a250505050505050565b60006020528060005260406000206000915090508060000180546109c090611a7e565b80601f01602080910402602001604051908101604052809291908181526020018280546109ec90611a7e565b8015610a395780601f10610a0e57610100808354040283529160200191610a39565b820191906000526020600020905b815481529060010190602001808311610a1c57829003601f168201915b505050505090806001018054610a4e90611a7e565b80601f0160208091040260200160405190810160405280929190818152602001828054610a7a90611a7e565b8015610ac75780601f10610a9c57610100808354040283529160200191610ac7565b820191906000526020600020905b815481529060010190602001808311610aaa57829003601f168201915b50505050509080600201604051806060016040529081600082018054610aec90611a7e565b80601f0160208091040260200160405190810160405280929190818152602001828054610b1890611a7e565b8015610b655780601f10610b3a57610100808354040283529160200191610b65565b820191906000526020600020905b815481529060010190602001808311610b4857829003601f168201915b50505050508152602001600182018054610b7e90611a7e565b80601f0160208091040260200160405190810160405280929190818152602001828054610baa90611a7e565b8015610bf75780601f10610bcc57610100808354040283529160200191610bf7565b820191906000526020600020905b815481529060010190602001808311610bda57829003601f168201915b50505050508152602001600282015481525050905083565b6000803373ffffffffffffffffffffffffffffffffffffffff1673ffffffffffffffffffffffffffffffffffffffff16815260200190815260200160002060008082016000610c5e919061116b565b600182016000610c6e919061116b565b6002820160008082016000610c83919061116b565b600182016000610c93919061116b565b6002820160009055505050503373ffffffffffffffffffffffffffffffffffffffff167f8b92780c414b9f0cc7e66f9ea0f7eb6a8cf72ac0571cd2445169f4c35c37418360405160405180910390a2565b6000855111610d28576040517f08c379a0000000000000000000000000000000000000000000000000000000008152600401610d1f90611865565b60405180910390fd5b6000845111610d6c576040517f08c379a0000000000000000000000000000000000000000000000000000000008152600401610d6390611825565b60405180910390fd5b6000835111610db0576040517f08c379a0000000000000000000000000000000000000000000000000000000008152600401610da790611885565b60405180910390fd5b6000825111610df4576040517f08c379a0000000000000000000000000000000000000000000000000000000008152600401610deb90611845565b60405180910390fd5b6000604051806060016040528085815260200184815260200183815250905060008060003373ffffffffffffffffffffffffffffffffffffffff1673ffffffffffffffffffffffffffffffffffffffff168152602001908152602001600020905086816000019080519060200190610e6d9291906110e5565b5085816001019080519060200190610e869291906110e5565b5081816002016000820151816000019080519060200190610ea89291906110e5565b506020820151816001019080519060200190610ec59291906110e5565b50604082015181600201559050503373ffffffffffffffffffffffffffffffffffffffff167f23bc9910b06b4440a923ecc439f6e57a3bc500bebf0b8c6c90e9a73633344ea78888888888604051610f2195949392919061176a565b60405180910390a250505050505050565b60606000821415610f7a576040518060400160405280600181526020017f300000000000000000000000000000000000000000000000000000000000000081525090506110e0565b600082905060005b60008214610fac578080610f9590611ae1565b915050600a82610fa591906119a5565b9150610f82565b60008167ffffffffffffffff811115610fee577f4e487b7100000000000000000000000000000000000000000000000000000000600052604160045260246000fd5b6040519080825280601f01601f1916602001820160405280156110205781602001600182028036833780820191505090505b50905060008290508593505b600084146110d857600a846110419190611b34565b603061104d919061194f565b60f81b828261105b90611a54565b92508281518110611095577f4e487b7100000000000000000000000000000000000000000000000000000000600052603260045260246000fd5b60200101907effffffffffffffffffffffffffffffffffffffffffffffffffffffffffffff1916908160001a905350600a846110d191906119a5565b935061102c565b819450505050505b919050565b8280546110f190611a7e565b90600052602060002090601f016020900481019282611113576000855561115a565b82601f1061112c57805160ff191683800117855561115a565b8280016001018555821561115a579182015b8281111561115957825182559160200191906001019061113e565b5b50905061116791906111ab565b5090565b50805461117790611a7e565b6000825580601f1061118957506111a8565b601f0160209004906000526020600020908101906111a791906111ab565b5b50565b5b808211156111c45760008160009055506001016111ac565b5090565b60006111db6111d6846118ca565b6118a5565b9050828152602081018484840111156111f357600080fd5b6111fe848285611a12565b509392505050565b60008135905061121581611e6d565b92915050565b600082601f83011261122c57600080fd5b813561123c8482602086016111c8565b91505092915050565b60008135905061125481611e84565b92915050565b60006020828403121561126c57600080fd5b600061127a84828501611206565b91505092915050565b600080600080600060a0868803121561129b57600080fd5b600086013567ffffffffffffffff8111156112b557600080fd5b6112c18882890161121b565b955050602086013567ffffffffffffffff8111156112de57600080fd5b6112ea8882890161121b565b945050604086013567ffffffffffffffff81111561130757600080fd5b6113138882890161121b565b935050606086013567ffffffffffffffff81111561133057600080fd5b61133c8882890161121b565b925050608061134d88828901611245565b9150509295509295909350565b6000611365826118fb565b61136f8185611911565b935061137f818560208601611a21565b61138881611c21565b840191505092915050565b600061139e82611906565b6113a88185611922565b93506113b8818560208601611a21565b6113c181611c21565b840191505092915050565b60006113d782611906565b6113e18185611933565b93506113f1818560208601611a21565b6113fa81611c21565b840191505092915050565b600061141082611906565b61141a8185611944565b935061142a818560208601611a21565b80840191505092915050565b6000611443601983611933565b915061144e82611c32565b602082019050919050565b6000611466601883611944565b915061147182611c5b565b601882019050919050565b6000611489603f83611944565b915061149482611c84565b603f82019050919050565b60006114ac600483611944565b91506114b782611cd3565b600482019050919050565b60006114cf601583611933565b91506114da82611cfc565b602082019050919050565b60006114f2601a83611933565b91506114fd82611d25565b602082019050919050565b6000611515600183611944565b915061152082611d4e565b600182019050919050565b6000611538600483611944565b915061154382611d77565b600482019050919050565b600061155b601b83611944565b915061156682611da0565b601b82019050919050565b600061157e601683611933565b915061158982611dc9565b602082019050919050565b60006115a1600a83611944565b91506115ac82611df2565b600a82019050919050565b60006115c4600383611944565b91506115cf82611e1b565b600382019050919050565b60006115e7600283611944565b91506115f282611e44565b600282019050919050565b6000606083016000830151848203600086015261161a8282611393565b915050602083015184820360208601526116348282611393565b91505060408301516116496040860182611654565b508091505092915050565b61165d81611a08565b82525050565b61166c81611a08565b82525050565b61168361167e82611a08565b611b2a565b82525050565b60006116948261154e565b915061169f82611459565b91506116ab8289611405565b91506116b682611508565b91506116c28288611405565b91506116cd8261147c565b91506116d98287611405565b91506116e48261152b565b91506116f08286611405565b91506116fb8261149f565b91506117078285611405565b9150611712826115b7565b915061171d82611594565b91506117298284611672565b602082019150611738826115da565b9150819050979650505050505050565b60006020820190508181036000830152611762818461135a565b905092915050565b600060a082019050818103600083015261178481886113cc565b9050818103602083015261179881876113cc565b905081810360408301526117ac81866113cc565b905081810360608301526117c081856113cc565b90506117cf6080830184611663565b9695505050505050565b600060608201905081810360008301526117f381866113cc565b9050818103602083015261180781856113cc565b9050818103604083015261181b81846115fd565b9050949350505050565b6000602082019050818103600083015261183e81611436565b9050919050565b6000602082019050818103600083015261185e816114c2565b9050919050565b6000602082019050818103600083015261187e816114e5565b9050919050565b6000602082019050818103600083015261189e81611571565b9050919050565b60006118af6118c0565b90506118bb8282611ab0565b919050565b6000604051905090565b600067ffffffffffffffff8211156118e5576118e4611bf2565b5b6118ee82611c21565b9050602081019050919050565b600081519050919050565b600081519050919050565b600082825260208201905092915050565b600082825260208201905092915050565b600082825260208201905092915050565b600081905092915050565b600061195a82611a08565b915061196583611a08565b9250827fffffffffffffffffffffffffffffffffffffffffffffffffffffffffffffffff0382111561199a57611999611b65565b5b828201905092915050565b60006119b082611a08565b91506119bb83611a08565b9250826119cb576119ca611b94565b5b828204905092915050565b60006119e1826119e8565b9050919050565b600073ffffffffffffffffffffffffffffffffffffffff82169050919050565b6000819050919050565b82818337600083830152505050565b60005b83811015611a3f578082015181840152602081019050611a24565b83811115611a4e576000848401525b50505050565b6000611a5f82611a08565b91506000821415611a7357611a72611b65565b5b600182039050919050565b60006002820490506001821680611a9657607f821691505b60208210811415611aaa57611aa9611bc3565b5b50919050565b611ab982611c21565b810181811067ffffffffffffffff82111715611ad857611ad7611bf2565b5b80604052505050565b6000611aec82611a08565b91507fffffffffffffffffffffffffffffffffffffffffffffffffffffffffffffffff821415611b1f57611b1e611b65565b5b600182019050919050565b6000819050919050565b6000611b3f82611a08565b9150611b4a83611a08565b925082611b5a57611b59611b94565b5b828206905092915050565b7f4e487b7100000000000000000000000000000000000000000000000000000000600052601160045260246000fd5b7f4e487b7100000000000000000000000000000000000000000000000000000000600052601260045260246000fd5b7f4e487b7100000000000000000000000000000000000000000000000000000000600052602260045260246000fd5b7f4e487b7100000000000000000000000000000000000000000000000000000000600052604160045260246000fd5b6000601f19601f8301169050919050565b7f4c617374206e616d652063616e6e6f7420626520656d70747900000000000000600082015250565b7f5468697320697320746f20636572746966792074686174200000000000000000600082015250565b7f20686173207375636365737366756c6c7920636f6d706c65746564207468652060008201527f726571756972656d656e747320666f722074686520646567726565206f662000602082015250565b7f206f6e2000000000000000000000000000000000000000000000000000000000600082015250565b7f4d616a6f722063616e6e6f7420626520656d7074790000000000000000000000600082015250565b7f4669727374206e616d652063616e6e6f7420626520656d707479000000000000600082015250565b7f2000000000000000000000000000000000000000000000000000000000000000600082015250565b7f20696e2000000000000000000000000000000000000000000000000000000000600082015250565b7f4365727469666963617465206f662047726164756174696f6e0a0a0000000000600082015250565b7f4465677265652063616e6e6f7420626520656d70747900000000000000000000600082015250565b7f497373756564206f6e2000000000000000000000000000000000000000000000600082015250565b7f2e0a0a0000000000000000000000000000000000000000000000000000000000600082015250565b7f2e0a000000000000000000000000000000000000000000000000000000000000600082015250565b611e76816119d6565b8114611e8157600080fd5b50565b611e8d81611a08565b8114611e9857600080fd5b5056fea2646970667358221220db56870ba3ebd47db8dca355aed5ff853c2d5905cfa53bfde88cb9779b4bdc7964736f6c63430008040033",
  "linkReferences": {},
  "deployedLinkReferences": {}
}