{
  "_format": "hh-sol-artifact-1",
  "contractName": "StudentRegistry",
  "sourceName": "contracts/StudentRegistry.sol",
  "abi": [
    {
      "anonymous": false,
      "inputs": [
        {
          "indexed": false,
          "internalType": "uint256",
          "name": "id",
          "type": "uint256"
        },
        {
          "indexed": false,
          "internalType": "string",
          "name": "code",
          "type": "string"
        }
      ],
      "name": "CertificateIssued",
      "type": "event"
    },
    {
      "anonymous": false,
      "inputs": [
        {
          "indexed": false,
          "internalType": "uint256",
          "name": "id",
          "type": "uint256"
        },
        {
          "indexed": false,
          "internalType": "string",
          "name": "firstName",
          "type": "string"
        },
        {
          "indexed": false,
          "internalType": "string",
          "name": "lastName",
          "type": "string"
        },
        {
          "indexed": false,
          "internalType": "string",
          "name": "degree",
          "type": "string"
        },
        {
          "indexed": false,
          "internalType": "string",
          "name": "major",
          "type": "string"
        },
        {
          "indexed": false,
          "internalType": "string",
          "name": "year",
          "type": "string"
        },
        {
          "indexed": false,
          "internalType": "string",
          "name": "code",
          "type": "string"
        }
      ],
      "name": "StudentCreated",
      "type": "event"
    },
    {
      "anonymous": false,
      "inputs": [
        {
          "indexed": false,
          "internalType": "string",
          "name": "code",
          "type": "string"
        }
      ],
      "name": "StudentDeleted",
      "type": "event"
    },
    {
      "anonymous": false,
      "inputs": [
        {
          "indexed": false,
          "internalType": "uint256",
          "name": "id",
          "type": "uint256"
        },
        {
          "indexed": false,
          "internalType": "string",
          "name": "firstName",
          "type": "string"
        },
        {
          "indexed": false,
          "internalType": "string",
          "name": "lastName",
          "type": "string"
        },
        {
          "indexed": false,
          "internalType": "string",
          "name": "degree",
          "type": "string"
        },
        {
          "indexed": false,
          "internalType": "string",
          "name": "major",
          "type": "string"
        },
        {
          "indexed": false,
          "internalType": "string",
          "name": "year",
          "type": "string"
        },
        {
          "indexed": false,
          "internalType": "string",
          "name": "code",
          "type": "string"
        }
      ],
      "name": "StudentUpdated",
      "type": "event"
    },
    {
      "inputs": [
        {
          "internalType": "uint256",
          "name": "",
          "type": "uint256"
        }
      ],
      "name": "Students",
      "outputs": [
        {
          "internalType": "string",
          "name": "firstName",
          "type": "string"
        },
        {
          "internalType": "string",
          "name": "lastName",
          "type": "string"
        },
        {
          "components": [
            {
              "internalType": "string",
              "name": "degree",
              "type": "string"
            },
            {
              "internalType": "string",
              "name": "major",
              "type": "string"
            },
            {
              "internalType": "string",
              "name": "year",
              "type": "string"
            }
          ],
          "internalType": "struct StudentRegistry.Education",
          "name": "education",
          "type": "tuple"
        },
        {
          "internalType": "bool",
          "name": "isissued",
          "type": "bool"
        }
      ],
      "stateMutability": "view",
      "type": "function"
    },
    {
      "inputs": [
        {
          "internalType": "string",
          "name": "_firstName",
          "type": "string"
        },
        {
          "internalType": "string",
          "name": "_lastName",
          "type": "string"
        },
        {
          "internalType": "string",
          "name": "_degree",
          "type": "string"
        },
        {
          "internalType": "string",
          "name": "_major",
          "type": "string"
        },
        {
          "internalType": "string",
          "name": "_year",
          "type": "string"
        }
      ],
      "name": "createStudent",
      "outputs": [
        {
          "internalType": "uint256",
          "name": "",
          "type": "uint256"
        }
      ],
      "stateMutability": "nonpayable",
      "type": "function"
    },
    {
      "inputs": [
        {
          "internalType": "uint256",
          "name": "_studentId",
          "type": "uint256"
        }
      ],
      "name": "deleteStudent",
      "outputs": [],
      "stateMutability": "nonpayable",
      "type": "function"
    },
    {
      "inputs": [],
      "name": "getAallStudents",
      "outputs": [
        {
          "components": [
            {
              "internalType": "string",
              "name": "firstName",
              "type": "string"
            },
            {
              "internalType": "string",
              "name": "lastName",
              "type": "string"
            },
            {
              "components": [
                {
                  "internalType": "string",
                  "name": "degree",
                  "type": "string"
                },
                {
                  "internalType": "string",
                  "name": "major",
                  "type": "string"
                },
                {
                  "internalType": "string",
                  "name": "year",
                  "type": "string"
                }
              ],
              "internalType": "struct StudentRegistry.Education",
              "name": "education",
              "type": "tuple"
            },
            {
              "internalType": "bool",
              "name": "isissued",
              "type": "bool"
            }
          ],
          "internalType": "struct StudentRegistry.Student[]",
          "name": "",
          "type": "tuple[]"
        }
      ],
      "stateMutability": "view",
      "type": "function"
    },
    {
      "inputs": [
        {
          "internalType": "uint256",
          "name": "studentId",
          "type": "uint256"
        },
        {
          "internalType": "bool",
          "name": "isissued",
          "type": "bool"
        }
      ],
      "name": "isissuedcertificate",
      "outputs": [],
      "stateMutability": "nonpayable",
      "type": "function"
    },
    {
      "inputs": [
        {
          "internalType": "address",
          "name": "",
          "type": "address"
        }
      ],
      "name": "students",
      "outputs": [
        {
          "internalType": "string",
          "name": "firstName",
          "type": "string"
        },
        {
          "internalType": "string",
          "name": "lastName",
          "type": "string"
        },
        {
          "components": [
            {
              "internalType": "string",
              "name": "degree",
              "type": "string"
            },
            {
              "internalType": "string",
              "name": "major",
              "type": "string"
            },
            {
              "internalType": "string",
              "name": "year",
              "type": "string"
            }
          ],
          "internalType": "struct StudentRegistry.Education",
          "name": "education",
          "type": "tuple"
        },
        {
          "internalType": "bool",
          "name": "isissued",
          "type": "bool"
        }
      ],
      "stateMutability": "view",
      "type": "function"
    },
    {
      "inputs": [
        {
          "internalType": "uint256",
          "name": "_studentId",
          "type": "uint256"
        },
        {
          "internalType": "string",
          "name": "_firstName",
          "type": "string"
        },
        {
          "internalType": "string",
          "name": "_lastName",
          "type": "string"
        },
        {
          "internalType": "string",
          "name": "_degree",
          "type": "string"
        },
        {
          "internalType": "string",
          "name": "_major",
          "type": "string"
        },
        {
          "internalType": "string",
          "name": "_year",
          "type": "string"
        }
      ],
      "name": "updateStudent",
      "outputs": [],
      "stateMutability": "nonpayable",
      "type": "function"
    }
  ],
  "bytecode": "0x60806040523461001b575b604051611648610029823961164890f35b610023600080fd5b61000a56fe60806040526004361015610018575b610016600080fd5b005b60003560e01c80630352e27c146100a457806350ca5d1a1461009b57806357c8d71d14610092578063728e2274146100895780638ef4b9d314610080578063a6c807a9146100775763b645307d0361000e5761007261095a565b61000e565b50610072610930565b5061007261085a565b5061007261077c565b506100726105b4565b506100726102d9565b50610072610243565b600080fd5b60009103126100bd57565b6100c5600080fd5b565b60005b8381106100da5750506000910152565b81810151838201526020016100ca565b601f01601f191690565b6101156100ea60209361011e93610109815190565b80835293849260200190565b958691016100c7565b0190565b80516060808452610164939160409161015391610141918501906100f4565b602085015184820360208601526100f4565b9201519060408184039101526100f4565b90565b90610164906060806101b26101a061018e60808601600089015187820360008901526100f4565b602088015186820360208801526100f4565b60408701518582036040870152610122565b9401511515910152565b9061016491610167565b906101dc6101d2835190565b8083529160200190565b90816101ee6020830284019460200190565b926000915b83831061020257505050505090565b9091929394602061022561021e838560019503875289516101bc565b9760200190565b93019301919392906101f3565b6020808252610164929101906101c6565b5034610270575b6102553660046100b2565b61026c6102606110f2565b60405191829182610232565b0390f35b610278600080fd5b61024a565b805b036100ad57565b905035906100c58261027d565b80151561027f565b905035906100c582610293565b9190610164906040848203126102cc575b6102c38185610286565b9360200161029b565b6102d4600080fd5b6102b9565b50346102f9575b6102f46102ee3660046102a8565b906110fc565b604051005b610301600080fd5b6102e0565b9061016491602081830312156102865761031e600080fd5b610286565b50634e487b7160e01b600052603260045260246000fd5b61035a600691610348815490565b84101561036357600052602060002090565b91020190600090565b61036b610323565b600052602060002090565b50634e487b7160e01b600052602260045260246000fd5b90600160028304921680156103b0575b60208310146103a857565b6100c5610376565b91607f169161039d565b805460009392916103d76103cd8361038d565b8085529360200190565b916001811690811561042957506001146103f057505050565b6104039192939450600052602060002090565b916000925b8184106104155750500190565b805484840152602090930192600101610408565b92949550505060ff1916825215156020020190565b90610164916103ba565b50634e487b7160e01b600052604160045260246000fd5b90601f01601f191681019081106001600160401b0382111761048057604052565b610488610448565b604052565b906100c56104a79261049e60405190565b9384809261043e565b038361045f565b906100c56104bb60405190565b928361045f565b61016460606104ae565b906100c561050a60026104dd6104c2565b946104ee6104ea8261048d565b8752565b6105046104fd6001830161048d565b6020880152565b0161048d565b6040840152565b90600191600092610520815490565b8210156105655761053292935061033a565b509061053d8261048d565b9161054a6001820161048d565b91610164600561055c600285016104cc565b93015460ff1690565b8380fd5b9493916100c59361059d6105ab9261058f60609560808b01908b820360008d01526100f4565b9089820360208b01526100f4565b908782036040890152610122565b94019015159052565b50346105e7575b61026c6105d16105cc366004610306565b610511565b906105de94929460405190565b94859485610569565b6105ef600080fd5b6105bb565b61011e6020916001600160401b03811161061257601f01601f191690565b6100ea610448565b90826000939282370152565b9291906100c59161063e610639836105f4565b6104ae565b948286526020860191838201111561061a57610658600080fd5b61061a565b906101649181601f82011215610679575b602081359101610626565b610681600080fd5b61066e565b909160c08284031261076f575b61069d8383610286565b926106bd8160208501356001600160401b038111610755575b850161065d565b926106dd8260408301356001600160401b038111610762575b830161065d565b926101646106ff8460608501356001600160401b03811161075557850161065d565b9361071f8160808601356001600160401b038111610748575b860161065d565b9360a0810135906001600160401b03821161073b575b0161065d565b610743600080fd5b610735565b610750600080fd5b610718565b61075d600080fd5b6106b6565b61076a600080fd5b6106d6565b610777600080fd5b610693565b503461079d575b6102f4610791366004610686565b9493909392919261125d565b6107a5600080fd5b610783565b919060a08382031261084d575b6107d28184356001600160401b03811161075557850161065d565b926107f18260208301356001600160401b03811161076257830161065d565b926101646108138460408501356001600160401b03811161075557850161065d565b936108328160608601356001600160401b03811161074857860161065d565b936080810135906001600160401b03821161073b570161065d565b610855600080fd5b6107b7565b503461088b575b61026c61087b6108723660046107aa565b93929092610e81565b6040519182918290815260200190565b610893600080fd5b610861565b6001600160a01b031690565b6001600160a01b03811661027f565b905035906100c5826108a4565b9061016491602081830312156108b3576108d8600080fd5b6108b3565b61016490610898906001600160a01b031682565b610164906108dd565b610164906108f1565b9061090d906108fa565b600052602052604060002090565b610926906000610903565b9061053d8261048d565b503461094d575b61026c6105d16109483660046108c0565b61091b565b610955600080fd5b610937565b5034610974575b6102f461096f366004610306565b6115a7565b61097c600080fd5b610961565b6101646101646101649290565b1561099557565b60405162461bcd60e51b815260206004820152601a60248201527f4669727374206e616d652063616e6e6f7420626520656d7074790000000000006044820152606490fd5b156109e157565b60405162461bcd60e51b815260206004820152601960248201527f4c617374206e616d652063616e6e6f7420626520656d707479000000000000006044820152606490fd5b15610a2d57565b60405162461bcd60e51b81526020600482015260166024820152754465677265652063616e6e6f7420626520656d70747960501b6044820152606490fd5b15610a7257565b60405162461bcd60e51b81526020600482015260156024820152744d616a6f722063616e6e6f7420626520656d70747960581b6044820152606490fd5b15610ab657565b60405162461bcd60e51b8152602060048201526014602482015273796165722063616e6e6f7420626520656d70747960601b6044820152606490fd5b61016460806104ae565b50634e487b7160e01b600052600060045260246000fd5b9160001960089290920291821b911b5b9181191691161790565b9190610b3e610164610b4693610981565b908354610b13565b9055565b6100c591600091610b2d565b818110610b61575050565b80610b6f6000600193610b4a565b01610b56565b9190601f8111610b8457505050565b610b966100c593600052602060002090565b906020601f840181900483019310610bb9575b6020601f909101045b0190610b56565b9091508190610ba9565b600019600883021c1916906002021790565b90610bde815190565b906001600160401b038211610c9b575b610c0282610bfc855461038d565b85610b75565b602090601f8311600114610c3057610b46929160009183610c25575b5050610bc3565b015190503880610c1e565b601f19831691610c4585600052602060002090565b9260005b818110610c8357509160029391856001969410610c6a575b50505002019055565b01516000196008601f8516021c19169055388080610c61565b91936020600181928787015181550195019201610c49565b610ca3610448565b610bee565b906100c591610bd5565b90610cd0604060026100c594610cd660008201610cd0600088015190565b90610ca8565b610ce860018201610cd0602088015190565b0192015190565b906100c591610cb2565b9060ff90610b23565b90610d12610164610b4692151590565b8254610cf9565b90610d6a606060056100c594610d3760008201610cd0600088015190565b610d4960018201610cd0602088015190565b610d6160028201610d5b604088015190565b90610cef565b01920151151590565b90610d02565b6100c5929115610d1957610d82610afc565b610d19565b90610daa6100c592805490600160401b821015610db0575b60018201815561033a565b90610d70565b610db8610448565b610d9f565b50634e487b7160e01b600052601160045260246000fd5b91908203918211610de157565b6100c5610dbd565b9490610e5694610e2c6101649895610e1e89610e4897610e11610e3a97600060e08501940152565b8b820360208d01526100f4565b9089820360408b01526100f4565b9087820360608901526100f4565b9085820360808701526100f4565b9083820360a08501526100f4565b9060c0818303910152600f81526e414354494f4e5f434f4e4649524d4560881b602082015260400190565b9091610fed61016495610e92600090565b508351610e9e565b5190565b95610ebb600097610eb5610eb18a610981565b9190565b1161098e565b610ed8610ec6875190565b610ed2610eb18a610981565b116109da565b610ef5610ee3855190565b610eef610eb18a610981565b11610a26565b610f12610f00825190565b610f0c610eb18a610981565b11610a6b565b610f2f610f1d835190565b610f29610eb18a610981565b11610aaf565b610f8c610f3a6104c2565b97610f4586828b0152565b610f508360208b0152565b610f5b8460408b0152565b610f83610f66610af2565b99610f7189848d0152565b610f7c8a60208d0152565b60408b0152565b15156060890152565b610f9e600197610f998990565b610d87565b610fb8610fa9885490565b610fb289610981565b90610dd4565b937fb3ba2cff02b32eeb145a4310f642027c74c7037f3f86732ad86b47ee1fdd8d2a96610fe460405190565b96879687610de9565b0390a1610fb2610ffb825490565b91610981565b602080916001600160401b03811161101857020190565b611020610448565b020190565b9061103261063983611001565b918252565b906100c56110826005611048610af2565b946110556104ea8261048d565b6110646104fd6001830161048d565b61107a611073600283016104cc565b6040880152565b015460ff1690565b15156060840152565b61016490611037565b9061109d825490565b6110a681611025565b926110ba6020850191600052602060002090565b6000915b8383106110cb5750505050565b600660206001926110db8561108b565b8152019201920191906110be565b61016490611094565b61016460016110e9565b9061111b90600561111561111185600161033a565b5090565b01610d02565b61117d7f82e047af96f6b7e5a52ea238aee0ca4188211301535ddf1fe126e140df6421b49161114960405190565b91829182908152604060208201819052600f908201526e414354494f4e5f434f4e4649524d4560881b606082015260800190565b0390a1565b1561118957565b60405162461bcd60e51b815260206004820152601960248201527f46697273746e616d652063616e6e6f7420626520656d707479000000000000006044820152606490fd5b156111d557565b60405162461bcd60e51b815260206004820152601860248201527f4c6173746e616d652063616e6e6f7420626520656d70747900000000000000006044820152606490fd5b1561122157565b60405162461bcd60e51b8152602060048201526014602482015273796561722063616e6e6f7420626520656d70747960601b6044820152606490fd5b929361117d9295919461134a611273610e9a8890565b61128b600091611285610eb184610981565b11611182565b6112a86112968a5190565b6112a2610eb184610981565b116111ce565b6112bf6112b3845190565b610eef610eb184610981565b6112d66112ca855190565b610f0c610eb184610981565b6112f36112e1865190565b6112ed610eb184610981565b1161121a565b60026112fd6104c2565b916113088582850152565b611313866020850152565b61131e876040850152565b6113448b600161133d8d6113356111118f8561033a565b958601610ca8565b8301610ca8565b01610cef565b7f7805d5a30b55d3f171bac6edbc08f1ec7ff173b3a037a9835b57f9ea38d01c6d96610fe460405190565b9061138890600019906020036008021c90565b8154169055565b906000916113ad6113a582600052602060002090565b928354610bc3565b905555565b919290602082101561140a57601f84116001146113d457610b46929350610bc3565b50906114056100c59360016113fc6113f185600052602060002090565b92601f602091010490565b82019101610b56565b61138f565b506114438293611421600194600052602060002090565b610bb26020601f860104820192601f86168061144b575b50601f602091010490565b600202179055565b61145790888603611375565b38611438565b929091602090600160401b83116114b2575b10156114a657602081101561148757610b4691610bc3565b60019160ff191661149d84600052602060002090565b55600202019055565b60019150600202019055565b6114ba610448565b61146f565b9081546114cb8161038d565b908183116114f4575b8183106114e2575b50505050565b6114eb936113b2565b388080806114dc565b6115008383838761145d565b6114d4565b60006100c5916114bf565b6100c5911561150557611521610afc565b611505565b600060026100c59261153a83808301611510565b6115478360018301611510565b01611510565b6100c591156115265761155e610afc565b611526565b6000906005906115738382611510565b6115808360018301611510565b61158d836002830161154d565b0155565b6100c59115611563576115a2610afc565b611563565b6115b56115bb91600161033a565b90611591565b7fa6fb241657c3c18fc80b9ead1a3ff49713b698afdf880800d2fc42f10098cd536115e560405190565b6020808252600f908201526e414354494f4e5f434f4e4649524d4560881b6040820152806060810161117d56fea2646970667358221220454c0f7f65f85214645786713ad04e743b97bc58cc080dbd20d6456ab258983064736f6c63430008110033",
  "linkReferences": {},
  "deployedLinkReferences": {}
}