{
  "_format": "hh-sol-artifact-1",
  "contractName": "StudentRegistry",
  "sourceName": "contracts/StudentRegistry.sol",
  "abi": [
    {
      "anonymous": false,
      "inputs": [
        {
          "indexed": false,
          "internalType": "uint256",
          "name": "id",
          "type": "uint256"
        },
        {
          "indexed": false,
          "internalType": "string",
          "name": "firstName",
          "type": "string"
        },
        {
          "indexed": false,
          "internalType": "string",
          "name": "lastName",
          "type": "string"
        },
        {
          "indexed": false,
          "internalType": "string",
          "name": "degree",
          "type": "string"
        },
        {
          "indexed": false,
          "internalType": "string",
          "name": "major",
          "type": "string"
        },
        {
          "indexed": false,
          "internalType": "uint256",
          "name": "year",
          "type": "uint256"
        },
        {
          "indexed": false,
          "internalType": "string",
          "name": "Message",
          "type": "string"
        }
      ],
      "name": "StudentCreated",
      "type": "event"
    },
    {
      "anonymous": false,
      "inputs": [
        {
          "indexed": false,
          "internalType": "string",
          "name": "Message",
          "type": "string"
        }
      ],
      "name": "StudentDeleted",
      "type": "event"
    },
    {
      "anonymous": false,
      "inputs": [
        {
          "indexed": false,
          "internalType": "uint256",
          "name": "id",
          "type": "uint256"
        },
        {
          "indexed": false,
          "internalType": "string",
          "name": "firstName",
          "type": "string"
        },
        {
          "indexed": false,
          "internalType": "string",
          "name": "lastName",
          "type": "string"
        },
        {
          "indexed": false,
          "internalType": "string",
          "name": "degree",
          "type": "string"
        },
        {
          "indexed": false,
          "internalType": "string",
          "name": "major",
          "type": "string"
        },
        {
          "indexed": false,
          "internalType": "uint256",
          "name": "year",
          "type": "uint256"
        },
        {
          "indexed": false,
          "internalType": "string",
          "name": "Message",
          "type": "string"
        }
      ],
      "name": "StudentUpdated",
      "type": "event"
    },
    {
      "inputs": [
        {
          "internalType": "uint256",
          "name": "",
          "type": "uint256"
        }
      ],
      "name": "Students",
      "outputs": [
        {
          "internalType": "string",
          "name": "firstName",
          "type": "string"
        },
        {
          "internalType": "string",
          "name": "lastName",
          "type": "string"
        },
        {
          "components": [
            {
              "internalType": "string",
              "name": "degree",
              "type": "string"
            },
            {
              "internalType": "string",
              "name": "major",
              "type": "string"
            },
            {
              "internalType": "uint256",
              "name": "year",
              "type": "uint256"
            }
          ],
          "internalType": "struct StudentRegistry.Education",
          "name": "education",
          "type": "tuple"
        }
      ],
      "stateMutability": "view",
      "type": "function"
    },
    {
      "inputs": [
        {
          "internalType": "string",
          "name": "_firstName",
          "type": "string"
        },
        {
          "internalType": "string",
          "name": "_lastName",
          "type": "string"
        },
        {
          "internalType": "string",
          "name": "_degree",
          "type": "string"
        },
        {
          "internalType": "string",
          "name": "_major",
          "type": "string"
        },
        {
          "internalType": "uint256",
          "name": "_year",
          "type": "uint256"
        }
      ],
      "name": "createStudent",
      "outputs": [
        {
          "internalType": "uint256",
          "name": "",
          "type": "uint256"
        }
      ],
      "stateMutability": "nonpayable",
      "type": "function"
    },
    {
      "inputs": [
        {
          "internalType": "uint256",
          "name": "_studentId",
          "type": "uint256"
        }
      ],
      "name": "deleteStudent",
      "outputs": [],
      "stateMutability": "nonpayable",
      "type": "function"
    },
    {
      "inputs": [],
      "name": "getAallStudents",
      "outputs": [
        {
          "components": [
            {
              "internalType": "string",
              "name": "firstName",
              "type": "string"
            },
            {
              "internalType": "string",
              "name": "lastName",
              "type": "string"
            },
            {
              "components": [
                {
                  "internalType": "string",
                  "name": "degree",
                  "type": "string"
                },
                {
                  "internalType": "string",
                  "name": "major",
                  "type": "string"
                },
                {
                  "internalType": "uint256",
                  "name": "year",
                  "type": "uint256"
                }
              ],
              "internalType": "struct StudentRegistry.Education",
              "name": "education",
              "type": "tuple"
            }
          ],
          "internalType": "struct StudentRegistry.Student[]",
          "name": "",
          "type": "tuple[]"
        }
      ],
      "stateMutability": "view",
      "type": "function"
    },
    {
      "inputs": [
        {
          "internalType": "address",
          "name": "",
          "type": "address"
        }
      ],
      "name": "students",
      "outputs": [
        {
          "internalType": "string",
          "name": "firstName",
          "type": "string"
        },
        {
          "internalType": "string",
          "name": "lastName",
          "type": "string"
        },
        {
          "components": [
            {
              "internalType": "string",
              "name": "degree",
              "type": "string"
            },
            {
              "internalType": "string",
              "name": "major",
              "type": "string"
            },
            {
              "internalType": "uint256",
              "name": "year",
              "type": "uint256"
            }
          ],
          "internalType": "struct StudentRegistry.Education",
          "name": "education",
          "type": "tuple"
        }
      ],
      "stateMutability": "view",
      "type": "function"
    },
    {
      "inputs": [
        {
          "internalType": "uint256",
          "name": "_studentId",
          "type": "uint256"
        },
        {
          "internalType": "string",
          "name": "_firstName",
          "type": "string"
        },
        {
          "internalType": "string",
          "name": "_lastName",
          "type": "string"
        },
        {
          "internalType": "string",
          "name": "_degree",
          "type": "string"
        },
        {
          "internalType": "string",
          "name": "_major",
          "type": "string"
        },
        {
          "internalType": "uint256",
          "name": "_year",
          "type": "uint256"
        }
      ],
      "name": "updateStudent",
      "outputs": [],
      "stateMutability": "nonpayable",
      "type": "function"
    }
  ],
  "bytecode": "0x60806040523461001b575b6040516113d761002982396113d790f35b610023600080fd5b61000a56fe60806040526004361015610018575b610016600080fd5b005b60003560e01c80630352e27c146100905780634fb14e681461008757806357c8d71d1461007e57806392b2424d14610075578063a6c807a91461006c5763b645307d0361000e57610067610882565b61000e565b50610067610858565b50610067610783565b506100676106a8565b5061006761042f565b50610067610218565b600080fd5b60009103126100a957565b6100b1600080fd5b565b60005b8381106100c65750506000910152565b81810151838201526020016100b6565b601f01601f191690565b6101016100d660209361010a936100f5815190565b80835293849260200190565b958691016100b3565b0190565b9061014c9060408061014461013260608501600088015186820360008801526100e0565b602087015185820360208701526100e0565b940151910152565b90565b8051606080845261014c93916040916101809161016e918501906100e0565b602085015184820360208601526100e0565b92015190604081840391015261010e565b9061014c9161014f565b906101b16101a7835190565b8083529160200190565b90816101c36020830284019460200190565b926000915b8383106101d757505050505090565b909192939460206101fa6101f383856001950387528951610191565b9760200190565b93019301919392906101c8565b602080825261014c9291019061019b565b5034610245575b61022a36600461009e565b610241610235610f6e565b60405191829182610207565b0390f35b61024d600080fd5b61021f565b805b0361009957565b905035906100b182610252565b50634e487b7160e01b600052604160045260246000fd5b90601f01601f1916810190811067ffffffffffffffff8211176102a157604052565b6102a9610268565b604052565b906100b16102bb60405190565b928361027f565b61010a60209167ffffffffffffffff81116102e157601f01601f191690565b6100d6610268565b90826000939282370152565b9291906100b19161030d610308836102c2565b6102ae565b94828652602086019183820111156102e957610327600080fd5b6102e9565b9061014c9181601f82011215610348575b6020813591016102f5565b610350600080fd5b61033d565b909160c082840312610422575b61036c838361025b565b9261038d81602085013567ffffffffffffffff8111610408575b850161032c565b926103ae82604083013567ffffffffffffffff8111610415575b830161032c565b9261014c6103d184606085013567ffffffffffffffff811161040857850161032c565b936103f281608086013567ffffffffffffffff81116103fb575b860161032c565b9360a00161025b565b610403600080fd5b6103eb565b610410600080fd5b610386565b61041d600080fd5b6103a7565b61042a600080fd5b610362565b5034610455575b610450610444366004610355565b94939093929192610fea565b604051005b61045d600080fd5b610436565b9061014c916020818303121561025b5761047a600080fd5b61025b565b50634e487b7160e01b600052603260045260246000fd5b6104b66005916104a4815490565b8410156104bf57600052602060002090565b91020190600090565b6104c761047f565b600052602060002090565b50634e487b7160e01b600052602260045260246000fd5b906001600283049216801561050c575b602083101461050457565b6100b16104d2565b91607f16916104f9565b80546000939291610533610529836104e9565b8085529360200190565b9160018116908115610585575060011461054c57505050565b61055f9192939450600052602060002090565b916000925b8184106105715750500190565b805484840152602090930192600101610564565b92949550505060ff1916825215156020020190565b9061014c91610516565b906100b16105be926105b560405190565b9384809261059a565b038361027f565b61014c9081565b61014c90546105c5565b61014c60606102ae565b906100b161061e60026105f16105d6565b946106026105fe826105a4565b8752565b610618610611600183016105a4565b6020880152565b016105cc565b6040840152565b90600191600092610634815490565b82101561066957610646929350610496565b50610650816105a4565b9161014c6002610662600185016105a4565b93016105e0565b8380fd5b9161069a9061068c61014c9593606086019086820360008801526100e0565b9084820360208601526100e0565b91604081840391015261010e565b50346106d4575b6102416106c56106c0366004610462565b610625565b6040519193919384938461066d565b6106dc600080fd5b6106af565b919060a083820312610776575b61070a81843567ffffffffffffffff811161040857850161032c565b9261072a82602083013567ffffffffffffffff811161041557830161032c565b9261014c61074d84604085013567ffffffffffffffff811161040857850161032c565b9361076d81606086013567ffffffffffffffff81116103fb57860161032c565b9360800161025b565b61077e600080fd5b6106ee565b50346107b4575b6102416107a461079b3660046106e1565b93929092610d51565b6040519182918290815260200190565b6107bc600080fd5b61078a565b6001600160a01b031690565b6001600160a01b038116610254565b905035906100b1826107cd565b9061014c91602081830312156107dc57610801600080fd5b6107dc565b61014c906107c1906001600160a01b031682565b61014c90610806565b61014c9061081a565b9061083690610823565b600052602052604060002090565b61084f90600061082c565b610650816105a4565b5034610875575b6102416106c56108703660046107e9565b610844565b61087d600080fd5b61085f565b503461089c575b610450610897366004610462565b611316565b6108a4600080fd5b610889565b61014c61014c61014c9290565b156108bd57565b60405162461bcd60e51b815260206004820152601a60248201527f4669727374206e616d652063616e6e6f7420626520656d7074790000000000006044820152606490fd5b1561090957565b60405162461bcd60e51b815260206004820152601960248201527f4c617374206e616d652063616e6e6f7420626520656d707479000000000000006044820152606490fd5b1561095557565b60405162461bcd60e51b81526020600482015260166024820152754465677265652063616e6e6f7420626520656d70747960501b6044820152606490fd5b1561099a57565b60405162461bcd60e51b81526020600482015260156024820152744d616a6f722063616e6e6f7420626520656d70747960581b6044820152606490fd5b50634e487b7160e01b600052600060045260246000fd5b9160001960089290920291821b911b5b9181191691161790565b9190610a1961014c610a21936108a9565b9083546109ee565b9055565b6100b191600091610a08565b818110610a3c575050565b80610a4a6000600193610a25565b01610a31565b9190601f8111610a5f57505050565b610a716100b193600052602060002090565b906020601f840181900483019310610a94575b6020601f909101045b0190610a31565b9091508190610a84565b600019600883021c1916906002021790565b90610ab9815190565b9067ffffffffffffffff8211610b77575b610ade82610ad885546104e9565b85610a50565b602090601f8311600114610b0c57610a21929160009183610b01575b5050610a9e565b015190503880610afa565b601f19831691610b2185600052602060002090565b9260005b818110610b5f57509160029391856001969410610b46575b50505002019055565b01516000196008601f8516021c19169055388080610b3d565b91936020600181928787015181550195019201610b25565b610b7f610268565b610aca565b906100b191610ab0565b5190565b90600019906109fe565b90610bac61014c610a21926108a9565b8254610b92565b90610bf0604060026100b194610bd760008201610bd1600088015190565b90610b84565b610be960018201610bd1602088015190565b0192015190565b90610b9c565b906100b191610bb3565b90610c1e604060026100b194610bd760008201610bd1600088015190565b90610bf6565b6100b1929115610c0057610c366109d7565b610c00565b90610c5e6100b192805490600160401b821015610c64575b600182018155610496565b90610c24565b610c6c610268565b610c53565b50634e487b7160e01b600052601160045260246000fd5b91908203918211610c9557565b6100b1610c71565b93610cee90610ce0610d0495610cd261014c9a9995610cfc97610cc560e08c019260008d0152565b8a820360208c01526100e0565b9088820360408a01526100e0565b9086820360608801526100e0565b9084820360808601526100e0565b9260a0830152565b60c0818303910152602c81527f496e666f726d6174696f6e20686173206265656e207375636365737366756c6c60208201526b1e481c9959da5cdd195c995960a21b604082015260600190565b9091610e8961014c95610d62600090565b50835195610d82600097610d7c610d788a6108a9565b9190565b116108b6565b610d9f610d8d875190565b610d99610d788a6108a9565b11610902565b610dbc610daa855190565b610db6610d788a6108a9565b1161094e565b610dd9610dc7825190565b610dd3610d788a6108a9565b11610993565b610e28610de46105d6565b610dee868a830152565b610df9836020830152565b610e04846040830152565b610e1687610e106105d6565b9a8b0152565b610e218860208b0152565b6040890152565b610e3a600197610e358990565b610c3b565b610e54610e45885490565b610e4e896108a9565b90610c88565b937f62228da5aa53bce97022659ac36f21b8edfd76b471b17867eddfa4858412ac4d96610e8060405190565b96879687610c9d565b0390a1610e4e610e97825490565b916108a9565b6020809167ffffffffffffffff8111610eb557020190565b610ebd610268565b020190565b90610ecf61030883610e9d565b918252565b906100b161061e6002610ee56105d6565b94610ef26105fe826105a4565b610f01610611600183016105a4565b016105e0565b61014c90610ed4565b90610f19825490565b610f2281610ec2565b92610f366020850191600052602060002090565b6000915b838310610f475750505050565b60056020600192610f5785610f07565b815201920192019190610f3a565b61014c90610f10565b61014c6001610f65565b93610cee90610ce0610fa095610cd261014c9a9995610cfc97610cc560e08c019260008d0152565b60c0818303910152602981527f496e666f726d6174696f6e20686173206265656e207375636365737366756c6c6020820152681e48155c19185d195960ba1b604082015260600190565b92936110e6929591946110b2611000610b8e8890565b611012600091610d7c610d78846108a9565b61102961101d8a5190565b610d99610d78846108a9565b611040611034845190565b610db6610d78846108a9565b61105761104b855190565b610dd3610d78846108a9565b60026110616105d6565b9161106c8582850152565b611077866020850152565b611082876040850152565b6110ac8b60016110a58d61109d6110998f85610496565b5090565b958601610b84565b8301610b84565b01610bf6565b7fd82023eb7d6b8287ff55d6ad60ee614c7c9c2499b96d90f8ef5827d25e8c5fa6966110dd60405190565b96879687610f78565b0390a1565b906110fe90600019906020036008021c90565b8154169055565b9060009161112361111b82600052602060002090565b928354610a9e565b905555565b919290602082101561118057601f841160011461114a57610a21929350610a9e565b509061117b6100b193600161117261116785600052602060002090565b92601f602091010490565b82019101610a31565b611105565b506111b98293611197600194600052602060002090565b610a8d6020601f860104820192601f8616806111c1575b50601f602091010490565b600202179055565b6111cd908886036110eb565b386111ae565b929091602090600160401b8311611228575b101561121c5760208110156111fd57610a2191610a9e565b60019160ff191661121384600052602060002090565b55600202019055565b60019150600202019055565b611230610268565b6111e5565b908154611241816104e9565b9081831161126a575b818310611258575b50505050565b61126193611128565b38808080611252565b611276838383876111d3565b61124a565b60006100b191611235565b6100b1911561127b576112976109d7565b61127b565b600060026100b1926112b083808301611286565b6112bd8360018301611286565b01610a25565b6100b1911561129c576112d46109d7565b61129c565b600060026100b1926112ed83808301611286565b6112fa8360018301611286565b016112c3565b6100b191156112d9576113116109d7565b6112d9565b61132461132a916001610496565b90611300565b7fa6fb241657c3c18fc80b9ead1a3ff49713b698afdf880800d2fc42f10098cd5361135460405190565b60208082526029908201527f496e666f726d6174696f6e20686173206265656e207375636365737366756c6c6040820152681e4811195b195d195960ba1b606082015280608081016110e656fea264697066735822122017f5cfb0e2f269529f175a30c6f6b0a632cd93b64b0089e733a62b023e34016a64736f6c63430008110033",
  "linkReferences": {},
  "deployedLinkReferences": {}
}