{
  "_format": "hh-sol-artifact-1",
  "contractName": "StudentRegistry",
  "sourceName": "contracts/StudentRegistry.sol",
  "abi": [
    {
      "anonymous": false,
      "inputs": [
        {
          "indexed": true,
          "internalType": "address",
          "name": "studentAddress",
          "type": "address"
        },
        {
          "indexed": false,
          "internalType": "string",
          "name": "firstName",
          "type": "string"
        },
        {
          "indexed": false,
          "internalType": "string",
          "name": "lastName",
          "type": "string"
        },
        {
          "indexed": false,
          "internalType": "string",
          "name": "degree",
          "type": "string"
        },
        {
          "indexed": false,
          "internalType": "string",
          "name": "major",
          "type": "string"
        },
        {
          "indexed": false,
          "internalType": "uint256",
          "name": "year",
          "type": "uint256"
        }
      ],
      "name": "StudentCreated",
      "type": "event"
    },
    {
      "anonymous": false,
      "inputs": [
        {
          "indexed": true,
          "internalType": "address",
          "name": "studentAddress",
          "type": "address"
        }
      ],
      "name": "StudentDeleted",
      "type": "event"
    },
    {
      "anonymous": false,
      "inputs": [
        {
          "indexed": true,
          "internalType": "address",
          "name": "studentAddress",
          "type": "address"
        },
        {
          "indexed": false,
          "internalType": "string",
          "name": "firstName",
          "type": "string"
        },
        {
          "indexed": false,
          "internalType": "string",
          "name": "lastName",
          "type": "string"
        },
        {
          "indexed": false,
          "internalType": "string",
          "name": "degree",
          "type": "string"
        },
        {
          "indexed": false,
          "internalType": "string",
          "name": "major",
          "type": "string"
        },
        {
          "indexed": false,
          "internalType": "uint256",
          "name": "year",
          "type": "uint256"
        }
      ],
      "name": "StudentUpdated",
      "type": "event"
    },
    {
      "inputs": [
        {
          "internalType": "uint256",
          "name": "",
          "type": "uint256"
        }
      ],
      "name": "Students",
      "outputs": [
        {
          "internalType": "string",
          "name": "firstName",
          "type": "string"
        },
        {
          "internalType": "string",
          "name": "lastName",
          "type": "string"
        },
        {
          "components": [
            {
              "internalType": "string",
              "name": "degree",
              "type": "string"
            },
            {
              "internalType": "string",
              "name": "major",
              "type": "string"
            },
            {
              "internalType": "uint256",
              "name": "year",
              "type": "uint256"
            }
          ],
          "internalType": "struct StudentRegistry.Education",
          "name": "education",
          "type": "tuple"
        }
      ],
      "stateMutability": "view",
      "type": "function"
    },
    {
      "inputs": [
        {
          "internalType": "string",
          "name": "_firstName",
          "type": "string"
        },
        {
          "internalType": "string",
          "name": "_lastName",
          "type": "string"
        },
        {
          "internalType": "string",
          "name": "_degree",
          "type": "string"
        },
        {
          "internalType": "string",
          "name": "_major",
          "type": "string"
        },
        {
          "internalType": "uint256",
          "name": "_year",
          "type": "uint256"
        }
      ],
      "name": "createStudent",
      "outputs": [],
      "stateMutability": "nonpayable",
      "type": "function"
    },
    {
      "inputs": [
        {
          "internalType": "uint256",
          "name": "index",
          "type": "uint256"
        }
      ],
      "name": "deleteStudent",
      "outputs": [],
      "stateMutability": "nonpayable",
      "type": "function"
    },
    {
      "inputs": [],
      "name": "getAallStudents",
      "outputs": [
        {
          "components": [
            {
              "internalType": "string",
              "name": "firstName",
              "type": "string"
            },
            {
              "internalType": "string",
              "name": "lastName",
              "type": "string"
            },
            {
              "components": [
                {
                  "internalType": "string",
                  "name": "degree",
                  "type": "string"
                },
                {
                  "internalType": "string",
                  "name": "major",
                  "type": "string"
                },
                {
                  "internalType": "uint256",
                  "name": "year",
                  "type": "uint256"
                }
              ],
              "internalType": "struct StudentRegistry.Education",
              "name": "education",
              "type": "tuple"
            }
          ],
          "internalType": "struct StudentRegistry.Student[]",
          "name": "",
          "type": "tuple[]"
        }
      ],
      "stateMutability": "view",
      "type": "function"
    },
    {
      "inputs": [],
      "name": "issueCertificate",
      "outputs": [
        {
          "internalType": "bytes",
          "name": "",
          "type": "bytes"
        }
      ],
      "stateMutability": "view",
      "type": "function"
    },
    {
      "inputs": [
        {
          "internalType": "address",
          "name": "",
          "type": "address"
        }
      ],
      "name": "students",
      "outputs": [
        {
          "internalType": "string",
          "name": "firstName",
          "type": "string"
        },
        {
          "internalType": "string",
          "name": "lastName",
          "type": "string"
        },
        {
          "components": [
            {
              "internalType": "string",
              "name": "degree",
              "type": "string"
            },
            {
              "internalType": "string",
              "name": "major",
              "type": "string"
            },
            {
              "internalType": "uint256",
              "name": "year",
              "type": "uint256"
            }
          ],
          "internalType": "struct StudentRegistry.Education",
          "name": "education",
          "type": "tuple"
        }
      ],
      "stateMutability": "view",
      "type": "function"
    },
    {
      "inputs": [
        {
          "internalType": "string",
          "name": "_firstName",
          "type": "string"
        },
        {
          "internalType": "string",
          "name": "_lastName",
          "type": "string"
        },
        {
          "internalType": "string",
          "name": "_degree",
          "type": "string"
        },
        {
          "internalType": "string",
          "name": "_major",
          "type": "string"
        },
        {
          "internalType": "uint256",
          "name": "_year",
          "type": "uint256"
        }
      ],
      "name": "updateStudent",
      "outputs": [],
      "stateMutability": "nonpayable",
      "type": "function"
    }
  ],
  "bytecode": "0x60806040523461001b575b6040516115bf61002982396115bf90f35b610023600080fd5b61000a56fe60806040526004361015610018575b610016600080fd5b005b60003560e01c80630352e27c146100a457806357c8d71d1461009b578063818169331461009257806392b2424d14610089578063a6c807a914610080578063b645307d146100775763f2750eaf0361000e57610072610813565b61000e565b506100726107ec565b506100726107c2565b506100726106fb565b50610072610566565b5061007261051c565b5061007261022c565b600080fd5b60009103126100bd57565b6100c5600080fd5b565b60005b8381106100da5750506000910152565b81810151838201526020016100ca565b601f01601f191690565b6101156100ea60209361011e93610109815190565b80835293849260200190565b958691016100c7565b0190565b906101609060408061015861014660608501600088015186820360008801526100f4565b602087015185820360208701526100f4565b940151910152565b90565b80516060808452610160939160409161019491610182918501906100f4565b602085015184820360208601526100f4565b920151906040818403910152610122565b9061016091610163565b906101c56101bb835190565b8083529160200190565b90816101d76020830284019460200190565b926000915b8383106101eb57505050505090565b9091929394602061020e610207838560019503875289516101a5565b9760200190565b93019301919392906101dc565b6020808252610160929101906101af565b5034610259575b61023e3660046100b2565b610255610249610e51565b6040519182918261021b565b0390f35b610261600080fd5b610233565b805b036100ad57565b905035906100c582610266565b90610160916020818303121561026f57610294600080fd5b61026f565b50634e487b7160e01b600052603260045260246000fd5b6102d06005916102be815490565b8410156102d957600052602060002090565b91020190600090565b6102e1610299565b600052602060002090565b50634e487b7160e01b600052602260045260246000fd5b9060016002830492168015610326575b602083101461031e57565b6100c56102ec565b91607f1691610313565b8054600093929161034d61034383610303565b8085529360200190565b916001811690811561039f575060011461036657505050565b6103799192939450600052602060002090565b916000925b81841061038b5750500190565b80548484015260209093019260010161037e565b92949550505060ff1916825215156020020190565b9061016091610330565b50634e487b7160e01b600052604160045260246000fd5b90601f01601f1916810190811067ffffffffffffffff8211176103f757604052565b6103ff6103be565b604052565b906100c561041e9261041560405190565b938480926103b4565b03836103d5565b6101609081565b6101609054610425565b906100c561044360405190565b92836103d5565b6101606060610436565b906100c5610492600261046561044a565b9461047661047282610404565b8752565b61048c61048560018301610404565b6020880152565b0161042c565b6040840152565b906001916000926104a8815490565b8210156104dd576104ba9293506102b0565b506104c481610404565b9161016060026104d660018501610404565b9301610454565b8380fd5b9161050e906105006101609593606086019086820360008801526100f4565b9084820360208601526100f4565b916040818403910152610122565b5034610548575b61025561053961053436600461027c565b610499565b604051919391938493846104e1565b610550600080fd5b610523565b6020808252610160929101906100f4565b503461058f575b6105783660046100b2565b6102556105836112fe565b60405191829182610555565b610597600080fd5b61056d565b61011e60209167ffffffffffffffff81116105bb57601f01601f191690565b6100ea6103be565b90826000939282370152565b9291906100c5916105e76105e28361059c565b610436565b94828652602086019183820111156105c357610601600080fd5b6105c3565b906101609181601f82011215610622575b6020813591016105cf565b61062a600080fd5b610617565b919060a0838203126106ee575b61065981843567ffffffffffffffff81116106d4575b8501610606565b9261067a82602083013567ffffffffffffffff81116106e1575b8301610606565b9261016061069d84604085013567ffffffffffffffff81116106d4578501610606565b936106be81606086013567ffffffffffffffff81116106c7575b8601610606565b9360800161026f565b6106cf600080fd5b6106b7565b6106dc600080fd5b610652565b6106e9600080fd5b610673565b6106f6600080fd5b61063c565b503461071e575b61071961071036600461062f565b93929092610c60565b604051005b610726600080fd5b610702565b6001600160a01b031690565b6001600160a01b038116610268565b905035906100c582610737565b9061016091602081830312156107465761076b600080fd5b610746565b6101609061072b906001600160a01b031682565b61016090610770565b61016090610784565b906107a09061078d565b600052602052604060002090565b6107b9906000610796565b6104c481610404565b50346107df575b6102556105396107da366004610753565b6107ae565b6107e7600080fd5b6107c9565b5034610806575b61071961080136600461027c565b61118b565b61080e600080fd5b6107f3565b5034610831575b61071961082836600461062f565b93929092610e5b565b610839600080fd5b61081a565b6101606101606101609290565b1561085257565b60405162461bcd60e51b815260206004820152601a60248201527f4669727374206e616d652063616e6e6f7420626520656d7074790000000000006044820152606490fd5b1561089e57565b60405162461bcd60e51b815260206004820152601960248201527f4c617374206e616d652063616e6e6f7420626520656d707479000000000000006044820152606490fd5b156108ea57565b60405162461bcd60e51b81526020600482015260166024820152754465677265652063616e6e6f7420626520656d70747960501b6044820152606490fd5b1561092f57565b60405162461bcd60e51b81526020600482015260156024820152744d616a6f722063616e6e6f7420626520656d70747960581b6044820152606490fd5b50634e487b7160e01b600052600060045260246000fd5b9160001960089290920291821b911b5b9181191691161790565b91906109ae6101606109b69361083e565b908354610983565b9055565b6100c59160009161099d565b8181106109d1575050565b806109df60006001936109ba565b016109c6565b9190601f81116109f457505050565b610a066100c593600052602060002090565b906020601f840181900483019310610a29575b6020601f909101045b01906109c6565b9091508190610a19565b600019600883021c1916906002021790565b90610a4e815190565b9067ffffffffffffffff8211610b0c575b610a7382610a6d8554610303565b856109e5565b602090601f8311600114610aa1576109b6929160009183610a96575b5050610a33565b015190503880610a8f565b601f19831691610ab685600052602060002090565b9260005b818110610af457509160029391856001969410610adb575b50505002019055565b01516000196008601f8516021c19169055388080610ad2565b91936020600181928787015181550195019201610aba565b610b146103be565b610a5f565b906100c591610a45565b5190565b9060001990610993565b90610b416101606109b69261083e565b8254610b27565b90610b85604060026100c594610b6c60008201610b66600088015190565b90610b19565b610b7e60018201610b66602088015190565b0192015190565b90610b31565b906100c591610b48565b90610bb3604060026100c594610b6c60008201610b66600088015190565b90610b8b565b6100c5929115610b9557610bcb61096c565b610b95565b90610bf36100c592805490600160401b821015610bf9575b6001820181556102b0565b90610bb9565b610c016103be565b610be8565b95949293610c4d6100c595610c3f608095610c31610c5b9660a08d01908d60008184039101526100f4565b908b820360208d01526100f4565b9089820360408b01526100f4565b9087820360608901526100f4565b940152565b909193610d7b90610d3d610c74610b238590565b610c90600091610c8a610c868461083e565b9190565b1161084b565b610cad610c9b875190565b610ca7610c868461083e565b11610897565b610cca610cb8895190565b610cc4610c868461083e565b116108e3565b610ce7610cd5885190565b610ce1610c868461083e565b11610928565b610d36610cf261044a565b610cfc8a84830152565b610d07896020830152565b610d12856040830152565b610d2487610d1e61044a565b94850152565b610d2f886020850152565b6040830152565b6001610bd0565b7f7b2915ee83b60c835e492363a7976b66ae49d42f51b0824c27b0ecd4a89c18d494610d683361078d565b96610d7260405190565b95869586610c06565b0390a2565b6020809167ffffffffffffffff8111610d9857020190565b610da06103be565b020190565b90610db26105e283610d80565b918252565b906100c56104926002610dc861044a565b94610dd561047282610404565b610de461048560018301610404565b01610454565b61016090610db7565b90610dfc825490565b610e0581610da5565b92610e196020850191600052602060002090565b6000915b838310610e2a5750505050565b60056020600192610e3a85610dea565b815201920192019190610e1d565b61016090610df3565b6101606001610e48565b909193610d7b90610e6c610b238490565b94610e7f600096610c8a610c868961083e565b610e96610e8a865190565b610ca7610c868961083e565b610ead610ea1885190565b610cc4610c868961083e565b610ec4610eb8825190565b610ce1610c868961083e565b610f1f610ecf61044a565b610ed98989830152565b610ee4836020830152565b610eef846040830152565b60023398610f0c88610f046101608d85610796565b928301610b19565b610f198960018301610b19565b01610b8b565b610d687f23bc9910b06b4440a923ecc439f6e57a3bc500bebf0b8c6c90e9a73633344ea79661078d565b90610f5c90600019906020036008021c90565b8154169055565b90600091610f81610f7982600052602060002090565b928354610a33565b905555565b9192906020821015610fde57601f8411600114610fa8576109b6929350610a33565b5090610fd96100c5936001610fd0610fc585600052602060002090565b92601f602091010490565b820191016109c6565b610f63565b506110178293610ff5600194600052602060002090565b610a226020601f860104820192601f86168061101f575b50601f602091010490565b600202179055565b61102b90888603610f49565b3861100c565b929091602090600160401b8311611086575b101561107a57602081101561105b576109b691610a33565b60019160ff191661107184600052602060002090565b55600202019055565b60019150600202019055565b61108e6103be565b611043565b90815461109f81610303565b908183116110c8575b8183106110b6575b50505050565b6110bf93610f86565b388080806110b0565b6110d483838387611031565b6110a8565b50634e487b7160e01b600052601160045260246000fd5b60006100c591611093565b6100c591156110f05761110c61096c565b6110f0565b600060026100c592611125838083016110fb565b61113283600183016110fb565b016109ba565b6100c591156111115761114961096c565b611111565b600060026100c592611162838083016110fb565b61116f83600183016110fb565b01611138565b6100c5911561114e5761118661096c565b61114e565b6111996100c59160016102b0565b90611175565b61011e6111b7926020926111b1815190565b94859290565b938491016100c7565b6020956112486112ba61016099976112486112aa6112ef9961124861125b610db29b61124861124e6112d99d61124861121f6112ca9f7f4365727469666963617465206f662047726164756174696f6e0a0a00000000008152601b0190565b7f5468697320697320746f20636572746966792074686174200000000000000000815260180190565b9061119f565b600160fd1b815260010190565b7f20686173207375636365737366756c6c7920636f6d706c65746564207468652081527f726571756972656d656e747320666f722074686520646567726565206f6620006020820152603f0190565b6301034b7160e51b815260040190565b6301037b7160e51b815260040190565b6217050560e91b815260030190565b69024b9b9bab2b21037b7160b51b8152600a0190565b0161170560f11b815260020190565b610160610160600061016061131b6113163384610796565b610dea565b8281015161136460406020840151930194855101519461134b61134660406020845101519351015190565b6114ac565b429161135660405190565b9788966020880196876111c0565b908103825203826103d5565b90610db26105e28361059c565b6113876001611370565b600360fc1b602082015290565b61016061137d565b60019060001981146113ac570190565b61011e6110d9565b50634e487b7160e01b600052601260045260246000fd5b81156113d5570490565b6113dd6113b4565b0490565b369037565b906100c56113fc6113f684611370565b9361059c565b601f1901602084016113e1565b8115611413570690565b61141b6113b4565b0690565b9190820180921161142c57565b6100c56110d9565b6114416101606101609290565b60ff1690565b61145d6114576101609260ff1690565b60f81b90565b6001600160f81b03191690565b6001908015611477570390565b61147f6110d9565b0390565b906001602091611491845190565b81101561149f575b02010190565b6114a7610299565b611499565b9060006114b88161083e565b831461157e5790829060005b6114cd8461083e565b83146114f6576114df6114f09161139c565b926114ea600a61083e565b906113cb565b916114c4565b915091611502826113e6565b91935b61150e8261083e565b81146115735761156e906114ea600a61155b61155561155061154b603061154661154061153a8861083e565b8a611409565b9161083e565b61141f565b611434565b611447565b9861146a565b97851a6115688988611483565b5361083e565b611505565b505061016091925090565b50905061016061139456fea264697066735822122086c54ca941cddbdf536d33cceea8436a12db7e00ece0c0edd538d6bc1680787564736f6c63430008110033",
  "linkReferences": {},
  "deployedLinkReferences": {}
}