{
  "_format": "hh-sol-artifact-1",
  "contractName": "StudentRegistry",
  "sourceName": "contracts/StudentRegistry.sol",
  "abi": [
    {
      "anonymous": false,
      "inputs": [
        {
          "indexed": false,
          "internalType": "uint256",
          "name": "id",
          "type": "uint256"
        },
        {
          "indexed": false,
          "internalType": "string",
          "name": "code",
          "type": "string"
        }
      ],
      "name": "CertificateIssued",
      "type": "event"
    },
    {
      "anonymous": false,
      "inputs": [
        {
          "indexed": false,
          "internalType": "uint256",
          "name": "id",
          "type": "uint256"
        },
        {
          "indexed": false,
          "internalType": "string",
          "name": "firstName",
          "type": "string"
        },
        {
          "indexed": false,
          "internalType": "string",
          "name": "lastName",
          "type": "string"
        },
        {
          "indexed": false,
          "internalType": "string",
          "name": "degree",
          "type": "string"
        },
        {
          "indexed": false,
          "internalType": "string",
          "name": "major",
          "type": "string"
        },
        {
          "indexed": false,
          "internalType": "string",
          "name": "year",
          "type": "string"
        },
        {
          "indexed": false,
          "internalType": "string",
          "name": "code",
          "type": "string"
        }
      ],
      "name": "StudentCreated",
      "type": "event"
    },
    {
      "anonymous": false,
      "inputs": [
        {
          "indexed": false,
          "internalType": "string",
          "name": "code",
          "type": "string"
        }
      ],
      "name": "StudentDeleted",
      "type": "event"
    },
    {
      "anonymous": false,
      "inputs": [
        {
          "indexed": false,
          "internalType": "uint256",
          "name": "id",
          "type": "uint256"
        },
        {
          "indexed": false,
          "internalType": "string",
          "name": "firstName",
          "type": "string"
        },
        {
          "indexed": false,
          "internalType": "string",
          "name": "lastName",
          "type": "string"
        },
        {
          "indexed": false,
          "internalType": "string",
          "name": "degree",
          "type": "string"
        },
        {
          "indexed": false,
          "internalType": "string",
          "name": "major",
          "type": "string"
        },
        {
          "indexed": false,
          "internalType": "string",
          "name": "year",
          "type": "string"
        },
        {
          "indexed": false,
          "internalType": "string",
          "name": "code",
          "type": "string"
        }
      ],
      "name": "StudentUpdated",
      "type": "event"
    },
    {
      "inputs": [
        {
          "internalType": "uint256",
          "name": "",
          "type": "uint256"
        }
      ],
      "name": "Students",
      "outputs": [
        {
          "internalType": "string",
          "name": "firstName",
          "type": "string"
        },
        {
          "internalType": "string",
          "name": "lastName",
          "type": "string"
        },
        {
          "components": [
            {
              "internalType": "string",
              "name": "degree",
              "type": "string"
            },
            {
              "internalType": "string",
              "name": "major",
              "type": "string"
            },
            {
              "internalType": "string",
              "name": "year",
              "type": "string"
            }
          ],
          "internalType": "struct StudentRegistry.Education",
          "name": "education",
          "type": "tuple"
        },
        {
          "internalType": "bool",
          "name": "isissued",
          "type": "bool"
        },
        {
          "internalType": "string",
          "name": "tokenurl",
          "type": "string"
        },
        {
          "internalType": "int256",
          "name": "tokenid",
          "type": "int256"
        }
      ],
      "stateMutability": "view",
      "type": "function"
    },
    {
      "inputs": [
        {
          "internalType": "string",
          "name": "_firstName",
          "type": "string"
        },
        {
          "internalType": "string",
          "name": "_lastName",
          "type": "string"
        },
        {
          "internalType": "string",
          "name": "_degree",
          "type": "string"
        },
        {
          "internalType": "string",
          "name": "_major",
          "type": "string"
        },
        {
          "internalType": "string",
          "name": "_year",
          "type": "string"
        }
      ],
      "name": "createStudent",
      "outputs": [
        {
          "internalType": "uint256",
          "name": "",
          "type": "uint256"
        }
      ],
      "stateMutability": "nonpayable",
      "type": "function"
    },
    {
      "inputs": [
        {
          "internalType": "uint256",
          "name": "_studentId",
          "type": "uint256"
        }
      ],
      "name": "deleteStudent",
      "outputs": [],
      "stateMutability": "nonpayable",
      "type": "function"
    },
    {
      "inputs": [],
      "name": "getAallStudents",
      "outputs": [
        {
          "components": [
            {
              "internalType": "string",
              "name": "firstName",
              "type": "string"
            },
            {
              "internalType": "string",
              "name": "lastName",
              "type": "string"
            },
            {
              "components": [
                {
                  "internalType": "string",
                  "name": "degree",
                  "type": "string"
                },
                {
                  "internalType": "string",
                  "name": "major",
                  "type": "string"
                },
                {
                  "internalType": "string",
                  "name": "year",
                  "type": "string"
                }
              ],
              "internalType": "struct StudentRegistry.Education",
              "name": "education",
              "type": "tuple"
            },
            {
              "internalType": "bool",
              "name": "isissued",
              "type": "bool"
            },
            {
              "internalType": "string",
              "name": "tokenurl",
              "type": "string"
            },
            {
              "internalType": "int256",
              "name": "tokenid",
              "type": "int256"
            }
          ],
          "internalType": "struct StudentRegistry.Student[]",
          "name": "",
          "type": "tuple[]"
        }
      ],
      "stateMutability": "view",
      "type": "function"
    },
    {
      "inputs": [
        {
          "internalType": "uint256",
          "name": "studentId",
          "type": "uint256"
        },
        {
          "internalType": "bool",
          "name": "isissued",
          "type": "bool"
        },
        {
          "internalType": "string",
          "name": "_tokenurl",
          "type": "string"
        },
        {
          "internalType": "int256",
          "name": "_tokenid",
          "type": "int256"
        }
      ],
      "name": "isissuedcertificate",
      "outputs": [],
      "stateMutability": "nonpayable",
      "type": "function"
    },
    {
      "inputs": [
        {
          "internalType": "address",
          "name": "",
          "type": "address"
        }
      ],
      "name": "students",
      "outputs": [
        {
          "internalType": "string",
          "name": "firstName",
          "type": "string"
        },
        {
          "internalType": "string",
          "name": "lastName",
          "type": "string"
        },
        {
          "components": [
            {
              "internalType": "string",
              "name": "degree",
              "type": "string"
            },
            {
              "internalType": "string",
              "name": "major",
              "type": "string"
            },
            {
              "internalType": "string",
              "name": "year",
              "type": "string"
            }
          ],
          "internalType": "struct StudentRegistry.Education",
          "name": "education",
          "type": "tuple"
        },
        {
          "internalType": "bool",
          "name": "isissued",
          "type": "bool"
        },
        {
          "internalType": "string",
          "name": "tokenurl",
          "type": "string"
        },
        {
          "internalType": "int256",
          "name": "tokenid",
          "type": "int256"
        }
      ],
      "stateMutability": "view",
      "type": "function"
    },
    {
      "inputs": [
        {
          "internalType": "uint256",
          "name": "_studentId",
          "type": "uint256"
        },
        {
          "internalType": "string",
          "name": "_firstName",
          "type": "string"
        },
        {
          "internalType": "string",
          "name": "_lastName",
          "type": "string"
        },
        {
          "internalType": "string",
          "name": "_degree",
          "type": "string"
        },
        {
          "internalType": "string",
          "name": "_major",
          "type": "string"
        },
        {
          "internalType": "string",
          "name": "_year",
          "type": "string"
        }
      ],
      "name": "updateStudent",
      "outputs": [],
      "stateMutability": "nonpayable",
      "type": "function"
    }
  ],
  "bytecode": "0x60806040523461001b575b604051611a936100298239611a9390f35b610023600080fd5b61000a56fe60806040526004361015610018575b610016600080fd5b005b60003560e01c8062bb032a146100a35780630352e27c1461009a57806357c8d71d14610091578063728e2274146100885780638ef4b9d31461007f578063a6c807a9146100765763b645307d0361000e576100716109ef565b61000e565b506100716109c5565b506100716108ef565b50610071610811565b506100716106e6565b50610071610414565b50610071610243565b600080fd5b805b036100ac57565b905035906100c7826100b1565b565b8015156100b3565b905035906100c7826100c9565b601f01601f191690565b50634e487b7160e01b600052604160045260246000fd5b90601f01601f191681019081106001600160401b0382111761012057604052565b6101286100e8565b604052565b906100c761013a60405190565b92836100ff565b61015f6020916001600160401b03811161016357601f01601f191690565b0190565b6100de6100e8565b90826000939282370152565b9291906100c79161018f61018a83610141565b61012d565b948286526020860191838201111561016b576101a9600080fd5b61016b565b906101ca9181601f820112156101cd575b602081359101610177565b90565b6101d5600080fd5b6101bf565b608081830312610236575b6101ef82826100ba565b926101ca61020084602085016100d1565b936102208160408601356001600160401b038111610229575b86016101ae565b936060016100ba565b610231600080fd5b610219565b61023e600080fd5b6101e5565b503461026a575b6102616102583660046101da565b929190916111fc565b604051005b0390f35b610272600080fd5b61024a565b600091031261028257565b6100c7600080fd5b60005b83811061029d5750506000910152565b818101518382015260200161028d565b6102ce6100de60209361015f936102c2815190565b80835293849260200190565b9586910161028a565b805160608084526101ca9391604091610308916102f6918501906102ad565b602085015184820360208601526102ad565b9201519060408184039101526102ad565b906101ca9060a08061038561036761035561034360c0870160008a015188820360008a01526102ad565b602089015187820360208901526102ad565b604088015186820360408801526102d7565b606087810151151590860152608087015185820360808701526102ad565b940151910152565b906101ca91610319565b906103ad6103a3835190565b8083529160200190565b90816103bf6020830284019460200190565b926000915b8383106103d357505050505090565b909192939460206103f66103ef8385600195038752895161038d565b9760200190565b93019301919392906103c4565b60208082526101ca92910190610397565b503461043d575b610426366004610277565b6102666104316111f2565b60405191829182610403565b610445600080fd5b61041b565b906101ca91602081830312156100ba57610462600080fd5b6100ba565b50634e487b7160e01b600052603260045260246000fd5b61049e60089161048c815490565b8410156104a757600052602060002090565b91020190600090565b6104af610467565b600052602060002090565b50634e487b7160e01b600052602260045260246000fd5b90600160028304921680156104f4575b60208310146104ec57565b6100c76104ba565b91607f16916104e1565b8054600093929161051b610511836104d1565b8085529360200190565b916001811690811561056d575060011461053457505050565b6105479192939450600052602060002090565b916000925b8184106105595750500190565b80548484015260209093019260010161054c565b92949550505060ff1916825215156020020190565b906101ca916104fe565b906100c76105a69261059d60405190565b93848092610582565b03836100ff565b6101ca606061012d565b906100c76105f560026105c86105ad565b946105d96105d58261058c565b8752565b6105ef6105e86001830161058c565b6020880152565b0161058c565b6040840152565b6101ca9081565b6101ca90546105fc565b9060019160009261061c815490565b82101561067b5761062e92935061047e565b50906106398261058c565b916106466001820161058c565b91610653600283016105b7565b91610662600582015460ff1690565b916101ca60076106746006850161058c565b9301610603565b8380fd5b96959390946106d46106ca60a0956106bc6106e1966106ae8d6100c79c60c082019160008184039101526102ad565b8d810360208f0152906102ad565b908b820360408d01526102d7565b92151560608a0152565b87820360808901526102ad565b940152565b503461071c575b6102666107036106fe36600461044a565b61060d565b9261071396949692919260405190565b9687968761067f565b610724600080fd5b6106ed565b909160c082840312610804575b61074083836100ba565b926107608160208501356001600160401b0381116107ea575b85016101ae565b926107808260408301356001600160401b0381116107f7575b83016101ae565b926101ca6107a28460608501356001600160401b0381116107ea5785016101ae565b936107c18160808601356001600160401b0381116102295786016101ae565b9360a0810135906001600160401b0382116107dd575b016101ae565b6107e5600080fd5b6107d7565b6107f2600080fd5b610759565b6107ff600080fd5b610779565b61080c600080fd5b610736565b5034610832575b610261610826366004610729565b94939093929192611378565b61083a600080fd5b610818565b919060a0838203126108e2575b6108678184356001600160401b0381116107ea5785016101ae565b926108868260208301356001600160401b0381116107f75783016101ae565b926101ca6108a88460408501356001600160401b0381116107ea5785016101ae565b936108c78160608601356001600160401b0381116102295786016101ae565b936080810135906001600160401b0382116107dd57016101ae565b6108ea600080fd5b61084c565b5034610920575b61026661091061090736600461083f565b93929092610f90565b6040519182918290815260200190565b610928600080fd5b6108f6565b6001600160a01b031690565b6001600160a01b0381166100b3565b905035906100c782610939565b906101ca91602081830312156109485761096d600080fd5b610948565b6101ca9061092d906001600160a01b031682565b6101ca90610972565b6101ca90610986565b906109a29061098f565b600052602052604060002090565b6109bb906000610998565b906106398261058c565b50346109e2575b6102666107036109dd366004610955565b6109b0565b6109ea600080fd5b6109cc565b5034610a09575b610261610a0436600461044a565b611974565b610a11600080fd5b6109f6565b6101ca6101ca6101ca9290565b15610a2a57565b60405162461bcd60e51b815260206004820152601a60248201527f4669727374206e616d652063616e6e6f7420626520656d7074790000000000006044820152606490fd5b15610a7657565b60405162461bcd60e51b815260206004820152601960248201527f4c617374206e616d652063616e6e6f7420626520656d707479000000000000006044820152606490fd5b15610ac257565b60405162461bcd60e51b81526020600482015260166024820152754465677265652063616e6e6f7420626520656d70747960501b6044820152606490fd5b15610b0757565b60405162461bcd60e51b81526020600482015260156024820152744d616a6f722063616e6e6f7420626520656d70747960581b6044820152606490fd5b15610b4b57565b60405162461bcd60e51b8152602060048201526014602482015273796165722063616e6e6f7420626520656d70747960601b6044820152606490fd5b6101ca60c061012d565b90610b9e61018a83610141565b918252565b610bad6001610b91565b600160fd1b602082015290565b6101ca610ba3565b50634e487b7160e01b600052600060045260246000fd5b9160001960089290920291821b911b5b9181191691161790565b9190610c046101ca610c0c93610a16565b908354610bd9565b9055565b6100c791600091610bf3565b818110610c27575050565b80610c356000600193610c10565b01610c1c565b9190601f8111610c4a57505050565b610c5c6100c793600052602060002090565b906020601f840181900483019310610c7f575b6020601f909101045b0190610c1c565b9091508190610c6f565b600019600883021c1916906002021790565b90610ca4815190565b906001600160401b038211610d62575b610cc882610cc285546104d1565b85610c3b565b602090601f8311600114610cf657610c0c929160009183610ceb575b5050610c89565b015190503880610ce4565b601f19831691610d0b85600052602060002090565b9260005b818110610d4a57509160029391856001969410610d30575b50505002019055565b01516000196008601f8516021c19165b9055388080610d27565b91936020600181928787015181550195019201610d0f565b610d6a6100e8565b610cb4565b906100c791610c9b565b90610d97604060026100c794610d9d60008201610d97600088015190565b90610d6f565b610daf60018201610d97602088015190565b0192015190565b906100c791610d79565b9060ff90610be9565b90610dd96101ca610c0c92151590565b8254610dc0565b5190565b9060001990610be9565b90610dfe6101ca610c0c92610a16565b8254610de4565b90610e7960a060076100c794610e2360008201610d97600088015190565b610e3560018201610d97602088015190565b610e4d60028201610e47604088015190565b90610db6565b610e6760058201610e616060880151151590565b90610dc9565b610daf60068201610d97608088015190565b90610dee565b6100c7929115610e0557610e91610bc2565b610e05565b90610eb96100c792805490600160401b821015610ebf575b60018201815561047e565b90610e7f565b610ec76100e8565b610eae565b50634e487b7160e01b600052601160045260246000fd5b91908203918211610ef057565b6100c7610ecc565b9490610f6594610f3b6101ca9895610f2d89610f5797610f20610f4997600060e08501940152565b8b820360208d01526102ad565b9089820360408b01526102ad565b9087820360608901526102ad565b9085820360808701526102ad565b9083820360a08501526102ad565b9060c0818303910152600f81526e414354494f4e5f434f4e4649524d4560881b602082015260400190565b909192610f9b600090565b50815194600095610fab87610a16565b10610fb590610a23565b8351610fc087610a16565b10610fca90610a6f565b8451610fd587610a16565b10610fdf90610abb565b8151610fea87610a16565b10610ff490610b00565b8051610fff87610a16565b1061100990610b44565b6110116105ad565b868101869052956020870183905260408701829052801990611031610b87565b80820186905260208101879052604081019890985215156060880152611055610bba565b608088015261106390610a16565b60a08701526001956110759087610e96565b855461108087610a16565b61108991610ee3565b917fb3ba2cff02b32eeb145a4310f642027c74c7037f3f86732ad86b47ee1fdd8d2a956110b560405190565b9586956110c29587610ef8565b0390a18054906110d190610a16565b6101ca91610ee3565b602080916001600160401b0381116110f157020190565b6110f96100e8565b020190565b90610b9e61018a836110da565b906100c7611184600761111c610b87565b946111296105d58261058c565b6111386105e86001830161058c565b61114e611147600283016105b7565b6040880152565b61116861115f600583015460ff1690565b15156060880152565b61117e6111776006830161058c565b6080880152565b01610603565b60a0840152565b6101ca9061110b565b9061119d825490565b6111a6816110fe565b926111ba6020850191600052602060002090565b6000915b8383106111cb5750505050565b600860206001926111db8561118b565b8152019201920191906111be565b6101ca90611194565b6101ca60016111e9565b92906007906112306112369461122761121d61121989600161047e565b5090565b9360058501610dc9565b60068301610d6f565b01610dee565b6112987f82e047af96f6b7e5a52ea238aee0ca4188211301535ddf1fe126e140df6421b49161126460405190565b91829182908152604060208201819052600f908201526e414354494f4e5f434f4e4649524d4560881b606082015260800190565b0390a1565b156112a457565b60405162461bcd60e51b815260206004820152601960248201527f46697273746e616d652063616e6e6f7420626520656d707479000000000000006044820152606490fd5b156112f057565b60405162461bcd60e51b815260206004820152601860248201527f4c6173746e616d652063616e6e6f7420626520656d70747900000000000000006044820152606490fd5b1561133c57565b60405162461bcd60e51b8152602060048201526014602482015273796561722063616e6e6f7420626520656d70747960601b6044820152606490fd5b92936112989295919461147561138e610de08890565b6113aa6000916113a46113a084610a16565b9190565b1161129d565b6113c76113b58a5190565b6113c16113a084610a16565b116112e9565b6113e46113d2845190565b6113de6113a084610a16565b11610abb565b6114016113ef855190565b6113fb6113a084610a16565b11610b00565b61141e61140c865190565b6114186113a084610a16565b11611335565b60026114286105ad565b916114338582850152565b61143e866020850152565b611449876040850152565b61146f8b60016114688d6114606112198f8561047e565b958601610d6f565b8301610d6f565b01610db6565b7f7805d5a30b55d3f171bac6edbc08f1ec7ff173b3a037a9835b57f9ea38d01c6d966114a060405190565b96879687610ef8565b156114b057565b60405162461bcd60e51b815260206004820152601760248201527f53747564656e74204944206f7574206f662072616e67650000000000000000006044820152606490fd5b6001906000198114611505570190565b61015f610ecc565b91908201809211610ef057565b6101ca90546104d1565b90808214611601576115358161151a565b906001600160401b0382116115f4575b61155382610cc285546104d1565b600090601f831160011461158057610c0c929160009183611575575050610c89565b015490503880610ce4565b90611595601f19841692600052602060002090565b906115a585600052602060002090565b92815b8181106115dc575091600293918560019694106115c85750505002019055565b01546000196008601f8516021c1916610d40565b919360018060209287870154815501950192016115a8565b6115fc6100e8565b611545565b5050565b906100c791611524565b9080820361161b575050565b6100c791600290819061162e8482611605565b61163f600182016001860190611605565b01910190611605565b906100c79161160f565b9080820361165e575050565b6100c791610e799060079081906116758582611605565b611686600182016001870190611605565b611697600282016002870190611648565b6116ac60058201610e61600588015460ff1690565b6116bd600682016006870190611605565b019201610603565b6100c7929115611652576116d7610bc2565b611652565b50634e487b7160e01b600052603160045260246000fd5b9061170690600019906020036008021c90565b8154169055565b9060009161172b61172382600052602060002090565b928354610c89565b905555565b919290602082101561178857601f841160011461175257610c0c929350610c89565b50906117836100c793600161177a61176f85600052602060002090565b92601f602091010490565b82019101610c1c565b61170d565b506117c1829361179f600194600052602060002090565b610c786020601f860104820192601f8616806117c9575b50601f602091010490565b600202179055565b6117d5908886036116f3565b386117b6565b929091602090600160401b8311611830575b101561182457602081101561180557610c0c91610c89565b60019160ff191661181b84600052602060002090565b55600202019055565b60019150600202019055565b6118386100e8565b6117ed565b908154611849816104d1565b90818311611872575b818310611860575b50505050565b61186993611730565b3880808061185a565b61187e838383876117db565b611852565b60006100c79161183d565b6100c791156118835761189f610bc2565b611883565b600060026100c7926118b88380830161188e565b6118c5836001830161188e565b0161188e565b6100c791156118a4576118dc610bc2565b6118a4565b600060076100c7926118f58380830161188e565b611902836001830161188e565b61190f83600283016118cb565b826005820155611922836006830161188e565b01610c10565b6100c791156118e157611939610bc2565b6118e1565b6001611948825490565b8015611967575b039061196461195e838361047e565b90611928565b55565b61196f6116dc565b61194f565b6001809161198d6119866101ca845490565b82106114a9565b905b6119f5575b5061199e9061193e565b7fa6fb241657c3c18fc80b9ead1a3ff49713b698afdf880800d2fc42f10098cd536119c860405190565b6020808252600f908201526e414354494f4e5f434f4e4649524d4560881b60408201528060608101611298565b611a126101ca611a03845490565b611a0c85610a16565b90610ee3565b811015611a5857611a528291611a4d611a3c611a36611a3086610a16565b8461150d565b8561047e565b50611a47838661047e565b906116c5565b6114f5565b9061198f565b61199456fea264697066735822122014f2ea0ddec3589106991aae998829cf22d9ce9a1646e9479c7a2b0141382e9864736f6c63430008110033",
  "linkReferences": {},
  "deployedLinkReferences": {}
}