{
  "_format": "hh-sol-artifact-1",
  "contractName": "StudentRegistry2",
  "sourceName": "contracts/Studentmultisig.sol",
  "abi": [
    {
      "inputs": [
        {
          "internalType": "address[]",
          "name": "_owners",
          "type": "address[]"
        },
        {
          "internalType": "uint256",
          "name": "_numConfirmationsRequired",
          "type": "uint256"
        }
      ],
      "stateMutability": "nonpayable",
      "type": "constructor"
    },
    {
      "anonymous": false,
      "inputs": [
        {
          "indexed": true,
          "internalType": "uint256",
          "name": "studentId",
          "type": "uint256"
        },
        {
          "indexed": true,
          "internalType": "address",
          "name": "sender",
          "type": "address"
        }
      ],
      "name": "Confirmation",
      "type": "event"
    },
    {
      "anonymous": false,
      "inputs": [
        {
          "indexed": true,
          "internalType": "uint256",
          "name": "studentId",
          "type": "uint256"
        }
      ],
      "name": "Execution",
      "type": "event"
    },
    {
      "anonymous": false,
      "inputs": [
        {
          "indexed": true,
          "internalType": "uint256",
          "name": "studentId",
          "type": "uint256"
        },
        {
          "indexed": false,
          "internalType": "string",
          "name": "firstName",
          "type": "string"
        },
        {
          "indexed": false,
          "internalType": "string",
          "name": "lastName",
          "type": "string"
        },
        {
          "indexed": false,
          "internalType": "string",
          "name": "degree",
          "type": "string"
        },
        {
          "indexed": false,
          "internalType": "string",
          "name": "major",
          "type": "string"
        },
        {
          "indexed": false,
          "internalType": "uint256",
          "name": "year",
          "type": "uint256"
        }
      ],
      "name": "StudentCreated",
      "type": "event"
    },
    {
      "anonymous": false,
      "inputs": [
        {
          "indexed": true,
          "internalType": "uint256",
          "name": "studentId",
          "type": "uint256"
        }
      ],
      "name": "StudentDeleted",
      "type": "event"
    },
    {
      "anonymous": false,
      "inputs": [
        {
          "indexed": true,
          "internalType": "uint256",
          "name": "studentId",
          "type": "uint256"
        },
        {
          "indexed": false,
          "internalType": "string",
          "name": "firstName",
          "type": "string"
        },
        {
          "indexed": false,
          "internalType": "string",
          "name": "lastName",
          "type": "string"
        },
        {
          "indexed": false,
          "internalType": "string",
          "name": "degree",
          "type": "string"
        },
        {
          "indexed": false,
          "internalType": "string",
          "name": "major",
          "type": "string"
        },
        {
          "indexed": false,
          "internalType": "uint256",
          "name": "year",
          "type": "uint256"
        }
      ],
      "name": "StudentUpdated",
      "type": "event"
    },
    {
      "inputs": [
        {
          "internalType": "uint256",
          "name": "_studentId",
          "type": "uint256"
        }
      ],
      "name": "confirmCreateStudent",
      "outputs": [],
      "stateMutability": "nonpayable",
      "type": "function"
    },
    {
      "inputs": [
        {
          "internalType": "string",
          "name": "_firstName",
          "type": "string"
        },
        {
          "internalType": "string",
          "name": "_lastName",
          "type": "string"
        },
        {
          "internalType": "string",
          "name": "_degree",
          "type": "string"
        },
        {
          "internalType": "string",
          "name": "_major",
          "type": "string"
        },
        {
          "internalType": "uint256",
          "name": "_year",
          "type": "uint256"
        }
      ],
      "name": "createStudent",
      "outputs": [],
      "stateMutability": "nonpayable",
      "type": "function"
    },
    {
      "inputs": [
        {
          "internalType": "uint256",
          "name": "_studentId",
          "type": "uint256"
        }
      ],
      "name": "deleteStudent",
      "outputs": [],
      "stateMutability": "nonpayable",
      "type": "function"
    },
    {
      "inputs": [
        {
          "internalType": "address",
          "name": "",
          "type": "address"
        }
      ],
      "name": "isOwner",
      "outputs": [
        {
          "internalType": "bool",
          "name": "",
          "type": "bool"
        }
      ],
      "stateMutability": "view",
      "type": "function"
    },
    {
      "inputs": [
        {
          "internalType": "uint256",
          "name": "_studentId",
          "type": "uint256"
        }
      ],
      "name": "issueCertificate",
      "outputs": [
        {
          "internalType": "bytes",
          "name": "",
          "type": "bytes"
        }
      ],
      "stateMutability": "view",
      "type": "function"
    },
    {
      "inputs": [],
      "name": "numConfirmationsRequired",
      "outputs": [
        {
          "internalType": "uint256",
          "name": "",
          "type": "uint256"
        }
      ],
      "stateMutability": "view",
      "type": "function"
    },
    {
      "inputs": [
        {
          "internalType": "uint256",
          "name": "",
          "type": "uint256"
        }
      ],
      "name": "owners",
      "outputs": [
        {
          "internalType": "address",
          "name": "",
          "type": "address"
        }
      ],
      "stateMutability": "view",
      "type": "function"
    },
    {
      "inputs": [
        {
          "internalType": "uint256",
          "name": "_studentId",
          "type": "uint256"
        }
      ],
      "name": "readStudent",
      "outputs": [
        {
          "internalType": "string",
          "name": "",
          "type": "string"
        },
        {
          "internalType": "string",
          "name": "",
          "type": "string"
        },
        {
          "internalType": "string",
          "name": "",
          "type": "string"
        },
        {
          "internalType": "string",
          "name": "",
          "type": "string"
        },
        {
          "internalType": "uint256",
          "name": "",
          "type": "uint256"
        }
      ],
      "stateMutability": "view",
      "type": "function"
    },
    {
      "inputs": [],
      "name": "studentCount",
      "outputs": [
        {
          "internalType": "uint256",
          "name": "",
          "type": "uint256"
        }
      ],
      "stateMutability": "view",
      "type": "function"
    },
    {
      "inputs": [
        {
          "internalType": "uint256",
          "name": "",
          "type": "uint256"
        }
      ],
      "name": "students",
      "outputs": [
        {
          "internalType": "string",
          "name": "firstName",
          "type": "string"
        },
        {
          "internalType": "string",
          "name": "lastName",
          "type": "string"
        },
        {
          "components": [
            {
              "internalType": "string",
              "name": "degree",
              "type": "string"
            },
            {
              "internalType": "string",
              "name": "major",
              "type": "string"
            },
            {
              "internalType": "uint256",
              "name": "year",
              "type": "uint256"
            }
          ],
          "internalType": "struct StudentRegistry2.Education",
          "name": "education",
          "type": "tuple"
        },
        {
          "internalType": "bool",
          "name": "isExecuted",
          "type": "bool"
        },
        {
          "internalType": "uint256",
          "name": "confirmationCount",
          "type": "uint256"
        }
      ],
      "stateMutability": "view",
      "type": "function"
    },
    {
      "inputs": [
        {
          "internalType": "uint256",
          "name": "_studentId",
          "type": "uint256"
        },
        {
          "internalType": "string",
          "name": "_firstName",
          "type": "string"
        },
        {
          "internalType": "string",
          "name": "_lastName",
          "type": "string"
        },
        {
          "internalType": "string",
          "name": "_degree",
          "type": "string"
        },
        {
          "internalType": "string",
          "name": "_major",
          "type": "string"
        },
        {
          "internalType": "uint256",
          "name": "_year",
          "type": "uint256"
        }
      ],
      "name": "updateStudent",
      "outputs": [],
      "stateMutability": "nonpayable",
      "type": "function"
    }
  ],
  "bytecode": "0x60806040523462000032575b62000020620000196200020b565b9062000555565b60405161198f62000688823961198f90f35b6200003b600080fd5b6200000b565b600080fd5b50634e487b7160e01b600052604160045260246000fd5b90601f01601f191681019081106001600160401b038211176200007f57604052565b6200008962000046565b604052565b90620000a56200009d60405190565b92836200005d565b565b60209081906001600160401b038111620000c057020190565b620000ca62000046565b020190565b6001600160a01b031690565b90565b6001600160a01b0381165b036200004157565b90505190620000a582620000de565b90929192620001196200011382620000a7565b6200008e565b93818552602080860192028301928184116200015c575b915b838310620001405750505050565b60208091620001508486620000f1565b81520192019162000132565b62000165600080fd5b62000130565b90620000db9181601f820112156200018a575b60208151910162000100565b62000193600080fd5b6200017e565b80620000e9565b90505190620000a58262000199565b9190620000db90604084820312620001fc575b8351620001e39082906001600160401b038111620001ed575b86016200016b565b93602001620001a0565b620001f6600080fd5b620001db565b62000205600080fd5b620001c2565b6200022e620020178038038062000222816200008e565b928339810190620001af565b9091565b620000db620000db620000db9290565b0190565b156200024e57565b60405162461bcd60e51b815260206004820152600f60248201526e13dddb995c9cc81c995c5d5a5c9959608a1b6044820152606490fd5b156200028d57565b60405162461bcd60e51b815260206004820152602860248201527f496e76616c6964206e756d626572206f6620636f6e6669726d6174696f6e73206044820152671c995c5d5a5c995960c21b6064820152608490fd5b50634e487b7160e01b600052601160045260246000fd5b60019060001981146200030b570190565b62000242620002e3565b50634e487b7160e01b600052603260045260246000fd5b90602080916200033a845190565b81101562000349575b02010190565b6200035362000315565b62000343565b620000cf620000db620000db9290565b620000db9062000359565b156200037c57565b60405162461bcd60e51b815260206004820152600d60248201526c24b73b30b634b21037bbb732b960991b6044820152606490fd5b620000db90620000cf906001600160a01b031682565b620000db90620003b1565b620000db90620003c7565b90620003e990620003d2565b600052602052604060002090565b15620003ff57565b60405162461bcd60e51b815260206004820152601360248201527f4f776e657220616c7265616479206164646564000000000000000000000000006044820152606490fd5b9060ff905b9181191691161790565b9062000466620000db6200046e92151590565b825462000444565b9055565b6200049560019162000482815490565b8410156200049e57600052602060002090565b91020190600090565b620004a862000315565b600052602060002090565b916001600160a01b0360089290920291821b911b62000449565b9190620004e2620000db6200046e93620003d2565b908354620004b3565b9062000517620000a592805490680100000000000000008210156200051e575b60018201815562000472565b90620004cd565b6200052862000046565b6200050b565b906000199062000449565b906200054d620000db6200046e9262000232565b82546200052e565b80519262000579600094620005726200056e8762000232565b9190565b1162000246565b620005848462000232565b8311806200066a575b620005989062000285565b620005a38462000232565b620005b0620000db845190565b8110156200065957806200064d620005de620005d16200065394876200032c565b516001600160a01b031690565b62000603620005f1620000cf8a62000369565b6001600160a01b038316141562000374565b620006466002620006326200062c62000628620006218685620003dd565b5460ff1690565b1590565b620003f7565b6200064083600192620003dd565b62000453565b87620004eb565b620002fa565b620005a3565b50925050620000a590600162000539565b50620005986200067c620000db845190565b84111590506200058d56fe60806040526004361015610018575b610016600080fd5b005b60003560e01c8063025e7c27146100f457806306ead22e146100eb5780632f54bf6e146100e25780634fb14e68146100d95780638ec0124a146100d057806392b2424d146100c7578063a302ef19146100be578063b645307d146100b5578063d0549b85146100ac578063d80fa7cf146100a35763e581f9ee0361000e5761009e610a69565b61000e565b5061009e610a27565b5061009e6109dc565b5061009e610980565b5061009e610959565b5061009e61092e565b5061009e61084c565b5061009e6107bf565b5061009e610616565b5061009e610544565b5061009e6101ef565b600080fd5b805b036100fd57565b9050359061011882610102565b565b9061012e916020818303126101315761010b565b90565b610139600080fd5b61010b565b50634e487b7160e01b600052603260045260246000fd5b610175600191610163815490565b84101561017e57600052602060002090565b91020190600090565b61018661013e565b600052602060002090565b61012e916008021c5b6001600160a01b031690565b9061012e9154610191565b600080548210156101cf5761012e916101c991610155565b906101a6565b80fd5b6101db9061019a565b9052565b60208101929161011891906101d2565b503461021c575b61021861020c61020736600461011a565b6101b1565b604051918291826101df565b0390f35b610224600080fd5b6101f6565b61012e61012e61012e9290565b9061024090610229565b600052602052604060002090565b50634e487b7160e01b600052602260045260246000fd5b9060016002830492168015610288575b602083101461028057565b61011861024e565b91607f1691610275565b805460009392916102af6102a583610265565b8085529360200190565b916001811690811561030157506001146102c857505050565b6102db9192939450600052602060002090565b916000925b8184106102ed5750500190565b8054848401526020909301926001016102e0565b92949550505060ff1916825215156020020190565b9061012e91610292565b601f01601f191690565b50634e487b7160e01b600052604160045260246000fd5b90601f01601f1916810190811067ffffffffffffffff82111761036357604052565b61036b61032a565b604052565b9061011861038a9261038160405190565b93848092610316565b0383610341565b61012e9081565b61012e9054610391565b906101186103af60405190565b9283610341565b61012e60606103a2565b906101186103fe60026103d16103b6565b946103e26103de82610370565b8752565b6103f86103f160018301610370565b6020880152565b01610398565b6040840152565b61012e905b60ff1690565b61012e9054610405565b610425906003610236565b61042e81610370565b9161043b60018301610370565b91610448600282016103c0565b9161012e600661045a60058501610410565b9301610398565b60005b8381106104745750506000910152565b8181015183820152602001610464565b6104a56103206020936104ae93610499815190565b80835293849260200190565b95869101610461565b0190565b9061012e906040806104e86104d66060850160008801518682036000880152610484565b60208701518582036020870152610484565b940151910152565b906105366101189597969461052860809561051a6105409560a088019088820360008a0152610484565b908682036020880152610484565b9084820360408601526104b2565b9615156060830152565b0152565b5034610577575b61021861056161055c36600461011a565b61041a565b9161056e95939560405190565b958695866104f0565b61057f600080fd5b61054b565b6101048161019a565b9050359061011882610584565b9061012e916020818303121561058d576105b2600080fd5b61058d565b61012e9061019a906001600160a01b031682565b61012e906105b7565b61012e906105cb565b90610240906105d4565b61012e916008021c61040a565b9061012e91546105e7565b61012e906106116002916000926105dd565b6105f4565b5034610645575b61021861063361062e36600461059a565b6105ff565b60405191829182901515815260200190565b61064d600080fd5b61061d565b6104ae60209167ffffffffffffffff811161067157601f01601f191690565b61032061032a565b90826000939282370152565b9291906101189161069d61069883610652565b6103a2565b9482865260208601918382011115610679576106b7600080fd5b610679565b9061012e9181601f820112156106d8575b602081359101610685565b6106e0600080fd5b6106cd565b909160c0828403126107b2575b6106fc838361010b565b9261071d81602085013567ffffffffffffffff8111610798575b85016106bc565b9261073e82604083013567ffffffffffffffff81116107a5575b83016106bc565b9261012e61076184606085013567ffffffffffffffff81116107985785016106bc565b9361078281608086013567ffffffffffffffff811161078b575b86016106bc565b9360a00161010b565b610793600080fd5b61077b565b6107a0600080fd5b610716565b6107ad600080fd5b610737565b6107ba600080fd5b6106f2565b50346107e5575b6107e06107d43660046106e5565b949390939291926110b9565b604051005b6107ed600080fd5b6107c6565b959492936108396101189561082b60809561081d6108479660a08d01908d6000818403910152610484565b908b820360208d0152610484565b9089820360408b0152610484565b908782036060890152610484565b940152565b503461087f575b61021861086961086436600461011a565b611079565b9161087695939560405190565b958695866107f2565b610887600080fd5b610853565b919060a083820312610921575b6108b581843567ffffffffffffffff81116107985785016106bc565b926108d582602083013567ffffffffffffffff81116107a55783016106bc565b9261012e6108f884604085013567ffffffffffffffff81116107985785016106bc565b9361091881606086013567ffffffffffffffff811161078b5786016106bc565b9360800161010b565b610929600080fd5b610899565b503461094c575b6107e061094336600461088c565b93929092610ea2565b610954600080fd5b610935565b5034610973575b6107e061096e36600461011a565b611496565b61097b600080fd5b610960565b503461099a575b6107e061099536600461011a565b6113c7565b6109a2600080fd5b610987565b60009103126109b257565b610118600080fd5b61012e916008021c81565b9061012e91546109ba565b61012e600060016109c5565b5034610a09575b6109ee3660046109a7565b6102186109f96109d0565b6040519182918290815260200190565b610a11600080fd5b6109e3565b602080825261012e92910190610484565b5034610a50575b610218610a44610a3f36600461011a565b6116f7565b60405191829182610a16565b610a58600080fd5b610a2e565b61012e600060046109c5565b5034610a86575b610a7b3660046109a7565b6102186109f9610a5d565b610a8e600080fd5b610a70565b15610a9a57565b60405162461bcd60e51b815260206004820152601a60248201527f4669727374206e616d652063616e6e6f7420626520656d7074790000000000006044820152606490fd5b15610ae657565b60405162461bcd60e51b815260206004820152601960248201527f4c617374206e616d652063616e6e6f7420626520656d707479000000000000006044820152606490fd5b15610b3257565b60405162461bcd60e51b81526020600482015260166024820152754465677265652063616e6e6f7420626520656d70747960501b6044820152606490fd5b15610b7757565b60405162461bcd60e51b81526020600482015260156024820152744d616a6f722063616e6e6f7420626520656d70747960581b6044820152606490fd5b61012e60a06103a2565b50634e487b7160e01b600052601160045260246000fd5b6001906000198114610be5570190565b6104ae610bbe565b90600019905b9181191691161790565b90610c0d61012e610c1492610229565b8254610bed565b9055565b50634e487b7160e01b600052600060045260246000fd5b9160001960089290920291821b911b610bf3565b9190610c5461012e610c1493610229565b908354610c2f565b61011891600091610c43565b818110610c73575050565b80610c816000600193610c5c565b01610c68565b9190601f8111610c9657505050565b610ca861011893600052602060002090565b906020601f840181900483019310610ccb575b6020601f909101045b0190610c68565b9091508190610cbb565b600019600883021c1916906002021790565b90610cf0815190565b9067ffffffffffffffff8211610dae575b610d1582610d0f8554610265565b85610c87565b602090601f8311600114610d4357610c14929160009183610d38575b5050610cd5565b015190503880610d31565b601f19831691610d5885600052602060002090565b9260005b818110610d9657509160029391856001969410610d7d575b50505002019055565b01516000196008601f8516021c19169055388080610d74565b91936020600181928787015181550195019201610d5c565b610db661032a565b610d01565b9061011891610ce7565b5190565b90610e066040600261011894610ded60008201610de7600088015190565b90610dbb565b610dff60018201610de7602088015190565b0192015190565b90610bfd565b9061011891610dc9565b9060ff90610bf3565b90610e2f61012e610c1492151590565b8254610e16565b90610e066080600661011894610e5460008201610de7600088015190565b610e6660018201610de7602088015190565b610e7e60028201610e78604088015190565b90610e0c565b610dff60058201610e926060880151151590565b90610e1f565b9061011891610e36565b90919361100990610fca610eb6610dc58590565b610ed2600091610ecc610ec884610229565b9190565b11610a93565b610eef610edd875190565b610ee9610ec884610229565b11610adf565b610f0c610efa895190565b610f06610ec884610229565b11610b2b565b610f29610f17885190565b610f23610ec884610229565b11610b70565b610f94610f8d610f376103b6565b92610f428b82860152565b610f4d8a6020860152565b610f58866040860152565b610f80610f63610bb4565b94610f6e8a84880152565b610f798b6020880152565b6040860152565b8015156060850152610229565b6080830152565b610fb0610fa9610fa46004610398565b610bd5565b6004610bfd565b610fc56003610fbf6004610398565b90610236565b610e98565b610fd46004610398565b94610fff7f70b517a9dbd4bf0acdc42bbef27f987464150fbe85e7bede1640091c816e951096610229565b9661087660405190565b0390a2565b90610118611069600661101f610bb4565b9461102c6103de82610370565b61103b6103f160018301610370565b61105161104a600283016103c0565b6040880152565b6103f861106060058301610410565b15156060880152565b6080840152565b61012e9061100e565b61109461109991611088606090565b5060005b506003610236565b611070565b805160208083015160409384015180519281015194015192949093919290565b93946110099192939561115a6110cf610dc58690565b6110e1600091610ecc610ec884610229565b6110ec610edd885190565b6110f7610efa8a5190565b611102610f17845190565b600261110c6103b6565b916111178b82850152565b611122856020850152565b61112d866040850152565b6111478861113f61012e8d6003610236565b928301610dbb565b6111548960018301610dbb565b01610e0c565b610fff7f5ae86f194f51c32e0721d07aeeeb2b329b5050b21907aafbcba0455f5233c39796610229565b9061119790600019906020036008021c90565b8154169055565b906000916111bc6111b482600052602060002090565b928354610cd5565b905555565b919290602082101561121957601f84116001146111e357610c14929350610cd5565b509061121461011893600161120b61120085600052602060002090565b92601f602091010490565b82019101610c68565b61119e565b506112528293611230600194600052602060002090565b610cc46020601f860104820192601f86168061125a575b50601f602091010490565b600202179055565b61126690888603611184565b38611247565b9290916020906801000000000000000083116112c6575b10156112ba57602081101561129b57610c1491610cd5565b60019160ff19166112b184600052602060002090565b55600202019055565b60019150600202019055565b6112ce61032a565b611283565b9081546112df81610265565b90818311611308575b8183106112f6575b50505050565b6112ff936111c1565b388080806112f0565b6113148383838761126c565b6112e8565b6000610118916112d3565b610118911561131957611335610c18565b611319565b600060026101189261134e83808301611324565b61135b8360018301611324565b01610c5c565b610118911561133a57611372610c18565b61133a565b600060066101189261138b83808301611324565b6113988360018301611324565b6113a58360028301611361565b82600582015501610c5c565b6101189115611377576113c2610c18565b611377565b6113dc60006113d7836003610236565b6113b1565b6114067f34de6b871245ed0a89b82912e8e5ee6d9c3104b3e5bb1d67a71ad7e68239e41c91610229565b9061141060405190565b8080611009565b1561141e57565b60405162461bcd60e51b815260206004820152600c60248201526b2737ba1030b71037bbb732b960a11b6044820152606490fd5b1561145957565b60405162461bcd60e51b815260206004820152601560248201527415185cdac8185b1c9958591e48195e1958dd5d1959605a1b6044820152606490fd5b611531906115446114ab61012e836003610236565b9133906114c96114c46114bf8460026105dd565b610410565b611417565b600660058501946114e86114e36114df88610410565b1590565b611452565b01916114ff6114f9610fa485610398565b84610bfd565b6115297f1f7db319f45151674bbce08ad4e1093bca1941bc7ef2f91ccafd6519406f010192610229565b9586916105d4565b9161153b60405190565b600090a3610398565b611554610ec861012e6001610398565b1461155d575050565b61156990600190610e1f565b7f33e13ecb54c3076d8e8bb8c2881800a4d972b792045ffae98fdf46df365fed7561141060405190565b6104ae6115ab926020926115a5815190565b94859290565b93849101610461565b60209561163c6116ae61012e999761163c61169e6116e89961163c61164f6116e39b61163c6116426116cd9d61163c6116136116be9f7f4365727469666963617465206f662047726164756174696f6e0a0a00000000008152601b0190565b7f5468697320697320746f20636572746966792074686174200000000000000000815260180190565b90611593565b600160fd1b815260010190565b7f20686173207375636365737366756c6c7920636f6d706c65746564207468652081527f726571756972656d656e747320666f722074686520646567726565206f6620006020820152603f0190565b6301034b7160e51b815260040190565b6301037b7160e51b815260040190565b6217050560e91b815260030190565b69024b9b9bab2b21037b7160b51b8152600a0190565b918252565b0161170560f11b815260020190565b61012e61170c61109461012e9361108c606090565b8051602080830151604093840151805192810151940151919361012e93919261175291906117399061187c565b429161174460405190565b9788966020880196876115b4565b90810382520382610341565b906116e361069883610652565b611775600161175e565b600360fc1b602082015290565b61012e61176b565b50634e487b7160e01b600052601260045260246000fd5b81156117ab570490565b6117b361178a565b0490565b369037565b906101186117d26117cc8461175e565b93610652565b601f1901602084016117b7565b81156117e9570690565b6117f161178a565b0690565b9190820180921161180257565b610118610bbe565b61040a61012e61012e9290565b61182d61182761012e9260ff1690565b60f81b90565b6001600160f81b03191690565b6001908015611847570390565b61184f610bbe565b0390565b906001602091611861845190565b81101561186f575b02010190565b61187761013e565b611869565b90600061188881610229565b831461194e5790829060005b61189d84610229565b83146118c6576118af6118c091610bd5565b926118ba600a610229565b906117a1565b91611894565b9150916118d2826117bc565b91935b6118de82610229565b81146119435761193e906118ba600a61192b61192561192061191b603061191661191061190a88610229565b8a6117df565b91610229565b6117f5565b61180a565b611817565b9861183a565b97851a6119388988611853565b53610229565b6118d5565b505061012e91925090565b50905061012e61178256fea26469706673582212205619d8dc7ee920d69f75f0008d7231efb49c02f0b8412d7c6550d2237b35a53864736f6c63430008110033",
  "linkReferences": {},
  "deployedLinkReferences": {}
}