{
  "_format": "hh-sol-artifact-1",
  "contractName": "CertNFT1155",
  "sourceName": "contracts/NFT1155.sol",
  "abi": [
    {
      "inputs": [
        {
          "internalType": "address[]",
          "name": "_owners",
          "type": "address[]"
        }
      ],
      "stateMutability": "nonpayable",
      "type": "constructor"
    },
    {
      "anonymous": false,
      "inputs": [
        {
          "indexed": true,
          "internalType": "address",
          "name": "account",
          "type": "address"
        },
        {
          "indexed": true,
          "internalType": "address",
          "name": "operator",
          "type": "address"
        },
        {
          "indexed": false,
          "internalType": "bool",
          "name": "approved",
          "type": "bool"
        }
      ],
      "name": "ApprovalForAll",
      "type": "event"
    },
    {
      "anonymous": false,
      "inputs": [
        {
          "indexed": false,
          "internalType": "string",
          "name": "code",
          "type": "string"
        }
      ],
      "name": "Owner",
      "type": "event"
    },
    {
      "anonymous": false,
      "inputs": [
        {
          "indexed": true,
          "internalType": "address",
          "name": "operator",
          "type": "address"
        },
        {
          "indexed": true,
          "internalType": "address",
          "name": "from",
          "type": "address"
        },
        {
          "indexed": true,
          "internalType": "address",
          "name": "to",
          "type": "address"
        },
        {
          "indexed": false,
          "internalType": "uint256[]",
          "name": "ids",
          "type": "uint256[]"
        },
        {
          "indexed": false,
          "internalType": "uint256[]",
          "name": "values",
          "type": "uint256[]"
        }
      ],
      "name": "TransferBatch",
      "type": "event"
    },
    {
      "anonymous": false,
      "inputs": [
        {
          "indexed": true,
          "internalType": "address",
          "name": "operator",
          "type": "address"
        },
        {
          "indexed": true,
          "internalType": "address",
          "name": "from",
          "type": "address"
        },
        {
          "indexed": true,
          "internalType": "address",
          "name": "to",
          "type": "address"
        },
        {
          "indexed": false,
          "internalType": "uint256",
          "name": "id",
          "type": "uint256"
        },
        {
          "indexed": false,
          "internalType": "uint256",
          "name": "value",
          "type": "uint256"
        }
      ],
      "name": "TransferSingle",
      "type": "event"
    },
    {
      "anonymous": false,
      "inputs": [
        {
          "indexed": false,
          "internalType": "string",
          "name": "value",
          "type": "string"
        },
        {
          "indexed": true,
          "internalType": "uint256",
          "name": "id",
          "type": "uint256"
        }
      ],
      "name": "URI",
      "type": "event"
    },
    {
      "anonymous": false,
      "inputs": [
        {
          "indexed": false,
          "internalType": "string",
          "name": "code",
          "type": "string"
        }
      ],
      "name": "burnnft",
      "type": "event"
    },
    {
      "anonymous": false,
      "inputs": [
        {
          "indexed": false,
          "internalType": "address",
          "name": "owner",
          "type": "address"
        },
        {
          "indexed": false,
          "internalType": "uint256",
          "name": "tokenid",
          "type": "uint256"
        },
        {
          "indexed": false,
          "internalType": "string",
          "name": "url",
          "type": "string"
        },
        {
          "indexed": false,
          "internalType": "string",
          "name": "code",
          "type": "string"
        }
      ],
      "name": "mintnft",
      "type": "event"
    },
    {
      "inputs": [
        {
          "internalType": "address",
          "name": "_operator",
          "type": "address"
        }
      ],
      "name": "addOperator",
      "outputs": [],
      "stateMutability": "nonpayable",
      "type": "function"
    },
    {
      "inputs": [
        {
          "internalType": "address",
          "name": "account",
          "type": "address"
        },
        {
          "internalType": "uint256",
          "name": "id",
          "type": "uint256"
        }
      ],
      "name": "balanceOf",
      "outputs": [
        {
          "internalType": "uint256",
          "name": "",
          "type": "uint256"
        }
      ],
      "stateMutability": "view",
      "type": "function"
    },
    {
      "inputs": [
        {
          "internalType": "address[]",
          "name": "accounts",
          "type": "address[]"
        },
        {
          "internalType": "uint256[]",
          "name": "ids",
          "type": "uint256[]"
        }
      ],
      "name": "balanceOfBatch",
      "outputs": [
        {
          "internalType": "uint256[]",
          "name": "",
          "type": "uint256[]"
        }
      ],
      "stateMutability": "view",
      "type": "function"
    },
    {
      "inputs": [],
      "name": "getAllTokenIdsAndUrls",
      "outputs": [
        {
          "internalType": "uint256[]",
          "name": "",
          "type": "uint256[]"
        },
        {
          "internalType": "string[]",
          "name": "",
          "type": "string[]"
        }
      ],
      "stateMutability": "view",
      "type": "function"
    },
    {
      "inputs": [
        {
          "internalType": "address",
          "name": "account",
          "type": "address"
        },
        {
          "internalType": "address",
          "name": "operator",
          "type": "address"
        }
      ],
      "name": "isApprovedForAll",
      "outputs": [
        {
          "internalType": "bool",
          "name": "",
          "type": "bool"
        }
      ],
      "stateMutability": "view",
      "type": "function"
    },
    {
      "inputs": [
        {
          "internalType": "string",
          "name": "tokenURI",
          "type": "string"
        }
      ],
      "name": "mint",
      "outputs": [
        {
          "internalType": "uint256",
          "name": "",
          "type": "uint256"
        }
      ],
      "stateMutability": "nonpayable",
      "type": "function"
    },
    {
      "inputs": [
        {
          "internalType": "uint256",
          "name": "",
          "type": "uint256"
        }
      ],
      "name": "owners",
      "outputs": [
        {
          "internalType": "address",
          "name": "",
          "type": "address"
        }
      ],
      "stateMutability": "view",
      "type": "function"
    },
    {
      "inputs": [
        {
          "internalType": "address",
          "name": "from",
          "type": "address"
        },
        {
          "internalType": "address",
          "name": "to",
          "type": "address"
        },
        {
          "internalType": "uint256[]",
          "name": "ids",
          "type": "uint256[]"
        },
        {
          "internalType": "uint256[]",
          "name": "amounts",
          "type": "uint256[]"
        },
        {
          "internalType": "bytes",
          "name": "data",
          "type": "bytes"
        }
      ],
      "name": "safeBatchTransferFrom",
      "outputs": [],
      "stateMutability": "nonpayable",
      "type": "function"
    },
    {
      "inputs": [
        {
          "internalType": "address",
          "name": "from",
          "type": "address"
        },
        {
          "internalType": "address",
          "name": "to",
          "type": "address"
        },
        {
          "internalType": "uint256",
          "name": "id",
          "type": "uint256"
        },
        {
          "internalType": "uint256",
          "name": "amount",
          "type": "uint256"
        },
        {
          "internalType": "bytes",
          "name": "data",
          "type": "bytes"
        }
      ],
      "name": "safeTransferFrom",
      "outputs": [],
      "stateMutability": "nonpayable",
      "type": "function"
    },
    {
      "inputs": [
        {
          "internalType": "address",
          "name": "operator",
          "type": "address"
        },
        {
          "internalType": "bool",
          "name": "approved",
          "type": "bool"
        }
      ],
      "name": "setApprovalForAll",
      "outputs": [],
      "stateMutability": "nonpayable",
      "type": "function"
    },
    {
      "inputs": [
        {
          "internalType": "bytes4",
          "name": "interfaceId",
          "type": "bytes4"
        }
      ],
      "name": "supportsInterface",
      "outputs": [
        {
          "internalType": "bool",
          "name": "",
          "type": "bool"
        }
      ],
      "stateMutability": "view",
      "type": "function"
    },
    {
      "inputs": [
        {
          "internalType": "uint256",
          "name": "id",
          "type": "uint256"
        }
      ],
      "name": "tokenMeta",
      "outputs": [
        {
          "internalType": "string",
          "name": "",
          "type": "string"
        }
      ],
      "stateMutability": "view",
      "type": "function"
    },
    {
      "inputs": [
        {
          "internalType": "uint256",
          "name": "",
          "type": "uint256"
        }
      ],
      "name": "uri",
      "outputs": [
        {
          "internalType": "string",
          "name": "",
          "type": "string"
        }
      ],
      "stateMutability": "view",
      "type": "function"
    }
  ],
  "bytecode": "0x60806040523462000031575b6200001f62000019620001d5565b620003c5565b6040516120bb620005bc82396120bb90f35b6200003a600080fd5b6200000b565b600080fd5b50634e487b7160e01b600052604160045260246000fd5b90601f01601f191681019081106001600160401b038211176200007e57604052565b6200008862000045565b604052565b90620000a46200009c60405190565b92836200005c565b565b60209081906001600160401b038111620000bf57020190565b620000c962000045565b020190565b90565b6001600160a01b038116036200004057565b90505190620000a482620000d1565b909291926200010b6200010582620000a6565b6200008d565b93818552602080860192028301928184116200014e575b915b838310620001325750505050565b60208091620001428486620000e3565b81520192019162000124565b62000157600080fd5b62000122565b90620000ce9181601f820112156200017c575b602081519101620000f2565b62000185600080fd5b62000170565b90620000ce91602081830312620001c6575b8051906001600160401b038211620001b7575b016200015d565b620001c0600080fd5b620001b0565b620001cf600080fd5b6200019d565b620000ce6200267780380380620001ec816200008d565b9283398101906200018b565b60209062000219906001600160401b0381116200021d57601f01601f191690565b0190565b6200022762000045565b601f01601f191690565b90620002416200010583620001f8565b918252565b620000ce600062000231565b620000ce62000246565b620000ce620000ce620000ce9290565b919062000281620000ce6200029d936200025c565b9083549160001960089290920291821b911b9181191691161790565b9055565b620000a4916000916200026c565b818110620002bb575050565b80620002cb6000600193620002a1565b01620002af565b9091828110620002e157505050565b620000a49290620002f9905b92600052602060002090565b9081019101620002af565b90620000a49168010000000000000000821162000328575b805490828155620002d2565b6200033262000045565b6200031c565b60016200036c620002ed6200034b855190565b94838060401b038611620003a9575b62000366868662000304565b60200190565b92049160005b838110620003805750505050565b60019060206200039b620000ce86516001600160a01b031690565b940193818401550162000372565b620003b362000045565b6200035a565b90620000a49162000338565b620000a490620003de620003d862000252565b620003e6565b6005620003b9565b620000a490620005ae565b50634e487b7160e01b600052602260045260246000fd5b90600160028304921680156200042f575b60208310146200042557565b620000a4620003f1565b91607f169162000419565b81811062000446575050565b80620004566000600193620002a1565b016200043a565b9190601f81116200046d57505050565b62000481620000a493600052602060002090565b906020601f840181900483019310620004a5575b6020601f9091010401906200043a565b909150819062000495565b90620004ba815190565b906001600160401b03821162000592575b620004e382620004dc855462000408565b856200045d565b602090601f831160011462000522576200029d92916000918362000516575b5050600019600883021c1916906002021790565b01519050388062000502565b601f198316916200053885600052602060002090565b9260005b81811062000579575091600293918560019694106200055f575b50505002019055565b01516000196008601f8516021c1916905538808062000556565b919360206001819287870151815501950192016200053c565b6200059c62000045565b620004cb565b90620000a491620004b0565b620000a4906002620005a256fe60806040526004361015610018575b610016600080fd5b005b60003560e01c8062fdd58e1461011b57806301ffc9a714610112578063025e7c27146101095780630ae7a310146101005780630e89341c146100f75780632eb2c2d6146100ee578063387849fd146100e55780634e1273f4146100dc5780639870d7fe146100d3578063a22cb465146100ca578063d85d3d27146100c1578063e985e9c5146100b85763f242432a0361000e576100b3610ada565b61000e565b506100b3610a5e565b506100b3610a03565b506100b36109a6565b506100b3610939565b506100b36108e5565b506100b36107a1565b506100b361066d565b506100b36103f2565b506100b36103bc565b506100b361030c565b506100b3610216565b506100b361019d565b600080fd5b6001600160a01b031690565b90565b6001600160a01b0381165b0361012457565b9050359061015782610138565b565b80610143565b9050359061015782610159565b919061013590604084820312610190575b610187818561014a565b9360200161015f565b610198600080fd5b61017d565b50346101cf575b6101cb6101bb6101b536600461016c565b90610d36565b6040519182918290815260200190565b0390f35b6101d7600080fd5b6101a4565b6001600160e01b03198116610143565b90503590610157826101dc565b9061013591602081830312156101ec57610211600080fd5b6101ec565b5034610246575b6101cb61023361022e3660046101f9565b610b05565b6040515b91829182901515815260200190565b61024e600080fd5b61021d565b90610135916020818303121561015f5761026b600080fd5b61015f565b50634e487b7160e01b600052603260045260246000fd5b6102a7600191610295815490565b8410156102b057600052602060002090565b91020190600090565b6102b8610270565b600052602060002090565b610135916008021c6001600160a01b031690565b9061013591546102c3565b600560006102ee825490565b83101561030957506101359161030391610287565b906102d7565b80fd5b5034610343575b6101cb610329610324366004610253565b6102e2565b604051918291826001600160a01b03909116815260200190565b61034b600080fd5b610313565b60005b8381106103635750506000910152565b8181015183820152602001610353565b601f01601f191690565b61039e6103736020936103a793610392815190565b80835293849260200190565b95869101610350565b0190565b60208082526101359291019061037d565b50346103e5575b6101cb6103d96103d4366004610253565b611f8e565b604051918291826103ab565b6103ed600080fd5b6103c3565b503461040f575b6101cb6103d961040a366004610253565b610c4c565b610417600080fd5b6103f9565b50634e487b7160e01b600052604160045260246000fd5b90601f01601f1916810190811067ffffffffffffffff82111761045557604052565b61045d61041c565b604052565b9061015761046f60405190565b9283610433565b6020809167ffffffffffffffff811161048e57020190565b61049661041c565b020190565b909291926104b06104ab82610476565b610462565b93818552602080860192028301928184116104ee575b915b8383106104d55750505050565b602080916104e3848661015f565b8152019201916104c8565b6104f6600080fd5b6104c6565b906101359181601f82011215610517575b60208135910161049b565b61051f600080fd5b61050c565b6103a760209167ffffffffffffffff811161054357601f01601f191690565b61037361041c565b90826000939282370152565b9291906101579161056a6104ab83610524565b948286526020860191838201111561054b57610584600080fd5b61054b565b906101359181601f820112156105a5575b602081359101610557565b6105ad600080fd5b61059a565b919060a083820312610660575b6105c9818461014a565b926105d7826020830161014a565b926101356105fb84604085013567ffffffffffffffff8111610653575b85016104fb565b9361061c81606086013567ffffffffffffffff8111610646575b86016104fb565b9360808101359067ffffffffffffffff8211610639575b01610589565b610641600080fd5b610633565b61064e600080fd5b610615565b61065b600080fd5b6105f4565b610668600080fd5b6105bf565b5034610690575b61068b6106823660046105b2565b93929092610fe3565b604051005b610698600080fd5b610674565b60009103126106a857565b610157600080fd5b906106d06106c96106bf845190565b8084529260200190565b9260200190565b9060005b8181106106e15750505090565b9091926106fe6106f76001928651815260200190565b9460200190565b9291016106d4565b906101359161037d565b9061072661071c835190565b8083529160200190565b90816107386020830284019460200190565b926000915b83831061074c57505050505090565b9091929394602061076f61076883856001950387528951610706565b9760200190565b930193019193929061073d565b6040808252610135939192610793918401906106b0565b916020818403910152610710565b50346107d1575b6107b336600461069d565b6107bb611fe4565b906101cb6107c860405190565b9283928361077c565b6107d9600080fd5b6107a8565b909291926107ee6104ab82610476565b938185526020808601920283019281841161082c575b915b8383106108135750505050565b60208091610821848661014a565b815201920191610806565b610834600080fd5b610804565b906101359181601f82011215610855575b6020813591016107de565b61085d600080fd5b61084a565b9190610135906040848203126108c7575b61089081853567ffffffffffffffff81116108ba575b8601610839565b9360208101359067ffffffffffffffff82116108ad575b016104fb565b6108b5600080fd5b6108a7565b6108c2600080fd5b610889565b6108cf600080fd5b610873565b6020808252610135929101906106b0565b503461090f575b6101cb6109036108fd366004610862565b90610e6a565b604051918291826108d4565b610917600080fd5b6108ec565b90610135916020818303121561014a57610934600080fd5b61014a565b5034610953575b61068b61094e36600461091c565b611aee565b61095b600080fd5b610940565b801515610143565b9050359061015782610960565b919061013590604084820312610999575b610990818561014a565b93602001610968565b6109a1600080fd5b610986565b50346109c1575b61068b6109bb366004610975565b90610f0d565b6109c9600080fd5b6109ad565b90610135916020818303126109f6575b80359067ffffffffffffffff82116106395701610589565b6109fe600080fd5b6109de565b5034610a20575b6101cb6101bb610a1b3660046109ce565b611cfe565b610a28600080fd5b610a0a565b919061013590604084820312610a51575b610a48818561014a565b9360200161014a565b610a59600080fd5b610a3e565b5034610a7c575b6101cb610233610a76366004610a2d565b90610f18565b610a84600080fd5b610a65565b919060a083820312610acd575b610aa0818461014a565b92610aae826020830161014a565b92610135610abf846040850161015f565b9361061c816060860161015f565b610ad5600080fd5b610a96565b5034610af8575b61068b610aef366004610a89565b93929092610f9d565b610b00600080fd5b610ae1565b636cdb3d1360e11b6001600160e01b0319821614908115610b35575b8115610b2b575090565b6101359150611892565b6001600160e01b031981166303a24d0760e21b149150610b21565b50634e487b7160e01b600052602260045260246000fd5b9060016002830492168015610b8a575b6020831014610b8257565b610157610b50565b91607f1691610b77565b80546000939291610bb1610ba783610b67565b8085529360200190565b9160018116908115610c035750600114610bca57505050565b610bdd9192939450600052602060002090565b916000925b818410610bef5750500190565b805484840152602090930192600101610be2565b92949550505060ff1916825215156020020190565b9061013591610b94565b90610157610c3c92610c3360405190565b93848092610c18565b0383610433565b61013590610c22565b506101356002610c43565b6101296101356101359290565b61013590610c57565b15610c7457565b60405162461bcd60e51b815260206004820152602a60248201527f455243313135353a2061646472657373207a65726f206973206e6f742061207660448201526930b634b21037bbb732b960b11b6064820152608490fd5b0390fd5b6101356101356101359290565b90610ce790610cd0565b600052602052604060002090565b61013590610129906001600160a01b031682565b61013590610cf5565b61013590610d09565b90610ce790610d12565b6101359081565b6101359054610d25565b610d7690610d7161013593610d49600090565b506000610d6c610d5b61012983610c64565b6001600160a01b0386161415610c6d565b610cdd565b610d1b565b610d2c565b15610d8257565b60405162461bcd60e51b815260206004820152602960248201527f455243313135353a206163636f756e747320616e6420696473206c656e677468604482015268040dad2e6dac2e8c6d60bb1b6064820152608490fd5b90610de66104ab83610476565b918252565b369037565b90610157610e06610e0084610dd9565b93610476565b601f190160208401610deb565b50634e487b7160e01b600052601160045260246000fd5b6001906000198114610e3a570190565b6103a7610e13565b9060208091610e4f845190565b811015610e5d575b02010190565b610e65610270565b610e57565b90610e8e610e76835190565b610e88610e84610135855190565b9190565b14610d7b565b610e9e610e99835190565b610df0565b91610ea96000610cd0565b610eb4610135835190565b811015610f075780610efd610ef0610edf610ed2610f029587610e42565b516001600160a01b031690565b6101b5610eec8589610e42565b5190565b610efa8388610e42565b52565b610e2a565b610ea9565b50505090565b610157919033611432565b61013591610d71610f3392610f2b600090565b506001610d1b565b5460ff1690565b15610f4157565b60405162461bcd60e51b815260206004820152602e60248201527f455243313135353a2063616c6c6572206973206e6f7420746f6b656e206f776e60448201526d195c881bdc88185c1c1c9bdd995960921b6064820152608490fd5b6101579493929190610fcd335b6001600160a01b0381166001600160a01b03841614908115610fd2575b50610f3a565b611105565b610fdd915083610f18565b38610fc7565b6101579493929190610ff433610faa565b611281565b1561100057565b60405162461bcd60e51b815260206004820152602560248201527f455243313135353a207472616e7366657220746f20746865207a65726f206164604482015264647265737360d81b6064820152608490fd5b1561105a57565b60405162461bcd60e51b815260206004820152602a60248201527f455243313135353a20696e73756666696369656e742062616c616e636520666f60448201526939103a3930b739b332b960b11b6064820152608490fd5b90600019905b9181191691161790565b906110d26101356110d992610cd0565b82546110b2565b9055565b919082018092116110ea57565b610157610e13565b9081526040810192916101579160200152565b9061015794939291600061113061111e61012983610c64565b6001600160a01b0385165b1415610ff9565b6111a461118c84610d718733956111468261185c565b506111508b61185c565b50610d6c6111798c611169610d768c610d718888610cdd565b61117582821015611053565b0390565b6111878a610d718686610cdd565b6110c2565b61119e8761119983610d2c565b6110dd565b906110c2565b7fc3d58168c5ae7397731d063d5bbf3d657854427343f4c083240f7aacaa2d0f626111ce82610d12565b6111d784610d12565b906111e186610d12565b926111eb60405190565b806111f78b8b836110f2565b0390a46115bc565b1561120657565b60405162461bcd60e51b815260206004820152602860248201527f455243313135353a2069647320616e6420616d6f756e7473206c656e677468206044820152670dad2e6dac2e8c6d60c31b6064820152608490fd5b6040808252610135939192611273918401906106b0565b9160208184039101526106b0565b92919490946112a5611291825190565b61129f610e84610135875190565b146111ff565b6000916112c66112b761012985610c64565b6001600160a01b038916611129565b33956112d184610cd0565b6112dc610135855190565b81101561134e5780610efd8861119e61133f8d610d718c6113398d6111876113198f8c6113136113499f610eec90610eec94610e42565b96610e42565b98610d71856113338c611169610d7686610d71868b610cdd565b94610cdd565b8c610cdd565b9161119983610d2c565b6112d1565b50949096919250610157957f4a39dc06d4c0dbc64b70af90fd698a233a518aa5d07e595d983b8c0526c8f7fb61138382610d12565b61138c84610d12565b9061139686610d12565b926113a060405190565b806113ac8b8b8361125c565b0390a4611801565b156113bb57565b60405162461bcd60e51b815260206004820152602960248201527f455243313135353a2073657474696e6720617070726f76616c20737461747573604482015268103337b91039b2b63360b91b6064820152608490fd5b9060ff906110b8565b9061142b6101356110d992151590565b8254611412565b6114506001600160a01b0383166001600160a01b03831614156113b4565b6114688361146384610d71856001610d1b565b61141b565b6114a861149e6114987f17307eab39ab6107e8899845ad3d59bd9653f200f220920489ca2b5937696c3193610d12565b93610d12565b9361023760405190565b0390a3565b90505190610157826101dc565b9061013591602081830312156114ad576114d2600080fd5b6114ad565b919361151a6101359694611513611521949761150360a088019960008901906001600160a01b03169052565b6001600160a01b03166020870152565b6040850152565b6060830152565b608081840391015261037d565b60009060033d1161153b57565b905060046000803e60005160e01c90565b60009060443d106101575760405160043d036004823e8051903d602483011167ffffffffffffffff8311176115b85781810191825167ffffffffffffffff81116115b25780602085010160043d038401106115b257610135939495506020010190610433565b50505050565b5050565b909493949291926115cc84611880565b6115d9575b505050505050565b60006115ee6115e9602096610d12565b610d12565b9261161d63f23a6e619761160160405190565b998a97889687956116128d60e01b90565b8752600487016114d7565b03925af16000928161176c575b506116ed575050600161163b61152e565b6308c379a0146116b8575b611656575b3880808080806115d1565b60405162461bcd60e51b815260206004820152603460248201527f455243313135353a207472616e7366657220746f206e6f6e2d455243313135356044820152732932b1b2b4bb32b91034b6b83632b6b2b73a32b960611b6064820152608490fd5b6116c061154c565b806116cb5750611646565b610ccc906116d860405190565b62461bcd60e51b8152918291600483016103ab565b6117036117119160e01b63ffffffff60e01b1690565b916001600160e01b03191690565b1461164b5760405162461bcd60e51b815260206004820152602860248201527f455243313135353a204552433131353552656365697665722072656a656374656044820152676420746f6b656e7360c01b6064820152608490fd5b61178e91935060203d8111611795575b6117868183610433565b8101906114ba565b913861162a565b503d61177c565b93906117e59061013596946117d86117f3956117c860a08a019460008b01906001600160a01b03169052565b6001600160a01b03166020890152565b86820360408801526106b0565b9084820360608601526106b0565b91608081840391015261037d565b9094939492919261181184611880565b61181d57505050505050565b600061182d6115e9602096610d12565b9261161d63bc197c819761184060405190565b998a97889687956118518d60e01b90565b87526004870161179c565b61013561186c610e996001610cd0565b91610efa61187a6000610cd0565b84610e42565b3b61188e610e846000610cd0565b1190565b6118a26301ffc9a760e01b611703565b1490565b60208082526026908201527f4f6e6c7920746865206f776e65722063616e2063616c6c20746869732066756e60408201526531ba34b7b71760d11b606082015260800190565b156118f357565b60405162461bcd60e51b815280610ccc600482016118a6565b60009061191882610cd0565b6005611925610135825490565b8210156119ae5761194d611940610129610303853395610287565b916001600160a01b031690565b146119605761195b90610e2a565b611918565b50611975915061197060016118ec565b611a75565b7f8514e9874d1ee55d652d405875552b31f7275a881f0f832eab8d077876c093e261199f60405190565b806119a9816118a6565b0390a1565b5050611970611975926118ec565b156119c357565b60405162461bcd60e51b815260206004820152601d60248201527f4f70657261746f7220697320616c726561647920616e206f776e65722e0000006044820152606490fd5b916001600160a01b0360089290920291821b911b6110b8565b9190611a326101356110d993610d12565b908354611a08565b90611a626101579280549068010000000000000000821015611a68575b600182018155610287565b90611a21565b611a7061041c565b611a57565b600090611a8182610cd0565b6005611a8e610135825490565b821015611ade5761012961030383611aa593610287565b6001600160a01b03831614611ac257611abd90610e2a565b611a81565b506101579150611ad760006119bc565b6119bc565b6005611a3a565b5050611ad7611ad2610157931590565b6101579061190c565b90600091611b0483610cd0565b6005611b11610135825490565b821015611b7f57611b2c611940610129610303853395610287565b14611b3f57611b3a90610e2a565b611b04565b50611b549250611b4f60016118ec565b611c56565b907f8514e9874d1ee55d652d405875552b31f7275a881f0f832eab8d077876c093e261199f60405190565b5050611b4f611b54936118ec565b6103a7611ba592602092611b9f815190565b94859290565b93849101610350565b7468747470733a2f2f697066732e696f2f697066732f60581b8152610135919060150190611b8d565b90610de66104ab83610524565b6101356000611bd7565b610135611be4565b6001600160a01b039091168152610135929091611c2a916080840191611c1d906020860152565b838203604085015261037d565b906060818303910152601081526f1050d51253d397d0d3d391925493515160821b602082015260400190565b50611c97611c91600392611c6984611dcb565b610135611c7560405190565b8092611c85602083019182611bae565b90810382520382610433565b91611db6565b908133611cb7611ca76001610cd0565b611caf611bee565b908484611d5f565b611cc18383611f7a565b611cf87fe22cc2323a3a1e016e6de3d567fef2c2667443939a122469a166e3d293b16d0b93611cef60405190565b93849384611bf6565b0390a190565b610135906000611af7565b15611d1057565b60405162461bcd60e51b815260206004820152602160248201527f455243313135353a206d696e7420746f20746865207a65726f206164647265736044820152607360f81b6064820152608490fd5b906101579392916000611d7181610c64565b90611d906001600160a01b0383166001600160a01b0385161415611d09565b6111a461118c84610d71873395611da68261185c565b50611db08b61185c565b50610cdd565b600061013591611dc4600090565b5001610d2c565b6101579061119e6000611dde6001610cd0565b9201916103a783610d2c565b9160001960089290920291821b911b6110b8565b9190611e0f6101356110d993610cd0565b908354611dea565b61015791600091611dfe565b818110611e2e575050565b80611e3c6000600193611e17565b01611e23565b9190601f8111611e5157505050565b611e6361015793600052602060002090565b906020601f840181900483019310611e85575b6020601f909101040190611e23565b9091508190611e76565b90611e98815190565b9067ffffffffffffffff8211611f63575b611ebd82611eb78554610b67565b85611e42565b602090601f8311600114611ef8576110d9929160009183611eed575b5050600019600883021c1916906002021790565b015190503880611ed9565b601f19831691611f0d85600052602060002090565b9260005b818110611f4b57509160029391856001969410611f32575b50505002019055565b01516000196008601f8516021c19169055388080611f29565b91936020600181928787015181550195019201611f11565b611f6b61041c565b611ea9565b9061015791611e8f565b90611f89610157926004610cdd565b611f70565b611fa561013591611f9d606090565b506004610cdd565b610c43565b60005b828110611fb957505050565b606082820152602001611fad565b90610157611fd7610e0084610dd9565b601f190160208401611faa565b6003611ff2610e9982611db6565b612003611ffe83611db6565b611fc7565b9261200e6000610cd0565b61201a61013585611db6565b81101561207e5761013561207661201a9261204b61204161203b6001610cd0565b836110dd565b610efa8389610e42565b61205b6103d4610eec8389610e42565b612065828a610e42565b526120708189610e42565b50610e2a565b91505061200e565b509150919056fea26469706673582212205f9d2f79393728d23bf9210a8f9161c9bce1e6cecd4811fd27283a69f92d71dc64736f6c63430008110033",
  "linkReferences": {},
  "deployedLinkReferences": {}
}