{
  "_format": "hh-sol-artifact-1",
  "contractName": "TravelQuest",
  "sourceName": "contracts/NFT1155.sol",
  "abi": [
    {
      "inputs": [],
      "stateMutability": "nonpayable",
      "type": "constructor"
    },
    {
      "anonymous": false,
      "inputs": [
        {
          "indexed": true,
          "internalType": "address",
          "name": "account",
          "type": "address"
        },
        {
          "indexed": true,
          "internalType": "address",
          "name": "operator",
          "type": "address"
        },
        {
          "indexed": false,
          "internalType": "bool",
          "name": "approved",
          "type": "bool"
        }
      ],
      "name": "ApprovalForAll",
      "type": "event"
    },
    {
      "anonymous": false,
      "inputs": [
        {
          "indexed": true,
          "internalType": "address",
          "name": "previousOwner",
          "type": "address"
        },
        {
          "indexed": true,
          "internalType": "address",
          "name": "newOwner",
          "type": "address"
        }
      ],
      "name": "OwnershipTransferred",
      "type": "event"
    },
    {
      "anonymous": false,
      "inputs": [
        {
          "indexed": true,
          "internalType": "address",
          "name": "operator",
          "type": "address"
        },
        {
          "indexed": true,
          "internalType": "address",
          "name": "from",
          "type": "address"
        },
        {
          "indexed": true,
          "internalType": "address",
          "name": "to",
          "type": "address"
        },
        {
          "indexed": false,
          "internalType": "uint256[]",
          "name": "ids",
          "type": "uint256[]"
        },
        {
          "indexed": false,
          "internalType": "uint256[]",
          "name": "values",
          "type": "uint256[]"
        }
      ],
      "name": "TransferBatch",
      "type": "event"
    },
    {
      "anonymous": false,
      "inputs": [
        {
          "indexed": true,
          "internalType": "address",
          "name": "operator",
          "type": "address"
        },
        {
          "indexed": true,
          "internalType": "address",
          "name": "from",
          "type": "address"
        },
        {
          "indexed": true,
          "internalType": "address",
          "name": "to",
          "type": "address"
        },
        {
          "indexed": false,
          "internalType": "uint256",
          "name": "id",
          "type": "uint256"
        },
        {
          "indexed": false,
          "internalType": "uint256",
          "name": "value",
          "type": "uint256"
        }
      ],
      "name": "TransferSingle",
      "type": "event"
    },
    {
      "anonymous": false,
      "inputs": [
        {
          "indexed": false,
          "internalType": "string",
          "name": "value",
          "type": "string"
        },
        {
          "indexed": true,
          "internalType": "uint256",
          "name": "id",
          "type": "uint256"
        }
      ],
      "name": "URI",
      "type": "event"
    },
    {
      "inputs": [
        {
          "internalType": "address",
          "name": "account",
          "type": "address"
        },
        {
          "internalType": "uint256",
          "name": "id",
          "type": "uint256"
        }
      ],
      "name": "balanceOf",
      "outputs": [
        {
          "internalType": "uint256",
          "name": "",
          "type": "uint256"
        }
      ],
      "stateMutability": "view",
      "type": "function"
    },
    {
      "inputs": [
        {
          "internalType": "address[]",
          "name": "accounts",
          "type": "address[]"
        },
        {
          "internalType": "uint256[]",
          "name": "ids",
          "type": "uint256[]"
        }
      ],
      "name": "balanceOfBatch",
      "outputs": [
        {
          "internalType": "uint256[]",
          "name": "",
          "type": "uint256[]"
        }
      ],
      "stateMutability": "view",
      "type": "function"
    },
    {
      "inputs": [
        {
          "internalType": "address",
          "name": "account",
          "type": "address"
        },
        {
          "internalType": "address",
          "name": "operator",
          "type": "address"
        }
      ],
      "name": "isApprovedForAll",
      "outputs": [
        {
          "internalType": "bool",
          "name": "",
          "type": "bool"
        }
      ],
      "stateMutability": "view",
      "type": "function"
    },
    {
      "inputs": [
        {
          "internalType": "uint256",
          "name": "",
          "type": "uint256"
        },
        {
          "internalType": "address",
          "name": "",
          "type": "address"
        }
      ],
      "name": "member",
      "outputs": [
        {
          "internalType": "bool",
          "name": "",
          "type": "bool"
        }
      ],
      "stateMutability": "view",
      "type": "function"
    },
    {
      "inputs": [
        {
          "internalType": "uint256",
          "name": "_tokenId",
          "type": "uint256"
        }
      ],
      "name": "mint",
      "outputs": [],
      "stateMutability": "nonpayable",
      "type": "function"
    },
    {
      "inputs": [
        {
          "internalType": "uint256",
          "name": "",
          "type": "uint256"
        }
      ],
      "name": "minted",
      "outputs": [
        {
          "internalType": "uint256",
          "name": "",
          "type": "uint256"
        }
      ],
      "stateMutability": "view",
      "type": "function"
    },
    {
      "inputs": [],
      "name": "owner",
      "outputs": [
        {
          "internalType": "address",
          "name": "",
          "type": "address"
        }
      ],
      "stateMutability": "view",
      "type": "function"
    },
    {
      "inputs": [],
      "name": "renounceOwnership",
      "outputs": [],
      "stateMutability": "nonpayable",
      "type": "function"
    },
    {
      "inputs": [
        {
          "internalType": "address",
          "name": "from",
          "type": "address"
        },
        {
          "internalType": "address",
          "name": "to",
          "type": "address"
        },
        {
          "internalType": "uint256[]",
          "name": "ids",
          "type": "uint256[]"
        },
        {
          "internalType": "uint256[]",
          "name": "amounts",
          "type": "uint256[]"
        },
        {
          "internalType": "bytes",
          "name": "data",
          "type": "bytes"
        }
      ],
      "name": "safeBatchTransferFrom",
      "outputs": [],
      "stateMutability": "nonpayable",
      "type": "function"
    },
    {
      "inputs": [
        {
          "internalType": "address",
          "name": "from",
          "type": "address"
        },
        {
          "internalType": "address",
          "name": "to",
          "type": "address"
        },
        {
          "internalType": "uint256",
          "name": "id",
          "type": "uint256"
        },
        {
          "internalType": "uint256",
          "name": "amount",
          "type": "uint256"
        },
        {
          "internalType": "bytes",
          "name": "data",
          "type": "bytes"
        }
      ],
      "name": "safeTransferFrom",
      "outputs": [],
      "stateMutability": "nonpayable",
      "type": "function"
    },
    {
      "inputs": [
        {
          "internalType": "address",
          "name": "operator",
          "type": "address"
        },
        {
          "internalType": "bool",
          "name": "approved",
          "type": "bool"
        }
      ],
      "name": "setApprovalForAll",
      "outputs": [],
      "stateMutability": "nonpayable",
      "type": "function"
    },
    {
      "inputs": [
        {
          "internalType": "uint256",
          "name": "",
          "type": "uint256"
        }
      ],
      "name": "supplies",
      "outputs": [
        {
          "internalType": "uint256",
          "name": "",
          "type": "uint256"
        }
      ],
      "stateMutability": "view",
      "type": "function"
    },
    {
      "inputs": [
        {
          "internalType": "bytes4",
          "name": "interfaceId",
          "type": "bytes4"
        }
      ],
      "name": "supportsInterface",
      "outputs": [
        {
          "internalType": "bool",
          "name": "",
          "type": "bool"
        }
      ],
      "stateMutability": "view",
      "type": "function"
    },
    {
      "inputs": [
        {
          "internalType": "uint256",
          "name": "_tokenId",
          "type": "uint256"
        }
      ],
      "name": "totalNftMinted",
      "outputs": [
        {
          "internalType": "uint256",
          "name": "",
          "type": "uint256"
        }
      ],
      "stateMutability": "view",
      "type": "function"
    },
    {
      "inputs": [
        {
          "internalType": "address",
          "name": "newOwner",
          "type": "address"
        }
      ],
      "name": "transferOwnership",
      "outputs": [],
      "stateMutability": "nonpayable",
      "type": "function"
    },
    {
      "inputs": [
        {
          "internalType": "uint256",
          "name": "_tokenId",
          "type": "uint256"
        }
      ],
      "name": "uri",
      "outputs": [
        {
          "internalType": "string",
          "name": "",
          "type": "string"
        }
      ],
      "stateMutability": "view",
      "type": "function"
    }
  ],
  "bytecode": "0x60806040523462000027575b62000015620002de565b60405161202962000685823961202990f35b62000030600080fd5b6200000b565b50634e487b7160e01b600052604160045260246000fd5b90601f01601f191681019081106001600160401b038211176200006f57604052565b6200007962000036565b604052565b90620000956200008d60405190565b92836200004d565b565b602090620000b8906001600160401b038111620000bc57601f01601f191690565b0190565b620000c662000036565b601f01601f191690565b90620000e6620000e08362000097565b6200007e565b918252565b620000f7603f620000d0565b7f697066733a2f2f516d534346653576766f5073537079485a704741573738474a60208201527f3462417544637953435639556e4d6d3742363969532f7b69647d2e6a736f6e00604082015290565b62000150620000eb565b90565b6020906001600160401b03811162000169570290565b6200017362000036565b0290565b620000e0620001509162000153565b6200019662000150620001509290565b60ff1690565b9160001960089290920291821b911b5b9181191691161790565b6200015062000150620001509290565b9190620001db62000150620001e493620001b6565b9083546200019c565b9055565b6200009591600091620001c6565b81811062000202575050565b80620002126000600193620001e8565b01620001f6565b90918281106200022857505050565b62000095929062000240905b92600052602060002090565b9081019101620001f6565b9062000095916801000000000000000082116200026f575b80549082815562000219565b6200027962000036565b62000263565b6007916001906200029b9062000234906200015086866200024b565b92049160005b838110620002af5750505050565b6001906020620002c462000150865160ff1690565b9401938184015501620002a1565b9062000095916200027f565b620002f2620002ec62000146565b620003c1565b6200035d62000302600762000177565b6200033b62000312603262000186565b60ff168083526020830181905260408301819052606083018190526080830181905260a0830152565b620003556200034b609662000186565b60ff1660c0830152565b6004620002d2565b620000956200036d600762000177565b620003b960006200038e620003828262000186565b809285019060ff169052565b60ff81166020840181905260408401819052606084018190526080840181905260a08401526200034b565b6005620002d2565b620003cc90620003d7565b620000953362000458565b620000959062000677565b62000150905b6001600160a01b031690565b620001509054620003e2565b906001600160a01b0390620001ac565b6200015090620003e8906001600160a01b031682565b620001509062000410565b620001509062000426565b906200045062000150620001e49262000431565b825462000400565b620004646003620003f4565b90620004728160036200043c565b620004a9620004a27f8be0079c531659141344cd1fd0a4f28419497f9722a3daafe3b4186f6b6457e09362000431565b9162000431565b91620004b460405190565b600090a3565b50634e487b7160e01b600052602260045260246000fd5b9060016002830492168015620004f8575b6020831014620004ee57565b62000095620004ba565b91607f1691620004e2565b8181106200050f575050565b806200051f6000600193620001e8565b0162000503565b9190601f81116200053657505050565b6200054a6200009593600052602060002090565b906020601f8401819004830193106200056e575b6020601f90910104019062000503565b90915081906200055e565b9062000583815190565b906001600160401b0382116200065b575b620005ac82620005a58554620004d1565b8562000526565b602090601f8311600114620005eb57620001e4929160009183620005df575b5050600019600883021c1916906002021790565b015190503880620005cb565b601f198316916200060185600052602060002090565b9260005b818110620006425750916002939185600196941062000628575b50505002019055565b01516000196008601f8516021c191690553880806200061f565b9193602060018192878701518155019501920162000605565b6200066562000036565b62000594565b90620000959162000579565b620000959060026200066b56fe60806040526004361015610018575b610016600080fd5b005b60003560e01c8062fdd58e1461015757806301ffc9a71461014e5780630e89341c1461014557806326f1a1fd1461013c5780632eb2c2d61461013357806337c36dd41461012a5780634e1273f4146101215780635b4774a014610118578063715018a61461010f5780637dc0bf3f146101065780638da5cb5b146100fd578063a0712d68146100f4578063a22cb465146100eb578063e985e9c5146100e2578063f242432a146100d95763f2fde38b0361000e576100d4610b69565b61000e565b506100d4610b21565b506100d4610aa5565b506100d4610a55565b506100d46109e8565b506100d46109a4565b506100d461097a565b506100d4610947565b506100d461090a565b506100d46108d3565b506100d461074b565b506100d461065c565b506100d46103e1565b506100d4610318565b506100d4610252565b506100d46101d9565b600080fd5b6001600160a01b031690565b90565b6001600160a01b0381165b0361016057565b9050359061019382610174565b565b8061017f565b9050359061019382610195565b9190610171906040848203126101cc575b6101c38185610186565b9360200161019b565b6101d4600080fd5b6101b9565b503461020b575b6102076101f76101f13660046101a8565b90610e4b565b6040519182918290815260200190565b0390f35b610213600080fd5b6101e0565b6001600160e01b0319811661017f565b9050359061019382610218565b9061017191602081830312156102285761024d600080fd5b610228565b5034610282575b61020761026f61026a366004610235565b610d90565b6040515b91829182901515815260200190565b61028a600080fd5b610259565b90610171916020818303121561019b576102a7600080fd5b61019b565b60005b8381106102bf5750506000910152565b81810151838201526020016102af565b601f01601f191690565b6102fa6102cf602093610303936102ee815190565b80835293849260200190565b958691016102ac565b0190565b6020808252610171929101906102d9565b5034610341575b61020761033561033036600461028f565b611a8b565b60405191829182610307565b610349600080fd5b61031f565b50634e487b7160e01b600052603260045260246000fd5b610385600191610373815490565b84101561038e57600052602060002090565b91020190600090565b61039661034e565b600052602060002090565b610171916008021c81565b9061017191546103a1565b600460006103c3825490565b8310156103de5750610171916103d891610365565b906103ac565b80fd5b50346103fe575b6102076101f76103f936600461028f565b6103b7565b610406600080fd5b6103e8565b50634e487b7160e01b600052604160045260246000fd5b90601f01601f1916810190811067ffffffffffffffff82111761044457604052565b61044c61040b565b604052565b9061019361045e60405190565b9283610422565b6020809167ffffffffffffffff811161047d57020190565b61048561040b565b020190565b9092919261049f61049a82610465565b610451565b93818552602080860192028301928184116104dd575b915b8383106104c45750505050565b602080916104d2848661019b565b8152019201916104b7565b6104e5600080fd5b6104b5565b906101719181601f82011215610506575b60208135910161048a565b61050e600080fd5b6104fb565b61030360209167ffffffffffffffff811161053257601f01601f191690565b6102cf61040b565b90826000939282370152565b9291906101939161055961049a83610513565b948286526020860191838201111561053a57610573600080fd5b61053a565b906101719181601f82011215610594575b602081359101610546565b61059c600080fd5b610589565b919060a08382031261064f575b6105b88184610186565b926105c68260208301610186565b926101716105ea84604085013567ffffffffffffffff8111610642575b85016104ea565b9361060b81606086013567ffffffffffffffff8111610635575b86016104ea565b9360808101359067ffffffffffffffff8211610628575b01610578565b610630600080fd5b610622565b61063d600080fd5b610604565b61064a600080fd5b6105e3565b610657600080fd5b6105ae565b503461067f575b61067a6106713660046105a1565b93929092611104565b604051005b610687600080fd5b610663565b9190610171906040848203126106b0575b6106a7818561019b565b93602001610186565b6106b8600080fd5b61069d565b6101716101716101719290565b906106d4906106bd565b600052602052604060002090565b61017190610165906001600160a01b031682565b610171906106e2565b610171906106f6565b906106d4906106ff565b610171916008021c5b60ff1690565b906101719154610712565b610746610171926107416006936000946106ca565b610708565b610721565b5034610769575b61020761026f61076336600461068c565b9061072c565b610771600080fd5b610752565b9092919261078661049a82610465565b93818552602080860192028301928184116107c4575b915b8383106107ab5750505050565b602080916107b98486610186565b81520192019161079e565b6107cc600080fd5b61079c565b906101719181601f820112156107ed575b602081359101610776565b6107f5600080fd5b6107e2565b91906101719060408482031261085f575b61082881853567ffffffffffffffff8111610852575b86016107d1565b9360208101359067ffffffffffffffff8211610845575b016104ea565b61084d600080fd5b61083f565b61085a600080fd5b610821565b610867600080fd5b61080b565b9061088c61088561087b845190565b8084529260200190565b9260200190565b9060005b81811061089d5750505090565b9091926108ba6108b36001928651815260200190565b9460200190565b929101610890565b60208082526101719291019061086c565b50346108fd575b6102076108f16108eb3660046107fa565b90610f7a565b604051918291826108c2565b610905600080fd5b6108da565b5034610927575b6102076101f761092236600461028f565b611fdc565b61092f600080fd5b610911565b600091031261093f57565b610193600080fd5b5034610961575b610959366004610934565b61067a610be5565b610969600080fd5b61094e565b600560006103c3825490565b5034610997575b6102076101f761099236600461028f565b61096e565b61099f600080fd5b610981565b50346109db575b6109b6366004610934565b6102076109c1610ba3565b604051918291826001600160a01b03909116815260200190565b6109e3600080fd5b6109ab565b5034610a02575b61067a6109fd36600461028f565b611e54565b610a0a600080fd5b6109ef565b80151561017f565b9050359061019382610a0f565b919061017190604084820312610a48575b610a3f8185610186565b93602001610a17565b610a50600080fd5b610a35565b5034610a70575b61067a610a6a366004610a24565b9061101d565b610a78600080fd5b610a5c565b919061017190604084820312610a98575b6106a78185610186565b610aa0600080fd5b610a8e565b5034610ac3575b61020761026f610abd366004610a7d565b9061103b565b610acb600080fd5b610aac565b919060a083820312610b14575b610ae78184610186565b92610af58260208301610186565b92610171610b06846040850161019b565b9361060b816060860161019b565b610b1c600080fd5b610add565b5034610b3f575b61067a610b36366004610ad0565b939290926110be565b610b47600080fd5b610b28565b90610171916020818303121561018657610b64600080fd5b610186565b5034610b83575b61067a610b7e366004610b4c565b610cfc565b610b8b600080fd5b610b70565b61017190610165565b6101719054610b90565b6101716003610b99565b610bb5610c41565b610193610bd3565b6101656101716101719290565b61017190610bbd565b610193610be06000610bca565b610d35565b610193610bad565b15610bf457565b60405162461bcd60e51b815280610c3d600482016020808252818101527f4f776e61626c653a2063616c6c6572206973206e6f7420746865206f776e6572604082015260600190565b0390fd5b610193610c4c610ba3565b610c65610c5833610165565b916001600160a01b031690565b14610bed565b61019390610c77610c41565b610cd7565b15610c8357565b60405162461bcd60e51b815260206004820152602660248201527f4f776e61626c653a206e6577206f776e657220697320746865207a65726f206160448201526564647265737360d01b6064820152608490fd5b61019390610be0610ceb6101656000610bca565b6001600160a01b0383161415610c7c565b61019390610c6b565b906001600160a01b03905b9181191691161790565b90610d2a610171610d31926106ff565b8254610d05565b9055565b610d3f6003610b99565b90610d4b816003610d1a565b610d7e610d787f8be0079c531659141344cd1fd0a4f28419497f9722a3daafe3b4186f6b6457e0936106ff565b916106ff565b91610d8860405190565b80805b0390a3565b636cdb3d1360e11b6001600160e01b0319821614908115610dc0575b8115610db6575090565b61017191506119a4565b6001600160e01b031981166303a24d0760e21b149150610dac565b15610de257565b60405162461bcd60e51b815260206004820152602a60248201527f455243313135353a2061646472657373207a65726f206973206e6f742061207660448201526930b634b21037bbb732b960b11b6064820152608490fd5b6101719081565b6101719054610e3a565b610e869061074161017193610e5e600090565b506000610e81610e7061016583610bca565b6001600160a01b0386161415610ddb565b6106ca565b610e41565b15610e9257565b60405162461bcd60e51b815260206004820152602960248201527f455243313135353a206163636f756e747320616e6420696473206c656e677468604482015268040dad2e6dac2e8c6d60bb1b6064820152608490fd5b90610ef661049a83610465565b918252565b369037565b90610193610f16610f1084610ee9565b93610465565b601f190160208401610efb565b50634e487b7160e01b600052601160045260246000fd5b6001906000198114610f4a570190565b610303610f23565b9060208091610f5f845190565b811015610f6d575b02010190565b610f7561034e565b610f67565b90610f9e610f86835190565b610f98610f94610171855190565b9190565b14610e8b565b610fae610fa9835190565b610f00565b91610fb960006106bd565b610fc4610171835190565b811015611017578061100d611000610fef610fe26110129587610f52565b516001600160a01b031690565b6101f1610ffc8589610f52565b5190565b61100a8388610f52565b52565b610f3a565b610fb9565b50505090565b610193919033611549565b6101719061071b565b6101719054611028565b610171916107416110569261104e600090565b506001610708565b611031565b1561106257565b60405162461bcd60e51b815260206004820152602e60248201527f455243313135353a2063616c6c6572206973206e6f7420746f6b656e206f776e60448201526d195c881bdc88185c1c1c9bdd995960921b6064820152608490fd5b61019394939291906110ee335b6001600160a01b0381166001600160a01b038416149081156110f3575b5061105b565b61121c565b6110fe91508361103b565b386110e8565b6101939493929190611115336110cb565b611398565b1561112157565b60405162461bcd60e51b815260206004820152602560248201527f455243313135353a207472616e7366657220746f20746865207a65726f206164604482015264647265737360d81b6064820152608490fd5b1561117b57565b60405162461bcd60e51b815260206004820152602a60248201527f455243313135353a20696e73756666696369656e742062616c616e636520666f60448201526939103a3930b739b332b960b11b6064820152608490fd5b9060001990610d10565b906111ed610171610d31926106bd565b82546111d3565b9190820180921161120157565b610193610f23565b9081526040810192916101939160200152565b9061019394939291600061124761123561016583610bca565b6001600160a01b0385165b141561111a565b6112bb6112a38461074187339561125d8261196e565b506112678b61196e565b50610e816112908c611280610e868c61074188886106ca565b61128c82821015611174565b0390565b61129e8a61074186866106ca565b6111dd565b6112b5876112b083610e41565b6111f4565b906111dd565b7fc3d58168c5ae7397731d063d5bbf3d657854427343f4c083240f7aacaa2d0f626112e5826106ff565b6112ee846106ff565b906112f8866106ff565b9261130260405190565b8061130e8b8b83611209565b0390a46116ce565b1561131d57565b60405162461bcd60e51b815260206004820152602860248201527f455243313135353a2069647320616e6420616d6f756e7473206c656e677468206044820152670dad2e6dac2e8c6d60c31b6064820152608490fd5b604080825261017193919261138a9184019061086c565b91602081840391015261086c565b92919490946113bc6113a8825190565b6113b6610f94610171875190565b14611316565b6000916113dd6113ce61016585610bca565b6001600160a01b038916611240565b33956113e8846106bd565b6113f3610171855190565b811015611465578061100d886112b56114568d6107418c6114508d61129e6114308f8c61142a6114609f610ffc90610ffc94610f52565b96610f52565b986107418561144a8c611280610e8686610741868b6106ca565b946106ca565b8c6106ca565b916112b083610e41565b6113e8565b50949096919250610193957f4a39dc06d4c0dbc64b70af90fd698a233a518aa5d07e595d983b8c0526c8f7fb61149a826106ff565b6114a3846106ff565b906114ad866106ff565b926114b760405190565b806114c38b8b83611373565b0390a4611913565b156114d257565b60405162461bcd60e51b815260206004820152602960248201527f455243313135353a2073657474696e6720617070726f76616c20737461747573604482015268103337b91039b2b63360b91b6064820152608490fd5b9060ff90610d10565b90611542610171610d3192151590565b8254611529565b6115676001600160a01b0383166001600160a01b03831614156114cb565b61157f8361157a84610741856001610708565b611532565b610d8b6115b56115af7f17307eab39ab6107e8899845ad3d59bd9653f200f220920489ca2b5937696c31936106ff565b936106ff565b9361027360405190565b9050519061019382610218565b9061017191602081830312156115bf576115e4600080fd5b6115bf565b919361162c6101719694611625611633949761161560a088019960008901906001600160a01b03169052565b6001600160a01b03166020870152565b6040850152565b6060830152565b60808184039101526102d9565b60009060033d1161164d57565b905060046000803e60005160e01c90565b60009060443d106101935760405160043d036004823e8051903d602483011167ffffffffffffffff8311176116ca5781810191825167ffffffffffffffff81116116c45780602085010160043d038401106116c457610171939495506020010190610422565b50505050565b5050565b909493949291926116de84611992565b6116eb575b505050505050565b60006117006116fb6020966106ff565b6106ff565b9261172f63f23a6e619761171360405190565b998a97889687956117248d60e01b90565b8752600487016115e9565b03925af16000928161187e575b506117ff575050600161174d611640565b6308c379a0146117ca575b611768575b3880808080806116e3565b60405162461bcd60e51b815260206004820152603460248201527f455243313135353a207472616e7366657220746f206e6f6e2d455243313135356044820152732932b1b2b4bb32b91034b6b83632b6b2b73a32b960611b6064820152608490fd5b6117d261165e565b806117dd5750611758565b610c3d906117ea60405190565b62461bcd60e51b815291829160048301610307565b6118156118239160e01b63ffffffff60e01b1690565b916001600160e01b03191690565b1461175d5760405162461bcd60e51b815260206004820152602860248201527f455243313135353a204552433131353552656365697665722072656a656374656044820152676420746f6b656e7360c01b6064820152608490fd5b6118a091935060203d81116118a7575b6118988183610422565b8101906115cc565b913861173c565b503d61188e565b93906118f79061017196946118ea611905956118da60a08a019460008b01906001600160a01b03169052565b6001600160a01b03166020890152565b868203604088015261086c565b90848203606086015261086c565b9160808184039101526102d9565b9094939492919261192384611992565b61192f57505050505050565b600061193f6116fb6020966106ff565b9261172f63bc197c819761195260405190565b998a97889687956119638d60e01b90565b8752600487016118ae565b61017161197e610fa960016106bd565b9161100a61198c60006106bd565b84610f52565b3b6119a0610f9460006106bd565b1190565b6119b46301ffc9a760e01b611815565b1490565b9190820391821161120157565b156119cc57565b60405162461bcd60e51b815260206004820152601260248201527113919508191bd95cc81b9bdd08195e1a5cdd60721b6044820152606490fd5b610303611a1e92602092611a18815190565b94859290565b938491016102ac565b7f697066733a2f2f516d534346653576766f5073537079485a704741573738474a8152753462417544637953435639556e4d6d3742363969532f60501b602082015261017191611a7a9160360190611a06565b64173539b7b760d91b815260050190565b611acb61017191611a9a606090565b50611ac6611abd610171611aad60045490565b611ab760016106bd565b906119b8565b825b11156119c5565b611b43565b610171611ad760405190565b8092611ae7602083019182611a27565b90810382520382610422565b90610ef661049a83610513565b90610193610f16611b1084611af3565b93610513565b50634e487b7160e01b600052601260045260246000fd5b8115611b37570490565b611b3f611b16565b0490565b611b4c81611bce565b90611b5c600192610303846106bd565b9180611b6784611b00565b936020018401905b611b795750505090565b611bad9060001901926f181899199a1a9b1b9c1cb0b131b232b360811b600a82061a8453611ba7600a6106bd565b90611b2d565b9081611bbc610f9460006106bd565b14611bc957909181611b6f565b611017565b611bd860006106bd565b907a184f03e93ff9f4daa797ed6e38ed64bf6a1f010000000000000000611bfe816106bd565b821015611d50575b506d04ee2d6d415b85acef8100000000611c1f816106bd565b821015611d2e575b50662386f26fc10000611c39816106bd565b821015611d0c575b506305f5e100611c50816106bd565b821015611cea575b50612710611c65816106bd565b821015611cc8575b506064611c79816106bd565b821015611ca6575b50611c8f610f94600a6106bd565b1015611c985790565b6101719061030360016106bd565b611cc191611ba7611cb6926106bd565b9161030360026106bd565b9038611c81565b611ce391611ba7611cd8926106bd565b9161030360046106bd565b9038611c6d565b611d0591611ba7611cfa926106bd565b9161030360086106bd565b9038611c58565b611d2791611ba7611d1c926106bd565b9161030360106106bd565b9038611c41565b611d4991611ba7611d3e926106bd565b9161030360206106bd565b9038611c27565b611d6b91611ba7611d60926106bd565b9161030360406106bd565b9038611c06565b15611d7957565b60405162461bcd60e51b815260206004820152602260248201527f596f75206861766520616c726561647920636c61696d65642074686973204e466044820152612a1760f11b6064820152608490fd5b15611dd057565b60405162461bcd60e51b815260206004820152601c60248201527f416c6c20746865204e46542068617665206265656e206d696e746564000000006044820152606490fd5b6101716000611af3565b610171611e15565b9160001960089290920291821b911b610d10565b9190611e4c610171610d31936106bd565b908354611e27565b61017161157a61019392610741600691611e6e81846106ca565b92611e8c611e87611e83611056338098610708565b1590565b611d72565b610e816004611ef3611e9c825490565b91611eb7611eb160019b8c95611ab7876106bd565b87611abf565b611eec610f946101716103d889611ee6600598611ee0611eda6103d8858d610365565b916106bd565b906111f4565b95610365565b1115611dc9565b611f29611f1c85611f038b6106bd565b93611f17611f0f611e1f565b86848d611f85565b610365565b9190926112b083856103ac565b91611e3b565b15611f3657565b60405162461bcd60e51b815260206004820152602160248201527f455243313135353a206d696e7420746f20746865207a65726f206164647265736044820152607360f81b6064820152608490fd5b906101939392916000611f9781610bca565b90611fb66001600160a01b0383166001600160a01b0385161415611f2f565b6112bb6112a384610741873395611fcc8261196e565b50611fd68b61196e565b506106ca565b6103d861017191611feb600090565b50600561036556fea2646970667358221220369bda669437b7bd3abbbd11b70f61a37fb4469f14154459986491bba0fe69a264736f6c63430008110033",
  "linkReferences": {},
  "deployedLinkReferences": {}
}