{
  "_format": "hh-sol-artifact-1",
  "contractName": "Greeter",
  "sourceName": "contracts/Greeter.sol",
  "abi": [
    {
      "inputs": [
        {
          "internalType": "string",
          "name": "_greeting",
          "type": "string"
        }
      ],
      "stateMutability": "nonpayable",
      "type": "constructor"
    },
    {
      "inputs": [],
      "name": "greet",
      "outputs": [
        {
          "internalType": "string",
          "name": "",
          "type": "string"
        }
      ],
      "stateMutability": "view",
      "type": "function"
    },
    {
      "inputs": [
        {
          "internalType": "string",
          "name": "_greeting",
          "type": "string"
        }
      ],
      "name": "setGreeting",
      "outputs": [],
      "stateMutability": "nonpayable",
      "type": "function"
    }
  ],
  "bytecode": "0x60806040523462000031575b6200001f62000019620001b9565b6200044b565b6040516106576200052a823961065790f35b6200003a600080fd5b6200000b565b601f01601f191690565b50634e487b7160e01b600052604160045260246000fd5b90601f01601f191681019081106001600160401b038211176200008357604052565b6200008d6200004a565b604052565b90620000a9620000a160405190565b928362000061565b565b602090620000cc906001600160401b038111620000d057601f01601f191690565b0190565b620000406200004a565b60005b838110620000ee5750506000910152565b8181015183820152602001620000dd565b929190620000a9916200011c6200011683620000ab565b62000092565b9482865260208601918382011115620000da5762000138600080fd5b620000da565b906200015d9181601f8201121562000160575b602081519101620000ff565b90565b62000169600080fd5b62000151565b906200015d91602081830312620001aa575b8051906001600160401b0382116200019b575b016200013e565b620001a4600080fd5b62000194565b620001b3600080fd5b62000181565b6200015d62000b8180380380620001d08162000092565b9283398101906200016f565b90620001ec6200011683620000ab565b918252565b620001fd6022620001dc565b7f4465706c6f79696e67206120477265657465722077697468206772656574696e602082015261339d60f11b604082015290565b6200015d620001f1565b50634e487b7160e01b600052602260045260246000fd5b906001600283049216801562000279575b60208310146200026f57565b620000a96200023b565b91607f169162000263565b6200015d6200015d6200015d9290565b9190620002a96200015d620002c59362000284565b9083549160001960089290920291821b911b9181191691161790565b9055565b620000a99160009162000294565b818110620002e3575050565b80620002f36000600193620002c9565b01620002d7565b9190601f81116200030a57505050565b6200031e620000a993600052602060002090565b906020601f84018190048301931062000342575b6020601f909101040190620002d7565b909150819062000332565b9062000357815190565b906001600160401b0382116200042f575b620003808262000379855462000252565b85620002fa565b602090601f8311600114620003bf57620002c5929160009183620003b3575b5050600019600883021c1916906002021790565b0151905038806200039f565b601f19831691620003d585600052602060002090565b9260005b8181106200041657509160029391856001969410620003fc575b50505002019055565b01516000196008601f8516021c19169055388080620003f3565b91936020600181928787015181550195019201620003d9565b620004396200004a565b62000368565b90620000a9916200034d565b620000a99062000465816200045f62000231565b620004c5565b60006200043f565b6200049262000040602093620000cc9362000486815190565b80835293849260200190565b95869101620000da565b60408082526200015d939192620004b6918401906200046d565b9160208184039101526200046d565b9062000507620000a992620004f7620004dd60405190565b634b5c427760e01b6020820152938492602484016200049c565b6020820181038252038262000061565b6000809162000514815190565b906020016a636f6e736f6c652e6c6f675afa5056fe60806040526004361015610018575b610016600080fd5b005b60003560e01c8063a4136862146100405763cfae32170361000e5761003b61022d565b61000e565b5061003b61018c565b601f01601f191690565b50634e487b7160e01b600052604160045260246000fd5b90601f01601f1916810190811067ffffffffffffffff82111761008c57604052565b610094610053565b604052565b906100ad6100a660405190565b928361006a565b565b6100ce60209167ffffffffffffffff81116100d257601f01601f191690565b0190565b610049610053565b90826000939282370152565b9291906100ad916100fe6100f9836100af565b610099565b94828652602086019183820111156100da57610118600080fd5b6100da565b906101399181601f8201121561013c575b6020813591016100e6565b90565b610144600080fd5b61012e565b906101399160208183031261017f575b80359067ffffffffffffffff8211610172575b0161011d565b61017a600080fd5b61016c565b610187600080fd5b610159565b50346101af575b6101a66101a1366004610149565b610563565b604051005b0390f35b6101b7600080fd5b610193565b60009103126101c757565b6100ad600080fd5b60005b8381106101e25750506000910152565b81810151838201526020016101d2565b6102136100496020936100ce93610207815190565b80835293849260200190565b958691016101cf565b6020808252610139929101906101f2565b5034610256575b61023f3660046101bc565b6101ab61024a61035f565b6040519182918261021c565b61025e600080fd5b610234565b50634e487b7160e01b600052602260045260246000fd5b906001600283049216801561029d575b602083101461029557565b6100ad610263565b91607f169161028a565b805460009392916102c46102ba8361027a565b8085529360200190565b916001811690811561031657506001146102dd57505050565b6102f09192939450600052602060002090565b916000925b8184106103025750500190565b8054848401526020909301926001016102f5565b92949550505060ff1916825215156020020190565b90610139916102a7565b906100ad61034f9261034660405190565b9384809261032b565b038361006a565b61013990610335565b6101396000610356565b906103766100f9836100af565b918252565b6103856023610369565b7f4368616e67696e67206772656574696e672066726f6d202725732720746f202760208201526225732760e81b604082015290565b61013961037b565b6101396101396101399290565b91906103e06101396103fc936103c2565b9083549160001960089290920291821b911b9181191691161790565b9055565b6100ad916000916103cf565b818110610417575050565b806104256000600193610400565b0161040c565b9190601f811161043a57505050565b61044c6100ad93600052602060002090565b906020601f84018190048301931061046e575b6020601f90910104019061040c565b909150819061045f565b90610481815190565b9067ffffffffffffffff821161054c575b6104a6826104a0855461027a565b8561042b565b602090601f83116001146104e1576103fc9291600091836104d6575b5050600019600883021c1916906002021790565b0151905038806104c2565b601f198316916104f685600052602060002090565b9260005b8181106105345750916002939185600196941061051b575b50505002019055565b01516000196008601f8516021c19169055388080610512565b919360206001819287870151815501950192016104fa565b610554610053565b610492565b906100ad91610478565b6100ad906000610584826105756103ba565b61057e84610356565b906105c4565b610559565b916105b6906105a86101399593606086019086820360008801526101f2565b9084820360208601526101f2565b9160408184039101526101f2565b610600906105f16100ad946105d860405190565b632ced7cef60e01b602082015294859360248501610589565b6020820181038252038261006a565b6000809161060c815190565b906020016a636f6e736f6c652e6c6f675afa5056fea2646970667358221220fcfb811858a26933dbc6ab914ca62f83785d4cb9cc7ba0386f3202019b31318464736f6c63430008110033",
  "linkReferences": {},
  "deployedLinkReferences": {}
}