{
  "_format": "hh-sol-artifact-1",
  "contractName": "ERC721",
  "sourceName": "@openzeppelin/contracts/token/ERC721/ERC721.sol",
  "abi": [
    {
      "inputs": [
        {
          "internalType": "string",
          "name": "name_",
          "type": "string"
        },
        {
          "internalType": "string",
          "name": "symbol_",
          "type": "string"
        }
      ],
      "stateMutability": "nonpayable",
      "type": "constructor"
    },
    {
      "anonymous": false,
      "inputs": [
        {
          "indexed": true,
          "internalType": "address",
          "name": "owner",
          "type": "address"
        },
        {
          "indexed": true,
          "internalType": "address",
          "name": "approved",
          "type": "address"
        },
        {
          "indexed": true,
          "internalType": "uint256",
          "name": "tokenId",
          "type": "uint256"
        }
      ],
      "name": "Approval",
      "type": "event"
    },
    {
      "anonymous": false,
      "inputs": [
        {
          "indexed": true,
          "internalType": "address",
          "name": "owner",
          "type": "address"
        },
        {
          "indexed": true,
          "internalType": "address",
          "name": "operator",
          "type": "address"
        },
        {
          "indexed": false,
          "internalType": "bool",
          "name": "approved",
          "type": "bool"
        }
      ],
      "name": "ApprovalForAll",
      "type": "event"
    },
    {
      "anonymous": false,
      "inputs": [
        {
          "indexed": true,
          "internalType": "address",
          "name": "from",
          "type": "address"
        },
        {
          "indexed": true,
          "internalType": "address",
          "name": "to",
          "type": "address"
        },
        {
          "indexed": true,
          "internalType": "uint256",
          "name": "tokenId",
          "type": "uint256"
        }
      ],
      "name": "Transfer",
      "type": "event"
    },
    {
      "inputs": [
        {
          "internalType": "address",
          "name": "to",
          "type": "address"
        },
        {
          "internalType": "uint256",
          "name": "tokenId",
          "type": "uint256"
        }
      ],
      "name": "approve",
      "outputs": [],
      "stateMutability": "nonpayable",
      "type": "function"
    },
    {
      "inputs": [
        {
          "internalType": "address",
          "name": "owner",
          "type": "address"
        }
      ],
      "name": "balanceOf",
      "outputs": [
        {
          "internalType": "uint256",
          "name": "",
          "type": "uint256"
        }
      ],
      "stateMutability": "view",
      "type": "function"
    },
    {
      "inputs": [
        {
          "internalType": "uint256",
          "name": "tokenId",
          "type": "uint256"
        }
      ],
      "name": "getApproved",
      "outputs": [
        {
          "internalType": "address",
          "name": "",
          "type": "address"
        }
      ],
      "stateMutability": "view",
      "type": "function"
    },
    {
      "inputs": [
        {
          "internalType": "address",
          "name": "owner",
          "type": "address"
        },
        {
          "internalType": "address",
          "name": "operator",
          "type": "address"
        }
      ],
      "name": "isApprovedForAll",
      "outputs": [
        {
          "internalType": "bool",
          "name": "",
          "type": "bool"
        }
      ],
      "stateMutability": "view",
      "type": "function"
    },
    {
      "inputs": [],
      "name": "name",
      "outputs": [
        {
          "internalType": "string",
          "name": "",
          "type": "string"
        }
      ],
      "stateMutability": "view",
      "type": "function"
    },
    {
      "inputs": [
        {
          "internalType": "uint256",
          "name": "tokenId",
          "type": "uint256"
        }
      ],
      "name": "ownerOf",
      "outputs": [
        {
          "internalType": "address",
          "name": "",
          "type": "address"
        }
      ],
      "stateMutability": "view",
      "type": "function"
    },
    {
      "inputs": [
        {
          "internalType": "address",
          "name": "from",
          "type": "address"
        },
        {
          "internalType": "address",
          "name": "to",
          "type": "address"
        },
        {
          "internalType": "uint256",
          "name": "tokenId",
          "type": "uint256"
        }
      ],
      "name": "safeTransferFrom",
      "outputs": [],
      "stateMutability": "nonpayable",
      "type": "function"
    },
    {
      "inputs": [
        {
          "internalType": "address",
          "name": "from",
          "type": "address"
        },
        {
          "internalType": "address",
          "name": "to",
          "type": "address"
        },
        {
          "internalType": "uint256",
          "name": "tokenId",
          "type": "uint256"
        },
        {
          "internalType": "bytes",
          "name": "data",
          "type": "bytes"
        }
      ],
      "name": "safeTransferFrom",
      "outputs": [],
      "stateMutability": "nonpayable",
      "type": "function"
    },
    {
      "inputs": [
        {
          "internalType": "address",
          "name": "operator",
          "type": "address"
        },
        {
          "internalType": "bool",
          "name": "approved",
          "type": "bool"
        }
      ],
      "name": "setApprovalForAll",
      "outputs": [],
      "stateMutability": "nonpayable",
      "type": "function"
    },
    {
      "inputs": [
        {
          "internalType": "bytes4",
          "name": "interfaceId",
          "type": "bytes4"
        }
      ],
      "name": "supportsInterface",
      "outputs": [
        {
          "internalType": "bool",
          "name": "",
          "type": "bool"
        }
      ],
      "stateMutability": "view",
      "type": "function"
    },
    {
      "inputs": [],
      "name": "symbol",
      "outputs": [
        {
          "internalType": "string",
          "name": "",
          "type": "string"
        }
      ],
      "stateMutability": "view",
      "type": "function"
    },
    {
      "inputs": [
        {
          "internalType": "uint256",
          "name": "tokenId",
          "type": "uint256"
        }
      ],
      "name": "tokenURI",
      "outputs": [
        {
          "internalType": "string",
          "name": "",
          "type": "string"
        }
      ],
      "stateMutability": "view",
      "type": "function"
    },
    {
      "inputs": [
        {
          "internalType": "address",
          "name": "from",
          "type": "address"
        },
        {
          "internalType": "address",
          "name": "to",
          "type": "address"
        },
        {
          "internalType": "uint256",
          "name": "tokenId",
          "type": "uint256"
        }
      ],
      "name": "transferFrom",
      "outputs": [],
      "stateMutability": "nonpayable",
      "type": "function"
    }
  ],
  "bytecode": "0x60806040523462000032575b6200002062000019620001ef565b9062000426565b60405161162d62000441823961162d90f35b6200003b600080fd5b6200000b565b50634e487b7160e01b600052604160045260246000fd5b90601f01601f191681019081106001600160401b038211176200007a57604052565b6200008462000041565b604052565b90620000a06200009860405190565b928362000058565b565b602090620000c3906001600160401b038111620000c757601f01601f191690565b0190565b620000d162000041565b601f01601f191690565b60005b838110620000ef5750506000910152565b8181015183820152602001620000de565b929190620000a0916200011d6200011783620000a2565b62000089565b9482865260208601918382011115620000db5762000139600080fd5b620000db565b906200015e9181601f8201121562000161575b60208151910162000100565b90565b6200016a600080fd5b62000152565b91906200015e90604084820312620001e0575b8351620001a49082906001600160401b038111620001d1575b86016200013f565b602085015190946001600160401b038211620001c2575b016200013f565b620001cb600080fd5b620001bb565b620001da600080fd5b6200019c565b620001e9600080fd5b62000183565b6200021262001a6e80380380620002068162000089565b92833981019062000170565b9091565b50634e487b7160e01b600052602260045260246000fd5b906001600283049216801562000254575b60208310146200024a57565b620000a062000216565b91607f16916200023e565b6200015e6200015e6200015e9290565b9190620002846200015e620002a0936200025f565b9083549160001960089290920291821b911b9181191691161790565b9055565b620000a0916000916200026f565b818110620002be575050565b80620002ce6000600193620002a4565b01620002b2565b9190601f8111620002e557505050565b620002f9620000a093600052602060002090565b906020601f8401819004830193106200031d575b6020601f909101040190620002b2565b90915081906200030d565b9062000332815190565b906001600160401b0382116200040a575b6200035b826200035485546200022d565b85620002d5565b602090601f83116001146200039a57620002a09291600091836200038e575b5050600019600883021c1916906002021790565b0151905038806200037a565b601f19831691620003b085600052602060002090565b9260005b818110620003f157509160029391856001969410620003d7575b50505002019055565b01516000196008601f8516021c19169055388080620003ce565b91936020600181928787015181550195019201620003b4565b6200041462000041565b62000343565b90620000a09162000328565b9062000438620000a09260006200041a565b60016200041a56fe60806040526004361015610018575b610016600080fd5b005b60003560e01c806301ffc9a71461011c57806306fdde0314610113578063081812fc1461010a578063095ea7b31461010157806323b872dd146100f857806342842e0e146100ef5780636352211e146100e657806370a08231146100dd57806395d89b41146100d4578063a22cb465146100cb578063b88d4fde146100c2578063c87b56dd146100b95763e985e9c50361000e576100b46106e5565b61000e565b506100b461068a565b506100b461065f565b506100b46104df565b506100b461046f565b506100b4610435565b506100b46103ee565b506100b46103c6565b506100b461039e565b506100b4610333565b506100b46102a2565b506100b4610230565b506100b4610170565b600080fd5b6001600160e01b031981165b0361012557565b9050359061014a8261012a565b565b90610160916020818303126101635761013d565b90565b61016b600080fd5b61013d565b50346101a4575b6101a061018d61018836600461014c565b610710565b6040515b91829182901515815260200190565b0390f35b6101ac600080fd5b610177565b60009103126101bc57565b61014a600080fd5b60005b8381106101d75750506000910152565b81810151838201526020016101c7565b601f01601f191690565b6102126101e760209361021b93610206815190565b80835293849260200190565b958691016101c4565b0190565b6020808252610160929101906101f1565b5034610259575b6102423660046101b1565b6101a061024d6109d1565b6040519182918261021f565b610261600080fd5b610237565b80610136565b9050359061014a82610266565b90610160916020818303121561026c57610291600080fd5b61026c565b6001600160a01b031690565b50346102d9575b6101a06102bf6102ba366004610279565b610c04565b604051918291826001600160a01b03909116815260200190565b6102e1600080fd5b6102a9565b6001600160a01b038116610136565b9050359061014a826102e6565b919061016090604084820312610326575b61031d81856102f5565b9360200161026c565b61032e600080fd5b610313565b5034610353575b61034e610348366004610302565b90610b86565b604051005b61035b600080fd5b61033a565b9091606082840312610391575b61016061037a84846102f5565b9361038881602086016102f5565b9360400161026c565b610399600080fd5b61036d565b50346103b9575b61034e6103b3366004610360565b91610cbd565b6103c1600080fd5b6103a5565b50346103e1575b61034e6103db366004610360565b91610cda565b6103e9600080fd5b6103cd565b503461040b575b6101a06102bf610406366004610279565b6108a7565b610413600080fd5b6103f5565b9061016091602081830312156102f557610430600080fd5b6102f5565b5034610462575b6101a061045261044d366004610418565b61081e565b6040519182918290815260200190565b61046a600080fd5b61043c565b503461048c575b6104813660046101b1565b6101a061024d6109db565b610494600080fd5b610476565b801515610136565b9050359061014a82610499565b9190610160906040848203126104d2575b6104c981856102f5565b936020016104a1565b6104da600080fd5b6104bf565b50346104fa575b61034e6104f43660046104ae565b90610c29565b610502600080fd5b6104e6565b50634e487b7160e01b600052604160045260246000fd5b90601f01601f1916810190811067ffffffffffffffff82111761054057604052565b610548610507565b604052565b9061014a61055a60405190565b928361051e565b61021b60209167ffffffffffffffff811161058057601f01601f191690565b6101e7610507565b90826000939282370152565b92919061014a916105ac6105a783610561565b61054d565b9482865260208601918382011115610588576105c6600080fd5b610588565b906101609181601f820112156105e7575b602081359101610594565b6105ef600080fd5b6105dc565b608081830312610652575b61060982826102f5565b9261016061061a84602085016102f5565b93610628816040860161026c565b9360608101359067ffffffffffffffff8211610645575b016105cb565b61064d600080fd5b61063f565b61065a600080fd5b6105ff565b503461067d575b61034e6106743660046105f4565b92919091610cea565b610685600080fd5b610666565b50346106a7575b6101a061024d6106a2366004610279565b610a4b565b6106af600080fd5b610691565b9190610160906040848203126106d8575b6106cf81856102f5565b936020016102f5565b6106e0600080fd5b6106c5565b5034610703575b6101a061018d6106fd3660046106b4565b90610c34565b61070b600080fd5b6106ec565b6380ac58cd60e01b6001600160e01b0319821614908115610740575b8115610736575090565b6101609150611443565b6001600160e01b03198116635b5e139f60e01b14915061072c565b6102966101606101609290565b6101609061075b565b1561077857565b60405162461bcd60e51b815260206004820152602960248201527f4552433732313a2061646472657373207a65726f206973206e6f7420612076616044820152683634b21037bbb732b960b91b6064820152608490fd5b61016090610296906001600160a01b031682565b610160906107cf565b610160906107e3565b906107ff906107ec565b600052602052604060002090565b6101609081565b610160905461080d565b6108566101609161082d600090565b5061084f61083e6102966000610768565b6001600160a01b0383161415610771565b60036107f5565b610814565b1561086257565b60405162461bcd60e51b815260206004820152601860248201527f4552433732313a20696e76616c696420746f6b656e20494400000000000000006044820152606490fd5b6108b49060005b50610d8a565b6101606108c46102966000610768565b6001600160a01b038316141561085b565b50634e487b7160e01b600052602260045260246000fd5b906001600283049216801561090f575b602083101461090757565b61014a6108d5565b91607f16916108fc565b8054600093929161093661092c836108ec565b8085529360200190565b9160018116908115610988575060011461094f57505050565b6109629192939450600052602060002090565b916000925b8184106109745750500190565b805484840152602090930192600101610967565b92949550505060ff1916825215156020020190565b9061016091610919565b9061014a6109c1926109b860405190565b9384809261099d565b038361051e565b610160906109a7565b61016060006109c8565b61016060016109c8565b6101606101606101609290565b906109ff6105a783610561565b918252565b61016060006109f2565b610160610a04565b61021b610a2e92602092610a28815190565b94859290565b938491016101c4565b610a45906101609392610a16565b90610a16565b610a54816111a7565b610a5c610ab6565b8051610a6f610a6b60006109e5565b9190565b1115610aac57610160610aa091610a88610160946113b7565b90610a9260405190565b938492602084019283610a37565b9081038252038261051e565b5050610160610a0e565b610160610a0e565b15610ac557565b60405162461bcd60e51b815260206004820152602160248201527f4552433732313a20617070726f76616c20746f2063757272656e74206f776e656044820152603960f91b6064820152608490fd5b15610b1b57565b60405162461bcd60e51b815260206004820152603d60248201527f4552433732313a20617070726f76652063616c6c6572206973206e6f7420746f60448201527f6b656e206f776e6572206f7220617070726f76656420666f7220616c6c0000006064820152608490fd5b9061014a91610bd1610b97836108a7565b610bb56001600160a01b0382166001600160a01b0385161415610abe565b336001600160a01b0382168114918215610bd6575b5050610b14565b611076565b610be09250610c34565b3880610bca565b906107ff906109e5565b61016090610296565b6101609054610bf1565b610c2461016091610c13600090565b50610c1d816111a7565b6004610be7565b610bfa565b61014a91903361112c565b61016091610c4f610c5492610c47600090565b5060056107f5565b6107f5565b5460ff1690565b15610c6257565b60405162461bcd60e51b815260206004820152602d60248201527f4552433732313a2063616c6c6572206973206e6f7420746f6b656e206f776e6560448201526c1c881bdc88185c1c1c9bdd9959609a1b6064820152608490fd5b61014a929190610cd5610cd08433610da1565b610c5b565b610f59565b909161014a92610ce8610a0e565b925b61014a93929190610cfe610cd08433610da1565b610d6b565b15610d0a57565b6040515b62461bcd60e51b815260206004820152603260248201527f4552433732313a207472616e7366657220746f206e6f6e20455243373231526560448201527131b2b4bb32b91034b6b83632b6b2b73a32b960711b6064820152608490fd5b9161014a9391610d8593610d80838383610f59565b611252565b610d03565b610c2461016091610d99600090565b506002610be7565b610daa826108a7565b916001600160a01b0383166001600160a01b03831614928315610e04575b508215610dd457505090565b610e00919250610de6610df391610c04565b926001600160a01b031690565b916001600160a01b031690565b1490565b610e119193508290610c34565b9138610dc8565b15610e1f57565b60405162461bcd60e51b815260206004820152602560248201527f4552433732313a207472616e736665722066726f6d20696e636f72726563742060448201526437bbb732b960d91b6064820152608490fd5b15610e7957565b60405162461bcd60e51b8152602060048201526024808201527f4552433732313a207472616e7366657220746f20746865207a65726f206164646044820152637265737360e01b6064820152608490fd5b916001600160a01b0360089290920291821b911b5b9181191691161790565b9190610efa610160610f02936107ec565b908354610eca565b9055565b61014a91600091610ee9565b9060001990610edf565b90610f2c610160610f02926109e5565b8254610f12565b906001600160a01b0390610edf565b90610f52610160610f02926107ec565b8254610f33565b9190610f7f610f67836108a7565b610f796001600160a01b038616610df3565b14610e18565b610fd26000610fa4610f9361029683610768565b6001600160a01b0385161415610e72565b610fc2610fb0856108a7565b610f796001600160a01b038816610df3565b610fcd846004610be7565b610f06565b611016610fdf60016109e5565b61100661100c846003610c4f610ff58a836107f5565b6110068761100283610814565b0390565b90610f1c565b9161021b83610814565b61102a81611025846002610be7565b610f42565b61106661106061105a7fddf252ad1be2c89b69c2b068fc378daa952ba7f163c4a11628f55a4df523b3ef956107ec565b926107ec565b926109e5565b9261107060405190565b600090a4565b9061108682611025836004610be7565b61108f816108a7565b9161106661106061105a7f8c5be1e5ebec7d5bd14f71427d1e84f3dd0314c0f7b2291e5b200ac8c7c3b925956107ec565b156110c757565b60405162461bcd60e51b815260206004820152601960248201527f4552433732313a20617070726f766520746f2063616c6c6572000000000000006044820152606490fd5b9060ff90610edf565b90611125610160610f0292151590565b825461110c565b61114a6001600160a01b0383166001600160a01b03831614156110c0565b6111628361115d84610c4f8560056107f5565b611115565b6111a26111986111927f17307eab39ab6107e8899845ad3d59bd9653f200f220920489ca2b5937696c31936107ec565b936107ec565b9361019160405190565b0390a3565b6111b361014a916111b8565b61085b565b6111c39060006108ae565b6111d3610df36102966000610768565b141590565b9050519061014a8261012a565b9061016091602081830312156111d8576111fd600080fd5b6111d8565b6001600160a01b039182168152911660208201526040810191909152608060608201819052610160929101906101f1565b3d1561124d576112423d6109f2565b903d6000602084013e565b606090565b9190939261125e600090565b9461126881611350565b1561134657906112af6000611287611282602096956107ec565b6107ec565b926112ba63150b7a02916112983390565b966112a260405190565b998a988997889660e01b90565b865260048601611202565b03925af160009181611316575b506112f957506112d5611233565b80516112e4610a6b60006109e5565b036112f157604051610d0e565b805190602001fd5b909150610e00630a85bd0160e11b5b916001600160e01b03191690565b61133891925060203d811161133f575b611330818361051e565b8101906111e5565b90386112c7565b503d611326565b5060019450505050565b3b61135e610a6b60006109e5565b1190565b369037565b9061014a61137d611377846109f2565b93610561565b601f190160208401611362565b50634e487b7160e01b600052601260045260246000fd5b81156113ab570490565b6113b361138a565b0490565b6113c081611453565b906113d060019261021b846109e5565b91806113db84611367565b936020018401905b6113ee575b50505090565b6114229060001901926f181899199a1a9b1b9c1cb0b131b232b360811b600a82061a845361141c600a6109e5565b906113a1565b9081611431610a6b60006109e5565b1461143e579091816113e3565b6113e8565b610e006301ffc9a760e01b611308565b61145d60006109e5565b907a184f03e93ff9f4daa797ed6e38ed64bf6a1f010000000000000000611483816109e5565b8210156115d5575b506d04ee2d6d415b85acef81000000006114a4816109e5565b8210156115b3575b50662386f26fc100006114be816109e5565b821015611591575b506305f5e1006114d5816109e5565b82101561156f575b506127106114ea816109e5565b82101561154d575b5060646114fe816109e5565b82101561152b575b50611514610a6b600a6109e5565b101561151d5790565b6101609061021b60016109e5565b6115469161141c61153b926109e5565b9161021b60026109e5565b9038611506565b6115689161141c61155d926109e5565b9161021b60046109e5565b90386114f2565b61158a9161141c61157f926109e5565b9161021b60086109e5565b90386114dd565b6115ac9161141c6115a1926109e5565b9161021b60106109e5565b90386114c6565b6115ce9161141c6115c3926109e5565b9161021b60206109e5565b90386114ac565b6115f09161141c6115e5926109e5565b9161021b60406109e5565b903861148b56fea2646970667358221220fffef1f396a48361908e99d2586aefaf8c1ce6b9c8fcd2dc015791dee1b39ec364736f6c63430008110033",
  "linkReferences": {},
  "deployedLinkReferences": {}
}