{
  "_format": "hh-sol-artifact-1",
  "contractName": "TaskContract",
  "sourceName": "contracts/TaskContract.sol",
  "abi": [
    {
      "inputs": [],
      "stateMutability": "nonpayable",
      "type": "constructor"
    },
    {
      "anonymous": false,
      "inputs": [
        {
          "indexed": false,
          "internalType": "address",
          "name": "recipient",
          "type": "address"
        },
        {
          "indexed": false,
          "internalType": "uint256",
          "name": "taskId",
          "type": "uint256"
        }
      ],
      "name": "AddTask",
      "type": "event"
    },
    {
      "anonymous": false,
      "inputs": [
        {
          "indexed": false,
          "internalType": "uint256",
          "name": "taskId",
          "type": "uint256"
        },
        {
          "indexed": false,
          "internalType": "bool",
          "name": "isDeleted",
          "type": "bool"
        }
      ],
      "name": "DeleteTask",
      "type": "event"
    },
    {
      "inputs": [
        {
          "internalType": "string",
          "name": "taskText",
          "type": "string"
        },
        {
          "internalType": "bool",
          "name": "isDeleted",
          "type": "bool"
        }
      ],
      "name": "addTask",
      "outputs": [],
      "stateMutability": "nonpayable",
      "type": "function"
    },
    {
      "inputs": [
        {
          "internalType": "uint256",
          "name": "taskId",
          "type": "uint256"
        },
        {
          "internalType": "bool",
          "name": "isDeleted",
          "type": "bool"
        }
      ],
      "name": "deleteTask",
      "outputs": [],
      "stateMutability": "nonpayable",
      "type": "function"
    },
    {
      "inputs": [],
      "name": "getMyTasks",
      "outputs": [
        {
          "components": [
            {
              "internalType": "uint256",
              "name": "id",
              "type": "uint256"
            },
            {
              "internalType": "address",
              "name": "username",
              "type": "address"
            },
            {
              "internalType": "string",
              "name": "taskText",
              "type": "string"
            },
            {
              "internalType": "bool",
              "name": "isDeleted",
              "type": "bool"
            }
          ],
          "internalType": "struct TaskContract.Task[]",
          "name": "",
          "type": "tuple[]"
        }
      ],
      "stateMutability": "view",
      "type": "function"
    }
  ],
  "bytecode": "0x60806040523462000027575b6200001562000114565b604051610c56620006278239610c5690f35b62000030600080fd5b6200000b565b50634e487b7160e01b600052604160045260246000fd5b90601f01601f191681019081106001600160401b038211176200006f57604052565b6200007962000036565b604052565b90620000956200008d60405190565b92836200004d565b565b602090620000b8906001600160401b038111620000bc57601f01601f191690565b0190565b620000c662000036565b601f01601f191690565b90620000e6620000e08362000097565b6200007e565b918252565b620000f76004620000d0565b631d195cdd60e21b602082015290565b62000111620000eb565b90565b6200009560006200012462000107565b62000578565b6200011160806200007e565b6001600160a01b031690565b50634e487b7160e01b600052603260045260246000fd5b6200017c60049162000169815490565b8410156200018557600052602060002090565b91020190600090565b6200018f62000142565b600052602060002090565b50634e487b7160e01b600052600060045260246000fd5b90600019905b9181191691161790565b6200011162000111620001119290565b90620001e562000111620001ed92620001c1565b8254620001b1565b9055565b906001600160a01b0390620001b7565b620001119062000136906001600160a01b031682565b620001119062000201565b620001119062000217565b906200024162000111620001ed9262000222565b8254620001f1565b50634e487b7160e01b600052602260045260246000fd5b906001600283049216801562000287575b60208310146200027d57565b6200009562000249565b91607f169162000271565b9160001960089290920291821b911b620001b7565b9190620002bc62000111620001ed93620001c1565b90835462000292565b6200009591600091620002a7565b818110620002df575050565b80620002ef6000600193620002c5565b01620002d3565b9190601f81116200030657505050565b6200031a6200009593600052602060002090565b906020601f8401819004830193106200033e575b6020601f909101040190620002d3565b90915081906200032e565b9062000353815190565b906001600160401b0382116200042b575b6200037c8262000375855462000260565b85620002f6565b602090601f8311600114620003bb57620001ed929160009183620003af575b5050600019600883021c1916906002021790565b0151905038806200039b565b601f19831691620003d185600052602060002090565b9260005b8181106200041257509160029391856001969410620003f8575b50505002019055565b01516000196008601f8516021c19169055388080620003ef565b91936020600181928787015181550195019201620003d5565b6200043562000036565b62000364565b90620000959162000349565b9060ff90620001b7565b906200046462000111620001ed92151590565b825462000447565b620000959190620004da9060609060039062000492816200048b875190565b90620001d1565b620004b660018201620004af60208801516001600160a01b031690565b906200022d565b620004d160028201620004ca604088015190565b906200043b565b01920151151590565b9062000451565b620000959291156200046c57620004f76200019a565b6200046c565b906200052962000095928054906801000000000000000082101562000530575b60018201815562000159565b90620004e1565b6200053a62000036565b6200051d565b906200054c90620001c1565b600052602052604060002090565b6001600160a01b039091168152604081019291620000959160200152565b90620005cf600062000588815490565b92620005c98291620005c03397620005aa88620005a46200012a565b97880152565b6001600160a01b03891660208701526040860152565b15156060840152565b620004fd565b620005e782620005e183600162000540565b6200022d565b7f1f54e1ba1832d428fbd7e7792beaf62b1fc5a382c207ffd614209c1413e94fda91620006216200061760405190565b928392836200055a565b0390a156fe60806040526004361015610018575b610016600080fd5b005b60003560e01c806320df4581146100545780636e13f8181461004b5763aaba29070361000e576100466103a2565b61000e565b50610046610331565b506100466101cb565b600080fd5b601f01601f191690565b50634e487b7160e01b600052604160045260246000fd5b90601f01601f1916810190811067ffffffffffffffff8211176100a557604052565b6100ad61006c565b604052565b906100c66100bf60405190565b9283610083565b565b6100e760209167ffffffffffffffff81116100eb57601f01601f191690565b0190565b61006261006c565b90826000939282370152565b9291906100c691610117610112836100c8565b6100b2565b94828652602086019183820111156100f357610131600080fd5b6100f3565b906101529181601f82011215610155575b6020813591016100ff565b90565b61015d600080fd5b610147565b8015155b0361005d57565b905035906100c682610162565b9190610152906040848203126101be575b6101a881853567ffffffffffffffff81116101b1575b8601610136565b9360200161016d565b6101b9600080fd5b6101a1565b6101c6600080fd5b61018b565b50346101ef575b6101e66101e036600461017a565b906107a6565b604051005b0390f35b6101f7600080fd5b6101d2565b600091031261020757565b6100c6600080fd5b6001600160a01b031690565b60005b83811061022e5750506000910152565b818101518382015260200161021e565b61025f6100626020936100e793610253815190565b80835293849260200190565b9586910161021b565b805182526020808201516001600160a01b03169083015290610152906060806102a0608084016040870151858203604087015261023e565b9401511515910152565b9061015291610268565b906102ca6102c0835190565b8083529160200190565b90816102dc6020830284019460200190565b926000915b8383106102f057505050505090565b9091929394602061031361030c838560019503875289516102aa565b9760200190565b93019301919392906102e1565b6020808252610152929101906102b4565b503461035a575b6103433660046101fc565b6101eb61034e610a80565b60405191829182610320565b610362600080fd5b610338565b80610166565b905035906100c682610367565b919061015290604084820312610395575b6101a8818561036d565b61039d600080fd5b61038b565b50346103bd575b6101e66103b736600461037a565b90610ba4565b6103c5600080fd5b6103a9565b61015260806100b2565b50634e487b7160e01b600052603260045260246000fd5b61040b6004916103f9815490565b84101561041457600052602060002090565b91020190600090565b61041c6103d4565b600052602060002090565b50634e487b7160e01b600052600060045260246000fd5b90600019905b9181191691161790565b6101526101526101529290565b9061046b6101526104729261044e565b825461043e565b9055565b906001600160a01b0390610444565b6101529061020f906001600160a01b031682565b61015290610485565b61015290610499565b906104bb610152610472926104a2565b8254610476565b50634e487b7160e01b600052602260045260246000fd5b90600160028304921680156104fc575b60208310146104f457565b6100c66104c2565b91607f16916104e9565b9160001960089290920291821b911b610444565b919061052b6101526104729361044e565b908354610506565b6100c69160009161051a565b81811061054a575050565b806105586000600193610533565b0161053f565b9190601f811161056d57505050565b61057f6100c693600052602060002090565b906020601f8401819004830193106105a1575b6020601f90910104019061053f565b9091508190610592565b906105b4815190565b9067ffffffffffffffff821161067f575b6105d9826105d385546104d9565b8561055e565b602090601f831160011461061457610472929160009183610609575b5050600019600883021c1916906002021790565b0151905038806105f5565b601f1983169161062985600052602060002090565b9260005b8181106106675750916002939185600196941061064e575b50505002019055565b01516000196008601f8516021c19169055388080610645565b9193602060018192878701518155019501920161062d565b61068761006c565b6105c5565b906100c6916105ab565b9060ff90610444565b906106af61015261047292151590565b8254610696565b6100c69190610719906060906003906106d7816106d1875190565b9061045b565b6106f8600182016106f260208801516001600160a01b031690565b906104ab565b6107106002820161070a604088015190565b9061068c565b01920151151590565b9061069f565b6100c69291156106b657610731610427565b6106b6565b9061075e6100c69280549068010000000000000000821015610764575b6001820181556103eb565b9061071f565b61076c61006c565b610753565b9061077b9061044e565b600052602052604060002090565b6001600160a01b0390911681526040810192916100c69160200152565b906107f560006107b4815490565b926107f082916107e733976107d1886107cb6103ca565b97880152565b6001600160a01b03891660208701526040860152565b15156060840152565b610736565b61080982610804836001610771565b6104ab565b7f1f54e1ba1832d428fbd7e7792beaf62b1fc5a382c207ffd614209c1413e94fda9161084061083760405190565b92839283610789565b0390a1565b6020809167ffffffffffffffff811161085d57020190565b61086561006c565b020190565b9061087761011283610845565b918252565b6108846103ca565b60008082526020820181905260606040830181905282015290565b61015261087c565b60005b8281106108b657505050565b6020906108c161089f565b81840152016108aa565b906100c66108e16108db8461086a565b93610845565b601f1901602084016108a7565b50634e487b7160e01b600052601160045260246000fd5b6001906000198114610915570190565b6100e76108ee565b6101529061020f565b610152905461091d565b906020809161093d845190565b81101561094b575b02010190565b6109536103d4565b610945565b6101529081565b6101529054610958565b8054600093929161098661097c836104d9565b8085529360200190565b91600181169081156109d8575060011461099f57505050565b6109b29192939450600052602060002090565b916000925b8184106109c45750500190565b8054848401526020909301926001016109b7565b92949550505060ff1916825215156020020190565b9061015291610969565b906100c6610a1192610a0860405190565b938480926109ed565b0383610083565b906100c66107e76003610a296103ca565b94610a3a610a368261095f565b8752565b610a59610a4960018301610926565b6001600160a01b03166020880152565b610a6f610a68600283016109f7565b6040880152565b015460ff1690565b61015290610a18565b600090610a93610a8e835490565b6108cb565b610a9c8361044e565b92835b610aaa610152835490565b811015610b5257610ac4610abf826001610771565b610926565b610ad6335b916001600160a01b031690565b1480610b2e575b610af0575b610aeb90610905565b610a9f565b93610b26610aeb91610b0b610b0588866103eb565b50610a77565b610b158287610930565b52610b208186610930565b50610905565b949050610ae2565b50610b476003610b3e83856103eb565b50015460ff1690565b151582151514610add565b5091610b66610b60856108cb565b9361044e565b845b811015610b9d57610b9681610b80610b689386610930565b51610b8b8288610930565b52610b208187610930565b9050610b66565b5092505090565b90610bb3610abf836001610771565b610bbc33610ac9565b14610bc5575050565b610bdd816003610bd68560006103eb565b500161069f565b7ff88a35c3d2016c409a46570b994a17b408dbc83c14a03f521512d50b85386d0691610840610c0b60405190565b9283928390815290151560208201526040019056fea2646970667358221220b91aa94ee63ef04d71e97b92c60327278c121bcc6be6ff50558cde00325e885964736f6c63430008110033",
  "linkReferences": {},
  "deployedLinkReferences": {}
}